{
  "_format": "hh-sol-artifact-1",
  "contractName": "SocialChain",
  "sourceName": "contracts/SocialChain.sol",
  "abi": [
    {
      "inputs": [],
      "stateMutability": "nonpayable",
      "type": "constructor"
    },
    {
      "anonymous": false,
      "inputs": [
        {
          "indexed": false,
          "internalType": "address",
          "name": "_author",
          "type": "address"
        },
        {
          "indexed": false,
          "internalType": "uint256",
          "name": "_userId",
          "type": "uint256"
        },
        {
          "indexed": false,
          "internalType": "uint256",
          "name": "_postId",
          "type": "uint256"
        }
      ],
      "name": "logPostCreated",
      "type": "event"
    },
    {
      "anonymous": false,
      "inputs": [
        {
          "indexed": false,
          "internalType": "address",
          "name": "userAddress",
          "type": "address"
        },
        {
          "indexed": false,
          "internalType": "uint256",
          "name": "userId",
          "type": "uint256"
        }
      ],
      "name": "logRegisterUser",
      "type": "event"
    },
    {
      "inputs": [
        {
          "internalType": "address payable",
          "name": "_accountAddress",
          "type": "address"
        },
        {
          "internalType": "string",
          "name": "_postdescription",
          "type": "string"
        },
        {
          "internalType": "string",
          "name": "_imghash",
          "type": "string"
        }
      ],
      "name": "createPost",
      "outputs": [],
      "stateMutability": "nonpayable",
      "type": "function"
    },
    {
      "inputs": [
        {
          "internalType": "uint256",
          "name": "_postId",
          "type": "uint256"
        }
      ],
      "name": "getPostById",
      "outputs": [
        {
          "components": [
            {
              "internalType": "uint256",
              "name": "postId",
              "type": "uint256"
            },
            {
              "internalType": "address",
              "name": "author",
              "type": "address"
            },
            {
              "internalType": "string",
              "name": "postDescription",
              "type": "string"
            },
            {
              "internalType": "string",
              "name": "imgHash",
              "type": "string"
            },
            {
              "internalType": "uint256",
              "name": "timeStamp",
              "type": "uint256"
            },
            {
              "internalType": "uint256",
              "name": "likeCount",
              "type": "uint256"
            },
            {
              "internalType": "uint256",
              "name": "reportCount",
              "type": "uint256"
            },
            {
              "internalType": "enum SocialChain.postStatus",
              "name": "status",
              "type": "uint8"
            }
          ],
          "internalType": "struct SocialChain.Post",
          "name": "",
          "type": "tuple"
        }
      ],
      "stateMutability": "view",
      "type": "function"
    },
    {
      "inputs": [
        {
          "internalType": "uint256",
          "name": "_page",
          "type": "uint256"
        },
        {
          "internalType": "uint256",
          "name": "_perPage",
          "type": "uint256"
        }
      ],
      "name": "getPostIds",
      "outputs": [
        {
          "internalType": "uint256[]",
          "name": "",
          "type": "uint256[]"
        }
      ],
      "stateMutability": "view",
      "type": "function"
    },
    {
      "inputs": [
        {
          "internalType": "address",
          "name": "accountAddress",
          "type": "address"
        }
      ],
      "name": "getUser",
      "outputs": [
        {
          "internalType": "uint256",
          "name": "id",
          "type": "uint256"
        },
        {
          "internalType": "string",
          "name": "userName",
          "type": "string"
        },
        {
          "internalType": "string",
          "name": "name",
          "type": "string"
        },
        {
          "internalType": "string",
          "name": "bio",
          "type": "string"
        },
        {
          "internalType": "uint256",
          "name": "birthDate",
          "type": "uint256"
        },
        {
          "internalType": "bool",
          "name": "showUsername",
          "type": "bool"
        },
        {
          "internalType": "string",
          "name": "imageHash",
          "type": "string"
        },
        {
          "internalType": "string",
          "name": "coverHash",
          "type": "string"
        }
      ],
      "stateMutability": "view",
      "type": "function"
    },
    {
      "inputs": [
        {
          "internalType": "address",
          "name": "_userAddress",
          "type": "address"
        }
      ],
      "name": "getUserPosts",
      "outputs": [
        {
          "components": [
            {
              "internalType": "uint256",
              "name": "postId",
              "type": "uint256"
            },
            {
              "internalType": "address",
              "name": "author",
              "type": "address"
            },
            {
              "internalType": "string",
              "name": "postDescription",
              "type": "string"
            },
            {
              "internalType": "string",
              "name": "imgHash",
              "type": "string"
            },
            {
              "internalType": "uint256",
              "name": "timeStamp",
              "type": "uint256"
            },
            {
              "internalType": "uint256",
              "name": "likeCount",
              "type": "uint256"
            },
            {
              "internalType": "uint256",
              "name": "reportCount",
              "type": "uint256"
            },
            {
              "internalType": "enum SocialChain.postStatus",
              "name": "status",
              "type": "uint8"
            }
          ],
          "internalType": "struct SocialChain.Post[]",
          "name": "",
          "type": "tuple[]"
        }
      ],
      "stateMutability": "view",
      "type": "function"
    },
    {
      "inputs": [
        {
          "internalType": "uint256",
          "name": "_postId",
          "type": "uint256"
        },
        {
          "internalType": "address",
          "name": "_userAddress",
          "type": "address"
        }
      ],
      "name": "isLikedByAddress",
      "outputs": [
        {
          "internalType": "bool",
          "name": "",
          "type": "bool"
        }
      ],
      "stateMutability": "view",
      "type": "function"
    },
    {
      "inputs": [
        {
          "internalType": "uint256",
          "name": "_postId",
          "type": "uint256"
        }
      ],
      "name": "likePost",
      "outputs": [],
      "stateMutability": "nonpayable",
      "type": "function"
    },
    {
      "inputs": [],
      "name": "owner",
      "outputs": [
        {
          "internalType": "address payable",
          "name": "",
          "type": "address"
        }
      ],
      "stateMutability": "view",
      "type": "function"
    },
    {
      "inputs": [
        {
          "internalType": "string",
          "name": "_username",
          "type": "string"
        },
        {
          "internalType": "string",
          "name": "_name",
          "type": "string"
        },
        {
          "internalType": "string",
          "name": "_imgHash",
          "type": "string"
        },
        {
          "internalType": "string",
          "name": "_coverHash",
          "type": "string"
        },
        {
          "internalType": "string",
          "name": "_bio",
          "type": "string"
        },
        {
          "internalType": "uint256",
          "name": "birthDate",
          "type": "uint256"
        },
        {
          "internalType": "bool",
          "name": "showUserName",
          "type": "bool"
        }
      ],
      "name": "registerUser",
      "outputs": [],
      "stateMutability": "nonpayable",
      "type": "function"
    },
    {
      "inputs": [],
      "name": "totalPosts",
      "outputs": [
        {
          "internalType": "uint256",
          "name": "",
          "type": "uint256"
        }
      ],
      "stateMutability": "view",
      "type": "function"
    },
    {
      "inputs": [],
      "name": "totalUsers",
      "outputs": [
        {
          "internalType": "uint256",
          "name": "",
          "type": "uint256"
        }
      ],
      "stateMutability": "view",
      "type": "function"
    },
    {
      "inputs": [
        {
          "internalType": "string",
          "name": "_username",
          "type": "string"
        }
      ],
      "name": "userNameAvailable",
      "outputs": [
        {
          "internalType": "bool",
          "name": "status",
          "type": "bool"
        }
      ],
      "stateMutability": "view",
      "type": "function"
    }
  ],
  "bytecode": "0x6080604052600060015560006002553480156200001b57600080fd5b50336000806101000a81548173ffffffffffffffffffffffffffffffffffffffff021916908373ffffffffffffffffffffffffffffffffffffffff160217905550620001316040518060400160405280600581526020017f6f776e65720000000000000000000000000000000000000000000000000000008152506040518060400160405280600581526020017f6f776e657200000000000000000000000000000000000000000000000000000081525060405180602001604052806000815250604051806020016040528060008152506040518060400160405280600581526020017f6f776e65720000000000000000000000000000000000000000000000000000008152506001806200013760201b60201c565b62000b3c565b33600060038111156200014f576200014e62000543565b5b600460008373ffffffffffffffffffffffffffffffffffffffff1673ffffffffffffffffffffffffffffffffffffffff16815260200190815260200160002060090160009054906101000a900460ff166003811115620001b457620001b362000543565b5b14620001f7576040517f08c379a0000000000000000000000000000000000000000000000000000000008152600401620001ee90620005d3565b60405180910390fd5b876006816040516200020a91906200066e565b908152602001604051809103902060009054906101000a900460ff161562000269576040517f08c379a00000000000000000000000000000000000000000000000000000000081526004016200026090620006d7565b60405180910390fd5b600160068a6040516200027d91906200066e565b908152602001604051809103902060006101000a81548160ff02191690831515021790555060018054620002b2919062000732565b600181905550600060015490506040518061014001604052808281526020013373ffffffffffffffffffffffffffffffffffffffff1681526020018b81526020018a815260200187815260200186815260200185151581526020018981526020018881526020016001600381111562000330576200032f62000543565b5b815250600460003373ffffffffffffffffffffffffffffffffffffffff1673ffffffffffffffffffffffffffffffffffffffff1681526020019081526020016000206000820151816000015560208201518160010160006101000a81548173ffffffffffffffffffffffffffffffffffffffff021916908373ffffffffffffffffffffffffffffffffffffffff1602179055506040820151816002019081620003da9190620009d2565b506060820151816003019081620003f29190620009d2565b5060808201518160040190816200040a9190620009d2565b5060a0820151816005015560c08201518160060160006101000a81548160ff02191690831515021790555060e08201518160070190816200044c9190620009d2565b50610100820151816008019081620004659190620009d2565b506101208201518160090160006101000a81548160ff0219169083600381111562000495576200049462000543565b5b02179055509050503360058b604051620004b091906200066e565b908152602001604051809103902060006101000a81548173ffffffffffffffffffffffffffffffffffffffff021916908373ffffffffffffffffffffffffffffffffffffffff1602179055507fabc58c36475157c4ac7669f9adfbb6f254d3a3578fb89676f6866ac3b9950eed33826040516200052f92919062000b0f565b60405180910390a150505050505050505050565b7f4e487b7100000000000000000000000000000000000000000000000000000000600052602160045260246000fd5b600082825260208201905092915050565b7f5573657220616c72656164792072656769737465726564000000000000000000600082015250565b6000620005bb60178362000572565b9150620005c88262000583565b602082019050919050565b60006020820190508181036000830152620005ee81620005ac565b9050919050565b600081519050919050565b600081905092915050565b60005b838110156200062b5780820151818401526020810190506200060e565b60008484015250505050565b60006200064482620005f5565b62000650818562000600565b9350620006628185602086016200060b565b80840191505092915050565b60006200067c828462000637565b915081905092915050565b7f557365726e616d6520616c72656164792074616b656e00000000000000000000600082015250565b6000620006bf60168362000572565b9150620006cc8262000687565b602082019050919050565b60006020820190508181036000830152620006f281620006b0565b9050919050565b6000819050919050565b7f4e487b7100000000000000000000000000000000000000000000000000000000600052601160045260246000fd5b60006200073f82620006f9565b91506200074c83620006f9565b925082820190508082111562000767576200076662000703565b5b92915050565b7f4e487b7100000000000000000000000000000000000000000000000000000000600052604160045260246000fd5b7f4e487b7100000000000000000000000000000000000000000000000000000000600052602260045260246000fd5b60006002820490506001821680620007e457607f821691505b602082108103620007fa57620007f96200079c565b5b50919050565b60008190508160005260206000209050919050565b60006020601f8301049050919050565b600082821b905092915050565b600060088302620008647fffffffffffffffffffffffffffffffffffffffffffffffffffffffffffffffff8262000825565b62000870868362000825565b95508019841693508086168417925050509392505050565b6000819050919050565b6000620008b3620008ad620008a784620006f9565b62000888565b620006f9565b9050919050565b6000819050919050565b620008cf8362000892565b620008e7620008de82620008ba565b84845462000832565b825550505050565b600090565b620008fe620008ef565b6200090b818484620008c4565b505050565b5b81811015620009335762000927600082620008f4565b60018101905062000911565b5050565b601f82111562000982576200094c8162000800565b620009578462000815565b8101602085101562000967578190505b6200097f620009768562000815565b83018262000910565b50505b505050565b600082821c905092915050565b6000620009a76000198460080262000987565b1980831691505092915050565b6000620009c2838362000994565b9150826002028217905092915050565b620009dd82620005f5565b67ffffffffffffffff811115620009f957620009f86200076d565b5b62000a058254620007cb565b62000a1282828562000937565b600060209050601f83116001811462000a4a576000841562000a35578287015190505b62000a418582620009b4565b86555062000ab1565b601f19841662000a5a8662000800565b60005b8281101562000a845784890151825560018201915060208501945060208101905062000a5d565b8683101562000aa4578489015162000aa0601f89168262000994565b8355505b6001600288020188555050505b505050505050565b600073ffffffffffffffffffffffffffffffffffffffff82169050919050565b600062000ae68262000ab9565b9050919050565b62000af88162000ad9565b82525050565b62000b0981620006f9565b82525050565b600060408201905062000b26600083018562000aed565b62000b35602083018462000afe565b9392505050565b612c608062000b4c6000396000f3fe608060405234801561001057600080fd5b50600436106100b45760003560e01c80638e53fb41116100715780638e53fb41146101ba5780639a2194a9146101d8578063b90c207314610208578063bff1f9e114610238578063c096cdd514610256578063f82217c114610272576100b4565b806349e03502146100b957806364e95895146100e95780636f77926b14610119578063725009d314610150578063875003aa1461016c5780638da5cb5b1461019c575b600080fd5b6100d360048036038101906100ce9190611ad2565b61028e565b6040516100e09190611bd0565b60405180910390f35b61010360048036038101906100fe9190611bf2565b610459565b6040516101109190611e1e565b60405180910390f35b610133600480360381019061012e9190611e6c565b6107a8565b604051610147989796959493929190611f0d565b60405180910390f35b61016a60048036038101906101659190611bf2565b610be3565b005b61018660048036038101906101819190611fae565b610e38565b6040516101939190611fee565b60405180910390f35b6101a4610ea0565b6040516101b1919061202a565b60405180910390f35b6101c2610ec4565b6040516101cf9190612045565b60405180910390f35b6101f260048036038101906101ed9190611e6c565b610eca565b6040516101ff91906121d9565b60405180910390f35b610222600480360381019061021d9190612330565b6112cd565b60405161022f9190611fee565b60405180910390f35b610240611303565b60405161024d9190612045565b60405180910390f35b610270600480360381019061026b91906123a5565b611309565b005b61028c6004803603810190610287919061245c565b611635565b005b606033600160038111156102a5576102a4611cf0565b5b600460008373ffffffffffffffffffffffffffffffffffffffff1673ffffffffffffffffffffffffffffffffffffffff16815260200190815260200160002060090160009054906101000a900460ff16600381111561030757610306611cf0565b5b14610347576040517f08c379a000000000000000000000000000000000000000000000000000000000815260040161033e906125d6565b60405180910390fd5b6000836001866103579190612625565b6103619190612659565b905060008482610371919061269b565b90506003805490508111156103895760038054905090505b600082826103979190612625565b67ffffffffffffffff8111156103b0576103af612205565b5b6040519080825280602002602001820160405280156103de5781602001602082028036833780820191505090505b50905060008390505b8281101561044b5760038181548110610403576104026126cf565b5b906000526020600020015482858361041b9190612625565b8151811061042c5761042b6126cf565b5b6020026020010181815250508080610443906126fe565b9150506103e7565b508094505050505092915050565b610461611a1b565b336001600381111561047657610475611cf0565b5b600460008373ffffffffffffffffffffffffffffffffffffffff1673ffffffffffffffffffffffffffffffffffffffff16815260200190815260200160002060090160009054906101000a900460ff1660038111156104d8576104d7611cf0565b5b14610518576040517f08c379a000000000000000000000000000000000000000000000000000000000815260040161050f906125d6565b60405180910390fd5b826001600381111561052d5761052c611cf0565b5b6007600083815260200190815260200160002060070160009054906101000a900460ff16600381111561056357610562611cf0565b5b146105a3576040517f08c379a000000000000000000000000000000000000000000000000000000000815260040161059a90612792565b60405180910390fd5b6007600085815260200190815260200160002060405180610100016040529081600082015481526020016001820160009054906101000a900473ffffffffffffffffffffffffffffffffffffffff1673ffffffffffffffffffffffffffffffffffffffff1673ffffffffffffffffffffffffffffffffffffffff168152602001600282018054610632906127e1565b80601f016020809104026020016040519081016040528092919081815260200182805461065e906127e1565b80156106ab5780601f10610680576101008083540402835291602001916106ab565b820191906000526020600020905b81548152906001019060200180831161068e57829003601f168201915b505050505081526020016003820180546106c4906127e1565b80601f01602080910402602001604051908101604052809291908181526020018280546106f0906127e1565b801561073d5780601f106107125761010080835404028352916020019161073d565b820191906000526020600020905b81548152906001019060200180831161072057829003601f168201915b505050505081526020016004820154815260200160058201548152602001600682015481526020016007820160009054906101000a900460ff16600381111561078957610788611cf0565b5b600381111561079b5761079a611cf0565b5b8152505092505050919050565b600060608060606000806060806000600460008b73ffffffffffffffffffffffffffffffffffffffff1673ffffffffffffffffffffffffffffffffffffffff16815260200190815260200160002060405180610140016040529081600082015481526020016001820160009054906101000a900473ffffffffffffffffffffffffffffffffffffffff1673ffffffffffffffffffffffffffffffffffffffff1673ffffffffffffffffffffffffffffffffffffffff168152602001600282018054610872906127e1565b80601f016020809104026020016040519081016040528092919081815260200182805461089e906127e1565b80156108eb5780601f106108c0576101008083540402835291602001916108eb565b820191906000526020600020905b8154815290600101906020018083116108ce57829003601f168201915b50505050508152602001600382018054610904906127e1565b80601f0160208091040260200160405190810160405280929190818152602001828054610930906127e1565b801561097d5780601f106109525761010080835404028352916020019161097d565b820191906000526020600020905b81548152906001019060200180831161096057829003601f168201915b50505050508152602001600482018054610996906127e1565b80601f01602080910402602001604051908101604052809291908181526020018280546109c2906127e1565b8015610a0f5780601f106109e457610100808354040283529160200191610a0f565b820191906000526020600020905b8154815290600101906020018083116109f257829003601f168201915b50505050508152602001600582015481526020016006820160009054906101000a900460ff16151515158152602001600782018054610a4d906127e1565b80601f0160208091040260200160405190810160405280929190818152602001828054610a79906127e1565b8015610ac65780601f10610a9b57610100808354040283529160200191610ac6565b820191906000526020600020905b815481529060010190602001808311610aa957829003601f168201915b50505050508152602001600882018054610adf906127e1565b80601f0160208091040260200160405190810160405280929190818152602001828054610b0b906127e1565b8015610b585780601f10610b2d57610100808354040283529160200191610b58565b820191906000526020600020905b815481529060010190602001808311610b3b57829003601f168201915b505050505081526020016009820160009054906101000a900460ff166003811115610b8657610b85611cf0565b5b6003811115610b9857610b97611cf0565b5b81525050905080600001518160400151826060015183608001518460a001518560c001518660e001518761010001519850985098509850985098509850985050919395975091939597565b3360016003811115610bf857610bf7611cf0565b5b600460008373ffffffffffffffffffffffffffffffffffffffff1673ffffffffffffffffffffffffffffffffffffffff16815260200190815260200160002060090160009054906101000a900460ff166003811115610c5a57610c59611cf0565b5b14610c9a576040517f08c379a0000000000000000000000000000000000000000000000000000000008152600401610c91906125d6565b60405180910390fd5b8160016003811115610caf57610cae611cf0565b5b6007600083815260200190815260200160002060070160009054906101000a900460ff166003811115610ce557610ce4611cf0565b5b14610d25576040517f08c379a0000000000000000000000000000000000000000000000000000000008152600401610d1c90612792565b60405180910390fd5b6009600084815260200190815260200160002060003373ffffffffffffffffffffffffffffffffffffffff1673ffffffffffffffffffffffffffffffffffffffff16815260200190815260200160002060009054906101000a900460ff1615610d8d57600080fd5b60016007600085815260200190815260200160002060050154610db0919061269b565b600760008581526020019081526020016000206005018190555060016009600085815260200190815260200160002060003373ffffffffffffffffffffffffffffffffffffffff1673ffffffffffffffffffffffffffffffffffffffff16815260200190815260200160002060006101000a81548160ff021916908315150217905550505050565b60006009600084815260200190815260200160002060008373ffffffffffffffffffffffffffffffffffffffff1673ffffffffffffffffffffffffffffffffffffffff16815260200190815260200160002060009054906101000a900460ff16905092915050565b60008054906101000a900473ffffffffffffffffffffffffffffffffffffffff1681565b60025481565b60608160016003811115610ee157610ee0611cf0565b5b600460008373ffffffffffffffffffffffffffffffffffffffff1673ffffffffffffffffffffffffffffffffffffffff16815260200190815260200160002060090160009054906101000a900460ff166003811115610f4357610f42611cf0565b5b14610f83576040517f08c379a0000000000000000000000000000000000000000000000000000000008152600401610f7a906125d6565b60405180910390fd5b6000600860008573ffffffffffffffffffffffffffffffffffffffff1673ffffffffffffffffffffffffffffffffffffffff16815260200190815260200160002080548060200260200160405190810160405280929190818152602001828054801561100e57602002820191906000526020600020905b815481526020019060010190808311610ffa575b505050505090506000815167ffffffffffffffff81111561103257611031612205565b5b60405190808252806020026020018201604052801561106b57816020015b611058611a1b565b8152602001906001900390816110505790505b50905060005b82518110156112c15760076000848381518110611091576110906126cf565b5b6020026020010151815260200190815260200160002060405180610100016040529081600082015481526020016001820160009054906101000a900473ffffffffffffffffffffffffffffffffffffffff1673ffffffffffffffffffffffffffffffffffffffff1673ffffffffffffffffffffffffffffffffffffffff168152602001600282018054611123906127e1565b80601f016020809104026020016040519081016040528092919081815260200182805461114f906127e1565b801561119c5780601f106111715761010080835404028352916020019161119c565b820191906000526020600020905b81548152906001019060200180831161117f57829003601f168201915b505050505081526020016003820180546111b5906127e1565b80601f01602080910402602001604051908101604052809291908181526020018280546111e1906127e1565b801561122e5780601f106112035761010080835404028352916020019161122e565b820191906000526020600020905b81548152906001019060200180831161121157829003601f168201915b505050505081526020016004820154815260200160058201548152602001600682015481526020016007820160009054906101000a900460ff16600381111561127a57611279611cf0565b5b600381111561128c5761128b611cf0565b5b815250508282815181106112a3576112a26126cf565b5b602002602001018190525080806112b9906126fe565b915050611071565b50809350505050919050565b60006006826040516112df919061284e565b908152602001604051809103902060009054906101000a900460ff16159050919050565b60015481565b336001600381111561131e5761131d611cf0565b5b600460008373ffffffffffffffffffffffffffffffffffffffff1673ffffffffffffffffffffffffffffffffffffffff16815260200190815260200160002060090160009054906101000a900460ff1660038111156113805761137f611cf0565b5b146113c0576040517f08c379a00000000000000000000000000000000000000000000000000000000081526004016113b7906125d6565b60405180910390fd5b60016002546113cf919061269b565b600281905550600060025490506040518061010001604052808281526020013373ffffffffffffffffffffffffffffffffffffffff16815260200185815260200184815260200142815260200160008152602001600081526020016001600381111561143e5761143d611cf0565b5b815250600760008381526020019081526020016000206000820151816000015560208201518160010160006101000a81548173ffffffffffffffffffffffffffffffffffffffff021916908373ffffffffffffffffffffffffffffffffffffffff16021790555060408201518160020190816114ba9190612a11565b5060608201518160030190816114d09190612a11565b506080820151816004015560a0820151816005015560c0820151816006015560e08201518160070160006101000a81548160ff0219169083600381111561151a57611519611cf0565b5b0217905550905050600860003373ffffffffffffffffffffffffffffffffffffffff1673ffffffffffffffffffffffffffffffffffffffff16815260200190815260200160002081908060018154018082558091505060019003906000526020600020016000909190919091505560038190806001815401808255809150506001900390600052602060002001600090919091909150557fe78603dea3231b9ac9a73b3663b6e28de19f35247e2c32f0115ec263bdc7c49a33600460003373ffffffffffffffffffffffffffffffffffffffff1673ffffffffffffffffffffffffffffffffffffffff168152602001908152602001600020600001548360405161162693929190612af2565b60405180910390a15050505050565b336000600381111561164a57611649611cf0565b5b600460008373ffffffffffffffffffffffffffffffffffffffff1673ffffffffffffffffffffffffffffffffffffffff16815260200190815260200160002060090160009054906101000a900460ff1660038111156116ac576116ab611cf0565b5b146116ec576040517f08c379a00000000000000000000000000000000000000000000000000000000081526004016116e390612b75565b60405180910390fd5b876006816040516116fd919061284e565b908152602001604051809103902060009054906101000a900460ff1615611759576040517f08c379a000000000000000000000000000000000000000000000000000000000815260040161175090612be1565b60405180910390fd5b600160068a60405161176b919061284e565b908152602001604051809103902060006101000a81548160ff0219169083151502179055506001805461179e919061269b565b600181905550600060015490506040518061014001604052808281526020013373ffffffffffffffffffffffffffffffffffffffff1681526020018b81526020018a815260200187815260200186815260200185151581526020018981526020018881526020016001600381111561181957611818611cf0565b5b815250600460003373ffffffffffffffffffffffffffffffffffffffff1673ffffffffffffffffffffffffffffffffffffffff1681526020019081526020016000206000820151816000015560208201518160010160006101000a81548173ffffffffffffffffffffffffffffffffffffffff021916908373ffffffffffffffffffffffffffffffffffffffff16021790555060408201518160020190816118c19190612a11565b5060608201518160030190816118d79190612a11565b5060808201518160040190816118ed9190612a11565b5060a0820151816005015560c08201518160060160006101000a81548160ff02191690831515021790555060e082015181600701908161192d9190612a11565b506101008201518160080190816119449190612a11565b506101208201518160090160006101000a81548160ff0219169083600381111561197157611970611cf0565b5b02179055509050503360058b60405161198a919061284e565b908152602001604051809103902060006101000a81548173ffffffffffffffffffffffffffffffffffffffff021916908373ffffffffffffffffffffffffffffffffffffffff1602179055507fabc58c36475157c4ac7669f9adfbb6f254d3a3578fb89676f6866ac3b9950eed3382604051611a07929190612c01565b60405180910390a150505050505050505050565b60405180610100016040528060008152602001600073ffffffffffffffffffffffffffffffffffffffff168152602001606081526020016060815260200160008152602001600081526020016000815260200160006003811115611a8257611a81611cf0565b5b81525090565b6000604051905090565b600080fd5b600080fd5b6000819050919050565b611aaf81611a9c565b8114611aba57600080fd5b50565b600081359050611acc81611aa6565b92915050565b60008060408385031215611ae957611ae8611a92565b5b6000611af785828601611abd565b9250506020611b0885828601611abd565b9150509250929050565b600081519050919050565b600082825260208201905092915050565b6000819050602082019050919050565b611b4781611a9c565b82525050565b6000611b598383611b3e565b60208301905092915050565b6000602082019050919050565b6000611b7d82611b12565b611b878185611b1d565b9350611b9283611b2e565b8060005b83811015611bc3578151611baa8882611b4d565b9750611bb583611b65565b925050600181019050611b96565b5085935050505092915050565b60006020820190508181036000830152611bea8184611b72565b905092915050565b600060208284031215611c0857611c07611a92565b5b6000611c1684828501611abd565b91505092915050565b600073ffffffffffffffffffffffffffffffffffffffff82169050919050565b6000611c4a82611c1f565b9050919050565b611c5a81611c3f565b82525050565b600081519050919050565b600082825260208201905092915050565b60005b83811015611c9a578082015181840152602081019050611c7f565b60008484015250505050565b6000601f19601f8301169050919050565b6000611cc282611c60565b611ccc8185611c6b565b9350611cdc818560208601611c7c565b611ce581611ca6565b840191505092915050565b7f4e487b7100000000000000000000000000000000000000000000000000000000600052602160045260246000fd5b60048110611d3057611d2f611cf0565b5b50565b6000819050611d4182611d1f565b919050565b6000611d5182611d33565b9050919050565b611d6181611d46565b82525050565b600061010083016000830151611d806000860182611b3e565b506020830151611d936020860182611c51565b5060408301518482036040860152611dab8282611cb7565b91505060608301518482036060860152611dc58282611cb7565b9150506080830151611dda6080860182611b3e565b5060a0830151611ded60a0860182611b3e565b5060c0830151611e0060c0860182611b3e565b5060e0830151611e1360e0860182611d58565b508091505092915050565b60006020820190508181036000830152611e388184611d67565b905092915050565b611e4981611c3f565b8114611e5457600080fd5b50565b600081359050611e6681611e40565b92915050565b600060208284031215611e8257611e81611a92565b5b6000611e9084828501611e57565b91505092915050565b611ea281611a9c565b82525050565b600082825260208201905092915050565b6000611ec482611c60565b611ece8185611ea8565b9350611ede818560208601611c7c565b611ee781611ca6565b840191505092915050565b60008115159050919050565b611f0781611ef2565b82525050565b600061010082019050611f23600083018b611e99565b8181036020830152611f35818a611eb9565b90508181036040830152611f498189611eb9565b90508181036060830152611f5d8188611eb9565b9050611f6c6080830187611e99565b611f7960a0830186611efe565b81810360c0830152611f8b8185611eb9565b905081810360e0830152611f9f8184611eb9565b90509998505050505050505050565b60008060408385031215611fc557611fc4611a92565b5b6000611fd385828601611abd565b9250506020611fe485828601611e57565b9150509250929050565b60006020820190506120036000830184611efe565b92915050565b600061201482611c1f565b9050919050565b61202481612009565b82525050565b600060208201905061203f600083018461201b565b92915050565b600060208201905061205a6000830184611e99565b92915050565b600081519050919050565b600082825260208201905092915050565b6000819050602082019050919050565b6000610100830160008301516120a56000860182611b3e565b5060208301516120b86020860182611c51565b50604083015184820360408601526120d08282611cb7565b915050606083015184820360608601526120ea8282611cb7565b91505060808301516120ff6080860182611b3e565b5060a083015161211260a0860182611b3e565b5060c083015161212560c0860182611b3e565b5060e083015161213860e0860182611d58565b508091505092915050565b600061214f838361208c565b905092915050565b6000602082019050919050565b600061216f82612060565b612179818561206b565b93508360208202850161218b8561207c565b8060005b858110156121c757848403895281516121a88582612143565b94506121b383612157565b925060208a0199505060018101905061218f565b50829750879550505050505092915050565b600060208201905081810360008301526121f38184612164565b905092915050565b600080fd5b600080fd5b7f4e487b7100000000000000000000000000000000000000000000000000000000600052604160045260246000fd5b61223d82611ca6565b810181811067ffffffffffffffff8211171561225c5761225b612205565b5b80604052505050565b600061226f611a88565b905061227b8282612234565b919050565b600067ffffffffffffffff82111561229b5761229a612205565b5b6122a482611ca6565b9050602081019050919050565b82818337600083830152505050565b60006122d36122ce84612280565b612265565b9050828152602081018484840111156122ef576122ee612200565b5b6122fa8482856122b1565b509392505050565b600082601f830112612317576123166121fb565b5b81356123278482602086016122c0565b91505092915050565b60006020828403121561234657612345611a92565b5b600082013567ffffffffffffffff81111561236457612363611a97565b5b61237084828501612302565b91505092915050565b61238281612009565b811461238d57600080fd5b50565b60008135905061239f81612379565b92915050565b6000806000606084860312156123be576123bd611a92565b5b60006123cc86828701612390565b935050602084013567ffffffffffffffff8111156123ed576123ec611a97565b5b6123f986828701612302565b925050604084013567ffffffffffffffff81111561241a57612419611a97565b5b61242686828701612302565b9150509250925092565b61243981611ef2565b811461244457600080fd5b50565b60008135905061245681612430565b92915050565b600080600080600080600060e0888a03121561247b5761247a611a92565b5b600088013567ffffffffffffffff81111561249957612498611a97565b5b6124a58a828b01612302565b975050602088013567ffffffffffffffff8111156124c6576124c5611a97565b5b6124d28a828b01612302565b965050604088013567ffffffffffffffff8111156124f3576124f2611a97565b5b6124ff8a828b01612302565b955050606088013567ffffffffffffffff8111156125205761251f611a97565b5b61252c8a828b01612302565b945050608088013567ffffffffffffffff81111561254d5761254c611a97565b5b6125598a828b01612302565b93505060a061256a8a828b01611abd565b92505060c061257b8a828b01612447565b91505092959891949750929550565b7f4e6f742061205265676973746572656420557365722100000000000000000000600082015250565b60006125c0601683611ea8565b91506125cb8261258a565b602082019050919050565b600060208201905081810360008301526125ef816125b3565b9050919050565b7f4e487b7100000000000000000000000000000000000000000000000000000000600052601160045260246000fd5b600061263082611a9c565b915061263b83611a9c565b9250828203905081811115612653576126526125f6565b5b92915050565b600061266482611a9c565b915061266f83611a9c565b925082820261267d81611a9c565b91508282048414831517612694576126936125f6565b5b5092915050565b60006126a682611a9c565b91506126b183611a9c565b92508282019050808211156126c9576126c86125f6565b5b92915050565b7f4e487b7100000000000000000000000000000000000000000000000000000000600052603260045260246000fd5b600061270982611a9c565b91507fffffffffffffffffffffffffffffffffffffffffffffffffffffffffffffffff820361273b5761273a6125f6565b5b600182019050919050565b7f4e6f7420616e2061637469766520706f73740000000000000000000000000000600082015250565b600061277c601283611ea8565b915061278782612746565b602082019050919050565b600060208201905081810360008301526127ab8161276f565b9050919050565b7f4e487b7100000000000000000000000000000000000000000000000000000000600052602260045260246000fd5b600060028204905060018216806127f957607f821691505b60208210810361280c5761280b6127b2565b5b50919050565b600081905092915050565b600061282882611c60565b6128328185612812565b9350612842818560208601611c7c565b80840191505092915050565b600061285a828461281d565b915081905092915050565b60008190508160005260206000209050919050565b60006020601f8301049050919050565b600082821b905092915050565b6000600883026128c77fffffffffffffffffffffffffffffffffffffffffffffffffffffffffffffffff8261288a565b6128d1868361288a565b95508019841693508086168417925050509392505050565b6000819050919050565b600061290e61290961290484611a9c565b6128e9565b611a9c565b9050919050565b6000819050919050565b612928836128f3565b61293c61293482612915565b848454612897565b825550505050565b600090565b612951612944565b61295c81848461291f565b505050565b5b8181101561298057612975600082612949565b600181019050612962565b5050565b601f8211156129c55761299681612865565b61299f8461287a565b810160208510156129ae578190505b6129c26129ba8561287a565b830182612961565b50505b505050565b600082821c905092915050565b60006129e8600019846008026129ca565b1980831691505092915050565b6000612a0183836129d7565b9150826002028217905092915050565b612a1a82611c60565b67ffffffffffffffff811115612a3357612a32612205565b5b612a3d82546127e1565b612a48828285612984565b600060209050601f831160018114612a7b5760008415612a69578287015190505b612a7385826129f5565b865550612adb565b601f198416612a8986612865565b60005b82811015612ab157848901518255600182019150602085019450602081019050612a8c565b86831015612ace5784890151612aca601f8916826129d7565b8355505b6001600288020188555050505b505050505050565b612aec81611c3f565b82525050565b6000606082019050612b076000830186612ae3565b612b146020830185611e99565b612b216040830184611e99565b949350505050565b7f5573657220616c72656164792072656769737465726564000000000000000000600082015250565b6000612b5f601783611ea8565b9150612b6a82612b29565b602082019050919050565b60006020820190508181036000830152612b8e81612b52565b9050919050565b7f557365726e616d6520616c72656164792074616b656e00000000000000000000600082015250565b6000612bcb601683611ea8565b9150612bd682612b95565b602082019050919050565b60006020820190508181036000830152612bfa81612bbe565b9050919050565b6000604082019050612c166000830185612ae3565b612c236020830184611e99565b939250505056fea264697066735822122002c610d34e7686bb2d792dfe397ea903023eae87bfe9be459674dda2f128aae464736f6c63430008120033",
  "linkReferences": {},
  "deployedLinkReferences": {}
}