{
  "_format": "hh-sol-artifact-1",
  "contractName": "SocialChain",
  "sourceName": "contracts/SocialChain.sol",
  "abi": [
    {
      "inputs": [],
      "stateMutability": "nonpayable",
      "type": "constructor"
    },
    {
      "anonymous": false,
      "inputs": [
        {
          "indexed": false,
          "internalType": "address",
          "name": "_author",
          "type": "address"
        },
        {
          "indexed": false,
          "internalType": "uint256",
          "name": "_userId",
          "type": "uint256"
        },
        {
          "indexed": false,
          "internalType": "uint256",
          "name": "_postId",
          "type": "uint256"
        }
      ],
      "name": "logPostCreated",
      "type": "event"
    },
    {
      "anonymous": false,
      "inputs": [
        {
          "indexed": false,
          "internalType": "address",
          "name": "userAddress",
          "type": "address"
        },
        {
          "indexed": false,
          "internalType": "uint256",
          "name": "userId",
          "type": "uint256"
        }
      ],
      "name": "logRegisterUser",
      "type": "event"
    },
    {
      "inputs": [
        {
          "internalType": "address payable",
          "name": "_accountAddress",
          "type": "address"
        },
        {
          "internalType": "string",
          "name": "_postdescription",
          "type": "string"
        },
        {
          "internalType": "string",
          "name": "_imghash",
          "type": "string"
        }
      ],
      "name": "createPost",
      "outputs": [],
      "stateMutability": "nonpayable",
      "type": "function"
    },
    {
      "inputs": [
        {
          "internalType": "uint256",
          "name": "_postId",
          "type": "uint256"
        }
      ],
      "name": "getPostById",
      "outputs": [
        {
          "components": [
            {
              "internalType": "uint256",
              "name": "postId",
              "type": "uint256"
            },
            {
              "internalType": "address payable",
              "name": "author",
              "type": "address"
            },
            {
              "internalType": "string",
              "name": "postDescription",
              "type": "string"
            },
            {
              "internalType": "string",
              "name": "imgHash",
              "type": "string"
            },
            {
              "internalType": "uint256",
              "name": "timeStamp",
              "type": "uint256"
            },
            {
              "internalType": "uint256",
              "name": "likeCount",
              "type": "uint256"
            },
            {
              "internalType": "uint256",
              "name": "reportCount",
              "type": "uint256"
            },
            {
              "internalType": "enum SocialChain.postStatus",
              "name": "status",
              "type": "uint8"
            }
          ],
          "internalType": "struct SocialChain.Post",
          "name": "",
          "type": "tuple"
        }
      ],
      "stateMutability": "view",
      "type": "function"
    },
    {
      "inputs": [
        {
          "internalType": "address",
          "name": "accountAddress",
          "type": "address"
        }
      ],
      "name": "getUser",
      "outputs": [
        {
          "internalType": "uint256",
          "name": "id",
          "type": "uint256"
        },
        {
          "internalType": "string",
          "name": "userName",
          "type": "string"
        },
        {
          "internalType": "string",
          "name": "name",
          "type": "string"
        },
        {
          "internalType": "string",
          "name": "bio",
          "type": "string"
        },
        {
          "internalType": "uint256",
          "name": "birthDate",
          "type": "uint256"
        },
        {
          "internalType": "bool",
          "name": "showUsername",
          "type": "bool"
        },
        {
          "internalType": "string",
          "name": "imageHash",
          "type": "string"
        },
        {
          "internalType": "string",
          "name": "coverHash",
          "type": "string"
        }
      ],
      "stateMutability": "view",
      "type": "function"
    },
    {
      "inputs": [
        {
          "internalType": "address",
          "name": "_userAddress",
          "type": "address"
        }
      ],
      "name": "getUserPosts",
      "outputs": [
        {
          "components": [
            {
              "internalType": "uint256",
              "name": "postId",
              "type": "uint256"
            },
            {
              "internalType": "address payable",
              "name": "author",
              "type": "address"
            },
            {
              "internalType": "string",
              "name": "postDescription",
              "type": "string"
            },
            {
              "internalType": "string",
              "name": "imgHash",
              "type": "string"
            },
            {
              "internalType": "uint256",
              "name": "timeStamp",
              "type": "uint256"
            },
            {
              "internalType": "uint256",
              "name": "likeCount",
              "type": "uint256"
            },
            {
              "internalType": "uint256",
              "name": "reportCount",
              "type": "uint256"
            },
            {
              "internalType": "enum SocialChain.postStatus",
              "name": "status",
              "type": "uint8"
            }
          ],
          "internalType": "struct SocialChain.Post[]",
          "name": "postList",
          "type": "tuple[]"
        }
      ],
      "stateMutability": "view",
      "type": "function"
    },
    {
      "inputs": [],
      "name": "owner",
      "outputs": [
        {
          "internalType": "address payable",
          "name": "",
          "type": "address"
        }
      ],
      "stateMutability": "view",
      "type": "function"
    },
    {
      "inputs": [
        {
          "internalType": "string",
          "name": "_username",
          "type": "string"
        },
        {
          "internalType": "string",
          "name": "_name",
          "type": "string"
        },
        {
          "internalType": "string",
          "name": "_imgHash",
          "type": "string"
        },
        {
          "internalType": "string",
          "name": "_coverHash",
          "type": "string"
        },
        {
          "internalType": "string",
          "name": "_bio",
          "type": "string"
        },
        {
          "internalType": "uint256",
          "name": "birthDate",
          "type": "uint256"
        },
        {
          "internalType": "bool",
          "name": "showUserName",
          "type": "bool"
        }
      ],
      "name": "registerUser",
      "outputs": [],
      "stateMutability": "nonpayable",
      "type": "function"
    },
    {
      "inputs": [],
      "name": "totalPosts",
      "outputs": [
        {
          "internalType": "uint256",
          "name": "",
          "type": "uint256"
        }
      ],
      "stateMutability": "view",
      "type": "function"
    },
    {
      "inputs": [],
      "name": "totalUsers",
      "outputs": [
        {
          "internalType": "uint256",
          "name": "",
          "type": "uint256"
        }
      ],
      "stateMutability": "view",
      "type": "function"
    },
    {
      "inputs": [
        {
          "internalType": "string",
          "name": "_username",
          "type": "string"
        }
      ],
      "name": "userNameAvailable",
      "outputs": [
        {
          "internalType": "bool",
          "name": "status",
          "type": "bool"
        }
      ],
      "stateMutability": "view",
      "type": "function"
    }
  ],
  "bytecode": "0x6080604052600060015560006002553480156200001b57600080fd5b50336000806101000a81548173ffffffffffffffffffffffffffffffffffffffff021916908373ffffffffffffffffffffffffffffffffffffffff160217905550620001316040518060400160405280600581526020017f6f776e65720000000000000000000000000000000000000000000000000000008152506040518060400160405280600581526020017f6f776e657200000000000000000000000000000000000000000000000000000081525060405180602001604052806000815250604051806020016040528060008152506040518060400160405280600581526020017f6f776e65720000000000000000000000000000000000000000000000000000008152506001806200013760201b60201c565b62000b3c565b33600060038111156200014f576200014e62000543565b5b600360008373ffffffffffffffffffffffffffffffffffffffff1673ffffffffffffffffffffffffffffffffffffffff16815260200190815260200160002060090160009054906101000a900460ff166003811115620001b457620001b362000543565b5b14620001f7576040517f08c379a0000000000000000000000000000000000000000000000000000000008152600401620001ee90620005d3565b60405180910390fd5b876005816040516200020a91906200066e565b908152602001604051809103902060009054906101000a900460ff161562000269576040517f08c379a00000000000000000000000000000000000000000000000000000000081526004016200026090620006d7565b60405180910390fd5b600160058a6040516200027d91906200066e565b908152602001604051809103902060006101000a81548160ff02191690831515021790555060018054620002b2919062000732565b600181905550600060015490506040518061014001604052808281526020013373ffffffffffffffffffffffffffffffffffffffff1681526020018b81526020018a815260200187815260200186815260200185151581526020018981526020018881526020016001600381111562000330576200032f62000543565b5b815250600360003373ffffffffffffffffffffffffffffffffffffffff1673ffffffffffffffffffffffffffffffffffffffff1681526020019081526020016000206000820151816000015560208201518160010160006101000a81548173ffffffffffffffffffffffffffffffffffffffff021916908373ffffffffffffffffffffffffffffffffffffffff1602179055506040820151816002019081620003da9190620009d2565b506060820151816003019081620003f29190620009d2565b5060808201518160040190816200040a9190620009d2565b5060a0820151816005015560c08201518160060160006101000a81548160ff02191690831515021790555060e08201518160070190816200044c9190620009d2565b50610100820151816008019081620004659190620009d2565b506101208201518160090160006101000a81548160ff0219169083600381111562000495576200049462000543565b5b02179055509050503360048b604051620004b091906200066e565b908152602001604051809103902060006101000a81548173ffffffffffffffffffffffffffffffffffffffff021916908373ffffffffffffffffffffffffffffffffffffffff1602179055507fabc58c36475157c4ac7669f9adfbb6f254d3a3578fb89676f6866ac3b9950eed33826040516200052f92919062000b0f565b60405180910390a150505050505050505050565b7f4e487b7100000000000000000000000000000000000000000000000000000000600052602160045260246000fd5b600082825260208201905092915050565b7f5573657220616c72656164792072656769737465726564000000000000000000600082015250565b6000620005bb60178362000572565b9150620005c88262000583565b602082019050919050565b60006020820190508181036000830152620005ee81620005ac565b9050919050565b600081519050919050565b600081905092915050565b60005b838110156200062b5780820151818401526020810190506200060e565b60008484015250505050565b60006200064482620005f5565b62000650818562000600565b9350620006628185602086016200060b565b80840191505092915050565b60006200067c828462000637565b915081905092915050565b7f557365726e616d6520616c72656164792074616b656e00000000000000000000600082015250565b6000620006bf60168362000572565b9150620006cc8262000687565b602082019050919050565b60006020820190508181036000830152620006f281620006b0565b9050919050565b6000819050919050565b7f4e487b7100000000000000000000000000000000000000000000000000000000600052601160045260246000fd5b60006200073f82620006f9565b91506200074c83620006f9565b925082820190508082111562000767576200076662000703565b5b92915050565b7f4e487b7100000000000000000000000000000000000000000000000000000000600052604160045260246000fd5b7f4e487b7100000000000000000000000000000000000000000000000000000000600052602260045260246000fd5b60006002820490506001821680620007e457607f821691505b602082108103620007fa57620007f96200079c565b5b50919050565b60008190508160005260206000209050919050565b60006020601f8301049050919050565b600082821b905092915050565b600060088302620008647fffffffffffffffffffffffffffffffffffffffffffffffffffffffffffffffff8262000825565b62000870868362000825565b95508019841693508086168417925050509392505050565b6000819050919050565b6000620008b3620008ad620008a784620006f9565b62000888565b620006f9565b9050919050565b6000819050919050565b620008cf8362000892565b620008e7620008de82620008ba565b84845462000832565b825550505050565b600090565b620008fe620008ef565b6200090b818484620008c4565b505050565b5b81811015620009335762000927600082620008f4565b60018101905062000911565b5050565b601f82111562000982576200094c8162000800565b620009578462000815565b8101602085101562000967578190505b6200097f620009768562000815565b83018262000910565b50505b505050565b600082821c905092915050565b6000620009a76000198460080262000987565b1980831691505092915050565b6000620009c2838362000994565b9150826002028217905092915050565b620009dd82620005f5565b67ffffffffffffffff811115620009f957620009f86200076d565b5b62000a058254620007cb565b62000a1282828562000937565b600060209050601f83116001811462000a4a576000841562000a35578287015190505b62000a418582620009b4565b86555062000ab1565b601f19841662000a5a8662000800565b60005b8281101562000a845784890151825560018201915060208501945060208101905062000a5d565b8683101562000aa4578489015162000aa0601f89168262000994565b8355505b6001600288020188555050505b505050505050565b600073ffffffffffffffffffffffffffffffffffffffff82169050919050565b600062000ae68262000ab9565b9050919050565b62000af88162000ad9565b82525050565b62000b0981620006f9565b82525050565b600060408201905062000b26600083018562000aed565b62000b35602083018462000afe565b9392505050565b6124e88062000b4c6000396000f3fe608060405234801561001057600080fd5b50600436106100935760003560e01c80639a2194a9116100665780639a2194a91461013b578063b90c20731461016b578063bff1f9e11461019b578063c096cdd5146101b9578063f82217c1146101d557610093565b806364e95895146100985780636f77926b146100c85780638da5cb5b146100ff5780638e53fb411461011d575b600080fd5b6100b260048036038101906100ad91906114cc565b6101f1565b6040516100bf9190611707565b60405180910390f35b6100e260048036038101906100dd9190611767565b610540565b6040516100f6989796959493929190611808565b60405180910390f35b61010761097b565b60405161011491906118b8565b60405180910390f35b61012561099f565b60405161013291906118d3565b60405180910390f35b61015560048036038101906101509190611767565b6109a5565b6040516101629190611a67565b60405180910390f35b61018560048036038101906101809190611bbe565b610da8565b6040516101929190611c07565b60405180910390f35b6101a3610dde565b6040516101b091906118d3565b60405180910390f35b6101d360048036038101906101ce9190611c4e565b610de4565b005b6101ef60048036038101906101ea9190611d05565b61102f565b005b6101f9611415565b336001600381111561020e5761020d6115d9565b5b600360008373ffffffffffffffffffffffffffffffffffffffff1673ffffffffffffffffffffffffffffffffffffffff16815260200190815260200160002060090160009054906101000a900460ff1660038111156102705761026f6115d9565b5b146102b0576040517f08c379a00000000000000000000000000000000000000000000000000000000081526004016102a790611e7f565b60405180910390fd5b82600160038111156102c5576102c46115d9565b5b6006600083815260200190815260200160002060070160009054906101000a900460ff1660038111156102fb576102fa6115d9565b5b1461033b576040517f08c379a000000000000000000000000000000000000000000000000000000000815260040161033290611eeb565b60405180910390fd5b6006600085815260200190815260200160002060405180610100016040529081600082015481526020016001820160009054906101000a900473ffffffffffffffffffffffffffffffffffffffff1673ffffffffffffffffffffffffffffffffffffffff1673ffffffffffffffffffffffffffffffffffffffff1681526020016002820180546103ca90611f3a565b80601f01602080910402602001604051908101604052809291908181526020018280546103f690611f3a565b80156104435780601f1061041857610100808354040283529160200191610443565b820191906000526020600020905b81548152906001019060200180831161042657829003601f168201915b5050505050815260200160038201805461045c90611f3a565b80601f016020809104026020016040519081016040528092919081815260200182805461048890611f3a565b80156104d55780601f106104aa576101008083540402835291602001916104d5565b820191906000526020600020905b8154815290600101906020018083116104b857829003601f168201915b505050505081526020016004820154815260200160058201548152602001600682015481526020016007820160009054906101000a900460ff166003811115610521576105206115d9565b5b6003811115610533576105326115d9565b5b8152505092505050919050565b600060608060606000806060806000600360008b73ffffffffffffffffffffffffffffffffffffffff1673ffffffffffffffffffffffffffffffffffffffff16815260200190815260200160002060405180610140016040529081600082015481526020016001820160009054906101000a900473ffffffffffffffffffffffffffffffffffffffff1673ffffffffffffffffffffffffffffffffffffffff1673ffffffffffffffffffffffffffffffffffffffff16815260200160028201805461060a90611f3a565b80601f016020809104026020016040519081016040528092919081815260200182805461063690611f3a565b80156106835780601f1061065857610100808354040283529160200191610683565b820191906000526020600020905b81548152906001019060200180831161066657829003601f168201915b5050505050815260200160038201805461069c90611f3a565b80601f01602080910402602001604051908101604052809291908181526020018280546106c890611f3a565b80156107155780601f106106ea57610100808354040283529160200191610715565b820191906000526020600020905b8154815290600101906020018083116106f857829003601f168201915b5050505050815260200160048201805461072e90611f3a565b80601f016020809104026020016040519081016040528092919081815260200182805461075a90611f3a565b80156107a75780601f1061077c576101008083540402835291602001916107a7565b820191906000526020600020905b81548152906001019060200180831161078a57829003601f168201915b50505050508152602001600582015481526020016006820160009054906101000a900460ff161515151581526020016007820180546107e590611f3a565b80601f016020809104026020016040519081016040528092919081815260200182805461081190611f3a565b801561085e5780601f106108335761010080835404028352916020019161085e565b820191906000526020600020905b81548152906001019060200180831161084157829003601f168201915b5050505050815260200160088201805461087790611f3a565b80601f01602080910402602001604051908101604052809291908181526020018280546108a390611f3a565b80156108f05780601f106108c5576101008083540402835291602001916108f0565b820191906000526020600020905b8154815290600101906020018083116108d357829003601f168201915b505050505081526020016009820160009054906101000a900460ff16600381111561091e5761091d6115d9565b5b60038111156109305761092f6115d9565b5b81525050905080600001518160400151826060015183608001518460a001518560c001518660e001518761010001519850985098509850985098509850985050919395975091939597565b60008054906101000a900473ffffffffffffffffffffffffffffffffffffffff1681565b60025481565b606081600160038111156109bc576109bb6115d9565b5b600360008373ffffffffffffffffffffffffffffffffffffffff1673ffffffffffffffffffffffffffffffffffffffff16815260200190815260200160002060090160009054906101000a900460ff166003811115610a1e57610a1d6115d9565b5b14610a5e576040517f08c379a0000000000000000000000000000000000000000000000000000000008152600401610a5590611e7f565b60405180910390fd5b6000600760008573ffffffffffffffffffffffffffffffffffffffff1673ffffffffffffffffffffffffffffffffffffffff168152602001908152602001600020805480602002602001604051908101604052809291908181526020018280548015610ae957602002820191906000526020600020905b815481526020019060010190808311610ad5575b505050505090506000815167ffffffffffffffff811115610b0d57610b0c611a93565b5b604051908082528060200260200182016040528015610b4657816020015b610b33611415565b815260200190600190039081610b2b5790505b50905060005b8251811015610d9c5760066000848381518110610b6c57610b6b611f6b565b5b6020026020010151815260200190815260200160002060405180610100016040529081600082015481526020016001820160009054906101000a900473ffffffffffffffffffffffffffffffffffffffff1673ffffffffffffffffffffffffffffffffffffffff1673ffffffffffffffffffffffffffffffffffffffff168152602001600282018054610bfe90611f3a565b80601f0160208091040260200160405190810160405280929190818152602001828054610c2a90611f3a565b8015610c775780601f10610c4c57610100808354040283529160200191610c77565b820191906000526020600020905b815481529060010190602001808311610c5a57829003601f168201915b50505050508152602001600382018054610c9090611f3a565b80601f0160208091040260200160405190810160405280929190818152602001828054610cbc90611f3a565b8015610d095780601f10610cde57610100808354040283529160200191610d09565b820191906000526020600020905b815481529060010190602001808311610cec57829003601f168201915b505050505081526020016004820154815260200160058201548152602001600682015481526020016007820160009054906101000a900460ff166003811115610d5557610d546115d9565b5b6003811115610d6757610d666115d9565b5b81525050828281518110610d7e57610d7d611f6b565b5b60200260200101819052508080610d9490611fc9565b915050610b4c565b50809350505050919050565b6000600582604051610dba919061204d565b908152602001604051809103902060009054906101000a900460ff16159050919050565b60015481565b6001600254610df39190612064565b600281905550600060025490506040518061010001604052808281526020018573ffffffffffffffffffffffffffffffffffffffff168152602001848152602001838152602001428152602001600081526020016000815260200160016003811115610e6257610e616115d9565b5b815250600660008381526020019081526020016000206000820151816000015560208201518160010160006101000a81548173ffffffffffffffffffffffffffffffffffffffff021916908373ffffffffffffffffffffffffffffffffffffffff1602179055506040820151816002019081610ede9190612244565b506060820151816003019081610ef49190612244565b506080820151816004015560a0820151816005015560c0820151816006015560e08201518160070160006101000a81548160ff02191690836003811115610f3e57610f3d6115d9565b5b0217905550905050600760008573ffffffffffffffffffffffffffffffffffffffff1673ffffffffffffffffffffffffffffffffffffffff1681526020019081526020016000208190806001815401808255809150506001900390600052602060002001600090919091909150557fe78603dea3231b9ac9a73b3663b6e28de19f35247e2c32f0115ec263bdc7c49a84600360008773ffffffffffffffffffffffffffffffffffffffff1673ffffffffffffffffffffffffffffffffffffffff16815260200190815260200160002060000154836040516110219392919061236b565b60405180910390a150505050565b3360006003811115611044576110436115d9565b5b600360008373ffffffffffffffffffffffffffffffffffffffff1673ffffffffffffffffffffffffffffffffffffffff16815260200190815260200160002060090160009054906101000a900460ff1660038111156110a6576110a56115d9565b5b146110e6576040517f08c379a00000000000000000000000000000000000000000000000000000000081526004016110dd906123ee565b60405180910390fd5b876005816040516110f7919061204d565b908152602001604051809103902060009054906101000a900460ff1615611153576040517f08c379a000000000000000000000000000000000000000000000000000000000815260040161114a9061245a565b60405180910390fd5b600160058a604051611165919061204d565b908152602001604051809103902060006101000a81548160ff021916908315150217905550600180546111989190612064565b600181905550600060015490506040518061014001604052808281526020013373ffffffffffffffffffffffffffffffffffffffff1681526020018b81526020018a8152602001878152602001868152602001851515815260200189815260200188815260200160016003811115611213576112126115d9565b5b815250600360003373ffffffffffffffffffffffffffffffffffffffff1673ffffffffffffffffffffffffffffffffffffffff1681526020019081526020016000206000820151816000015560208201518160010160006101000a81548173ffffffffffffffffffffffffffffffffffffffff021916908373ffffffffffffffffffffffffffffffffffffffff16021790555060408201518160020190816112bb9190612244565b5060608201518160030190816112d19190612244565b5060808201518160040190816112e79190612244565b5060a0820151816005015560c08201518160060160006101000a81548160ff02191690831515021790555060e08201518160070190816113279190612244565b5061010082015181600801908161133e9190612244565b506101208201518160090160006101000a81548160ff0219169083600381111561136b5761136a6115d9565b5b02179055509050503360048b604051611384919061204d565b908152602001604051809103902060006101000a81548173ffffffffffffffffffffffffffffffffffffffff021916908373ffffffffffffffffffffffffffffffffffffffff1602179055507fabc58c36475157c4ac7669f9adfbb6f254d3a3578fb89676f6866ac3b9950eed3382604051611401929190612489565b60405180910390a150505050505050505050565b60405180610100016040528060008152602001600073ffffffffffffffffffffffffffffffffffffffff16815260200160608152602001606081526020016000815260200160008152602001600081526020016000600381111561147c5761147b6115d9565b5b81525090565b6000604051905090565b600080fd5b600080fd5b6000819050919050565b6114a981611496565b81146114b457600080fd5b50565b6000813590506114c6816114a0565b92915050565b6000602082840312156114e2576114e161148c565b5b60006114f0848285016114b7565b91505092915050565b61150281611496565b82525050565b600073ffffffffffffffffffffffffffffffffffffffff82169050919050565b600061153382611508565b9050919050565b61154381611528565b82525050565b600081519050919050565b600082825260208201905092915050565b60005b83811015611583578082015181840152602081019050611568565b60008484015250505050565b6000601f19601f8301169050919050565b60006115ab82611549565b6115b58185611554565b93506115c5818560208601611565565b6115ce8161158f565b840191505092915050565b7f4e487b7100000000000000000000000000000000000000000000000000000000600052602160045260246000fd5b60048110611619576116186115d9565b5b50565b600081905061162a82611608565b919050565b600061163a8261161c565b9050919050565b61164a8161162f565b82525050565b60006101008301600083015161166960008601826114f9565b50602083015161167c602086018261153a565b506040830151848203604086015261169482826115a0565b915050606083015184820360608601526116ae82826115a0565b91505060808301516116c360808601826114f9565b5060a08301516116d660a08601826114f9565b5060c08301516116e960c08601826114f9565b5060e08301516116fc60e0860182611641565b508091505092915050565b600060208201905081810360008301526117218184611650565b905092915050565b600061173482611508565b9050919050565b61174481611729565b811461174f57600080fd5b50565b6000813590506117618161173b565b92915050565b60006020828403121561177d5761177c61148c565b5b600061178b84828501611752565b91505092915050565b61179d81611496565b82525050565b600082825260208201905092915050565b60006117bf82611549565b6117c981856117a3565b93506117d9818560208601611565565b6117e28161158f565b840191505092915050565b60008115159050919050565b611802816117ed565b82525050565b60006101008201905061181e600083018b611794565b8181036020830152611830818a6117b4565b9050818103604083015261184481896117b4565b9050818103606083015261185881886117b4565b90506118676080830187611794565b61187460a08301866117f9565b81810360c083015261188681856117b4565b905081810360e083015261189a81846117b4565b90509998505050505050505050565b6118b281611528565b82525050565b60006020820190506118cd60008301846118a9565b92915050565b60006020820190506118e86000830184611794565b92915050565b600081519050919050565b600082825260208201905092915050565b6000819050602082019050919050565b60006101008301600083015161193360008601826114f9565b506020830151611946602086018261153a565b506040830151848203604086015261195e82826115a0565b9150506060830151848203606086015261197882826115a0565b915050608083015161198d60808601826114f9565b5060a08301516119a060a08601826114f9565b5060c08301516119b360c08601826114f9565b5060e08301516119c660e0860182611641565b508091505092915050565b60006119dd838361191a565b905092915050565b6000602082019050919050565b60006119fd826118ee565b611a0781856118f9565b935083602082028501611a198561190a565b8060005b85811015611a555784840389528151611a3685826119d1565b9450611a41836119e5565b925060208a01995050600181019050611a1d565b50829750879550505050505092915050565b60006020820190508181036000830152611a8181846119f2565b905092915050565b600080fd5b600080fd5b7f4e487b7100000000000000000000000000000000000000000000000000000000600052604160045260246000fd5b611acb8261158f565b810181811067ffffffffffffffff82111715611aea57611ae9611a93565b5b80604052505050565b6000611afd611482565b9050611b098282611ac2565b919050565b600067ffffffffffffffff821115611b2957611b28611a93565b5b611b328261158f565b9050602081019050919050565b82818337600083830152505050565b6000611b61611b5c84611b0e565b611af3565b905082815260208101848484011115611b7d57611b7c611a8e565b5b611b88848285611b3f565b509392505050565b600082601f830112611ba557611ba4611a89565b5b8135611bb5848260208601611b4e565b91505092915050565b600060208284031215611bd457611bd361148c565b5b600082013567ffffffffffffffff811115611bf257611bf1611491565b5b611bfe84828501611b90565b91505092915050565b6000602082019050611c1c60008301846117f9565b92915050565b611c2b81611528565b8114611c3657600080fd5b50565b600081359050611c4881611c22565b92915050565b600080600060608486031215611c6757611c6661148c565b5b6000611c7586828701611c39565b935050602084013567ffffffffffffffff811115611c9657611c95611491565b5b611ca286828701611b90565b925050604084013567ffffffffffffffff811115611cc357611cc2611491565b5b611ccf86828701611b90565b9150509250925092565b611ce2816117ed565b8114611ced57600080fd5b50565b600081359050611cff81611cd9565b92915050565b600080600080600080600060e0888a031215611d2457611d2361148c565b5b600088013567ffffffffffffffff811115611d4257611d41611491565b5b611d4e8a828b01611b90565b975050602088013567ffffffffffffffff811115611d6f57611d6e611491565b5b611d7b8a828b01611b90565b965050604088013567ffffffffffffffff811115611d9c57611d9b611491565b5b611da88a828b01611b90565b955050606088013567ffffffffffffffff811115611dc957611dc8611491565b5b611dd58a828b01611b90565b945050608088013567ffffffffffffffff811115611df657611df5611491565b5b611e028a828b01611b90565b93505060a0611e138a828b016114b7565b92505060c0611e248a828b01611cf0565b91505092959891949750929550565b7f4e6f742061205265676973746572656420557365722100000000000000000000600082015250565b6000611e696016836117a3565b9150611e7482611e33565b602082019050919050565b60006020820190508181036000830152611e9881611e5c565b9050919050565b7f4e6f7420616e2061637469766520706f73740000000000000000000000000000600082015250565b6000611ed56012836117a3565b9150611ee082611e9f565b602082019050919050565b60006020820190508181036000830152611f0481611ec8565b9050919050565b7f4e487b7100000000000000000000000000000000000000000000000000000000600052602260045260246000fd5b60006002820490506001821680611f5257607f821691505b602082108103611f6557611f64611f0b565b5b50919050565b7f4e487b7100000000000000000000000000000000000000000000000000000000600052603260045260246000fd5b7f4e487b7100000000000000000000000000000000000000000000000000000000600052601160045260246000fd5b6000611fd482611496565b91507fffffffffffffffffffffffffffffffffffffffffffffffffffffffffffffffff820361200657612005611f9a565b5b600182019050919050565b600081905092915050565b600061202782611549565b6120318185612011565b9350612041818560208601611565565b80840191505092915050565b6000612059828461201c565b915081905092915050565b600061206f82611496565b915061207a83611496565b925082820190508082111561209257612091611f9a565b5b92915050565b60008190508160005260206000209050919050565b60006020601f8301049050919050565b600082821b905092915050565b6000600883026120fa7fffffffffffffffffffffffffffffffffffffffffffffffffffffffffffffffff826120bd565b61210486836120bd565b95508019841693508086168417925050509392505050565b6000819050919050565b600061214161213c61213784611496565b61211c565b611496565b9050919050565b6000819050919050565b61215b83612126565b61216f61216782612148565b8484546120ca565b825550505050565b600090565b612184612177565b61218f818484612152565b505050565b5b818110156121b3576121a860008261217c565b600181019050612195565b5050565b601f8211156121f8576121c981612098565b6121d2846120ad565b810160208510156121e1578190505b6121f56121ed856120ad565b830182612194565b50505b505050565b600082821c905092915050565b600061221b600019846008026121fd565b1980831691505092915050565b6000612234838361220a565b9150826002028217905092915050565b61224d82611549565b67ffffffffffffffff81111561226657612265611a93565b5b6122708254611f3a565b61227b8282856121b7565b600060209050601f8311600181146122ae576000841561229c578287015190505b6122a68582612228565b86555061230e565b601f1984166122bc86612098565b60005b828110156122e4578489015182556001820191506020850194506020810190506122bf565b8683101561230157848901516122fd601f89168261220a565b8355505b6001600288020188555050505b505050505050565b600061233161232c61232784611508565b61211c565b611508565b9050919050565b600061234382612316565b9050919050565b600061235582612338565b9050919050565b6123658161234a565b82525050565b6000606082019050612380600083018661235c565b61238d6020830185611794565b61239a6040830184611794565b949350505050565b7f5573657220616c72656164792072656769737465726564000000000000000000600082015250565b60006123d86017836117a3565b91506123e3826123a2565b602082019050919050565b60006020820190508181036000830152612407816123cb565b9050919050565b7f557365726e616d6520616c72656164792074616b656e00000000000000000000600082015250565b60006124446016836117a3565b915061244f8261240e565b602082019050919050565b6000602082019050818103600083015261247381612437565b9050919050565b61248381611729565b82525050565b600060408201905061249e600083018561247a565b6124ab6020830184611794565b939250505056fea2646970667358221220dbfffb335f8a2512d5c359252c0c3cb8b7a1ef2df27065cc3fabe3d992fc525a64736f6c63430008120033",
  "linkReferences": {},
  "deployedLinkReferences": {}
}