{
  "_format": "hh-sol-artifact-1",
  "contractName": "SocialChain",
  "sourceName": "contracts/SocialChain.sol",
  "abi": [
    {
      "inputs": [],
      "stateMutability": "nonpayable",
      "type": "constructor"
    },
    {
      "anonymous": false,
      "inputs": [
        {
          "indexed": false,
          "internalType": "address",
          "name": "_author",
          "type": "address"
        },
        {
          "indexed": false,
          "internalType": "uint256",
          "name": "_commentId",
          "type": "uint256"
        },
        {
          "indexed": false,
          "internalType": "uint256",
          "name": "_postId",
          "type": "uint256"
        },
        {
          "indexed": false,
          "internalType": "uint256",
          "name": "_likeCount",
          "type": "uint256"
        },
        {
          "indexed": false,
          "internalType": "uint256",
          "name": "_reportCount",
          "type": "uint256"
        },
        {
          "indexed": false,
          "internalType": "uint256",
          "name": "_timeStamp",
          "type": "uint256"
        },
        {
          "indexed": false,
          "internalType": "string",
          "name": "_content",
          "type": "string"
        }
      ],
      "name": "logCommentCreated",
      "type": "event"
    },
    {
      "anonymous": false,
      "inputs": [
        {
          "indexed": false,
          "internalType": "address",
          "name": "_author",
          "type": "address"
        },
        {
          "indexed": false,
          "internalType": "uint256",
          "name": "_userId",
          "type": "uint256"
        },
        {
          "indexed": false,
          "internalType": "uint256",
          "name": "_postId",
          "type": "uint256"
        }
      ],
      "name": "logPostCreated",
      "type": "event"
    },
    {
      "anonymous": false,
      "inputs": [
        {
          "indexed": false,
          "internalType": "address",
          "name": "userAddress",
          "type": "address"
        },
        {
          "indexed": false,
          "internalType": "uint256",
          "name": "userId",
          "type": "uint256"
        }
      ],
      "name": "logRegisterUser",
      "type": "event"
    },
    {
      "inputs": [
        {
          "internalType": "uint256",
          "name": "_postId",
          "type": "uint256"
        },
        {
          "internalType": "string",
          "name": "_comment",
          "type": "string"
        }
      ],
      "name": "createComment",
      "outputs": [],
      "stateMutability": "nonpayable",
      "type": "function"
    },
    {
      "inputs": [
        {
          "internalType": "address payable",
          "name": "_accountAddress",
          "type": "address"
        },
        {
          "internalType": "string",
          "name": "_postdescription",
          "type": "string"
        },
        {
          "internalType": "string",
          "name": "_imghash",
          "type": "string"
        }
      ],
      "name": "createPost",
      "outputs": [],
      "stateMutability": "nonpayable",
      "type": "function"
    },
    {
      "inputs": [
        {
          "internalType": "uint256",
          "name": "_commentId",
          "type": "uint256"
        }
      ],
      "name": "getCommentById",
      "outputs": [
        {
          "components": [
            {
              "internalType": "uint256",
              "name": "commentId",
              "type": "uint256"
            },
            {
              "internalType": "address",
              "name": "author",
              "type": "address"
            },
            {
              "internalType": "uint256",
              "name": "postId",
              "type": "uint256"
            },
            {
              "internalType": "string",
              "name": "content",
              "type": "string"
            },
            {
              "internalType": "uint256",
              "name": "likeCount",
              "type": "uint256"
            },
            {
              "internalType": "uint256",
              "name": "reportCount",
              "type": "uint256"
            },
            {
              "internalType": "uint256",
              "name": "timeStamp",
              "type": "uint256"
            },
            {
              "internalType": "enum SocialChain.commentStatus",
              "name": "status",
              "type": "uint8"
            }
          ],
          "internalType": "struct SocialChain.Comment",
          "name": "",
          "type": "tuple"
        }
      ],
      "stateMutability": "view",
      "type": "function"
    },
    {
      "inputs": [
        {
          "internalType": "uint256",
          "name": "_postId",
          "type": "uint256"
        }
      ],
      "name": "getPostById",
      "outputs": [
        {
          "components": [
            {
              "internalType": "uint256",
              "name": "postId",
              "type": "uint256"
            },
            {
              "internalType": "address",
              "name": "author",
              "type": "address"
            },
            {
              "internalType": "string",
              "name": "postDescription",
              "type": "string"
            },
            {
              "internalType": "string",
              "name": "imgHash",
              "type": "string"
            },
            {
              "internalType": "uint256",
              "name": "timeStamp",
              "type": "uint256"
            },
            {
              "internalType": "uint256",
              "name": "likeCount",
              "type": "uint256"
            },
            {
              "internalType": "uint256",
              "name": "reportCount",
              "type": "uint256"
            },
            {
              "internalType": "enum SocialChain.postStatus",
              "name": "status",
              "type": "uint8"
            }
          ],
          "internalType": "struct SocialChain.Post",
          "name": "",
          "type": "tuple"
        }
      ],
      "stateMutability": "view",
      "type": "function"
    },
    {
      "inputs": [
        {
          "internalType": "uint256",
          "name": "_listNumber",
          "type": "uint256"
        },
        {
          "internalType": "uint256",
          "name": "_commentPerList",
          "type": "uint256"
        },
        {
          "internalType": "uint256",
          "name": "_postId",
          "type": "uint256"
        }
      ],
      "name": "getPostComments",
      "outputs": [
        {
          "components": [
            {
              "internalType": "uint256",
              "name": "commentId",
              "type": "uint256"
            },
            {
              "internalType": "address",
              "name": "author",
              "type": "address"
            },
            {
              "internalType": "uint256",
              "name": "postId",
              "type": "uint256"
            },
            {
              "internalType": "string",
              "name": "content",
              "type": "string"
            },
            {
              "internalType": "uint256",
              "name": "likeCount",
              "type": "uint256"
            },
            {
              "internalType": "uint256",
              "name": "reportCount",
              "type": "uint256"
            },
            {
              "internalType": "uint256",
              "name": "timeStamp",
              "type": "uint256"
            },
            {
              "internalType": "enum SocialChain.commentStatus",
              "name": "status",
              "type": "uint8"
            }
          ],
          "internalType": "struct SocialChain.Comment[]",
          "name": "",
          "type": "tuple[]"
        }
      ],
      "stateMutability": "view",
      "type": "function"
    },
    {
      "inputs": [
        {
          "internalType": "uint256",
          "name": "_page",
          "type": "uint256"
        },
        {
          "internalType": "uint256",
          "name": "_perPage",
          "type": "uint256"
        }
      ],
      "name": "getPostIds",
      "outputs": [
        {
          "internalType": "uint256[]",
          "name": "",
          "type": "uint256[]"
        }
      ],
      "stateMutability": "view",
      "type": "function"
    },
    {
      "inputs": [
        {
          "internalType": "address",
          "name": "accountAddress",
          "type": "address"
        }
      ],
      "name": "getUser",
      "outputs": [
        {
          "internalType": "uint256",
          "name": "id",
          "type": "uint256"
        },
        {
          "internalType": "string",
          "name": "userName",
          "type": "string"
        },
        {
          "internalType": "string",
          "name": "name",
          "type": "string"
        },
        {
          "internalType": "string",
          "name": "bio",
          "type": "string"
        },
        {
          "internalType": "uint256",
          "name": "birthDate",
          "type": "uint256"
        },
        {
          "internalType": "bool",
          "name": "showUsername",
          "type": "bool"
        },
        {
          "internalType": "string",
          "name": "imageHash",
          "type": "string"
        },
        {
          "internalType": "string",
          "name": "coverHash",
          "type": "string"
        }
      ],
      "stateMutability": "view",
      "type": "function"
    },
    {
      "inputs": [
        {
          "internalType": "address",
          "name": "_userAddress",
          "type": "address"
        }
      ],
      "name": "getUserPosts",
      "outputs": [
        {
          "components": [
            {
              "internalType": "uint256",
              "name": "postId",
              "type": "uint256"
            },
            {
              "internalType": "address",
              "name": "author",
              "type": "address"
            },
            {
              "internalType": "string",
              "name": "postDescription",
              "type": "string"
            },
            {
              "internalType": "string",
              "name": "imgHash",
              "type": "string"
            },
            {
              "internalType": "uint256",
              "name": "timeStamp",
              "type": "uint256"
            },
            {
              "internalType": "uint256",
              "name": "likeCount",
              "type": "uint256"
            },
            {
              "internalType": "uint256",
              "name": "reportCount",
              "type": "uint256"
            },
            {
              "internalType": "enum SocialChain.postStatus",
              "name": "status",
              "type": "uint8"
            }
          ],
          "internalType": "struct SocialChain.Post[]",
          "name": "",
          "type": "tuple[]"
        }
      ],
      "stateMutability": "view",
      "type": "function"
    },
    {
      "inputs": [
        {
          "internalType": "uint256",
          "name": "_postId",
          "type": "uint256"
        },
        {
          "internalType": "address",
          "name": "_userAddress",
          "type": "address"
        }
      ],
      "name": "isLikedByAddress",
      "outputs": [
        {
          "internalType": "bool",
          "name": "",
          "type": "bool"
        }
      ],
      "stateMutability": "view",
      "type": "function"
    },
    {
      "inputs": [
        {
          "internalType": "uint256",
          "name": "_postId",
          "type": "uint256"
        }
      ],
      "name": "likePost",
      "outputs": [],
      "stateMutability": "nonpayable",
      "type": "function"
    },
    {
      "inputs": [],
      "name": "owner",
      "outputs": [
        {
          "internalType": "address payable",
          "name": "",
          "type": "address"
        }
      ],
      "stateMutability": "view",
      "type": "function"
    },
    {
      "inputs": [
        {
          "internalType": "string",
          "name": "_username",
          "type": "string"
        },
        {
          "internalType": "string",
          "name": "_name",
          "type": "string"
        },
        {
          "internalType": "string",
          "name": "_imgHash",
          "type": "string"
        },
        {
          "internalType": "string",
          "name": "_coverHash",
          "type": "string"
        },
        {
          "internalType": "string",
          "name": "_bio",
          "type": "string"
        },
        {
          "internalType": "uint256",
          "name": "birthDate",
          "type": "uint256"
        },
        {
          "internalType": "bool",
          "name": "showUserName",
          "type": "bool"
        }
      ],
      "name": "registerUser",
      "outputs": [],
      "stateMutability": "nonpayable",
      "type": "function"
    },
    {
      "inputs": [],
      "name": "totalComments",
      "outputs": [
        {
          "internalType": "uint256",
          "name": "",
          "type": "uint256"
        }
      ],
      "stateMutability": "view",
      "type": "function"
    },
    {
      "inputs": [],
      "name": "totalPosts",
      "outputs": [
        {
          "internalType": "uint256",
          "name": "",
          "type": "uint256"
        }
      ],
      "stateMutability": "view",
      "type": "function"
    },
    {
      "inputs": [],
      "name": "totalUsers",
      "outputs": [
        {
          "internalType": "uint256",
          "name": "",
          "type": "uint256"
        }
      ],
      "stateMutability": "view",
      "type": "function"
    },
    {
      "inputs": [
        {
          "internalType": "uint256",
          "name": "_postId",
          "type": "uint256"
        }
      ],
      "name": "unLikePost",
      "outputs": [],
      "stateMutability": "nonpayable",
      "type": "function"
    },
    {
      "inputs": [
        {
          "internalType": "string",
          "name": "_username",
          "type": "string"
        }
      ],
      "name": "userNameAvailable",
      "outputs": [
        {
          "internalType": "bool",
          "name": "status",
          "type": "bool"
        }
      ],
      "stateMutability": "view",
      "type": "function"
    }
  ],
  "bytecode": "0x60806040526000600155600060025560006003553480156200002057600080fd5b50336000806101000a81548173ffffffffffffffffffffffffffffffffffffffff021916908373ffffffffffffffffffffffffffffffffffffffff160217905550620001366040518060400160405280600581526020017f6f776e65720000000000000000000000000000000000000000000000000000008152506040518060400160405280600581526020017f6f776e657200000000000000000000000000000000000000000000000000000081525060405180602001604052806000815250604051806020016040528060008152506040518060400160405280600581526020017f6f776e65720000000000000000000000000000000000000000000000000000008152506001806200013c60201b60201c565b62000b41565b336000600381111562000154576200015362000548565b5b600560008373ffffffffffffffffffffffffffffffffffffffff1673ffffffffffffffffffffffffffffffffffffffff16815260200190815260200160002060090160009054906101000a900460ff166003811115620001b957620001b862000548565b5b14620001fc576040517f08c379a0000000000000000000000000000000000000000000000000000000008152600401620001f390620005d8565b60405180910390fd5b876007816040516200020f919062000673565b908152602001604051809103902060009054906101000a900460ff16156200026e576040517f08c379a00000000000000000000000000000000000000000000000000000000081526004016200026590620006dc565b60405180910390fd5b600160078a60405162000282919062000673565b908152602001604051809103902060006101000a81548160ff02191690831515021790555060018054620002b7919062000737565b600181905550600060015490506040518061014001604052808281526020013373ffffffffffffffffffffffffffffffffffffffff1681526020018b81526020018a815260200187815260200186815260200185151581526020018981526020018881526020016001600381111562000335576200033462000548565b5b815250600560003373ffffffffffffffffffffffffffffffffffffffff1673ffffffffffffffffffffffffffffffffffffffff1681526020019081526020016000206000820151816000015560208201518160010160006101000a81548173ffffffffffffffffffffffffffffffffffffffff021916908373ffffffffffffffffffffffffffffffffffffffff1602179055506040820151816002019081620003df9190620009d7565b506060820151816003019081620003f79190620009d7565b5060808201518160040190816200040f9190620009d7565b5060a0820151816005015560c08201518160060160006101000a81548160ff02191690831515021790555060e0820151816007019081620004519190620009d7565b506101008201518160080190816200046a9190620009d7565b506101208201518160090160006101000a81548160ff021916908360038111156200049a576200049962000548565b5b02179055509050503360068b604051620004b5919062000673565b908152602001604051809103902060006101000a81548173ffffffffffffffffffffffffffffffffffffffff021916908373ffffffffffffffffffffffffffffffffffffffff1602179055507fabc58c36475157c4ac7669f9adfbb6f254d3a3578fb89676f6866ac3b9950eed33826040516200053492919062000b14565b60405180910390a150505050505050505050565b7f4e487b7100000000000000000000000000000000000000000000000000000000600052602160045260246000fd5b600082825260208201905092915050565b7f5573657220616c72656164792072656769737465726564000000000000000000600082015250565b6000620005c060178362000577565b9150620005cd8262000588565b602082019050919050565b60006020820190508181036000830152620005f381620005b1565b9050919050565b600081519050919050565b600081905092915050565b60005b838110156200063057808201518184015260208101905062000613565b60008484015250505050565b60006200064982620005fa565b62000655818562000605565b93506200066781856020860162000610565b80840191505092915050565b60006200068182846200063c565b915081905092915050565b7f557365726e616d6520616c72656164792074616b656e00000000000000000000600082015250565b6000620006c460168362000577565b9150620006d1826200068c565b602082019050919050565b60006020820190508181036000830152620006f781620006b5565b9050919050565b6000819050919050565b7f4e487b7100000000000000000000000000000000000000000000000000000000600052601160045260246000fd5b60006200074482620006fe565b91506200075183620006fe565b92508282019050808211156200076c576200076b62000708565b5b92915050565b7f4e487b7100000000000000000000000000000000000000000000000000000000600052604160045260246000fd5b7f4e487b7100000000000000000000000000000000000000000000000000000000600052602260045260246000fd5b60006002820490506001821680620007e957607f821691505b602082108103620007ff57620007fe620007a1565b5b50919050565b60008190508160005260206000209050919050565b60006020601f8301049050919050565b600082821b905092915050565b600060088302620008697fffffffffffffffffffffffffffffffffffffffffffffffffffffffffffffffff826200082a565b6200087586836200082a565b95508019841693508086168417925050509392505050565b6000819050919050565b6000620008b8620008b2620008ac84620006fe565b6200088d565b620006fe565b9050919050565b6000819050919050565b620008d48362000897565b620008ec620008e382620008bf565b84845462000837565b825550505050565b600090565b62000903620008f4565b62000910818484620008c9565b505050565b5b8181101562000938576200092c600082620008f9565b60018101905062000916565b5050565b601f8211156200098757620009518162000805565b6200095c846200081a565b810160208510156200096c578190505b620009846200097b856200081a565b83018262000915565b50505b505050565b600082821c905092915050565b6000620009ac600019846008026200098c565b1980831691505092915050565b6000620009c7838362000999565b9150826002028217905092915050565b620009e282620005fa565b67ffffffffffffffff811115620009fe57620009fd62000772565b5b62000a0a8254620007d0565b62000a178282856200093c565b600060209050601f83116001811462000a4f576000841562000a3a578287015190505b62000a468582620009b9565b86555062000ab6565b601f19841662000a5f8662000805565b60005b8281101562000a895784890151825560018201915060208501945060208101905062000a62565b8683101562000aa9578489015162000aa5601f89168262000999565b8355505b6001600288020188555050505b505050505050565b600073ffffffffffffffffffffffffffffffffffffffff82169050919050565b600062000aeb8262000abe565b9050919050565b62000afd8162000ade565b82525050565b62000b0e81620006fe565b82525050565b600060408201905062000b2b600083018562000af2565b62000b3a602083018462000b03565b9392505050565b6140998062000b516000396000f3fe608060405234801561001057600080fd5b506004361061010b5760003560e01c8063875003aa116100a2578063b90c207311610071578063b90c2073146102e5578063bebce30014610315578063bff1f9e114610345578063c096cdd514610363578063f82217c11461037f5761010b565b8063875003aa146102495780638da5cb5b146102795780638e53fb41146102975780639a2194a9146102b55761010b565b806364e95895116100de57806364e95895146101965780636c43dbb4146101c65780636f77926b146101f6578063725009d31461022d5761010b565b80632f4992ef1461011057806340a179851461012c57806349e035021461014857806361936b8114610178575b600080fd5b61012a60048036038101906101259190612a25565b61039b565b005b61014660048036038101906101419190612b98565b6105ef565b005b610162600480360381019061015d9190612bf4565b610956565b60405161016f9190612cf2565b60405180910390f35b610180610b21565b60405161018d9190612d23565b60405180910390f35b6101b060048036038101906101ab9190612a25565b610b27565b6040516101bd9190612f2c565b60405180910390f35b6101e060048036038101906101db9190612a25565b610e76565b6040516101ed9190613046565b60405180910390f35b610210600480360381019061020b9190613094565b61113d565b604051610224989796959493929190613126565b60405180910390f35b61024760048036038101906102429190612a25565b611578565b005b610263600480360381019061025e91906131c7565b6117cd565b6040516102709190613207565b60405180910390f35b610281611979565b60405161028e9190613243565b60405180910390f35b61029f61199d565b6040516102ac9190612d23565b60405180910390f35b6102cf60048036038101906102ca9190613094565b6119a3565b6040516102dc91906133d7565b60405180910390f35b6102ff60048036038101906102fa91906133f9565b611da6565b60405161030c9190613207565b60405180910390f35b61032f600480360381019061032a9190613442565b611ddc565b60405161033c9190613607565b60405180910390f35b61034d6121e9565b60405161035a9190612d23565b60405180910390f35b61037d60048036038101906103789190613655565b6121ef565b005b6103996004803603810190610394919061370c565b61251b565b005b33600160038111156103b0576103af612dfe565b5b600560008373ffffffffffffffffffffffffffffffffffffffff1673ffffffffffffffffffffffffffffffffffffffff16815260200190815260200160002060090160009054906101000a900460ff16600381111561041257610411612dfe565b5b14610452576040517f08c379a000000000000000000000000000000000000000000000000000000000815260040161044990613886565b60405180910390fd5b816001600381111561046757610466612dfe565b5b6008600083815260200190815260200160002060070160009054906101000a900460ff16600381111561049d5761049c612dfe565b5b146104dd576040517f08c379a00000000000000000000000000000000000000000000000000000000081526004016104d4906138f2565b60405180910390fd5b600a600084815260200190815260200160002060003373ffffffffffffffffffffffffffffffffffffffff1673ffffffffffffffffffffffffffffffffffffffff16815260200190815260200160002060009054906101000a900460ff1661054457600080fd5b600160086000858152602001908152602001600020600501546105679190613941565b60086000858152602001908152602001600020600501819055506000600a600085815260200190815260200160002060003373ffffffffffffffffffffffffffffffffffffffff1673ffffffffffffffffffffffffffffffffffffffff16815260200190815260200160002060006101000a81548160ff021916908315150217905550505050565b336001600381111561060457610603612dfe565b5b600560008373ffffffffffffffffffffffffffffffffffffffff1673ffffffffffffffffffffffffffffffffffffffff16815260200190815260200160002060090160009054906101000a900460ff16600381111561066657610665612dfe565b5b146106a6576040517f08c379a000000000000000000000000000000000000000000000000000000000815260040161069d90613886565b60405180910390fd5b82600160038111156106bb576106ba612dfe565b5b6008600083815260200190815260200160002060070160009054906101000a900460ff1660038111156106f1576106f0612dfe565b5b14610731576040517f08c379a0000000000000000000000000000000000000000000000000000000008152600401610728906138f2565b60405180910390fd5b6000839050600081510361077a576040517f08c379a0000000000000000000000000000000000000000000000000000000008152600401610771906139c1565b60405180910390fd5b600160035461078991906139e1565b600381905550600060035490506040518061010001604052808281526020013373ffffffffffffffffffffffffffffffffffffffff1681526020018781526020018681526020016000815260200160008152602001428152602001600160038111156107f8576107f7612dfe565b5b815250600b60008381526020019081526020016000206000820151816000015560208201518160010160006101000a81548173ffffffffffffffffffffffffffffffffffffffff021916908373ffffffffffffffffffffffffffffffffffffffff16021790555060408201518160020155606082015181600301908161087e9190613c21565b506080820151816004015560a0820151816005015560c0820151816006015560e08201518160070160006101000a81548160ff021916908360038111156108c8576108c7612dfe565b5b0217905550905050600d60008781526020019081526020016000208190806001815401808255809150506001900390600052602060002001600090919091909150557f50621ca627228f52152f460ce13adf4d014aeb126e3faa26d112c10b0bb43a13338288600080428b6040516109469796959493929190613d3d565b60405180910390a1505050505050565b6060336001600381111561096d5761096c612dfe565b5b600560008373ffffffffffffffffffffffffffffffffffffffff1673ffffffffffffffffffffffffffffffffffffffff16815260200190815260200160002060090160009054906101000a900460ff1660038111156109cf576109ce612dfe565b5b14610a0f576040517f08c379a0000000000000000000000000000000000000000000000000000000008152600401610a0690613886565b60405180910390fd5b600083600186610a1f9190613941565b610a299190613db3565b905060008482610a3991906139e1565b9050600480549050811115610a515760048054905090505b60008282610a5f9190613941565b67ffffffffffffffff811115610a7857610a77612a6d565b5b604051908082528060200260200182016040528015610aa65781602001602082028036833780820191505090505b50905060008390505b82811015610b135760048181548110610acb57610aca613df5565b5b9060005260206000200154828583610ae39190613941565b81518110610af457610af3613df5565b5b6020026020010181815250508080610b0b90613e24565b915050610aaf565b508094505050505092915050565b60035481565b610b2f612901565b3360016003811115610b4457610b43612dfe565b5b600560008373ffffffffffffffffffffffffffffffffffffffff1673ffffffffffffffffffffffffffffffffffffffff16815260200190815260200160002060090160009054906101000a900460ff166003811115610ba657610ba5612dfe565b5b14610be6576040517f08c379a0000000000000000000000000000000000000000000000000000000008152600401610bdd90613886565b60405180910390fd5b8260016003811115610bfb57610bfa612dfe565b5b6008600083815260200190815260200160002060070160009054906101000a900460ff166003811115610c3157610c30612dfe565b5b14610c71576040517f08c379a0000000000000000000000000000000000000000000000000000000008152600401610c68906138f2565b60405180910390fd5b6008600085815260200190815260200160002060405180610100016040529081600082015481526020016001820160009054906101000a900473ffffffffffffffffffffffffffffffffffffffff1673ffffffffffffffffffffffffffffffffffffffff1673ffffffffffffffffffffffffffffffffffffffff168152602001600282018054610d0090613a44565b80601f0160208091040260200160405190810160405280929190818152602001828054610d2c90613a44565b8015610d795780601f10610d4e57610100808354040283529160200191610d79565b820191906000526020600020905b815481529060010190602001808311610d5c57829003601f168201915b50505050508152602001600382018054610d9290613a44565b80601f0160208091040260200160405190810160405280929190818152602001828054610dbe90613a44565b8015610e0b5780601f10610de057610100808354040283529160200191610e0b565b820191906000526020600020905b815481529060010190602001808311610dee57829003601f168201915b505050505081526020016004820154815260200160058201548152602001600682015481526020016007820160009054906101000a900460ff166003811115610e5757610e56612dfe565b5b6003811115610e6957610e68612dfe565b5b8152505092505050919050565b610e7e61296e565b3360016003811115610e9357610e92612dfe565b5b600560008373ffffffffffffffffffffffffffffffffffffffff1673ffffffffffffffffffffffffffffffffffffffff16815260200190815260200160002060090160009054906101000a900460ff166003811115610ef557610ef4612dfe565b5b14610f35576040517f08c379a0000000000000000000000000000000000000000000000000000000008152600401610f2c90613886565b60405180910390fd5b8260016003811115610f4a57610f49612dfe565b5b600b600083815260200190815260200160002060070160009054906101000a900460ff166003811115610f8057610f7f612dfe565b5b14610fc0576040517f08c379a0000000000000000000000000000000000000000000000000000000008152600401610fb790613eb8565b60405180910390fd5b600b600085815260200190815260200160002060405180610100016040529081600082015481526020016001820160009054906101000a900473ffffffffffffffffffffffffffffffffffffffff1673ffffffffffffffffffffffffffffffffffffffff1673ffffffffffffffffffffffffffffffffffffffff1681526020016002820154815260200160038201805461105990613a44565b80601f016020809104026020016040519081016040528092919081815260200182805461108590613a44565b80156110d25780601f106110a7576101008083540402835291602001916110d2565b820191906000526020600020905b8154815290600101906020018083116110b557829003601f168201915b505050505081526020016004820154815260200160058201548152602001600682015481526020016007820160009054906101000a900460ff16600381111561111e5761111d612dfe565b5b60038111156111305761112f612dfe565b5b8152505092505050919050565b600060608060606000806060806000600560008b73ffffffffffffffffffffffffffffffffffffffff1673ffffffffffffffffffffffffffffffffffffffff16815260200190815260200160002060405180610140016040529081600082015481526020016001820160009054906101000a900473ffffffffffffffffffffffffffffffffffffffff1673ffffffffffffffffffffffffffffffffffffffff1673ffffffffffffffffffffffffffffffffffffffff16815260200160028201805461120790613a44565b80601f016020809104026020016040519081016040528092919081815260200182805461123390613a44565b80156112805780601f1061125557610100808354040283529160200191611280565b820191906000526020600020905b81548152906001019060200180831161126357829003601f168201915b5050505050815260200160038201805461129990613a44565b80601f01602080910402602001604051908101604052809291908181526020018280546112c590613a44565b80156113125780601f106112e757610100808354040283529160200191611312565b820191906000526020600020905b8154815290600101906020018083116112f557829003601f168201915b5050505050815260200160048201805461132b90613a44565b80601f016020809104026020016040519081016040528092919081815260200182805461135790613a44565b80156113a45780601f10611379576101008083540402835291602001916113a4565b820191906000526020600020905b81548152906001019060200180831161138757829003601f168201915b50505050508152602001600582015481526020016006820160009054906101000a900460ff161515151581526020016007820180546113e290613a44565b80601f016020809104026020016040519081016040528092919081815260200182805461140e90613a44565b801561145b5780601f106114305761010080835404028352916020019161145b565b820191906000526020600020905b81548152906001019060200180831161143e57829003601f168201915b5050505050815260200160088201805461147490613a44565b80601f01602080910402602001604051908101604052809291908181526020018280546114a090613a44565b80156114ed5780601f106114c2576101008083540402835291602001916114ed565b820191906000526020600020905b8154815290600101906020018083116114d057829003601f168201915b505050505081526020016009820160009054906101000a900460ff16600381111561151b5761151a612dfe565b5b600381111561152d5761152c612dfe565b5b81525050905080600001518160400151826060015183608001518460a001518560c001518660e001518761010001519850985098509850985098509850985050919395975091939597565b336001600381111561158d5761158c612dfe565b5b600560008373ffffffffffffffffffffffffffffffffffffffff1673ffffffffffffffffffffffffffffffffffffffff16815260200190815260200160002060090160009054906101000a900460ff1660038111156115ef576115ee612dfe565b5b1461162f576040517f08c379a000000000000000000000000000000000000000000000000000000000815260040161162690613886565b60405180910390fd5b816001600381111561164457611643612dfe565b5b6008600083815260200190815260200160002060070160009054906101000a900460ff16600381111561167a57611679612dfe565b5b146116ba576040517f08c379a00000000000000000000000000000000000000000000000000000000081526004016116b1906138f2565b60405180910390fd5b600a600084815260200190815260200160002060003373ffffffffffffffffffffffffffffffffffffffff1673ffffffffffffffffffffffffffffffffffffffff16815260200190815260200160002060009054906101000a900460ff161561172257600080fd5b6001600860008581526020019081526020016000206005015461174591906139e1565b60086000858152602001908152602001600020600501819055506001600a600085815260200190815260200160002060003373ffffffffffffffffffffffffffffffffffffffff1673ffffffffffffffffffffffffffffffffffffffff16815260200190815260200160002060006101000a81548160ff021916908315150217905550505050565b600082600160038111156117e4576117e3612dfe565b5b6008600083815260200190815260200160002060070160009054906101000a900460ff16600381111561181a57611819612dfe565b5b1461185a576040517f08c379a0000000000000000000000000000000000000000000000000000000008152600401611851906138f2565b60405180910390fd5b826001600381111561186f5761186e612dfe565b5b600560008373ffffffffffffffffffffffffffffffffffffffff1673ffffffffffffffffffffffffffffffffffffffff16815260200190815260200160002060090160009054906101000a900460ff1660038111156118d1576118d0612dfe565b5b14611911576040517f08c379a000000000000000000000000000000000000000000000000000000000815260040161190890613886565b60405180910390fd5b600a600086815260200190815260200160002060008573ffffffffffffffffffffffffffffffffffffffff1673ffffffffffffffffffffffffffffffffffffffff16815260200190815260200160002060009054906101000a900460ff169250505092915050565b60008054906101000a900473ffffffffffffffffffffffffffffffffffffffff1681565b60025481565b606081600160038111156119ba576119b9612dfe565b5b600560008373ffffffffffffffffffffffffffffffffffffffff1673ffffffffffffffffffffffffffffffffffffffff16815260200190815260200160002060090160009054906101000a900460ff166003811115611a1c57611a1b612dfe565b5b14611a5c576040517f08c379a0000000000000000000000000000000000000000000000000000000008152600401611a5390613886565b60405180910390fd5b6000600960008573ffffffffffffffffffffffffffffffffffffffff1673ffffffffffffffffffffffffffffffffffffffff168152602001908152602001600020805480602002602001604051908101604052809291908181526020018280548015611ae757602002820191906000526020600020905b815481526020019060010190808311611ad3575b505050505090506000815167ffffffffffffffff811115611b0b57611b0a612a6d565b5b604051908082528060200260200182016040528015611b4457816020015b611b31612901565b815260200190600190039081611b295790505b50905060005b8251811015611d9a5760086000848381518110611b6a57611b69613df5565b5b6020026020010151815260200190815260200160002060405180610100016040529081600082015481526020016001820160009054906101000a900473ffffffffffffffffffffffffffffffffffffffff1673ffffffffffffffffffffffffffffffffffffffff1673ffffffffffffffffffffffffffffffffffffffff168152602001600282018054611bfc90613a44565b80601f0160208091040260200160405190810160405280929190818152602001828054611c2890613a44565b8015611c755780601f10611c4a57610100808354040283529160200191611c75565b820191906000526020600020905b815481529060010190602001808311611c5857829003601f168201915b50505050508152602001600382018054611c8e90613a44565b80601f0160208091040260200160405190810160405280929190818152602001828054611cba90613a44565b8015611d075780601f10611cdc57610100808354040283529160200191611d07565b820191906000526020600020905b815481529060010190602001808311611cea57829003601f168201915b505050505081526020016004820154815260200160058201548152602001600682015481526020016007820160009054906101000a900460ff166003811115611d5357611d52612dfe565b5b6003811115611d6557611d64612dfe565b5b81525050828281518110611d7c57611d7b613df5565b5b60200260200101819052508080611d9290613e24565b915050611b4a565b50809350505050919050565b6000600782604051611db89190613f14565b908152602001604051809103902060009054906101000a900460ff16159050919050565b60603360016003811115611df357611df2612dfe565b5b600560008373ffffffffffffffffffffffffffffffffffffffff1673ffffffffffffffffffffffffffffffffffffffff16815260200190815260200160002060090160009054906101000a900460ff166003811115611e5557611e54612dfe565b5b14611e95576040517f08c379a0000000000000000000000000000000000000000000000000000000008152600401611e8c90613886565b60405180910390fd5b8260016003811115611eaa57611ea9612dfe565b5b6008600083815260200190815260200160002060070160009054906101000a900460ff166003811115611ee057611edf612dfe565b5b14611f20576040517f08c379a0000000000000000000000000000000000000000000000000000000008152600401611f17906138f2565b60405180910390fd5b600085600188611f309190613941565b611f3a9190613db3565b905060008682611f4a91906139e1565b9050600d600087815260200190815260200160002080549050811115611f8457600d60008781526020019081526020016000208054905090505b60008282611f929190613941565b67ffffffffffffffff811115611fab57611faa612a6d565b5b604051908082528060200260200182016040528015611fe457816020015b611fd161296e565b815260200190600190039081611fc95790505b5090506000808490505b838110156121d857600d60008a8152602001908152602001600020818154811061201b5761201a613df5565b5b90600052602060002001549150600b600083815260200190815260200160002060405180610100016040529081600082015481526020016001820160009054906101000a900473ffffffffffffffffffffffffffffffffffffffff1673ffffffffffffffffffffffffffffffffffffffff1673ffffffffffffffffffffffffffffffffffffffff168152602001600282015481526020016003820180546120c190613a44565b80601f01602080910402602001604051908101604052809291908181526020018280546120ed90613a44565b801561213a5780601f1061210f5761010080835404028352916020019161213a565b820191906000526020600020905b81548152906001019060200180831161211d57829003601f168201915b505050505081526020016004820154815260200160058201548152602001600682015481526020016007820160009054906101000a900460ff16600381111561218657612185612dfe565b5b600381111561219857612197612dfe565b5b815250508386836121a99190613941565b815181106121ba576121b9613df5565b5b602002602001018190525080806121d090613e24565b915050611fee565b508196505050505050509392505050565b60015481565b336001600381111561220457612203612dfe565b5b600560008373ffffffffffffffffffffffffffffffffffffffff1673ffffffffffffffffffffffffffffffffffffffff16815260200190815260200160002060090160009054906101000a900460ff16600381111561226657612265612dfe565b5b146122a6576040517f08c379a000000000000000000000000000000000000000000000000000000000815260040161229d90613886565b60405180910390fd5b60016002546122b591906139e1565b600281905550600060025490506040518061010001604052808281526020013373ffffffffffffffffffffffffffffffffffffffff16815260200185815260200184815260200142815260200160008152602001600081526020016001600381111561232457612323612dfe565b5b815250600860008381526020019081526020016000206000820151816000015560208201518160010160006101000a81548173ffffffffffffffffffffffffffffffffffffffff021916908373ffffffffffffffffffffffffffffffffffffffff16021790555060408201518160020190816123a09190613c21565b5060608201518160030190816123b69190613c21565b506080820151816004015560a0820151816005015560c0820151816006015560e08201518160070160006101000a81548160ff02191690836003811115612400576123ff612dfe565b5b0217905550905050600960003373ffffffffffffffffffffffffffffffffffffffff1673ffffffffffffffffffffffffffffffffffffffff16815260200190815260200160002081908060018154018082558091505060019003906000526020600020016000909190919091505560048190806001815401808255809150506001900390600052602060002001600090919091909150557fe78603dea3231b9ac9a73b3663b6e28de19f35247e2c32f0115ec263bdc7c49a33600560003373ffffffffffffffffffffffffffffffffffffffff1673ffffffffffffffffffffffffffffffffffffffff168152602001908152602001600020600001548360405161250c93929190613f2b565b60405180910390a15050505050565b33600060038111156125305761252f612dfe565b5b600560008373ffffffffffffffffffffffffffffffffffffffff1673ffffffffffffffffffffffffffffffffffffffff16815260200190815260200160002060090160009054906101000a900460ff16600381111561259257612591612dfe565b5b146125d2576040517f08c379a00000000000000000000000000000000000000000000000000000000081526004016125c990613fae565b60405180910390fd5b876007816040516125e39190613f14565b908152602001604051809103902060009054906101000a900460ff161561263f576040517f08c379a00000000000000000000000000000000000000000000000000000000081526004016126369061401a565b60405180910390fd5b600160078a6040516126519190613f14565b908152602001604051809103902060006101000a81548160ff0219169083151502179055506001805461268491906139e1565b600181905550600060015490506040518061014001604052808281526020013373ffffffffffffffffffffffffffffffffffffffff1681526020018b81526020018a81526020018781526020018681526020018515158152602001898152602001888152602001600160038111156126ff576126fe612dfe565b5b815250600560003373ffffffffffffffffffffffffffffffffffffffff1673ffffffffffffffffffffffffffffffffffffffff1681526020019081526020016000206000820151816000015560208201518160010160006101000a81548173ffffffffffffffffffffffffffffffffffffffff021916908373ffffffffffffffffffffffffffffffffffffffff16021790555060408201518160020190816127a79190613c21565b5060608201518160030190816127bd9190613c21565b5060808201518160040190816127d39190613c21565b5060a0820151816005015560c08201518160060160006101000a81548160ff02191690831515021790555060e08201518160070190816128139190613c21565b5061010082015181600801908161282a9190613c21565b506101208201518160090160006101000a81548160ff0219169083600381111561285757612856612dfe565b5b02179055509050503360068b6040516128709190613f14565b908152602001604051809103902060006101000a81548173ffffffffffffffffffffffffffffffffffffffff021916908373ffffffffffffffffffffffffffffffffffffffff1602179055507fabc58c36475157c4ac7669f9adfbb6f254d3a3578fb89676f6866ac3b9950eed33826040516128ed92919061403a565b60405180910390a150505050505050505050565b60405180610100016040528060008152602001600073ffffffffffffffffffffffffffffffffffffffff16815260200160608152602001606081526020016000815260200160008152602001600081526020016000600381111561296857612967612dfe565b5b81525090565b60405180610100016040528060008152602001600073ffffffffffffffffffffffffffffffffffffffff1681526020016000815260200160608152602001600081526020016000815260200160008152602001600060038111156129d5576129d4612dfe565b5b81525090565b6000604051905090565b600080fd5b600080fd5b6000819050919050565b612a02816129ef565b8114612a0d57600080fd5b50565b600081359050612a1f816129f9565b92915050565b600060208284031215612a3b57612a3a6129e5565b5b6000612a4984828501612a10565b91505092915050565b600080fd5b600080fd5b6000601f19601f8301169050919050565b7f4e487b7100000000000000000000000000000000000000000000000000000000600052604160045260246000fd5b612aa582612a5c565b810181811067ffffffffffffffff82111715612ac457612ac3612a6d565b5b80604052505050565b6000612ad76129db565b9050612ae38282612a9c565b919050565b600067ffffffffffffffff821115612b0357612b02612a6d565b5b612b0c82612a5c565b9050602081019050919050565b82818337600083830152505050565b6000612b3b612b3684612ae8565b612acd565b905082815260208101848484011115612b5757612b56612a57565b5b612b62848285612b19565b509392505050565b600082601f830112612b7f57612b7e612a52565b5b8135612b8f848260208601612b28565b91505092915050565b60008060408385031215612baf57612bae6129e5565b5b6000612bbd85828601612a10565b925050602083013567ffffffffffffffff811115612bde57612bdd6129ea565b5b612bea85828601612b6a565b9150509250929050565b60008060408385031215612c0b57612c0a6129e5565b5b6000612c1985828601612a10565b9250506020612c2a85828601612a10565b9150509250929050565b600081519050919050565b600082825260208201905092915050565b6000819050602082019050919050565b612c69816129ef565b82525050565b6000612c7b8383612c60565b60208301905092915050565b6000602082019050919050565b6000612c9f82612c34565b612ca98185612c3f565b9350612cb483612c50565b8060005b83811015612ce5578151612ccc8882612c6f565b9750612cd783612c87565b925050600181019050612cb8565b5085935050505092915050565b60006020820190508181036000830152612d0c8184612c94565b905092915050565b612d1d816129ef565b82525050565b6000602082019050612d386000830184612d14565b92915050565b600073ffffffffffffffffffffffffffffffffffffffff82169050919050565b6000612d6982612d3e565b9050919050565b612d7981612d5e565b82525050565b600081519050919050565b600082825260208201905092915050565b60005b83811015612db9578082015181840152602081019050612d9e565b60008484015250505050565b6000612dd082612d7f565b612dda8185612d8a565b9350612dea818560208601612d9b565b612df381612a5c565b840191505092915050565b7f4e487b7100000000000000000000000000000000000000000000000000000000600052602160045260246000fd5b60048110612e3e57612e3d612dfe565b5b50565b6000819050612e4f82612e2d565b919050565b6000612e5f82612e41565b9050919050565b612e6f81612e54565b82525050565b600061010083016000830151612e8e6000860182612c60565b506020830151612ea16020860182612d70565b5060408301518482036040860152612eb98282612dc5565b91505060608301518482036060860152612ed38282612dc5565b9150506080830151612ee86080860182612c60565b5060a0830151612efb60a0860182612c60565b5060c0830151612f0e60c0860182612c60565b5060e0830151612f2160e0860182612e66565b508091505092915050565b60006020820190508181036000830152612f468184612e75565b905092915050565b60048110612f5f57612f5e612dfe565b5b50565b6000819050612f7082612f4e565b919050565b6000612f8082612f62565b9050919050565b612f9081612f75565b82525050565b600061010083016000830151612faf6000860182612c60565b506020830151612fc26020860182612d70565b506040830151612fd56040860182612c60565b5060608301518482036060860152612fed8282612dc5565b91505060808301516130026080860182612c60565b5060a083015161301560a0860182612c60565b5060c083015161302860c0860182612c60565b5060e083015161303b60e0860182612f87565b508091505092915050565b600060208201905081810360008301526130608184612f96565b905092915050565b61307181612d5e565b811461307c57600080fd5b50565b60008135905061308e81613068565b92915050565b6000602082840312156130aa576130a96129e5565b5b60006130b88482850161307f565b91505092915050565b600082825260208201905092915050565b60006130dd82612d7f565b6130e781856130c1565b93506130f7818560208601612d9b565b61310081612a5c565b840191505092915050565b60008115159050919050565b6131208161310b565b82525050565b60006101008201905061313c600083018b612d14565b818103602083015261314e818a6130d2565b9050818103604083015261316281896130d2565b9050818103606083015261317681886130d2565b90506131856080830187612d14565b61319260a0830186613117565b81810360c08301526131a481856130d2565b905081810360e08301526131b881846130d2565b90509998505050505050505050565b600080604083850312156131de576131dd6129e5565b5b60006131ec85828601612a10565b92505060206131fd8582860161307f565b9150509250929050565b600060208201905061321c6000830184613117565b92915050565b600061322d82612d3e565b9050919050565b61323d81613222565b82525050565b60006020820190506132586000830184613234565b92915050565b600081519050919050565b600082825260208201905092915050565b6000819050602082019050919050565b6000610100830160008301516132a36000860182612c60565b5060208301516132b66020860182612d70565b50604083015184820360408601526132ce8282612dc5565b915050606083015184820360608601526132e88282612dc5565b91505060808301516132fd6080860182612c60565b5060a083015161331060a0860182612c60565b5060c083015161332360c0860182612c60565b5060e083015161333660e0860182612e66565b508091505092915050565b600061334d838361328a565b905092915050565b6000602082019050919050565b600061336d8261325e565b6133778185613269565b9350836020820285016133898561327a565b8060005b858110156133c557848403895281516133a68582613341565b94506133b183613355565b925060208a0199505060018101905061338d565b50829750879550505050505092915050565b600060208201905081810360008301526133f18184613362565b905092915050565b60006020828403121561340f5761340e6129e5565b5b600082013567ffffffffffffffff81111561342d5761342c6129ea565b5b61343984828501612b6a565b91505092915050565b60008060006060848603121561345b5761345a6129e5565b5b600061346986828701612a10565b935050602061347a86828701612a10565b925050604061348b86828701612a10565b9150509250925092565b600081519050919050565b600082825260208201905092915050565b6000819050602082019050919050565b6000610100830160008301516134da6000860182612c60565b5060208301516134ed6020860182612d70565b5060408301516135006040860182612c60565b50606083015184820360608601526135188282612dc5565b915050608083015161352d6080860182612c60565b5060a083015161354060a0860182612c60565b5060c083015161355360c0860182612c60565b5060e083015161356660e0860182612f87565b508091505092915050565b600061357d83836134c1565b905092915050565b6000602082019050919050565b600061359d82613495565b6135a781856134a0565b9350836020820285016135b9856134b1565b8060005b858110156135f557848403895281516135d68582613571565b94506135e183613585565b925060208a019950506001810190506135bd565b50829750879550505050505092915050565b600060208201905081810360008301526136218184613592565b905092915050565b61363281613222565b811461363d57600080fd5b50565b60008135905061364f81613629565b92915050565b60008060006060848603121561366e5761366d6129e5565b5b600061367c86828701613640565b935050602084013567ffffffffffffffff81111561369d5761369c6129ea565b5b6136a986828701612b6a565b925050604084013567ffffffffffffffff8111156136ca576136c96129ea565b5b6136d686828701612b6a565b9150509250925092565b6136e98161310b565b81146136f457600080fd5b50565b600081359050613706816136e0565b92915050565b600080600080600080600060e0888a03121561372b5761372a6129e5565b5b600088013567ffffffffffffffff811115613749576137486129ea565b5b6137558a828b01612b6a565b975050602088013567ffffffffffffffff811115613776576137756129ea565b5b6137828a828b01612b6a565b965050604088013567ffffffffffffffff8111156137a3576137a26129ea565b5b6137af8a828b01612b6a565b955050606088013567ffffffffffffffff8111156137d0576137cf6129ea565b5b6137dc8a828b01612b6a565b945050608088013567ffffffffffffffff8111156137fd576137fc6129ea565b5b6138098a828b01612b6a565b93505060a061381a8a828b01612a10565b92505060c061382b8a828b016136f7565b91505092959891949750929550565b7f4e6f742061205265676973746572656420557365722100000000000000000000600082015250565b60006138706016836130c1565b915061387b8261383a565b602082019050919050565b6000602082019050818103600083015261389f81613863565b9050919050565b7f4e6f7420616e2061637469766520706f73740000000000000000000000000000600082015250565b60006138dc6012836130c1565b91506138e7826138a6565b602082019050919050565b6000602082019050818103600083015261390b816138cf565b9050919050565b7f4e487b7100000000000000000000000000000000000000000000000000000000600052601160045260246000fd5b600061394c826129ef565b9150613957836129ef565b925082820390508181111561396f5761396e613912565b5b92915050565b7f436f6d6d656e742063616e206e6f7420626520656d7074792021000000000000600082015250565b60006139ab601a836130c1565b91506139b682613975565b602082019050919050565b600060208201905081810360008301526139da8161399e565b9050919050565b60006139ec826129ef565b91506139f7836129ef565b9250828201905080821115613a0f57613a0e613912565b5b92915050565b7f4e487b7100000000000000000000000000000000000000000000000000000000600052602260045260246000fd5b60006002820490506001821680613a5c57607f821691505b602082108103613a6f57613a6e613a15565b5b50919050565b60008190508160005260206000209050919050565b60006020601f8301049050919050565b600082821b905092915050565b600060088302613ad77fffffffffffffffffffffffffffffffffffffffffffffffffffffffffffffffff82613a9a565b613ae18683613a9a565b95508019841693508086168417925050509392505050565b6000819050919050565b6000613b1e613b19613b14846129ef565b613af9565b6129ef565b9050919050565b6000819050919050565b613b3883613b03565b613b4c613b4482613b25565b848454613aa7565b825550505050565b600090565b613b61613b54565b613b6c818484613b2f565b505050565b5b81811015613b9057613b85600082613b59565b600181019050613b72565b5050565b601f821115613bd557613ba681613a75565b613baf84613a8a565b81016020851015613bbe578190505b613bd2613bca85613a8a565b830182613b71565b50505b505050565b600082821c905092915050565b6000613bf860001984600802613bda565b1980831691505092915050565b6000613c118383613be7565b9150826002028217905092915050565b613c2a82612d7f565b67ffffffffffffffff811115613c4357613c42612a6d565b5b613c4d8254613a44565b613c58828285613b94565b600060209050601f831160018114613c8b5760008415613c79578287015190505b613c838582613c05565b865550613ceb565b601f198416613c9986613a75565b60005b82811015613cc157848901518255600182019150602085019450602081019050613c9c565b86831015613cde5784890151613cda601f891682613be7565b8355505b6001600288020188555050505b505050505050565b613cfc81612d5e565b82525050565b6000819050919050565b6000613d27613d22613d1d84613d02565b613af9565b6129ef565b9050919050565b613d3781613d0c565b82525050565b600060e082019050613d52600083018a613cf3565b613d5f6020830189612d14565b613d6c6040830188612d14565b613d796060830187613d2e565b613d866080830186613d2e565b613d9360a0830185612d14565b81810360c0830152613da581846130d2565b905098975050505050505050565b6000613dbe826129ef565b9150613dc9836129ef565b9250828202613dd7816129ef565b91508282048414831517613dee57613ded613912565b5b5092915050565b7f4e487b7100000000000000000000000000000000000000000000000000000000600052603260045260246000fd5b6000613e2f826129ef565b91507fffffffffffffffffffffffffffffffffffffffffffffffffffffffffffffffff8203613e6157613e60613912565b5b600182019050919050565b7f4e6f7420616e2061637469766520636f6d6d656e740000000000000000000000600082015250565b6000613ea26015836130c1565b9150613ead82613e6c565b602082019050919050565b60006020820190508181036000830152613ed181613e95565b9050919050565b600081905092915050565b6000613eee82612d7f565b613ef88185613ed8565b9350613f08818560208601612d9b565b80840191505092915050565b6000613f208284613ee3565b915081905092915050565b6000606082019050613f406000830186613cf3565b613f4d6020830185612d14565b613f5a6040830184612d14565b949350505050565b7f5573657220616c72656164792072656769737465726564000000000000000000600082015250565b6000613f986017836130c1565b9150613fa382613f62565b602082019050919050565b60006020820190508181036000830152613fc781613f8b565b9050919050565b7f557365726e616d6520616c72656164792074616b656e00000000000000000000600082015250565b60006140046016836130c1565b915061400f82613fce565b602082019050919050565b6000602082019050818103600083015261403381613ff7565b9050919050565b600060408201905061404f6000830185613cf3565b61405c6020830184612d14565b939250505056fea2646970667358221220d532a2ee8aa5ed3785e6cded94972e9ed8f7d40d7255f316a853dba1552b5fe064736f6c63430008120033",
  "linkReferences": {},
  "deployedLinkReferences": {}
}