{
  "_format": "hh-sol-artifact-1",
  "contractName": "SocialChain",
  "sourceName": "contracts/SocialChain.sol",
  "abi": [
    {
      "inputs": [],
      "stateMutability": "nonpayable",
      "type": "constructor"
    },
    {
      "anonymous": false,
      "inputs": [
        {
          "indexed": false,
          "internalType": "address",
          "name": "_author",
          "type": "address"
        },
        {
          "indexed": false,
          "internalType": "uint256",
          "name": "_userId",
          "type": "uint256"
        },
        {
          "indexed": false,
          "internalType": "uint256",
          "name": "_postId",
          "type": "uint256"
        }
      ],
      "name": "logPostCreated",
      "type": "event"
    },
    {
      "anonymous": false,
      "inputs": [
        {
          "indexed": false,
          "internalType": "address",
          "name": "userAddress",
          "type": "address"
        },
        {
          "indexed": false,
          "internalType": "uint256",
          "name": "userId",
          "type": "uint256"
        }
      ],
      "name": "logRegisterUser",
      "type": "event"
    },
    {
      "inputs": [
        {
          "internalType": "address payable",
          "name": "_accountAddress",
          "type": "address"
        },
        {
          "internalType": "string",
          "name": "_postdescription",
          "type": "string"
        },
        {
          "internalType": "string",
          "name": "_imghash",
          "type": "string"
        }
      ],
      "name": "createPost",
      "outputs": [],
      "stateMutability": "nonpayable",
      "type": "function"
    },
    {
      "inputs": [
        {
          "internalType": "uint256",
          "name": "_postId",
          "type": "uint256"
        }
      ],
      "name": "getPostById",
      "outputs": [
        {
          "components": [
            {
              "internalType": "uint256",
              "name": "postId",
              "type": "uint256"
            },
            {
              "internalType": "address",
              "name": "author",
              "type": "address"
            },
            {
              "internalType": "string",
              "name": "postDescription",
              "type": "string"
            },
            {
              "internalType": "string",
              "name": "imgHash",
              "type": "string"
            },
            {
              "internalType": "uint256",
              "name": "timeStamp",
              "type": "uint256"
            },
            {
              "internalType": "uint256",
              "name": "likeCount",
              "type": "uint256"
            },
            {
              "internalType": "uint256",
              "name": "reportCount",
              "type": "uint256"
            },
            {
              "internalType": "enum SocialChain.postStatus",
              "name": "status",
              "type": "uint8"
            }
          ],
          "internalType": "struct SocialChain.Post",
          "name": "",
          "type": "tuple"
        }
      ],
      "stateMutability": "view",
      "type": "function"
    },
    {
      "inputs": [
        {
          "internalType": "uint256",
          "name": "_page",
          "type": "uint256"
        },
        {
          "internalType": "uint256",
          "name": "_perPage",
          "type": "uint256"
        }
      ],
      "name": "getPostIds",
      "outputs": [
        {
          "internalType": "uint256[]",
          "name": "",
          "type": "uint256[]"
        }
      ],
      "stateMutability": "view",
      "type": "function"
    },
    {
      "inputs": [
        {
          "internalType": "address",
          "name": "accountAddress",
          "type": "address"
        }
      ],
      "name": "getUser",
      "outputs": [
        {
          "internalType": "uint256",
          "name": "id",
          "type": "uint256"
        },
        {
          "internalType": "string",
          "name": "userName",
          "type": "string"
        },
        {
          "internalType": "string",
          "name": "name",
          "type": "string"
        },
        {
          "internalType": "string",
          "name": "bio",
          "type": "string"
        },
        {
          "internalType": "uint256",
          "name": "birthDate",
          "type": "uint256"
        },
        {
          "internalType": "bool",
          "name": "showUsername",
          "type": "bool"
        },
        {
          "internalType": "string",
          "name": "imageHash",
          "type": "string"
        },
        {
          "internalType": "string",
          "name": "coverHash",
          "type": "string"
        }
      ],
      "stateMutability": "view",
      "type": "function"
    },
    {
      "inputs": [
        {
          "internalType": "address",
          "name": "_userAddress",
          "type": "address"
        }
      ],
      "name": "getUserPosts",
      "outputs": [
        {
          "components": [
            {
              "internalType": "uint256",
              "name": "postId",
              "type": "uint256"
            },
            {
              "internalType": "address",
              "name": "author",
              "type": "address"
            },
            {
              "internalType": "string",
              "name": "postDescription",
              "type": "string"
            },
            {
              "internalType": "string",
              "name": "imgHash",
              "type": "string"
            },
            {
              "internalType": "uint256",
              "name": "timeStamp",
              "type": "uint256"
            },
            {
              "internalType": "uint256",
              "name": "likeCount",
              "type": "uint256"
            },
            {
              "internalType": "uint256",
              "name": "reportCount",
              "type": "uint256"
            },
            {
              "internalType": "enum SocialChain.postStatus",
              "name": "status",
              "type": "uint8"
            }
          ],
          "internalType": "struct SocialChain.Post[]",
          "name": "",
          "type": "tuple[]"
        }
      ],
      "stateMutability": "view",
      "type": "function"
    },
    {
      "inputs": [
        {
          "internalType": "uint256",
          "name": "_postId",
          "type": "uint256"
        },
        {
          "internalType": "address",
          "name": "_userAddress",
          "type": "address"
        }
      ],
      "name": "isLikedByAddress",
      "outputs": [
        {
          "internalType": "bool",
          "name": "",
          "type": "bool"
        }
      ],
      "stateMutability": "view",
      "type": "function"
    },
    {
      "inputs": [
        {
          "internalType": "uint256",
          "name": "_postId",
          "type": "uint256"
        }
      ],
      "name": "likePost",
      "outputs": [],
      "stateMutability": "nonpayable",
      "type": "function"
    },
    {
      "inputs": [],
      "name": "owner",
      "outputs": [
        {
          "internalType": "address payable",
          "name": "",
          "type": "address"
        }
      ],
      "stateMutability": "view",
      "type": "function"
    },
    {
      "inputs": [
        {
          "internalType": "string",
          "name": "_username",
          "type": "string"
        },
        {
          "internalType": "string",
          "name": "_name",
          "type": "string"
        },
        {
          "internalType": "string",
          "name": "_imgHash",
          "type": "string"
        },
        {
          "internalType": "string",
          "name": "_coverHash",
          "type": "string"
        },
        {
          "internalType": "string",
          "name": "_bio",
          "type": "string"
        },
        {
          "internalType": "uint256",
          "name": "birthDate",
          "type": "uint256"
        },
        {
          "internalType": "bool",
          "name": "showUserName",
          "type": "bool"
        }
      ],
      "name": "registerUser",
      "outputs": [],
      "stateMutability": "nonpayable",
      "type": "function"
    },
    {
      "inputs": [],
      "name": "totalPosts",
      "outputs": [
        {
          "internalType": "uint256",
          "name": "",
          "type": "uint256"
        }
      ],
      "stateMutability": "view",
      "type": "function"
    },
    {
      "inputs": [],
      "name": "totalUsers",
      "outputs": [
        {
          "internalType": "uint256",
          "name": "",
          "type": "uint256"
        }
      ],
      "stateMutability": "view",
      "type": "function"
    },
    {
      "inputs": [
        {
          "internalType": "uint256",
          "name": "_postId",
          "type": "uint256"
        }
      ],
      "name": "unLikePost",
      "outputs": [],
      "stateMutability": "nonpayable",
      "type": "function"
    },
    {
      "inputs": [
        {
          "internalType": "string",
          "name": "_username",
          "type": "string"
        }
      ],
      "name": "userNameAvailable",
      "outputs": [
        {
          "internalType": "bool",
          "name": "status",
          "type": "bool"
        }
      ],
      "stateMutability": "view",
      "type": "function"
    }
  ],
  "bytecode": "0x6080604052600060015560006002553480156200001b57600080fd5b50336000806101000a81548173ffffffffffffffffffffffffffffffffffffffff021916908373ffffffffffffffffffffffffffffffffffffffff160217905550620001316040518060400160405280600581526020017f6f776e65720000000000000000000000000000000000000000000000000000008152506040518060400160405280600581526020017f6f776e657200000000000000000000000000000000000000000000000000000081525060405180602001604052806000815250604051806020016040528060008152506040518060400160405280600581526020017f6f776e65720000000000000000000000000000000000000000000000000000008152506001806200013760201b60201c565b62000b3c565b33600060038111156200014f576200014e62000543565b5b600460008373ffffffffffffffffffffffffffffffffffffffff1673ffffffffffffffffffffffffffffffffffffffff16815260200190815260200160002060090160009054906101000a900460ff166003811115620001b457620001b362000543565b5b14620001f7576040517f08c379a0000000000000000000000000000000000000000000000000000000008152600401620001ee90620005d3565b60405180910390fd5b876006816040516200020a91906200066e565b908152602001604051809103902060009054906101000a900460ff161562000269576040517f08c379a00000000000000000000000000000000000000000000000000000000081526004016200026090620006d7565b60405180910390fd5b600160068a6040516200027d91906200066e565b908152602001604051809103902060006101000a81548160ff02191690831515021790555060018054620002b2919062000732565b600181905550600060015490506040518061014001604052808281526020013373ffffffffffffffffffffffffffffffffffffffff1681526020018b81526020018a815260200187815260200186815260200185151581526020018981526020018881526020016001600381111562000330576200032f62000543565b5b815250600460003373ffffffffffffffffffffffffffffffffffffffff1673ffffffffffffffffffffffffffffffffffffffff1681526020019081526020016000206000820151816000015560208201518160010160006101000a81548173ffffffffffffffffffffffffffffffffffffffff021916908373ffffffffffffffffffffffffffffffffffffffff1602179055506040820151816002019081620003da9190620009d2565b506060820151816003019081620003f29190620009d2565b5060808201518160040190816200040a9190620009d2565b5060a0820151816005015560c08201518160060160006101000a81548160ff02191690831515021790555060e08201518160070190816200044c9190620009d2565b50610100820151816008019081620004659190620009d2565b506101208201518160090160006101000a81548160ff0219169083600381111562000495576200049462000543565b5b02179055509050503360058b604051620004b091906200066e565b908152602001604051809103902060006101000a81548173ffffffffffffffffffffffffffffffffffffffff021916908373ffffffffffffffffffffffffffffffffffffffff1602179055507fabc58c36475157c4ac7669f9adfbb6f254d3a3578fb89676f6866ac3b9950eed33826040516200052f92919062000b0f565b60405180910390a150505050505050505050565b7f4e487b7100000000000000000000000000000000000000000000000000000000600052602160045260246000fd5b600082825260208201905092915050565b7f5573657220616c72656164792072656769737465726564000000000000000000600082015250565b6000620005bb60178362000572565b9150620005c88262000583565b602082019050919050565b60006020820190508181036000830152620005ee81620005ac565b9050919050565b600081519050919050565b600081905092915050565b60005b838110156200062b5780820151818401526020810190506200060e565b60008484015250505050565b60006200064482620005f5565b62000650818562000600565b9350620006628185602086016200060b565b80840191505092915050565b60006200067c828462000637565b915081905092915050565b7f557365726e616d6520616c72656164792074616b656e00000000000000000000600082015250565b6000620006bf60168362000572565b9150620006cc8262000687565b602082019050919050565b60006020820190508181036000830152620006f281620006b0565b9050919050565b6000819050919050565b7f4e487b7100000000000000000000000000000000000000000000000000000000600052601160045260246000fd5b60006200073f82620006f9565b91506200074c83620006f9565b925082820190508082111562000767576200076662000703565b5b92915050565b7f4e487b7100000000000000000000000000000000000000000000000000000000600052604160045260246000fd5b7f4e487b7100000000000000000000000000000000000000000000000000000000600052602260045260246000fd5b60006002820490506001821680620007e457607f821691505b602082108103620007fa57620007f96200079c565b5b50919050565b60008190508160005260206000209050919050565b60006020601f8301049050919050565b600082821b905092915050565b600060088302620008647fffffffffffffffffffffffffffffffffffffffffffffffffffffffffffffffff8262000825565b62000870868362000825565b95508019841693508086168417925050509392505050565b6000819050919050565b6000620008b3620008ad620008a784620006f9565b62000888565b620006f9565b9050919050565b6000819050919050565b620008cf8362000892565b620008e7620008de82620008ba565b84845462000832565b825550505050565b600090565b620008fe620008ef565b6200090b818484620008c4565b505050565b5b81811015620009335762000927600082620008f4565b60018101905062000911565b5050565b601f82111562000982576200094c8162000800565b620009578462000815565b8101602085101562000967578190505b6200097f620009768562000815565b83018262000910565b50505b505050565b600082821c905092915050565b6000620009a76000198460080262000987565b1980831691505092915050565b6000620009c2838362000994565b9150826002028217905092915050565b620009dd82620005f5565b67ffffffffffffffff811115620009f957620009f86200076d565b5b62000a058254620007cb565b62000a1282828562000937565b600060209050601f83116001811462000a4a576000841562000a35578287015190505b62000a418582620009b4565b86555062000ab1565b601f19841662000a5a8662000800565b60005b8281101562000a845784890151825560018201915060208501945060208101905062000a5d565b8683101562000aa4578489015162000aa0601f89168262000994565b8355505b6001600288020188555050505b505050505050565b600073ffffffffffffffffffffffffffffffffffffffff82169050919050565b600062000ae68262000ab9565b9050919050565b62000af88162000ad9565b82525050565b62000b0981620006f9565b82525050565b600060408201905062000b26600083018562000aed565b62000b35602083018462000afe565b9392505050565b61302f8062000b4c6000396000f3fe608060405234801561001057600080fd5b50600436106100cf5760003560e01c80638da5cb5b1161008c578063b90c207311610066578063b90c20731461023f578063bff1f9e11461026f578063c096cdd51461028d578063f82217c1146102a9576100cf565b80638da5cb5b146101d35780638e53fb41146101f15780639a2194a91461020f576100cf565b80632f4992ef146100d457806349e03502146100f057806364e95895146101205780636f77926b14610150578063725009d314610187578063875003aa146101a3575b600080fd5b6100ee60048036038101906100e99190611ea1565b6102c5565b005b61010a60048036038101906101059190611ece565b610519565b6040516101179190611fcc565b60405180910390f35b61013a60048036038101906101359190611ea1565b6106e4565b60405161014791906121ed565b60405180910390f35b61016a6004803603810190610165919061223b565b610a33565b60405161017e9897969594939291906122dc565b60405180910390f35b6101a1600480360381019061019c9190611ea1565b610e6e565b005b6101bd60048036038101906101b8919061237d565b6110c3565b6040516101ca91906123bd565b60405180910390f35b6101db61126f565b6040516101e891906123f9565b60405180910390f35b6101f9611293565b6040516102069190612414565b60405180910390f35b6102296004803603810190610224919061223b565b611299565b60405161023691906125a8565b60405180910390f35b610259600480360381019061025491906126ff565b61169c565b60405161026691906123bd565b60405180910390f35b6102776116d2565b6040516102849190612414565b60405180910390f35b6102a760048036038101906102a29190612774565b6116d8565b005b6102c360048036038101906102be919061282b565b611a04565b005b33600160038111156102da576102d96120bf565b5b600460008373ffffffffffffffffffffffffffffffffffffffff1673ffffffffffffffffffffffffffffffffffffffff16815260200190815260200160002060090160009054906101000a900460ff16600381111561033c5761033b6120bf565b5b1461037c576040517f08c379a0000000000000000000000000000000000000000000000000000000008152600401610373906129a5565b60405180910390fd5b8160016003811115610391576103906120bf565b5b6007600083815260200190815260200160002060070160009054906101000a900460ff1660038111156103c7576103c66120bf565b5b14610407576040517f08c379a00000000000000000000000000000000000000000000000000000000081526004016103fe90612a11565b60405180910390fd5b6009600084815260200190815260200160002060003373ffffffffffffffffffffffffffffffffffffffff1673ffffffffffffffffffffffffffffffffffffffff16815260200190815260200160002060009054906101000a900460ff1661046e57600080fd5b600160076000858152602001908152602001600020600501546104919190612a60565b600760008581526020019081526020016000206005018190555060006009600085815260200190815260200160002060003373ffffffffffffffffffffffffffffffffffffffff1673ffffffffffffffffffffffffffffffffffffffff16815260200190815260200160002060006101000a81548160ff021916908315150217905550505050565b606033600160038111156105305761052f6120bf565b5b600460008373ffffffffffffffffffffffffffffffffffffffff1673ffffffffffffffffffffffffffffffffffffffff16815260200190815260200160002060090160009054906101000a900460ff166003811115610592576105916120bf565b5b146105d2576040517f08c379a00000000000000000000000000000000000000000000000000000000081526004016105c9906129a5565b60405180910390fd5b6000836001866105e29190612a60565b6105ec9190612a94565b9050600084826105fc9190612ad6565b90506003805490508111156106145760038054905090505b600082826106229190612a60565b67ffffffffffffffff81111561063b5761063a6125d4565b5b6040519080825280602002602001820160405280156106695781602001602082028036833780820191505090505b50905060008390505b828110156106d6576003818154811061068e5761068d612b0a565b5b90600052602060002001548285836106a69190612a60565b815181106106b7576106b6612b0a565b5b60200260200101818152505080806106ce90612b39565b915050610672565b508094505050505092915050565b6106ec611dea565b3360016003811115610701576107006120bf565b5b600460008373ffffffffffffffffffffffffffffffffffffffff1673ffffffffffffffffffffffffffffffffffffffff16815260200190815260200160002060090160009054906101000a900460ff166003811115610763576107626120bf565b5b146107a3576040517f08c379a000000000000000000000000000000000000000000000000000000000815260040161079a906129a5565b60405180910390fd5b82600160038111156107b8576107b76120bf565b5b6007600083815260200190815260200160002060070160009054906101000a900460ff1660038111156107ee576107ed6120bf565b5b1461082e576040517f08c379a000000000000000000000000000000000000000000000000000000000815260040161082590612a11565b60405180910390fd5b6007600085815260200190815260200160002060405180610100016040529081600082015481526020016001820160009054906101000a900473ffffffffffffffffffffffffffffffffffffffff1673ffffffffffffffffffffffffffffffffffffffff1673ffffffffffffffffffffffffffffffffffffffff1681526020016002820180546108bd90612bb0565b80601f01602080910402602001604051908101604052809291908181526020018280546108e990612bb0565b80156109365780601f1061090b57610100808354040283529160200191610936565b820191906000526020600020905b81548152906001019060200180831161091957829003601f168201915b5050505050815260200160038201805461094f90612bb0565b80601f016020809104026020016040519081016040528092919081815260200182805461097b90612bb0565b80156109c85780601f1061099d576101008083540402835291602001916109c8565b820191906000526020600020905b8154815290600101906020018083116109ab57829003601f168201915b505050505081526020016004820154815260200160058201548152602001600682015481526020016007820160009054906101000a900460ff166003811115610a1457610a136120bf565b5b6003811115610a2657610a256120bf565b5b8152505092505050919050565b600060608060606000806060806000600460008b73ffffffffffffffffffffffffffffffffffffffff1673ffffffffffffffffffffffffffffffffffffffff16815260200190815260200160002060405180610140016040529081600082015481526020016001820160009054906101000a900473ffffffffffffffffffffffffffffffffffffffff1673ffffffffffffffffffffffffffffffffffffffff1673ffffffffffffffffffffffffffffffffffffffff168152602001600282018054610afd90612bb0565b80601f0160208091040260200160405190810160405280929190818152602001828054610b2990612bb0565b8015610b765780601f10610b4b57610100808354040283529160200191610b76565b820191906000526020600020905b815481529060010190602001808311610b5957829003601f168201915b50505050508152602001600382018054610b8f90612bb0565b80601f0160208091040260200160405190810160405280929190818152602001828054610bbb90612bb0565b8015610c085780601f10610bdd57610100808354040283529160200191610c08565b820191906000526020600020905b815481529060010190602001808311610beb57829003601f168201915b50505050508152602001600482018054610c2190612bb0565b80601f0160208091040260200160405190810160405280929190818152602001828054610c4d90612bb0565b8015610c9a5780601f10610c6f57610100808354040283529160200191610c9a565b820191906000526020600020905b815481529060010190602001808311610c7d57829003601f168201915b50505050508152602001600582015481526020016006820160009054906101000a900460ff16151515158152602001600782018054610cd890612bb0565b80601f0160208091040260200160405190810160405280929190818152602001828054610d0490612bb0565b8015610d515780601f10610d2657610100808354040283529160200191610d51565b820191906000526020600020905b815481529060010190602001808311610d3457829003601f168201915b50505050508152602001600882018054610d6a90612bb0565b80601f0160208091040260200160405190810160405280929190818152602001828054610d9690612bb0565b8015610de35780601f10610db857610100808354040283529160200191610de3565b820191906000526020600020905b815481529060010190602001808311610dc657829003601f168201915b505050505081526020016009820160009054906101000a900460ff166003811115610e1157610e106120bf565b5b6003811115610e2357610e226120bf565b5b81525050905080600001518160400151826060015183608001518460a001518560c001518660e001518761010001519850985098509850985098509850985050919395975091939597565b3360016003811115610e8357610e826120bf565b5b600460008373ffffffffffffffffffffffffffffffffffffffff1673ffffffffffffffffffffffffffffffffffffffff16815260200190815260200160002060090160009054906101000a900460ff166003811115610ee557610ee46120bf565b5b14610f25576040517f08c379a0000000000000000000000000000000000000000000000000000000008152600401610f1c906129a5565b60405180910390fd5b8160016003811115610f3a57610f396120bf565b5b6007600083815260200190815260200160002060070160009054906101000a900460ff166003811115610f7057610f6f6120bf565b5b14610fb0576040517f08c379a0000000000000000000000000000000000000000000000000000000008152600401610fa790612a11565b60405180910390fd5b6009600084815260200190815260200160002060003373ffffffffffffffffffffffffffffffffffffffff1673ffffffffffffffffffffffffffffffffffffffff16815260200190815260200160002060009054906101000a900460ff161561101857600080fd5b6001600760008581526020019081526020016000206005015461103b9190612ad6565b600760008581526020019081526020016000206005018190555060016009600085815260200190815260200160002060003373ffffffffffffffffffffffffffffffffffffffff1673ffffffffffffffffffffffffffffffffffffffff16815260200190815260200160002060006101000a81548160ff021916908315150217905550505050565b600082600160038111156110da576110d96120bf565b5b6007600083815260200190815260200160002060070160009054906101000a900460ff1660038111156111105761110f6120bf565b5b14611150576040517f08c379a000000000000000000000000000000000000000000000000000000000815260040161114790612a11565b60405180910390fd5b8260016003811115611165576111646120bf565b5b600460008373ffffffffffffffffffffffffffffffffffffffff1673ffffffffffffffffffffffffffffffffffffffff16815260200190815260200160002060090160009054906101000a900460ff1660038111156111c7576111c66120bf565b5b14611207576040517f08c379a00000000000000000000000000000000000000000000000000000000081526004016111fe906129a5565b60405180910390fd5b6009600086815260200190815260200160002060008573ffffffffffffffffffffffffffffffffffffffff1673ffffffffffffffffffffffffffffffffffffffff16815260200190815260200160002060009054906101000a900460ff169250505092915050565b60008054906101000a900473ffffffffffffffffffffffffffffffffffffffff1681565b60025481565b606081600160038111156112b0576112af6120bf565b5b600460008373ffffffffffffffffffffffffffffffffffffffff1673ffffffffffffffffffffffffffffffffffffffff16815260200190815260200160002060090160009054906101000a900460ff166003811115611312576113116120bf565b5b14611352576040517f08c379a0000000000000000000000000000000000000000000000000000000008152600401611349906129a5565b60405180910390fd5b6000600860008573ffffffffffffffffffffffffffffffffffffffff1673ffffffffffffffffffffffffffffffffffffffff1681526020019081526020016000208054806020026020016040519081016040528092919081815260200182805480156113dd57602002820191906000526020600020905b8154815260200190600101908083116113c9575b505050505090506000815167ffffffffffffffff811115611401576114006125d4565b5b60405190808252806020026020018201604052801561143a57816020015b611427611dea565b81526020019060019003908161141f5790505b50905060005b825181101561169057600760008483815181106114605761145f612b0a565b5b6020026020010151815260200190815260200160002060405180610100016040529081600082015481526020016001820160009054906101000a900473ffffffffffffffffffffffffffffffffffffffff1673ffffffffffffffffffffffffffffffffffffffff1673ffffffffffffffffffffffffffffffffffffffff1681526020016002820180546114f290612bb0565b80601f016020809104026020016040519081016040528092919081815260200182805461151e90612bb0565b801561156b5780601f106115405761010080835404028352916020019161156b565b820191906000526020600020905b81548152906001019060200180831161154e57829003601f168201915b5050505050815260200160038201805461158490612bb0565b80601f01602080910402602001604051908101604052809291908181526020018280546115b090612bb0565b80156115fd5780601f106115d2576101008083540402835291602001916115fd565b820191906000526020600020905b8154815290600101906020018083116115e057829003601f168201915b505050505081526020016004820154815260200160058201548152602001600682015481526020016007820160009054906101000a900460ff166003811115611649576116486120bf565b5b600381111561165b5761165a6120bf565b5b8152505082828151811061167257611671612b0a565b5b6020026020010181905250808061168890612b39565b915050611440565b50809350505050919050565b60006006826040516116ae9190612c1d565b908152602001604051809103902060009054906101000a900460ff16159050919050565b60015481565b33600160038111156116ed576116ec6120bf565b5b600460008373ffffffffffffffffffffffffffffffffffffffff1673ffffffffffffffffffffffffffffffffffffffff16815260200190815260200160002060090160009054906101000a900460ff16600381111561174f5761174e6120bf565b5b1461178f576040517f08c379a0000000000000000000000000000000000000000000000000000000008152600401611786906129a5565b60405180910390fd5b600160025461179e9190612ad6565b600281905550600060025490506040518061010001604052808281526020013373ffffffffffffffffffffffffffffffffffffffff16815260200185815260200184815260200142815260200160008152602001600081526020016001600381111561180d5761180c6120bf565b5b815250600760008381526020019081526020016000206000820151816000015560208201518160010160006101000a81548173ffffffffffffffffffffffffffffffffffffffff021916908373ffffffffffffffffffffffffffffffffffffffff16021790555060408201518160020190816118899190612de0565b50606082015181600301908161189f9190612de0565b506080820151816004015560a0820151816005015560c0820151816006015560e08201518160070160006101000a81548160ff021916908360038111156118e9576118e86120bf565b5b0217905550905050600860003373ffffffffffffffffffffffffffffffffffffffff1673ffffffffffffffffffffffffffffffffffffffff16815260200190815260200160002081908060018154018082558091505060019003906000526020600020016000909190919091505560038190806001815401808255809150506001900390600052602060002001600090919091909150557fe78603dea3231b9ac9a73b3663b6e28de19f35247e2c32f0115ec263bdc7c49a33600460003373ffffffffffffffffffffffffffffffffffffffff1673ffffffffffffffffffffffffffffffffffffffff16815260200190815260200160002060000154836040516119f593929190612ec1565b60405180910390a15050505050565b3360006003811115611a1957611a186120bf565b5b600460008373ffffffffffffffffffffffffffffffffffffffff1673ffffffffffffffffffffffffffffffffffffffff16815260200190815260200160002060090160009054906101000a900460ff166003811115611a7b57611a7a6120bf565b5b14611abb576040517f08c379a0000000000000000000000000000000000000000000000000000000008152600401611ab290612f44565b60405180910390fd5b87600681604051611acc9190612c1d565b908152602001604051809103902060009054906101000a900460ff1615611b28576040517f08c379a0000000000000000000000000000000000000000000000000000000008152600401611b1f90612fb0565b60405180910390fd5b600160068a604051611b3a9190612c1d565b908152602001604051809103902060006101000a81548160ff02191690831515021790555060018054611b6d9190612ad6565b600181905550600060015490506040518061014001604052808281526020013373ffffffffffffffffffffffffffffffffffffffff1681526020018b81526020018a8152602001878152602001868152602001851515815260200189815260200188815260200160016003811115611be857611be76120bf565b5b815250600460003373ffffffffffffffffffffffffffffffffffffffff1673ffffffffffffffffffffffffffffffffffffffff1681526020019081526020016000206000820151816000015560208201518160010160006101000a81548173ffffffffffffffffffffffffffffffffffffffff021916908373ffffffffffffffffffffffffffffffffffffffff1602179055506040820151816002019081611c909190612de0565b506060820151816003019081611ca69190612de0565b506080820151816004019081611cbc9190612de0565b5060a0820151816005015560c08201518160060160006101000a81548160ff02191690831515021790555060e0820151816007019081611cfc9190612de0565b50610100820151816008019081611d139190612de0565b506101208201518160090160006101000a81548160ff02191690836003811115611d4057611d3f6120bf565b5b02179055509050503360058b604051611d599190612c1d565b908152602001604051809103902060006101000a81548173ffffffffffffffffffffffffffffffffffffffff021916908373ffffffffffffffffffffffffffffffffffffffff1602179055507fabc58c36475157c4ac7669f9adfbb6f254d3a3578fb89676f6866ac3b9950eed3382604051611dd6929190612fd0565b60405180910390a150505050505050505050565b60405180610100016040528060008152602001600073ffffffffffffffffffffffffffffffffffffffff168152602001606081526020016060815260200160008152602001600081526020016000815260200160006003811115611e5157611e506120bf565b5b81525090565b6000604051905090565b600080fd5b600080fd5b6000819050919050565b611e7e81611e6b565b8114611e8957600080fd5b50565b600081359050611e9b81611e75565b92915050565b600060208284031215611eb757611eb6611e61565b5b6000611ec584828501611e8c565b91505092915050565b60008060408385031215611ee557611ee4611e61565b5b6000611ef385828601611e8c565b9250506020611f0485828601611e8c565b9150509250929050565b600081519050919050565b600082825260208201905092915050565b6000819050602082019050919050565b611f4381611e6b565b82525050565b6000611f558383611f3a565b60208301905092915050565b6000602082019050919050565b6000611f7982611f0e565b611f838185611f19565b9350611f8e83611f2a565b8060005b83811015611fbf578151611fa68882611f49565b9750611fb183611f61565b925050600181019050611f92565b5085935050505092915050565b60006020820190508181036000830152611fe68184611f6e565b905092915050565b600073ffffffffffffffffffffffffffffffffffffffff82169050919050565b600061201982611fee565b9050919050565b6120298161200e565b82525050565b600081519050919050565b600082825260208201905092915050565b60005b8381101561206957808201518184015260208101905061204e565b60008484015250505050565b6000601f19601f8301169050919050565b60006120918261202f565b61209b818561203a565b93506120ab81856020860161204b565b6120b481612075565b840191505092915050565b7f4e487b7100000000000000000000000000000000000000000000000000000000600052602160045260246000fd5b600481106120ff576120fe6120bf565b5b50565b6000819050612110826120ee565b919050565b600061212082612102565b9050919050565b61213081612115565b82525050565b60006101008301600083015161214f6000860182611f3a565b5060208301516121626020860182612020565b506040830151848203604086015261217a8282612086565b915050606083015184820360608601526121948282612086565b91505060808301516121a96080860182611f3a565b5060a08301516121bc60a0860182611f3a565b5060c08301516121cf60c0860182611f3a565b5060e08301516121e260e0860182612127565b508091505092915050565b600060208201905081810360008301526122078184612136565b905092915050565b6122188161200e565b811461222357600080fd5b50565b6000813590506122358161220f565b92915050565b60006020828403121561225157612250611e61565b5b600061225f84828501612226565b91505092915050565b61227181611e6b565b82525050565b600082825260208201905092915050565b60006122938261202f565b61229d8185612277565b93506122ad81856020860161204b565b6122b681612075565b840191505092915050565b60008115159050919050565b6122d6816122c1565b82525050565b6000610100820190506122f2600083018b612268565b8181036020830152612304818a612288565b905081810360408301526123188189612288565b9050818103606083015261232c8188612288565b905061233b6080830187612268565b61234860a08301866122cd565b81810360c083015261235a8185612288565b905081810360e083015261236e8184612288565b90509998505050505050505050565b6000806040838503121561239457612393611e61565b5b60006123a285828601611e8c565b92505060206123b385828601612226565b9150509250929050565b60006020820190506123d260008301846122cd565b92915050565b60006123e382611fee565b9050919050565b6123f3816123d8565b82525050565b600060208201905061240e60008301846123ea565b92915050565b60006020820190506124296000830184612268565b92915050565b600081519050919050565b600082825260208201905092915050565b6000819050602082019050919050565b6000610100830160008301516124746000860182611f3a565b5060208301516124876020860182612020565b506040830151848203604086015261249f8282612086565b915050606083015184820360608601526124b98282612086565b91505060808301516124ce6080860182611f3a565b5060a08301516124e160a0860182611f3a565b5060c08301516124f460c0860182611f3a565b5060e083015161250760e0860182612127565b508091505092915050565b600061251e838361245b565b905092915050565b6000602082019050919050565b600061253e8261242f565b612548818561243a565b93508360208202850161255a8561244b565b8060005b8581101561259657848403895281516125778582612512565b945061258283612526565b925060208a0199505060018101905061255e565b50829750879550505050505092915050565b600060208201905081810360008301526125c28184612533565b905092915050565b600080fd5b600080fd5b7f4e487b7100000000000000000000000000000000000000000000000000000000600052604160045260246000fd5b61260c82612075565b810181811067ffffffffffffffff8211171561262b5761262a6125d4565b5b80604052505050565b600061263e611e57565b905061264a8282612603565b919050565b600067ffffffffffffffff82111561266a576126696125d4565b5b61267382612075565b9050602081019050919050565b82818337600083830152505050565b60006126a261269d8461264f565b612634565b9050828152602081018484840111156126be576126bd6125cf565b5b6126c9848285612680565b509392505050565b600082601f8301126126e6576126e56125ca565b5b81356126f684826020860161268f565b91505092915050565b60006020828403121561271557612714611e61565b5b600082013567ffffffffffffffff81111561273357612732611e66565b5b61273f848285016126d1565b91505092915050565b612751816123d8565b811461275c57600080fd5b50565b60008135905061276e81612748565b92915050565b60008060006060848603121561278d5761278c611e61565b5b600061279b8682870161275f565b935050602084013567ffffffffffffffff8111156127bc576127bb611e66565b5b6127c8868287016126d1565b925050604084013567ffffffffffffffff8111156127e9576127e8611e66565b5b6127f5868287016126d1565b9150509250925092565b612808816122c1565b811461281357600080fd5b50565b600081359050612825816127ff565b92915050565b600080600080600080600060e0888a03121561284a57612849611e61565b5b600088013567ffffffffffffffff81111561286857612867611e66565b5b6128748a828b016126d1565b975050602088013567ffffffffffffffff81111561289557612894611e66565b5b6128a18a828b016126d1565b965050604088013567ffffffffffffffff8111156128c2576128c1611e66565b5b6128ce8a828b016126d1565b955050606088013567ffffffffffffffff8111156128ef576128ee611e66565b5b6128fb8a828b016126d1565b945050608088013567ffffffffffffffff81111561291c5761291b611e66565b5b6129288a828b016126d1565b93505060a06129398a828b01611e8c565b92505060c061294a8a828b01612816565b91505092959891949750929550565b7f4e6f742061205265676973746572656420557365722100000000000000000000600082015250565b600061298f601683612277565b915061299a82612959565b602082019050919050565b600060208201905081810360008301526129be81612982565b9050919050565b7f4e6f7420616e2061637469766520706f73740000000000000000000000000000600082015250565b60006129fb601283612277565b9150612a06826129c5565b602082019050919050565b60006020820190508181036000830152612a2a816129ee565b9050919050565b7f4e487b7100000000000000000000000000000000000000000000000000000000600052601160045260246000fd5b6000612a6b82611e6b565b9150612a7683611e6b565b9250828203905081811115612a8e57612a8d612a31565b5b92915050565b6000612a9f82611e6b565b9150612aaa83611e6b565b9250828202612ab881611e6b565b91508282048414831517612acf57612ace612a31565b5b5092915050565b6000612ae182611e6b565b9150612aec83611e6b565b9250828201905080821115612b0457612b03612a31565b5b92915050565b7f4e487b7100000000000000000000000000000000000000000000000000000000600052603260045260246000fd5b6000612b4482611e6b565b91507fffffffffffffffffffffffffffffffffffffffffffffffffffffffffffffffff8203612b7657612b75612a31565b5b600182019050919050565b7f4e487b7100000000000000000000000000000000000000000000000000000000600052602260045260246000fd5b60006002820490506001821680612bc857607f821691505b602082108103612bdb57612bda612b81565b5b50919050565b600081905092915050565b6000612bf78261202f565b612c018185612be1565b9350612c1181856020860161204b565b80840191505092915050565b6000612c298284612bec565b915081905092915050565b60008190508160005260206000209050919050565b60006020601f8301049050919050565b600082821b905092915050565b600060088302612c967fffffffffffffffffffffffffffffffffffffffffffffffffffffffffffffffff82612c59565b612ca08683612c59565b95508019841693508086168417925050509392505050565b6000819050919050565b6000612cdd612cd8612cd384611e6b565b612cb8565b611e6b565b9050919050565b6000819050919050565b612cf783612cc2565b612d0b612d0382612ce4565b848454612c66565b825550505050565b600090565b612d20612d13565b612d2b818484612cee565b505050565b5b81811015612d4f57612d44600082612d18565b600181019050612d31565b5050565b601f821115612d9457612d6581612c34565b612d6e84612c49565b81016020851015612d7d578190505b612d91612d8985612c49565b830182612d30565b50505b505050565b600082821c905092915050565b6000612db760001984600802612d99565b1980831691505092915050565b6000612dd08383612da6565b9150826002028217905092915050565b612de98261202f565b67ffffffffffffffff811115612e0257612e016125d4565b5b612e0c8254612bb0565b612e17828285612d53565b600060209050601f831160018114612e4a5760008415612e38578287015190505b612e428582612dc4565b865550612eaa565b601f198416612e5886612c34565b60005b82811015612e8057848901518255600182019150602085019450602081019050612e5b565b86831015612e9d5784890151612e99601f891682612da6565b8355505b6001600288020188555050505b505050505050565b612ebb8161200e565b82525050565b6000606082019050612ed66000830186612eb2565b612ee36020830185612268565b612ef06040830184612268565b949350505050565b7f5573657220616c72656164792072656769737465726564000000000000000000600082015250565b6000612f2e601783612277565b9150612f3982612ef8565b602082019050919050565b60006020820190508181036000830152612f5d81612f21565b9050919050565b7f557365726e616d6520616c72656164792074616b656e00000000000000000000600082015250565b6000612f9a601683612277565b9150612fa582612f64565b602082019050919050565b60006020820190508181036000830152612fc981612f8d565b9050919050565b6000604082019050612fe56000830185612eb2565b612ff26020830184612268565b939250505056fea264697066735822122060727c3e0e016fb742da24d0ec3b2143caa0d8eb0e58a0a07e8407cd24caa23864736f6c63430008120033",
  "linkReferences": {},
  "deployedLinkReferences": {}
}