{
  "_format": "hh-sol-artifact-1",
  "contractName": "SocialChain",
  "sourceName": "contracts/SocialChain.sol",
  "abi": [
    {
      "inputs": [],
      "stateMutability": "nonpayable",
      "type": "constructor"
    },
    {
      "anonymous": false,
      "inputs": [
        {
          "indexed": false,
          "internalType": "address",
          "name": "_author",
          "type": "address"
        },
        {
          "indexed": false,
          "internalType": "uint256",
          "name": "_userId",
          "type": "uint256"
        },
        {
          "indexed": false,
          "internalType": "uint256",
          "name": "_postId",
          "type": "uint256"
        }
      ],
      "name": "logPostCreated",
      "type": "event"
    },
    {
      "anonymous": false,
      "inputs": [
        {
          "indexed": false,
          "internalType": "address",
          "name": "userAddress",
          "type": "address"
        },
        {
          "indexed": false,
          "internalType": "uint256",
          "name": "userId",
          "type": "uint256"
        }
      ],
      "name": "logRegisterUser",
      "type": "event"
    },
    {
      "inputs": [
        {
          "internalType": "address payable",
          "name": "_accountAddress",
          "type": "address"
        },
        {
          "internalType": "string",
          "name": "_postdescription",
          "type": "string"
        },
        {
          "internalType": "string",
          "name": "_imghash",
          "type": "string"
        }
      ],
      "name": "createPost",
      "outputs": [],
      "stateMutability": "nonpayable",
      "type": "function"
    },
    {
      "inputs": [
        {
          "internalType": "uint256",
          "name": "_postId",
          "type": "uint256"
        }
      ],
      "name": "getPostById",
      "outputs": [
        {
          "components": [
            {
              "internalType": "uint256",
              "name": "postId",
              "type": "uint256"
            },
            {
              "internalType": "address",
              "name": "author",
              "type": "address"
            },
            {
              "internalType": "string",
              "name": "postDescription",
              "type": "string"
            },
            {
              "internalType": "string",
              "name": "imgHash",
              "type": "string"
            },
            {
              "internalType": "uint256",
              "name": "timeStamp",
              "type": "uint256"
            },
            {
              "internalType": "uint256",
              "name": "likeCount",
              "type": "uint256"
            },
            {
              "internalType": "uint256",
              "name": "reportCount",
              "type": "uint256"
            },
            {
              "internalType": "enum SocialChain.postStatus",
              "name": "status",
              "type": "uint8"
            }
          ],
          "internalType": "struct SocialChain.Post",
          "name": "",
          "type": "tuple"
        }
      ],
      "stateMutability": "view",
      "type": "function"
    },
    {
      "inputs": [
        {
          "internalType": "uint256",
          "name": "_page",
          "type": "uint256"
        },
        {
          "internalType": "uint256",
          "name": "_perPage",
          "type": "uint256"
        }
      ],
      "name": "getPostIds",
      "outputs": [
        {
          "internalType": "uint256[]",
          "name": "",
          "type": "uint256[]"
        }
      ],
      "stateMutability": "view",
      "type": "function"
    },
    {
      "inputs": [
        {
          "internalType": "address",
          "name": "accountAddress",
          "type": "address"
        }
      ],
      "name": "getUser",
      "outputs": [
        {
          "internalType": "uint256",
          "name": "id",
          "type": "uint256"
        },
        {
          "internalType": "string",
          "name": "userName",
          "type": "string"
        },
        {
          "internalType": "string",
          "name": "name",
          "type": "string"
        },
        {
          "internalType": "string",
          "name": "bio",
          "type": "string"
        },
        {
          "internalType": "uint256",
          "name": "birthDate",
          "type": "uint256"
        },
        {
          "internalType": "bool",
          "name": "showUsername",
          "type": "bool"
        },
        {
          "internalType": "string",
          "name": "imageHash",
          "type": "string"
        },
        {
          "internalType": "string",
          "name": "coverHash",
          "type": "string"
        }
      ],
      "stateMutability": "view",
      "type": "function"
    },
    {
      "inputs": [
        {
          "internalType": "address",
          "name": "_userAddress",
          "type": "address"
        }
      ],
      "name": "getUserPosts",
      "outputs": [
        {
          "components": [
            {
              "internalType": "uint256",
              "name": "postId",
              "type": "uint256"
            },
            {
              "internalType": "address",
              "name": "author",
              "type": "address"
            },
            {
              "internalType": "string",
              "name": "postDescription",
              "type": "string"
            },
            {
              "internalType": "string",
              "name": "imgHash",
              "type": "string"
            },
            {
              "internalType": "uint256",
              "name": "timeStamp",
              "type": "uint256"
            },
            {
              "internalType": "uint256",
              "name": "likeCount",
              "type": "uint256"
            },
            {
              "internalType": "uint256",
              "name": "reportCount",
              "type": "uint256"
            },
            {
              "internalType": "enum SocialChain.postStatus",
              "name": "status",
              "type": "uint8"
            }
          ],
          "internalType": "struct SocialChain.Post[]",
          "name": "",
          "type": "tuple[]"
        }
      ],
      "stateMutability": "view",
      "type": "function"
    },
    {
      "inputs": [],
      "name": "owner",
      "outputs": [
        {
          "internalType": "address payable",
          "name": "",
          "type": "address"
        }
      ],
      "stateMutability": "view",
      "type": "function"
    },
    {
      "inputs": [
        {
          "internalType": "string",
          "name": "_username",
          "type": "string"
        },
        {
          "internalType": "string",
          "name": "_name",
          "type": "string"
        },
        {
          "internalType": "string",
          "name": "_imgHash",
          "type": "string"
        },
        {
          "internalType": "string",
          "name": "_coverHash",
          "type": "string"
        },
        {
          "internalType": "string",
          "name": "_bio",
          "type": "string"
        },
        {
          "internalType": "uint256",
          "name": "birthDate",
          "type": "uint256"
        },
        {
          "internalType": "bool",
          "name": "showUserName",
          "type": "bool"
        }
      ],
      "name": "registerUser",
      "outputs": [],
      "stateMutability": "nonpayable",
      "type": "function"
    },
    {
      "inputs": [],
      "name": "totalPosts",
      "outputs": [
        {
          "internalType": "uint256",
          "name": "",
          "type": "uint256"
        }
      ],
      "stateMutability": "view",
      "type": "function"
    },
    {
      "inputs": [],
      "name": "totalUsers",
      "outputs": [
        {
          "internalType": "uint256",
          "name": "",
          "type": "uint256"
        }
      ],
      "stateMutability": "view",
      "type": "function"
    },
    {
      "inputs": [
        {
          "internalType": "string",
          "name": "_username",
          "type": "string"
        }
      ],
      "name": "userNameAvailable",
      "outputs": [
        {
          "internalType": "bool",
          "name": "status",
          "type": "bool"
        }
      ],
      "stateMutability": "view",
      "type": "function"
    }
  ],
  "bytecode": "0x6080604052600060015560006002553480156200001b57600080fd5b50336000806101000a81548173ffffffffffffffffffffffffffffffffffffffff021916908373ffffffffffffffffffffffffffffffffffffffff160217905550620001316040518060400160405280600581526020017f6f776e65720000000000000000000000000000000000000000000000000000008152506040518060400160405280600581526020017f6f776e657200000000000000000000000000000000000000000000000000000081525060405180602001604052806000815250604051806020016040528060008152506040518060400160405280600581526020017f6f776e65720000000000000000000000000000000000000000000000000000008152506001806200013760201b60201c565b62000b3c565b33600060038111156200014f576200014e62000543565b5b600460008373ffffffffffffffffffffffffffffffffffffffff1673ffffffffffffffffffffffffffffffffffffffff16815260200190815260200160002060090160009054906101000a900460ff166003811115620001b457620001b362000543565b5b14620001f7576040517f08c379a0000000000000000000000000000000000000000000000000000000008152600401620001ee90620005d3565b60405180910390fd5b876006816040516200020a91906200066e565b908152602001604051809103902060009054906101000a900460ff161562000269576040517f08c379a00000000000000000000000000000000000000000000000000000000081526004016200026090620006d7565b60405180910390fd5b600160068a6040516200027d91906200066e565b908152602001604051809103902060006101000a81548160ff02191690831515021790555060018054620002b2919062000732565b600181905550600060015490506040518061014001604052808281526020013373ffffffffffffffffffffffffffffffffffffffff1681526020018b81526020018a815260200187815260200186815260200185151581526020018981526020018881526020016001600381111562000330576200032f62000543565b5b815250600460003373ffffffffffffffffffffffffffffffffffffffff1673ffffffffffffffffffffffffffffffffffffffff1681526020019081526020016000206000820151816000015560208201518160010160006101000a81548173ffffffffffffffffffffffffffffffffffffffff021916908373ffffffffffffffffffffffffffffffffffffffff1602179055506040820151816002019081620003da9190620009d2565b506060820151816003019081620003f29190620009d2565b5060808201518160040190816200040a9190620009d2565b5060a0820151816005015560c08201518160060160006101000a81548160ff02191690831515021790555060e08201518160070190816200044c9190620009d2565b50610100820151816008019081620004659190620009d2565b506101208201518160090160006101000a81548160ff0219169083600381111562000495576200049462000543565b5b02179055509050503360058b604051620004b091906200066e565b908152602001604051809103902060006101000a81548173ffffffffffffffffffffffffffffffffffffffff021916908373ffffffffffffffffffffffffffffffffffffffff1602179055507fabc58c36475157c4ac7669f9adfbb6f254d3a3578fb89676f6866ac3b9950eed33826040516200052f92919062000b0f565b60405180910390a150505050505050505050565b7f4e487b7100000000000000000000000000000000000000000000000000000000600052602160045260246000fd5b600082825260208201905092915050565b7f5573657220616c72656164792072656769737465726564000000000000000000600082015250565b6000620005bb60178362000572565b9150620005c88262000583565b602082019050919050565b60006020820190508181036000830152620005ee81620005ac565b9050919050565b600081519050919050565b600081905092915050565b60005b838110156200062b5780820151818401526020810190506200060e565b60008484015250505050565b60006200064482620005f5565b62000650818562000600565b9350620006628185602086016200060b565b80840191505092915050565b60006200067c828462000637565b915081905092915050565b7f557365726e616d6520616c72656164792074616b656e00000000000000000000600082015250565b6000620006bf60168362000572565b9150620006cc8262000687565b602082019050919050565b60006020820190508181036000830152620006f281620006b0565b9050919050565b6000819050919050565b7f4e487b7100000000000000000000000000000000000000000000000000000000600052601160045260246000fd5b60006200073f82620006f9565b91506200074c83620006f9565b925082820190508082111562000767576200076662000703565b5b92915050565b7f4e487b7100000000000000000000000000000000000000000000000000000000600052604160045260246000fd5b7f4e487b7100000000000000000000000000000000000000000000000000000000600052602260045260246000fd5b60006002820490506001821680620007e457607f821691505b602082108103620007fa57620007f96200079c565b5b50919050565b60008190508160005260206000209050919050565b60006020601f8301049050919050565b600082821b905092915050565b600060088302620008647fffffffffffffffffffffffffffffffffffffffffffffffffffffffffffffffff8262000825565b62000870868362000825565b95508019841693508086168417925050509392505050565b6000819050919050565b6000620008b3620008ad620008a784620006f9565b62000888565b620006f9565b9050919050565b6000819050919050565b620008cf8362000892565b620008e7620008de82620008ba565b84845462000832565b825550505050565b600090565b620008fe620008ef565b6200090b818484620008c4565b505050565b5b81811015620009335762000927600082620008f4565b60018101905062000911565b5050565b601f82111562000982576200094c8162000800565b620009578462000815565b8101602085101562000967578190505b6200097f620009768562000815565b83018262000910565b50505b505050565b600082821c905092915050565b6000620009a76000198460080262000987565b1980831691505092915050565b6000620009c2838362000994565b9150826002028217905092915050565b620009dd82620005f5565b67ffffffffffffffff811115620009f957620009f86200076d565b5b62000a058254620007cb565b62000a1282828562000937565b600060209050601f83116001811462000a4a576000841562000a35578287015190505b62000a418582620009b4565b86555062000ab1565b601f19841662000a5a8662000800565b60005b8281101562000a845784890151825560018201915060208501945060208101905062000a5d565b8683101562000aa4578489015162000aa0601f89168262000994565b8355505b6001600288020188555050505b505050505050565b600073ffffffffffffffffffffffffffffffffffffffff82169050919050565b600062000ae68262000ab9565b9050919050565b62000af88162000ad9565b82525050565b62000b0981620006f9565b82525050565b600060408201905062000b26600083018562000aed565b62000b35602083018462000afe565b9392505050565b6129018062000b4c6000396000f3fe608060405234801561001057600080fd5b506004361061009e5760003560e01c80639a2194a9116100665780639a2194a914610176578063b90c2073146101a6578063bff1f9e1146101d6578063c096cdd5146101f4578063f82217c1146102105761009e565b806349e03502146100a357806364e95895146100d35780636f77926b146101035780638da5cb5b1461013a5780638e53fb4114610158575b600080fd5b6100bd60048036038101906100b891906117b3565b61022c565b6040516100ca91906118b1565b60405180910390f35b6100ed60048036038101906100e891906118d3565b6103f7565b6040516100fa9190611aff565b60405180910390f35b61011d60048036038101906101189190611b4d565b610746565b604051610131989796959493929190611bee565b60405180910390f35b610142610b81565b60405161014f9190611cb0565b60405180910390f35b610160610ba5565b60405161016d9190611ccb565b60405180910390f35b610190600480360381019061018b9190611b4d565b610bab565b60405161019d9190611e5f565b60405180910390f35b6101c060048036038101906101bb9190611fb6565b610fae565b6040516101cd9190611fff565b60405180910390f35b6101de610fe4565b6040516101eb9190611ccb565b60405180910390f35b61020e60048036038101906102099190612046565b610fea565b005b61022a600480360381019061022591906120fd565b611316565b005b60603360016003811115610243576102426119d1565b5b600460008373ffffffffffffffffffffffffffffffffffffffff1673ffffffffffffffffffffffffffffffffffffffff16815260200190815260200160002060090160009054906101000a900460ff1660038111156102a5576102a46119d1565b5b146102e5576040517f08c379a00000000000000000000000000000000000000000000000000000000081526004016102dc90612277565b60405180910390fd5b6000836001866102f591906122c6565b6102ff91906122fa565b90506000848261030f919061233c565b90506003805490508111156103275760038054905090505b6000828261033591906122c6565b67ffffffffffffffff81111561034e5761034d611e8b565b5b60405190808252806020026020018201604052801561037c5781602001602082028036833780820191505090505b50905060008390505b828110156103e957600381815481106103a1576103a0612370565b5b90600052602060002001548285836103b991906122c6565b815181106103ca576103c9612370565b5b60200260200101818152505080806103e19061239f565b915050610385565b508094505050505092915050565b6103ff6116fc565b3360016003811115610414576104136119d1565b5b600460008373ffffffffffffffffffffffffffffffffffffffff1673ffffffffffffffffffffffffffffffffffffffff16815260200190815260200160002060090160009054906101000a900460ff166003811115610476576104756119d1565b5b146104b6576040517f08c379a00000000000000000000000000000000000000000000000000000000081526004016104ad90612277565b60405180910390fd5b82600160038111156104cb576104ca6119d1565b5b6007600083815260200190815260200160002060070160009054906101000a900460ff166003811115610501576105006119d1565b5b14610541576040517f08c379a000000000000000000000000000000000000000000000000000000000815260040161053890612433565b60405180910390fd5b6007600085815260200190815260200160002060405180610100016040529081600082015481526020016001820160009054906101000a900473ffffffffffffffffffffffffffffffffffffffff1673ffffffffffffffffffffffffffffffffffffffff1673ffffffffffffffffffffffffffffffffffffffff1681526020016002820180546105d090612482565b80601f01602080910402602001604051908101604052809291908181526020018280546105fc90612482565b80156106495780601f1061061e57610100808354040283529160200191610649565b820191906000526020600020905b81548152906001019060200180831161062c57829003601f168201915b5050505050815260200160038201805461066290612482565b80601f016020809104026020016040519081016040528092919081815260200182805461068e90612482565b80156106db5780601f106106b0576101008083540402835291602001916106db565b820191906000526020600020905b8154815290600101906020018083116106be57829003601f168201915b505050505081526020016004820154815260200160058201548152602001600682015481526020016007820160009054906101000a900460ff166003811115610727576107266119d1565b5b6003811115610739576107386119d1565b5b8152505092505050919050565b600060608060606000806060806000600460008b73ffffffffffffffffffffffffffffffffffffffff1673ffffffffffffffffffffffffffffffffffffffff16815260200190815260200160002060405180610140016040529081600082015481526020016001820160009054906101000a900473ffffffffffffffffffffffffffffffffffffffff1673ffffffffffffffffffffffffffffffffffffffff1673ffffffffffffffffffffffffffffffffffffffff16815260200160028201805461081090612482565b80601f016020809104026020016040519081016040528092919081815260200182805461083c90612482565b80156108895780601f1061085e57610100808354040283529160200191610889565b820191906000526020600020905b81548152906001019060200180831161086c57829003601f168201915b505050505081526020016003820180546108a290612482565b80601f01602080910402602001604051908101604052809291908181526020018280546108ce90612482565b801561091b5780601f106108f05761010080835404028352916020019161091b565b820191906000526020600020905b8154815290600101906020018083116108fe57829003601f168201915b5050505050815260200160048201805461093490612482565b80601f016020809104026020016040519081016040528092919081815260200182805461096090612482565b80156109ad5780601f10610982576101008083540402835291602001916109ad565b820191906000526020600020905b81548152906001019060200180831161099057829003601f168201915b50505050508152602001600582015481526020016006820160009054906101000a900460ff161515151581526020016007820180546109eb90612482565b80601f0160208091040260200160405190810160405280929190818152602001828054610a1790612482565b8015610a645780601f10610a3957610100808354040283529160200191610a64565b820191906000526020600020905b815481529060010190602001808311610a4757829003601f168201915b50505050508152602001600882018054610a7d90612482565b80601f0160208091040260200160405190810160405280929190818152602001828054610aa990612482565b8015610af65780601f10610acb57610100808354040283529160200191610af6565b820191906000526020600020905b815481529060010190602001808311610ad957829003601f168201915b505050505081526020016009820160009054906101000a900460ff166003811115610b2457610b236119d1565b5b6003811115610b3657610b356119d1565b5b81525050905080600001518160400151826060015183608001518460a001518560c001518660e001518761010001519850985098509850985098509850985050919395975091939597565b60008054906101000a900473ffffffffffffffffffffffffffffffffffffffff1681565b60025481565b60608160016003811115610bc257610bc16119d1565b5b600460008373ffffffffffffffffffffffffffffffffffffffff1673ffffffffffffffffffffffffffffffffffffffff16815260200190815260200160002060090160009054906101000a900460ff166003811115610c2457610c236119d1565b5b14610c64576040517f08c379a0000000000000000000000000000000000000000000000000000000008152600401610c5b90612277565b60405180910390fd5b6000600860008573ffffffffffffffffffffffffffffffffffffffff1673ffffffffffffffffffffffffffffffffffffffff168152602001908152602001600020805480602002602001604051908101604052809291908181526020018280548015610cef57602002820191906000526020600020905b815481526020019060010190808311610cdb575b505050505090506000815167ffffffffffffffff811115610d1357610d12611e8b565b5b604051908082528060200260200182016040528015610d4c57816020015b610d396116fc565b815260200190600190039081610d315790505b50905060005b8251811015610fa25760076000848381518110610d7257610d71612370565b5b6020026020010151815260200190815260200160002060405180610100016040529081600082015481526020016001820160009054906101000a900473ffffffffffffffffffffffffffffffffffffffff1673ffffffffffffffffffffffffffffffffffffffff1673ffffffffffffffffffffffffffffffffffffffff168152602001600282018054610e0490612482565b80601f0160208091040260200160405190810160405280929190818152602001828054610e3090612482565b8015610e7d5780601f10610e5257610100808354040283529160200191610e7d565b820191906000526020600020905b815481529060010190602001808311610e6057829003601f168201915b50505050508152602001600382018054610e9690612482565b80601f0160208091040260200160405190810160405280929190818152602001828054610ec290612482565b8015610f0f5780601f10610ee457610100808354040283529160200191610f0f565b820191906000526020600020905b815481529060010190602001808311610ef257829003601f168201915b505050505081526020016004820154815260200160058201548152602001600682015481526020016007820160009054906101000a900460ff166003811115610f5b57610f5a6119d1565b5b6003811115610f6d57610f6c6119d1565b5b81525050828281518110610f8457610f83612370565b5b60200260200101819052508080610f9a9061239f565b915050610d52565b50809350505050919050565b6000600682604051610fc091906124ef565b908152602001604051809103902060009054906101000a900460ff16159050919050565b60015481565b3360016003811115610fff57610ffe6119d1565b5b600460008373ffffffffffffffffffffffffffffffffffffffff1673ffffffffffffffffffffffffffffffffffffffff16815260200190815260200160002060090160009054906101000a900460ff166003811115611061576110606119d1565b5b146110a1576040517f08c379a000000000000000000000000000000000000000000000000000000000815260040161109890612277565b60405180910390fd5b60016002546110b0919061233c565b600281905550600060025490506040518061010001604052808281526020013373ffffffffffffffffffffffffffffffffffffffff16815260200185815260200184815260200142815260200160008152602001600081526020016001600381111561111f5761111e6119d1565b5b815250600760008381526020019081526020016000206000820151816000015560208201518160010160006101000a81548173ffffffffffffffffffffffffffffffffffffffff021916908373ffffffffffffffffffffffffffffffffffffffff160217905550604082015181600201908161119b91906126b2565b5060608201518160030190816111b191906126b2565b506080820151816004015560a0820151816005015560c0820151816006015560e08201518160070160006101000a81548160ff021916908360038111156111fb576111fa6119d1565b5b0217905550905050600860003373ffffffffffffffffffffffffffffffffffffffff1673ffffffffffffffffffffffffffffffffffffffff16815260200190815260200160002081908060018154018082558091505060019003906000526020600020016000909190919091505560038190806001815401808255809150506001900390600052602060002001600090919091909150557fe78603dea3231b9ac9a73b3663b6e28de19f35247e2c32f0115ec263bdc7c49a33600460003373ffffffffffffffffffffffffffffffffffffffff1673ffffffffffffffffffffffffffffffffffffffff168152602001908152602001600020600001548360405161130793929190612793565b60405180910390a15050505050565b336000600381111561132b5761132a6119d1565b5b600460008373ffffffffffffffffffffffffffffffffffffffff1673ffffffffffffffffffffffffffffffffffffffff16815260200190815260200160002060090160009054906101000a900460ff16600381111561138d5761138c6119d1565b5b146113cd576040517f08c379a00000000000000000000000000000000000000000000000000000000081526004016113c490612816565b60405180910390fd5b876006816040516113de91906124ef565b908152602001604051809103902060009054906101000a900460ff161561143a576040517f08c379a000000000000000000000000000000000000000000000000000000000815260040161143190612882565b60405180910390fd5b600160068a60405161144c91906124ef565b908152602001604051809103902060006101000a81548160ff0219169083151502179055506001805461147f919061233c565b600181905550600060015490506040518061014001604052808281526020013373ffffffffffffffffffffffffffffffffffffffff1681526020018b81526020018a81526020018781526020018681526020018515158152602001898152602001888152602001600160038111156114fa576114f96119d1565b5b815250600460003373ffffffffffffffffffffffffffffffffffffffff1673ffffffffffffffffffffffffffffffffffffffff1681526020019081526020016000206000820151816000015560208201518160010160006101000a81548173ffffffffffffffffffffffffffffffffffffffff021916908373ffffffffffffffffffffffffffffffffffffffff16021790555060408201518160020190816115a291906126b2565b5060608201518160030190816115b891906126b2565b5060808201518160040190816115ce91906126b2565b5060a0820151816005015560c08201518160060160006101000a81548160ff02191690831515021790555060e082015181600701908161160e91906126b2565b5061010082015181600801908161162591906126b2565b506101208201518160090160006101000a81548160ff02191690836003811115611652576116516119d1565b5b02179055509050503360058b60405161166b91906124ef565b908152602001604051809103902060006101000a81548173ffffffffffffffffffffffffffffffffffffffff021916908373ffffffffffffffffffffffffffffffffffffffff1602179055507fabc58c36475157c4ac7669f9adfbb6f254d3a3578fb89676f6866ac3b9950eed33826040516116e89291906128a2565b60405180910390a150505050505050505050565b60405180610100016040528060008152602001600073ffffffffffffffffffffffffffffffffffffffff168152602001606081526020016060815260200160008152602001600081526020016000815260200160006003811115611763576117626119d1565b5b81525090565b6000604051905090565b600080fd5b600080fd5b6000819050919050565b6117908161177d565b811461179b57600080fd5b50565b6000813590506117ad81611787565b92915050565b600080604083850312156117ca576117c9611773565b5b60006117d88582860161179e565b92505060206117e98582860161179e565b9150509250929050565b600081519050919050565b600082825260208201905092915050565b6000819050602082019050919050565b6118288161177d565b82525050565b600061183a838361181f565b60208301905092915050565b6000602082019050919050565b600061185e826117f3565b61186881856117fe565b93506118738361180f565b8060005b838110156118a457815161188b888261182e565b975061189683611846565b925050600181019050611877565b5085935050505092915050565b600060208201905081810360008301526118cb8184611853565b905092915050565b6000602082840312156118e9576118e8611773565b5b60006118f78482850161179e565b91505092915050565b600073ffffffffffffffffffffffffffffffffffffffff82169050919050565b600061192b82611900565b9050919050565b61193b81611920565b82525050565b600081519050919050565b600082825260208201905092915050565b60005b8381101561197b578082015181840152602081019050611960565b60008484015250505050565b6000601f19601f8301169050919050565b60006119a382611941565b6119ad818561194c565b93506119bd81856020860161195d565b6119c681611987565b840191505092915050565b7f4e487b7100000000000000000000000000000000000000000000000000000000600052602160045260246000fd5b60048110611a1157611a106119d1565b5b50565b6000819050611a2282611a00565b919050565b6000611a3282611a14565b9050919050565b611a4281611a27565b82525050565b600061010083016000830151611a61600086018261181f565b506020830151611a746020860182611932565b5060408301518482036040860152611a8c8282611998565b91505060608301518482036060860152611aa68282611998565b9150506080830151611abb608086018261181f565b5060a0830151611ace60a086018261181f565b5060c0830151611ae160c086018261181f565b5060e0830151611af460e0860182611a39565b508091505092915050565b60006020820190508181036000830152611b198184611a48565b905092915050565b611b2a81611920565b8114611b3557600080fd5b50565b600081359050611b4781611b21565b92915050565b600060208284031215611b6357611b62611773565b5b6000611b7184828501611b38565b91505092915050565b611b838161177d565b82525050565b600082825260208201905092915050565b6000611ba582611941565b611baf8185611b89565b9350611bbf81856020860161195d565b611bc881611987565b840191505092915050565b60008115159050919050565b611be881611bd3565b82525050565b600061010082019050611c04600083018b611b7a565b8181036020830152611c16818a611b9a565b90508181036040830152611c2a8189611b9a565b90508181036060830152611c3e8188611b9a565b9050611c4d6080830187611b7a565b611c5a60a0830186611bdf565b81810360c0830152611c6c8185611b9a565b905081810360e0830152611c808184611b9a565b90509998505050505050505050565b6000611c9a82611900565b9050919050565b611caa81611c8f565b82525050565b6000602082019050611cc56000830184611ca1565b92915050565b6000602082019050611ce06000830184611b7a565b92915050565b600081519050919050565b600082825260208201905092915050565b6000819050602082019050919050565b600061010083016000830151611d2b600086018261181f565b506020830151611d3e6020860182611932565b5060408301518482036040860152611d568282611998565b91505060608301518482036060860152611d708282611998565b9150506080830151611d85608086018261181f565b5060a0830151611d9860a086018261181f565b5060c0830151611dab60c086018261181f565b5060e0830151611dbe60e0860182611a39565b508091505092915050565b6000611dd58383611d12565b905092915050565b6000602082019050919050565b6000611df582611ce6565b611dff8185611cf1565b935083602082028501611e1185611d02565b8060005b85811015611e4d5784840389528151611e2e8582611dc9565b9450611e3983611ddd565b925060208a01995050600181019050611e15565b50829750879550505050505092915050565b60006020820190508181036000830152611e798184611dea565b905092915050565b600080fd5b600080fd5b7f4e487b7100000000000000000000000000000000000000000000000000000000600052604160045260246000fd5b611ec382611987565b810181811067ffffffffffffffff82111715611ee257611ee1611e8b565b5b80604052505050565b6000611ef5611769565b9050611f018282611eba565b919050565b600067ffffffffffffffff821115611f2157611f20611e8b565b5b611f2a82611987565b9050602081019050919050565b82818337600083830152505050565b6000611f59611f5484611f06565b611eeb565b905082815260208101848484011115611f7557611f74611e86565b5b611f80848285611f37565b509392505050565b600082601f830112611f9d57611f9c611e81565b5b8135611fad848260208601611f46565b91505092915050565b600060208284031215611fcc57611fcb611773565b5b600082013567ffffffffffffffff811115611fea57611fe9611778565b5b611ff684828501611f88565b91505092915050565b60006020820190506120146000830184611bdf565b92915050565b61202381611c8f565b811461202e57600080fd5b50565b6000813590506120408161201a565b92915050565b60008060006060848603121561205f5761205e611773565b5b600061206d86828701612031565b935050602084013567ffffffffffffffff81111561208e5761208d611778565b5b61209a86828701611f88565b925050604084013567ffffffffffffffff8111156120bb576120ba611778565b5b6120c786828701611f88565b9150509250925092565b6120da81611bd3565b81146120e557600080fd5b50565b6000813590506120f7816120d1565b92915050565b600080600080600080600060e0888a03121561211c5761211b611773565b5b600088013567ffffffffffffffff81111561213a57612139611778565b5b6121468a828b01611f88565b975050602088013567ffffffffffffffff81111561216757612166611778565b5b6121738a828b01611f88565b965050604088013567ffffffffffffffff81111561219457612193611778565b5b6121a08a828b01611f88565b955050606088013567ffffffffffffffff8111156121c1576121c0611778565b5b6121cd8a828b01611f88565b945050608088013567ffffffffffffffff8111156121ee576121ed611778565b5b6121fa8a828b01611f88565b93505060a061220b8a828b0161179e565b92505060c061221c8a828b016120e8565b91505092959891949750929550565b7f4e6f742061205265676973746572656420557365722100000000000000000000600082015250565b6000612261601683611b89565b915061226c8261222b565b602082019050919050565b6000602082019050818103600083015261229081612254565b9050919050565b7f4e487b7100000000000000000000000000000000000000000000000000000000600052601160045260246000fd5b60006122d18261177d565b91506122dc8361177d565b92508282039050818111156122f4576122f3612297565b5b92915050565b60006123058261177d565b91506123108361177d565b925082820261231e8161177d565b9150828204841483151761233557612334612297565b5b5092915050565b60006123478261177d565b91506123528361177d565b925082820190508082111561236a57612369612297565b5b92915050565b7f4e487b7100000000000000000000000000000000000000000000000000000000600052603260045260246000fd5b60006123aa8261177d565b91507fffffffffffffffffffffffffffffffffffffffffffffffffffffffffffffffff82036123dc576123db612297565b5b600182019050919050565b7f4e6f7420616e2061637469766520706f73740000000000000000000000000000600082015250565b600061241d601283611b89565b9150612428826123e7565b602082019050919050565b6000602082019050818103600083015261244c81612410565b9050919050565b7f4e487b7100000000000000000000000000000000000000000000000000000000600052602260045260246000fd5b6000600282049050600182168061249a57607f821691505b6020821081036124ad576124ac612453565b5b50919050565b600081905092915050565b60006124c982611941565b6124d381856124b3565b93506124e381856020860161195d565b80840191505092915050565b60006124fb82846124be565b915081905092915050565b60008190508160005260206000209050919050565b60006020601f8301049050919050565b600082821b905092915050565b6000600883026125687fffffffffffffffffffffffffffffffffffffffffffffffffffffffffffffffff8261252b565b612572868361252b565b95508019841693508086168417925050509392505050565b6000819050919050565b60006125af6125aa6125a58461177d565b61258a565b61177d565b9050919050565b6000819050919050565b6125c983612594565b6125dd6125d5826125b6565b848454612538565b825550505050565b600090565b6125f26125e5565b6125fd8184846125c0565b505050565b5b81811015612621576126166000826125ea565b600181019050612603565b5050565b601f8211156126665761263781612506565b6126408461251b565b8101602085101561264f578190505b61266361265b8561251b565b830182612602565b50505b505050565b600082821c905092915050565b60006126896000198460080261266b565b1980831691505092915050565b60006126a28383612678565b9150826002028217905092915050565b6126bb82611941565b67ffffffffffffffff8111156126d4576126d3611e8b565b5b6126de8254612482565b6126e9828285612625565b600060209050601f83116001811461271c576000841561270a578287015190505b6127148582612696565b86555061277c565b601f19841661272a86612506565b60005b828110156127525784890151825560018201915060208501945060208101905061272d565b8683101561276f578489015161276b601f891682612678565b8355505b6001600288020188555050505b505050505050565b61278d81611920565b82525050565b60006060820190506127a86000830186612784565b6127b56020830185611b7a565b6127c26040830184611b7a565b949350505050565b7f5573657220616c72656164792072656769737465726564000000000000000000600082015250565b6000612800601783611b89565b915061280b826127ca565b602082019050919050565b6000602082019050818103600083015261282f816127f3565b9050919050565b7f557365726e616d6520616c72656164792074616b656e00000000000000000000600082015250565b600061286c601683611b89565b915061287782612836565b602082019050919050565b6000602082019050818103600083015261289b8161285f565b9050919050565b60006040820190506128b76000830185612784565b6128c46020830184611b7a565b939250505056fea26469706673582212203c71ba83c89d56a8a4bbafe707fd32af162a01578c844a8d6d60bc0a8b8e99b364736f6c63430008120033",
  "linkReferences": {},
  "deployedLinkReferences": {}
}