{
  "_format": "hh-sol-artifact-1",
  "contractName": "SocialChain",
  "sourceName": "contracts/SocialChain.sol",
  "abi": [
    {
      "inputs": [],
      "stateMutability": "nonpayable",
      "type": "constructor"
    },
    {
      "anonymous": false,
      "inputs": [
        {
          "indexed": false,
          "internalType": "address",
          "name": "_author",
          "type": "address"
        },
        {
          "indexed": false,
          "internalType": "uint256",
          "name": "_commentId",
          "type": "uint256"
        },
        {
          "indexed": false,
          "internalType": "uint256",
          "name": "_postId",
          "type": "uint256"
        },
        {
          "indexed": false,
          "internalType": "uint256",
          "name": "_likeCount",
          "type": "uint256"
        },
        {
          "indexed": false,
          "internalType": "uint256",
          "name": "_reportCount",
          "type": "uint256"
        },
        {
          "indexed": false,
          "internalType": "uint256",
          "name": "_timeStamp",
          "type": "uint256"
        },
        {
          "indexed": false,
          "internalType": "string",
          "name": "_content",
          "type": "string"
        }
      ],
      "name": "logCommentCreated",
      "type": "event"
    },
    {
      "anonymous": false,
      "inputs": [
        {
          "indexed": false,
          "internalType": "address",
          "name": "_author",
          "type": "address"
        },
        {
          "indexed": false,
          "internalType": "uint256",
          "name": "_userId",
          "type": "uint256"
        },
        {
          "indexed": false,
          "internalType": "uint256",
          "name": "_postId",
          "type": "uint256"
        }
      ],
      "name": "logPostCreated",
      "type": "event"
    },
    {
      "anonymous": false,
      "inputs": [
        {
          "indexed": false,
          "internalType": "address",
          "name": "userAddress",
          "type": "address"
        },
        {
          "indexed": false,
          "internalType": "uint256",
          "name": "userId",
          "type": "uint256"
        }
      ],
      "name": "logRegisterUser",
      "type": "event"
    },
    {
      "inputs": [
        {
          "internalType": "uint256",
          "name": "_postId",
          "type": "uint256"
        },
        {
          "internalType": "string",
          "name": "_comment",
          "type": "string"
        }
      ],
      "name": "createComment",
      "outputs": [],
      "stateMutability": "nonpayable",
      "type": "function"
    },
    {
      "inputs": [
        {
          "internalType": "string",
          "name": "_postdescription",
          "type": "string"
        },
        {
          "internalType": "string",
          "name": "_imghash",
          "type": "string"
        }
      ],
      "name": "createPost",
      "outputs": [],
      "stateMutability": "nonpayable",
      "type": "function"
    },
    {
      "inputs": [
        {
          "internalType": "uint256",
          "name": "_commentId",
          "type": "uint256"
        }
      ],
      "name": "getCommentById",
      "outputs": [
        {
          "components": [
            {
              "internalType": "uint256",
              "name": "commentId",
              "type": "uint256"
            },
            {
              "internalType": "address",
              "name": "author",
              "type": "address"
            },
            {
              "internalType": "uint256",
              "name": "postId",
              "type": "uint256"
            },
            {
              "internalType": "string",
              "name": "content",
              "type": "string"
            },
            {
              "internalType": "uint256",
              "name": "likeCount",
              "type": "uint256"
            },
            {
              "internalType": "uint256",
              "name": "reportCount",
              "type": "uint256"
            },
            {
              "internalType": "uint256",
              "name": "timeStamp",
              "type": "uint256"
            },
            {
              "internalType": "enum SocialChain.commentStatus",
              "name": "status",
              "type": "uint8"
            }
          ],
          "internalType": "struct SocialChain.Comment",
          "name": "",
          "type": "tuple"
        }
      ],
      "stateMutability": "view",
      "type": "function"
    },
    {
      "inputs": [
        {
          "internalType": "uint256",
          "name": "_postId",
          "type": "uint256"
        }
      ],
      "name": "getPostById",
      "outputs": [
        {
          "components": [
            {
              "internalType": "uint256",
              "name": "postId",
              "type": "uint256"
            },
            {
              "internalType": "address",
              "name": "author",
              "type": "address"
            },
            {
              "internalType": "string",
              "name": "postDescription",
              "type": "string"
            },
            {
              "internalType": "string",
              "name": "imgHash",
              "type": "string"
            },
            {
              "internalType": "uint256",
              "name": "timeStamp",
              "type": "uint256"
            },
            {
              "internalType": "uint256",
              "name": "likeCount",
              "type": "uint256"
            },
            {
              "internalType": "uint256",
              "name": "reportCount",
              "type": "uint256"
            },
            {
              "internalType": "enum SocialChain.postStatus",
              "name": "status",
              "type": "uint8"
            }
          ],
          "internalType": "struct SocialChain.Post",
          "name": "",
          "type": "tuple"
        }
      ],
      "stateMutability": "view",
      "type": "function"
    },
    {
      "inputs": [
        {
          "internalType": "uint256",
          "name": "_listNumber",
          "type": "uint256"
        },
        {
          "internalType": "uint256",
          "name": "_commentPerList",
          "type": "uint256"
        },
        {
          "internalType": "uint256",
          "name": "_postId",
          "type": "uint256"
        }
      ],
      "name": "getPostComments",
      "outputs": [
        {
          "components": [
            {
              "internalType": "uint256",
              "name": "commentId",
              "type": "uint256"
            },
            {
              "internalType": "address",
              "name": "author",
              "type": "address"
            },
            {
              "internalType": "uint256",
              "name": "postId",
              "type": "uint256"
            },
            {
              "internalType": "string",
              "name": "content",
              "type": "string"
            },
            {
              "internalType": "uint256",
              "name": "likeCount",
              "type": "uint256"
            },
            {
              "internalType": "uint256",
              "name": "reportCount",
              "type": "uint256"
            },
            {
              "internalType": "uint256",
              "name": "timeStamp",
              "type": "uint256"
            },
            {
              "internalType": "enum SocialChain.commentStatus",
              "name": "status",
              "type": "uint8"
            }
          ],
          "internalType": "struct SocialChain.Comment[]",
          "name": "",
          "type": "tuple[]"
        }
      ],
      "stateMutability": "view",
      "type": "function"
    },
    {
      "inputs": [
        {
          "internalType": "uint256",
          "name": "_page",
          "type": "uint256"
        },
        {
          "internalType": "uint256",
          "name": "_perPage",
          "type": "uint256"
        }
      ],
      "name": "getPostIds",
      "outputs": [
        {
          "internalType": "uint256[]",
          "name": "",
          "type": "uint256[]"
        }
      ],
      "stateMutability": "view",
      "type": "function"
    },
    {
      "inputs": [
        {
          "internalType": "address",
          "name": "accountAddress",
          "type": "address"
        }
      ],
      "name": "getUser",
      "outputs": [
        {
          "internalType": "uint256",
          "name": "id",
          "type": "uint256"
        },
        {
          "internalType": "string",
          "name": "userName",
          "type": "string"
        },
        {
          "internalType": "string",
          "name": "name",
          "type": "string"
        },
        {
          "internalType": "string",
          "name": "bio",
          "type": "string"
        },
        {
          "internalType": "uint256",
          "name": "birthDate",
          "type": "uint256"
        },
        {
          "internalType": "bool",
          "name": "showUsername",
          "type": "bool"
        },
        {
          "internalType": "string",
          "name": "imageHash",
          "type": "string"
        },
        {
          "internalType": "string",
          "name": "coverHash",
          "type": "string"
        }
      ],
      "stateMutability": "view",
      "type": "function"
    },
    {
      "inputs": [],
      "name": "getUserPosts",
      "outputs": [
        {
          "components": [
            {
              "internalType": "uint256",
              "name": "postId",
              "type": "uint256"
            },
            {
              "internalType": "address",
              "name": "author",
              "type": "address"
            },
            {
              "internalType": "string",
              "name": "postDescription",
              "type": "string"
            },
            {
              "internalType": "string",
              "name": "imgHash",
              "type": "string"
            },
            {
              "internalType": "uint256",
              "name": "timeStamp",
              "type": "uint256"
            },
            {
              "internalType": "uint256",
              "name": "likeCount",
              "type": "uint256"
            },
            {
              "internalType": "uint256",
              "name": "reportCount",
              "type": "uint256"
            },
            {
              "internalType": "enum SocialChain.postStatus",
              "name": "status",
              "type": "uint8"
            }
          ],
          "internalType": "struct SocialChain.Post[]",
          "name": "",
          "type": "tuple[]"
        }
      ],
      "stateMutability": "view",
      "type": "function"
    },
    {
      "inputs": [
        {
          "internalType": "uint256",
          "name": "_postId",
          "type": "uint256"
        },
        {
          "internalType": "address",
          "name": "_userAddress",
          "type": "address"
        }
      ],
      "name": "isLikedByAddress",
      "outputs": [
        {
          "internalType": "bool",
          "name": "",
          "type": "bool"
        }
      ],
      "stateMutability": "view",
      "type": "function"
    },
    {
      "inputs": [
        {
          "internalType": "uint256",
          "name": "_postId",
          "type": "uint256"
        }
      ],
      "name": "likePost",
      "outputs": [],
      "stateMutability": "nonpayable",
      "type": "function"
    },
    {
      "inputs": [],
      "name": "owner",
      "outputs": [
        {
          "internalType": "address payable",
          "name": "",
          "type": "address"
        }
      ],
      "stateMutability": "view",
      "type": "function"
    },
    {
      "inputs": [
        {
          "internalType": "string",
          "name": "_username",
          "type": "string"
        },
        {
          "internalType": "string",
          "name": "_name",
          "type": "string"
        },
        {
          "internalType": "string",
          "name": "_imgHash",
          "type": "string"
        },
        {
          "internalType": "string",
          "name": "_coverHash",
          "type": "string"
        },
        {
          "internalType": "string",
          "name": "_bio",
          "type": "string"
        },
        {
          "internalType": "uint256",
          "name": "birthDate",
          "type": "uint256"
        },
        {
          "internalType": "bool",
          "name": "showUserName",
          "type": "bool"
        }
      ],
      "name": "registerUser",
      "outputs": [],
      "stateMutability": "nonpayable",
      "type": "function"
    },
    {
      "inputs": [],
      "name": "totalComments",
      "outputs": [
        {
          "internalType": "uint256",
          "name": "",
          "type": "uint256"
        }
      ],
      "stateMutability": "view",
      "type": "function"
    },
    {
      "inputs": [],
      "name": "totalPosts",
      "outputs": [
        {
          "internalType": "uint256",
          "name": "",
          "type": "uint256"
        }
      ],
      "stateMutability": "view",
      "type": "function"
    },
    {
      "inputs": [],
      "name": "totalUsers",
      "outputs": [
        {
          "internalType": "uint256",
          "name": "",
          "type": "uint256"
        }
      ],
      "stateMutability": "view",
      "type": "function"
    },
    {
      "inputs": [
        {
          "internalType": "uint256",
          "name": "_postId",
          "type": "uint256"
        }
      ],
      "name": "unLikePost",
      "outputs": [],
      "stateMutability": "nonpayable",
      "type": "function"
    },
    {
      "inputs": [
        {
          "internalType": "string",
          "name": "_username",
          "type": "string"
        }
      ],
      "name": "userNameAvailable",
      "outputs": [
        {
          "internalType": "bool",
          "name": "status",
          "type": "bool"
        }
      ],
      "stateMutability": "view",
      "type": "function"
    }
  ],
  "bytecode": "0x60806040526000600155600060025560006003553480156200002057600080fd5b50336000806101000a81548173ffffffffffffffffffffffffffffffffffffffff021916908373ffffffffffffffffffffffffffffffffffffffff160217905550620001366040518060400160405280600581526020017f6f776e65720000000000000000000000000000000000000000000000000000008152506040518060400160405280600581526020017f6f776e657200000000000000000000000000000000000000000000000000000081525060405180602001604052806000815250604051806020016040528060008152506040518060400160405280600581526020017f6f776e65720000000000000000000000000000000000000000000000000000008152506001806200013c60201b60201c565b62000b41565b336000600381111562000154576200015362000548565b5b600560008373ffffffffffffffffffffffffffffffffffffffff1673ffffffffffffffffffffffffffffffffffffffff16815260200190815260200160002060090160009054906101000a900460ff166003811115620001b957620001b862000548565b5b14620001fc576040517f08c379a0000000000000000000000000000000000000000000000000000000008152600401620001f390620005d8565b60405180910390fd5b876007816040516200020f919062000673565b908152602001604051809103902060009054906101000a900460ff16156200026e576040517f08c379a00000000000000000000000000000000000000000000000000000000081526004016200026590620006dc565b60405180910390fd5b600160078a60405162000282919062000673565b908152602001604051809103902060006101000a81548160ff02191690831515021790555060018054620002b7919062000737565b600181905550600060015490506040518061014001604052808281526020013373ffffffffffffffffffffffffffffffffffffffff1681526020018b81526020018a815260200187815260200186815260200185151581526020018981526020018881526020016001600381111562000335576200033462000548565b5b815250600560003373ffffffffffffffffffffffffffffffffffffffff1673ffffffffffffffffffffffffffffffffffffffff1681526020019081526020016000206000820151816000015560208201518160010160006101000a81548173ffffffffffffffffffffffffffffffffffffffff021916908373ffffffffffffffffffffffffffffffffffffffff1602179055506040820151816002019081620003df9190620009d7565b506060820151816003019081620003f79190620009d7565b5060808201518160040190816200040f9190620009d7565b5060a0820151816005015560c08201518160060160006101000a81548160ff02191690831515021790555060e0820151816007019081620004519190620009d7565b506101008201518160080190816200046a9190620009d7565b506101208201518160090160006101000a81548160ff021916908360038111156200049a576200049962000548565b5b02179055509050503360068b604051620004b5919062000673565b908152602001604051809103902060006101000a81548173ffffffffffffffffffffffffffffffffffffffff021916908373ffffffffffffffffffffffffffffffffffffffff1602179055507fabc58c36475157c4ac7669f9adfbb6f254d3a3578fb89676f6866ac3b9950eed33826040516200053492919062000b14565b60405180910390a150505050505050505050565b7f4e487b7100000000000000000000000000000000000000000000000000000000600052602160045260246000fd5b600082825260208201905092915050565b7f5573657220616c72656164792072656769737465726564000000000000000000600082015250565b6000620005c060178362000577565b9150620005cd8262000588565b602082019050919050565b60006020820190508181036000830152620005f381620005b1565b9050919050565b600081519050919050565b600081905092915050565b60005b838110156200063057808201518184015260208101905062000613565b60008484015250505050565b60006200064982620005fa565b62000655818562000605565b93506200066781856020860162000610565b80840191505092915050565b60006200068182846200063c565b915081905092915050565b7f557365726e616d6520616c72656164792074616b656e00000000000000000000600082015250565b6000620006c460168362000577565b9150620006d1826200068c565b602082019050919050565b60006020820190508181036000830152620006f781620006b5565b9050919050565b6000819050919050565b7f4e487b7100000000000000000000000000000000000000000000000000000000600052601160045260246000fd5b60006200074482620006fe565b91506200075183620006fe565b92508282019050808211156200076c576200076b62000708565b5b92915050565b7f4e487b7100000000000000000000000000000000000000000000000000000000600052604160045260246000fd5b7f4e487b7100000000000000000000000000000000000000000000000000000000600052602260045260246000fd5b60006002820490506001821680620007e957607f821691505b602082108103620007ff57620007fe620007a1565b5b50919050565b60008190508160005260206000209050919050565b60006020601f8301049050919050565b600082821b905092915050565b600060088302620008697fffffffffffffffffffffffffffffffffffffffffffffffffffffffffffffffff826200082a565b6200087586836200082a565b95508019841693508086168417925050509392505050565b6000819050919050565b6000620008b8620008b2620008ac84620006fe565b6200088d565b620006fe565b9050919050565b6000819050919050565b620008d48362000897565b620008ec620008e382620008bf565b84845462000837565b825550505050565b600090565b62000903620008f4565b62000910818484620008c9565b505050565b5b8181101562000938576200092c600082620008f9565b60018101905062000916565b5050565b601f8211156200098757620009518162000805565b6200095c846200081a565b810160208510156200096c578190505b620009846200097b856200081a565b83018262000915565b50505b505050565b600082821c905092915050565b6000620009ac600019846008026200098c565b1980831691505092915050565b6000620009c7838362000999565b9150826002028217905092915050565b620009e282620005fa565b67ffffffffffffffff811115620009fe57620009fd62000772565b5b62000a0a8254620007d0565b62000a178282856200093c565b600060209050601f83116001811462000a4f576000841562000a3a578287015190505b62000a468582620009b9565b86555062000ab6565b601f19841662000a5f8662000805565b60005b8281101562000a895784890151825560018201915060208501945060208101905062000a62565b8683101562000aa9578489015162000aa5601f89168262000999565b8355505b6001600288020188555050505b505050505050565b600073ffffffffffffffffffffffffffffffffffffffff82169050919050565b600062000aeb8262000abe565b9050919050565b62000afd8162000ade565b82525050565b62000b0e81620006fe565b82525050565b600060408201905062000b2b600083018562000af2565b62000b3a602083018462000b03565b9392505050565b6140458062000b516000396000f3fe608060405234801561001057600080fd5b506004361061010b5760003560e01c8063725009d3116100a2578063b90c207311610071578063b90c2073146102d1578063bebce30014610301578063bff1f9e114610331578063cc4ef2cc1461034f578063f82217c11461036d5761010b565b8063725009d314610249578063875003aa146102655780638da5cb5b146102955780638e53fb41146102b35761010b565b806361936b81116100de57806361936b811461019457806364e95895146101b25780636c43dbb4146101e25780636f77926b146102125761010b565b80632f4992ef14610110578063392338f51461012c57806340a179851461014857806349e0350214610164575b600080fd5b61012a60048036038101906101259190612a10565b610389565b005b61014660048036038101906101419190612b83565b6105dd565b005b610162600480360381019061015d9190612bfb565b610908565b005b61017e60048036038101906101799190612c57565b610c6f565b60405161018b9190612d55565b60405180910390f35b61019c610e3a565b6040516101a99190612d86565b60405180910390f35b6101cc60048036038101906101c79190612a10565b610e40565b6040516101d99190612f8f565b60405180910390f35b6101fc60048036038101906101f79190612a10565b61118f565b60405161020991906130a9565b60405180910390f35b61022c600480360381019061022791906130f7565b611456565b604051610240989796959493929190613189565b60405180910390f35b610263600480360381019061025e9190612a10565b611891565b005b61027f600480360381019061027a919061322a565b611ae6565b60405161028c919061326a565b60405180910390f35b61029d611c92565b6040516102aa91906132a6565b60405180910390f35b6102bb611cb6565b6040516102c89190612d86565b60405180910390f35b6102eb60048036038101906102e691906132c1565b611cbc565b6040516102f8919061326a565b60405180910390f35b61031b6004803603810190610316919061330a565b611cf2565b60405161032891906134cf565b60405180910390f35b6103396120ff565b6040516103469190612d86565b60405180910390f35b610357612105565b604051610364919061366a565b60405180910390f35b610387600480360381019061038291906136b8565b612506565b005b336001600381111561039e5761039d612e61565b5b600560008373ffffffffffffffffffffffffffffffffffffffff1673ffffffffffffffffffffffffffffffffffffffff16815260200190815260200160002060090160009054906101000a900460ff166003811115610400576103ff612e61565b5b14610440576040517f08c379a000000000000000000000000000000000000000000000000000000000815260040161043790613832565b60405180910390fd5b816001600381111561045557610454612e61565b5b6008600083815260200190815260200160002060070160009054906101000a900460ff16600381111561048b5761048a612e61565b5b146104cb576040517f08c379a00000000000000000000000000000000000000000000000000000000081526004016104c29061389e565b60405180910390fd5b600a600084815260200190815260200160002060003373ffffffffffffffffffffffffffffffffffffffff1673ffffffffffffffffffffffffffffffffffffffff16815260200190815260200160002060009054906101000a900460ff1661053257600080fd5b6001600860008581526020019081526020016000206005015461055591906138ed565b60086000858152602001908152602001600020600501819055506000600a600085815260200190815260200160002060003373ffffffffffffffffffffffffffffffffffffffff1673ffffffffffffffffffffffffffffffffffffffff16815260200190815260200160002060006101000a81548160ff021916908315150217905550505050565b33600160038111156105f2576105f1612e61565b5b600560008373ffffffffffffffffffffffffffffffffffffffff1673ffffffffffffffffffffffffffffffffffffffff16815260200190815260200160002060090160009054906101000a900460ff16600381111561065457610653612e61565b5b14610694576040517f08c379a000000000000000000000000000000000000000000000000000000000815260040161068b90613832565b60405180910390fd5b60016002546106a39190613921565b600281905550600060025490506040518061010001604052808281526020013373ffffffffffffffffffffffffffffffffffffffff16815260200185815260200184815260200142815260200160008152602001600081526020016001600381111561071257610711612e61565b5b815250600860008381526020019081526020016000206000820151816000015560208201518160010160006101000a81548173ffffffffffffffffffffffffffffffffffffffff021916908373ffffffffffffffffffffffffffffffffffffffff160217905550604082015181600201908161078e9190613b61565b5060608201518160030190816107a49190613b61565b506080820151816004015560a0820151816005015560c0820151816006015560e08201518160070160006101000a81548160ff021916908360038111156107ee576107ed612e61565b5b0217905550905050600960003373ffffffffffffffffffffffffffffffffffffffff1673ffffffffffffffffffffffffffffffffffffffff16815260200190815260200160002081908060018154018082558091505060019003906000526020600020016000909190919091505560048190806001815401808255809150506001900390600052602060002001600090919091909150557fe78603dea3231b9ac9a73b3663b6e28de19f35247e2c32f0115ec263bdc7c49a33600560003373ffffffffffffffffffffffffffffffffffffffff1673ffffffffffffffffffffffffffffffffffffffff16815260200190815260200160002060000154836040516108fa93929190613c42565b60405180910390a150505050565b336001600381111561091d5761091c612e61565b5b600560008373ffffffffffffffffffffffffffffffffffffffff1673ffffffffffffffffffffffffffffffffffffffff16815260200190815260200160002060090160009054906101000a900460ff16600381111561097f5761097e612e61565b5b146109bf576040517f08c379a00000000000000000000000000000000000000000000000000000000081526004016109b690613832565b60405180910390fd5b82600160038111156109d4576109d3612e61565b5b6008600083815260200190815260200160002060070160009054906101000a900460ff166003811115610a0a57610a09612e61565b5b14610a4a576040517f08c379a0000000000000000000000000000000000000000000000000000000008152600401610a419061389e565b60405180910390fd5b60008390506000815103610a93576040517f08c379a0000000000000000000000000000000000000000000000000000000008152600401610a8a90613cc5565b60405180910390fd5b6001600354610aa29190613921565b600381905550600060035490506040518061010001604052808281526020013373ffffffffffffffffffffffffffffffffffffffff168152602001878152602001868152602001600081526020016000815260200142815260200160016003811115610b1157610b10612e61565b5b815250600b60008381526020019081526020016000206000820151816000015560208201518160010160006101000a81548173ffffffffffffffffffffffffffffffffffffffff021916908373ffffffffffffffffffffffffffffffffffffffff160217905550604082015181600201556060820151816003019081610b979190613b61565b506080820151816004015560a0820151816005015560c0820151816006015560e08201518160070160006101000a81548160ff02191690836003811115610be157610be0612e61565b5b0217905550905050600d60008781526020019081526020016000208190806001815401808255809150506001900390600052602060002001600090919091909150557f50621ca627228f52152f460ce13adf4d014aeb126e3faa26d112c10b0bb43a13338288600080428b604051610c5f9796959493929190613d20565b60405180910390a1505050505050565b60603360016003811115610c8657610c85612e61565b5b600560008373ffffffffffffffffffffffffffffffffffffffff1673ffffffffffffffffffffffffffffffffffffffff16815260200190815260200160002060090160009054906101000a900460ff166003811115610ce857610ce7612e61565b5b14610d28576040517f08c379a0000000000000000000000000000000000000000000000000000000008152600401610d1f90613832565b60405180910390fd5b600083600186610d3891906138ed565b610d429190613d96565b905060008482610d529190613921565b9050600480549050811115610d6a5760048054905090505b60008282610d7891906138ed565b67ffffffffffffffff811115610d9157610d90612a58565b5b604051908082528060200260200182016040528015610dbf5781602001602082028036833780820191505090505b50905060008390505b82811015610e2c5760048181548110610de457610de3613dd8565b5b9060005260206000200154828583610dfc91906138ed565b81518110610e0d57610e0c613dd8565b5b6020026020010181815250508080610e2490613e07565b915050610dc8565b508094505050505092915050565b60035481565b610e486128ec565b3360016003811115610e5d57610e5c612e61565b5b600560008373ffffffffffffffffffffffffffffffffffffffff1673ffffffffffffffffffffffffffffffffffffffff16815260200190815260200160002060090160009054906101000a900460ff166003811115610ebf57610ebe612e61565b5b14610eff576040517f08c379a0000000000000000000000000000000000000000000000000000000008152600401610ef690613832565b60405180910390fd5b8260016003811115610f1457610f13612e61565b5b6008600083815260200190815260200160002060070160009054906101000a900460ff166003811115610f4a57610f49612e61565b5b14610f8a576040517f08c379a0000000000000000000000000000000000000000000000000000000008152600401610f819061389e565b60405180910390fd5b6008600085815260200190815260200160002060405180610100016040529081600082015481526020016001820160009054906101000a900473ffffffffffffffffffffffffffffffffffffffff1673ffffffffffffffffffffffffffffffffffffffff1673ffffffffffffffffffffffffffffffffffffffff16815260200160028201805461101990613984565b80601f016020809104026020016040519081016040528092919081815260200182805461104590613984565b80156110925780601f1061106757610100808354040283529160200191611092565b820191906000526020600020905b81548152906001019060200180831161107557829003601f168201915b505050505081526020016003820180546110ab90613984565b80601f01602080910402602001604051908101604052809291908181526020018280546110d790613984565b80156111245780601f106110f957610100808354040283529160200191611124565b820191906000526020600020905b81548152906001019060200180831161110757829003601f168201915b505050505081526020016004820154815260200160058201548152602001600682015481526020016007820160009054906101000a900460ff1660038111156111705761116f612e61565b5b600381111561118257611181612e61565b5b8152505092505050919050565b611197612959565b33600160038111156111ac576111ab612e61565b5b600560008373ffffffffffffffffffffffffffffffffffffffff1673ffffffffffffffffffffffffffffffffffffffff16815260200190815260200160002060090160009054906101000a900460ff16600381111561120e5761120d612e61565b5b1461124e576040517f08c379a000000000000000000000000000000000000000000000000000000000815260040161124590613832565b60405180910390fd5b826001600381111561126357611262612e61565b5b600b600083815260200190815260200160002060070160009054906101000a900460ff16600381111561129957611298612e61565b5b146112d9576040517f08c379a00000000000000000000000000000000000000000000000000000000081526004016112d090613e9b565b60405180910390fd5b600b600085815260200190815260200160002060405180610100016040529081600082015481526020016001820160009054906101000a900473ffffffffffffffffffffffffffffffffffffffff1673ffffffffffffffffffffffffffffffffffffffff1673ffffffffffffffffffffffffffffffffffffffff1681526020016002820154815260200160038201805461137290613984565b80601f016020809104026020016040519081016040528092919081815260200182805461139e90613984565b80156113eb5780601f106113c0576101008083540402835291602001916113eb565b820191906000526020600020905b8154815290600101906020018083116113ce57829003601f168201915b505050505081526020016004820154815260200160058201548152602001600682015481526020016007820160009054906101000a900460ff16600381111561143757611436612e61565b5b600381111561144957611448612e61565b5b8152505092505050919050565b600060608060606000806060806000600560008b73ffffffffffffffffffffffffffffffffffffffff1673ffffffffffffffffffffffffffffffffffffffff16815260200190815260200160002060405180610140016040529081600082015481526020016001820160009054906101000a900473ffffffffffffffffffffffffffffffffffffffff1673ffffffffffffffffffffffffffffffffffffffff1673ffffffffffffffffffffffffffffffffffffffff16815260200160028201805461152090613984565b80601f016020809104026020016040519081016040528092919081815260200182805461154c90613984565b80156115995780601f1061156e57610100808354040283529160200191611599565b820191906000526020600020905b81548152906001019060200180831161157c57829003601f168201915b505050505081526020016003820180546115b290613984565b80601f01602080910402602001604051908101604052809291908181526020018280546115de90613984565b801561162b5780601f106116005761010080835404028352916020019161162b565b820191906000526020600020905b81548152906001019060200180831161160e57829003601f168201915b5050505050815260200160048201805461164490613984565b80601f016020809104026020016040519081016040528092919081815260200182805461167090613984565b80156116bd5780601f10611692576101008083540402835291602001916116bd565b820191906000526020600020905b8154815290600101906020018083116116a057829003601f168201915b50505050508152602001600582015481526020016006820160009054906101000a900460ff161515151581526020016007820180546116fb90613984565b80601f016020809104026020016040519081016040528092919081815260200182805461172790613984565b80156117745780601f1061174957610100808354040283529160200191611774565b820191906000526020600020905b81548152906001019060200180831161175757829003601f168201915b5050505050815260200160088201805461178d90613984565b80601f01602080910402602001604051908101604052809291908181526020018280546117b990613984565b80156118065780601f106117db57610100808354040283529160200191611806565b820191906000526020600020905b8154815290600101906020018083116117e957829003601f168201915b505050505081526020016009820160009054906101000a900460ff16600381111561183457611833612e61565b5b600381111561184657611845612e61565b5b81525050905080600001518160400151826060015183608001518460a001518560c001518660e001518761010001519850985098509850985098509850985050919395975091939597565b33600160038111156118a6576118a5612e61565b5b600560008373ffffffffffffffffffffffffffffffffffffffff1673ffffffffffffffffffffffffffffffffffffffff16815260200190815260200160002060090160009054906101000a900460ff16600381111561190857611907612e61565b5b14611948576040517f08c379a000000000000000000000000000000000000000000000000000000000815260040161193f90613832565b60405180910390fd5b816001600381111561195d5761195c612e61565b5b6008600083815260200190815260200160002060070160009054906101000a900460ff16600381111561199357611992612e61565b5b146119d3576040517f08c379a00000000000000000000000000000000000000000000000000000000081526004016119ca9061389e565b60405180910390fd5b600a600084815260200190815260200160002060003373ffffffffffffffffffffffffffffffffffffffff1673ffffffffffffffffffffffffffffffffffffffff16815260200190815260200160002060009054906101000a900460ff1615611a3b57600080fd5b60016008600085815260200190815260200160002060050154611a5e9190613921565b60086000858152602001908152602001600020600501819055506001600a600085815260200190815260200160002060003373ffffffffffffffffffffffffffffffffffffffff1673ffffffffffffffffffffffffffffffffffffffff16815260200190815260200160002060006101000a81548160ff021916908315150217905550505050565b60008260016003811115611afd57611afc612e61565b5b6008600083815260200190815260200160002060070160009054906101000a900460ff166003811115611b3357611b32612e61565b5b14611b73576040517f08c379a0000000000000000000000000000000000000000000000000000000008152600401611b6a9061389e565b60405180910390fd5b8260016003811115611b8857611b87612e61565b5b600560008373ffffffffffffffffffffffffffffffffffffffff1673ffffffffffffffffffffffffffffffffffffffff16815260200190815260200160002060090160009054906101000a900460ff166003811115611bea57611be9612e61565b5b14611c2a576040517f08c379a0000000000000000000000000000000000000000000000000000000008152600401611c2190613832565b60405180910390fd5b600a600086815260200190815260200160002060008573ffffffffffffffffffffffffffffffffffffffff1673ffffffffffffffffffffffffffffffffffffffff16815260200190815260200160002060009054906101000a900460ff169250505092915050565b60008054906101000a900473ffffffffffffffffffffffffffffffffffffffff1681565b60025481565b6000600782604051611cce9190613ef7565b908152602001604051809103902060009054906101000a900460ff16159050919050565b60603360016003811115611d0957611d08612e61565b5b600560008373ffffffffffffffffffffffffffffffffffffffff1673ffffffffffffffffffffffffffffffffffffffff16815260200190815260200160002060090160009054906101000a900460ff166003811115611d6b57611d6a612e61565b5b14611dab576040517f08c379a0000000000000000000000000000000000000000000000000000000008152600401611da290613832565b60405180910390fd5b8260016003811115611dc057611dbf612e61565b5b6008600083815260200190815260200160002060070160009054906101000a900460ff166003811115611df657611df5612e61565b5b14611e36576040517f08c379a0000000000000000000000000000000000000000000000000000000008152600401611e2d9061389e565b60405180910390fd5b600085600188611e4691906138ed565b611e509190613d96565b905060008682611e609190613921565b9050600d600087815260200190815260200160002080549050811115611e9a57600d60008781526020019081526020016000208054905090505b60008282611ea891906138ed565b67ffffffffffffffff811115611ec157611ec0612a58565b5b604051908082528060200260200182016040528015611efa57816020015b611ee7612959565b815260200190600190039081611edf5790505b5090506000808490505b838110156120ee57600d60008a81526020019081526020016000208181548110611f3157611f30613dd8565b5b90600052602060002001549150600b600083815260200190815260200160002060405180610100016040529081600082015481526020016001820160009054906101000a900473ffffffffffffffffffffffffffffffffffffffff1673ffffffffffffffffffffffffffffffffffffffff1673ffffffffffffffffffffffffffffffffffffffff16815260200160028201548152602001600382018054611fd790613984565b80601f016020809104026020016040519081016040528092919081815260200182805461200390613984565b80156120505780601f1061202557610100808354040283529160200191612050565b820191906000526020600020905b81548152906001019060200180831161203357829003601f168201915b505050505081526020016004820154815260200160058201548152602001600682015481526020016007820160009054906101000a900460ff16600381111561209c5761209b612e61565b5b60038111156120ae576120ad612e61565b5b815250508386836120bf91906138ed565b815181106120d0576120cf613dd8565b5b602002602001018190525080806120e690613e07565b915050611f04565b508196505050505050509392505050565b60015481565b6060336001600381111561211c5761211b612e61565b5b600560008373ffffffffffffffffffffffffffffffffffffffff1673ffffffffffffffffffffffffffffffffffffffff16815260200190815260200160002060090160009054906101000a900460ff16600381111561217e5761217d612e61565b5b146121be576040517f08c379a00000000000000000000000000000000000000000000000000000000081526004016121b590613832565b60405180910390fd5b6000600960003373ffffffffffffffffffffffffffffffffffffffff1673ffffffffffffffffffffffffffffffffffffffff16815260200190815260200160002080548060200260200160405190810160405280929190818152602001828054801561224957602002820191906000526020600020905b815481526020019060010190808311612235575b505050505090506000815167ffffffffffffffff81111561226d5761226c612a58565b5b6040519080825280602002602001820160405280156122a657816020015b6122936128ec565b81526020019060019003908161228b5790505b50905060005b82518110156124fc57600860008483815181106122cc576122cb613dd8565b5b6020026020010151815260200190815260200160002060405180610100016040529081600082015481526020016001820160009054906101000a900473ffffffffffffffffffffffffffffffffffffffff1673ffffffffffffffffffffffffffffffffffffffff1673ffffffffffffffffffffffffffffffffffffffff16815260200160028201805461235e90613984565b80601f016020809104026020016040519081016040528092919081815260200182805461238a90613984565b80156123d75780601f106123ac576101008083540402835291602001916123d7565b820191906000526020600020905b8154815290600101906020018083116123ba57829003601f168201915b505050505081526020016003820180546123f090613984565b80601f016020809104026020016040519081016040528092919081815260200182805461241c90613984565b80156124695780601f1061243e57610100808354040283529160200191612469565b820191906000526020600020905b81548152906001019060200180831161244c57829003601f168201915b505050505081526020016004820154815260200160058201548152602001600682015481526020016007820160009054906101000a900460ff1660038111156124b5576124b4612e61565b5b60038111156124c7576124c6612e61565b5b815250508282815181106124de576124dd613dd8565b5b602002602001018190525080806124f490613e07565b9150506122ac565b5080935050505090565b336000600381111561251b5761251a612e61565b5b600560008373ffffffffffffffffffffffffffffffffffffffff1673ffffffffffffffffffffffffffffffffffffffff16815260200190815260200160002060090160009054906101000a900460ff16600381111561257d5761257c612e61565b5b146125bd576040517f08c379a00000000000000000000000000000000000000000000000000000000081526004016125b490613f5a565b60405180910390fd5b876007816040516125ce9190613ef7565b908152602001604051809103902060009054906101000a900460ff161561262a576040517f08c379a000000000000000000000000000000000000000000000000000000000815260040161262190613fc6565b60405180910390fd5b600160078a60405161263c9190613ef7565b908152602001604051809103902060006101000a81548160ff0219169083151502179055506001805461266f9190613921565b600181905550600060015490506040518061014001604052808281526020013373ffffffffffffffffffffffffffffffffffffffff1681526020018b81526020018a81526020018781526020018681526020018515158152602001898152602001888152602001600160038111156126ea576126e9612e61565b5b815250600560003373ffffffffffffffffffffffffffffffffffffffff1673ffffffffffffffffffffffffffffffffffffffff1681526020019081526020016000206000820151816000015560208201518160010160006101000a81548173ffffffffffffffffffffffffffffffffffffffff021916908373ffffffffffffffffffffffffffffffffffffffff16021790555060408201518160020190816127929190613b61565b5060608201518160030190816127a89190613b61565b5060808201518160040190816127be9190613b61565b5060a0820151816005015560c08201518160060160006101000a81548160ff02191690831515021790555060e08201518160070190816127fe9190613b61565b506101008201518160080190816128159190613b61565b506101208201518160090160006101000a81548160ff0219169083600381111561284257612841612e61565b5b02179055509050503360068b60405161285b9190613ef7565b908152602001604051809103902060006101000a81548173ffffffffffffffffffffffffffffffffffffffff021916908373ffffffffffffffffffffffffffffffffffffffff1602179055507fabc58c36475157c4ac7669f9adfbb6f254d3a3578fb89676f6866ac3b9950eed33826040516128d8929190613fe6565b60405180910390a150505050505050505050565b60405180610100016040528060008152602001600073ffffffffffffffffffffffffffffffffffffffff16815260200160608152602001606081526020016000815260200160008152602001600081526020016000600381111561295357612952612e61565b5b81525090565b60405180610100016040528060008152602001600073ffffffffffffffffffffffffffffffffffffffff1681526020016000815260200160608152602001600081526020016000815260200160008152602001600060038111156129c0576129bf612e61565b5b81525090565b6000604051905090565b600080fd5b600080fd5b6000819050919050565b6129ed816129da565b81146129f857600080fd5b50565b600081359050612a0a816129e4565b92915050565b600060208284031215612a2657612a256129d0565b5b6000612a34848285016129fb565b91505092915050565b600080fd5b600080fd5b6000601f19601f8301169050919050565b7f4e487b7100000000000000000000000000000000000000000000000000000000600052604160045260246000fd5b612a9082612a47565b810181811067ffffffffffffffff82111715612aaf57612aae612a58565b5b80604052505050565b6000612ac26129c6565b9050612ace8282612a87565b919050565b600067ffffffffffffffff821115612aee57612aed612a58565b5b612af782612a47565b9050602081019050919050565b82818337600083830152505050565b6000612b26612b2184612ad3565b612ab8565b905082815260208101848484011115612b4257612b41612a42565b5b612b4d848285612b04565b509392505050565b600082601f830112612b6a57612b69612a3d565b5b8135612b7a848260208601612b13565b91505092915050565b60008060408385031215612b9a57612b996129d0565b5b600083013567ffffffffffffffff811115612bb857612bb76129d5565b5b612bc485828601612b55565b925050602083013567ffffffffffffffff811115612be557612be46129d5565b5b612bf185828601612b55565b9150509250929050565b60008060408385031215612c1257612c116129d0565b5b6000612c20858286016129fb565b925050602083013567ffffffffffffffff811115612c4157612c406129d5565b5b612c4d85828601612b55565b9150509250929050565b60008060408385031215612c6e57612c6d6129d0565b5b6000612c7c858286016129fb565b9250506020612c8d858286016129fb565b9150509250929050565b600081519050919050565b600082825260208201905092915050565b6000819050602082019050919050565b612ccc816129da565b82525050565b6000612cde8383612cc3565b60208301905092915050565b6000602082019050919050565b6000612d0282612c97565b612d0c8185612ca2565b9350612d1783612cb3565b8060005b83811015612d48578151612d2f8882612cd2565b9750612d3a83612cea565b925050600181019050612d1b565b5085935050505092915050565b60006020820190508181036000830152612d6f8184612cf7565b905092915050565b612d80816129da565b82525050565b6000602082019050612d9b6000830184612d77565b92915050565b600073ffffffffffffffffffffffffffffffffffffffff82169050919050565b6000612dcc82612da1565b9050919050565b612ddc81612dc1565b82525050565b600081519050919050565b600082825260208201905092915050565b60005b83811015612e1c578082015181840152602081019050612e01565b60008484015250505050565b6000612e3382612de2565b612e3d8185612ded565b9350612e4d818560208601612dfe565b612e5681612a47565b840191505092915050565b7f4e487b7100000000000000000000000000000000000000000000000000000000600052602160045260246000fd5b60048110612ea157612ea0612e61565b5b50565b6000819050612eb282612e90565b919050565b6000612ec282612ea4565b9050919050565b612ed281612eb7565b82525050565b600061010083016000830151612ef16000860182612cc3565b506020830151612f046020860182612dd3565b5060408301518482036040860152612f1c8282612e28565b91505060608301518482036060860152612f368282612e28565b9150506080830151612f4b6080860182612cc3565b5060a0830151612f5e60a0860182612cc3565b5060c0830151612f7160c0860182612cc3565b5060e0830151612f8460e0860182612ec9565b508091505092915050565b60006020820190508181036000830152612fa98184612ed8565b905092915050565b60048110612fc257612fc1612e61565b5b50565b6000819050612fd382612fb1565b919050565b6000612fe382612fc5565b9050919050565b612ff381612fd8565b82525050565b6000610100830160008301516130126000860182612cc3565b5060208301516130256020860182612dd3565b5060408301516130386040860182612cc3565b50606083015184820360608601526130508282612e28565b91505060808301516130656080860182612cc3565b5060a083015161307860a0860182612cc3565b5060c083015161308b60c0860182612cc3565b5060e083015161309e60e0860182612fea565b508091505092915050565b600060208201905081810360008301526130c38184612ff9565b905092915050565b6130d481612dc1565b81146130df57600080fd5b50565b6000813590506130f1816130cb565b92915050565b60006020828403121561310d5761310c6129d0565b5b600061311b848285016130e2565b91505092915050565b600082825260208201905092915050565b600061314082612de2565b61314a8185613124565b935061315a818560208601612dfe565b61316381612a47565b840191505092915050565b60008115159050919050565b6131838161316e565b82525050565b60006101008201905061319f600083018b612d77565b81810360208301526131b1818a613135565b905081810360408301526131c58189613135565b905081810360608301526131d98188613135565b90506131e86080830187612d77565b6131f560a083018661317a565b81810360c08301526132078185613135565b905081810360e083015261321b8184613135565b90509998505050505050505050565b60008060408385031215613241576132406129d0565b5b600061324f858286016129fb565b9250506020613260858286016130e2565b9150509250929050565b600060208201905061327f600083018461317a565b92915050565b600061329082612da1565b9050919050565b6132a081613285565b82525050565b60006020820190506132bb6000830184613297565b92915050565b6000602082840312156132d7576132d66129d0565b5b600082013567ffffffffffffffff8111156132f5576132f46129d5565b5b61330184828501612b55565b91505092915050565b600080600060608486031215613323576133226129d0565b5b6000613331868287016129fb565b9350506020613342868287016129fb565b9250506040613353868287016129fb565b9150509250925092565b600081519050919050565b600082825260208201905092915050565b6000819050602082019050919050565b6000610100830160008301516133a26000860182612cc3565b5060208301516133b56020860182612dd3565b5060408301516133c86040860182612cc3565b50606083015184820360608601526133e08282612e28565b91505060808301516133f56080860182612cc3565b5060a083015161340860a0860182612cc3565b5060c083015161341b60c0860182612cc3565b5060e083015161342e60e0860182612fea565b508091505092915050565b60006134458383613389565b905092915050565b6000602082019050919050565b60006134658261335d565b61346f8185613368565b93508360208202850161348185613379565b8060005b858110156134bd578484038952815161349e8582613439565b94506134a98361344d565b925060208a01995050600181019050613485565b50829750879550505050505092915050565b600060208201905081810360008301526134e9818461345a565b905092915050565b600081519050919050565b600082825260208201905092915050565b6000819050602082019050919050565b6000610100830160008301516135366000860182612cc3565b5060208301516135496020860182612dd3565b50604083015184820360408601526135618282612e28565b9150506060830151848203606086015261357b8282612e28565b91505060808301516135906080860182612cc3565b5060a08301516135a360a0860182612cc3565b5060c08301516135b660c0860182612cc3565b5060e08301516135c960e0860182612ec9565b508091505092915050565b60006135e0838361351d565b905092915050565b6000602082019050919050565b6000613600826134f1565b61360a81856134fc565b93508360208202850161361c8561350d565b8060005b85811015613658578484038952815161363985826135d4565b9450613644836135e8565b925060208a01995050600181019050613620565b50829750879550505050505092915050565b6000602082019050818103600083015261368481846135f5565b905092915050565b6136958161316e565b81146136a057600080fd5b50565b6000813590506136b28161368c565b92915050565b600080600080600080600060e0888a0312156136d7576136d66129d0565b5b600088013567ffffffffffffffff8111156136f5576136f46129d5565b5b6137018a828b01612b55565b975050602088013567ffffffffffffffff811115613722576137216129d5565b5b61372e8a828b01612b55565b965050604088013567ffffffffffffffff81111561374f5761374e6129d5565b5b61375b8a828b01612b55565b955050606088013567ffffffffffffffff81111561377c5761377b6129d5565b5b6137888a828b01612b55565b945050608088013567ffffffffffffffff8111156137a9576137a86129d5565b5b6137b58a828b01612b55565b93505060a06137c68a828b016129fb565b92505060c06137d78a828b016136a3565b91505092959891949750929550565b7f4e6f742061205265676973746572656420557365722100000000000000000000600082015250565b600061381c601683613124565b9150613827826137e6565b602082019050919050565b6000602082019050818103600083015261384b8161380f565b9050919050565b7f4e6f7420616e2061637469766520706f73740000000000000000000000000000600082015250565b6000613888601283613124565b915061389382613852565b602082019050919050565b600060208201905081810360008301526138b78161387b565b9050919050565b7f4e487b7100000000000000000000000000000000000000000000000000000000600052601160045260246000fd5b60006138f8826129da565b9150613903836129da565b925082820390508181111561391b5761391a6138be565b5b92915050565b600061392c826129da565b9150613937836129da565b925082820190508082111561394f5761394e6138be565b5b92915050565b7f4e487b7100000000000000000000000000000000000000000000000000000000600052602260045260246000fd5b6000600282049050600182168061399c57607f821691505b6020821081036139af576139ae613955565b5b50919050565b60008190508160005260206000209050919050565b60006020601f8301049050919050565b600082821b905092915050565b600060088302613a177fffffffffffffffffffffffffffffffffffffffffffffffffffffffffffffffff826139da565b613a2186836139da565b95508019841693508086168417925050509392505050565b6000819050919050565b6000613a5e613a59613a54846129da565b613a39565b6129da565b9050919050565b6000819050919050565b613a7883613a43565b613a8c613a8482613a65565b8484546139e7565b825550505050565b600090565b613aa1613a94565b613aac818484613a6f565b505050565b5b81811015613ad057613ac5600082613a99565b600181019050613ab2565b5050565b601f821115613b1557613ae6816139b5565b613aef846139ca565b81016020851015613afe578190505b613b12613b0a856139ca565b830182613ab1565b50505b505050565b600082821c905092915050565b6000613b3860001984600802613b1a565b1980831691505092915050565b6000613b518383613b27565b9150826002028217905092915050565b613b6a82612de2565b67ffffffffffffffff811115613b8357613b82612a58565b5b613b8d8254613984565b613b98828285613ad4565b600060209050601f831160018114613bcb5760008415613bb9578287015190505b613bc38582613b45565b865550613c2b565b601f198416613bd9866139b5565b60005b82811015613c0157848901518255600182019150602085019450602081019050613bdc565b86831015613c1e5784890151613c1a601f891682613b27565b8355505b6001600288020188555050505b505050505050565b613c3c81612dc1565b82525050565b6000606082019050613c576000830186613c33565b613c646020830185612d77565b613c716040830184612d77565b949350505050565b7f436f6d6d656e742063616e206e6f7420626520656d7074792021000000000000600082015250565b6000613caf601a83613124565b9150613cba82613c79565b602082019050919050565b60006020820190508181036000830152613cde81613ca2565b9050919050565b6000819050919050565b6000613d0a613d05613d0084613ce5565b613a39565b6129da565b9050919050565b613d1a81613cef565b82525050565b600060e082019050613d35600083018a613c33565b613d426020830189612d77565b613d4f6040830188612d77565b613d5c6060830187613d11565b613d696080830186613d11565b613d7660a0830185612d77565b81810360c0830152613d888184613135565b905098975050505050505050565b6000613da1826129da565b9150613dac836129da565b9250828202613dba816129da565b91508282048414831517613dd157613dd06138be565b5b5092915050565b7f4e487b7100000000000000000000000000000000000000000000000000000000600052603260045260246000fd5b6000613e12826129da565b91507fffffffffffffffffffffffffffffffffffffffffffffffffffffffffffffffff8203613e4457613e436138be565b5b600182019050919050565b7f4e6f7420616e2061637469766520636f6d6d656e740000000000000000000000600082015250565b6000613e85601583613124565b9150613e9082613e4f565b602082019050919050565b60006020820190508181036000830152613eb481613e78565b9050919050565b600081905092915050565b6000613ed182612de2565b613edb8185613ebb565b9350613eeb818560208601612dfe565b80840191505092915050565b6000613f038284613ec6565b915081905092915050565b7f5573657220616c72656164792072656769737465726564000000000000000000600082015250565b6000613f44601783613124565b9150613f4f82613f0e565b602082019050919050565b60006020820190508181036000830152613f7381613f37565b9050919050565b7f557365726e616d6520616c72656164792074616b656e00000000000000000000600082015250565b6000613fb0601683613124565b9150613fbb82613f7a565b602082019050919050565b60006020820190508181036000830152613fdf81613fa3565b9050919050565b6000604082019050613ffb6000830185613c33565b6140086020830184612d77565b939250505056fea2646970667358221220b45b00db69bed24103bf61e074c2bf2b06a79609c2e7ccfc44467b1066d5ed3564736f6c63430008120033",
  "linkReferences": {},
  "deployedLinkReferences": {}
}