{
  "_format": "hh-sol-artifact-1",
  "contractName": "SocialChain",
  "sourceName": "contracts/SocialChain.sol",
  "abi": [
    {
      "inputs": [],
      "stateMutability": "nonpayable",
      "type": "constructor"
    },
    {
      "anonymous": false,
      "inputs": [
        {
          "indexed": false,
          "internalType": "address",
          "name": "_author",
          "type": "address"
        },
        {
          "indexed": false,
          "internalType": "uint256",
          "name": "_userId",
          "type": "uint256"
        },
        {
          "indexed": false,
          "internalType": "uint256",
          "name": "_postId",
          "type": "uint256"
        }
      ],
      "name": "logPostCreated",
      "type": "event"
    },
    {
      "anonymous": false,
      "inputs": [
        {
          "indexed": false,
          "internalType": "address",
          "name": "userAddress",
          "type": "address"
        },
        {
          "indexed": false,
          "internalType": "uint256",
          "name": "userId",
          "type": "uint256"
        }
      ],
      "name": "logRegisterUser",
      "type": "event"
    },
    {
      "inputs": [
        {
          "internalType": "address payable",
          "name": "_accountAddress",
          "type": "address"
        },
        {
          "internalType": "string",
          "name": "_postdescription",
          "type": "string"
        },
        {
          "internalType": "string",
          "name": "_imghash",
          "type": "string"
        }
      ],
      "name": "createPost",
      "outputs": [],
      "stateMutability": "nonpayable",
      "type": "function"
    },
    {
      "inputs": [
        {
          "internalType": "uint256",
          "name": "_postId",
          "type": "uint256"
        }
      ],
      "name": "getPostById",
      "outputs": [
        {
          "components": [
            {
              "internalType": "uint256",
              "name": "postId",
              "type": "uint256"
            },
            {
              "internalType": "address",
              "name": "author",
              "type": "address"
            },
            {
              "internalType": "string",
              "name": "postDescription",
              "type": "string"
            },
            {
              "internalType": "string",
              "name": "imgHash",
              "type": "string"
            },
            {
              "internalType": "uint256",
              "name": "timeStamp",
              "type": "uint256"
            },
            {
              "internalType": "uint256",
              "name": "likeCount",
              "type": "uint256"
            },
            {
              "internalType": "uint256",
              "name": "reportCount",
              "type": "uint256"
            },
            {
              "internalType": "enum SocialChain.postStatus",
              "name": "status",
              "type": "uint8"
            }
          ],
          "internalType": "struct SocialChain.Post",
          "name": "",
          "type": "tuple"
        }
      ],
      "stateMutability": "view",
      "type": "function"
    },
    {
      "inputs": [
        {
          "internalType": "uint256",
          "name": "_page",
          "type": "uint256"
        },
        {
          "internalType": "uint256",
          "name": "_perPage",
          "type": "uint256"
        }
      ],
      "name": "getPostIds",
      "outputs": [
        {
          "internalType": "uint256[]",
          "name": "",
          "type": "uint256[]"
        }
      ],
      "stateMutability": "view",
      "type": "function"
    },
    {
      "inputs": [
        {
          "internalType": "address",
          "name": "accountAddress",
          "type": "address"
        }
      ],
      "name": "getUser",
      "outputs": [
        {
          "internalType": "uint256",
          "name": "id",
          "type": "uint256"
        },
        {
          "internalType": "string",
          "name": "userName",
          "type": "string"
        },
        {
          "internalType": "string",
          "name": "name",
          "type": "string"
        },
        {
          "internalType": "string",
          "name": "bio",
          "type": "string"
        },
        {
          "internalType": "uint256",
          "name": "birthDate",
          "type": "uint256"
        },
        {
          "internalType": "bool",
          "name": "showUsername",
          "type": "bool"
        },
        {
          "internalType": "string",
          "name": "imageHash",
          "type": "string"
        },
        {
          "internalType": "string",
          "name": "coverHash",
          "type": "string"
        }
      ],
      "stateMutability": "view",
      "type": "function"
    },
    {
      "inputs": [
        {
          "internalType": "address",
          "name": "_userAddress",
          "type": "address"
        }
      ],
      "name": "getUserPosts",
      "outputs": [
        {
          "components": [
            {
              "internalType": "uint256",
              "name": "postId",
              "type": "uint256"
            },
            {
              "internalType": "address",
              "name": "author",
              "type": "address"
            },
            {
              "internalType": "string",
              "name": "postDescription",
              "type": "string"
            },
            {
              "internalType": "string",
              "name": "imgHash",
              "type": "string"
            },
            {
              "internalType": "uint256",
              "name": "timeStamp",
              "type": "uint256"
            },
            {
              "internalType": "uint256",
              "name": "likeCount",
              "type": "uint256"
            },
            {
              "internalType": "uint256",
              "name": "reportCount",
              "type": "uint256"
            },
            {
              "internalType": "enum SocialChain.postStatus",
              "name": "status",
              "type": "uint8"
            }
          ],
          "internalType": "struct SocialChain.Post[]",
          "name": "",
          "type": "tuple[]"
        }
      ],
      "stateMutability": "view",
      "type": "function"
    },
    {
      "inputs": [
        {
          "internalType": "uint256",
          "name": "_postId",
          "type": "uint256"
        },
        {
          "internalType": "address",
          "name": "_userAddress",
          "type": "address"
        }
      ],
      "name": "isLikedByAddress",
      "outputs": [
        {
          "internalType": "bool",
          "name": "",
          "type": "bool"
        }
      ],
      "stateMutability": "view",
      "type": "function"
    },
    {
      "inputs": [
        {
          "internalType": "uint256",
          "name": "_postId",
          "type": "uint256"
        }
      ],
      "name": "likePost",
      "outputs": [],
      "stateMutability": "nonpayable",
      "type": "function"
    },
    {
      "inputs": [],
      "name": "owner",
      "outputs": [
        {
          "internalType": "address payable",
          "name": "",
          "type": "address"
        }
      ],
      "stateMutability": "view",
      "type": "function"
    },
    {
      "inputs": [
        {
          "internalType": "string",
          "name": "_username",
          "type": "string"
        },
        {
          "internalType": "string",
          "name": "_name",
          "type": "string"
        },
        {
          "internalType": "string",
          "name": "_imgHash",
          "type": "string"
        },
        {
          "internalType": "string",
          "name": "_coverHash",
          "type": "string"
        },
        {
          "internalType": "string",
          "name": "_bio",
          "type": "string"
        },
        {
          "internalType": "uint256",
          "name": "birthDate",
          "type": "uint256"
        },
        {
          "internalType": "bool",
          "name": "showUserName",
          "type": "bool"
        }
      ],
      "name": "registerUser",
      "outputs": [],
      "stateMutability": "nonpayable",
      "type": "function"
    },
    {
      "inputs": [],
      "name": "totalPosts",
      "outputs": [
        {
          "internalType": "uint256",
          "name": "",
          "type": "uint256"
        }
      ],
      "stateMutability": "view",
      "type": "function"
    },
    {
      "inputs": [],
      "name": "totalUsers",
      "outputs": [
        {
          "internalType": "uint256",
          "name": "",
          "type": "uint256"
        }
      ],
      "stateMutability": "view",
      "type": "function"
    },
    {
      "inputs": [
        {
          "internalType": "string",
          "name": "_username",
          "type": "string"
        }
      ],
      "name": "userNameAvailable",
      "outputs": [
        {
          "internalType": "bool",
          "name": "status",
          "type": "bool"
        }
      ],
      "stateMutability": "view",
      "type": "function"
    }
  ],
  "bytecode": "0x6080604052600060015560006002553480156200001b57600080fd5b50336000806101000a81548173ffffffffffffffffffffffffffffffffffffffff021916908373ffffffffffffffffffffffffffffffffffffffff160217905550620001316040518060400160405280600581526020017f6f776e65720000000000000000000000000000000000000000000000000000008152506040518060400160405280600581526020017f6f776e657200000000000000000000000000000000000000000000000000000081525060405180602001604052806000815250604051806020016040528060008152506040518060400160405280600581526020017f6f776e65720000000000000000000000000000000000000000000000000000008152506001806200013760201b60201c565b62000b3c565b33600060038111156200014f576200014e62000543565b5b600460008373ffffffffffffffffffffffffffffffffffffffff1673ffffffffffffffffffffffffffffffffffffffff16815260200190815260200160002060090160009054906101000a900460ff166003811115620001b457620001b362000543565b5b14620001f7576040517f08c379a0000000000000000000000000000000000000000000000000000000008152600401620001ee90620005d3565b60405180910390fd5b876006816040516200020a91906200066e565b908152602001604051809103902060009054906101000a900460ff161562000269576040517f08c379a00000000000000000000000000000000000000000000000000000000081526004016200026090620006d7565b60405180910390fd5b600160068a6040516200027d91906200066e565b908152602001604051809103902060006101000a81548160ff02191690831515021790555060018054620002b2919062000732565b600181905550600060015490506040518061014001604052808281526020013373ffffffffffffffffffffffffffffffffffffffff1681526020018b81526020018a815260200187815260200186815260200185151581526020018981526020018881526020016001600381111562000330576200032f62000543565b5b815250600460003373ffffffffffffffffffffffffffffffffffffffff1673ffffffffffffffffffffffffffffffffffffffff1681526020019081526020016000206000820151816000015560208201518160010160006101000a81548173ffffffffffffffffffffffffffffffffffffffff021916908373ffffffffffffffffffffffffffffffffffffffff1602179055506040820151816002019081620003da9190620009d2565b506060820151816003019081620003f29190620009d2565b5060808201518160040190816200040a9190620009d2565b5060a0820151816005015560c08201518160060160006101000a81548160ff02191690831515021790555060e08201518160070190816200044c9190620009d2565b50610100820151816008019081620004659190620009d2565b506101208201518160090160006101000a81548160ff0219169083600381111562000495576200049462000543565b5b02179055509050503360058b604051620004b091906200066e565b908152602001604051809103902060006101000a81548173ffffffffffffffffffffffffffffffffffffffff021916908373ffffffffffffffffffffffffffffffffffffffff1602179055507fabc58c36475157c4ac7669f9adfbb6f254d3a3578fb89676f6866ac3b9950eed33826040516200052f92919062000b0f565b60405180910390a150505050505050505050565b7f4e487b7100000000000000000000000000000000000000000000000000000000600052602160045260246000fd5b600082825260208201905092915050565b7f5573657220616c72656164792072656769737465726564000000000000000000600082015250565b6000620005bb60178362000572565b9150620005c88262000583565b602082019050919050565b60006020820190508181036000830152620005ee81620005ac565b9050919050565b600081519050919050565b600081905092915050565b60005b838110156200062b5780820151818401526020810190506200060e565b60008484015250505050565b60006200064482620005f5565b62000650818562000600565b9350620006628185602086016200060b565b80840191505092915050565b60006200067c828462000637565b915081905092915050565b7f557365726e616d6520616c72656164792074616b656e00000000000000000000600082015250565b6000620006bf60168362000572565b9150620006cc8262000687565b602082019050919050565b60006020820190508181036000830152620006f281620006b0565b9050919050565b6000819050919050565b7f4e487b7100000000000000000000000000000000000000000000000000000000600052601160045260246000fd5b60006200073f82620006f9565b91506200074c83620006f9565b925082820190508082111562000767576200076662000703565b5b92915050565b7f4e487b7100000000000000000000000000000000000000000000000000000000600052604160045260246000fd5b7f4e487b7100000000000000000000000000000000000000000000000000000000600052602260045260246000fd5b60006002820490506001821680620007e457607f821691505b602082108103620007fa57620007f96200079c565b5b50919050565b60008190508160005260206000209050919050565b60006020601f8301049050919050565b600082821b905092915050565b600060088302620008647fffffffffffffffffffffffffffffffffffffffffffffffffffffffffffffffff8262000825565b62000870868362000825565b95508019841693508086168417925050509392505050565b6000819050919050565b6000620008b3620008ad620008a784620006f9565b62000888565b620006f9565b9050919050565b6000819050919050565b620008cf8362000892565b620008e7620008de82620008ba565b84845462000832565b825550505050565b600090565b620008fe620008ef565b6200090b818484620008c4565b505050565b5b81811015620009335762000927600082620008f4565b60018101905062000911565b5050565b601f82111562000982576200094c8162000800565b620009578462000815565b8101602085101562000967578190505b6200097f620009768562000815565b83018262000910565b50505b505050565b600082821c905092915050565b6000620009a76000198460080262000987565b1980831691505092915050565b6000620009c2838362000994565b9150826002028217905092915050565b620009dd82620005f5565b67ffffffffffffffff811115620009f957620009f86200076d565b5b62000a058254620007cb565b62000a1282828562000937565b600060209050601f83116001811462000a4a576000841562000a35578287015190505b62000a418582620009b4565b86555062000ab1565b601f19841662000a5a8662000800565b60005b8281101562000a845784890151825560018201915060208501945060208101905062000a5d565b8683101562000aa4578489015162000aa0601f89168262000994565b8355505b6001600288020188555050505b505050505050565b600073ffffffffffffffffffffffffffffffffffffffff82169050919050565b600062000ae68262000ab9565b9050919050565b62000af88162000ad9565b82525050565b62000b0981620006f9565b82525050565b600060408201905062000b26600083018562000aed565b62000b35602083018462000afe565b9392505050565b612da48062000b4c6000396000f3fe608060405234801561001057600080fd5b50600436106100b45760003560e01c80638e53fb41116100715780638e53fb41146101ba5780639a2194a9146101d8578063b90c207314610208578063bff1f9e114610238578063c096cdd514610256578063f82217c114610272576100b4565b806349e03502146100b957806364e95895146100e95780636f77926b14610119578063725009d314610150578063875003aa1461016c5780638da5cb5b1461019c575b600080fd5b6100d360048036038101906100ce9190611c16565b61028e565b6040516100e09190611d14565b60405180910390f35b61010360048036038101906100fe9190611d36565b610459565b6040516101109190611f62565b60405180910390f35b610133600480360381019061012e9190611fb0565b6107a8565b604051610147989796959493929190612051565b60405180910390f35b61016a60048036038101906101659190611d36565b610be3565b005b610186600480360381019061018191906120f2565b610e38565b6040516101939190612132565b60405180910390f35b6101a4610fe4565b6040516101b1919061216e565b60405180910390f35b6101c2611008565b6040516101cf9190612189565b60405180910390f35b6101f260048036038101906101ed9190611fb0565b61100e565b6040516101ff919061231d565b60405180910390f35b610222600480360381019061021d9190612474565b611411565b60405161022f9190612132565b60405180910390f35b610240611447565b60405161024d9190612189565b60405180910390f35b610270600480360381019061026b91906124e9565b61144d565b005b61028c600480360381019061028791906125a0565b611779565b005b606033600160038111156102a5576102a4611e34565b5b600460008373ffffffffffffffffffffffffffffffffffffffff1673ffffffffffffffffffffffffffffffffffffffff16815260200190815260200160002060090160009054906101000a900460ff16600381111561030757610306611e34565b5b14610347576040517f08c379a000000000000000000000000000000000000000000000000000000000815260040161033e9061271a565b60405180910390fd5b6000836001866103579190612769565b610361919061279d565b90506000848261037191906127df565b90506003805490508111156103895760038054905090505b600082826103979190612769565b67ffffffffffffffff8111156103b0576103af612349565b5b6040519080825280602002602001820160405280156103de5781602001602082028036833780820191505090505b50905060008390505b8281101561044b576003818154811061040357610402612813565b5b906000526020600020015482858361041b9190612769565b8151811061042c5761042b612813565b5b602002602001018181525050808061044390612842565b9150506103e7565b508094505050505092915050565b610461611b5f565b336001600381111561047657610475611e34565b5b600460008373ffffffffffffffffffffffffffffffffffffffff1673ffffffffffffffffffffffffffffffffffffffff16815260200190815260200160002060090160009054906101000a900460ff1660038111156104d8576104d7611e34565b5b14610518576040517f08c379a000000000000000000000000000000000000000000000000000000000815260040161050f9061271a565b60405180910390fd5b826001600381111561052d5761052c611e34565b5b6007600083815260200190815260200160002060070160009054906101000a900460ff16600381111561056357610562611e34565b5b146105a3576040517f08c379a000000000000000000000000000000000000000000000000000000000815260040161059a906128d6565b60405180910390fd5b6007600085815260200190815260200160002060405180610100016040529081600082015481526020016001820160009054906101000a900473ffffffffffffffffffffffffffffffffffffffff1673ffffffffffffffffffffffffffffffffffffffff1673ffffffffffffffffffffffffffffffffffffffff16815260200160028201805461063290612925565b80601f016020809104026020016040519081016040528092919081815260200182805461065e90612925565b80156106ab5780601f10610680576101008083540402835291602001916106ab565b820191906000526020600020905b81548152906001019060200180831161068e57829003601f168201915b505050505081526020016003820180546106c490612925565b80601f01602080910402602001604051908101604052809291908181526020018280546106f090612925565b801561073d5780601f106107125761010080835404028352916020019161073d565b820191906000526020600020905b81548152906001019060200180831161072057829003601f168201915b505050505081526020016004820154815260200160058201548152602001600682015481526020016007820160009054906101000a900460ff16600381111561078957610788611e34565b5b600381111561079b5761079a611e34565b5b8152505092505050919050565b600060608060606000806060806000600460008b73ffffffffffffffffffffffffffffffffffffffff1673ffffffffffffffffffffffffffffffffffffffff16815260200190815260200160002060405180610140016040529081600082015481526020016001820160009054906101000a900473ffffffffffffffffffffffffffffffffffffffff1673ffffffffffffffffffffffffffffffffffffffff1673ffffffffffffffffffffffffffffffffffffffff16815260200160028201805461087290612925565b80601f016020809104026020016040519081016040528092919081815260200182805461089e90612925565b80156108eb5780601f106108c0576101008083540402835291602001916108eb565b820191906000526020600020905b8154815290600101906020018083116108ce57829003601f168201915b5050505050815260200160038201805461090490612925565b80601f016020809104026020016040519081016040528092919081815260200182805461093090612925565b801561097d5780601f106109525761010080835404028352916020019161097d565b820191906000526020600020905b81548152906001019060200180831161096057829003601f168201915b5050505050815260200160048201805461099690612925565b80601f01602080910402602001604051908101604052809291908181526020018280546109c290612925565b8015610a0f5780601f106109e457610100808354040283529160200191610a0f565b820191906000526020600020905b8154815290600101906020018083116109f257829003601f168201915b50505050508152602001600582015481526020016006820160009054906101000a900460ff16151515158152602001600782018054610a4d90612925565b80601f0160208091040260200160405190810160405280929190818152602001828054610a7990612925565b8015610ac65780601f10610a9b57610100808354040283529160200191610ac6565b820191906000526020600020905b815481529060010190602001808311610aa957829003601f168201915b50505050508152602001600882018054610adf90612925565b80601f0160208091040260200160405190810160405280929190818152602001828054610b0b90612925565b8015610b585780601f10610b2d57610100808354040283529160200191610b58565b820191906000526020600020905b815481529060010190602001808311610b3b57829003601f168201915b505050505081526020016009820160009054906101000a900460ff166003811115610b8657610b85611e34565b5b6003811115610b9857610b97611e34565b5b81525050905080600001518160400151826060015183608001518460a001518560c001518660e001518761010001519850985098509850985098509850985050919395975091939597565b3360016003811115610bf857610bf7611e34565b5b600460008373ffffffffffffffffffffffffffffffffffffffff1673ffffffffffffffffffffffffffffffffffffffff16815260200190815260200160002060090160009054906101000a900460ff166003811115610c5a57610c59611e34565b5b14610c9a576040517f08c379a0000000000000000000000000000000000000000000000000000000008152600401610c919061271a565b60405180910390fd5b8160016003811115610caf57610cae611e34565b5b6007600083815260200190815260200160002060070160009054906101000a900460ff166003811115610ce557610ce4611e34565b5b14610d25576040517f08c379a0000000000000000000000000000000000000000000000000000000008152600401610d1c906128d6565b60405180910390fd5b6009600084815260200190815260200160002060003373ffffffffffffffffffffffffffffffffffffffff1673ffffffffffffffffffffffffffffffffffffffff16815260200190815260200160002060009054906101000a900460ff1615610d8d57600080fd5b60016007600085815260200190815260200160002060050154610db091906127df565b600760008581526020019081526020016000206005018190555060016009600085815260200190815260200160002060003373ffffffffffffffffffffffffffffffffffffffff1673ffffffffffffffffffffffffffffffffffffffff16815260200190815260200160002060006101000a81548160ff021916908315150217905550505050565b60008260016003811115610e4f57610e4e611e34565b5b6007600083815260200190815260200160002060070160009054906101000a900460ff166003811115610e8557610e84611e34565b5b14610ec5576040517f08c379a0000000000000000000000000000000000000000000000000000000008152600401610ebc906128d6565b60405180910390fd5b8260016003811115610eda57610ed9611e34565b5b600460008373ffffffffffffffffffffffffffffffffffffffff1673ffffffffffffffffffffffffffffffffffffffff16815260200190815260200160002060090160009054906101000a900460ff166003811115610f3c57610f3b611e34565b5b14610f7c576040517f08c379a0000000000000000000000000000000000000000000000000000000008152600401610f739061271a565b60405180910390fd5b6009600086815260200190815260200160002060008573ffffffffffffffffffffffffffffffffffffffff1673ffffffffffffffffffffffffffffffffffffffff16815260200190815260200160002060009054906101000a900460ff169250505092915050565b60008054906101000a900473ffffffffffffffffffffffffffffffffffffffff1681565b60025481565b6060816001600381111561102557611024611e34565b5b600460008373ffffffffffffffffffffffffffffffffffffffff1673ffffffffffffffffffffffffffffffffffffffff16815260200190815260200160002060090160009054906101000a900460ff16600381111561108757611086611e34565b5b146110c7576040517f08c379a00000000000000000000000000000000000000000000000000000000081526004016110be9061271a565b60405180910390fd5b6000600860008573ffffffffffffffffffffffffffffffffffffffff1673ffffffffffffffffffffffffffffffffffffffff16815260200190815260200160002080548060200260200160405190810160405280929190818152602001828054801561115257602002820191906000526020600020905b81548152602001906001019080831161113e575b505050505090506000815167ffffffffffffffff81111561117657611175612349565b5b6040519080825280602002602001820160405280156111af57816020015b61119c611b5f565b8152602001906001900390816111945790505b50905060005b825181101561140557600760008483815181106111d5576111d4612813565b5b6020026020010151815260200190815260200160002060405180610100016040529081600082015481526020016001820160009054906101000a900473ffffffffffffffffffffffffffffffffffffffff1673ffffffffffffffffffffffffffffffffffffffff1673ffffffffffffffffffffffffffffffffffffffff16815260200160028201805461126790612925565b80601f016020809104026020016040519081016040528092919081815260200182805461129390612925565b80156112e05780601f106112b5576101008083540402835291602001916112e0565b820191906000526020600020905b8154815290600101906020018083116112c357829003601f168201915b505050505081526020016003820180546112f990612925565b80601f016020809104026020016040519081016040528092919081815260200182805461132590612925565b80156113725780601f1061134757610100808354040283529160200191611372565b820191906000526020600020905b81548152906001019060200180831161135557829003601f168201915b505050505081526020016004820154815260200160058201548152602001600682015481526020016007820160009054906101000a900460ff1660038111156113be576113bd611e34565b5b60038111156113d0576113cf611e34565b5b815250508282815181106113e7576113e6612813565b5b602002602001018190525080806113fd90612842565b9150506111b5565b50809350505050919050565b60006006826040516114239190612992565b908152602001604051809103902060009054906101000a900460ff16159050919050565b60015481565b336001600381111561146257611461611e34565b5b600460008373ffffffffffffffffffffffffffffffffffffffff1673ffffffffffffffffffffffffffffffffffffffff16815260200190815260200160002060090160009054906101000a900460ff1660038111156114c4576114c3611e34565b5b14611504576040517f08c379a00000000000000000000000000000000000000000000000000000000081526004016114fb9061271a565b60405180910390fd5b600160025461151391906127df565b600281905550600060025490506040518061010001604052808281526020013373ffffffffffffffffffffffffffffffffffffffff16815260200185815260200184815260200142815260200160008152602001600081526020016001600381111561158257611581611e34565b5b815250600760008381526020019081526020016000206000820151816000015560208201518160010160006101000a81548173ffffffffffffffffffffffffffffffffffffffff021916908373ffffffffffffffffffffffffffffffffffffffff16021790555060408201518160020190816115fe9190612b55565b5060608201518160030190816116149190612b55565b506080820151816004015560a0820151816005015560c0820151816006015560e08201518160070160006101000a81548160ff0219169083600381111561165e5761165d611e34565b5b0217905550905050600860003373ffffffffffffffffffffffffffffffffffffffff1673ffffffffffffffffffffffffffffffffffffffff16815260200190815260200160002081908060018154018082558091505060019003906000526020600020016000909190919091505560038190806001815401808255809150506001900390600052602060002001600090919091909150557fe78603dea3231b9ac9a73b3663b6e28de19f35247e2c32f0115ec263bdc7c49a33600460003373ffffffffffffffffffffffffffffffffffffffff1673ffffffffffffffffffffffffffffffffffffffff168152602001908152602001600020600001548360405161176a93929190612c36565b60405180910390a15050505050565b336000600381111561178e5761178d611e34565b5b600460008373ffffffffffffffffffffffffffffffffffffffff1673ffffffffffffffffffffffffffffffffffffffff16815260200190815260200160002060090160009054906101000a900460ff1660038111156117f0576117ef611e34565b5b14611830576040517f08c379a000000000000000000000000000000000000000000000000000000000815260040161182790612cb9565b60405180910390fd5b876006816040516118419190612992565b908152602001604051809103902060009054906101000a900460ff161561189d576040517f08c379a000000000000000000000000000000000000000000000000000000000815260040161189490612d25565b60405180910390fd5b600160068a6040516118af9190612992565b908152602001604051809103902060006101000a81548160ff021916908315150217905550600180546118e291906127df565b600181905550600060015490506040518061014001604052808281526020013373ffffffffffffffffffffffffffffffffffffffff1681526020018b81526020018a815260200187815260200186815260200185151581526020018981526020018881526020016001600381111561195d5761195c611e34565b5b815250600460003373ffffffffffffffffffffffffffffffffffffffff1673ffffffffffffffffffffffffffffffffffffffff1681526020019081526020016000206000820151816000015560208201518160010160006101000a81548173ffffffffffffffffffffffffffffffffffffffff021916908373ffffffffffffffffffffffffffffffffffffffff1602179055506040820151816002019081611a059190612b55565b506060820151816003019081611a1b9190612b55565b506080820151816004019081611a319190612b55565b5060a0820151816005015560c08201518160060160006101000a81548160ff02191690831515021790555060e0820151816007019081611a719190612b55565b50610100820151816008019081611a889190612b55565b506101208201518160090160006101000a81548160ff02191690836003811115611ab557611ab4611e34565b5b02179055509050503360058b604051611ace9190612992565b908152602001604051809103902060006101000a81548173ffffffffffffffffffffffffffffffffffffffff021916908373ffffffffffffffffffffffffffffffffffffffff1602179055507fabc58c36475157c4ac7669f9adfbb6f254d3a3578fb89676f6866ac3b9950eed3382604051611b4b929190612d45565b60405180910390a150505050505050505050565b60405180610100016040528060008152602001600073ffffffffffffffffffffffffffffffffffffffff168152602001606081526020016060815260200160008152602001600081526020016000815260200160006003811115611bc657611bc5611e34565b5b81525090565b6000604051905090565b600080fd5b600080fd5b6000819050919050565b611bf381611be0565b8114611bfe57600080fd5b50565b600081359050611c1081611bea565b92915050565b60008060408385031215611c2d57611c2c611bd6565b5b6000611c3b85828601611c01565b9250506020611c4c85828601611c01565b9150509250929050565b600081519050919050565b600082825260208201905092915050565b6000819050602082019050919050565b611c8b81611be0565b82525050565b6000611c9d8383611c82565b60208301905092915050565b6000602082019050919050565b6000611cc182611c56565b611ccb8185611c61565b9350611cd683611c72565b8060005b83811015611d07578151611cee8882611c91565b9750611cf983611ca9565b925050600181019050611cda565b5085935050505092915050565b60006020820190508181036000830152611d2e8184611cb6565b905092915050565b600060208284031215611d4c57611d4b611bd6565b5b6000611d5a84828501611c01565b91505092915050565b600073ffffffffffffffffffffffffffffffffffffffff82169050919050565b6000611d8e82611d63565b9050919050565b611d9e81611d83565b82525050565b600081519050919050565b600082825260208201905092915050565b60005b83811015611dde578082015181840152602081019050611dc3565b60008484015250505050565b6000601f19601f8301169050919050565b6000611e0682611da4565b611e108185611daf565b9350611e20818560208601611dc0565b611e2981611dea565b840191505092915050565b7f4e487b7100000000000000000000000000000000000000000000000000000000600052602160045260246000fd5b60048110611e7457611e73611e34565b5b50565b6000819050611e8582611e63565b919050565b6000611e9582611e77565b9050919050565b611ea581611e8a565b82525050565b600061010083016000830151611ec46000860182611c82565b506020830151611ed76020860182611d95565b5060408301518482036040860152611eef8282611dfb565b91505060608301518482036060860152611f098282611dfb565b9150506080830151611f1e6080860182611c82565b5060a0830151611f3160a0860182611c82565b5060c0830151611f4460c0860182611c82565b5060e0830151611f5760e0860182611e9c565b508091505092915050565b60006020820190508181036000830152611f7c8184611eab565b905092915050565b611f8d81611d83565b8114611f9857600080fd5b50565b600081359050611faa81611f84565b92915050565b600060208284031215611fc657611fc5611bd6565b5b6000611fd484828501611f9b565b91505092915050565b611fe681611be0565b82525050565b600082825260208201905092915050565b600061200882611da4565b6120128185611fec565b9350612022818560208601611dc0565b61202b81611dea565b840191505092915050565b60008115159050919050565b61204b81612036565b82525050565b600061010082019050612067600083018b611fdd565b8181036020830152612079818a611ffd565b9050818103604083015261208d8189611ffd565b905081810360608301526120a18188611ffd565b90506120b06080830187611fdd565b6120bd60a0830186612042565b81810360c08301526120cf8185611ffd565b905081810360e08301526120e38184611ffd565b90509998505050505050505050565b6000806040838503121561210957612108611bd6565b5b600061211785828601611c01565b925050602061212885828601611f9b565b9150509250929050565b60006020820190506121476000830184612042565b92915050565b600061215882611d63565b9050919050565b6121688161214d565b82525050565b6000602082019050612183600083018461215f565b92915050565b600060208201905061219e6000830184611fdd565b92915050565b600081519050919050565b600082825260208201905092915050565b6000819050602082019050919050565b6000610100830160008301516121e96000860182611c82565b5060208301516121fc6020860182611d95565b50604083015184820360408601526122148282611dfb565b9150506060830151848203606086015261222e8282611dfb565b91505060808301516122436080860182611c82565b5060a083015161225660a0860182611c82565b5060c083015161226960c0860182611c82565b5060e083015161227c60e0860182611e9c565b508091505092915050565b600061229383836121d0565b905092915050565b6000602082019050919050565b60006122b3826121a4565b6122bd81856121af565b9350836020820285016122cf856121c0565b8060005b8581101561230b57848403895281516122ec8582612287565b94506122f78361229b565b925060208a019950506001810190506122d3565b50829750879550505050505092915050565b6000602082019050818103600083015261233781846122a8565b905092915050565b600080fd5b600080fd5b7f4e487b7100000000000000000000000000000000000000000000000000000000600052604160045260246000fd5b61238182611dea565b810181811067ffffffffffffffff821117156123a05761239f612349565b5b80604052505050565b60006123b3611bcc565b90506123bf8282612378565b919050565b600067ffffffffffffffff8211156123df576123de612349565b5b6123e882611dea565b9050602081019050919050565b82818337600083830152505050565b6000612417612412846123c4565b6123a9565b90508281526020810184848401111561243357612432612344565b5b61243e8482856123f5565b509392505050565b600082601f83011261245b5761245a61233f565b5b813561246b848260208601612404565b91505092915050565b60006020828403121561248a57612489611bd6565b5b600082013567ffffffffffffffff8111156124a8576124a7611bdb565b5b6124b484828501612446565b91505092915050565b6124c68161214d565b81146124d157600080fd5b50565b6000813590506124e3816124bd565b92915050565b60008060006060848603121561250257612501611bd6565b5b6000612510868287016124d4565b935050602084013567ffffffffffffffff81111561253157612530611bdb565b5b61253d86828701612446565b925050604084013567ffffffffffffffff81111561255e5761255d611bdb565b5b61256a86828701612446565b9150509250925092565b61257d81612036565b811461258857600080fd5b50565b60008135905061259a81612574565b92915050565b600080600080600080600060e0888a0312156125bf576125be611bd6565b5b600088013567ffffffffffffffff8111156125dd576125dc611bdb565b5b6125e98a828b01612446565b975050602088013567ffffffffffffffff81111561260a57612609611bdb565b5b6126168a828b01612446565b965050604088013567ffffffffffffffff81111561263757612636611bdb565b5b6126438a828b01612446565b955050606088013567ffffffffffffffff81111561266457612663611bdb565b5b6126708a828b01612446565b945050608088013567ffffffffffffffff81111561269157612690611bdb565b5b61269d8a828b01612446565b93505060a06126ae8a828b01611c01565b92505060c06126bf8a828b0161258b565b91505092959891949750929550565b7f4e6f742061205265676973746572656420557365722100000000000000000000600082015250565b6000612704601683611fec565b915061270f826126ce565b602082019050919050565b60006020820190508181036000830152612733816126f7565b9050919050565b7f4e487b7100000000000000000000000000000000000000000000000000000000600052601160045260246000fd5b600061277482611be0565b915061277f83611be0565b92508282039050818111156127975761279661273a565b5b92915050565b60006127a882611be0565b91506127b383611be0565b92508282026127c181611be0565b915082820484148315176127d8576127d761273a565b5b5092915050565b60006127ea82611be0565b91506127f583611be0565b925082820190508082111561280d5761280c61273a565b5b92915050565b7f4e487b7100000000000000000000000000000000000000000000000000000000600052603260045260246000fd5b600061284d82611be0565b91507fffffffffffffffffffffffffffffffffffffffffffffffffffffffffffffffff820361287f5761287e61273a565b5b600182019050919050565b7f4e6f7420616e2061637469766520706f73740000000000000000000000000000600082015250565b60006128c0601283611fec565b91506128cb8261288a565b602082019050919050565b600060208201905081810360008301526128ef816128b3565b9050919050565b7f4e487b7100000000000000000000000000000000000000000000000000000000600052602260045260246000fd5b6000600282049050600182168061293d57607f821691505b6020821081036129505761294f6128f6565b5b50919050565b600081905092915050565b600061296c82611da4565b6129768185612956565b9350612986818560208601611dc0565b80840191505092915050565b600061299e8284612961565b915081905092915050565b60008190508160005260206000209050919050565b60006020601f8301049050919050565b600082821b905092915050565b600060088302612a0b7fffffffffffffffffffffffffffffffffffffffffffffffffffffffffffffffff826129ce565b612a1586836129ce565b95508019841693508086168417925050509392505050565b6000819050919050565b6000612a52612a4d612a4884611be0565b612a2d565b611be0565b9050919050565b6000819050919050565b612a6c83612a37565b612a80612a7882612a59565b8484546129db565b825550505050565b600090565b612a95612a88565b612aa0818484612a63565b505050565b5b81811015612ac457612ab9600082612a8d565b600181019050612aa6565b5050565b601f821115612b0957612ada816129a9565b612ae3846129be565b81016020851015612af2578190505b612b06612afe856129be565b830182612aa5565b50505b505050565b600082821c905092915050565b6000612b2c60001984600802612b0e565b1980831691505092915050565b6000612b458383612b1b565b9150826002028217905092915050565b612b5e82611da4565b67ffffffffffffffff811115612b7757612b76612349565b5b612b818254612925565b612b8c828285612ac8565b600060209050601f831160018114612bbf5760008415612bad578287015190505b612bb78582612b39565b865550612c1f565b601f198416612bcd866129a9565b60005b82811015612bf557848901518255600182019150602085019450602081019050612bd0565b86831015612c125784890151612c0e601f891682612b1b565b8355505b6001600288020188555050505b505050505050565b612c3081611d83565b82525050565b6000606082019050612c4b6000830186612c27565b612c586020830185611fdd565b612c656040830184611fdd565b949350505050565b7f5573657220616c72656164792072656769737465726564000000000000000000600082015250565b6000612ca3601783611fec565b9150612cae82612c6d565b602082019050919050565b60006020820190508181036000830152612cd281612c96565b9050919050565b7f557365726e616d6520616c72656164792074616b656e00000000000000000000600082015250565b6000612d0f601683611fec565b9150612d1a82612cd9565b602082019050919050565b60006020820190508181036000830152612d3e81612d02565b9050919050565b6000604082019050612d5a6000830185612c27565b612d676020830184611fdd565b939250505056fea264697066735822122030ec73a6428d3d30f09dc2817e2043e476abb656db0baa5053baab493b89f21564736f6c63430008120033",
  "linkReferences": {},
  "deployedLinkReferences": {}
}