{
  "_format": "hh-sol-artifact-1",
  "contractName": "SocialChain",
  "sourceName": "contracts/SocialChain.sol",
  "abi": [
    {
      "inputs": [],
      "stateMutability": "nonpayable",
      "type": "constructor"
    },
    {
      "anonymous": false,
      "inputs": [
        {
          "indexed": false,
          "internalType": "address",
          "name": "_author",
          "type": "address"
        },
        {
          "indexed": false,
          "internalType": "uint256",
          "name": "_commentId",
          "type": "uint256"
        },
        {
          "indexed": false,
          "internalType": "uint256",
          "name": "_postId",
          "type": "uint256"
        },
        {
          "indexed": false,
          "internalType": "uint256",
          "name": "_likeCount",
          "type": "uint256"
        },
        {
          "indexed": false,
          "internalType": "uint256",
          "name": "_reportCount",
          "type": "uint256"
        },
        {
          "indexed": false,
          "internalType": "uint256",
          "name": "_timeStamp",
          "type": "uint256"
        },
        {
          "indexed": false,
          "internalType": "string",
          "name": "_content",
          "type": "string"
        }
      ],
      "name": "logCommentCreated",
      "type": "event"
    },
    {
      "anonymous": false,
      "inputs": [
        {
          "indexed": false,
          "internalType": "address",
          "name": "_author",
          "type": "address"
        },
        {
          "indexed": false,
          "internalType": "uint256",
          "name": "_userId",
          "type": "uint256"
        },
        {
          "indexed": false,
          "internalType": "uint256",
          "name": "_postId",
          "type": "uint256"
        }
      ],
      "name": "logPostCreated",
      "type": "event"
    },
    {
      "anonymous": false,
      "inputs": [
        {
          "indexed": false,
          "internalType": "address",
          "name": "userAddress",
          "type": "address"
        },
        {
          "indexed": false,
          "internalType": "uint256",
          "name": "userId",
          "type": "uint256"
        }
      ],
      "name": "logRegisterUser",
      "type": "event"
    },
    {
      "inputs": [
        {
          "internalType": "uint256",
          "name": "_postId",
          "type": "uint256"
        },
        {
          "internalType": "string",
          "name": "_comment",
          "type": "string"
        }
      ],
      "name": "createComment",
      "outputs": [],
      "stateMutability": "nonpayable",
      "type": "function"
    },
    {
      "inputs": [
        {
          "internalType": "string",
          "name": "_postdescription",
          "type": "string"
        },
        {
          "internalType": "string",
          "name": "_imghash",
          "type": "string"
        }
      ],
      "name": "createPost",
      "outputs": [],
      "stateMutability": "nonpayable",
      "type": "function"
    },
    {
      "inputs": [
        {
          "internalType": "uint256",
          "name": "_commentId",
          "type": "uint256"
        }
      ],
      "name": "getCommentById",
      "outputs": [
        {
          "components": [
            {
              "internalType": "uint256",
              "name": "commentId",
              "type": "uint256"
            },
            {
              "internalType": "address",
              "name": "author",
              "type": "address"
            },
            {
              "internalType": "uint256",
              "name": "postId",
              "type": "uint256"
            },
            {
              "internalType": "string",
              "name": "content",
              "type": "string"
            },
            {
              "internalType": "uint256",
              "name": "likeCount",
              "type": "uint256"
            },
            {
              "internalType": "uint256",
              "name": "reportCount",
              "type": "uint256"
            },
            {
              "internalType": "uint256",
              "name": "timeStamp",
              "type": "uint256"
            },
            {
              "internalType": "enum SocialChain.commentStatus",
              "name": "status",
              "type": "uint8"
            }
          ],
          "internalType": "struct SocialChain.Comment",
          "name": "",
          "type": "tuple"
        }
      ],
      "stateMutability": "view",
      "type": "function"
    },
    {
      "inputs": [
        {
          "internalType": "uint256",
          "name": "_postId",
          "type": "uint256"
        }
      ],
      "name": "getPostById",
      "outputs": [
        {
          "components": [
            {
              "internalType": "uint256",
              "name": "postId",
              "type": "uint256"
            },
            {
              "internalType": "address",
              "name": "author",
              "type": "address"
            },
            {
              "internalType": "string",
              "name": "postDescription",
              "type": "string"
            },
            {
              "internalType": "string",
              "name": "imgHash",
              "type": "string"
            },
            {
              "internalType": "uint256",
              "name": "timeStamp",
              "type": "uint256"
            },
            {
              "internalType": "uint256",
              "name": "likeCount",
              "type": "uint256"
            },
            {
              "internalType": "uint256",
              "name": "reportCount",
              "type": "uint256"
            },
            {
              "internalType": "enum SocialChain.postStatus",
              "name": "status",
              "type": "uint8"
            }
          ],
          "internalType": "struct SocialChain.Post",
          "name": "",
          "type": "tuple"
        }
      ],
      "stateMutability": "view",
      "type": "function"
    },
    {
      "inputs": [
        {
          "internalType": "uint256",
          "name": "_listNumber",
          "type": "uint256"
        },
        {
          "internalType": "uint256",
          "name": "_commentPerList",
          "type": "uint256"
        },
        {
          "internalType": "uint256",
          "name": "_postId",
          "type": "uint256"
        }
      ],
      "name": "getPostComments",
      "outputs": [
        {
          "components": [
            {
              "internalType": "uint256",
              "name": "commentId",
              "type": "uint256"
            },
            {
              "internalType": "address",
              "name": "author",
              "type": "address"
            },
            {
              "internalType": "uint256",
              "name": "postId",
              "type": "uint256"
            },
            {
              "internalType": "string",
              "name": "content",
              "type": "string"
            },
            {
              "internalType": "uint256",
              "name": "likeCount",
              "type": "uint256"
            },
            {
              "internalType": "uint256",
              "name": "reportCount",
              "type": "uint256"
            },
            {
              "internalType": "uint256",
              "name": "timeStamp",
              "type": "uint256"
            },
            {
              "internalType": "enum SocialChain.commentStatus",
              "name": "status",
              "type": "uint8"
            }
          ],
          "internalType": "struct SocialChain.Comment[]",
          "name": "",
          "type": "tuple[]"
        }
      ],
      "stateMutability": "view",
      "type": "function"
    },
    {
      "inputs": [
        {
          "internalType": "uint256",
          "name": "_page",
          "type": "uint256"
        },
        {
          "internalType": "uint256",
          "name": "_perPage",
          "type": "uint256"
        }
      ],
      "name": "getPostIds",
      "outputs": [
        {
          "internalType": "uint256[]",
          "name": "",
          "type": "uint256[]"
        }
      ],
      "stateMutability": "view",
      "type": "function"
    },
    {
      "inputs": [
        {
          "internalType": "address",
          "name": "accountAddress",
          "type": "address"
        }
      ],
      "name": "getUser",
      "outputs": [
        {
          "internalType": "uint256",
          "name": "id",
          "type": "uint256"
        },
        {
          "internalType": "string",
          "name": "userName",
          "type": "string"
        },
        {
          "internalType": "string",
          "name": "name",
          "type": "string"
        },
        {
          "internalType": "string",
          "name": "bio",
          "type": "string"
        },
        {
          "internalType": "uint256",
          "name": "birthDate",
          "type": "uint256"
        },
        {
          "internalType": "bool",
          "name": "showUsername",
          "type": "bool"
        },
        {
          "internalType": "string",
          "name": "imageHash",
          "type": "string"
        },
        {
          "internalType": "string",
          "name": "coverHash",
          "type": "string"
        }
      ],
      "stateMutability": "view",
      "type": "function"
    },
    {
      "inputs": [
        {
          "internalType": "address",
          "name": "_userAddress",
          "type": "address"
        }
      ],
      "name": "getUserPosts",
      "outputs": [
        {
          "components": [
            {
              "internalType": "uint256",
              "name": "postId",
              "type": "uint256"
            },
            {
              "internalType": "address",
              "name": "author",
              "type": "address"
            },
            {
              "internalType": "string",
              "name": "postDescription",
              "type": "string"
            },
            {
              "internalType": "string",
              "name": "imgHash",
              "type": "string"
            },
            {
              "internalType": "uint256",
              "name": "timeStamp",
              "type": "uint256"
            },
            {
              "internalType": "uint256",
              "name": "likeCount",
              "type": "uint256"
            },
            {
              "internalType": "uint256",
              "name": "reportCount",
              "type": "uint256"
            },
            {
              "internalType": "enum SocialChain.postStatus",
              "name": "status",
              "type": "uint8"
            }
          ],
          "internalType": "struct SocialChain.Post[]",
          "name": "",
          "type": "tuple[]"
        }
      ],
      "stateMutability": "view",
      "type": "function"
    },
    {
      "inputs": [
        {
          "internalType": "uint256",
          "name": "_postId",
          "type": "uint256"
        },
        {
          "internalType": "address",
          "name": "_userAddress",
          "type": "address"
        }
      ],
      "name": "isLikedByAddress",
      "outputs": [
        {
          "internalType": "bool",
          "name": "",
          "type": "bool"
        }
      ],
      "stateMutability": "view",
      "type": "function"
    },
    {
      "inputs": [
        {
          "internalType": "uint256",
          "name": "_postId",
          "type": "uint256"
        }
      ],
      "name": "likePost",
      "outputs": [],
      "stateMutability": "nonpayable",
      "type": "function"
    },
    {
      "inputs": [],
      "name": "owner",
      "outputs": [
        {
          "internalType": "address payable",
          "name": "",
          "type": "address"
        }
      ],
      "stateMutability": "view",
      "type": "function"
    },
    {
      "inputs": [
        {
          "internalType": "string",
          "name": "_username",
          "type": "string"
        },
        {
          "internalType": "string",
          "name": "_name",
          "type": "string"
        },
        {
          "internalType": "string",
          "name": "_imgHash",
          "type": "string"
        },
        {
          "internalType": "string",
          "name": "_coverHash",
          "type": "string"
        },
        {
          "internalType": "string",
          "name": "_bio",
          "type": "string"
        },
        {
          "internalType": "uint256",
          "name": "birthDate",
          "type": "uint256"
        },
        {
          "internalType": "bool",
          "name": "showUserName",
          "type": "bool"
        }
      ],
      "name": "registerUser",
      "outputs": [],
      "stateMutability": "nonpayable",
      "type": "function"
    },
    {
      "inputs": [],
      "name": "totalComments",
      "outputs": [
        {
          "internalType": "uint256",
          "name": "",
          "type": "uint256"
        }
      ],
      "stateMutability": "view",
      "type": "function"
    },
    {
      "inputs": [],
      "name": "totalPosts",
      "outputs": [
        {
          "internalType": "uint256",
          "name": "",
          "type": "uint256"
        }
      ],
      "stateMutability": "view",
      "type": "function"
    },
    {
      "inputs": [],
      "name": "totalUsers",
      "outputs": [
        {
          "internalType": "uint256",
          "name": "",
          "type": "uint256"
        }
      ],
      "stateMutability": "view",
      "type": "function"
    },
    {
      "inputs": [
        {
          "internalType": "uint256",
          "name": "_postId",
          "type": "uint256"
        }
      ],
      "name": "unLikePost",
      "outputs": [],
      "stateMutability": "nonpayable",
      "type": "function"
    },
    {
      "inputs": [
        {
          "internalType": "string",
          "name": "_username",
          "type": "string"
        }
      ],
      "name": "userNameAvailable",
      "outputs": [
        {
          "internalType": "bool",
          "name": "status",
          "type": "bool"
        }
      ],
      "stateMutability": "view",
      "type": "function"
    }
  ],
  "bytecode": "0x60806040526000600155600060025560006003553480156200002057600080fd5b50336000806101000a81548173ffffffffffffffffffffffffffffffffffffffff021916908373ffffffffffffffffffffffffffffffffffffffff160217905550620001366040518060400160405280600581526020017f6f776e65720000000000000000000000000000000000000000000000000000008152506040518060400160405280600581526020017f6f776e657200000000000000000000000000000000000000000000000000000081525060405180602001604052806000815250604051806020016040528060008152506040518060400160405280600581526020017f6f776e65720000000000000000000000000000000000000000000000000000008152506001806200013c60201b60201c565b62000b41565b336000600381111562000154576200015362000548565b5b600560008373ffffffffffffffffffffffffffffffffffffffff1673ffffffffffffffffffffffffffffffffffffffff16815260200190815260200160002060090160009054906101000a900460ff166003811115620001b957620001b862000548565b5b14620001fc576040517f08c379a0000000000000000000000000000000000000000000000000000000008152600401620001f390620005d8565b60405180910390fd5b876007816040516200020f919062000673565b908152602001604051809103902060009054906101000a900460ff16156200026e576040517f08c379a00000000000000000000000000000000000000000000000000000000081526004016200026590620006dc565b60405180910390fd5b600160078a60405162000282919062000673565b908152602001604051809103902060006101000a81548160ff02191690831515021790555060018054620002b7919062000737565b600181905550600060015490506040518061014001604052808281526020013373ffffffffffffffffffffffffffffffffffffffff1681526020018b81526020018a815260200187815260200186815260200185151581526020018981526020018881526020016001600381111562000335576200033462000548565b5b815250600560003373ffffffffffffffffffffffffffffffffffffffff1673ffffffffffffffffffffffffffffffffffffffff1681526020019081526020016000206000820151816000015560208201518160010160006101000a81548173ffffffffffffffffffffffffffffffffffffffff021916908373ffffffffffffffffffffffffffffffffffffffff1602179055506040820151816002019081620003df9190620009d7565b506060820151816003019081620003f79190620009d7565b5060808201518160040190816200040f9190620009d7565b5060a0820151816005015560c08201518160060160006101000a81548160ff02191690831515021790555060e0820151816007019081620004519190620009d7565b506101008201518160080190816200046a9190620009d7565b506101208201518160090160006101000a81548160ff021916908360038111156200049a576200049962000548565b5b02179055509050503360068b604051620004b5919062000673565b908152602001604051809103902060006101000a81548173ffffffffffffffffffffffffffffffffffffffff021916908373ffffffffffffffffffffffffffffffffffffffff1602179055507fabc58c36475157c4ac7669f9adfbb6f254d3a3578fb89676f6866ac3b9950eed33826040516200053492919062000b14565b60405180910390a150505050505050505050565b7f4e487b7100000000000000000000000000000000000000000000000000000000600052602160045260246000fd5b600082825260208201905092915050565b7f5573657220616c72656164792072656769737465726564000000000000000000600082015250565b6000620005c060178362000577565b9150620005cd8262000588565b602082019050919050565b60006020820190508181036000830152620005f381620005b1565b9050919050565b600081519050919050565b600081905092915050565b60005b838110156200063057808201518184015260208101905062000613565b60008484015250505050565b60006200064982620005fa565b62000655818562000605565b93506200066781856020860162000610565b80840191505092915050565b60006200068182846200063c565b915081905092915050565b7f557365726e616d6520616c72656164792074616b656e00000000000000000000600082015250565b6000620006c460168362000577565b9150620006d1826200068c565b602082019050919050565b60006020820190508181036000830152620006f781620006b5565b9050919050565b6000819050919050565b7f4e487b7100000000000000000000000000000000000000000000000000000000600052601160045260246000fd5b60006200074482620006fe565b91506200075183620006fe565b92508282019050808211156200076c576200076b62000708565b5b92915050565b7f4e487b7100000000000000000000000000000000000000000000000000000000600052604160045260246000fd5b7f4e487b7100000000000000000000000000000000000000000000000000000000600052602260045260246000fd5b60006002820490506001821680620007e957607f821691505b602082108103620007ff57620007fe620007a1565b5b50919050565b60008190508160005260206000209050919050565b60006020601f8301049050919050565b600082821b905092915050565b600060088302620008697fffffffffffffffffffffffffffffffffffffffffffffffffffffffffffffffff826200082a565b6200087586836200082a565b95508019841693508086168417925050509392505050565b6000819050919050565b6000620008b8620008b2620008ac84620006fe565b6200088d565b620006fe565b9050919050565b6000819050919050565b620008d48362000897565b620008ec620008e382620008bf565b84845462000837565b825550505050565b600090565b62000903620008f4565b62000910818484620008c9565b505050565b5b8181101562000938576200092c600082620008f9565b60018101905062000916565b5050565b601f8211156200098757620009518162000805565b6200095c846200081a565b810160208510156200096c578190505b620009846200097b856200081a565b83018262000915565b50505b505050565b600082821c905092915050565b6000620009ac600019846008026200098c565b1980831691505092915050565b6000620009c7838362000999565b9150826002028217905092915050565b620009e282620005fa565b67ffffffffffffffff811115620009fe57620009fd62000772565b5b62000a0a8254620007d0565b62000a178282856200093c565b600060209050601f83116001811462000a4f576000841562000a3a578287015190505b62000a468582620009b9565b86555062000ab6565b601f19841662000a5f8662000805565b60005b8281101562000a895784890151825560018201915060208501945060208101905062000a62565b8683101562000aa9578489015162000aa5601f89168262000999565b8355505b6001600288020188555050505b505050505050565b600073ffffffffffffffffffffffffffffffffffffffff82169050919050565b600062000aeb8262000abe565b9050919050565b62000afd8162000ade565b82525050565b62000b0e81620006fe565b82525050565b600060408201905062000b2b600083018562000af2565b62000b3a602083018462000b03565b9392505050565b6140598062000b516000396000f3fe608060405234801561001057600080fd5b506004361061010b5760003560e01c8063725009d3116100a25780639a2194a9116100715780639a2194a9146102d1578063b90c207314610301578063bebce30014610331578063bff1f9e114610361578063f82217c11461037f5761010b565b8063725009d314610249578063875003aa146102655780638da5cb5b146102955780638e53fb41146102b35761010b565b806361936b81116100de57806361936b811461019457806364e95895146101b25780636c43dbb4146101e25780636f77926b146102125761010b565b80632f4992ef14610110578063392338f51461012c57806340a179851461014857806349e0350214610164575b600080fd5b61012a60048036038101906101259190612a24565b61039b565b005b61014660048036038101906101419190612b97565b6105ef565b005b610162600480360381019061015d9190612c0f565b61091a565b005b61017e60048036038101906101799190612c6b565b610c81565b60405161018b9190612d69565b60405180910390f35b61019c610e4c565b6040516101a99190612d9a565b60405180910390f35b6101cc60048036038101906101c79190612a24565b610e52565b6040516101d99190612fa3565b60405180910390f35b6101fc60048036038101906101f79190612a24565b6111a1565b60405161020991906130bd565b60405180910390f35b61022c6004803603810190610227919061310b565b611468565b60405161024098979695949392919061319d565b60405180910390f35b610263600480360381019061025e9190612a24565b6118a3565b005b61027f600480360381019061027a919061323e565b611af8565b60405161028c919061327e565b60405180910390f35b61029d611ca4565b6040516102aa91906132ba565b60405180910390f35b6102bb611cc8565b6040516102c89190612d9a565b60405180910390f35b6102eb60048036038101906102e6919061310b565b611cce565b6040516102f8919061344e565b60405180910390f35b61031b60048036038101906103169190613470565b6120d1565b604051610328919061327e565b60405180910390f35b61034b600480360381019061034691906134b9565b612107565b604051610358919061367e565b60405180910390f35b610369612514565b6040516103769190612d9a565b60405180910390f35b610399600480360381019061039491906136cc565b61251a565b005b33600160038111156103b0576103af612e75565b5b600560008373ffffffffffffffffffffffffffffffffffffffff1673ffffffffffffffffffffffffffffffffffffffff16815260200190815260200160002060090160009054906101000a900460ff16600381111561041257610411612e75565b5b14610452576040517f08c379a000000000000000000000000000000000000000000000000000000000815260040161044990613846565b60405180910390fd5b816001600381111561046757610466612e75565b5b6008600083815260200190815260200160002060070160009054906101000a900460ff16600381111561049d5761049c612e75565b5b146104dd576040517f08c379a00000000000000000000000000000000000000000000000000000000081526004016104d4906138b2565b60405180910390fd5b600a600084815260200190815260200160002060003373ffffffffffffffffffffffffffffffffffffffff1673ffffffffffffffffffffffffffffffffffffffff16815260200190815260200160002060009054906101000a900460ff1661054457600080fd5b600160086000858152602001908152602001600020600501546105679190613901565b60086000858152602001908152602001600020600501819055506000600a600085815260200190815260200160002060003373ffffffffffffffffffffffffffffffffffffffff1673ffffffffffffffffffffffffffffffffffffffff16815260200190815260200160002060006101000a81548160ff021916908315150217905550505050565b336001600381111561060457610603612e75565b5b600560008373ffffffffffffffffffffffffffffffffffffffff1673ffffffffffffffffffffffffffffffffffffffff16815260200190815260200160002060090160009054906101000a900460ff16600381111561066657610665612e75565b5b146106a6576040517f08c379a000000000000000000000000000000000000000000000000000000000815260040161069d90613846565b60405180910390fd5b60016002546106b59190613935565b600281905550600060025490506040518061010001604052808281526020013373ffffffffffffffffffffffffffffffffffffffff16815260200185815260200184815260200142815260200160008152602001600081526020016001600381111561072457610723612e75565b5b815250600860008381526020019081526020016000206000820151816000015560208201518160010160006101000a81548173ffffffffffffffffffffffffffffffffffffffff021916908373ffffffffffffffffffffffffffffffffffffffff16021790555060408201518160020190816107a09190613b75565b5060608201518160030190816107b69190613b75565b506080820151816004015560a0820151816005015560c0820151816006015560e08201518160070160006101000a81548160ff02191690836003811115610800576107ff612e75565b5b0217905550905050600960003373ffffffffffffffffffffffffffffffffffffffff1673ffffffffffffffffffffffffffffffffffffffff16815260200190815260200160002081908060018154018082558091505060019003906000526020600020016000909190919091505560048190806001815401808255809150506001900390600052602060002001600090919091909150557fe78603dea3231b9ac9a73b3663b6e28de19f35247e2c32f0115ec263bdc7c49a33600560003373ffffffffffffffffffffffffffffffffffffffff1673ffffffffffffffffffffffffffffffffffffffff168152602001908152602001600020600001548360405161090c93929190613c56565b60405180910390a150505050565b336001600381111561092f5761092e612e75565b5b600560008373ffffffffffffffffffffffffffffffffffffffff1673ffffffffffffffffffffffffffffffffffffffff16815260200190815260200160002060090160009054906101000a900460ff16600381111561099157610990612e75565b5b146109d1576040517f08c379a00000000000000000000000000000000000000000000000000000000081526004016109c890613846565b60405180910390fd5b82600160038111156109e6576109e5612e75565b5b6008600083815260200190815260200160002060070160009054906101000a900460ff166003811115610a1c57610a1b612e75565b5b14610a5c576040517f08c379a0000000000000000000000000000000000000000000000000000000008152600401610a53906138b2565b60405180910390fd5b60008390506000815103610aa5576040517f08c379a0000000000000000000000000000000000000000000000000000000008152600401610a9c90613cd9565b60405180910390fd5b6001600354610ab49190613935565b600381905550600060035490506040518061010001604052808281526020013373ffffffffffffffffffffffffffffffffffffffff168152602001878152602001868152602001600081526020016000815260200142815260200160016003811115610b2357610b22612e75565b5b815250600b60008381526020019081526020016000206000820151816000015560208201518160010160006101000a81548173ffffffffffffffffffffffffffffffffffffffff021916908373ffffffffffffffffffffffffffffffffffffffff160217905550604082015181600201556060820151816003019081610ba99190613b75565b506080820151816004015560a0820151816005015560c0820151816006015560e08201518160070160006101000a81548160ff02191690836003811115610bf357610bf2612e75565b5b0217905550905050600d60008781526020019081526020016000208190806001815401808255809150506001900390600052602060002001600090919091909150557f50621ca627228f52152f460ce13adf4d014aeb126e3faa26d112c10b0bb43a13338288600080428b604051610c719796959493929190613d34565b60405180910390a1505050505050565b60603360016003811115610c9857610c97612e75565b5b600560008373ffffffffffffffffffffffffffffffffffffffff1673ffffffffffffffffffffffffffffffffffffffff16815260200190815260200160002060090160009054906101000a900460ff166003811115610cfa57610cf9612e75565b5b14610d3a576040517f08c379a0000000000000000000000000000000000000000000000000000000008152600401610d3190613846565b60405180910390fd5b600083600186610d4a9190613901565b610d549190613daa565b905060008482610d649190613935565b9050600480549050811115610d7c5760048054905090505b60008282610d8a9190613901565b67ffffffffffffffff811115610da357610da2612a6c565b5b604051908082528060200260200182016040528015610dd15781602001602082028036833780820191505090505b50905060008390505b82811015610e3e5760048181548110610df657610df5613dec565b5b9060005260206000200154828583610e0e9190613901565b81518110610e1f57610e1e613dec565b5b6020026020010181815250508080610e3690613e1b565b915050610dda565b508094505050505092915050565b60035481565b610e5a612900565b3360016003811115610e6f57610e6e612e75565b5b600560008373ffffffffffffffffffffffffffffffffffffffff1673ffffffffffffffffffffffffffffffffffffffff16815260200190815260200160002060090160009054906101000a900460ff166003811115610ed157610ed0612e75565b5b14610f11576040517f08c379a0000000000000000000000000000000000000000000000000000000008152600401610f0890613846565b60405180910390fd5b8260016003811115610f2657610f25612e75565b5b6008600083815260200190815260200160002060070160009054906101000a900460ff166003811115610f5c57610f5b612e75565b5b14610f9c576040517f08c379a0000000000000000000000000000000000000000000000000000000008152600401610f93906138b2565b60405180910390fd5b6008600085815260200190815260200160002060405180610100016040529081600082015481526020016001820160009054906101000a900473ffffffffffffffffffffffffffffffffffffffff1673ffffffffffffffffffffffffffffffffffffffff1673ffffffffffffffffffffffffffffffffffffffff16815260200160028201805461102b90613998565b80601f016020809104026020016040519081016040528092919081815260200182805461105790613998565b80156110a45780601f10611079576101008083540402835291602001916110a4565b820191906000526020600020905b81548152906001019060200180831161108757829003601f168201915b505050505081526020016003820180546110bd90613998565b80601f01602080910402602001604051908101604052809291908181526020018280546110e990613998565b80156111365780601f1061110b57610100808354040283529160200191611136565b820191906000526020600020905b81548152906001019060200180831161111957829003601f168201915b505050505081526020016004820154815260200160058201548152602001600682015481526020016007820160009054906101000a900460ff16600381111561118257611181612e75565b5b600381111561119457611193612e75565b5b8152505092505050919050565b6111a961296d565b33600160038111156111be576111bd612e75565b5b600560008373ffffffffffffffffffffffffffffffffffffffff1673ffffffffffffffffffffffffffffffffffffffff16815260200190815260200160002060090160009054906101000a900460ff1660038111156112205761121f612e75565b5b14611260576040517f08c379a000000000000000000000000000000000000000000000000000000000815260040161125790613846565b60405180910390fd5b826001600381111561127557611274612e75565b5b600b600083815260200190815260200160002060070160009054906101000a900460ff1660038111156112ab576112aa612e75565b5b146112eb576040517f08c379a00000000000000000000000000000000000000000000000000000000081526004016112e290613eaf565b60405180910390fd5b600b600085815260200190815260200160002060405180610100016040529081600082015481526020016001820160009054906101000a900473ffffffffffffffffffffffffffffffffffffffff1673ffffffffffffffffffffffffffffffffffffffff1673ffffffffffffffffffffffffffffffffffffffff1681526020016002820154815260200160038201805461138490613998565b80601f01602080910402602001604051908101604052809291908181526020018280546113b090613998565b80156113fd5780601f106113d2576101008083540402835291602001916113fd565b820191906000526020600020905b8154815290600101906020018083116113e057829003601f168201915b505050505081526020016004820154815260200160058201548152602001600682015481526020016007820160009054906101000a900460ff16600381111561144957611448612e75565b5b600381111561145b5761145a612e75565b5b8152505092505050919050565b600060608060606000806060806000600560008b73ffffffffffffffffffffffffffffffffffffffff1673ffffffffffffffffffffffffffffffffffffffff16815260200190815260200160002060405180610140016040529081600082015481526020016001820160009054906101000a900473ffffffffffffffffffffffffffffffffffffffff1673ffffffffffffffffffffffffffffffffffffffff1673ffffffffffffffffffffffffffffffffffffffff16815260200160028201805461153290613998565b80601f016020809104026020016040519081016040528092919081815260200182805461155e90613998565b80156115ab5780601f10611580576101008083540402835291602001916115ab565b820191906000526020600020905b81548152906001019060200180831161158e57829003601f168201915b505050505081526020016003820180546115c490613998565b80601f01602080910402602001604051908101604052809291908181526020018280546115f090613998565b801561163d5780601f106116125761010080835404028352916020019161163d565b820191906000526020600020905b81548152906001019060200180831161162057829003601f168201915b5050505050815260200160048201805461165690613998565b80601f016020809104026020016040519081016040528092919081815260200182805461168290613998565b80156116cf5780601f106116a4576101008083540402835291602001916116cf565b820191906000526020600020905b8154815290600101906020018083116116b257829003601f168201915b50505050508152602001600582015481526020016006820160009054906101000a900460ff1615151515815260200160078201805461170d90613998565b80601f016020809104026020016040519081016040528092919081815260200182805461173990613998565b80156117865780601f1061175b57610100808354040283529160200191611786565b820191906000526020600020905b81548152906001019060200180831161176957829003601f168201915b5050505050815260200160088201805461179f90613998565b80601f01602080910402602001604051908101604052809291908181526020018280546117cb90613998565b80156118185780601f106117ed57610100808354040283529160200191611818565b820191906000526020600020905b8154815290600101906020018083116117fb57829003601f168201915b505050505081526020016009820160009054906101000a900460ff16600381111561184657611845612e75565b5b600381111561185857611857612e75565b5b81525050905080600001518160400151826060015183608001518460a001518560c001518660e001518761010001519850985098509850985098509850985050919395975091939597565b33600160038111156118b8576118b7612e75565b5b600560008373ffffffffffffffffffffffffffffffffffffffff1673ffffffffffffffffffffffffffffffffffffffff16815260200190815260200160002060090160009054906101000a900460ff16600381111561191a57611919612e75565b5b1461195a576040517f08c379a000000000000000000000000000000000000000000000000000000000815260040161195190613846565b60405180910390fd5b816001600381111561196f5761196e612e75565b5b6008600083815260200190815260200160002060070160009054906101000a900460ff1660038111156119a5576119a4612e75565b5b146119e5576040517f08c379a00000000000000000000000000000000000000000000000000000000081526004016119dc906138b2565b60405180910390fd5b600a600084815260200190815260200160002060003373ffffffffffffffffffffffffffffffffffffffff1673ffffffffffffffffffffffffffffffffffffffff16815260200190815260200160002060009054906101000a900460ff1615611a4d57600080fd5b60016008600085815260200190815260200160002060050154611a709190613935565b60086000858152602001908152602001600020600501819055506001600a600085815260200190815260200160002060003373ffffffffffffffffffffffffffffffffffffffff1673ffffffffffffffffffffffffffffffffffffffff16815260200190815260200160002060006101000a81548160ff021916908315150217905550505050565b60008260016003811115611b0f57611b0e612e75565b5b6008600083815260200190815260200160002060070160009054906101000a900460ff166003811115611b4557611b44612e75565b5b14611b85576040517f08c379a0000000000000000000000000000000000000000000000000000000008152600401611b7c906138b2565b60405180910390fd5b8260016003811115611b9a57611b99612e75565b5b600560008373ffffffffffffffffffffffffffffffffffffffff1673ffffffffffffffffffffffffffffffffffffffff16815260200190815260200160002060090160009054906101000a900460ff166003811115611bfc57611bfb612e75565b5b14611c3c576040517f08c379a0000000000000000000000000000000000000000000000000000000008152600401611c3390613846565b60405180910390fd5b600a600086815260200190815260200160002060008573ffffffffffffffffffffffffffffffffffffffff1673ffffffffffffffffffffffffffffffffffffffff16815260200190815260200160002060009054906101000a900460ff169250505092915050565b60008054906101000a900473ffffffffffffffffffffffffffffffffffffffff1681565b60025481565b60603360016003811115611ce557611ce4612e75565b5b600560008373ffffffffffffffffffffffffffffffffffffffff1673ffffffffffffffffffffffffffffffffffffffff16815260200190815260200160002060090160009054906101000a900460ff166003811115611d4757611d46612e75565b5b14611d87576040517f08c379a0000000000000000000000000000000000000000000000000000000008152600401611d7e90613846565b60405180910390fd5b6000600960008573ffffffffffffffffffffffffffffffffffffffff1673ffffffffffffffffffffffffffffffffffffffff168152602001908152602001600020805480602002602001604051908101604052809291908181526020018280548015611e1257602002820191906000526020600020905b815481526020019060010190808311611dfe575b505050505090506000815167ffffffffffffffff811115611e3657611e35612a6c565b5b604051908082528060200260200182016040528015611e6f57816020015b611e5c612900565b815260200190600190039081611e545790505b50905060005b82518110156120c55760086000848381518110611e9557611e94613dec565b5b6020026020010151815260200190815260200160002060405180610100016040529081600082015481526020016001820160009054906101000a900473ffffffffffffffffffffffffffffffffffffffff1673ffffffffffffffffffffffffffffffffffffffff1673ffffffffffffffffffffffffffffffffffffffff168152602001600282018054611f2790613998565b80601f0160208091040260200160405190810160405280929190818152602001828054611f5390613998565b8015611fa05780601f10611f7557610100808354040283529160200191611fa0565b820191906000526020600020905b815481529060010190602001808311611f8357829003601f168201915b50505050508152602001600382018054611fb990613998565b80601f0160208091040260200160405190810160405280929190818152602001828054611fe590613998565b80156120325780601f1061200757610100808354040283529160200191612032565b820191906000526020600020905b81548152906001019060200180831161201557829003601f168201915b505050505081526020016004820154815260200160058201548152602001600682015481526020016007820160009054906101000a900460ff16600381111561207e5761207d612e75565b5b60038111156120905761208f612e75565b5b815250508282815181106120a7576120a6613dec565b5b602002602001018190525080806120bd90613e1b565b915050611e75565b50809350505050919050565b60006007826040516120e39190613f0b565b908152602001604051809103902060009054906101000a900460ff16159050919050565b6060336001600381111561211e5761211d612e75565b5b600560008373ffffffffffffffffffffffffffffffffffffffff1673ffffffffffffffffffffffffffffffffffffffff16815260200190815260200160002060090160009054906101000a900460ff1660038111156121805761217f612e75565b5b146121c0576040517f08c379a00000000000000000000000000000000000000000000000000000000081526004016121b790613846565b60405180910390fd5b82600160038111156121d5576121d4612e75565b5b6008600083815260200190815260200160002060070160009054906101000a900460ff16600381111561220b5761220a612e75565b5b1461224b576040517f08c379a0000000000000000000000000000000000000000000000000000000008152600401612242906138b2565b60405180910390fd5b60008560018861225b9190613901565b6122659190613daa565b9050600086826122759190613935565b9050600d6000878152602001908152602001600020805490508111156122af57600d60008781526020019081526020016000208054905090505b600082826122bd9190613901565b67ffffffffffffffff8111156122d6576122d5612a6c565b5b60405190808252806020026020018201604052801561230f57816020015b6122fc61296d565b8152602001906001900390816122f45790505b5090506000808490505b8381101561250357600d60008a8152602001908152602001600020818154811061234657612345613dec565b5b90600052602060002001549150600b600083815260200190815260200160002060405180610100016040529081600082015481526020016001820160009054906101000a900473ffffffffffffffffffffffffffffffffffffffff1673ffffffffffffffffffffffffffffffffffffffff1673ffffffffffffffffffffffffffffffffffffffff168152602001600282015481526020016003820180546123ec90613998565b80601f016020809104026020016040519081016040528092919081815260200182805461241890613998565b80156124655780601f1061243a57610100808354040283529160200191612465565b820191906000526020600020905b81548152906001019060200180831161244857829003601f168201915b505050505081526020016004820154815260200160058201548152602001600682015481526020016007820160009054906101000a900460ff1660038111156124b1576124b0612e75565b5b60038111156124c3576124c2612e75565b5b815250508386836124d49190613901565b815181106124e5576124e4613dec565b5b602002602001018190525080806124fb90613e1b565b915050612319565b508196505050505050509392505050565b60015481565b336000600381111561252f5761252e612e75565b5b600560008373ffffffffffffffffffffffffffffffffffffffff1673ffffffffffffffffffffffffffffffffffffffff16815260200190815260200160002060090160009054906101000a900460ff16600381111561259157612590612e75565b5b146125d1576040517f08c379a00000000000000000000000000000000000000000000000000000000081526004016125c890613f6e565b60405180910390fd5b876007816040516125e29190613f0b565b908152602001604051809103902060009054906101000a900460ff161561263e576040517f08c379a000000000000000000000000000000000000000000000000000000000815260040161263590613fda565b60405180910390fd5b600160078a6040516126509190613f0b565b908152602001604051809103902060006101000a81548160ff021916908315150217905550600180546126839190613935565b600181905550600060015490506040518061014001604052808281526020013373ffffffffffffffffffffffffffffffffffffffff1681526020018b81526020018a81526020018781526020018681526020018515158152602001898152602001888152602001600160038111156126fe576126fd612e75565b5b815250600560003373ffffffffffffffffffffffffffffffffffffffff1673ffffffffffffffffffffffffffffffffffffffff1681526020019081526020016000206000820151816000015560208201518160010160006101000a81548173ffffffffffffffffffffffffffffffffffffffff021916908373ffffffffffffffffffffffffffffffffffffffff16021790555060408201518160020190816127a69190613b75565b5060608201518160030190816127bc9190613b75565b5060808201518160040190816127d29190613b75565b5060a0820151816005015560c08201518160060160006101000a81548160ff02191690831515021790555060e08201518160070190816128129190613b75565b506101008201518160080190816128299190613b75565b506101208201518160090160006101000a81548160ff0219169083600381111561285657612855612e75565b5b02179055509050503360068b60405161286f9190613f0b565b908152602001604051809103902060006101000a81548173ffffffffffffffffffffffffffffffffffffffff021916908373ffffffffffffffffffffffffffffffffffffffff1602179055507fabc58c36475157c4ac7669f9adfbb6f254d3a3578fb89676f6866ac3b9950eed33826040516128ec929190613ffa565b60405180910390a150505050505050505050565b60405180610100016040528060008152602001600073ffffffffffffffffffffffffffffffffffffffff16815260200160608152602001606081526020016000815260200160008152602001600081526020016000600381111561296757612966612e75565b5b81525090565b60405180610100016040528060008152602001600073ffffffffffffffffffffffffffffffffffffffff1681526020016000815260200160608152602001600081526020016000815260200160008152602001600060038111156129d4576129d3612e75565b5b81525090565b6000604051905090565b600080fd5b600080fd5b6000819050919050565b612a01816129ee565b8114612a0c57600080fd5b50565b600081359050612a1e816129f8565b92915050565b600060208284031215612a3a57612a396129e4565b5b6000612a4884828501612a0f565b91505092915050565b600080fd5b600080fd5b6000601f19601f8301169050919050565b7f4e487b7100000000000000000000000000000000000000000000000000000000600052604160045260246000fd5b612aa482612a5b565b810181811067ffffffffffffffff82111715612ac357612ac2612a6c565b5b80604052505050565b6000612ad66129da565b9050612ae28282612a9b565b919050565b600067ffffffffffffffff821115612b0257612b01612a6c565b5b612b0b82612a5b565b9050602081019050919050565b82818337600083830152505050565b6000612b3a612b3584612ae7565b612acc565b905082815260208101848484011115612b5657612b55612a56565b5b612b61848285612b18565b509392505050565b600082601f830112612b7e57612b7d612a51565b5b8135612b8e848260208601612b27565b91505092915050565b60008060408385031215612bae57612bad6129e4565b5b600083013567ffffffffffffffff811115612bcc57612bcb6129e9565b5b612bd885828601612b69565b925050602083013567ffffffffffffffff811115612bf957612bf86129e9565b5b612c0585828601612b69565b9150509250929050565b60008060408385031215612c2657612c256129e4565b5b6000612c3485828601612a0f565b925050602083013567ffffffffffffffff811115612c5557612c546129e9565b5b612c6185828601612b69565b9150509250929050565b60008060408385031215612c8257612c816129e4565b5b6000612c9085828601612a0f565b9250506020612ca185828601612a0f565b9150509250929050565b600081519050919050565b600082825260208201905092915050565b6000819050602082019050919050565b612ce0816129ee565b82525050565b6000612cf28383612cd7565b60208301905092915050565b6000602082019050919050565b6000612d1682612cab565b612d208185612cb6565b9350612d2b83612cc7565b8060005b83811015612d5c578151612d438882612ce6565b9750612d4e83612cfe565b925050600181019050612d2f565b5085935050505092915050565b60006020820190508181036000830152612d838184612d0b565b905092915050565b612d94816129ee565b82525050565b6000602082019050612daf6000830184612d8b565b92915050565b600073ffffffffffffffffffffffffffffffffffffffff82169050919050565b6000612de082612db5565b9050919050565b612df081612dd5565b82525050565b600081519050919050565b600082825260208201905092915050565b60005b83811015612e30578082015181840152602081019050612e15565b60008484015250505050565b6000612e4782612df6565b612e518185612e01565b9350612e61818560208601612e12565b612e6a81612a5b565b840191505092915050565b7f4e487b7100000000000000000000000000000000000000000000000000000000600052602160045260246000fd5b60048110612eb557612eb4612e75565b5b50565b6000819050612ec682612ea4565b919050565b6000612ed682612eb8565b9050919050565b612ee681612ecb565b82525050565b600061010083016000830151612f056000860182612cd7565b506020830151612f186020860182612de7565b5060408301518482036040860152612f308282612e3c565b91505060608301518482036060860152612f4a8282612e3c565b9150506080830151612f5f6080860182612cd7565b5060a0830151612f7260a0860182612cd7565b5060c0830151612f8560c0860182612cd7565b5060e0830151612f9860e0860182612edd565b508091505092915050565b60006020820190508181036000830152612fbd8184612eec565b905092915050565b60048110612fd657612fd5612e75565b5b50565b6000819050612fe782612fc5565b919050565b6000612ff782612fd9565b9050919050565b61300781612fec565b82525050565b6000610100830160008301516130266000860182612cd7565b5060208301516130396020860182612de7565b50604083015161304c6040860182612cd7565b50606083015184820360608601526130648282612e3c565b91505060808301516130796080860182612cd7565b5060a083015161308c60a0860182612cd7565b5060c083015161309f60c0860182612cd7565b5060e08301516130b260e0860182612ffe565b508091505092915050565b600060208201905081810360008301526130d7818461300d565b905092915050565b6130e881612dd5565b81146130f357600080fd5b50565b600081359050613105816130df565b92915050565b600060208284031215613121576131206129e4565b5b600061312f848285016130f6565b91505092915050565b600082825260208201905092915050565b600061315482612df6565b61315e8185613138565b935061316e818560208601612e12565b61317781612a5b565b840191505092915050565b60008115159050919050565b61319781613182565b82525050565b6000610100820190506131b3600083018b612d8b565b81810360208301526131c5818a613149565b905081810360408301526131d98189613149565b905081810360608301526131ed8188613149565b90506131fc6080830187612d8b565b61320960a083018661318e565b81810360c083015261321b8185613149565b905081810360e083015261322f8184613149565b90509998505050505050505050565b60008060408385031215613255576132546129e4565b5b600061326385828601612a0f565b9250506020613274858286016130f6565b9150509250929050565b6000602082019050613293600083018461318e565b92915050565b60006132a482612db5565b9050919050565b6132b481613299565b82525050565b60006020820190506132cf60008301846132ab565b92915050565b600081519050919050565b600082825260208201905092915050565b6000819050602082019050919050565b60006101008301600083015161331a6000860182612cd7565b50602083015161332d6020860182612de7565b50604083015184820360408601526133458282612e3c565b9150506060830151848203606086015261335f8282612e3c565b91505060808301516133746080860182612cd7565b5060a083015161338760a0860182612cd7565b5060c083015161339a60c0860182612cd7565b5060e08301516133ad60e0860182612edd565b508091505092915050565b60006133c48383613301565b905092915050565b6000602082019050919050565b60006133e4826132d5565b6133ee81856132e0565b935083602082028501613400856132f1565b8060005b8581101561343c578484038952815161341d85826133b8565b9450613428836133cc565b925060208a01995050600181019050613404565b50829750879550505050505092915050565b6000602082019050818103600083015261346881846133d9565b905092915050565b600060208284031215613486576134856129e4565b5b600082013567ffffffffffffffff8111156134a4576134a36129e9565b5b6134b084828501612b69565b91505092915050565b6000806000606084860312156134d2576134d16129e4565b5b60006134e086828701612a0f565b93505060206134f186828701612a0f565b925050604061350286828701612a0f565b9150509250925092565b600081519050919050565b600082825260208201905092915050565b6000819050602082019050919050565b6000610100830160008301516135516000860182612cd7565b5060208301516135646020860182612de7565b5060408301516135776040860182612cd7565b506060830151848203606086015261358f8282612e3c565b91505060808301516135a46080860182612cd7565b5060a08301516135b760a0860182612cd7565b5060c08301516135ca60c0860182612cd7565b5060e08301516135dd60e0860182612ffe565b508091505092915050565b60006135f48383613538565b905092915050565b6000602082019050919050565b60006136148261350c565b61361e8185613517565b93508360208202850161363085613528565b8060005b8581101561366c578484038952815161364d85826135e8565b9450613658836135fc565b925060208a01995050600181019050613634565b50829750879550505050505092915050565b600060208201905081810360008301526136988184613609565b905092915050565b6136a981613182565b81146136b457600080fd5b50565b6000813590506136c6816136a0565b92915050565b600080600080600080600060e0888a0312156136eb576136ea6129e4565b5b600088013567ffffffffffffffff811115613709576137086129e9565b5b6137158a828b01612b69565b975050602088013567ffffffffffffffff811115613736576137356129e9565b5b6137428a828b01612b69565b965050604088013567ffffffffffffffff811115613763576137626129e9565b5b61376f8a828b01612b69565b955050606088013567ffffffffffffffff8111156137905761378f6129e9565b5b61379c8a828b01612b69565b945050608088013567ffffffffffffffff8111156137bd576137bc6129e9565b5b6137c98a828b01612b69565b93505060a06137da8a828b01612a0f565b92505060c06137eb8a828b016136b7565b91505092959891949750929550565b7f4e6f742061205265676973746572656420557365722100000000000000000000600082015250565b6000613830601683613138565b915061383b826137fa565b602082019050919050565b6000602082019050818103600083015261385f81613823565b9050919050565b7f4e6f7420616e2061637469766520706f73740000000000000000000000000000600082015250565b600061389c601283613138565b91506138a782613866565b602082019050919050565b600060208201905081810360008301526138cb8161388f565b9050919050565b7f4e487b7100000000000000000000000000000000000000000000000000000000600052601160045260246000fd5b600061390c826129ee565b9150613917836129ee565b925082820390508181111561392f5761392e6138d2565b5b92915050565b6000613940826129ee565b915061394b836129ee565b9250828201905080821115613963576139626138d2565b5b92915050565b7f4e487b7100000000000000000000000000000000000000000000000000000000600052602260045260246000fd5b600060028204905060018216806139b057607f821691505b6020821081036139c3576139c2613969565b5b50919050565b60008190508160005260206000209050919050565b60006020601f8301049050919050565b600082821b905092915050565b600060088302613a2b7fffffffffffffffffffffffffffffffffffffffffffffffffffffffffffffffff826139ee565b613a3586836139ee565b95508019841693508086168417925050509392505050565b6000819050919050565b6000613a72613a6d613a68846129ee565b613a4d565b6129ee565b9050919050565b6000819050919050565b613a8c83613a57565b613aa0613a9882613a79565b8484546139fb565b825550505050565b600090565b613ab5613aa8565b613ac0818484613a83565b505050565b5b81811015613ae457613ad9600082613aad565b600181019050613ac6565b5050565b601f821115613b2957613afa816139c9565b613b03846139de565b81016020851015613b12578190505b613b26613b1e856139de565b830182613ac5565b50505b505050565b600082821c905092915050565b6000613b4c60001984600802613b2e565b1980831691505092915050565b6000613b658383613b3b565b9150826002028217905092915050565b613b7e82612df6565b67ffffffffffffffff811115613b9757613b96612a6c565b5b613ba18254613998565b613bac828285613ae8565b600060209050601f831160018114613bdf5760008415613bcd578287015190505b613bd78582613b59565b865550613c3f565b601f198416613bed866139c9565b60005b82811015613c1557848901518255600182019150602085019450602081019050613bf0565b86831015613c325784890151613c2e601f891682613b3b565b8355505b6001600288020188555050505b505050505050565b613c5081612dd5565b82525050565b6000606082019050613c6b6000830186613c47565b613c786020830185612d8b565b613c856040830184612d8b565b949350505050565b7f436f6d6d656e742063616e206e6f7420626520656d7074792021000000000000600082015250565b6000613cc3601a83613138565b9150613cce82613c8d565b602082019050919050565b60006020820190508181036000830152613cf281613cb6565b9050919050565b6000819050919050565b6000613d1e613d19613d1484613cf9565b613a4d565b6129ee565b9050919050565b613d2e81613d03565b82525050565b600060e082019050613d49600083018a613c47565b613d566020830189612d8b565b613d636040830188612d8b565b613d706060830187613d25565b613d7d6080830186613d25565b613d8a60a0830185612d8b565b81810360c0830152613d9c8184613149565b905098975050505050505050565b6000613db5826129ee565b9150613dc0836129ee565b9250828202613dce816129ee565b91508282048414831517613de557613de46138d2565b5b5092915050565b7f4e487b7100000000000000000000000000000000000000000000000000000000600052603260045260246000fd5b6000613e26826129ee565b91507fffffffffffffffffffffffffffffffffffffffffffffffffffffffffffffffff8203613e5857613e576138d2565b5b600182019050919050565b7f4e6f7420616e2061637469766520636f6d6d656e740000000000000000000000600082015250565b6000613e99601583613138565b9150613ea482613e63565b602082019050919050565b60006020820190508181036000830152613ec881613e8c565b9050919050565b600081905092915050565b6000613ee582612df6565b613eef8185613ecf565b9350613eff818560208601612e12565b80840191505092915050565b6000613f178284613eda565b915081905092915050565b7f5573657220616c72656164792072656769737465726564000000000000000000600082015250565b6000613f58601783613138565b9150613f6382613f22565b602082019050919050565b60006020820190508181036000830152613f8781613f4b565b9050919050565b7f557365726e616d6520616c72656164792074616b656e00000000000000000000600082015250565b6000613fc4601683613138565b9150613fcf82613f8e565b602082019050919050565b60006020820190508181036000830152613ff381613fb7565b9050919050565b600060408201905061400f6000830185613c47565b61401c6020830184612d8b565b939250505056fea264697066735822122067d9099dac696750963c3418a1066db336d7381ba1ceef67ff3b427425f2081864736f6c63430008120033",
  "linkReferences": {},
  "deployedLinkReferences": {}
}