{
  "_format": "hh-sol-artifact-1",
  "contractName": "SocialChain",
  "sourceName": "contracts/SocialChain.sol",
  "abi": [
    {
      "inputs": [],
      "stateMutability": "nonpayable",
      "type": "constructor"
    },
    {
      "anonymous": false,
      "inputs": [
        {
          "indexed": false,
          "internalType": "address",
          "name": "userAddress",
          "type": "address"
        },
        {
          "indexed": false,
          "internalType": "uint256",
          "name": "userId",
          "type": "uint256"
        }
      ],
      "name": "logRegisterUser",
      "type": "event"
    },
    {
      "inputs": [],
      "name": "greetings",
      "outputs": [
        {
          "internalType": "string",
          "name": "",
          "type": "string"
        }
      ],
      "stateMutability": "view",
      "type": "function"
    },
    {
      "inputs": [],
      "name": "owner",
      "outputs": [
        {
          "internalType": "address payable",
          "name": "",
          "type": "address"
        }
      ],
      "stateMutability": "view",
      "type": "function"
    },
    {
      "inputs": [
        {
          "internalType": "string",
          "name": "_username",
          "type": "string"
        },
        {
          "internalType": "string",
          "name": "_name",
          "type": "string"
        },
        {
          "internalType": "string",
          "name": "_imgHash",
          "type": "string"
        },
        {
          "internalType": "string",
          "name": "_coverHash",
          "type": "string"
        },
        {
          "internalType": "string",
          "name": "_bio",
          "type": "string"
        },
        {
          "internalType": "uint256",
          "name": "birthDate",
          "type": "uint256"
        },
        {
          "internalType": "bool",
          "name": "showUserName",
          "type": "bool"
        }
      ],
      "name": "registerUser",
      "outputs": [],
      "stateMutability": "nonpayable",
      "type": "function"
    },
    {
      "inputs": [],
      "name": "totalUsers",
      "outputs": [
        {
          "internalType": "uint256",
          "name": "",
          "type": "uint256"
        }
      ],
      "stateMutability": "view",
      "type": "function"
    },
    {
      "inputs": [
        {
          "internalType": "string",
          "name": "_username",
          "type": "string"
        }
      ],
      "name": "userNameAvailable",
      "outputs": [
        {
          "internalType": "bool",
          "name": "status",
          "type": "bool"
        }
      ],
      "stateMutability": "view",
      "type": "function"
    }
  ],
  "bytecode": "0x608060405260006001553480156200001657600080fd5b50336000806101000a81548173ffffffffffffffffffffffffffffffffffffffff021916908373ffffffffffffffffffffffffffffffffffffffff1602179055506200012c6040518060400160405280600581526020017f6f776e65720000000000000000000000000000000000000000000000000000008152506040518060400160405280600581526020017f6f776e657200000000000000000000000000000000000000000000000000000081525060405180602001604052806000815250604051806020016040528060008152506040518060400160405280600581526020017f6f776e65720000000000000000000000000000000000000000000000000000008152506001806200013260201b60201c565b62000b37565b33600060038111156200014a57620001496200053e565b5b600260008373ffffffffffffffffffffffffffffffffffffffff1673ffffffffffffffffffffffffffffffffffffffff16815260200190815260200160002060090160009054906101000a900460ff166003811115620001af57620001ae6200053e565b5b14620001f2576040517f08c379a0000000000000000000000000000000000000000000000000000000008152600401620001e990620005ce565b60405180910390fd5b8760048160405162000205919062000669565b908152602001604051809103902060009054906101000a900460ff161562000264576040517f08c379a00000000000000000000000000000000000000000000000000000000081526004016200025b90620006d2565b60405180910390fd5b600160048a60405162000278919062000669565b908152602001604051809103902060006101000a81548160ff02191690831515021790555060018054620002ad91906200072d565b600181905550600060015490506040518061014001604052808281526020013373ffffffffffffffffffffffffffffffffffffffff1681526020018b81526020018a81526020018781526020018681526020018515158152602001898152602001888152602001600160038111156200032b576200032a6200053e565b5b815250600260003373ffffffffffffffffffffffffffffffffffffffff1673ffffffffffffffffffffffffffffffffffffffff1681526020019081526020016000206000820151816000015560208201518160010160006101000a81548173ffffffffffffffffffffffffffffffffffffffff021916908373ffffffffffffffffffffffffffffffffffffffff1602179055506040820151816002019081620003d59190620009cd565b506060820151816003019081620003ed9190620009cd565b506080820151816004019081620004059190620009cd565b5060a0820151816005015560c08201518160060160006101000a81548160ff02191690831515021790555060e0820151816007019081620004479190620009cd565b50610100820151816008019081620004609190620009cd565b506101208201518160090160006101000a81548160ff0219169083600381111562000490576200048f6200053e565b5b02179055509050503360038b604051620004ab919062000669565b908152602001604051809103902060006101000a81548173ffffffffffffffffffffffffffffffffffffffff021916908373ffffffffffffffffffffffffffffffffffffffff1602179055507fabc58c36475157c4ac7669f9adfbb6f254d3a3578fb89676f6866ac3b9950eed33826040516200052a92919062000b0a565b60405180910390a150505050505050505050565b7f4e487b7100000000000000000000000000000000000000000000000000000000600052602160045260246000fd5b600082825260208201905092915050565b7f5573657220616c72656164792072656769737465726564000000000000000000600082015250565b6000620005b66017836200056d565b9150620005c3826200057e565b602082019050919050565b60006020820190508181036000830152620005e981620005a7565b9050919050565b600081519050919050565b600081905092915050565b60005b838110156200062657808201518184015260208101905062000609565b60008484015250505050565b60006200063f82620005f0565b6200064b8185620005fb565b93506200065d81856020860162000606565b80840191505092915050565b600062000677828462000632565b915081905092915050565b7f557365726e616d6520616c72656164792074616b656e00000000000000000000600082015250565b6000620006ba6016836200056d565b9150620006c78262000682565b602082019050919050565b60006020820190508181036000830152620006ed81620006ab565b9050919050565b6000819050919050565b7f4e487b7100000000000000000000000000000000000000000000000000000000600052601160045260246000fd5b60006200073a82620006f4565b91506200074783620006f4565b9250828201905080821115620007625762000761620006fe565b5b92915050565b7f4e487b7100000000000000000000000000000000000000000000000000000000600052604160045260246000fd5b7f4e487b7100000000000000000000000000000000000000000000000000000000600052602260045260246000fd5b60006002820490506001821680620007df57607f821691505b602082108103620007f557620007f462000797565b5b50919050565b60008190508160005260206000209050919050565b60006020601f8301049050919050565b600082821b905092915050565b6000600883026200085f7fffffffffffffffffffffffffffffffffffffffffffffffffffffffffffffffff8262000820565b6200086b868362000820565b95508019841693508086168417925050509392505050565b6000819050919050565b6000620008ae620008a8620008a284620006f4565b62000883565b620006f4565b9050919050565b6000819050919050565b620008ca836200088d565b620008e2620008d982620008b5565b8484546200082d565b825550505050565b600090565b620008f9620008ea565b62000906818484620008bf565b505050565b5b818110156200092e5762000922600082620008ef565b6001810190506200090c565b5050565b601f8211156200097d576200094781620007fb565b620009528462000810565b8101602085101562000962578190505b6200097a620009718562000810565b8301826200090b565b50505b505050565b600082821c905092915050565b6000620009a26000198460080262000982565b1980831691505092915050565b6000620009bd83836200098f565b9150826002028217905092915050565b620009d882620005f0565b67ffffffffffffffff811115620009f457620009f362000768565b5b62000a008254620007c6565b62000a0d82828562000932565b600060209050601f83116001811462000a45576000841562000a30578287015190505b62000a3c8582620009af565b86555062000aac565b601f19841662000a5586620007fb565b60005b8281101562000a7f5784890151825560018201915060208501945060208101905062000a58565b8683101562000a9f578489015162000a9b601f8916826200098f565b8355505b6001600288020188555050505b505050505050565b600073ffffffffffffffffffffffffffffffffffffffff82169050919050565b600062000ae18262000ab4565b9050919050565b62000af38162000ad4565b82525050565b62000b0481620006f4565b82525050565b600060408201905062000b21600083018562000ae8565b62000b30602083018462000af9565b9392505050565b610f3a8062000b476000396000f3fe608060405234801561001057600080fd5b50600436106100575760003560e01c80638da5cb5b1461005c578063acb34ce81461007a578063b90c207314610098578063bff1f9e1146100c8578063f82217c1146100e6575b600080fd5b610064610102565b60405161007191906105a9565b60405180910390f35b610082610126565b60405161008f9190610654565b60405180910390f35b6100b260048036038101906100ad91906107bf565b610146565b6040516100bf9190610823565b60405180910390f35b6100d061017c565b6040516100dd9190610857565b60405180910390f35b61010060048036038101906100fb91906108ca565b610182565b005b60008054906101000a900473ffffffffffffffffffffffffffffffffffffffff1681565b6060604051806060016040528060278152602001610ede60279139905090565b60006004826040516101589190610a34565b908152602001604051809103902060009054906101000a900460ff16159050919050565b60015481565b336000600381111561019757610196610a4b565b5b600260008373ffffffffffffffffffffffffffffffffffffffff1673ffffffffffffffffffffffffffffffffffffffff16815260200190815260200160002060090160009054906101000a900460ff1660038111156101f9576101f8610a4b565b5b14610239576040517f08c379a000000000000000000000000000000000000000000000000000000000815260040161023090610ac6565b60405180910390fd5b8760048160405161024a9190610a34565b908152602001604051809103902060009054906101000a900460ff16156102a6576040517f08c379a000000000000000000000000000000000000000000000000000000000815260040161029d90610b32565b60405180910390fd5b600160048a6040516102b89190610a34565b908152602001604051809103902060006101000a81548160ff021916908315150217905550600180546102eb9190610b81565b600181905550600060015490506040518061014001604052808281526020013373ffffffffffffffffffffffffffffffffffffffff1681526020018b81526020018a815260200187815260200186815260200185151581526020018981526020018881526020016001600381111561036657610365610a4b565b5b815250600260003373ffffffffffffffffffffffffffffffffffffffff1673ffffffffffffffffffffffffffffffffffffffff1681526020019081526020016000206000820151816000015560208201518160010160006101000a81548173ffffffffffffffffffffffffffffffffffffffff021916908373ffffffffffffffffffffffffffffffffffffffff160217905550604082015181600201908161040e9190610dc1565b5060608201518160030190816104249190610dc1565b50608082015181600401908161043a9190610dc1565b5060a0820151816005015560c08201518160060160006101000a81548160ff02191690831515021790555060e082015181600701908161047a9190610dc1565b506101008201518160080190816104919190610dc1565b506101208201518160090160006101000a81548160ff021916908360038111156104be576104bd610a4b565b5b02179055509050503360038b6040516104d79190610a34565b908152602001604051809103902060006101000a81548173ffffffffffffffffffffffffffffffffffffffff021916908373ffffffffffffffffffffffffffffffffffffffff1602179055507fabc58c36475157c4ac7669f9adfbb6f254d3a3578fb89676f6866ac3b9950eed3382604051610554929190610eb4565b60405180910390a150505050505050505050565b600073ffffffffffffffffffffffffffffffffffffffff82169050919050565b600061059382610568565b9050919050565b6105a381610588565b82525050565b60006020820190506105be600083018461059a565b92915050565b600081519050919050565b600082825260208201905092915050565b60005b838110156105fe5780820151818401526020810190506105e3565b60008484015250505050565b6000601f19601f8301169050919050565b6000610626826105c4565b61063081856105cf565b93506106408185602086016105e0565b6106498161060a565b840191505092915050565b6000602082019050818103600083015261066e818461061b565b905092915050565b6000604051905090565b600080fd5b600080fd5b600080fd5b600080fd5b7f4e487b7100000000000000000000000000000000000000000000000000000000600052604160045260246000fd5b6106cc8261060a565b810181811067ffffffffffffffff821117156106eb576106ea610694565b5b80604052505050565b60006106fe610676565b905061070a82826106c3565b919050565b600067ffffffffffffffff82111561072a57610729610694565b5b6107338261060a565b9050602081019050919050565b82818337600083830152505050565b600061076261075d8461070f565b6106f4565b90508281526020810184848401111561077e5761077d61068f565b5b610789848285610740565b509392505050565b600082601f8301126107a6576107a561068a565b5b81356107b684826020860161074f565b91505092915050565b6000602082840312156107d5576107d4610680565b5b600082013567ffffffffffffffff8111156107f3576107f2610685565b5b6107ff84828501610791565b91505092915050565b60008115159050919050565b61081d81610808565b82525050565b60006020820190506108386000830184610814565b92915050565b6000819050919050565b6108518161083e565b82525050565b600060208201905061086c6000830184610848565b92915050565b61087b8161083e565b811461088657600080fd5b50565b60008135905061089881610872565b92915050565b6108a781610808565b81146108b257600080fd5b50565b6000813590506108c48161089e565b92915050565b600080600080600080600060e0888a0312156108e9576108e8610680565b5b600088013567ffffffffffffffff81111561090757610906610685565b5b6109138a828b01610791565b975050602088013567ffffffffffffffff81111561093457610933610685565b5b6109408a828b01610791565b965050604088013567ffffffffffffffff81111561096157610960610685565b5b61096d8a828b01610791565b955050606088013567ffffffffffffffff81111561098e5761098d610685565b5b61099a8a828b01610791565b945050608088013567ffffffffffffffff8111156109bb576109ba610685565b5b6109c78a828b01610791565b93505060a06109d88a828b01610889565b92505060c06109e98a828b016108b5565b91505092959891949750929550565b600081905092915050565b6000610a0e826105c4565b610a1881856109f8565b9350610a288185602086016105e0565b80840191505092915050565b6000610a408284610a03565b915081905092915050565b7f4e487b7100000000000000000000000000000000000000000000000000000000600052602160045260246000fd5b7f5573657220616c72656164792072656769737465726564000000000000000000600082015250565b6000610ab06017836105cf565b9150610abb82610a7a565b602082019050919050565b60006020820190508181036000830152610adf81610aa3565b9050919050565b7f557365726e616d6520616c72656164792074616b656e00000000000000000000600082015250565b6000610b1c6016836105cf565b9150610b2782610ae6565b602082019050919050565b60006020820190508181036000830152610b4b81610b0f565b9050919050565b7f4e487b7100000000000000000000000000000000000000000000000000000000600052601160045260246000fd5b6000610b8c8261083e565b9150610b978361083e565b9250828201905080821115610baf57610bae610b52565b5b92915050565b7f4e487b7100000000000000000000000000000000000000000000000000000000600052602260045260246000fd5b60006002820490506001821680610bfc57607f821691505b602082108103610c0f57610c0e610bb5565b5b50919050565b60008190508160005260206000209050919050565b60006020601f8301049050919050565b600082821b905092915050565b600060088302610c777fffffffffffffffffffffffffffffffffffffffffffffffffffffffffffffffff82610c3a565b610c818683610c3a565b95508019841693508086168417925050509392505050565b6000819050919050565b6000610cbe610cb9610cb48461083e565b610c99565b61083e565b9050919050565b6000819050919050565b610cd883610ca3565b610cec610ce482610cc5565b848454610c47565b825550505050565b600090565b610d01610cf4565b610d0c818484610ccf565b505050565b5b81811015610d3057610d25600082610cf9565b600181019050610d12565b5050565b601f821115610d7557610d4681610c15565b610d4f84610c2a565b81016020851015610d5e578190505b610d72610d6a85610c2a565b830182610d11565b50505b505050565b600082821c905092915050565b6000610d9860001984600802610d7a565b1980831691505092915050565b6000610db18383610d87565b9150826002028217905092915050565b610dca826105c4565b67ffffffffffffffff811115610de357610de2610694565b5b610ded8254610be4565b610df8828285610d34565b600060209050601f831160018114610e2b5760008415610e19578287015190505b610e238582610da5565b865550610e8b565b601f198416610e3986610c15565b60005b82811015610e6157848901518255600182019150602085019450602081019050610e3c565b86831015610e7e5784890151610e7a601f891682610d87565b8355505b6001600288020188555050505b505050505050565b6000610e9e82610568565b9050919050565b610eae81610e93565b82525050565b6000604082019050610ec96000830185610ea5565b610ed66020830184610848565b939250505056fe57656c636f6d6520746f2074686520536f6369616c20636861696e20706c6174666f726d203a29a26469706673582212204684038e63e69601c3b0b52ea6ccb3d125487ea133aa8763942e9cb60c38734c64736f6c63430008120033",
  "linkReferences": {},
  "deployedLinkReferences": {}
}