{"contracts/SocialChain.sol":{"SocialChain":{"abi":[{"inputs":[],"stateMutability":"nonpayable","type":"constructor"},{"anonymous":false,"inputs":[{"indexed":false,"internalType":"address","name":"_author","type":"address"},{"indexed":false,"internalType":"uint256","name":"_userId","type":"uint256"},{"indexed":false,"internalType":"uint256","name":"_postId","type":"uint256"}],"name":"logPostCreated","type":"event"},{"anonymous":false,"inputs":[{"indexed":false,"internalType":"address","name":"userAddress","type":"address"},{"indexed":false,"internalType":"uint256","name":"userId","type":"uint256"}],"name":"logRegisterUser","type":"event"},{"inputs":[{"internalType":"address payable","name":"_accountAddress","type":"address"},{"internalType":"string","name":"_postdescription","type":"string"},{"internalType":"string","name":"_imghash","type":"string"}],"name":"createPost","outputs":[],"stateMutability":"nonpayable","type":"function"},{"inputs":[{"internalType":"uint256","name":"_postId","type":"uint256"}],"name":"getPostById","outputs":[{"components":[{"internalType":"uint256","name":"postId","type":"uint256"},{"internalType":"address payable","name":"author","type":"address"},{"internalType":"string","name":"postDescription","type":"string"},{"internalType":"string","name":"imgHash","type":"string"},{"internalType":"uint256","name":"timeStamp","type":"uint256"},{"internalType":"uint256","name":"likeCount","type":"uint256"},{"internalType":"uint256","name":"reportCount","type":"uint256"},{"internalType":"enum SocialChain.postStatus","name":"status","type":"uint8"}],"internalType":"struct SocialChain.Post","name":"","type":"tuple"}],"stateMutability":"view","type":"function"},{"inputs":[{"internalType":"address","name":"accountAddress","type":"address"}],"name":"getUser","outputs":[{"internalType":"uint256","name":"id","type":"uint256"},{"internalType":"string","name":"userName","type":"string"},{"internalType":"string","name":"name","type":"string"},{"internalType":"string","name":"bio","type":"string"},{"internalType":"uint256","name":"birthDate","type":"uint256"},{"internalType":"bool","name":"showUsername","type":"bool"},{"internalType":"string","name":"imageHash","type":"string"},{"internalType":"string","name":"coverHash","type":"string"}],"stateMutability":"view","type":"function"},{"inputs":[{"internalType":"address","name":"_userAddress","type":"address"}],"name":"getUserPosts","outputs":[{"components":[{"internalType":"uint256","name":"postId","type":"uint256"},{"internalType":"address payable","name":"author","type":"address"},{"internalType":"string","name":"postDescription","type":"string"},{"internalType":"string","name":"imgHash","type":"string"},{"internalType":"uint256","name":"timeStamp","type":"uint256"},{"internalType":"uint256","name":"likeCount","type":"uint256"},{"internalType":"uint256","name":"reportCount","type":"uint256"},{"internalType":"enum SocialChain.postStatus","name":"status","type":"uint8"}],"internalType":"struct SocialChain.Post[]","name":"postList","type":"tuple[]"}],"stateMutability":"view","type":"function"},{"inputs":[],"name":"owner","outputs":[{"internalType":"address payable","name":"","type":"address"}],"stateMutability":"view","type":"function"},{"inputs":[{"internalType":"string","name":"_username","type":"string"},{"internalType":"string","name":"_name","type":"string"},{"internalType":"string","name":"_imgHash","type":"string"},{"internalType":"string","name":"_coverHash","type":"string"},{"internalType":"string","name":"_bio","type":"string"},{"internalType":"uint256","name":"birthDate","type":"uint256"},{"internalType":"bool","name":"showUserName","type":"bool"}],"name":"registerUser","outputs":[],"stateMutability":"nonpayable","type":"function"},{"inputs":[],"name":"totalPosts","outputs":[{"internalType":"uint256","name":"","type":"uint256"}],"stateMutability":"view","type":"function"},{"inputs":[],"name":"totalUsers","outputs":[{"internalType":"uint256","name":"","type":"uint256"}],"stateMutability":"view","type":"function"},{"inputs":[{"internalType":"string","name":"_username","type":"string"}],"name":"userNameAvailable","outputs":[{"internalType":"bool","name":"status","type":"bool"}],"stateMutability":"view","type":"function"}],"evm":{"bytecode":{"linkReferences":{},"object":"6080604052600060015560006002553480156200001b57600080fd5b50336000806101000a81548173ffffffffffffffffffffffffffffffffffffffff021916908373ffffffffffffffffffffffffffffffffffffffff160217905550620001316040518060400160405280600581526020017f6f776e65720000000000000000000000000000000000000000000000000000008152506040518060400160405280600581526020017f6f776e657200000000000000000000000000000000000000000000000000000081525060405180602001604052806000815250604051806020016040528060008152506040518060400160405280600581526020017f6f776e65720000000000000000000000000000000000000000000000000000008152506001806200013760201b60201c565b62000b3c565b33600060038111156200014f576200014e62000543565b5b600360008373ffffffffffffffffffffffffffffffffffffffff1673ffffffffffffffffffffffffffffffffffffffff16815260200190815260200160002060090160009054906101000a900460ff166003811115620001b457620001b362000543565b5b14620001f7576040517f08c379a0000000000000000000000000000000000000000000000000000000008152600401620001ee90620005d3565b60405180910390fd5b876005816040516200020a91906200066e565b908152602001604051809103902060009054906101000a900460ff161562000269576040517f08c379a00000000000000000000000000000000000000000000000000000000081526004016200026090620006d7565b60405180910390fd5b600160058a6040516200027d91906200066e565b908152602001604051809103902060006101000a81548160ff02191690831515021790555060018054620002b2919062000732565b600181905550600060015490506040518061014001604052808281526020013373ffffffffffffffffffffffffffffffffffffffff1681526020018b81526020018a815260200187815260200186815260200185151581526020018981526020018881526020016001600381111562000330576200032f62000543565b5b815250600360003373ffffffffffffffffffffffffffffffffffffffff1673ffffffffffffffffffffffffffffffffffffffff1681526020019081526020016000206000820151816000015560208201518160010160006101000a81548173ffffffffffffffffffffffffffffffffffffffff021916908373ffffffffffffffffffffffffffffffffffffffff1602179055506040820151816002019081620003da9190620009d2565b506060820151816003019081620003f29190620009d2565b5060808201518160040190816200040a9190620009d2565b5060a0820151816005015560c08201518160060160006101000a81548160ff02191690831515021790555060e08201518160070190816200044c9190620009d2565b50610100820151816008019081620004659190620009d2565b506101208201518160090160006101000a81548160ff0219169083600381111562000495576200049462000543565b5b02179055509050503360048b604051620004b091906200066e565b908152602001604051809103902060006101000a81548173ffffffffffffffffffffffffffffffffffffffff021916908373ffffffffffffffffffffffffffffffffffffffff1602179055507fabc58c36475157c4ac7669f9adfbb6f254d3a3578fb89676f6866ac3b9950eed33826040516200052f92919062000b0f565b60405180910390a150505050505050505050565b7f4e487b7100000000000000000000000000000000000000000000000000000000600052602160045260246000fd5b600082825260208201905092915050565b7f5573657220616c72656164792072656769737465726564000000000000000000600082015250565b6000620005bb60178362000572565b9150620005c88262000583565b602082019050919050565b60006020820190508181036000830152620005ee81620005ac565b9050919050565b600081519050919050565b600081905092915050565b60005b838110156200062b5780820151818401526020810190506200060e565b60008484015250505050565b60006200064482620005f5565b62000650818562000600565b9350620006628185602086016200060b565b80840191505092915050565b60006200067c828462000637565b915081905092915050565b7f557365726e616d6520616c72656164792074616b656e00000000000000000000600082015250565b6000620006bf60168362000572565b9150620006cc8262000687565b602082019050919050565b60006020820190508181036000830152620006f281620006b0565b9050919050565b6000819050919050565b7f4e487b7100000000000000000000000000000000000000000000000000000000600052601160045260246000fd5b60006200073f82620006f9565b91506200074c83620006f9565b925082820190508082111562000767576200076662000703565b5b92915050565b7f4e487b7100000000000000000000000000000000000000000000000000000000600052604160045260246000fd5b7f4e487b7100000000000000000000000000000000000000000000000000000000600052602260045260246000fd5b60006002820490506001821680620007e457607f821691505b602082108103620007fa57620007f96200079c565b5b50919050565b60008190508160005260206000209050919050565b60006020601f8301049050919050565b600082821b905092915050565b600060088302620008647fffffffffffffffffffffffffffffffffffffffffffffffffffffffffffffffff8262000825565b62000870868362000825565b95508019841693508086168417925050509392505050565b6000819050919050565b6000620008b3620008ad620008a784620006f9565b62000888565b620006f9565b9050919050565b6000819050919050565b620008cf8362000892565b620008e7620008de82620008ba565b84845462000832565b825550505050565b600090565b620008fe620008ef565b6200090b818484620008c4565b505050565b5b81811015620009335762000927600082620008f4565b60018101905062000911565b5050565b601f82111562000982576200094c8162000800565b620009578462000815565b8101602085101562000967578190505b6200097f620009768562000815565b83018262000910565b50505b505050565b600082821c905092915050565b6000620009a76000198460080262000987565b1980831691505092915050565b6000620009c2838362000994565b9150826002028217905092915050565b620009dd82620005f5565b67ffffffffffffffff811115620009f957620009f86200076d565b5b62000a058254620007cb565b62000a1282828562000937565b600060209050601f83116001811462000a4a576000841562000a35578287015190505b62000a418582620009b4565b86555062000ab1565b601f19841662000a5a8662000800565b60005b8281101562000a845784890151825560018201915060208501945060208101905062000a5d565b8683101562000aa4578489015162000aa0601f89168262000994565b8355505b6001600288020188555050505b505050505050565b600073ffffffffffffffffffffffffffffffffffffffff82169050919050565b600062000ae68262000ab9565b9050919050565b62000af88162000ad9565b82525050565b62000b0981620006f9565b82525050565b600060408201905062000b26600083018562000aed565b62000b35602083018462000afe565b9392505050565b6124e88062000b4c6000396000f3fe608060405234801561001057600080fd5b50600436106100935760003560e01c80639a2194a9116100665780639a2194a91461013b578063b90c20731461016b578063bff1f9e11461019b578063c096cdd5146101b9578063f82217c1146101d557610093565b806364e95895146100985780636f77926b146100c85780638da5cb5b146100ff5780638e53fb411461011d575b600080fd5b6100b260048036038101906100ad91906114cc565b6101f1565b6040516100bf9190611707565b60405180910390f35b6100e260048036038101906100dd9190611767565b610540565b6040516100f6989796959493929190611808565b60405180910390f35b61010761097b565b60405161011491906118b8565b60405180910390f35b61012561099f565b60405161013291906118d3565b60405180910390f35b61015560048036038101906101509190611767565b6109a5565b6040516101629190611a67565b60405180910390f35b61018560048036038101906101809190611bbe565b610da8565b6040516101929190611c07565b60405180910390f35b6101a3610dde565b6040516101b091906118d3565b60405180910390f35b6101d360048036038101906101ce9190611c4e565b610de4565b005b6101ef60048036038101906101ea9190611d05565b61102f565b005b6101f9611415565b336001600381111561020e5761020d6115d9565b5b600360008373ffffffffffffffffffffffffffffffffffffffff1673ffffffffffffffffffffffffffffffffffffffff16815260200190815260200160002060090160009054906101000a900460ff1660038111156102705761026f6115d9565b5b146102b0576040517f08c379a00000000000000000000000000000000000000000000000000000000081526004016102a790611e7f565b60405180910390fd5b82600160038111156102c5576102c46115d9565b5b6006600083815260200190815260200160002060070160009054906101000a900460ff1660038111156102fb576102fa6115d9565b5b1461033b576040517f08c379a000000000000000000000000000000000000000000000000000000000815260040161033290611eeb565b60405180910390fd5b6006600085815260200190815260200160002060405180610100016040529081600082015481526020016001820160009054906101000a900473ffffffffffffffffffffffffffffffffffffffff1673ffffffffffffffffffffffffffffffffffffffff1673ffffffffffffffffffffffffffffffffffffffff1681526020016002820180546103ca90611f3a565b80601f01602080910402602001604051908101604052809291908181526020018280546103f690611f3a565b80156104435780601f1061041857610100808354040283529160200191610443565b820191906000526020600020905b81548152906001019060200180831161042657829003601f168201915b5050505050815260200160038201805461045c90611f3a565b80601f016020809104026020016040519081016040528092919081815260200182805461048890611f3a565b80156104d55780601f106104aa576101008083540402835291602001916104d5565b820191906000526020600020905b8154815290600101906020018083116104b857829003601f168201915b505050505081526020016004820154815260200160058201548152602001600682015481526020016007820160009054906101000a900460ff166003811115610521576105206115d9565b5b6003811115610533576105326115d9565b5b8152505092505050919050565b600060608060606000806060806000600360008b73ffffffffffffffffffffffffffffffffffffffff1673ffffffffffffffffffffffffffffffffffffffff16815260200190815260200160002060405180610140016040529081600082015481526020016001820160009054906101000a900473ffffffffffffffffffffffffffffffffffffffff1673ffffffffffffffffffffffffffffffffffffffff1673ffffffffffffffffffffffffffffffffffffffff16815260200160028201805461060a90611f3a565b80601f016020809104026020016040519081016040528092919081815260200182805461063690611f3a565b80156106835780601f1061065857610100808354040283529160200191610683565b820191906000526020600020905b81548152906001019060200180831161066657829003601f168201915b5050505050815260200160038201805461069c90611f3a565b80601f01602080910402602001604051908101604052809291908181526020018280546106c890611f3a565b80156107155780601f106106ea57610100808354040283529160200191610715565b820191906000526020600020905b8154815290600101906020018083116106f857829003601f168201915b5050505050815260200160048201805461072e90611f3a565b80601f016020809104026020016040519081016040528092919081815260200182805461075a90611f3a565b80156107a75780601f1061077c576101008083540402835291602001916107a7565b820191906000526020600020905b81548152906001019060200180831161078a57829003601f168201915b50505050508152602001600582015481526020016006820160009054906101000a900460ff161515151581526020016007820180546107e590611f3a565b80601f016020809104026020016040519081016040528092919081815260200182805461081190611f3a565b801561085e5780601f106108335761010080835404028352916020019161085e565b820191906000526020600020905b81548152906001019060200180831161084157829003601f168201915b5050505050815260200160088201805461087790611f3a565b80601f01602080910402602001604051908101604052809291908181526020018280546108a390611f3a565b80156108f05780601f106108c5576101008083540402835291602001916108f0565b820191906000526020600020905b8154815290600101906020018083116108d357829003601f168201915b505050505081526020016009820160009054906101000a900460ff16600381111561091e5761091d6115d9565b5b60038111156109305761092f6115d9565b5b81525050905080600001518160400151826060015183608001518460a001518560c001518660e001518761010001519850985098509850985098509850985050919395975091939597565b60008054906101000a900473ffffffffffffffffffffffffffffffffffffffff1681565b60025481565b606081600160038111156109bc576109bb6115d9565b5b600360008373ffffffffffffffffffffffffffffffffffffffff1673ffffffffffffffffffffffffffffffffffffffff16815260200190815260200160002060090160009054906101000a900460ff166003811115610a1e57610a1d6115d9565b5b14610a5e576040517f08c379a0000000000000000000000000000000000000000000000000000000008152600401610a5590611e7f565b60405180910390fd5b6000600760008573ffffffffffffffffffffffffffffffffffffffff1673ffffffffffffffffffffffffffffffffffffffff168152602001908152602001600020805480602002602001604051908101604052809291908181526020018280548015610ae957602002820191906000526020600020905b815481526020019060010190808311610ad5575b505050505090506000815167ffffffffffffffff811115610b0d57610b0c611a93565b5b604051908082528060200260200182016040528015610b4657816020015b610b33611415565b815260200190600190039081610b2b5790505b50905060005b8251811015610d9c5760066000848381518110610b6c57610b6b611f6b565b5b6020026020010151815260200190815260200160002060405180610100016040529081600082015481526020016001820160009054906101000a900473ffffffffffffffffffffffffffffffffffffffff1673ffffffffffffffffffffffffffffffffffffffff1673ffffffffffffffffffffffffffffffffffffffff168152602001600282018054610bfe90611f3a565b80601f0160208091040260200160405190810160405280929190818152602001828054610c2a90611f3a565b8015610c775780601f10610c4c57610100808354040283529160200191610c77565b820191906000526020600020905b815481529060010190602001808311610c5a57829003601f168201915b50505050508152602001600382018054610c9090611f3a565b80601f0160208091040260200160405190810160405280929190818152602001828054610cbc90611f3a565b8015610d095780601f10610cde57610100808354040283529160200191610d09565b820191906000526020600020905b815481529060010190602001808311610cec57829003601f168201915b505050505081526020016004820154815260200160058201548152602001600682015481526020016007820160009054906101000a900460ff166003811115610d5557610d546115d9565b5b6003811115610d6757610d666115d9565b5b81525050828281518110610d7e57610d7d611f6b565b5b60200260200101819052508080610d9490611fc9565b915050610b4c565b50809350505050919050565b6000600582604051610dba919061204d565b908152602001604051809103902060009054906101000a900460ff16159050919050565b60015481565b6001600254610df39190612064565b600281905550600060025490506040518061010001604052808281526020018573ffffffffffffffffffffffffffffffffffffffff168152602001848152602001838152602001428152602001600081526020016000815260200160016003811115610e6257610e616115d9565b5b815250600660008381526020019081526020016000206000820151816000015560208201518160010160006101000a81548173ffffffffffffffffffffffffffffffffffffffff021916908373ffffffffffffffffffffffffffffffffffffffff1602179055506040820151816002019081610ede9190612244565b506060820151816003019081610ef49190612244565b506080820151816004015560a0820151816005015560c0820151816006015560e08201518160070160006101000a81548160ff02191690836003811115610f3e57610f3d6115d9565b5b0217905550905050600760008573ffffffffffffffffffffffffffffffffffffffff1673ffffffffffffffffffffffffffffffffffffffff1681526020019081526020016000208190806001815401808255809150506001900390600052602060002001600090919091909150557fe78603dea3231b9ac9a73b3663b6e28de19f35247e2c32f0115ec263bdc7c49a84600360008773ffffffffffffffffffffffffffffffffffffffff1673ffffffffffffffffffffffffffffffffffffffff16815260200190815260200160002060000154836040516110219392919061236b565b60405180910390a150505050565b3360006003811115611044576110436115d9565b5b600360008373ffffffffffffffffffffffffffffffffffffffff1673ffffffffffffffffffffffffffffffffffffffff16815260200190815260200160002060090160009054906101000a900460ff1660038111156110a6576110a56115d9565b5b146110e6576040517f08c379a00000000000000000000000000000000000000000000000000000000081526004016110dd906123ee565b60405180910390fd5b876005816040516110f7919061204d565b908152602001604051809103902060009054906101000a900460ff1615611153576040517f08c379a000000000000000000000000000000000000000000000000000000000815260040161114a9061245a565b60405180910390fd5b600160058a604051611165919061204d565b908152602001604051809103902060006101000a81548160ff021916908315150217905550600180546111989190612064565b600181905550600060015490506040518061014001604052808281526020013373ffffffffffffffffffffffffffffffffffffffff1681526020018b81526020018a8152602001878152602001868152602001851515815260200189815260200188815260200160016003811115611213576112126115d9565b5b815250600360003373ffffffffffffffffffffffffffffffffffffffff1673ffffffffffffffffffffffffffffffffffffffff1681526020019081526020016000206000820151816000015560208201518160010160006101000a81548173ffffffffffffffffffffffffffffffffffffffff021916908373ffffffffffffffffffffffffffffffffffffffff16021790555060408201518160020190816112bb9190612244565b5060608201518160030190816112d19190612244565b5060808201518160040190816112e79190612244565b5060a0820151816005015560c08201518160060160006101000a81548160ff02191690831515021790555060e08201518160070190816113279190612244565b5061010082015181600801908161133e9190612244565b506101208201518160090160006101000a81548160ff0219169083600381111561136b5761136a6115d9565b5b02179055509050503360048b604051611384919061204d565b908152602001604051809103902060006101000a81548173ffffffffffffffffffffffffffffffffffffffff021916908373ffffffffffffffffffffffffffffffffffffffff1602179055507fabc58c36475157c4ac7669f9adfbb6f254d3a3578fb89676f6866ac3b9950eed3382604051611401929190612489565b60405180910390a150505050505050505050565b60405180610100016040528060008152602001600073ffffffffffffffffffffffffffffffffffffffff16815260200160608152602001606081526020016000815260200160008152602001600081526020016000600381111561147c5761147b6115d9565b5b81525090565b6000604051905090565b600080fd5b600080fd5b6000819050919050565b6114a981611496565b81146114b457600080fd5b50565b6000813590506114c6816114a0565b92915050565b6000602082840312156114e2576114e161148c565b5b60006114f0848285016114b7565b91505092915050565b61150281611496565b82525050565b600073ffffffffffffffffffffffffffffffffffffffff82169050919050565b600061153382611508565b9050919050565b61154381611528565b82525050565b600081519050919050565b600082825260208201905092915050565b60005b83811015611583578082015181840152602081019050611568565b60008484015250505050565b6000601f19601f8301169050919050565b60006115ab82611549565b6115b58185611554565b93506115c5818560208601611565565b6115ce8161158f565b840191505092915050565b7f4e487b7100000000000000000000000000000000000000000000000000000000600052602160045260246000fd5b60048110611619576116186115d9565b5b50565b600081905061162a82611608565b919050565b600061163a8261161c565b9050919050565b61164a8161162f565b82525050565b60006101008301600083015161166960008601826114f9565b50602083015161167c602086018261153a565b506040830151848203604086015261169482826115a0565b915050606083015184820360608601526116ae82826115a0565b91505060808301516116c360808601826114f9565b5060a08301516116d660a08601826114f9565b5060c08301516116e960c08601826114f9565b5060e08301516116fc60e0860182611641565b508091505092915050565b600060208201905081810360008301526117218184611650565b905092915050565b600061173482611508565b9050919050565b61174481611729565b811461174f57600080fd5b50565b6000813590506117618161173b565b92915050565b60006020828403121561177d5761177c61148c565b5b600061178b84828501611752565b91505092915050565b61179d81611496565b82525050565b600082825260208201905092915050565b60006117bf82611549565b6117c981856117a3565b93506117d9818560208601611565565b6117e28161158f565b840191505092915050565b60008115159050919050565b611802816117ed565b82525050565b60006101008201905061181e600083018b611794565b8181036020830152611830818a6117b4565b9050818103604083015261184481896117b4565b9050818103606083015261185881886117b4565b90506118676080830187611794565b61187460a08301866117f9565b81810360c083015261188681856117b4565b905081810360e083015261189a81846117b4565b90509998505050505050505050565b6118b281611528565b82525050565b60006020820190506118cd60008301846118a9565b92915050565b60006020820190506118e86000830184611794565b92915050565b600081519050919050565b600082825260208201905092915050565b6000819050602082019050919050565b60006101008301600083015161193360008601826114f9565b506020830151611946602086018261153a565b506040830151848203604086015261195e82826115a0565b9150506060830151848203606086015261197882826115a0565b915050608083015161198d60808601826114f9565b5060a08301516119a060a08601826114f9565b5060c08301516119b360c08601826114f9565b5060e08301516119c660e0860182611641565b508091505092915050565b60006119dd838361191a565b905092915050565b6000602082019050919050565b60006119fd826118ee565b611a0781856118f9565b935083602082028501611a198561190a565b8060005b85811015611a555784840389528151611a3685826119d1565b9450611a41836119e5565b925060208a01995050600181019050611a1d565b50829750879550505050505092915050565b60006020820190508181036000830152611a8181846119f2565b905092915050565b600080fd5b600080fd5b7f4e487b7100000000000000000000000000000000000000000000000000000000600052604160045260246000fd5b611acb8261158f565b810181811067ffffffffffffffff82111715611aea57611ae9611a93565b5b80604052505050565b6000611afd611482565b9050611b098282611ac2565b919050565b600067ffffffffffffffff821115611b2957611b28611a93565b5b611b328261158f565b9050602081019050919050565b82818337600083830152505050565b6000611b61611b5c84611b0e565b611af3565b905082815260208101848484011115611b7d57611b7c611a8e565b5b611b88848285611b3f565b509392505050565b600082601f830112611ba557611ba4611a89565b5b8135611bb5848260208601611b4e565b91505092915050565b600060208284031215611bd457611bd361148c565b5b600082013567ffffffffffffffff811115611bf257611bf1611491565b5b611bfe84828501611b90565b91505092915050565b6000602082019050611c1c60008301846117f9565b92915050565b611c2b81611528565b8114611c3657600080fd5b50565b600081359050611c4881611c22565b92915050565b600080600060608486031215611c6757611c6661148c565b5b6000611c7586828701611c39565b935050602084013567ffffffffffffffff811115611c9657611c95611491565b5b611ca286828701611b90565b925050604084013567ffffffffffffffff811115611cc357611cc2611491565b5b611ccf86828701611b90565b9150509250925092565b611ce2816117ed565b8114611ced57600080fd5b50565b600081359050611cff81611cd9565b92915050565b600080600080600080600060e0888a031215611d2457611d2361148c565b5b600088013567ffffffffffffffff811115611d4257611d41611491565b5b611d4e8a828b01611b90565b975050602088013567ffffffffffffffff811115611d6f57611d6e611491565b5b611d7b8a828b01611b90565b965050604088013567ffffffffffffffff811115611d9c57611d9b611491565b5b611da88a828b01611b90565b955050606088013567ffffffffffffffff811115611dc957611dc8611491565b5b611dd58a828b01611b90565b945050608088013567ffffffffffffffff811115611df657611df5611491565b5b611e028a828b01611b90565b93505060a0611e138a828b016114b7565b92505060c0611e248a828b01611cf0565b91505092959891949750929550565b7f4e6f742061205265676973746572656420557365722100000000000000000000600082015250565b6000611e696016836117a3565b9150611e7482611e33565b602082019050919050565b60006020820190508181036000830152611e9881611e5c565b9050919050565b7f4e6f7420616e2061637469766520706f73740000000000000000000000000000600082015250565b6000611ed56012836117a3565b9150611ee082611e9f565b602082019050919050565b60006020820190508181036000830152611f0481611ec8565b9050919050565b7f4e487b7100000000000000000000000000000000000000000000000000000000600052602260045260246000fd5b60006002820490506001821680611f5257607f821691505b602082108103611f6557611f64611f0b565b5b50919050565b7f4e487b7100000000000000000000000000000000000000000000000000000000600052603260045260246000fd5b7f4e487b7100000000000000000000000000000000000000000000000000000000600052601160045260246000fd5b6000611fd482611496565b91507fffffffffffffffffffffffffffffffffffffffffffffffffffffffffffffffff820361200657612005611f9a565b5b600182019050919050565b600081905092915050565b600061202782611549565b6120318185612011565b9350612041818560208601611565565b80840191505092915050565b6000612059828461201c565b915081905092915050565b600061206f82611496565b915061207a83611496565b925082820190508082111561209257612091611f9a565b5b92915050565b60008190508160005260206000209050919050565b60006020601f8301049050919050565b600082821b905092915050565b6000600883026120fa7fffffffffffffffffffffffffffffffffffffffffffffffffffffffffffffffff826120bd565b61210486836120bd565b95508019841693508086168417925050509392505050565b6000819050919050565b600061214161213c61213784611496565b61211c565b611496565b9050919050565b6000819050919050565b61215b83612126565b61216f61216782612148565b8484546120ca565b825550505050565b600090565b612184612177565b61218f818484612152565b505050565b5b818110156121b3576121a860008261217c565b600181019050612195565b5050565b601f8211156121f8576121c981612098565b6121d2846120ad565b810160208510156121e1578190505b6121f56121ed856120ad565b830182612194565b50505b505050565b600082821c905092915050565b600061221b600019846008026121fd565b1980831691505092915050565b6000612234838361220a565b9150826002028217905092915050565b61224d82611549565b67ffffffffffffffff81111561226657612265611a93565b5b6122708254611f3a565b61227b8282856121b7565b600060209050601f8311600181146122ae576000841561229c578287015190505b6122a68582612228565b86555061230e565b601f1984166122bc86612098565b60005b828110156122e4578489015182556001820191506020850194506020810190506122bf565b8683101561230157848901516122fd601f89168261220a565b8355505b6001600288020188555050505b505050505050565b600061233161232c61232784611508565b61211c565b611508565b9050919050565b600061234382612316565b9050919050565b600061235582612338565b9050919050565b6123658161234a565b82525050565b6000606082019050612380600083018661235c565b61238d6020830185611794565b61239a6040830184611794565b949350505050565b7f5573657220616c72656164792072656769737465726564000000000000000000600082015250565b60006123d86017836117a3565b91506123e3826123a2565b602082019050919050565b60006020820190508181036000830152612407816123cb565b9050919050565b7f557365726e616d6520616c72656164792074616b656e00000000000000000000600082015250565b60006124446016836117a3565b915061244f8261240e565b602082019050919050565b6000602082019050818103600083015261247381612437565b9050919050565b61248381611729565b82525050565b600060408201905061249e600083018561247a565b6124ab6020830184611794565b939250505056fea2646970667358221220dbfffb335f8a2512d5c359252c0c3cb8b7a1ef2df27065cc3fabe3d992fc525a64736f6c63430008120033","opcodes":"PUSH1 0x80 PUSH1 0x40 MSTORE PUSH1 0x0 PUSH1 0x1 SSTORE PUSH1 0x0 PUSH1 0x2 SSTORE CALLVALUE DUP1 ISZERO PUSH3 0x1B JUMPI PUSH1 0x0 DUP1 REVERT JUMPDEST POP CALLER PUSH1 0x0 DUP1 PUSH2 0x100 EXP DUP2 SLOAD DUP2 PUSH20 0xFFFFFFFFFFFFFFFFFFFFFFFFFFFFFFFFFFFFFFFF MUL NOT AND SWAP1 DUP4 PUSH20 0xFFFFFFFFFFFFFFFFFFFFFFFFFFFFFFFFFFFFFFFF AND MUL OR SWAP1 SSTORE POP PUSH3 0x131 PUSH1 0x40 MLOAD DUP1 PUSH1 0x40 ADD PUSH1 0x40 MSTORE DUP1 PUSH1 0x5 DUP2 MSTORE PUSH1 0x20 ADD PUSH32 0x6F776E6572000000000000000000000000000000000000000000000000000000 DUP2 MSTORE POP PUSH1 0x40 MLOAD DUP1 PUSH1 0x40 ADD PUSH1 0x40 MSTORE DUP1 PUSH1 0x5 DUP2 MSTORE PUSH1 0x20 ADD PUSH32 0x6F776E6572000000000000000000000000000000000000000000000000000000 DUP2 MSTORE POP PUSH1 0x40 MLOAD DUP1 PUSH1 0x20 ADD PUSH1 0x40 MSTORE DUP1 PUSH1 0x0 DUP2 MSTORE POP PUSH1 0x40 MLOAD DUP1 PUSH1 0x20 ADD PUSH1 0x40 MSTORE DUP1 PUSH1 0x0 DUP2 MSTORE POP PUSH1 0x40 MLOAD DUP1 PUSH1 0x40 ADD PUSH1 0x40 MSTORE DUP1 PUSH1 0x5 DUP2 MSTORE PUSH1 0x20 ADD PUSH32 0x6F776E6572000000000000000000000000000000000000000000000000000000 DUP2 MSTORE POP PUSH1 0x1 DUP1 PUSH3 0x137 PUSH1 0x20 SHL PUSH1 0x20 SHR JUMP JUMPDEST PUSH3 0xB3C JUMP JUMPDEST CALLER PUSH1 0x0 PUSH1 0x3 DUP2 GT ISZERO PUSH3 0x14F JUMPI PUSH3 0x14E PUSH3 0x543 JUMP JUMPDEST JUMPDEST PUSH1 0x3 PUSH1 0x0 DUP4 PUSH20 0xFFFFFFFFFFFFFFFFFFFFFFFFFFFFFFFFFFFFFFFF AND PUSH20 0xFFFFFFFFFFFFFFFFFFFFFFFFFFFFFFFFFFFFFFFF AND DUP2 MSTORE PUSH1 0x20 ADD SWAP1 DUP2 MSTORE PUSH1 0x20 ADD PUSH1 0x0 KECCAK256 PUSH1 0x9 ADD PUSH1 0x0 SWAP1 SLOAD SWAP1 PUSH2 0x100 EXP SWAP1 DIV PUSH1 0xFF AND PUSH1 0x3 DUP2 GT ISZERO PUSH3 0x1B4 JUMPI PUSH3 0x1B3 PUSH3 0x543 JUMP JUMPDEST JUMPDEST EQ PUSH3 0x1F7 JUMPI PUSH1 0x40 MLOAD PUSH32 0x8C379A000000000000000000000000000000000000000000000000000000000 DUP2 MSTORE PUSH1 0x4 ADD PUSH3 0x1EE SWAP1 PUSH3 0x5D3 JUMP JUMPDEST PUSH1 0x40 MLOAD DUP1 SWAP2 SUB SWAP1 REVERT JUMPDEST DUP8 PUSH1 0x5 DUP2 PUSH1 0x40 MLOAD PUSH3 0x20A SWAP2 SWAP1 PUSH3 0x66E JUMP JUMPDEST SWAP1 DUP2 MSTORE PUSH1 0x20 ADD PUSH1 0x40 MLOAD DUP1 SWAP2 SUB SWAP1 KECCAK256 PUSH1 0x0 SWAP1 SLOAD SWAP1 PUSH2 0x100 EXP SWAP1 DIV PUSH1 0xFF AND ISZERO PUSH3 0x269 JUMPI PUSH1 0x40 MLOAD PUSH32 0x8C379A000000000000000000000000000000000000000000000000000000000 DUP2 MSTORE PUSH1 0x4 ADD PUSH3 0x260 SWAP1 PUSH3 0x6D7 JUMP JUMPDEST PUSH1 0x40 MLOAD DUP1 SWAP2 SUB SWAP1 REVERT JUMPDEST PUSH1 0x1 PUSH1 0x5 DUP11 PUSH1 0x40 MLOAD PUSH3 0x27D SWAP2 SWAP1 PUSH3 0x66E JUMP JUMPDEST SWAP1 DUP2 MSTORE PUSH1 0x20 ADD PUSH1 0x40 MLOAD DUP1 SWAP2 SUB SWAP1 KECCAK256 PUSH1 0x0 PUSH2 0x100 EXP DUP2 SLOAD DUP2 PUSH1 0xFF MUL NOT AND SWAP1 DUP4 ISZERO ISZERO MUL OR SWAP1 SSTORE POP PUSH1 0x1 DUP1 SLOAD PUSH3 0x2B2 SWAP2 SWAP1 PUSH3 0x732 JUMP JUMPDEST PUSH1 0x1 DUP2 SWAP1 SSTORE POP PUSH1 0x0 PUSH1 0x1 SLOAD SWAP1 POP PUSH1 0x40 MLOAD DUP1 PUSH2 0x140 ADD PUSH1 0x40 MSTORE DUP1 DUP3 DUP2 MSTORE PUSH1 0x20 ADD CALLER PUSH20 0xFFFFFFFFFFFFFFFFFFFFFFFFFFFFFFFFFFFFFFFF AND DUP2 MSTORE PUSH1 0x20 ADD DUP12 DUP2 MSTORE PUSH1 0x20 ADD DUP11 DUP2 MSTORE PUSH1 0x20 ADD DUP8 DUP2 MSTORE PUSH1 0x20 ADD DUP7 DUP2 MSTORE PUSH1 0x20 ADD DUP6 ISZERO ISZERO DUP2 MSTORE PUSH1 0x20 ADD DUP10 DUP2 MSTORE PUSH1 0x20 ADD DUP9 DUP2 MSTORE PUSH1 0x20 ADD PUSH1 0x1 PUSH1 0x3 DUP2 GT ISZERO PUSH3 0x330 JUMPI PUSH3 0x32F PUSH3 0x543 JUMP JUMPDEST JUMPDEST DUP2 MSTORE POP PUSH1 0x3 PUSH1 0x0 CALLER PUSH20 0xFFFFFFFFFFFFFFFFFFFFFFFFFFFFFFFFFFFFFFFF AND PUSH20 0xFFFFFFFFFFFFFFFFFFFFFFFFFFFFFFFFFFFFFFFF AND DUP2 MSTORE PUSH1 0x20 ADD SWAP1 DUP2 MSTORE PUSH1 0x20 ADD PUSH1 0x0 KECCAK256 PUSH1 0x0 DUP3 ADD MLOAD DUP2 PUSH1 0x0 ADD SSTORE PUSH1 0x20 DUP3 ADD MLOAD DUP2 PUSH1 0x1 ADD PUSH1 0x0 PUSH2 0x100 EXP DUP2 SLOAD DUP2 PUSH20 0xFFFFFFFFFFFFFFFFFFFFFFFFFFFFFFFFFFFFFFFF MUL NOT AND SWAP1 DUP4 PUSH20 0xFFFFFFFFFFFFFFFFFFFFFFFFFFFFFFFFFFFFFFFF AND MUL OR SWAP1 SSTORE POP PUSH1 0x40 DUP3 ADD MLOAD DUP2 PUSH1 0x2 ADD SWAP1 DUP2 PUSH3 0x3DA SWAP2 SWAP1 PUSH3 0x9D2 JUMP JUMPDEST POP PUSH1 0x60 DUP3 ADD MLOAD DUP2 PUSH1 0x3 ADD SWAP1 DUP2 PUSH3 0x3F2 SWAP2 SWAP1 PUSH3 0x9D2 JUMP JUMPDEST POP PUSH1 0x80 DUP3 ADD MLOAD DUP2 PUSH1 0x4 ADD SWAP1 DUP2 PUSH3 0x40A SWAP2 SWAP1 PUSH3 0x9D2 JUMP JUMPDEST POP PUSH1 0xA0 DUP3 ADD MLOAD DUP2 PUSH1 0x5 ADD SSTORE PUSH1 0xC0 DUP3 ADD MLOAD DUP2 PUSH1 0x6 ADD PUSH1 0x0 PUSH2 0x100 EXP DUP2 SLOAD DUP2 PUSH1 0xFF MUL NOT AND SWAP1 DUP4 ISZERO ISZERO MUL OR SWAP1 SSTORE POP PUSH1 0xE0 DUP3 ADD MLOAD DUP2 PUSH1 0x7 ADD SWAP1 DUP2 PUSH3 0x44C SWAP2 SWAP1 PUSH3 0x9D2 JUMP JUMPDEST POP PUSH2 0x100 DUP3 ADD MLOAD DUP2 PUSH1 0x8 ADD SWAP1 DUP2 PUSH3 0x465 SWAP2 SWAP1 PUSH3 0x9D2 JUMP JUMPDEST POP PUSH2 0x120 DUP3 ADD MLOAD DUP2 PUSH1 0x9 ADD PUSH1 0x0 PUSH2 0x100 EXP DUP2 SLOAD DUP2 PUSH1 0xFF MUL NOT AND SWAP1 DUP4 PUSH1 0x3 DUP2 GT ISZERO PUSH3 0x495 JUMPI PUSH3 0x494 PUSH3 0x543 JUMP JUMPDEST JUMPDEST MUL OR SWAP1 SSTORE POP SWAP1 POP POP CALLER PUSH1 0x4 DUP12 PUSH1 0x40 MLOAD PUSH3 0x4B0 SWAP2 SWAP1 PUSH3 0x66E JUMP JUMPDEST SWAP1 DUP2 MSTORE PUSH1 0x20 ADD PUSH1 0x40 MLOAD DUP1 SWAP2 SUB SWAP1 KECCAK256 PUSH1 0x0 PUSH2 0x100 EXP DUP2 SLOAD DUP2 PUSH20 0xFFFFFFFFFFFFFFFFFFFFFFFFFFFFFFFFFFFFFFFF MUL NOT AND SWAP1 DUP4 PUSH20 0xFFFFFFFFFFFFFFFFFFFFFFFFFFFFFFFFFFFFFFFF AND MUL OR SWAP1 SSTORE POP PUSH32 0xABC58C36475157C4AC7669F9ADFBB6F254D3A3578FB89676F6866AC3B9950EED CALLER DUP3 PUSH1 0x40 MLOAD PUSH3 0x52F SWAP3 SWAP2 SWAP1 PUSH3 0xB0F JUMP JUMPDEST PUSH1 0x40 MLOAD DUP1 SWAP2 SUB SWAP1 LOG1 POP POP POP POP POP POP POP POP POP POP JUMP JUMPDEST PUSH32 0x4E487B7100000000000000000000000000000000000000000000000000000000 PUSH1 0x0 MSTORE PUSH1 0x21 PUSH1 0x4 MSTORE PUSH1 0x24 PUSH1 0x0 REVERT JUMPDEST PUSH1 0x0 DUP3 DUP3 MSTORE PUSH1 0x20 DUP3 ADD SWAP1 POP SWAP3 SWAP2 POP POP JUMP JUMPDEST PUSH32 0x5573657220616C72656164792072656769737465726564000000000000000000 PUSH1 0x0 DUP3 ADD MSTORE POP JUMP JUMPDEST PUSH1 0x0 PUSH3 0x5BB PUSH1 0x17 DUP4 PUSH3 0x572 JUMP JUMPDEST SWAP2 POP PUSH3 0x5C8 DUP3 PUSH3 0x583 JUMP JUMPDEST PUSH1 0x20 DUP3 ADD SWAP1 POP SWAP2 SWAP1 POP JUMP JUMPDEST PUSH1 0x0 PUSH1 0x20 DUP3 ADD SWAP1 POP DUP2 DUP2 SUB PUSH1 0x0 DUP4 ADD MSTORE PUSH3 0x5EE DUP2 PUSH3 0x5AC JUMP JUMPDEST SWAP1 POP SWAP2 SWAP1 POP JUMP JUMPDEST PUSH1 0x0 DUP2 MLOAD SWAP1 POP SWAP2 SWAP1 POP JUMP JUMPDEST PUSH1 0x0 DUP2 SWAP1 POP SWAP3 SWAP2 POP POP JUMP JUMPDEST PUSH1 0x0 JUMPDEST DUP4 DUP2 LT ISZERO PUSH3 0x62B JUMPI DUP1 DUP3 ADD MLOAD DUP2 DUP5 ADD MSTORE PUSH1 0x20 DUP2 ADD SWAP1 POP PUSH3 0x60E JUMP JUMPDEST PUSH1 0x0 DUP5 DUP5 ADD MSTORE POP POP POP POP JUMP JUMPDEST PUSH1 0x0 PUSH3 0x644 DUP3 PUSH3 0x5F5 JUMP JUMPDEST PUSH3 0x650 DUP2 DUP6 PUSH3 0x600 JUMP JUMPDEST SWAP4 POP PUSH3 0x662 DUP2 DUP6 PUSH1 0x20 DUP7 ADD PUSH3 0x60B JUMP JUMPDEST DUP1 DUP5 ADD SWAP2 POP POP SWAP3 SWAP2 POP POP JUMP JUMPDEST PUSH1 0x0 PUSH3 0x67C DUP3 DUP5 PUSH3 0x637 JUMP JUMPDEST SWAP2 POP DUP2 SWAP1 POP SWAP3 SWAP2 POP POP JUMP JUMPDEST PUSH32 0x557365726E616D6520616C72656164792074616B656E00000000000000000000 PUSH1 0x0 DUP3 ADD MSTORE POP JUMP JUMPDEST PUSH1 0x0 PUSH3 0x6BF PUSH1 0x16 DUP4 PUSH3 0x572 JUMP JUMPDEST SWAP2 POP PUSH3 0x6CC DUP3 PUSH3 0x687 JUMP JUMPDEST PUSH1 0x20 DUP3 ADD SWAP1 POP SWAP2 SWAP1 POP JUMP JUMPDEST PUSH1 0x0 PUSH1 0x20 DUP3 ADD SWAP1 POP DUP2 DUP2 SUB PUSH1 0x0 DUP4 ADD MSTORE PUSH3 0x6F2 DUP2 PUSH3 0x6B0 JUMP JUMPDEST SWAP1 POP SWAP2 SWAP1 POP JUMP JUMPDEST PUSH1 0x0 DUP2 SWAP1 POP SWAP2 SWAP1 POP JUMP JUMPDEST PUSH32 0x4E487B7100000000000000000000000000000000000000000000000000000000 PUSH1 0x0 MSTORE PUSH1 0x11 PUSH1 0x4 MSTORE PUSH1 0x24 PUSH1 0x0 REVERT JUMPDEST PUSH1 0x0 PUSH3 0x73F DUP3 PUSH3 0x6F9 JUMP JUMPDEST SWAP2 POP PUSH3 0x74C DUP4 PUSH3 0x6F9 JUMP JUMPDEST SWAP3 POP DUP3 DUP3 ADD SWAP1 POP DUP1 DUP3 GT ISZERO PUSH3 0x767 JUMPI PUSH3 0x766 PUSH3 0x703 JUMP JUMPDEST JUMPDEST SWAP3 SWAP2 POP POP JUMP JUMPDEST PUSH32 0x4E487B7100000000000000000000000000000000000000000000000000000000 PUSH1 0x0 MSTORE PUSH1 0x41 PUSH1 0x4 MSTORE PUSH1 0x24 PUSH1 0x0 REVERT JUMPDEST PUSH32 0x4E487B7100000000000000000000000000000000000000000000000000000000 PUSH1 0x0 MSTORE PUSH1 0x22 PUSH1 0x4 MSTORE PUSH1 0x24 PUSH1 0x0 REVERT JUMPDEST PUSH1 0x0 PUSH1 0x2 DUP3 DIV SWAP1 POP PUSH1 0x1 DUP3 AND DUP1 PUSH3 0x7E4 JUMPI PUSH1 0x7F DUP3 AND SWAP2 POP JUMPDEST PUSH1 0x20 DUP3 LT DUP2 SUB PUSH3 0x7FA JUMPI PUSH3 0x7F9 PUSH3 0x79C JUMP JUMPDEST JUMPDEST POP SWAP2 SWAP1 POP JUMP JUMPDEST PUSH1 0x0 DUP2 SWAP1 POP DUP2 PUSH1 0x0 MSTORE PUSH1 0x20 PUSH1 0x0 KECCAK256 SWAP1 POP SWAP2 SWAP1 POP JUMP JUMPDEST PUSH1 0x0 PUSH1 0x20 PUSH1 0x1F DUP4 ADD DIV SWAP1 POP SWAP2 SWAP1 POP JUMP JUMPDEST PUSH1 0x0 DUP3 DUP3 SHL SWAP1 POP SWAP3 SWAP2 POP POP JUMP JUMPDEST PUSH1 0x0 PUSH1 0x8 DUP4 MUL PUSH3 0x864 PUSH32 0xFFFFFFFFFFFFFFFFFFFFFFFFFFFFFFFFFFFFFFFFFFFFFFFFFFFFFFFFFFFFFFFF DUP3 PUSH3 0x825 JUMP JUMPDEST PUSH3 0x870 DUP7 DUP4 PUSH3 0x825 JUMP JUMPDEST SWAP6 POP DUP1 NOT DUP5 AND SWAP4 POP DUP1 DUP7 AND DUP5 OR SWAP3 POP POP POP SWAP4 SWAP3 POP POP POP JUMP JUMPDEST PUSH1 0x0 DUP2 SWAP1 POP SWAP2 SWAP1 POP JUMP JUMPDEST PUSH1 0x0 PUSH3 0x8B3 PUSH3 0x8AD PUSH3 0x8A7 DUP5 PUSH3 0x6F9 JUMP JUMPDEST PUSH3 0x888 JUMP JUMPDEST PUSH3 0x6F9 JUMP JUMPDEST SWAP1 POP SWAP2 SWAP1 POP JUMP JUMPDEST PUSH1 0x0 DUP2 SWAP1 POP SWAP2 SWAP1 POP JUMP JUMPDEST PUSH3 0x8CF DUP4 PUSH3 0x892 JUMP JUMPDEST PUSH3 0x8E7 PUSH3 0x8DE DUP3 PUSH3 0x8BA JUMP JUMPDEST DUP5 DUP5 SLOAD PUSH3 0x832 JUMP JUMPDEST DUP3 SSTORE POP POP POP POP JUMP JUMPDEST PUSH1 0x0 SWAP1 JUMP JUMPDEST PUSH3 0x8FE PUSH3 0x8EF JUMP JUMPDEST PUSH3 0x90B DUP2 DUP5 DUP5 PUSH3 0x8C4 JUMP JUMPDEST POP POP POP JUMP JUMPDEST JUMPDEST DUP2 DUP2 LT ISZERO PUSH3 0x933 JUMPI PUSH3 0x927 PUSH1 0x0 DUP3 PUSH3 0x8F4 JUMP JUMPDEST PUSH1 0x1 DUP2 ADD SWAP1 POP PUSH3 0x911 JUMP JUMPDEST POP POP JUMP JUMPDEST PUSH1 0x1F DUP3 GT ISZERO PUSH3 0x982 JUMPI PUSH3 0x94C DUP2 PUSH3 0x800 JUMP JUMPDEST PUSH3 0x957 DUP5 PUSH3 0x815 JUMP JUMPDEST DUP2 ADD PUSH1 0x20 DUP6 LT ISZERO PUSH3 0x967 JUMPI DUP2 SWAP1 POP JUMPDEST PUSH3 0x97F PUSH3 0x976 DUP6 PUSH3 0x815 JUMP JUMPDEST DUP4 ADD DUP3 PUSH3 0x910 JUMP JUMPDEST POP POP JUMPDEST POP POP POP JUMP JUMPDEST PUSH1 0x0 DUP3 DUP3 SHR SWAP1 POP SWAP3 SWAP2 POP POP JUMP JUMPDEST PUSH1 0x0 PUSH3 0x9A7 PUSH1 0x0 NOT DUP5 PUSH1 0x8 MUL PUSH3 0x987 JUMP JUMPDEST NOT DUP1 DUP4 AND SWAP2 POP POP SWAP3 SWAP2 POP POP JUMP JUMPDEST PUSH1 0x0 PUSH3 0x9C2 DUP4 DUP4 PUSH3 0x994 JUMP JUMPDEST SWAP2 POP DUP3 PUSH1 0x2 MUL DUP3 OR SWAP1 POP SWAP3 SWAP2 POP POP JUMP JUMPDEST PUSH3 0x9DD DUP3 PUSH3 0x5F5 JUMP JUMPDEST PUSH8 0xFFFFFFFFFFFFFFFF DUP2 GT ISZERO PUSH3 0x9F9 JUMPI PUSH3 0x9F8 PUSH3 0x76D JUMP JUMPDEST JUMPDEST PUSH3 0xA05 DUP3 SLOAD PUSH3 0x7CB JUMP JUMPDEST PUSH3 0xA12 DUP3 DUP3 DUP6 PUSH3 0x937 JUMP JUMPDEST PUSH1 0x0 PUSH1 0x20 SWAP1 POP PUSH1 0x1F DUP4 GT PUSH1 0x1 DUP2 EQ PUSH3 0xA4A JUMPI PUSH1 0x0 DUP5 ISZERO PUSH3 0xA35 JUMPI DUP3 DUP8 ADD MLOAD SWAP1 POP JUMPDEST PUSH3 0xA41 DUP6 DUP3 PUSH3 0x9B4 JUMP JUMPDEST DUP7 SSTORE POP PUSH3 0xAB1 JUMP JUMPDEST PUSH1 0x1F NOT DUP5 AND PUSH3 0xA5A DUP7 PUSH3 0x800 JUMP JUMPDEST PUSH1 0x0 JUMPDEST DUP3 DUP2 LT ISZERO PUSH3 0xA84 JUMPI DUP5 DUP10 ADD MLOAD DUP3 SSTORE PUSH1 0x1 DUP3 ADD SWAP2 POP PUSH1 0x20 DUP6 ADD SWAP5 POP PUSH1 0x20 DUP2 ADD SWAP1 POP PUSH3 0xA5D JUMP JUMPDEST DUP7 DUP4 LT ISZERO PUSH3 0xAA4 JUMPI DUP5 DUP10 ADD MLOAD PUSH3 0xAA0 PUSH1 0x1F DUP10 AND DUP3 PUSH3 0x994 JUMP JUMPDEST DUP4 SSTORE POP JUMPDEST PUSH1 0x1 PUSH1 0x2 DUP9 MUL ADD DUP9 SSTORE POP POP POP JUMPDEST POP POP POP POP POP POP JUMP JUMPDEST PUSH1 0x0 PUSH20 0xFFFFFFFFFFFFFFFFFFFFFFFFFFFFFFFFFFFFFFFF DUP3 AND SWAP1 POP SWAP2 SWAP1 POP JUMP JUMPDEST PUSH1 0x0 PUSH3 0xAE6 DUP3 PUSH3 0xAB9 JUMP JUMPDEST SWAP1 POP SWAP2 SWAP1 POP JUMP JUMPDEST PUSH3 0xAF8 DUP2 PUSH3 0xAD9 JUMP JUMPDEST DUP3 MSTORE POP POP JUMP JUMPDEST PUSH3 0xB09 DUP2 PUSH3 0x6F9 JUMP JUMPDEST DUP3 MSTORE POP POP JUMP JUMPDEST PUSH1 0x0 PUSH1 0x40 DUP3 ADD SWAP1 POP PUSH3 0xB26 PUSH1 0x0 DUP4 ADD DUP6 PUSH3 0xAED JUMP JUMPDEST PUSH3 0xB35 PUSH1 0x20 DUP4 ADD DUP5 PUSH3 0xAFE JUMP JUMPDEST SWAP4 SWAP3 POP POP POP JUMP JUMPDEST PUSH2 0x24E8 DUP1 PUSH3 0xB4C PUSH1 0x0 CODECOPY PUSH1 0x0 RETURN INVALID PUSH1 0x80 PUSH1 0x40 MSTORE CALLVALUE DUP1 ISZERO PUSH2 0x10 JUMPI PUSH1 0x0 DUP1 REVERT JUMPDEST POP PUSH1 0x4 CALLDATASIZE LT PUSH2 0x93 JUMPI PUSH1 0x0 CALLDATALOAD PUSH1 0xE0 SHR DUP1 PUSH4 0x9A2194A9 GT PUSH2 0x66 JUMPI DUP1 PUSH4 0x9A2194A9 EQ PUSH2 0x13B JUMPI DUP1 PUSH4 0xB90C2073 EQ PUSH2 0x16B JUMPI DUP1 PUSH4 0xBFF1F9E1 EQ PUSH2 0x19B JUMPI DUP1 PUSH4 0xC096CDD5 EQ PUSH2 0x1B9 JUMPI DUP1 PUSH4 0xF82217C1 EQ PUSH2 0x1D5 JUMPI PUSH2 0x93 JUMP JUMPDEST DUP1 PUSH4 0x64E95895 EQ PUSH2 0x98 JUMPI DUP1 PUSH4 0x6F77926B EQ PUSH2 0xC8 JUMPI DUP1 PUSH4 0x8DA5CB5B EQ PUSH2 0xFF JUMPI DUP1 PUSH4 0x8E53FB41 EQ PUSH2 0x11D JUMPI JUMPDEST PUSH1 0x0 DUP1 REVERT JUMPDEST PUSH2 0xB2 PUSH1 0x4 DUP1 CALLDATASIZE SUB DUP2 ADD SWAP1 PUSH2 0xAD SWAP2 SWAP1 PUSH2 0x14CC JUMP JUMPDEST PUSH2 0x1F1 JUMP JUMPDEST PUSH1 0x40 MLOAD PUSH2 0xBF SWAP2 SWAP1 PUSH2 0x1707 JUMP JUMPDEST PUSH1 0x40 MLOAD DUP1 SWAP2 SUB SWAP1 RETURN JUMPDEST PUSH2 0xE2 PUSH1 0x4 DUP1 CALLDATASIZE SUB DUP2 ADD SWAP1 PUSH2 0xDD SWAP2 SWAP1 PUSH2 0x1767 JUMP JUMPDEST PUSH2 0x540 JUMP JUMPDEST PUSH1 0x40 MLOAD PUSH2 0xF6 SWAP9 SWAP8 SWAP7 SWAP6 SWAP5 SWAP4 SWAP3 SWAP2 SWAP1 PUSH2 0x1808 JUMP JUMPDEST PUSH1 0x40 MLOAD DUP1 SWAP2 SUB SWAP1 RETURN JUMPDEST PUSH2 0x107 PUSH2 0x97B JUMP JUMPDEST PUSH1 0x40 MLOAD PUSH2 0x114 SWAP2 SWAP1 PUSH2 0x18B8 JUMP JUMPDEST PUSH1 0x40 MLOAD DUP1 SWAP2 SUB SWAP1 RETURN JUMPDEST PUSH2 0x125 PUSH2 0x99F JUMP JUMPDEST PUSH1 0x40 MLOAD PUSH2 0x132 SWAP2 SWAP1 PUSH2 0x18D3 JUMP JUMPDEST PUSH1 0x40 MLOAD DUP1 SWAP2 SUB SWAP1 RETURN JUMPDEST PUSH2 0x155 PUSH1 0x4 DUP1 CALLDATASIZE SUB DUP2 ADD SWAP1 PUSH2 0x150 SWAP2 SWAP1 PUSH2 0x1767 JUMP JUMPDEST PUSH2 0x9A5 JUMP JUMPDEST PUSH1 0x40 MLOAD PUSH2 0x162 SWAP2 SWAP1 PUSH2 0x1A67 JUMP JUMPDEST PUSH1 0x40 MLOAD DUP1 SWAP2 SUB SWAP1 RETURN JUMPDEST PUSH2 0x185 PUSH1 0x4 DUP1 CALLDATASIZE SUB DUP2 ADD SWAP1 PUSH2 0x180 SWAP2 SWAP1 PUSH2 0x1BBE JUMP JUMPDEST PUSH2 0xDA8 JUMP JUMPDEST PUSH1 0x40 MLOAD PUSH2 0x192 SWAP2 SWAP1 PUSH2 0x1C07 JUMP JUMPDEST PUSH1 0x40 MLOAD DUP1 SWAP2 SUB SWAP1 RETURN JUMPDEST PUSH2 0x1A3 PUSH2 0xDDE JUMP JUMPDEST PUSH1 0x40 MLOAD PUSH2 0x1B0 SWAP2 SWAP1 PUSH2 0x18D3 JUMP JUMPDEST PUSH1 0x40 MLOAD DUP1 SWAP2 SUB SWAP1 RETURN JUMPDEST PUSH2 0x1D3 PUSH1 0x4 DUP1 CALLDATASIZE SUB DUP2 ADD SWAP1 PUSH2 0x1CE SWAP2 SWAP1 PUSH2 0x1C4E JUMP JUMPDEST PUSH2 0xDE4 JUMP JUMPDEST STOP JUMPDEST PUSH2 0x1EF PUSH1 0x4 DUP1 CALLDATASIZE SUB DUP2 ADD SWAP1 PUSH2 0x1EA SWAP2 SWAP1 PUSH2 0x1D05 JUMP JUMPDEST PUSH2 0x102F JUMP JUMPDEST STOP JUMPDEST PUSH2 0x1F9 PUSH2 0x1415 JUMP JUMPDEST CALLER PUSH1 0x1 PUSH1 0x3 DUP2 GT ISZERO PUSH2 0x20E JUMPI PUSH2 0x20D PUSH2 0x15D9 JUMP JUMPDEST JUMPDEST PUSH1 0x3 PUSH1 0x0 DUP4 PUSH20 0xFFFFFFFFFFFFFFFFFFFFFFFFFFFFFFFFFFFFFFFF AND PUSH20 0xFFFFFFFFFFFFFFFFFFFFFFFFFFFFFFFFFFFFFFFF AND DUP2 MSTORE PUSH1 0x20 ADD SWAP1 DUP2 MSTORE PUSH1 0x20 ADD PUSH1 0x0 KECCAK256 PUSH1 0x9 ADD PUSH1 0x0 SWAP1 SLOAD SWAP1 PUSH2 0x100 EXP SWAP1 DIV PUSH1 0xFF AND PUSH1 0x3 DUP2 GT ISZERO PUSH2 0x270 JUMPI PUSH2 0x26F PUSH2 0x15D9 JUMP JUMPDEST JUMPDEST EQ PUSH2 0x2B0 JUMPI PUSH1 0x40 MLOAD PUSH32 0x8C379A000000000000000000000000000000000000000000000000000000000 DUP2 MSTORE PUSH1 0x4 ADD PUSH2 0x2A7 SWAP1 PUSH2 0x1E7F JUMP JUMPDEST PUSH1 0x40 MLOAD DUP1 SWAP2 SUB SWAP1 REVERT JUMPDEST DUP3 PUSH1 0x1 PUSH1 0x3 DUP2 GT ISZERO PUSH2 0x2C5 JUMPI PUSH2 0x2C4 PUSH2 0x15D9 JUMP JUMPDEST JUMPDEST PUSH1 0x6 PUSH1 0x0 DUP4 DUP2 MSTORE PUSH1 0x20 ADD SWAP1 DUP2 MSTORE PUSH1 0x20 ADD PUSH1 0x0 KECCAK256 PUSH1 0x7 ADD PUSH1 0x0 SWAP1 SLOAD SWAP1 PUSH2 0x100 EXP SWAP1 DIV PUSH1 0xFF AND PUSH1 0x3 DUP2 GT ISZERO PUSH2 0x2FB JUMPI PUSH2 0x2FA PUSH2 0x15D9 JUMP JUMPDEST JUMPDEST EQ PUSH2 0x33B JUMPI PUSH1 0x40 MLOAD PUSH32 0x8C379A000000000000000000000000000000000000000000000000000000000 DUP2 MSTORE PUSH1 0x4 ADD PUSH2 0x332 SWAP1 PUSH2 0x1EEB JUMP JUMPDEST PUSH1 0x40 MLOAD DUP1 SWAP2 SUB SWAP1 REVERT JUMPDEST PUSH1 0x6 PUSH1 0x0 DUP6 DUP2 MSTORE PUSH1 0x20 ADD SWAP1 DUP2 MSTORE PUSH1 0x20 ADD PUSH1 0x0 KECCAK256 PUSH1 0x40 MLOAD DUP1 PUSH2 0x100 ADD PUSH1 0x40 MSTORE SWAP1 DUP2 PUSH1 0x0 DUP3 ADD SLOAD DUP2 MSTORE PUSH1 0x20 ADD PUSH1 0x1 DUP3 ADD PUSH1 0x0 SWAP1 SLOAD SWAP1 PUSH2 0x100 EXP SWAP1 DIV PUSH20 0xFFFFFFFFFFFFFFFFFFFFFFFFFFFFFFFFFFFFFFFF AND PUSH20 0xFFFFFFFFFFFFFFFFFFFFFFFFFFFFFFFFFFFFFFFF AND PUSH20 0xFFFFFFFFFFFFFFFFFFFFFFFFFFFFFFFFFFFFFFFF AND DUP2 MSTORE PUSH1 0x20 ADD PUSH1 0x2 DUP3 ADD DUP1 SLOAD PUSH2 0x3CA SWAP1 PUSH2 0x1F3A JUMP JUMPDEST DUP1 PUSH1 0x1F ADD PUSH1 0x20 DUP1 SWAP2 DIV MUL PUSH1 0x20 ADD PUSH1 0x40 MLOAD SWAP1 DUP2 ADD PUSH1 0x40 MSTORE DUP1 SWAP3 SWAP2 SWAP1 DUP2 DUP2 MSTORE PUSH1 0x20 ADD DUP3 DUP1 SLOAD PUSH2 0x3F6 SWAP1 PUSH2 0x1F3A JUMP JUMPDEST DUP1 ISZERO PUSH2 0x443 JUMPI DUP1 PUSH1 0x1F LT PUSH2 0x418 JUMPI PUSH2 0x100 DUP1 DUP4 SLOAD DIV MUL DUP4 MSTORE SWAP2 PUSH1 0x20 ADD SWAP2 PUSH2 0x443 JUMP JUMPDEST DUP3 ADD SWAP2 SWAP1 PUSH1 0x0 MSTORE PUSH1 0x20 PUSH1 0x0 KECCAK256 SWAP1 JUMPDEST DUP2 SLOAD DUP2 MSTORE SWAP1 PUSH1 0x1 ADD SWAP1 PUSH1 0x20 ADD DUP1 DUP4 GT PUSH2 0x426 JUMPI DUP3 SWAP1 SUB PUSH1 0x1F AND DUP3 ADD SWAP2 JUMPDEST POP POP POP POP POP DUP2 MSTORE PUSH1 0x20 ADD PUSH1 0x3 DUP3 ADD DUP1 SLOAD PUSH2 0x45C SWAP1 PUSH2 0x1F3A JUMP JUMPDEST DUP1 PUSH1 0x1F ADD PUSH1 0x20 DUP1 SWAP2 DIV MUL PUSH1 0x20 ADD PUSH1 0x40 MLOAD SWAP1 DUP2 ADD PUSH1 0x40 MSTORE DUP1 SWAP3 SWAP2 SWAP1 DUP2 DUP2 MSTORE PUSH1 0x20 ADD DUP3 DUP1 SLOAD PUSH2 0x488 SWAP1 PUSH2 0x1F3A JUMP JUMPDEST DUP1 ISZERO PUSH2 0x4D5 JUMPI DUP1 PUSH1 0x1F LT PUSH2 0x4AA JUMPI PUSH2 0x100 DUP1 DUP4 SLOAD DIV MUL DUP4 MSTORE SWAP2 PUSH1 0x20 ADD SWAP2 PUSH2 0x4D5 JUMP JUMPDEST DUP3 ADD SWAP2 SWAP1 PUSH1 0x0 MSTORE PUSH1 0x20 PUSH1 0x0 KECCAK256 SWAP1 JUMPDEST DUP2 SLOAD DUP2 MSTORE SWAP1 PUSH1 0x1 ADD SWAP1 PUSH1 0x20 ADD DUP1 DUP4 GT PUSH2 0x4B8 JUMPI DUP3 SWAP1 SUB PUSH1 0x1F AND DUP3 ADD SWAP2 JUMPDEST POP POP POP POP POP DUP2 MSTORE PUSH1 0x20 ADD PUSH1 0x4 DUP3 ADD SLOAD DUP2 MSTORE PUSH1 0x20 ADD PUSH1 0x5 DUP3 ADD SLOAD DUP2 MSTORE PUSH1 0x20 ADD PUSH1 0x6 DUP3 ADD SLOAD DUP2 MSTORE PUSH1 0x20 ADD PUSH1 0x7 DUP3 ADD PUSH1 0x0 SWAP1 SLOAD SWAP1 PUSH2 0x100 EXP SWAP1 DIV PUSH1 0xFF AND PUSH1 0x3 DUP2 GT ISZERO PUSH2 0x521 JUMPI PUSH2 0x520 PUSH2 0x15D9 JUMP JUMPDEST JUMPDEST PUSH1 0x3 DUP2 GT ISZERO PUSH2 0x533 JUMPI PUSH2 0x532 PUSH2 0x15D9 JUMP JUMPDEST JUMPDEST DUP2 MSTORE POP POP SWAP3 POP POP POP SWAP2 SWAP1 POP JUMP JUMPDEST PUSH1 0x0 PUSH1 0x60 DUP1 PUSH1 0x60 PUSH1 0x0 DUP1 PUSH1 0x60 DUP1 PUSH1 0x0 PUSH1 0x3 PUSH1 0x0 DUP12 PUSH20 0xFFFFFFFFFFFFFFFFFFFFFFFFFFFFFFFFFFFFFFFF AND PUSH20 0xFFFFFFFFFFFFFFFFFFFFFFFFFFFFFFFFFFFFFFFF AND DUP2 MSTORE PUSH1 0x20 ADD SWAP1 DUP2 MSTORE PUSH1 0x20 ADD PUSH1 0x0 KECCAK256 PUSH1 0x40 MLOAD DUP1 PUSH2 0x140 ADD PUSH1 0x40 MSTORE SWAP1 DUP2 PUSH1 0x0 DUP3 ADD SLOAD DUP2 MSTORE PUSH1 0x20 ADD PUSH1 0x1 DUP3 ADD PUSH1 0x0 SWAP1 SLOAD SWAP1 PUSH2 0x100 EXP SWAP1 DIV PUSH20 0xFFFFFFFFFFFFFFFFFFFFFFFFFFFFFFFFFFFFFFFF AND PUSH20 0xFFFFFFFFFFFFFFFFFFFFFFFFFFFFFFFFFFFFFFFF AND PUSH20 0xFFFFFFFFFFFFFFFFFFFFFFFFFFFFFFFFFFFFFFFF AND DUP2 MSTORE PUSH1 0x20 ADD PUSH1 0x2 DUP3 ADD DUP1 SLOAD PUSH2 0x60A SWAP1 PUSH2 0x1F3A JUMP JUMPDEST DUP1 PUSH1 0x1F ADD PUSH1 0x20 DUP1 SWAP2 DIV MUL PUSH1 0x20 ADD PUSH1 0x40 MLOAD SWAP1 DUP2 ADD PUSH1 0x40 MSTORE DUP1 SWAP3 SWAP2 SWAP1 DUP2 DUP2 MSTORE PUSH1 0x20 ADD DUP3 DUP1 SLOAD PUSH2 0x636 SWAP1 PUSH2 0x1F3A JUMP JUMPDEST DUP1 ISZERO PUSH2 0x683 JUMPI DUP1 PUSH1 0x1F LT PUSH2 0x658 JUMPI PUSH2 0x100 DUP1 DUP4 SLOAD DIV MUL DUP4 MSTORE SWAP2 PUSH1 0x20 ADD SWAP2 PUSH2 0x683 JUMP JUMPDEST DUP3 ADD SWAP2 SWAP1 PUSH1 0x0 MSTORE PUSH1 0x20 PUSH1 0x0 KECCAK256 SWAP1 JUMPDEST DUP2 SLOAD DUP2 MSTORE SWAP1 PUSH1 0x1 ADD SWAP1 PUSH1 0x20 ADD DUP1 DUP4 GT PUSH2 0x666 JUMPI DUP3 SWAP1 SUB PUSH1 0x1F AND DUP3 ADD SWAP2 JUMPDEST POP POP POP POP POP DUP2 MSTORE PUSH1 0x20 ADD PUSH1 0x3 DUP3 ADD DUP1 SLOAD PUSH2 0x69C SWAP1 PUSH2 0x1F3A JUMP JUMPDEST DUP1 PUSH1 0x1F ADD PUSH1 0x20 DUP1 SWAP2 DIV MUL PUSH1 0x20 ADD PUSH1 0x40 MLOAD SWAP1 DUP2 ADD PUSH1 0x40 MSTORE DUP1 SWAP3 SWAP2 SWAP1 DUP2 DUP2 MSTORE PUSH1 0x20 ADD DUP3 DUP1 SLOAD PUSH2 0x6C8 SWAP1 PUSH2 0x1F3A JUMP JUMPDEST DUP1 ISZERO PUSH2 0x715 JUMPI DUP1 PUSH1 0x1F LT PUSH2 0x6EA JUMPI PUSH2 0x100 DUP1 DUP4 SLOAD DIV MUL DUP4 MSTORE SWAP2 PUSH1 0x20 ADD SWAP2 PUSH2 0x715 JUMP JUMPDEST DUP3 ADD SWAP2 SWAP1 PUSH1 0x0 MSTORE PUSH1 0x20 PUSH1 0x0 KECCAK256 SWAP1 JUMPDEST DUP2 SLOAD DUP2 MSTORE SWAP1 PUSH1 0x1 ADD SWAP1 PUSH1 0x20 ADD DUP1 DUP4 GT PUSH2 0x6F8 JUMPI DUP3 SWAP1 SUB PUSH1 0x1F AND DUP3 ADD SWAP2 JUMPDEST POP POP POP POP POP DUP2 MSTORE PUSH1 0x20 ADD PUSH1 0x4 DUP3 ADD DUP1 SLOAD PUSH2 0x72E SWAP1 PUSH2 0x1F3A JUMP JUMPDEST DUP1 PUSH1 0x1F ADD PUSH1 0x20 DUP1 SWAP2 DIV MUL PUSH1 0x20 ADD PUSH1 0x40 MLOAD SWAP1 DUP2 ADD PUSH1 0x40 MSTORE DUP1 SWAP3 SWAP2 SWAP1 DUP2 DUP2 MSTORE PUSH1 0x20 ADD DUP3 DUP1 SLOAD PUSH2 0x75A SWAP1 PUSH2 0x1F3A JUMP JUMPDEST DUP1 ISZERO PUSH2 0x7A7 JUMPI DUP1 PUSH1 0x1F LT PUSH2 0x77C JUMPI PUSH2 0x100 DUP1 DUP4 SLOAD DIV MUL DUP4 MSTORE SWAP2 PUSH1 0x20 ADD SWAP2 PUSH2 0x7A7 JUMP JUMPDEST DUP3 ADD SWAP2 SWAP1 PUSH1 0x0 MSTORE PUSH1 0x20 PUSH1 0x0 KECCAK256 SWAP1 JUMPDEST DUP2 SLOAD DUP2 MSTORE SWAP1 PUSH1 0x1 ADD SWAP1 PUSH1 0x20 ADD DUP1 DUP4 GT PUSH2 0x78A JUMPI DUP3 SWAP1 SUB PUSH1 0x1F AND DUP3 ADD SWAP2 JUMPDEST POP POP POP POP POP DUP2 MSTORE PUSH1 0x20 ADD PUSH1 0x5 DUP3 ADD SLOAD DUP2 MSTORE PUSH1 0x20 ADD PUSH1 0x6 DUP3 ADD PUSH1 0x0 SWAP1 SLOAD SWAP1 PUSH2 0x100 EXP SWAP1 DIV PUSH1 0xFF AND ISZERO ISZERO ISZERO ISZERO DUP2 MSTORE PUSH1 0x20 ADD PUSH1 0x7 DUP3 ADD DUP1 SLOAD PUSH2 0x7E5 SWAP1 PUSH2 0x1F3A JUMP JUMPDEST DUP1 PUSH1 0x1F ADD PUSH1 0x20 DUP1 SWAP2 DIV MUL PUSH1 0x20 ADD PUSH1 0x40 MLOAD SWAP1 DUP2 ADD PUSH1 0x40 MSTORE DUP1 SWAP3 SWAP2 SWAP1 DUP2 DUP2 MSTORE PUSH1 0x20 ADD DUP3 DUP1 SLOAD PUSH2 0x811 SWAP1 PUSH2 0x1F3A JUMP JUMPDEST DUP1 ISZERO PUSH2 0x85E JUMPI DUP1 PUSH1 0x1F LT PUSH2 0x833 JUMPI PUSH2 0x100 DUP1 DUP4 SLOAD DIV MUL DUP4 MSTORE SWAP2 PUSH1 0x20 ADD SWAP2 PUSH2 0x85E JUMP JUMPDEST DUP3 ADD SWAP2 SWAP1 PUSH1 0x0 MSTORE PUSH1 0x20 PUSH1 0x0 KECCAK256 SWAP1 JUMPDEST DUP2 SLOAD DUP2 MSTORE SWAP1 PUSH1 0x1 ADD SWAP1 PUSH1 0x20 ADD DUP1 DUP4 GT PUSH2 0x841 JUMPI DUP3 SWAP1 SUB PUSH1 0x1F AND DUP3 ADD SWAP2 JUMPDEST POP POP POP POP POP DUP2 MSTORE PUSH1 0x20 ADD PUSH1 0x8 DUP3 ADD DUP1 SLOAD PUSH2 0x877 SWAP1 PUSH2 0x1F3A JUMP JUMPDEST DUP1 PUSH1 0x1F ADD PUSH1 0x20 DUP1 SWAP2 DIV MUL PUSH1 0x20 ADD PUSH1 0x40 MLOAD SWAP1 DUP2 ADD PUSH1 0x40 MSTORE DUP1 SWAP3 SWAP2 SWAP1 DUP2 DUP2 MSTORE PUSH1 0x20 ADD DUP3 DUP1 SLOAD PUSH2 0x8A3 SWAP1 PUSH2 0x1F3A JUMP JUMPDEST DUP1 ISZERO PUSH2 0x8F0 JUMPI DUP1 PUSH1 0x1F LT PUSH2 0x8C5 JUMPI PUSH2 0x100 DUP1 DUP4 SLOAD DIV MUL DUP4 MSTORE SWAP2 PUSH1 0x20 ADD SWAP2 PUSH2 0x8F0 JUMP JUMPDEST DUP3 ADD SWAP2 SWAP1 PUSH1 0x0 MSTORE PUSH1 0x20 PUSH1 0x0 KECCAK256 SWAP1 JUMPDEST DUP2 SLOAD DUP2 MSTORE SWAP1 PUSH1 0x1 ADD SWAP1 PUSH1 0x20 ADD DUP1 DUP4 GT PUSH2 0x8D3 JUMPI DUP3 SWAP1 SUB PUSH1 0x1F AND DUP3 ADD SWAP2 JUMPDEST POP POP POP POP POP DUP2 MSTORE PUSH1 0x20 ADD PUSH1 0x9 DUP3 ADD PUSH1 0x0 SWAP1 SLOAD SWAP1 PUSH2 0x100 EXP SWAP1 DIV PUSH1 0xFF AND PUSH1 0x3 DUP2 GT ISZERO PUSH2 0x91E JUMPI PUSH2 0x91D PUSH2 0x15D9 JUMP JUMPDEST JUMPDEST PUSH1 0x3 DUP2 GT ISZERO PUSH2 0x930 JUMPI PUSH2 0x92F PUSH2 0x15D9 JUMP JUMPDEST JUMPDEST DUP2 MSTORE POP POP SWAP1 POP DUP1 PUSH1 0x0 ADD MLOAD DUP2 PUSH1 0x40 ADD MLOAD DUP3 PUSH1 0x60 ADD MLOAD DUP4 PUSH1 0x80 ADD MLOAD DUP5 PUSH1 0xA0 ADD MLOAD DUP6 PUSH1 0xC0 ADD MLOAD DUP7 PUSH1 0xE0 ADD MLOAD DUP8 PUSH2 0x100 ADD MLOAD SWAP9 POP SWAP9 POP SWAP9 POP SWAP9 POP SWAP9 POP SWAP9 POP SWAP9 POP SWAP9 POP POP SWAP2 SWAP4 SWAP6 SWAP8 POP SWAP2 SWAP4 SWAP6 SWAP8 JUMP JUMPDEST PUSH1 0x0 DUP1 SLOAD SWAP1 PUSH2 0x100 EXP SWAP1 DIV PUSH20 0xFFFFFFFFFFFFFFFFFFFFFFFFFFFFFFFFFFFFFFFF AND DUP2 JUMP JUMPDEST PUSH1 0x2 SLOAD DUP2 JUMP JUMPDEST PUSH1 0x60 DUP2 PUSH1 0x1 PUSH1 0x3 DUP2 GT ISZERO PUSH2 0x9BC JUMPI PUSH2 0x9BB PUSH2 0x15D9 JUMP JUMPDEST JUMPDEST PUSH1 0x3 PUSH1 0x0 DUP4 PUSH20 0xFFFFFFFFFFFFFFFFFFFFFFFFFFFFFFFFFFFFFFFF AND PUSH20 0xFFFFFFFFFFFFFFFFFFFFFFFFFFFFFFFFFFFFFFFF AND DUP2 MSTORE PUSH1 0x20 ADD SWAP1 DUP2 MSTORE PUSH1 0x20 ADD PUSH1 0x0 KECCAK256 PUSH1 0x9 ADD PUSH1 0x0 SWAP1 SLOAD SWAP1 PUSH2 0x100 EXP SWAP1 DIV PUSH1 0xFF AND PUSH1 0x3 DUP2 GT ISZERO PUSH2 0xA1E JUMPI PUSH2 0xA1D PUSH2 0x15D9 JUMP JUMPDEST JUMPDEST EQ PUSH2 0xA5E JUMPI PUSH1 0x40 MLOAD PUSH32 0x8C379A000000000000000000000000000000000000000000000000000000000 DUP2 MSTORE PUSH1 0x4 ADD PUSH2 0xA55 SWAP1 PUSH2 0x1E7F JUMP JUMPDEST PUSH1 0x40 MLOAD DUP1 SWAP2 SUB SWAP1 REVERT JUMPDEST PUSH1 0x0 PUSH1 0x7 PUSH1 0x0 DUP6 PUSH20 0xFFFFFFFFFFFFFFFFFFFFFFFFFFFFFFFFFFFFFFFF AND PUSH20 0xFFFFFFFFFFFFFFFFFFFFFFFFFFFFFFFFFFFFFFFF AND DUP2 MSTORE PUSH1 0x20 ADD SWAP1 DUP2 MSTORE PUSH1 0x20 ADD PUSH1 0x0 KECCAK256 DUP1 SLOAD DUP1 PUSH1 0x20 MUL PUSH1 0x20 ADD PUSH1 0x40 MLOAD SWAP1 DUP2 ADD PUSH1 0x40 MSTORE DUP1 SWAP3 SWAP2 SWAP1 DUP2 DUP2 MSTORE PUSH1 0x20 ADD DUP3 DUP1 SLOAD DUP1 ISZERO PUSH2 0xAE9 JUMPI PUSH1 0x20 MUL DUP3 ADD SWAP2 SWAP1 PUSH1 0x0 MSTORE PUSH1 0x20 PUSH1 0x0 KECCAK256 SWAP1 JUMPDEST DUP2 SLOAD DUP2 MSTORE PUSH1 0x20 ADD SWAP1 PUSH1 0x1 ADD SWAP1 DUP1 DUP4 GT PUSH2 0xAD5 JUMPI JUMPDEST POP POP POP POP POP SWAP1 POP PUSH1 0x0 DUP2 MLOAD PUSH8 0xFFFFFFFFFFFFFFFF DUP2 GT ISZERO PUSH2 0xB0D JUMPI PUSH2 0xB0C PUSH2 0x1A93 JUMP JUMPDEST JUMPDEST PUSH1 0x40 MLOAD SWAP1 DUP1 DUP3 MSTORE DUP1 PUSH1 0x20 MUL PUSH1 0x20 ADD DUP3 ADD PUSH1 0x40 MSTORE DUP1 ISZERO PUSH2 0xB46 JUMPI DUP2 PUSH1 0x20 ADD JUMPDEST PUSH2 0xB33 PUSH2 0x1415 JUMP JUMPDEST DUP2 MSTORE PUSH1 0x20 ADD SWAP1 PUSH1 0x1 SWAP1 SUB SWAP1 DUP2 PUSH2 0xB2B JUMPI SWAP1 POP JUMPDEST POP SWAP1 POP PUSH1 0x0 JUMPDEST DUP3 MLOAD DUP2 LT ISZERO PUSH2 0xD9C JUMPI PUSH1 0x6 PUSH1 0x0 DUP5 DUP4 DUP2 MLOAD DUP2 LT PUSH2 0xB6C JUMPI PUSH2 0xB6B PUSH2 0x1F6B JUMP JUMPDEST JUMPDEST PUSH1 0x20 MUL PUSH1 0x20 ADD ADD MLOAD DUP2 MSTORE PUSH1 0x20 ADD SWAP1 DUP2 MSTORE PUSH1 0x20 ADD PUSH1 0x0 KECCAK256 PUSH1 0x40 MLOAD DUP1 PUSH2 0x100 ADD PUSH1 0x40 MSTORE SWAP1 DUP2 PUSH1 0x0 DUP3 ADD SLOAD DUP2 MSTORE PUSH1 0x20 ADD PUSH1 0x1 DUP3 ADD PUSH1 0x0 SWAP1 SLOAD SWAP1 PUSH2 0x100 EXP SWAP1 DIV PUSH20 0xFFFFFFFFFFFFFFFFFFFFFFFFFFFFFFFFFFFFFFFF AND PUSH20 0xFFFFFFFFFFFFFFFFFFFFFFFFFFFFFFFFFFFFFFFF AND PUSH20 0xFFFFFFFFFFFFFFFFFFFFFFFFFFFFFFFFFFFFFFFF AND DUP2 MSTORE PUSH1 0x20 ADD PUSH1 0x2 DUP3 ADD DUP1 SLOAD PUSH2 0xBFE SWAP1 PUSH2 0x1F3A JUMP JUMPDEST DUP1 PUSH1 0x1F ADD PUSH1 0x20 DUP1 SWAP2 DIV MUL PUSH1 0x20 ADD PUSH1 0x40 MLOAD SWAP1 DUP2 ADD PUSH1 0x40 MSTORE DUP1 SWAP3 SWAP2 SWAP1 DUP2 DUP2 MSTORE PUSH1 0x20 ADD DUP3 DUP1 SLOAD PUSH2 0xC2A SWAP1 PUSH2 0x1F3A JUMP JUMPDEST DUP1 ISZERO PUSH2 0xC77 JUMPI DUP1 PUSH1 0x1F LT PUSH2 0xC4C JUMPI PUSH2 0x100 DUP1 DUP4 SLOAD DIV MUL DUP4 MSTORE SWAP2 PUSH1 0x20 ADD SWAP2 PUSH2 0xC77 JUMP JUMPDEST DUP3 ADD SWAP2 SWAP1 PUSH1 0x0 MSTORE PUSH1 0x20 PUSH1 0x0 KECCAK256 SWAP1 JUMPDEST DUP2 SLOAD DUP2 MSTORE SWAP1 PUSH1 0x1 ADD SWAP1 PUSH1 0x20 ADD DUP1 DUP4 GT PUSH2 0xC5A JUMPI DUP3 SWAP1 SUB PUSH1 0x1F AND DUP3 ADD SWAP2 JUMPDEST POP POP POP POP POP DUP2 MSTORE PUSH1 0x20 ADD PUSH1 0x3 DUP3 ADD DUP1 SLOAD PUSH2 0xC90 SWAP1 PUSH2 0x1F3A JUMP JUMPDEST DUP1 PUSH1 0x1F ADD PUSH1 0x20 DUP1 SWAP2 DIV MUL PUSH1 0x20 ADD PUSH1 0x40 MLOAD SWAP1 DUP2 ADD PUSH1 0x40 MSTORE DUP1 SWAP3 SWAP2 SWAP1 DUP2 DUP2 MSTORE PUSH1 0x20 ADD DUP3 DUP1 SLOAD PUSH2 0xCBC SWAP1 PUSH2 0x1F3A JUMP JUMPDEST DUP1 ISZERO PUSH2 0xD09 JUMPI DUP1 PUSH1 0x1F LT PUSH2 0xCDE JUMPI PUSH2 0x100 DUP1 DUP4 SLOAD DIV MUL DUP4 MSTORE SWAP2 PUSH1 0x20 ADD SWAP2 PUSH2 0xD09 JUMP JUMPDEST DUP3 ADD SWAP2 SWAP1 PUSH1 0x0 MSTORE PUSH1 0x20 PUSH1 0x0 KECCAK256 SWAP1 JUMPDEST DUP2 SLOAD DUP2 MSTORE SWAP1 PUSH1 0x1 ADD SWAP1 PUSH1 0x20 ADD DUP1 DUP4 GT PUSH2 0xCEC JUMPI DUP3 SWAP1 SUB PUSH1 0x1F AND DUP3 ADD SWAP2 JUMPDEST POP POP POP POP POP DUP2 MSTORE PUSH1 0x20 ADD PUSH1 0x4 DUP3 ADD SLOAD DUP2 MSTORE PUSH1 0x20 ADD PUSH1 0x5 DUP3 ADD SLOAD DUP2 MSTORE PUSH1 0x20 ADD PUSH1 0x6 DUP3 ADD SLOAD DUP2 MSTORE PUSH1 0x20 ADD PUSH1 0x7 DUP3 ADD PUSH1 0x0 SWAP1 SLOAD SWAP1 PUSH2 0x100 EXP SWAP1 DIV PUSH1 0xFF AND PUSH1 0x3 DUP2 GT ISZERO PUSH2 0xD55 JUMPI PUSH2 0xD54 PUSH2 0x15D9 JUMP JUMPDEST JUMPDEST PUSH1 0x3 DUP2 GT ISZERO PUSH2 0xD67 JUMPI PUSH2 0xD66 PUSH2 0x15D9 JUMP JUMPDEST JUMPDEST DUP2 MSTORE POP POP DUP3 DUP3 DUP2 MLOAD DUP2 LT PUSH2 0xD7E JUMPI PUSH2 0xD7D PUSH2 0x1F6B JUMP JUMPDEST JUMPDEST PUSH1 0x20 MUL PUSH1 0x20 ADD ADD DUP2 SWAP1 MSTORE POP DUP1 DUP1 PUSH2 0xD94 SWAP1 PUSH2 0x1FC9 JUMP JUMPDEST SWAP2 POP POP PUSH2 0xB4C JUMP JUMPDEST POP DUP1 SWAP4 POP POP POP POP SWAP2 SWAP1 POP JUMP JUMPDEST PUSH1 0x0 PUSH1 0x5 DUP3 PUSH1 0x40 MLOAD PUSH2 0xDBA SWAP2 SWAP1 PUSH2 0x204D JUMP JUMPDEST SWAP1 DUP2 MSTORE PUSH1 0x20 ADD PUSH1 0x40 MLOAD DUP1 SWAP2 SUB SWAP1 KECCAK256 PUSH1 0x0 SWAP1 SLOAD SWAP1 PUSH2 0x100 EXP SWAP1 DIV PUSH1 0xFF AND ISZERO SWAP1 POP SWAP2 SWAP1 POP JUMP JUMPDEST PUSH1 0x1 SLOAD DUP2 JUMP JUMPDEST PUSH1 0x1 PUSH1 0x2 SLOAD PUSH2 0xDF3 SWAP2 SWAP1 PUSH2 0x2064 JUMP JUMPDEST PUSH1 0x2 DUP2 SWAP1 SSTORE POP PUSH1 0x0 PUSH1 0x2 SLOAD SWAP1 POP PUSH1 0x40 MLOAD DUP1 PUSH2 0x100 ADD PUSH1 0x40 MSTORE DUP1 DUP3 DUP2 MSTORE PUSH1 0x20 ADD DUP6 PUSH20 0xFFFFFFFFFFFFFFFFFFFFFFFFFFFFFFFFFFFFFFFF AND DUP2 MSTORE PUSH1 0x20 ADD DUP5 DUP2 MSTORE PUSH1 0x20 ADD DUP4 DUP2 MSTORE PUSH1 0x20 ADD TIMESTAMP DUP2 MSTORE PUSH1 0x20 ADD PUSH1 0x0 DUP2 MSTORE PUSH1 0x20 ADD PUSH1 0x0 DUP2 MSTORE PUSH1 0x20 ADD PUSH1 0x1 PUSH1 0x3 DUP2 GT ISZERO PUSH2 0xE62 JUMPI PUSH2 0xE61 PUSH2 0x15D9 JUMP JUMPDEST JUMPDEST DUP2 MSTORE POP PUSH1 0x6 PUSH1 0x0 DUP4 DUP2 MSTORE PUSH1 0x20 ADD SWAP1 DUP2 MSTORE PUSH1 0x20 ADD PUSH1 0x0 KECCAK256 PUSH1 0x0 DUP3 ADD MLOAD DUP2 PUSH1 0x0 ADD SSTORE PUSH1 0x20 DUP3 ADD MLOAD DUP2 PUSH1 0x1 ADD PUSH1 0x0 PUSH2 0x100 EXP DUP2 SLOAD DUP2 PUSH20 0xFFFFFFFFFFFFFFFFFFFFFFFFFFFFFFFFFFFFFFFF MUL NOT AND SWAP1 DUP4 PUSH20 0xFFFFFFFFFFFFFFFFFFFFFFFFFFFFFFFFFFFFFFFF AND MUL OR SWAP1 SSTORE POP PUSH1 0x40 DUP3 ADD MLOAD DUP2 PUSH1 0x2 ADD SWAP1 DUP2 PUSH2 0xEDE SWAP2 SWAP1 PUSH2 0x2244 JUMP JUMPDEST POP PUSH1 0x60 DUP3 ADD MLOAD DUP2 PUSH1 0x3 ADD SWAP1 DUP2 PUSH2 0xEF4 SWAP2 SWAP1 PUSH2 0x2244 JUMP JUMPDEST POP PUSH1 0x80 DUP3 ADD MLOAD DUP2 PUSH1 0x4 ADD SSTORE PUSH1 0xA0 DUP3 ADD MLOAD DUP2 PUSH1 0x5 ADD SSTORE PUSH1 0xC0 DUP3 ADD MLOAD DUP2 PUSH1 0x6 ADD SSTORE PUSH1 0xE0 DUP3 ADD MLOAD DUP2 PUSH1 0x7 ADD PUSH1 0x0 PUSH2 0x100 EXP DUP2 SLOAD DUP2 PUSH1 0xFF MUL NOT AND SWAP1 DUP4 PUSH1 0x3 DUP2 GT ISZERO PUSH2 0xF3E JUMPI PUSH2 0xF3D PUSH2 0x15D9 JUMP JUMPDEST JUMPDEST MUL OR SWAP1 SSTORE POP SWAP1 POP POP PUSH1 0x7 PUSH1 0x0 DUP6 PUSH20 0xFFFFFFFFFFFFFFFFFFFFFFFFFFFFFFFFFFFFFFFF AND PUSH20 0xFFFFFFFFFFFFFFFFFFFFFFFFFFFFFFFFFFFFFFFF AND DUP2 MSTORE PUSH1 0x20 ADD SWAP1 DUP2 MSTORE PUSH1 0x20 ADD PUSH1 0x0 KECCAK256 DUP2 SWAP1 DUP1 PUSH1 0x1 DUP2 SLOAD ADD DUP1 DUP3 SSTORE DUP1 SWAP2 POP POP PUSH1 0x1 SWAP1 SUB SWAP1 PUSH1 0x0 MSTORE PUSH1 0x20 PUSH1 0x0 KECCAK256 ADD PUSH1 0x0 SWAP1 SWAP2 SWAP1 SWAP2 SWAP1 SWAP2 POP SSTORE PUSH32 0xE78603DEA3231B9AC9A73B3663B6E28DE19F35247E2C32F0115EC263BDC7C49A DUP5 PUSH1 0x3 PUSH1 0x0 DUP8 PUSH20 0xFFFFFFFFFFFFFFFFFFFFFFFFFFFFFFFFFFFFFFFF AND PUSH20 0xFFFFFFFFFFFFFFFFFFFFFFFFFFFFFFFFFFFFFFFF AND DUP2 MSTORE PUSH1 0x20 ADD SWAP1 DUP2 MSTORE PUSH1 0x20 ADD PUSH1 0x0 KECCAK256 PUSH1 0x0 ADD SLOAD DUP4 PUSH1 0x40 MLOAD PUSH2 0x1021 SWAP4 SWAP3 SWAP2 SWAP1 PUSH2 0x236B JUMP JUMPDEST PUSH1 0x40 MLOAD DUP1 SWAP2 SUB SWAP1 LOG1 POP POP POP POP JUMP JUMPDEST CALLER PUSH1 0x0 PUSH1 0x3 DUP2 GT ISZERO PUSH2 0x1044 JUMPI PUSH2 0x1043 PUSH2 0x15D9 JUMP JUMPDEST JUMPDEST PUSH1 0x3 PUSH1 0x0 DUP4 PUSH20 0xFFFFFFFFFFFFFFFFFFFFFFFFFFFFFFFFFFFFFFFF AND PUSH20 0xFFFFFFFFFFFFFFFFFFFFFFFFFFFFFFFFFFFFFFFF AND DUP2 MSTORE PUSH1 0x20 ADD SWAP1 DUP2 MSTORE PUSH1 0x20 ADD PUSH1 0x0 KECCAK256 PUSH1 0x9 ADD PUSH1 0x0 SWAP1 SLOAD SWAP1 PUSH2 0x100 EXP SWAP1 DIV PUSH1 0xFF AND PUSH1 0x3 DUP2 GT ISZERO PUSH2 0x10A6 JUMPI PUSH2 0x10A5 PUSH2 0x15D9 JUMP JUMPDEST JUMPDEST EQ PUSH2 0x10E6 JUMPI PUSH1 0x40 MLOAD PUSH32 0x8C379A000000000000000000000000000000000000000000000000000000000 DUP2 MSTORE PUSH1 0x4 ADD PUSH2 0x10DD SWAP1 PUSH2 0x23EE JUMP JUMPDEST PUSH1 0x40 MLOAD DUP1 SWAP2 SUB SWAP1 REVERT JUMPDEST DUP8 PUSH1 0x5 DUP2 PUSH1 0x40 MLOAD PUSH2 0x10F7 SWAP2 SWAP1 PUSH2 0x204D JUMP JUMPDEST SWAP1 DUP2 MSTORE PUSH1 0x20 ADD PUSH1 0x40 MLOAD DUP1 SWAP2 SUB SWAP1 KECCAK256 PUSH1 0x0 SWAP1 SLOAD SWAP1 PUSH2 0x100 EXP SWAP1 DIV PUSH1 0xFF AND ISZERO PUSH2 0x1153 JUMPI PUSH1 0x40 MLOAD PUSH32 0x8C379A000000000000000000000000000000000000000000000000000000000 DUP2 MSTORE PUSH1 0x4 ADD PUSH2 0x114A SWAP1 PUSH2 0x245A JUMP JUMPDEST PUSH1 0x40 MLOAD DUP1 SWAP2 SUB SWAP1 REVERT JUMPDEST PUSH1 0x1 PUSH1 0x5 DUP11 PUSH1 0x40 MLOAD PUSH2 0x1165 SWAP2 SWAP1 PUSH2 0x204D JUMP JUMPDEST SWAP1 DUP2 MSTORE PUSH1 0x20 ADD PUSH1 0x40 MLOAD DUP1 SWAP2 SUB SWAP1 KECCAK256 PUSH1 0x0 PUSH2 0x100 EXP DUP2 SLOAD DUP2 PUSH1 0xFF MUL NOT AND SWAP1 DUP4 ISZERO ISZERO MUL OR SWAP1 SSTORE POP PUSH1 0x1 DUP1 SLOAD PUSH2 0x1198 SWAP2 SWAP1 PUSH2 0x2064 JUMP JUMPDEST PUSH1 0x1 DUP2 SWAP1 SSTORE POP PUSH1 0x0 PUSH1 0x1 SLOAD SWAP1 POP PUSH1 0x40 MLOAD DUP1 PUSH2 0x140 ADD PUSH1 0x40 MSTORE DUP1 DUP3 DUP2 MSTORE PUSH1 0x20 ADD CALLER PUSH20 0xFFFFFFFFFFFFFFFFFFFFFFFFFFFFFFFFFFFFFFFF AND DUP2 MSTORE PUSH1 0x20 ADD DUP12 DUP2 MSTORE PUSH1 0x20 ADD DUP11 DUP2 MSTORE PUSH1 0x20 ADD DUP8 DUP2 MSTORE PUSH1 0x20 ADD DUP7 DUP2 MSTORE PUSH1 0x20 ADD DUP6 ISZERO ISZERO DUP2 MSTORE PUSH1 0x20 ADD DUP10 DUP2 MSTORE PUSH1 0x20 ADD DUP9 DUP2 MSTORE PUSH1 0x20 ADD PUSH1 0x1 PUSH1 0x3 DUP2 GT ISZERO PUSH2 0x1213 JUMPI PUSH2 0x1212 PUSH2 0x15D9 JUMP JUMPDEST JUMPDEST DUP2 MSTORE POP PUSH1 0x3 PUSH1 0x0 CALLER PUSH20 0xFFFFFFFFFFFFFFFFFFFFFFFFFFFFFFFFFFFFFFFF AND PUSH20 0xFFFFFFFFFFFFFFFFFFFFFFFFFFFFFFFFFFFFFFFF AND DUP2 MSTORE PUSH1 0x20 ADD SWAP1 DUP2 MSTORE PUSH1 0x20 ADD PUSH1 0x0 KECCAK256 PUSH1 0x0 DUP3 ADD MLOAD DUP2 PUSH1 0x0 ADD SSTORE PUSH1 0x20 DUP3 ADD MLOAD DUP2 PUSH1 0x1 ADD PUSH1 0x0 PUSH2 0x100 EXP DUP2 SLOAD DUP2 PUSH20 0xFFFFFFFFFFFFFFFFFFFFFFFFFFFFFFFFFFFFFFFF MUL NOT AND SWAP1 DUP4 PUSH20 0xFFFFFFFFFFFFFFFFFFFFFFFFFFFFFFFFFFFFFFFF AND MUL OR SWAP1 SSTORE POP PUSH1 0x40 DUP3 ADD MLOAD DUP2 PUSH1 0x2 ADD SWAP1 DUP2 PUSH2 0x12BB SWAP2 SWAP1 PUSH2 0x2244 JUMP JUMPDEST POP PUSH1 0x60 DUP3 ADD MLOAD DUP2 PUSH1 0x3 ADD SWAP1 DUP2 PUSH2 0x12D1 SWAP2 SWAP1 PUSH2 0x2244 JUMP JUMPDEST POP PUSH1 0x80 DUP3 ADD MLOAD DUP2 PUSH1 0x4 ADD SWAP1 DUP2 PUSH2 0x12E7 SWAP2 SWAP1 PUSH2 0x2244 JUMP JUMPDEST POP PUSH1 0xA0 DUP3 ADD MLOAD DUP2 PUSH1 0x5 ADD SSTORE PUSH1 0xC0 DUP3 ADD MLOAD DUP2 PUSH1 0x6 ADD PUSH1 0x0 PUSH2 0x100 EXP DUP2 SLOAD DUP2 PUSH1 0xFF MUL NOT AND SWAP1 DUP4 ISZERO ISZERO MUL OR SWAP1 SSTORE POP PUSH1 0xE0 DUP3 ADD MLOAD DUP2 PUSH1 0x7 ADD SWAP1 DUP2 PUSH2 0x1327 SWAP2 SWAP1 PUSH2 0x2244 JUMP JUMPDEST POP PUSH2 0x100 DUP3 ADD MLOAD DUP2 PUSH1 0x8 ADD SWAP1 DUP2 PUSH2 0x133E SWAP2 SWAP1 PUSH2 0x2244 JUMP JUMPDEST POP PUSH2 0x120 DUP3 ADD MLOAD DUP2 PUSH1 0x9 ADD PUSH1 0x0 PUSH2 0x100 EXP DUP2 SLOAD DUP2 PUSH1 0xFF MUL NOT AND SWAP1 DUP4 PUSH1 0x3 DUP2 GT ISZERO PUSH2 0x136B JUMPI PUSH2 0x136A PUSH2 0x15D9 JUMP JUMPDEST JUMPDEST MUL OR SWAP1 SSTORE POP SWAP1 POP POP CALLER PUSH1 0x4 DUP12 PUSH1 0x40 MLOAD PUSH2 0x1384 SWAP2 SWAP1 PUSH2 0x204D JUMP JUMPDEST SWAP1 DUP2 MSTORE PUSH1 0x20 ADD PUSH1 0x40 MLOAD DUP1 SWAP2 SUB SWAP1 KECCAK256 PUSH1 0x0 PUSH2 0x100 EXP DUP2 SLOAD DUP2 PUSH20 0xFFFFFFFFFFFFFFFFFFFFFFFFFFFFFFFFFFFFFFFF MUL NOT AND SWAP1 DUP4 PUSH20 0xFFFFFFFFFFFFFFFFFFFFFFFFFFFFFFFFFFFFFFFF AND MUL OR SWAP1 SSTORE POP PUSH32 0xABC58C36475157C4AC7669F9ADFBB6F254D3A3578FB89676F6866AC3B9950EED CALLER DUP3 PUSH1 0x40 MLOAD PUSH2 0x1401 SWAP3 SWAP2 SWAP1 PUSH2 0x2489 JUMP JUMPDEST PUSH1 0x40 MLOAD DUP1 SWAP2 SUB SWAP1 LOG1 POP POP POP POP POP POP POP POP POP POP JUMP JUMPDEST PUSH1 0x40 MLOAD DUP1 PUSH2 0x100 ADD PUSH1 0x40 MSTORE DUP1 PUSH1 0x0 DUP2 MSTORE PUSH1 0x20 ADD PUSH1 0x0 PUSH20 0xFFFFFFFFFFFFFFFFFFFFFFFFFFFFFFFFFFFFFFFF AND DUP2 MSTORE PUSH1 0x20 ADD PUSH1 0x60 DUP2 MSTORE PUSH1 0x20 ADD PUSH1 0x60 DUP2 MSTORE PUSH1 0x20 ADD PUSH1 0x0 DUP2 MSTORE PUSH1 0x20 ADD PUSH1 0x0 DUP2 MSTORE PUSH1 0x20 ADD PUSH1 0x0 DUP2 MSTORE PUSH1 0x20 ADD PUSH1 0x0 PUSH1 0x3 DUP2 GT ISZERO PUSH2 0x147C JUMPI PUSH2 0x147B PUSH2 0x15D9 JUMP JUMPDEST JUMPDEST DUP2 MSTORE POP SWAP1 JUMP JUMPDEST PUSH1 0x0 PUSH1 0x40 MLOAD SWAP1 POP SWAP1 JUMP JUMPDEST PUSH1 0x0 DUP1 REVERT JUMPDEST PUSH1 0x0 DUP1 REVERT JUMPDEST PUSH1 0x0 DUP2 SWAP1 POP SWAP2 SWAP1 POP JUMP JUMPDEST PUSH2 0x14A9 DUP2 PUSH2 0x1496 JUMP JUMPDEST DUP2 EQ PUSH2 0x14B4 JUMPI PUSH1 0x0 DUP1 REVERT JUMPDEST POP JUMP JUMPDEST PUSH1 0x0 DUP2 CALLDATALOAD SWAP1 POP PUSH2 0x14C6 DUP2 PUSH2 0x14A0 JUMP JUMPDEST SWAP3 SWAP2 POP POP JUMP JUMPDEST PUSH1 0x0 PUSH1 0x20 DUP3 DUP5 SUB SLT ISZERO PUSH2 0x14E2 JUMPI PUSH2 0x14E1 PUSH2 0x148C JUMP JUMPDEST JUMPDEST PUSH1 0x0 PUSH2 0x14F0 DUP5 DUP3 DUP6 ADD PUSH2 0x14B7 JUMP JUMPDEST SWAP2 POP POP SWAP3 SWAP2 POP POP JUMP JUMPDEST PUSH2 0x1502 DUP2 PUSH2 0x1496 JUMP JUMPDEST DUP3 MSTORE POP POP JUMP JUMPDEST PUSH1 0x0 PUSH20 0xFFFFFFFFFFFFFFFFFFFFFFFFFFFFFFFFFFFFFFFF DUP3 AND SWAP1 POP SWAP2 SWAP1 POP JUMP JUMPDEST PUSH1 0x0 PUSH2 0x1533 DUP3 PUSH2 0x1508 JUMP JUMPDEST SWAP1 POP SWAP2 SWAP1 POP JUMP JUMPDEST PUSH2 0x1543 DUP2 PUSH2 0x1528 JUMP JUMPDEST DUP3 MSTORE POP POP JUMP JUMPDEST PUSH1 0x0 DUP2 MLOAD SWAP1 POP SWAP2 SWAP1 POP JUMP JUMPDEST PUSH1 0x0 DUP3 DUP3 MSTORE PUSH1 0x20 DUP3 ADD SWAP1 POP SWAP3 SWAP2 POP POP JUMP JUMPDEST PUSH1 0x0 JUMPDEST DUP4 DUP2 LT ISZERO PUSH2 0x1583 JUMPI DUP1 DUP3 ADD MLOAD DUP2 DUP5 ADD MSTORE PUSH1 0x20 DUP2 ADD SWAP1 POP PUSH2 0x1568 JUMP JUMPDEST PUSH1 0x0 DUP5 DUP5 ADD MSTORE POP POP POP POP JUMP JUMPDEST PUSH1 0x0 PUSH1 0x1F NOT PUSH1 0x1F DUP4 ADD AND SWAP1 POP SWAP2 SWAP1 POP JUMP JUMPDEST PUSH1 0x0 PUSH2 0x15AB DUP3 PUSH2 0x1549 JUMP JUMPDEST PUSH2 0x15B5 DUP2 DUP6 PUSH2 0x1554 JUMP JUMPDEST SWAP4 POP PUSH2 0x15C5 DUP2 DUP6 PUSH1 0x20 DUP7 ADD PUSH2 0x1565 JUMP JUMPDEST PUSH2 0x15CE DUP2 PUSH2 0x158F JUMP JUMPDEST DUP5 ADD SWAP2 POP POP SWAP3 SWAP2 POP POP JUMP JUMPDEST PUSH32 0x4E487B7100000000000000000000000000000000000000000000000000000000 PUSH1 0x0 MSTORE PUSH1 0x21 PUSH1 0x4 MSTORE PUSH1 0x24 PUSH1 0x0 REVERT JUMPDEST PUSH1 0x4 DUP2 LT PUSH2 0x1619 JUMPI PUSH2 0x1618 PUSH2 0x15D9 JUMP JUMPDEST JUMPDEST POP JUMP JUMPDEST PUSH1 0x0 DUP2 SWAP1 POP PUSH2 0x162A DUP3 PUSH2 0x1608 JUMP JUMPDEST SWAP2 SWAP1 POP JUMP JUMPDEST PUSH1 0x0 PUSH2 0x163A DUP3 PUSH2 0x161C JUMP JUMPDEST SWAP1 POP SWAP2 SWAP1 POP JUMP JUMPDEST PUSH2 0x164A DUP2 PUSH2 0x162F JUMP JUMPDEST DUP3 MSTORE POP POP JUMP JUMPDEST PUSH1 0x0 PUSH2 0x100 DUP4 ADD PUSH1 0x0 DUP4 ADD MLOAD PUSH2 0x1669 PUSH1 0x0 DUP7 ADD DUP3 PUSH2 0x14F9 JUMP JUMPDEST POP PUSH1 0x20 DUP4 ADD MLOAD PUSH2 0x167C PUSH1 0x20 DUP7 ADD DUP3 PUSH2 0x153A JUMP JUMPDEST POP PUSH1 0x40 DUP4 ADD MLOAD DUP5 DUP3 SUB PUSH1 0x40 DUP7 ADD MSTORE PUSH2 0x1694 DUP3 DUP3 PUSH2 0x15A0 JUMP JUMPDEST SWAP2 POP POP PUSH1 0x60 DUP4 ADD MLOAD DUP5 DUP3 SUB PUSH1 0x60 DUP7 ADD MSTORE PUSH2 0x16AE DUP3 DUP3 PUSH2 0x15A0 JUMP JUMPDEST SWAP2 POP POP PUSH1 0x80 DUP4 ADD MLOAD PUSH2 0x16C3 PUSH1 0x80 DUP7 ADD DUP3 PUSH2 0x14F9 JUMP JUMPDEST POP PUSH1 0xA0 DUP4 ADD MLOAD PUSH2 0x16D6 PUSH1 0xA0 DUP7 ADD DUP3 PUSH2 0x14F9 JUMP JUMPDEST POP PUSH1 0xC0 DUP4 ADD MLOAD PUSH2 0x16E9 PUSH1 0xC0 DUP7 ADD DUP3 PUSH2 0x14F9 JUMP JUMPDEST POP PUSH1 0xE0 DUP4 ADD MLOAD PUSH2 0x16FC PUSH1 0xE0 DUP7 ADD DUP3 PUSH2 0x1641 JUMP JUMPDEST POP DUP1 SWAP2 POP POP SWAP3 SWAP2 POP POP JUMP JUMPDEST PUSH1 0x0 PUSH1 0x20 DUP3 ADD SWAP1 POP DUP2 DUP2 SUB PUSH1 0x0 DUP4 ADD MSTORE PUSH2 0x1721 DUP2 DUP5 PUSH2 0x1650 JUMP JUMPDEST SWAP1 POP SWAP3 SWAP2 POP POP JUMP JUMPDEST PUSH1 0x0 PUSH2 0x1734 DUP3 PUSH2 0x1508 JUMP JUMPDEST SWAP1 POP SWAP2 SWAP1 POP JUMP JUMPDEST PUSH2 0x1744 DUP2 PUSH2 0x1729 JUMP JUMPDEST DUP2 EQ PUSH2 0x174F JUMPI PUSH1 0x0 DUP1 REVERT JUMPDEST POP JUMP JUMPDEST PUSH1 0x0 DUP2 CALLDATALOAD SWAP1 POP PUSH2 0x1761 DUP2 PUSH2 0x173B JUMP JUMPDEST SWAP3 SWAP2 POP POP JUMP JUMPDEST PUSH1 0x0 PUSH1 0x20 DUP3 DUP5 SUB SLT ISZERO PUSH2 0x177D JUMPI PUSH2 0x177C PUSH2 0x148C JUMP JUMPDEST JUMPDEST PUSH1 0x0 PUSH2 0x178B DUP5 DUP3 DUP6 ADD PUSH2 0x1752 JUMP JUMPDEST SWAP2 POP POP SWAP3 SWAP2 POP POP JUMP JUMPDEST PUSH2 0x179D DUP2 PUSH2 0x1496 JUMP JUMPDEST DUP3 MSTORE POP POP JUMP JUMPDEST PUSH1 0x0 DUP3 DUP3 MSTORE PUSH1 0x20 DUP3 ADD SWAP1 POP SWAP3 SWAP2 POP POP JUMP JUMPDEST PUSH1 0x0 PUSH2 0x17BF DUP3 PUSH2 0x1549 JUMP JUMPDEST PUSH2 0x17C9 DUP2 DUP6 PUSH2 0x17A3 JUMP JUMPDEST SWAP4 POP PUSH2 0x17D9 DUP2 DUP6 PUSH1 0x20 DUP7 ADD PUSH2 0x1565 JUMP JUMPDEST PUSH2 0x17E2 DUP2 PUSH2 0x158F JUMP JUMPDEST DUP5 ADD SWAP2 POP POP SWAP3 SWAP2 POP POP JUMP JUMPDEST PUSH1 0x0 DUP2 ISZERO ISZERO SWAP1 POP SWAP2 SWAP1 POP JUMP JUMPDEST PUSH2 0x1802 DUP2 PUSH2 0x17ED JUMP JUMPDEST DUP3 MSTORE POP POP JUMP JUMPDEST PUSH1 0x0 PUSH2 0x100 DUP3 ADD SWAP1 POP PUSH2 0x181E PUSH1 0x0 DUP4 ADD DUP12 PUSH2 0x1794 JUMP JUMPDEST DUP2 DUP2 SUB PUSH1 0x20 DUP4 ADD MSTORE PUSH2 0x1830 DUP2 DUP11 PUSH2 0x17B4 JUMP JUMPDEST SWAP1 POP DUP2 DUP2 SUB PUSH1 0x40 DUP4 ADD MSTORE PUSH2 0x1844 DUP2 DUP10 PUSH2 0x17B4 JUMP JUMPDEST SWAP1 POP DUP2 DUP2 SUB PUSH1 0x60 DUP4 ADD MSTORE PUSH2 0x1858 DUP2 DUP9 PUSH2 0x17B4 JUMP JUMPDEST SWAP1 POP PUSH2 0x1867 PUSH1 0x80 DUP4 ADD DUP8 PUSH2 0x1794 JUMP JUMPDEST PUSH2 0x1874 PUSH1 0xA0 DUP4 ADD DUP7 PUSH2 0x17F9 JUMP JUMPDEST DUP2 DUP2 SUB PUSH1 0xC0 DUP4 ADD MSTORE PUSH2 0x1886 DUP2 DUP6 PUSH2 0x17B4 JUMP JUMPDEST SWAP1 POP DUP2 DUP2 SUB PUSH1 0xE0 DUP4 ADD MSTORE PUSH2 0x189A DUP2 DUP5 PUSH2 0x17B4 JUMP JUMPDEST SWAP1 POP SWAP10 SWAP9 POP POP POP POP POP POP POP POP POP JUMP JUMPDEST PUSH2 0x18B2 DUP2 PUSH2 0x1528 JUMP JUMPDEST DUP3 MSTORE POP POP JUMP JUMPDEST PUSH1 0x0 PUSH1 0x20 DUP3 ADD SWAP1 POP PUSH2 0x18CD PUSH1 0x0 DUP4 ADD DUP5 PUSH2 0x18A9 JUMP JUMPDEST SWAP3 SWAP2 POP POP JUMP JUMPDEST PUSH1 0x0 PUSH1 0x20 DUP3 ADD SWAP1 POP PUSH2 0x18E8 PUSH1 0x0 DUP4 ADD DUP5 PUSH2 0x1794 JUMP JUMPDEST SWAP3 SWAP2 POP POP JUMP JUMPDEST PUSH1 0x0 DUP2 MLOAD SWAP1 POP SWAP2 SWAP1 POP JUMP JUMPDEST PUSH1 0x0 DUP3 DUP3 MSTORE PUSH1 0x20 DUP3 ADD SWAP1 POP SWAP3 SWAP2 POP POP JUMP JUMPDEST PUSH1 0x0 DUP2 SWAP1 POP PUSH1 0x20 DUP3 ADD SWAP1 POP SWAP2 SWAP1 POP JUMP JUMPDEST PUSH1 0x0 PUSH2 0x100 DUP4 ADD PUSH1 0x0 DUP4 ADD MLOAD PUSH2 0x1933 PUSH1 0x0 DUP7 ADD DUP3 PUSH2 0x14F9 JUMP JUMPDEST POP PUSH1 0x20 DUP4 ADD MLOAD PUSH2 0x1946 PUSH1 0x20 DUP7 ADD DUP3 PUSH2 0x153A JUMP JUMPDEST POP PUSH1 0x40 DUP4 ADD MLOAD DUP5 DUP3 SUB PUSH1 0x40 DUP7 ADD MSTORE PUSH2 0x195E DUP3 DUP3 PUSH2 0x15A0 JUMP JUMPDEST SWAP2 POP POP PUSH1 0x60 DUP4 ADD MLOAD DUP5 DUP3 SUB PUSH1 0x60 DUP7 ADD MSTORE PUSH2 0x1978 DUP3 DUP3 PUSH2 0x15A0 JUMP JUMPDEST SWAP2 POP POP PUSH1 0x80 DUP4 ADD MLOAD PUSH2 0x198D PUSH1 0x80 DUP7 ADD DUP3 PUSH2 0x14F9 JUMP JUMPDEST POP PUSH1 0xA0 DUP4 ADD MLOAD PUSH2 0x19A0 PUSH1 0xA0 DUP7 ADD DUP3 PUSH2 0x14F9 JUMP JUMPDEST POP PUSH1 0xC0 DUP4 ADD MLOAD PUSH2 0x19B3 PUSH1 0xC0 DUP7 ADD DUP3 PUSH2 0x14F9 JUMP JUMPDEST POP PUSH1 0xE0 DUP4 ADD MLOAD PUSH2 0x19C6 PUSH1 0xE0 DUP7 ADD DUP3 PUSH2 0x1641 JUMP JUMPDEST POP DUP1 SWAP2 POP POP SWAP3 SWAP2 POP POP JUMP JUMPDEST PUSH1 0x0 PUSH2 0x19DD DUP4 DUP4 PUSH2 0x191A JUMP JUMPDEST SWAP1 POP SWAP3 SWAP2 POP POP JUMP JUMPDEST PUSH1 0x0 PUSH1 0x20 DUP3 ADD SWAP1 POP SWAP2 SWAP1 POP JUMP JUMPDEST PUSH1 0x0 PUSH2 0x19FD DUP3 PUSH2 0x18EE JUMP JUMPDEST PUSH2 0x1A07 DUP2 DUP6 PUSH2 0x18F9 JUMP JUMPDEST SWAP4 POP DUP4 PUSH1 0x20 DUP3 MUL DUP6 ADD PUSH2 0x1A19 DUP6 PUSH2 0x190A JUMP JUMPDEST DUP1 PUSH1 0x0 JUMPDEST DUP6 DUP2 LT ISZERO PUSH2 0x1A55 JUMPI DUP5 DUP5 SUB DUP10 MSTORE DUP2 MLOAD PUSH2 0x1A36 DUP6 DUP3 PUSH2 0x19D1 JUMP JUMPDEST SWAP5 POP PUSH2 0x1A41 DUP4 PUSH2 0x19E5 JUMP JUMPDEST SWAP3 POP PUSH1 0x20 DUP11 ADD SWAP10 POP POP PUSH1 0x1 DUP2 ADD SWAP1 POP PUSH2 0x1A1D JUMP JUMPDEST POP DUP3 SWAP8 POP DUP8 SWAP6 POP POP POP POP POP POP SWAP3 SWAP2 POP POP JUMP JUMPDEST PUSH1 0x0 PUSH1 0x20 DUP3 ADD SWAP1 POP DUP2 DUP2 SUB PUSH1 0x0 DUP4 ADD MSTORE PUSH2 0x1A81 DUP2 DUP5 PUSH2 0x19F2 JUMP JUMPDEST SWAP1 POP SWAP3 SWAP2 POP POP JUMP JUMPDEST PUSH1 0x0 DUP1 REVERT JUMPDEST PUSH1 0x0 DUP1 REVERT JUMPDEST PUSH32 0x4E487B7100000000000000000000000000000000000000000000000000000000 PUSH1 0x0 MSTORE PUSH1 0x41 PUSH1 0x4 MSTORE PUSH1 0x24 PUSH1 0x0 REVERT JUMPDEST PUSH2 0x1ACB DUP3 PUSH2 0x158F JUMP JUMPDEST DUP2 ADD DUP2 DUP2 LT PUSH8 0xFFFFFFFFFFFFFFFF DUP3 GT OR ISZERO PUSH2 0x1AEA JUMPI PUSH2 0x1AE9 PUSH2 0x1A93 JUMP JUMPDEST JUMPDEST DUP1 PUSH1 0x40 MSTORE POP POP POP JUMP JUMPDEST PUSH1 0x0 PUSH2 0x1AFD PUSH2 0x1482 JUMP JUMPDEST SWAP1 POP PUSH2 0x1B09 DUP3 DUP3 PUSH2 0x1AC2 JUMP JUMPDEST SWAP2 SWAP1 POP JUMP JUMPDEST PUSH1 0x0 PUSH8 0xFFFFFFFFFFFFFFFF DUP3 GT ISZERO PUSH2 0x1B29 JUMPI PUSH2 0x1B28 PUSH2 0x1A93 JUMP JUMPDEST JUMPDEST PUSH2 0x1B32 DUP3 PUSH2 0x158F JUMP JUMPDEST SWAP1 POP PUSH1 0x20 DUP2 ADD SWAP1 POP SWAP2 SWAP1 POP JUMP JUMPDEST DUP3 DUP2 DUP4 CALLDATACOPY PUSH1 0x0 DUP4 DUP4 ADD MSTORE POP POP POP JUMP JUMPDEST PUSH1 0x0 PUSH2 0x1B61 PUSH2 0x1B5C DUP5 PUSH2 0x1B0E JUMP JUMPDEST PUSH2 0x1AF3 JUMP JUMPDEST SWAP1 POP DUP3 DUP2 MSTORE PUSH1 0x20 DUP2 ADD DUP5 DUP5 DUP5 ADD GT ISZERO PUSH2 0x1B7D JUMPI PUSH2 0x1B7C PUSH2 0x1A8E JUMP JUMPDEST JUMPDEST PUSH2 0x1B88 DUP5 DUP3 DUP6 PUSH2 0x1B3F JUMP JUMPDEST POP SWAP4 SWAP3 POP POP POP JUMP JUMPDEST PUSH1 0x0 DUP3 PUSH1 0x1F DUP4 ADD SLT PUSH2 0x1BA5 JUMPI PUSH2 0x1BA4 PUSH2 0x1A89 JUMP JUMPDEST JUMPDEST DUP2 CALLDATALOAD PUSH2 0x1BB5 DUP5 DUP3 PUSH1 0x20 DUP7 ADD PUSH2 0x1B4E JUMP JUMPDEST SWAP2 POP POP SWAP3 SWAP2 POP POP JUMP JUMPDEST PUSH1 0x0 PUSH1 0x20 DUP3 DUP5 SUB SLT ISZERO PUSH2 0x1BD4 JUMPI PUSH2 0x1BD3 PUSH2 0x148C JUMP JUMPDEST JUMPDEST PUSH1 0x0 DUP3 ADD CALLDATALOAD PUSH8 0xFFFFFFFFFFFFFFFF DUP2 GT ISZERO PUSH2 0x1BF2 JUMPI PUSH2 0x1BF1 PUSH2 0x1491 JUMP JUMPDEST JUMPDEST PUSH2 0x1BFE DUP5 DUP3 DUP6 ADD PUSH2 0x1B90 JUMP JUMPDEST SWAP2 POP POP SWAP3 SWAP2 POP POP JUMP JUMPDEST PUSH1 0x0 PUSH1 0x20 DUP3 ADD SWAP1 POP PUSH2 0x1C1C PUSH1 0x0 DUP4 ADD DUP5 PUSH2 0x17F9 JUMP JUMPDEST SWAP3 SWAP2 POP POP JUMP JUMPDEST PUSH2 0x1C2B DUP2 PUSH2 0x1528 JUMP JUMPDEST DUP2 EQ PUSH2 0x1C36 JUMPI PUSH1 0x0 DUP1 REVERT JUMPDEST POP JUMP JUMPDEST PUSH1 0x0 DUP2 CALLDATALOAD SWAP1 POP PUSH2 0x1C48 DUP2 PUSH2 0x1C22 JUMP JUMPDEST SWAP3 SWAP2 POP POP JUMP JUMPDEST PUSH1 0x0 DUP1 PUSH1 0x0 PUSH1 0x60 DUP5 DUP7 SUB SLT ISZERO PUSH2 0x1C67 JUMPI PUSH2 0x1C66 PUSH2 0x148C JUMP JUMPDEST JUMPDEST PUSH1 0x0 PUSH2 0x1C75 DUP7 DUP3 DUP8 ADD PUSH2 0x1C39 JUMP JUMPDEST SWAP4 POP POP PUSH1 0x20 DUP5 ADD CALLDATALOAD PUSH8 0xFFFFFFFFFFFFFFFF DUP2 GT ISZERO PUSH2 0x1C96 JUMPI PUSH2 0x1C95 PUSH2 0x1491 JUMP JUMPDEST JUMPDEST PUSH2 0x1CA2 DUP7 DUP3 DUP8 ADD PUSH2 0x1B90 JUMP JUMPDEST SWAP3 POP POP PUSH1 0x40 DUP5 ADD CALLDATALOAD PUSH8 0xFFFFFFFFFFFFFFFF DUP2 GT ISZERO PUSH2 0x1CC3 JUMPI PUSH2 0x1CC2 PUSH2 0x1491 JUMP JUMPDEST JUMPDEST PUSH2 0x1CCF DUP7 DUP3 DUP8 ADD PUSH2 0x1B90 JUMP JUMPDEST SWAP2 POP POP SWAP3 POP SWAP3 POP SWAP3 JUMP JUMPDEST PUSH2 0x1CE2 DUP2 PUSH2 0x17ED JUMP JUMPDEST DUP2 EQ PUSH2 0x1CED JUMPI PUSH1 0x0 DUP1 REVERT JUMPDEST POP JUMP JUMPDEST PUSH1 0x0 DUP2 CALLDATALOAD SWAP1 POP PUSH2 0x1CFF DUP2 PUSH2 0x1CD9 JUMP JUMPDEST SWAP3 SWAP2 POP POP JUMP JUMPDEST PUSH1 0x0 DUP1 PUSH1 0x0 DUP1 PUSH1 0x0 DUP1 PUSH1 0x0 PUSH1 0xE0 DUP9 DUP11 SUB SLT ISZERO PUSH2 0x1D24 JUMPI PUSH2 0x1D23 PUSH2 0x148C JUMP JUMPDEST JUMPDEST PUSH1 0x0 DUP9 ADD CALLDATALOAD PUSH8 0xFFFFFFFFFFFFFFFF DUP2 GT ISZERO PUSH2 0x1D42 JUMPI PUSH2 0x1D41 PUSH2 0x1491 JUMP JUMPDEST JUMPDEST PUSH2 0x1D4E DUP11 DUP3 DUP12 ADD PUSH2 0x1B90 JUMP JUMPDEST SWAP8 POP POP PUSH1 0x20 DUP9 ADD CALLDATALOAD PUSH8 0xFFFFFFFFFFFFFFFF DUP2 GT ISZERO PUSH2 0x1D6F JUMPI PUSH2 0x1D6E PUSH2 0x1491 JUMP JUMPDEST JUMPDEST PUSH2 0x1D7B DUP11 DUP3 DUP12 ADD PUSH2 0x1B90 JUMP JUMPDEST SWAP7 POP POP PUSH1 0x40 DUP9 ADD CALLDATALOAD PUSH8 0xFFFFFFFFFFFFFFFF DUP2 GT ISZERO PUSH2 0x1D9C JUMPI PUSH2 0x1D9B PUSH2 0x1491 JUMP JUMPDEST JUMPDEST PUSH2 0x1DA8 DUP11 DUP3 DUP12 ADD PUSH2 0x1B90 JUMP JUMPDEST SWAP6 POP POP PUSH1 0x60 DUP9 ADD CALLDATALOAD PUSH8 0xFFFFFFFFFFFFFFFF DUP2 GT ISZERO PUSH2 0x1DC9 JUMPI PUSH2 0x1DC8 PUSH2 0x1491 JUMP JUMPDEST JUMPDEST PUSH2 0x1DD5 DUP11 DUP3 DUP12 ADD PUSH2 0x1B90 JUMP JUMPDEST SWAP5 POP POP PUSH1 0x80 DUP9 ADD CALLDATALOAD PUSH8 0xFFFFFFFFFFFFFFFF DUP2 GT ISZERO PUSH2 0x1DF6 JUMPI PUSH2 0x1DF5 PUSH2 0x1491 JUMP JUMPDEST JUMPDEST PUSH2 0x1E02 DUP11 DUP3 DUP12 ADD PUSH2 0x1B90 JUMP JUMPDEST SWAP4 POP POP PUSH1 0xA0 PUSH2 0x1E13 DUP11 DUP3 DUP12 ADD PUSH2 0x14B7 JUMP JUMPDEST SWAP3 POP POP PUSH1 0xC0 PUSH2 0x1E24 DUP11 DUP3 DUP12 ADD PUSH2 0x1CF0 JUMP JUMPDEST SWAP2 POP POP SWAP3 SWAP6 SWAP9 SWAP2 SWAP5 SWAP8 POP SWAP3 SWAP6 POP JUMP JUMPDEST PUSH32 0x4E6F742061205265676973746572656420557365722100000000000000000000 PUSH1 0x0 DUP3 ADD MSTORE POP JUMP JUMPDEST PUSH1 0x0 PUSH2 0x1E69 PUSH1 0x16 DUP4 PUSH2 0x17A3 JUMP JUMPDEST SWAP2 POP PUSH2 0x1E74 DUP3 PUSH2 0x1E33 JUMP JUMPDEST PUSH1 0x20 DUP3 ADD SWAP1 POP SWAP2 SWAP1 POP JUMP JUMPDEST PUSH1 0x0 PUSH1 0x20 DUP3 ADD SWAP1 POP DUP2 DUP2 SUB PUSH1 0x0 DUP4 ADD MSTORE PUSH2 0x1E98 DUP2 PUSH2 0x1E5C JUMP JUMPDEST SWAP1 POP SWAP2 SWAP1 POP JUMP JUMPDEST PUSH32 0x4E6F7420616E2061637469766520706F73740000000000000000000000000000 PUSH1 0x0 DUP3 ADD MSTORE POP JUMP JUMPDEST PUSH1 0x0 PUSH2 0x1ED5 PUSH1 0x12 DUP4 PUSH2 0x17A3 JUMP JUMPDEST SWAP2 POP PUSH2 0x1EE0 DUP3 PUSH2 0x1E9F JUMP JUMPDEST PUSH1 0x20 DUP3 ADD SWAP1 POP SWAP2 SWAP1 POP JUMP JUMPDEST PUSH1 0x0 PUSH1 0x20 DUP3 ADD SWAP1 POP DUP2 DUP2 SUB PUSH1 0x0 DUP4 ADD MSTORE PUSH2 0x1F04 DUP2 PUSH2 0x1EC8 JUMP JUMPDEST SWAP1 POP SWAP2 SWAP1 POP JUMP JUMPDEST PUSH32 0x4E487B7100000000000000000000000000000000000000000000000000000000 PUSH1 0x0 MSTORE PUSH1 0x22 PUSH1 0x4 MSTORE PUSH1 0x24 PUSH1 0x0 REVERT JUMPDEST PUSH1 0x0 PUSH1 0x2 DUP3 DIV SWAP1 POP PUSH1 0x1 DUP3 AND DUP1 PUSH2 0x1F52 JUMPI PUSH1 0x7F DUP3 AND SWAP2 POP JUMPDEST PUSH1 0x20 DUP3 LT DUP2 SUB PUSH2 0x1F65 JUMPI PUSH2 0x1F64 PUSH2 0x1F0B JUMP JUMPDEST JUMPDEST POP SWAP2 SWAP1 POP JUMP JUMPDEST PUSH32 0x4E487B7100000000000000000000000000000000000000000000000000000000 PUSH1 0x0 MSTORE PUSH1 0x32 PUSH1 0x4 MSTORE PUSH1 0x24 PUSH1 0x0 REVERT JUMPDEST PUSH32 0x4E487B7100000000000000000000000000000000000000000000000000000000 PUSH1 0x0 MSTORE PUSH1 0x11 PUSH1 0x4 MSTORE PUSH1 0x24 PUSH1 0x0 REVERT JUMPDEST PUSH1 0x0 PUSH2 0x1FD4 DUP3 PUSH2 0x1496 JUMP JUMPDEST SWAP2 POP PUSH32 0xFFFFFFFFFFFFFFFFFFFFFFFFFFFFFFFFFFFFFFFFFFFFFFFFFFFFFFFFFFFFFFFF DUP3 SUB PUSH2 0x2006 JUMPI PUSH2 0x2005 PUSH2 0x1F9A JUMP JUMPDEST JUMPDEST PUSH1 0x1 DUP3 ADD SWAP1 POP SWAP2 SWAP1 POP JUMP JUMPDEST PUSH1 0x0 DUP2 SWAP1 POP SWAP3 SWAP2 POP POP JUMP JUMPDEST PUSH1 0x0 PUSH2 0x2027 DUP3 PUSH2 0x1549 JUMP JUMPDEST PUSH2 0x2031 DUP2 DUP6 PUSH2 0x2011 JUMP JUMPDEST SWAP4 POP PUSH2 0x2041 DUP2 DUP6 PUSH1 0x20 DUP7 ADD PUSH2 0x1565 JUMP JUMPDEST DUP1 DUP5 ADD SWAP2 POP POP SWAP3 SWAP2 POP POP JUMP JUMPDEST PUSH1 0x0 PUSH2 0x2059 DUP3 DUP5 PUSH2 0x201C JUMP JUMPDEST SWAP2 POP DUP2 SWAP1 POP SWAP3 SWAP2 POP POP JUMP JUMPDEST PUSH1 0x0 PUSH2 0x206F DUP3 PUSH2 0x1496 JUMP JUMPDEST SWAP2 POP PUSH2 0x207A DUP4 PUSH2 0x1496 JUMP JUMPDEST SWAP3 POP DUP3 DUP3 ADD SWAP1 POP DUP1 DUP3 GT ISZERO PUSH2 0x2092 JUMPI PUSH2 0x2091 PUSH2 0x1F9A JUMP JUMPDEST JUMPDEST SWAP3 SWAP2 POP POP JUMP JUMPDEST PUSH1 0x0 DUP2 SWAP1 POP DUP2 PUSH1 0x0 MSTORE PUSH1 0x20 PUSH1 0x0 KECCAK256 SWAP1 POP SWAP2 SWAP1 POP JUMP JUMPDEST PUSH1 0x0 PUSH1 0x20 PUSH1 0x1F DUP4 ADD DIV SWAP1 POP SWAP2 SWAP1 POP JUMP JUMPDEST PUSH1 0x0 DUP3 DUP3 SHL SWAP1 POP SWAP3 SWAP2 POP POP JUMP JUMPDEST PUSH1 0x0 PUSH1 0x8 DUP4 MUL PUSH2 0x20FA PUSH32 0xFFFFFFFFFFFFFFFFFFFFFFFFFFFFFFFFFFFFFFFFFFFFFFFFFFFFFFFFFFFFFFFF DUP3 PUSH2 0x20BD JUMP JUMPDEST PUSH2 0x2104 DUP7 DUP4 PUSH2 0x20BD JUMP JUMPDEST SWAP6 POP DUP1 NOT DUP5 AND SWAP4 POP DUP1 DUP7 AND DUP5 OR SWAP3 POP POP POP SWAP4 SWAP3 POP POP POP JUMP JUMPDEST PUSH1 0x0 DUP2 SWAP1 POP SWAP2 SWAP1 POP JUMP JUMPDEST PUSH1 0x0 PUSH2 0x2141 PUSH2 0x213C PUSH2 0x2137 DUP5 PUSH2 0x1496 JUMP JUMPDEST PUSH2 0x211C JUMP JUMPDEST PUSH2 0x1496 JUMP JUMPDEST SWAP1 POP SWAP2 SWAP1 POP JUMP JUMPDEST PUSH1 0x0 DUP2 SWAP1 POP SWAP2 SWAP1 POP JUMP JUMPDEST PUSH2 0x215B DUP4 PUSH2 0x2126 JUMP JUMPDEST PUSH2 0x216F PUSH2 0x2167 DUP3 PUSH2 0x2148 JUMP JUMPDEST DUP5 DUP5 SLOAD PUSH2 0x20CA JUMP JUMPDEST DUP3 SSTORE POP POP POP POP JUMP JUMPDEST PUSH1 0x0 SWAP1 JUMP JUMPDEST PUSH2 0x2184 PUSH2 0x2177 JUMP JUMPDEST PUSH2 0x218F DUP2 DUP5 DUP5 PUSH2 0x2152 JUMP JUMPDEST POP POP POP JUMP JUMPDEST JUMPDEST DUP2 DUP2 LT ISZERO PUSH2 0x21B3 JUMPI PUSH2 0x21A8 PUSH1 0x0 DUP3 PUSH2 0x217C JUMP JUMPDEST PUSH1 0x1 DUP2 ADD SWAP1 POP PUSH2 0x2195 JUMP JUMPDEST POP POP JUMP JUMPDEST PUSH1 0x1F DUP3 GT ISZERO PUSH2 0x21F8 JUMPI PUSH2 0x21C9 DUP2 PUSH2 0x2098 JUMP JUMPDEST PUSH2 0x21D2 DUP5 PUSH2 0x20AD JUMP JUMPDEST DUP2 ADD PUSH1 0x20 DUP6 LT ISZERO PUSH2 0x21E1 JUMPI DUP2 SWAP1 POP JUMPDEST PUSH2 0x21F5 PUSH2 0x21ED DUP6 PUSH2 0x20AD JUMP JUMPDEST DUP4 ADD DUP3 PUSH2 0x2194 JUMP JUMPDEST POP POP JUMPDEST POP POP POP JUMP JUMPDEST PUSH1 0x0 DUP3 DUP3 SHR SWAP1 POP SWAP3 SWAP2 POP POP JUMP JUMPDEST PUSH1 0x0 PUSH2 0x221B PUSH1 0x0 NOT DUP5 PUSH1 0x8 MUL PUSH2 0x21FD JUMP JUMPDEST NOT DUP1 DUP4 AND SWAP2 POP POP SWAP3 SWAP2 POP POP JUMP JUMPDEST PUSH1 0x0 PUSH2 0x2234 DUP4 DUP4 PUSH2 0x220A JUMP JUMPDEST SWAP2 POP DUP3 PUSH1 0x2 MUL DUP3 OR SWAP1 POP SWAP3 SWAP2 POP POP JUMP JUMPDEST PUSH2 0x224D DUP3 PUSH2 0x1549 JUMP JUMPDEST PUSH8 0xFFFFFFFFFFFFFFFF DUP2 GT ISZERO PUSH2 0x2266 JUMPI PUSH2 0x2265 PUSH2 0x1A93 JUMP JUMPDEST JUMPDEST PUSH2 0x2270 DUP3 SLOAD PUSH2 0x1F3A JUMP JUMPDEST PUSH2 0x227B DUP3 DUP3 DUP6 PUSH2 0x21B7 JUMP JUMPDEST PUSH1 0x0 PUSH1 0x20 SWAP1 POP PUSH1 0x1F DUP4 GT PUSH1 0x1 DUP2 EQ PUSH2 0x22AE JUMPI PUSH1 0x0 DUP5 ISZERO PUSH2 0x229C JUMPI DUP3 DUP8 ADD MLOAD SWAP1 POP JUMPDEST PUSH2 0x22A6 DUP6 DUP3 PUSH2 0x2228 JUMP JUMPDEST DUP7 SSTORE POP PUSH2 0x230E JUMP JUMPDEST PUSH1 0x1F NOT DUP5 AND PUSH2 0x22BC DUP7 PUSH2 0x2098 JUMP JUMPDEST PUSH1 0x0 JUMPDEST DUP3 DUP2 LT ISZERO PUSH2 0x22E4 JUMPI DUP5 DUP10 ADD MLOAD DUP3 SSTORE PUSH1 0x1 DUP3 ADD SWAP2 POP PUSH1 0x20 DUP6 ADD SWAP5 POP PUSH1 0x20 DUP2 ADD SWAP1 POP PUSH2 0x22BF JUMP JUMPDEST DUP7 DUP4 LT ISZERO PUSH2 0x2301 JUMPI DUP5 DUP10 ADD MLOAD PUSH2 0x22FD PUSH1 0x1F DUP10 AND DUP3 PUSH2 0x220A JUMP JUMPDEST DUP4 SSTORE POP JUMPDEST PUSH1 0x1 PUSH1 0x2 DUP9 MUL ADD DUP9 SSTORE POP POP POP JUMPDEST POP POP POP POP POP POP JUMP JUMPDEST PUSH1 0x0 PUSH2 0x2331 PUSH2 0x232C PUSH2 0x2327 DUP5 PUSH2 0x1508 JUMP JUMPDEST PUSH2 0x211C JUMP JUMPDEST PUSH2 0x1508 JUMP JUMPDEST SWAP1 POP SWAP2 SWAP1 POP JUMP JUMPDEST PUSH1 0x0 PUSH2 0x2343 DUP3 PUSH2 0x2316 JUMP JUMPDEST SWAP1 POP SWAP2 SWAP1 POP JUMP JUMPDEST PUSH1 0x0 PUSH2 0x2355 DUP3 PUSH2 0x2338 JUMP JUMPDEST SWAP1 POP SWAP2 SWAP1 POP JUMP JUMPDEST PUSH2 0x2365 DUP2 PUSH2 0x234A JUMP JUMPDEST DUP3 MSTORE POP POP JUMP JUMPDEST PUSH1 0x0 PUSH1 0x60 DUP3 ADD SWAP1 POP PUSH2 0x2380 PUSH1 0x0 DUP4 ADD DUP7 PUSH2 0x235C JUMP JUMPDEST PUSH2 0x238D PUSH1 0x20 DUP4 ADD DUP6 PUSH2 0x1794 JUMP JUMPDEST PUSH2 0x239A PUSH1 0x40 DUP4 ADD DUP5 PUSH2 0x1794 JUMP JUMPDEST SWAP5 SWAP4 POP POP POP POP JUMP JUMPDEST PUSH32 0x5573657220616C72656164792072656769737465726564000000000000000000 PUSH1 0x0 DUP3 ADD MSTORE POP JUMP JUMPDEST PUSH1 0x0 PUSH2 0x23D8 PUSH1 0x17 DUP4 PUSH2 0x17A3 JUMP JUMPDEST SWAP2 POP PUSH2 0x23E3 DUP3 PUSH2 0x23A2 JUMP JUMPDEST PUSH1 0x20 DUP3 ADD SWAP1 POP SWAP2 SWAP1 POP JUMP JUMPDEST PUSH1 0x0 PUSH1 0x20 DUP3 ADD SWAP1 POP DUP2 DUP2 SUB PUSH1 0x0 DUP4 ADD MSTORE PUSH2 0x2407 DUP2 PUSH2 0x23CB JUMP JUMPDEST SWAP1 POP SWAP2 SWAP1 POP JUMP JUMPDEST PUSH32 0x557365726E616D6520616C72656164792074616B656E00000000000000000000 PUSH1 0x0 DUP3 ADD MSTORE POP JUMP JUMPDEST PUSH1 0x0 PUSH2 0x2444 PUSH1 0x16 DUP4 PUSH2 0x17A3 JUMP JUMPDEST SWAP2 POP PUSH2 0x244F DUP3 PUSH2 0x240E JUMP JUMPDEST PUSH1 0x20 DUP3 ADD SWAP1 POP SWAP2 SWAP1 POP JUMP JUMPDEST PUSH1 0x0 PUSH1 0x20 DUP3 ADD SWAP1 POP DUP2 DUP2 SUB PUSH1 0x0 DUP4 ADD MSTORE PUSH2 0x2473 DUP2 PUSH2 0x2437 JUMP JUMPDEST SWAP1 POP SWAP2 SWAP1 POP JUMP JUMPDEST PUSH2 0x2483 DUP2 PUSH2 0x1729 JUMP JUMPDEST DUP3 MSTORE POP POP JUMP JUMPDEST PUSH1 0x0 PUSH1 0x40 DUP3 ADD SWAP1 POP PUSH2 0x249E PUSH1 0x0 DUP4 ADD DUP6 PUSH2 0x247A JUMP JUMPDEST PUSH2 0x24AB PUSH1 0x20 DUP4 ADD DUP5 PUSH2 0x1794 JUMP JUMPDEST SWAP4 SWAP3 POP POP POP JUMP INVALID LOG2 PUSH5 0x6970667358 0x22 SLT KECCAK256 0xDB SELFDESTRUCT 0xFB CALLER 0x5F DUP11 0x25 SLT 0xD5 0xC3 MSIZE 0x25 0x2C 0xC EXTCODECOPY 0xB8 0xB7 LOG1 0xEF 0x2D CALLCODE PUSH17 0x65CC3FABE3D992FC525A64736F6C634300 ADDMOD SLT STOP CALLER "},"methodIdentifiers":{"createPost(address,string,string)":"c096cdd5","getPostById(uint256)":"64e95895","getUser(address)":"6f77926b","getUserPosts(address)":"9a2194a9","owner()":"8da5cb5b","registerUser(string,string,string,string,string,uint256,bool)":"f82217c1","totalPosts()":"8e53fb41","totalUsers()":"bff1f9e1","userNameAvailable(string)":"b90c2073"}}}}}