{"contracts/SocialChain.sol":{"SocialChain":{"abi":[{"inputs":[],"stateMutability":"nonpayable","type":"constructor"},{"anonymous":false,"inputs":[{"indexed":false,"internalType":"address","name":"_author","type":"address"},{"indexed":false,"internalType":"uint256","name":"_commentId","type":"uint256"},{"indexed":false,"internalType":"uint256","name":"_postId","type":"uint256"},{"indexed":false,"internalType":"uint256","name":"_likeCount","type":"uint256"},{"indexed":false,"internalType":"uint256","name":"_reportCount","type":"uint256"},{"indexed":false,"internalType":"uint256","name":"_timeStamp","type":"uint256"},{"indexed":false,"internalType":"string","name":"_content","type":"string"}],"name":"logCommentCreated","type":"event"},{"anonymous":false,"inputs":[{"indexed":false,"internalType":"address","name":"_author","type":"address"},{"indexed":false,"internalType":"uint256","name":"_userId","type":"uint256"},{"indexed":false,"internalType":"uint256","name":"_postId","type":"uint256"}],"name":"logPostCreated","type":"event"},{"anonymous":false,"inputs":[{"indexed":false,"internalType":"address","name":"userAddress","type":"address"},{"indexed":false,"internalType":"uint256","name":"userId","type":"uint256"}],"name":"logRegisterUser","type":"event"},{"inputs":[{"internalType":"uint256","name":"_postId","type":"uint256"},{"internalType":"string","name":"_comment","type":"string"}],"name":"createComment","outputs":[],"stateMutability":"nonpayable","type":"function"},{"inputs":[{"internalType":"string","name":"_postdescription","type":"string"},{"internalType":"string","name":"_imghash","type":"string"}],"name":"createPost","outputs":[],"stateMutability":"nonpayable","type":"function"},{"inputs":[{"internalType":"uint256","name":"_commentId","type":"uint256"}],"name":"getCommentById","outputs":[{"components":[{"internalType":"uint256","name":"commentId","type":"uint256"},{"internalType":"address","name":"author","type":"address"},{"internalType":"uint256","name":"postId","type":"uint256"},{"internalType":"string","name":"content","type":"string"},{"internalType":"uint256","name":"likeCount","type":"uint256"},{"internalType":"uint256","name":"reportCount","type":"uint256"},{"internalType":"uint256","name":"timeStamp","type":"uint256"},{"internalType":"enum SocialChain.commentStatus","name":"status","type":"uint8"}],"internalType":"struct SocialChain.Comment","name":"","type":"tuple"}],"stateMutability":"view","type":"function"},{"inputs":[{"internalType":"uint256","name":"_postId","type":"uint256"}],"name":"getPostById","outputs":[{"components":[{"internalType":"uint256","name":"postId","type":"uint256"},{"internalType":"address","name":"author","type":"address"},{"internalType":"string","name":"postDescription","type":"string"},{"internalType":"string","name":"imgHash","type":"string"},{"internalType":"uint256","name":"timeStamp","type":"uint256"},{"internalType":"uint256","name":"likeCount","type":"uint256"},{"internalType":"uint256","name":"reportCount","type":"uint256"},{"internalType":"enum SocialChain.postStatus","name":"status","type":"uint8"}],"internalType":"struct SocialChain.Post","name":"","type":"tuple"}],"stateMutability":"view","type":"function"},{"inputs":[{"internalType":"uint256","name":"_listNumber","type":"uint256"},{"internalType":"uint256","name":"_commentPerList","type":"uint256"},{"internalType":"uint256","name":"_postId","type":"uint256"}],"name":"getPostComments","outputs":[{"components":[{"internalType":"uint256","name":"commentId","type":"uint256"},{"internalType":"address","name":"author","type":"address"},{"internalType":"uint256","name":"postId","type":"uint256"},{"internalType":"string","name":"content","type":"string"},{"internalType":"uint256","name":"likeCount","type":"uint256"},{"internalType":"uint256","name":"reportCount","type":"uint256"},{"internalType":"uint256","name":"timeStamp","type":"uint256"},{"internalType":"enum SocialChain.commentStatus","name":"status","type":"uint8"}],"internalType":"struct SocialChain.Comment[]","name":"","type":"tuple[]"}],"stateMutability":"view","type":"function"},{"inputs":[{"internalType":"uint256","name":"_page","type":"uint256"},{"internalType":"uint256","name":"_perPage","type":"uint256"}],"name":"getPostIds","outputs":[{"internalType":"uint256[]","name":"","type":"uint256[]"}],"stateMutability":"view","type":"function"},{"inputs":[{"internalType":"address","name":"accountAddress","type":"address"}],"name":"getUser","outputs":[{"internalType":"uint256","name":"id","type":"uint256"},{"internalType":"string","name":"userName","type":"string"},{"internalType":"string","name":"name","type":"string"},{"internalType":"string","name":"bio","type":"string"},{"internalType":"uint256","name":"birthDate","type":"uint256"},{"internalType":"bool","name":"showUsername","type":"bool"},{"internalType":"string","name":"imageHash","type":"string"},{"internalType":"string","name":"coverHash","type":"string"}],"stateMutability":"view","type":"function"},{"inputs":[],"name":"getUserPosts","outputs":[{"components":[{"internalType":"uint256","name":"postId","type":"uint256"},{"internalType":"address","name":"author","type":"address"},{"internalType":"string","name":"postDescription","type":"string"},{"internalType":"string","name":"imgHash","type":"string"},{"internalType":"uint256","name":"timeStamp","type":"uint256"},{"internalType":"uint256","name":"likeCount","type":"uint256"},{"internalType":"uint256","name":"reportCount","type":"uint256"},{"internalType":"enum SocialChain.postStatus","name":"status","type":"uint8"}],"internalType":"struct SocialChain.Post[]","name":"","type":"tuple[]"}],"stateMutability":"view","type":"function"},{"inputs":[{"internalType":"uint256","name":"_postId","type":"uint256"},{"internalType":"address","name":"_userAddress","type":"address"}],"name":"isLikedByAddress","outputs":[{"internalType":"bool","name":"","type":"bool"}],"stateMutability":"view","type":"function"},{"inputs":[{"internalType":"uint256","name":"_postId","type":"uint256"}],"name":"likePost","outputs":[],"stateMutability":"nonpayable","type":"function"},{"inputs":[],"name":"owner","outputs":[{"internalType":"address payable","name":"","type":"address"}],"stateMutability":"view","type":"function"},{"inputs":[{"internalType":"string","name":"_username","type":"string"},{"internalType":"string","name":"_name","type":"string"},{"internalType":"string","name":"_imgHash","type":"string"},{"internalType":"string","name":"_coverHash","type":"string"},{"internalType":"string","name":"_bio","type":"string"},{"internalType":"uint256","name":"birthDate","type":"uint256"},{"internalType":"bool","name":"showUserName","type":"bool"}],"name":"registerUser","outputs":[],"stateMutability":"nonpayable","type":"function"},{"inputs":[],"name":"totalComments","outputs":[{"internalType":"uint256","name":"","type":"uint256"}],"stateMutability":"view","type":"function"},{"inputs":[],"name":"totalPosts","outputs":[{"internalType":"uint256","name":"","type":"uint256"}],"stateMutability":"view","type":"function"},{"inputs":[],"name":"totalUsers","outputs":[{"internalType":"uint256","name":"","type":"uint256"}],"stateMutability":"view","type":"function"},{"inputs":[{"internalType":"uint256","name":"_postId","type":"uint256"}],"name":"unLikePost","outputs":[],"stateMutability":"nonpayable","type":"function"},{"inputs":[{"internalType":"string","name":"_username","type":"string"}],"name":"userNameAvailable","outputs":[{"internalType":"bool","name":"status","type":"bool"}],"stateMutability":"view","type":"function"}],"evm":{"bytecode":{"linkReferences":{},"object":"60806040526000600155600060025560006003553480156200002057600080fd5b50336000806101000a81548173ffffffffffffffffffffffffffffffffffffffff021916908373ffffffffffffffffffffffffffffffffffffffff160217905550620001366040518060400160405280600581526020017f6f776e65720000000000000000000000000000000000000000000000000000008152506040518060400160405280600581526020017f6f776e657200000000000000000000000000000000000000000000000000000081525060405180602001604052806000815250604051806020016040528060008152506040518060400160405280600581526020017f6f776e65720000000000000000000000000000000000000000000000000000008152506001806200013c60201b60201c565b62000b41565b336000600381111562000154576200015362000548565b5b600560008373ffffffffffffffffffffffffffffffffffffffff1673ffffffffffffffffffffffffffffffffffffffff16815260200190815260200160002060090160009054906101000a900460ff166003811115620001b957620001b862000548565b5b14620001fc576040517f08c379a0000000000000000000000000000000000000000000000000000000008152600401620001f390620005d8565b60405180910390fd5b876007816040516200020f919062000673565b908152602001604051809103902060009054906101000a900460ff16156200026e576040517f08c379a00000000000000000000000000000000000000000000000000000000081526004016200026590620006dc565b60405180910390fd5b600160078a60405162000282919062000673565b908152602001604051809103902060006101000a81548160ff02191690831515021790555060018054620002b7919062000737565b600181905550600060015490506040518061014001604052808281526020013373ffffffffffffffffffffffffffffffffffffffff1681526020018b81526020018a815260200187815260200186815260200185151581526020018981526020018881526020016001600381111562000335576200033462000548565b5b815250600560003373ffffffffffffffffffffffffffffffffffffffff1673ffffffffffffffffffffffffffffffffffffffff1681526020019081526020016000206000820151816000015560208201518160010160006101000a81548173ffffffffffffffffffffffffffffffffffffffff021916908373ffffffffffffffffffffffffffffffffffffffff1602179055506040820151816002019081620003df9190620009d7565b506060820151816003019081620003f79190620009d7565b5060808201518160040190816200040f9190620009d7565b5060a0820151816005015560c08201518160060160006101000a81548160ff02191690831515021790555060e0820151816007019081620004519190620009d7565b506101008201518160080190816200046a9190620009d7565b506101208201518160090160006101000a81548160ff021916908360038111156200049a576200049962000548565b5b02179055509050503360068b604051620004b5919062000673565b908152602001604051809103902060006101000a81548173ffffffffffffffffffffffffffffffffffffffff021916908373ffffffffffffffffffffffffffffffffffffffff1602179055507fabc58c36475157c4ac7669f9adfbb6f254d3a3578fb89676f6866ac3b9950eed33826040516200053492919062000b14565b60405180910390a150505050505050505050565b7f4e487b7100000000000000000000000000000000000000000000000000000000600052602160045260246000fd5b600082825260208201905092915050565b7f5573657220616c72656164792072656769737465726564000000000000000000600082015250565b6000620005c060178362000577565b9150620005cd8262000588565b602082019050919050565b60006020820190508181036000830152620005f381620005b1565b9050919050565b600081519050919050565b600081905092915050565b60005b838110156200063057808201518184015260208101905062000613565b60008484015250505050565b60006200064982620005fa565b62000655818562000605565b93506200066781856020860162000610565b80840191505092915050565b60006200068182846200063c565b915081905092915050565b7f557365726e616d6520616c72656164792074616b656e00000000000000000000600082015250565b6000620006c460168362000577565b9150620006d1826200068c565b602082019050919050565b60006020820190508181036000830152620006f781620006b5565b9050919050565b6000819050919050565b7f4e487b7100000000000000000000000000000000000000000000000000000000600052601160045260246000fd5b60006200074482620006fe565b91506200075183620006fe565b92508282019050808211156200076c576200076b62000708565b5b92915050565b7f4e487b7100000000000000000000000000000000000000000000000000000000600052604160045260246000fd5b7f4e487b7100000000000000000000000000000000000000000000000000000000600052602260045260246000fd5b60006002820490506001821680620007e957607f821691505b602082108103620007ff57620007fe620007a1565b5b50919050565b60008190508160005260206000209050919050565b60006020601f8301049050919050565b600082821b905092915050565b600060088302620008697fffffffffffffffffffffffffffffffffffffffffffffffffffffffffffffffff826200082a565b6200087586836200082a565b95508019841693508086168417925050509392505050565b6000819050919050565b6000620008b8620008b2620008ac84620006fe565b6200088d565b620006fe565b9050919050565b6000819050919050565b620008d48362000897565b620008ec620008e382620008bf565b84845462000837565b825550505050565b600090565b62000903620008f4565b62000910818484620008c9565b505050565b5b8181101562000938576200092c600082620008f9565b60018101905062000916565b5050565b601f8211156200098757620009518162000805565b6200095c846200081a565b810160208510156200096c578190505b620009846200097b856200081a565b83018262000915565b50505b505050565b600082821c905092915050565b6000620009ac600019846008026200098c565b1980831691505092915050565b6000620009c7838362000999565b9150826002028217905092915050565b620009e282620005fa565b67ffffffffffffffff811115620009fe57620009fd62000772565b5b62000a0a8254620007d0565b62000a178282856200093c565b600060209050601f83116001811462000a4f576000841562000a3a578287015190505b62000a468582620009b9565b86555062000ab6565b601f19841662000a5f8662000805565b60005b8281101562000a895784890151825560018201915060208501945060208101905062000a62565b8683101562000aa9578489015162000aa5601f89168262000999565b8355505b6001600288020188555050505b505050505050565b600073ffffffffffffffffffffffffffffffffffffffff82169050919050565b600062000aeb8262000abe565b9050919050565b62000afd8162000ade565b82525050565b62000b0e81620006fe565b82525050565b600060408201905062000b2b600083018562000af2565b62000b3a602083018462000b03565b9392505050565b6140458062000b516000396000f3fe608060405234801561001057600080fd5b506004361061010b5760003560e01c8063725009d3116100a2578063b90c207311610071578063b90c2073146102d1578063bebce30014610301578063bff1f9e114610331578063cc4ef2cc1461034f578063f82217c11461036d5761010b565b8063725009d314610249578063875003aa146102655780638da5cb5b146102955780638e53fb41146102b35761010b565b806361936b81116100de57806361936b811461019457806364e95895146101b25780636c43dbb4146101e25780636f77926b146102125761010b565b80632f4992ef14610110578063392338f51461012c57806340a179851461014857806349e0350214610164575b600080fd5b61012a60048036038101906101259190612a10565b610389565b005b61014660048036038101906101419190612b83565b6105dd565b005b610162600480360381019061015d9190612bfb565b610908565b005b61017e60048036038101906101799190612c57565b610c6f565b60405161018b9190612d55565b60405180910390f35b61019c610e3a565b6040516101a99190612d86565b60405180910390f35b6101cc60048036038101906101c79190612a10565b610e40565b6040516101d99190612f8f565b60405180910390f35b6101fc60048036038101906101f79190612a10565b61118f565b60405161020991906130a9565b60405180910390f35b61022c600480360381019061022791906130f7565b611456565b604051610240989796959493929190613189565b60405180910390f35b610263600480360381019061025e9190612a10565b611891565b005b61027f600480360381019061027a919061322a565b611ae6565b60405161028c919061326a565b60405180910390f35b61029d611c92565b6040516102aa91906132a6565b60405180910390f35b6102bb611cb6565b6040516102c89190612d86565b60405180910390f35b6102eb60048036038101906102e691906132c1565b611cbc565b6040516102f8919061326a565b60405180910390f35b61031b6004803603810190610316919061330a565b611cf2565b60405161032891906134cf565b60405180910390f35b6103396120ff565b6040516103469190612d86565b60405180910390f35b610357612105565b604051610364919061366a565b60405180910390f35b610387600480360381019061038291906136b8565b612506565b005b336001600381111561039e5761039d612e61565b5b600560008373ffffffffffffffffffffffffffffffffffffffff1673ffffffffffffffffffffffffffffffffffffffff16815260200190815260200160002060090160009054906101000a900460ff166003811115610400576103ff612e61565b5b14610440576040517f08c379a000000000000000000000000000000000000000000000000000000000815260040161043790613832565b60405180910390fd5b816001600381111561045557610454612e61565b5b6008600083815260200190815260200160002060070160009054906101000a900460ff16600381111561048b5761048a612e61565b5b146104cb576040517f08c379a00000000000000000000000000000000000000000000000000000000081526004016104c29061389e565b60405180910390fd5b600a600084815260200190815260200160002060003373ffffffffffffffffffffffffffffffffffffffff1673ffffffffffffffffffffffffffffffffffffffff16815260200190815260200160002060009054906101000a900460ff1661053257600080fd5b6001600860008581526020019081526020016000206005015461055591906138ed565b60086000858152602001908152602001600020600501819055506000600a600085815260200190815260200160002060003373ffffffffffffffffffffffffffffffffffffffff1673ffffffffffffffffffffffffffffffffffffffff16815260200190815260200160002060006101000a81548160ff021916908315150217905550505050565b33600160038111156105f2576105f1612e61565b5b600560008373ffffffffffffffffffffffffffffffffffffffff1673ffffffffffffffffffffffffffffffffffffffff16815260200190815260200160002060090160009054906101000a900460ff16600381111561065457610653612e61565b5b14610694576040517f08c379a000000000000000000000000000000000000000000000000000000000815260040161068b90613832565b60405180910390fd5b60016002546106a39190613921565b600281905550600060025490506040518061010001604052808281526020013373ffffffffffffffffffffffffffffffffffffffff16815260200185815260200184815260200142815260200160008152602001600081526020016001600381111561071257610711612e61565b5b815250600860008381526020019081526020016000206000820151816000015560208201518160010160006101000a81548173ffffffffffffffffffffffffffffffffffffffff021916908373ffffffffffffffffffffffffffffffffffffffff160217905550604082015181600201908161078e9190613b61565b5060608201518160030190816107a49190613b61565b506080820151816004015560a0820151816005015560c0820151816006015560e08201518160070160006101000a81548160ff021916908360038111156107ee576107ed612e61565b5b0217905550905050600960003373ffffffffffffffffffffffffffffffffffffffff1673ffffffffffffffffffffffffffffffffffffffff16815260200190815260200160002081908060018154018082558091505060019003906000526020600020016000909190919091505560048190806001815401808255809150506001900390600052602060002001600090919091909150557fe78603dea3231b9ac9a73b3663b6e28de19f35247e2c32f0115ec263bdc7c49a33600560003373ffffffffffffffffffffffffffffffffffffffff1673ffffffffffffffffffffffffffffffffffffffff16815260200190815260200160002060000154836040516108fa93929190613c42565b60405180910390a150505050565b336001600381111561091d5761091c612e61565b5b600560008373ffffffffffffffffffffffffffffffffffffffff1673ffffffffffffffffffffffffffffffffffffffff16815260200190815260200160002060090160009054906101000a900460ff16600381111561097f5761097e612e61565b5b146109bf576040517f08c379a00000000000000000000000000000000000000000000000000000000081526004016109b690613832565b60405180910390fd5b82600160038111156109d4576109d3612e61565b5b6008600083815260200190815260200160002060070160009054906101000a900460ff166003811115610a0a57610a09612e61565b5b14610a4a576040517f08c379a0000000000000000000000000000000000000000000000000000000008152600401610a419061389e565b60405180910390fd5b60008390506000815103610a93576040517f08c379a0000000000000000000000000000000000000000000000000000000008152600401610a8a90613cc5565b60405180910390fd5b6001600354610aa29190613921565b600381905550600060035490506040518061010001604052808281526020013373ffffffffffffffffffffffffffffffffffffffff168152602001878152602001868152602001600081526020016000815260200142815260200160016003811115610b1157610b10612e61565b5b815250600b60008381526020019081526020016000206000820151816000015560208201518160010160006101000a81548173ffffffffffffffffffffffffffffffffffffffff021916908373ffffffffffffffffffffffffffffffffffffffff160217905550604082015181600201556060820151816003019081610b979190613b61565b506080820151816004015560a0820151816005015560c0820151816006015560e08201518160070160006101000a81548160ff02191690836003811115610be157610be0612e61565b5b0217905550905050600d60008781526020019081526020016000208190806001815401808255809150506001900390600052602060002001600090919091909150557f50621ca627228f52152f460ce13adf4d014aeb126e3faa26d112c10b0bb43a13338288600080428b604051610c5f9796959493929190613d20565b60405180910390a1505050505050565b60603360016003811115610c8657610c85612e61565b5b600560008373ffffffffffffffffffffffffffffffffffffffff1673ffffffffffffffffffffffffffffffffffffffff16815260200190815260200160002060090160009054906101000a900460ff166003811115610ce857610ce7612e61565b5b14610d28576040517f08c379a0000000000000000000000000000000000000000000000000000000008152600401610d1f90613832565b60405180910390fd5b600083600186610d3891906138ed565b610d429190613d96565b905060008482610d529190613921565b9050600480549050811115610d6a5760048054905090505b60008282610d7891906138ed565b67ffffffffffffffff811115610d9157610d90612a58565b5b604051908082528060200260200182016040528015610dbf5781602001602082028036833780820191505090505b50905060008390505b82811015610e2c5760048181548110610de457610de3613dd8565b5b9060005260206000200154828583610dfc91906138ed565b81518110610e0d57610e0c613dd8565b5b6020026020010181815250508080610e2490613e07565b915050610dc8565b508094505050505092915050565b60035481565b610e486128ec565b3360016003811115610e5d57610e5c612e61565b5b600560008373ffffffffffffffffffffffffffffffffffffffff1673ffffffffffffffffffffffffffffffffffffffff16815260200190815260200160002060090160009054906101000a900460ff166003811115610ebf57610ebe612e61565b5b14610eff576040517f08c379a0000000000000000000000000000000000000000000000000000000008152600401610ef690613832565b60405180910390fd5b8260016003811115610f1457610f13612e61565b5b6008600083815260200190815260200160002060070160009054906101000a900460ff166003811115610f4a57610f49612e61565b5b14610f8a576040517f08c379a0000000000000000000000000000000000000000000000000000000008152600401610f819061389e565b60405180910390fd5b6008600085815260200190815260200160002060405180610100016040529081600082015481526020016001820160009054906101000a900473ffffffffffffffffffffffffffffffffffffffff1673ffffffffffffffffffffffffffffffffffffffff1673ffffffffffffffffffffffffffffffffffffffff16815260200160028201805461101990613984565b80601f016020809104026020016040519081016040528092919081815260200182805461104590613984565b80156110925780601f1061106757610100808354040283529160200191611092565b820191906000526020600020905b81548152906001019060200180831161107557829003601f168201915b505050505081526020016003820180546110ab90613984565b80601f01602080910402602001604051908101604052809291908181526020018280546110d790613984565b80156111245780601f106110f957610100808354040283529160200191611124565b820191906000526020600020905b81548152906001019060200180831161110757829003601f168201915b505050505081526020016004820154815260200160058201548152602001600682015481526020016007820160009054906101000a900460ff1660038111156111705761116f612e61565b5b600381111561118257611181612e61565b5b8152505092505050919050565b611197612959565b33600160038111156111ac576111ab612e61565b5b600560008373ffffffffffffffffffffffffffffffffffffffff1673ffffffffffffffffffffffffffffffffffffffff16815260200190815260200160002060090160009054906101000a900460ff16600381111561120e5761120d612e61565b5b1461124e576040517f08c379a000000000000000000000000000000000000000000000000000000000815260040161124590613832565b60405180910390fd5b826001600381111561126357611262612e61565b5b600b600083815260200190815260200160002060070160009054906101000a900460ff16600381111561129957611298612e61565b5b146112d9576040517f08c379a00000000000000000000000000000000000000000000000000000000081526004016112d090613e9b565b60405180910390fd5b600b600085815260200190815260200160002060405180610100016040529081600082015481526020016001820160009054906101000a900473ffffffffffffffffffffffffffffffffffffffff1673ffffffffffffffffffffffffffffffffffffffff1673ffffffffffffffffffffffffffffffffffffffff1681526020016002820154815260200160038201805461137290613984565b80601f016020809104026020016040519081016040528092919081815260200182805461139e90613984565b80156113eb5780601f106113c0576101008083540402835291602001916113eb565b820191906000526020600020905b8154815290600101906020018083116113ce57829003601f168201915b505050505081526020016004820154815260200160058201548152602001600682015481526020016007820160009054906101000a900460ff16600381111561143757611436612e61565b5b600381111561144957611448612e61565b5b8152505092505050919050565b600060608060606000806060806000600560008b73ffffffffffffffffffffffffffffffffffffffff1673ffffffffffffffffffffffffffffffffffffffff16815260200190815260200160002060405180610140016040529081600082015481526020016001820160009054906101000a900473ffffffffffffffffffffffffffffffffffffffff1673ffffffffffffffffffffffffffffffffffffffff1673ffffffffffffffffffffffffffffffffffffffff16815260200160028201805461152090613984565b80601f016020809104026020016040519081016040528092919081815260200182805461154c90613984565b80156115995780601f1061156e57610100808354040283529160200191611599565b820191906000526020600020905b81548152906001019060200180831161157c57829003601f168201915b505050505081526020016003820180546115b290613984565b80601f01602080910402602001604051908101604052809291908181526020018280546115de90613984565b801561162b5780601f106116005761010080835404028352916020019161162b565b820191906000526020600020905b81548152906001019060200180831161160e57829003601f168201915b5050505050815260200160048201805461164490613984565b80601f016020809104026020016040519081016040528092919081815260200182805461167090613984565b80156116bd5780601f10611692576101008083540402835291602001916116bd565b820191906000526020600020905b8154815290600101906020018083116116a057829003601f168201915b50505050508152602001600582015481526020016006820160009054906101000a900460ff161515151581526020016007820180546116fb90613984565b80601f016020809104026020016040519081016040528092919081815260200182805461172790613984565b80156117745780601f1061174957610100808354040283529160200191611774565b820191906000526020600020905b81548152906001019060200180831161175757829003601f168201915b5050505050815260200160088201805461178d90613984565b80601f01602080910402602001604051908101604052809291908181526020018280546117b990613984565b80156118065780601f106117db57610100808354040283529160200191611806565b820191906000526020600020905b8154815290600101906020018083116117e957829003601f168201915b505050505081526020016009820160009054906101000a900460ff16600381111561183457611833612e61565b5b600381111561184657611845612e61565b5b81525050905080600001518160400151826060015183608001518460a001518560c001518660e001518761010001519850985098509850985098509850985050919395975091939597565b33600160038111156118a6576118a5612e61565b5b600560008373ffffffffffffffffffffffffffffffffffffffff1673ffffffffffffffffffffffffffffffffffffffff16815260200190815260200160002060090160009054906101000a900460ff16600381111561190857611907612e61565b5b14611948576040517f08c379a000000000000000000000000000000000000000000000000000000000815260040161193f90613832565b60405180910390fd5b816001600381111561195d5761195c612e61565b5b6008600083815260200190815260200160002060070160009054906101000a900460ff16600381111561199357611992612e61565b5b146119d3576040517f08c379a00000000000000000000000000000000000000000000000000000000081526004016119ca9061389e565b60405180910390fd5b600a600084815260200190815260200160002060003373ffffffffffffffffffffffffffffffffffffffff1673ffffffffffffffffffffffffffffffffffffffff16815260200190815260200160002060009054906101000a900460ff1615611a3b57600080fd5b60016008600085815260200190815260200160002060050154611a5e9190613921565b60086000858152602001908152602001600020600501819055506001600a600085815260200190815260200160002060003373ffffffffffffffffffffffffffffffffffffffff1673ffffffffffffffffffffffffffffffffffffffff16815260200190815260200160002060006101000a81548160ff021916908315150217905550505050565b60008260016003811115611afd57611afc612e61565b5b6008600083815260200190815260200160002060070160009054906101000a900460ff166003811115611b3357611b32612e61565b5b14611b73576040517f08c379a0000000000000000000000000000000000000000000000000000000008152600401611b6a9061389e565b60405180910390fd5b8260016003811115611b8857611b87612e61565b5b600560008373ffffffffffffffffffffffffffffffffffffffff1673ffffffffffffffffffffffffffffffffffffffff16815260200190815260200160002060090160009054906101000a900460ff166003811115611bea57611be9612e61565b5b14611c2a576040517f08c379a0000000000000000000000000000000000000000000000000000000008152600401611c2190613832565b60405180910390fd5b600a600086815260200190815260200160002060008573ffffffffffffffffffffffffffffffffffffffff1673ffffffffffffffffffffffffffffffffffffffff16815260200190815260200160002060009054906101000a900460ff169250505092915050565b60008054906101000a900473ffffffffffffffffffffffffffffffffffffffff1681565b60025481565b6000600782604051611cce9190613ef7565b908152602001604051809103902060009054906101000a900460ff16159050919050565b60603360016003811115611d0957611d08612e61565b5b600560008373ffffffffffffffffffffffffffffffffffffffff1673ffffffffffffffffffffffffffffffffffffffff16815260200190815260200160002060090160009054906101000a900460ff166003811115611d6b57611d6a612e61565b5b14611dab576040517f08c379a0000000000000000000000000000000000000000000000000000000008152600401611da290613832565b60405180910390fd5b8260016003811115611dc057611dbf612e61565b5b6008600083815260200190815260200160002060070160009054906101000a900460ff166003811115611df657611df5612e61565b5b14611e36576040517f08c379a0000000000000000000000000000000000000000000000000000000008152600401611e2d9061389e565b60405180910390fd5b600085600188611e4691906138ed565b611e509190613d96565b905060008682611e609190613921565b9050600d600087815260200190815260200160002080549050811115611e9a57600d60008781526020019081526020016000208054905090505b60008282611ea891906138ed565b67ffffffffffffffff811115611ec157611ec0612a58565b5b604051908082528060200260200182016040528015611efa57816020015b611ee7612959565b815260200190600190039081611edf5790505b5090506000808490505b838110156120ee57600d60008a81526020019081526020016000208181548110611f3157611f30613dd8565b5b90600052602060002001549150600b600083815260200190815260200160002060405180610100016040529081600082015481526020016001820160009054906101000a900473ffffffffffffffffffffffffffffffffffffffff1673ffffffffffffffffffffffffffffffffffffffff1673ffffffffffffffffffffffffffffffffffffffff16815260200160028201548152602001600382018054611fd790613984565b80601f016020809104026020016040519081016040528092919081815260200182805461200390613984565b80156120505780601f1061202557610100808354040283529160200191612050565b820191906000526020600020905b81548152906001019060200180831161203357829003601f168201915b505050505081526020016004820154815260200160058201548152602001600682015481526020016007820160009054906101000a900460ff16600381111561209c5761209b612e61565b5b60038111156120ae576120ad612e61565b5b815250508386836120bf91906138ed565b815181106120d0576120cf613dd8565b5b602002602001018190525080806120e690613e07565b915050611f04565b508196505050505050509392505050565b60015481565b6060336001600381111561211c5761211b612e61565b5b600560008373ffffffffffffffffffffffffffffffffffffffff1673ffffffffffffffffffffffffffffffffffffffff16815260200190815260200160002060090160009054906101000a900460ff16600381111561217e5761217d612e61565b5b146121be576040517f08c379a00000000000000000000000000000000000000000000000000000000081526004016121b590613832565b60405180910390fd5b6000600960003373ffffffffffffffffffffffffffffffffffffffff1673ffffffffffffffffffffffffffffffffffffffff16815260200190815260200160002080548060200260200160405190810160405280929190818152602001828054801561224957602002820191906000526020600020905b815481526020019060010190808311612235575b505050505090506000815167ffffffffffffffff81111561226d5761226c612a58565b5b6040519080825280602002602001820160405280156122a657816020015b6122936128ec565b81526020019060019003908161228b5790505b50905060005b82518110156124fc57600860008483815181106122cc576122cb613dd8565b5b6020026020010151815260200190815260200160002060405180610100016040529081600082015481526020016001820160009054906101000a900473ffffffffffffffffffffffffffffffffffffffff1673ffffffffffffffffffffffffffffffffffffffff1673ffffffffffffffffffffffffffffffffffffffff16815260200160028201805461235e90613984565b80601f016020809104026020016040519081016040528092919081815260200182805461238a90613984565b80156123d75780601f106123ac576101008083540402835291602001916123d7565b820191906000526020600020905b8154815290600101906020018083116123ba57829003601f168201915b505050505081526020016003820180546123f090613984565b80601f016020809104026020016040519081016040528092919081815260200182805461241c90613984565b80156124695780601f1061243e57610100808354040283529160200191612469565b820191906000526020600020905b81548152906001019060200180831161244c57829003601f168201915b505050505081526020016004820154815260200160058201548152602001600682015481526020016007820160009054906101000a900460ff1660038111156124b5576124b4612e61565b5b60038111156124c7576124c6612e61565b5b815250508282815181106124de576124dd613dd8565b5b602002602001018190525080806124f490613e07565b9150506122ac565b5080935050505090565b336000600381111561251b5761251a612e61565b5b600560008373ffffffffffffffffffffffffffffffffffffffff1673ffffffffffffffffffffffffffffffffffffffff16815260200190815260200160002060090160009054906101000a900460ff16600381111561257d5761257c612e61565b5b146125bd576040517f08c379a00000000000000000000000000000000000000000000000000000000081526004016125b490613f5a565b60405180910390fd5b876007816040516125ce9190613ef7565b908152602001604051809103902060009054906101000a900460ff161561262a576040517f08c379a000000000000000000000000000000000000000000000000000000000815260040161262190613fc6565b60405180910390fd5b600160078a60405161263c9190613ef7565b908152602001604051809103902060006101000a81548160ff0219169083151502179055506001805461266f9190613921565b600181905550600060015490506040518061014001604052808281526020013373ffffffffffffffffffffffffffffffffffffffff1681526020018b81526020018a81526020018781526020018681526020018515158152602001898152602001888152602001600160038111156126ea576126e9612e61565b5b815250600560003373ffffffffffffffffffffffffffffffffffffffff1673ffffffffffffffffffffffffffffffffffffffff1681526020019081526020016000206000820151816000015560208201518160010160006101000a81548173ffffffffffffffffffffffffffffffffffffffff021916908373ffffffffffffffffffffffffffffffffffffffff16021790555060408201518160020190816127929190613b61565b5060608201518160030190816127a89190613b61565b5060808201518160040190816127be9190613b61565b5060a0820151816005015560c08201518160060160006101000a81548160ff02191690831515021790555060e08201518160070190816127fe9190613b61565b506101008201518160080190816128159190613b61565b506101208201518160090160006101000a81548160ff0219169083600381111561284257612841612e61565b5b02179055509050503360068b60405161285b9190613ef7565b908152602001604051809103902060006101000a81548173ffffffffffffffffffffffffffffffffffffffff021916908373ffffffffffffffffffffffffffffffffffffffff1602179055507fabc58c36475157c4ac7669f9adfbb6f254d3a3578fb89676f6866ac3b9950eed33826040516128d8929190613fe6565b60405180910390a150505050505050505050565b60405180610100016040528060008152602001600073ffffffffffffffffffffffffffffffffffffffff16815260200160608152602001606081526020016000815260200160008152602001600081526020016000600381111561295357612952612e61565b5b81525090565b60405180610100016040528060008152602001600073ffffffffffffffffffffffffffffffffffffffff1681526020016000815260200160608152602001600081526020016000815260200160008152602001600060038111156129c0576129bf612e61565b5b81525090565b6000604051905090565b600080fd5b600080fd5b6000819050919050565b6129ed816129da565b81146129f857600080fd5b50565b600081359050612a0a816129e4565b92915050565b600060208284031215612a2657612a256129d0565b5b6000612a34848285016129fb565b91505092915050565b600080fd5b600080fd5b6000601f19601f8301169050919050565b7f4e487b7100000000000000000000000000000000000000000000000000000000600052604160045260246000fd5b612a9082612a47565b810181811067ffffffffffffffff82111715612aaf57612aae612a58565b5b80604052505050565b6000612ac26129c6565b9050612ace8282612a87565b919050565b600067ffffffffffffffff821115612aee57612aed612a58565b5b612af782612a47565b9050602081019050919050565b82818337600083830152505050565b6000612b26612b2184612ad3565b612ab8565b905082815260208101848484011115612b4257612b41612a42565b5b612b4d848285612b04565b509392505050565b600082601f830112612b6a57612b69612a3d565b5b8135612b7a848260208601612b13565b91505092915050565b60008060408385031215612b9a57612b996129d0565b5b600083013567ffffffffffffffff811115612bb857612bb76129d5565b5b612bc485828601612b55565b925050602083013567ffffffffffffffff811115612be557612be46129d5565b5b612bf185828601612b55565b9150509250929050565b60008060408385031215612c1257612c116129d0565b5b6000612c20858286016129fb565b925050602083013567ffffffffffffffff811115612c4157612c406129d5565b5b612c4d85828601612b55565b9150509250929050565b60008060408385031215612c6e57612c6d6129d0565b5b6000612c7c858286016129fb565b9250506020612c8d858286016129fb565b9150509250929050565b600081519050919050565b600082825260208201905092915050565b6000819050602082019050919050565b612ccc816129da565b82525050565b6000612cde8383612cc3565b60208301905092915050565b6000602082019050919050565b6000612d0282612c97565b612d0c8185612ca2565b9350612d1783612cb3565b8060005b83811015612d48578151612d2f8882612cd2565b9750612d3a83612cea565b925050600181019050612d1b565b5085935050505092915050565b60006020820190508181036000830152612d6f8184612cf7565b905092915050565b612d80816129da565b82525050565b6000602082019050612d9b6000830184612d77565b92915050565b600073ffffffffffffffffffffffffffffffffffffffff82169050919050565b6000612dcc82612da1565b9050919050565b612ddc81612dc1565b82525050565b600081519050919050565b600082825260208201905092915050565b60005b83811015612e1c578082015181840152602081019050612e01565b60008484015250505050565b6000612e3382612de2565b612e3d8185612ded565b9350612e4d818560208601612dfe565b612e5681612a47565b840191505092915050565b7f4e487b7100000000000000000000000000000000000000000000000000000000600052602160045260246000fd5b60048110612ea157612ea0612e61565b5b50565b6000819050612eb282612e90565b919050565b6000612ec282612ea4565b9050919050565b612ed281612eb7565b82525050565b600061010083016000830151612ef16000860182612cc3565b506020830151612f046020860182612dd3565b5060408301518482036040860152612f1c8282612e28565b91505060608301518482036060860152612f368282612e28565b9150506080830151612f4b6080860182612cc3565b5060a0830151612f5e60a0860182612cc3565b5060c0830151612f7160c0860182612cc3565b5060e0830151612f8460e0860182612ec9565b508091505092915050565b60006020820190508181036000830152612fa98184612ed8565b905092915050565b60048110612fc257612fc1612e61565b5b50565b6000819050612fd382612fb1565b919050565b6000612fe382612fc5565b9050919050565b612ff381612fd8565b82525050565b6000610100830160008301516130126000860182612cc3565b5060208301516130256020860182612dd3565b5060408301516130386040860182612cc3565b50606083015184820360608601526130508282612e28565b91505060808301516130656080860182612cc3565b5060a083015161307860a0860182612cc3565b5060c083015161308b60c0860182612cc3565b5060e083015161309e60e0860182612fea565b508091505092915050565b600060208201905081810360008301526130c38184612ff9565b905092915050565b6130d481612dc1565b81146130df57600080fd5b50565b6000813590506130f1816130cb565b92915050565b60006020828403121561310d5761310c6129d0565b5b600061311b848285016130e2565b91505092915050565b600082825260208201905092915050565b600061314082612de2565b61314a8185613124565b935061315a818560208601612dfe565b61316381612a47565b840191505092915050565b60008115159050919050565b6131838161316e565b82525050565b60006101008201905061319f600083018b612d77565b81810360208301526131b1818a613135565b905081810360408301526131c58189613135565b905081810360608301526131d98188613135565b90506131e86080830187612d77565b6131f560a083018661317a565b81810360c08301526132078185613135565b905081810360e083015261321b8184613135565b90509998505050505050505050565b60008060408385031215613241576132406129d0565b5b600061324f858286016129fb565b9250506020613260858286016130e2565b9150509250929050565b600060208201905061327f600083018461317a565b92915050565b600061329082612da1565b9050919050565b6132a081613285565b82525050565b60006020820190506132bb6000830184613297565b92915050565b6000602082840312156132d7576132d66129d0565b5b600082013567ffffffffffffffff8111156132f5576132f46129d5565b5b61330184828501612b55565b91505092915050565b600080600060608486031215613323576133226129d0565b5b6000613331868287016129fb565b9350506020613342868287016129fb565b9250506040613353868287016129fb565b9150509250925092565b600081519050919050565b600082825260208201905092915050565b6000819050602082019050919050565b6000610100830160008301516133a26000860182612cc3565b5060208301516133b56020860182612dd3565b5060408301516133c86040860182612cc3565b50606083015184820360608601526133e08282612e28565b91505060808301516133f56080860182612cc3565b5060a083015161340860a0860182612cc3565b5060c083015161341b60c0860182612cc3565b5060e083015161342e60e0860182612fea565b508091505092915050565b60006134458383613389565b905092915050565b6000602082019050919050565b60006134658261335d565b61346f8185613368565b93508360208202850161348185613379565b8060005b858110156134bd578484038952815161349e8582613439565b94506134a98361344d565b925060208a01995050600181019050613485565b50829750879550505050505092915050565b600060208201905081810360008301526134e9818461345a565b905092915050565b600081519050919050565b600082825260208201905092915050565b6000819050602082019050919050565b6000610100830160008301516135366000860182612cc3565b5060208301516135496020860182612dd3565b50604083015184820360408601526135618282612e28565b9150506060830151848203606086015261357b8282612e28565b91505060808301516135906080860182612cc3565b5060a08301516135a360a0860182612cc3565b5060c08301516135b660c0860182612cc3565b5060e08301516135c960e0860182612ec9565b508091505092915050565b60006135e0838361351d565b905092915050565b6000602082019050919050565b6000613600826134f1565b61360a81856134fc565b93508360208202850161361c8561350d565b8060005b85811015613658578484038952815161363985826135d4565b9450613644836135e8565b925060208a01995050600181019050613620565b50829750879550505050505092915050565b6000602082019050818103600083015261368481846135f5565b905092915050565b6136958161316e565b81146136a057600080fd5b50565b6000813590506136b28161368c565b92915050565b600080600080600080600060e0888a0312156136d7576136d66129d0565b5b600088013567ffffffffffffffff8111156136f5576136f46129d5565b5b6137018a828b01612b55565b975050602088013567ffffffffffffffff811115613722576137216129d5565b5b61372e8a828b01612b55565b965050604088013567ffffffffffffffff81111561374f5761374e6129d5565b5b61375b8a828b01612b55565b955050606088013567ffffffffffffffff81111561377c5761377b6129d5565b5b6137888a828b01612b55565b945050608088013567ffffffffffffffff8111156137a9576137a86129d5565b5b6137b58a828b01612b55565b93505060a06137c68a828b016129fb565b92505060c06137d78a828b016136a3565b91505092959891949750929550565b7f4e6f742061205265676973746572656420557365722100000000000000000000600082015250565b600061381c601683613124565b9150613827826137e6565b602082019050919050565b6000602082019050818103600083015261384b8161380f565b9050919050565b7f4e6f7420616e2061637469766520706f73740000000000000000000000000000600082015250565b6000613888601283613124565b915061389382613852565b602082019050919050565b600060208201905081810360008301526138b78161387b565b9050919050565b7f4e487b7100000000000000000000000000000000000000000000000000000000600052601160045260246000fd5b60006138f8826129da565b9150613903836129da565b925082820390508181111561391b5761391a6138be565b5b92915050565b600061392c826129da565b9150613937836129da565b925082820190508082111561394f5761394e6138be565b5b92915050565b7f4e487b7100000000000000000000000000000000000000000000000000000000600052602260045260246000fd5b6000600282049050600182168061399c57607f821691505b6020821081036139af576139ae613955565b5b50919050565b60008190508160005260206000209050919050565b60006020601f8301049050919050565b600082821b905092915050565b600060088302613a177fffffffffffffffffffffffffffffffffffffffffffffffffffffffffffffffff826139da565b613a2186836139da565b95508019841693508086168417925050509392505050565b6000819050919050565b6000613a5e613a59613a54846129da565b613a39565b6129da565b9050919050565b6000819050919050565b613a7883613a43565b613a8c613a8482613a65565b8484546139e7565b825550505050565b600090565b613aa1613a94565b613aac818484613a6f565b505050565b5b81811015613ad057613ac5600082613a99565b600181019050613ab2565b5050565b601f821115613b1557613ae6816139b5565b613aef846139ca565b81016020851015613afe578190505b613b12613b0a856139ca565b830182613ab1565b50505b505050565b600082821c905092915050565b6000613b3860001984600802613b1a565b1980831691505092915050565b6000613b518383613b27565b9150826002028217905092915050565b613b6a82612de2565b67ffffffffffffffff811115613b8357613b82612a58565b5b613b8d8254613984565b613b98828285613ad4565b600060209050601f831160018114613bcb5760008415613bb9578287015190505b613bc38582613b45565b865550613c2b565b601f198416613bd9866139b5565b60005b82811015613c0157848901518255600182019150602085019450602081019050613bdc565b86831015613c1e5784890151613c1a601f891682613b27565b8355505b6001600288020188555050505b505050505050565b613c3c81612dc1565b82525050565b6000606082019050613c576000830186613c33565b613c646020830185612d77565b613c716040830184612d77565b949350505050565b7f436f6d6d656e742063616e206e6f7420626520656d7074792021000000000000600082015250565b6000613caf601a83613124565b9150613cba82613c79565b602082019050919050565b60006020820190508181036000830152613cde81613ca2565b9050919050565b6000819050919050565b6000613d0a613d05613d0084613ce5565b613a39565b6129da565b9050919050565b613d1a81613cef565b82525050565b600060e082019050613d35600083018a613c33565b613d426020830189612d77565b613d4f6040830188612d77565b613d5c6060830187613d11565b613d696080830186613d11565b613d7660a0830185612d77565b81810360c0830152613d888184613135565b905098975050505050505050565b6000613da1826129da565b9150613dac836129da565b9250828202613dba816129da565b91508282048414831517613dd157613dd06138be565b5b5092915050565b7f4e487b7100000000000000000000000000000000000000000000000000000000600052603260045260246000fd5b6000613e12826129da565b91507fffffffffffffffffffffffffffffffffffffffffffffffffffffffffffffffff8203613e4457613e436138be565b5b600182019050919050565b7f4e6f7420616e2061637469766520636f6d6d656e740000000000000000000000600082015250565b6000613e85601583613124565b9150613e9082613e4f565b602082019050919050565b60006020820190508181036000830152613eb481613e78565b9050919050565b600081905092915050565b6000613ed182612de2565b613edb8185613ebb565b9350613eeb818560208601612dfe565b80840191505092915050565b6000613f038284613ec6565b915081905092915050565b7f5573657220616c72656164792072656769737465726564000000000000000000600082015250565b6000613f44601783613124565b9150613f4f82613f0e565b602082019050919050565b60006020820190508181036000830152613f7381613f37565b9050919050565b7f557365726e616d6520616c72656164792074616b656e00000000000000000000600082015250565b6000613fb0601683613124565b9150613fbb82613f7a565b602082019050919050565b60006020820190508181036000830152613fdf81613fa3565b9050919050565b6000604082019050613ffb6000830185613c33565b6140086020830184612d77565b939250505056fea2646970667358221220b45b00db69bed24103bf61e074c2bf2b06a79609c2e7ccfc44467b1066d5ed3564736f6c63430008120033","opcodes":"PUSH1 0x80 PUSH1 0x40 MSTORE PUSH1 0x0 PUSH1 0x1 SSTORE PUSH1 0x0 PUSH1 0x2 SSTORE PUSH1 0x0 PUSH1 0x3 SSTORE CALLVALUE DUP1 ISZERO PUSH3 0x20 JUMPI PUSH1 0x0 DUP1 REVERT JUMPDEST POP CALLER PUSH1 0x0 DUP1 PUSH2 0x100 EXP DUP2 SLOAD DUP2 PUSH20 0xFFFFFFFFFFFFFFFFFFFFFFFFFFFFFFFFFFFFFFFF MUL NOT AND SWAP1 DUP4 PUSH20 0xFFFFFFFFFFFFFFFFFFFFFFFFFFFFFFFFFFFFFFFF AND MUL OR SWAP1 SSTORE POP PUSH3 0x136 PUSH1 0x40 MLOAD DUP1 PUSH1 0x40 ADD PUSH1 0x40 MSTORE DUP1 PUSH1 0x5 DUP2 MSTORE PUSH1 0x20 ADD PUSH32 0x6F776E6572000000000000000000000000000000000000000000000000000000 DUP2 MSTORE POP PUSH1 0x40 MLOAD DUP1 PUSH1 0x40 ADD PUSH1 0x40 MSTORE DUP1 PUSH1 0x5 DUP2 MSTORE PUSH1 0x20 ADD PUSH32 0x6F776E6572000000000000000000000000000000000000000000000000000000 DUP2 MSTORE POP PUSH1 0x40 MLOAD DUP1 PUSH1 0x20 ADD PUSH1 0x40 MSTORE DUP1 PUSH1 0x0 DUP2 MSTORE POP PUSH1 0x40 MLOAD DUP1 PUSH1 0x20 ADD PUSH1 0x40 MSTORE DUP1 PUSH1 0x0 DUP2 MSTORE POP PUSH1 0x40 MLOAD DUP1 PUSH1 0x40 ADD PUSH1 0x40 MSTORE DUP1 PUSH1 0x5 DUP2 MSTORE PUSH1 0x20 ADD PUSH32 0x6F776E6572000000000000000000000000000000000000000000000000000000 DUP2 MSTORE POP PUSH1 0x1 DUP1 PUSH3 0x13C PUSH1 0x20 SHL PUSH1 0x20 SHR JUMP JUMPDEST PUSH3 0xB41 JUMP JUMPDEST CALLER PUSH1 0x0 PUSH1 0x3 DUP2 GT ISZERO PUSH3 0x154 JUMPI PUSH3 0x153 PUSH3 0x548 JUMP JUMPDEST JUMPDEST PUSH1 0x5 PUSH1 0x0 DUP4 PUSH20 0xFFFFFFFFFFFFFFFFFFFFFFFFFFFFFFFFFFFFFFFF AND PUSH20 0xFFFFFFFFFFFFFFFFFFFFFFFFFFFFFFFFFFFFFFFF AND DUP2 MSTORE PUSH1 0x20 ADD SWAP1 DUP2 MSTORE PUSH1 0x20 ADD PUSH1 0x0 KECCAK256 PUSH1 0x9 ADD PUSH1 0x0 SWAP1 SLOAD SWAP1 PUSH2 0x100 EXP SWAP1 DIV PUSH1 0xFF AND PUSH1 0x3 DUP2 GT ISZERO PUSH3 0x1B9 JUMPI PUSH3 0x1B8 PUSH3 0x548 JUMP JUMPDEST JUMPDEST EQ PUSH3 0x1FC JUMPI PUSH1 0x40 MLOAD PUSH32 0x8C379A000000000000000000000000000000000000000000000000000000000 DUP2 MSTORE PUSH1 0x4 ADD PUSH3 0x1F3 SWAP1 PUSH3 0x5D8 JUMP JUMPDEST PUSH1 0x40 MLOAD DUP1 SWAP2 SUB SWAP1 REVERT JUMPDEST DUP8 PUSH1 0x7 DUP2 PUSH1 0x40 MLOAD PUSH3 0x20F SWAP2 SWAP1 PUSH3 0x673 JUMP JUMPDEST SWAP1 DUP2 MSTORE PUSH1 0x20 ADD PUSH1 0x40 MLOAD DUP1 SWAP2 SUB SWAP1 KECCAK256 PUSH1 0x0 SWAP1 SLOAD SWAP1 PUSH2 0x100 EXP SWAP1 DIV PUSH1 0xFF AND ISZERO PUSH3 0x26E JUMPI PUSH1 0x40 MLOAD PUSH32 0x8C379A000000000000000000000000000000000000000000000000000000000 DUP2 MSTORE PUSH1 0x4 ADD PUSH3 0x265 SWAP1 PUSH3 0x6DC JUMP JUMPDEST PUSH1 0x40 MLOAD DUP1 SWAP2 SUB SWAP1 REVERT JUMPDEST PUSH1 0x1 PUSH1 0x7 DUP11 PUSH1 0x40 MLOAD PUSH3 0x282 SWAP2 SWAP1 PUSH3 0x673 JUMP JUMPDEST SWAP1 DUP2 MSTORE PUSH1 0x20 ADD PUSH1 0x40 MLOAD DUP1 SWAP2 SUB SWAP1 KECCAK256 PUSH1 0x0 PUSH2 0x100 EXP DUP2 SLOAD DUP2 PUSH1 0xFF MUL NOT AND SWAP1 DUP4 ISZERO ISZERO MUL OR SWAP1 SSTORE POP PUSH1 0x1 DUP1 SLOAD PUSH3 0x2B7 SWAP2 SWAP1 PUSH3 0x737 JUMP JUMPDEST PUSH1 0x1 DUP2 SWAP1 SSTORE POP PUSH1 0x0 PUSH1 0x1 SLOAD SWAP1 POP PUSH1 0x40 MLOAD DUP1 PUSH2 0x140 ADD PUSH1 0x40 MSTORE DUP1 DUP3 DUP2 MSTORE PUSH1 0x20 ADD CALLER PUSH20 0xFFFFFFFFFFFFFFFFFFFFFFFFFFFFFFFFFFFFFFFF AND DUP2 MSTORE PUSH1 0x20 ADD DUP12 DUP2 MSTORE PUSH1 0x20 ADD DUP11 DUP2 MSTORE PUSH1 0x20 ADD DUP8 DUP2 MSTORE PUSH1 0x20 ADD DUP7 DUP2 MSTORE PUSH1 0x20 ADD DUP6 ISZERO ISZERO DUP2 MSTORE PUSH1 0x20 ADD DUP10 DUP2 MSTORE PUSH1 0x20 ADD DUP9 DUP2 MSTORE PUSH1 0x20 ADD PUSH1 0x1 PUSH1 0x3 DUP2 GT ISZERO PUSH3 0x335 JUMPI PUSH3 0x334 PUSH3 0x548 JUMP JUMPDEST JUMPDEST DUP2 MSTORE POP PUSH1 0x5 PUSH1 0x0 CALLER PUSH20 0xFFFFFFFFFFFFFFFFFFFFFFFFFFFFFFFFFFFFFFFF AND PUSH20 0xFFFFFFFFFFFFFFFFFFFFFFFFFFFFFFFFFFFFFFFF AND DUP2 MSTORE PUSH1 0x20 ADD SWAP1 DUP2 MSTORE PUSH1 0x20 ADD PUSH1 0x0 KECCAK256 PUSH1 0x0 DUP3 ADD MLOAD DUP2 PUSH1 0x0 ADD SSTORE PUSH1 0x20 DUP3 ADD MLOAD DUP2 PUSH1 0x1 ADD PUSH1 0x0 PUSH2 0x100 EXP DUP2 SLOAD DUP2 PUSH20 0xFFFFFFFFFFFFFFFFFFFFFFFFFFFFFFFFFFFFFFFF MUL NOT AND SWAP1 DUP4 PUSH20 0xFFFFFFFFFFFFFFFFFFFFFFFFFFFFFFFFFFFFFFFF AND MUL OR SWAP1 SSTORE POP PUSH1 0x40 DUP3 ADD MLOAD DUP2 PUSH1 0x2 ADD SWAP1 DUP2 PUSH3 0x3DF SWAP2 SWAP1 PUSH3 0x9D7 JUMP JUMPDEST POP PUSH1 0x60 DUP3 ADD MLOAD DUP2 PUSH1 0x3 ADD SWAP1 DUP2 PUSH3 0x3F7 SWAP2 SWAP1 PUSH3 0x9D7 JUMP JUMPDEST POP PUSH1 0x80 DUP3 ADD MLOAD DUP2 PUSH1 0x4 ADD SWAP1 DUP2 PUSH3 0x40F SWAP2 SWAP1 PUSH3 0x9D7 JUMP JUMPDEST POP PUSH1 0xA0 DUP3 ADD MLOAD DUP2 PUSH1 0x5 ADD SSTORE PUSH1 0xC0 DUP3 ADD MLOAD DUP2 PUSH1 0x6 ADD PUSH1 0x0 PUSH2 0x100 EXP DUP2 SLOAD DUP2 PUSH1 0xFF MUL NOT AND SWAP1 DUP4 ISZERO ISZERO MUL OR SWAP1 SSTORE POP PUSH1 0xE0 DUP3 ADD MLOAD DUP2 PUSH1 0x7 ADD SWAP1 DUP2 PUSH3 0x451 SWAP2 SWAP1 PUSH3 0x9D7 JUMP JUMPDEST POP PUSH2 0x100 DUP3 ADD MLOAD DUP2 PUSH1 0x8 ADD SWAP1 DUP2 PUSH3 0x46A SWAP2 SWAP1 PUSH3 0x9D7 JUMP JUMPDEST POP PUSH2 0x120 DUP3 ADD MLOAD DUP2 PUSH1 0x9 ADD PUSH1 0x0 PUSH2 0x100 EXP DUP2 SLOAD DUP2 PUSH1 0xFF MUL NOT AND SWAP1 DUP4 PUSH1 0x3 DUP2 GT ISZERO PUSH3 0x49A JUMPI PUSH3 0x499 PUSH3 0x548 JUMP JUMPDEST JUMPDEST MUL OR SWAP1 SSTORE POP SWAP1 POP POP CALLER PUSH1 0x6 DUP12 PUSH1 0x40 MLOAD PUSH3 0x4B5 SWAP2 SWAP1 PUSH3 0x673 JUMP JUMPDEST SWAP1 DUP2 MSTORE PUSH1 0x20 ADD PUSH1 0x40 MLOAD DUP1 SWAP2 SUB SWAP1 KECCAK256 PUSH1 0x0 PUSH2 0x100 EXP DUP2 SLOAD DUP2 PUSH20 0xFFFFFFFFFFFFFFFFFFFFFFFFFFFFFFFFFFFFFFFF MUL NOT AND SWAP1 DUP4 PUSH20 0xFFFFFFFFFFFFFFFFFFFFFFFFFFFFFFFFFFFFFFFF AND MUL OR SWAP1 SSTORE POP PUSH32 0xABC58C36475157C4AC7669F9ADFBB6F254D3A3578FB89676F6866AC3B9950EED CALLER DUP3 PUSH1 0x40 MLOAD PUSH3 0x534 SWAP3 SWAP2 SWAP1 PUSH3 0xB14 JUMP JUMPDEST PUSH1 0x40 MLOAD DUP1 SWAP2 SUB SWAP1 LOG1 POP POP POP POP POP POP POP POP POP POP JUMP JUMPDEST PUSH32 0x4E487B7100000000000000000000000000000000000000000000000000000000 PUSH1 0x0 MSTORE PUSH1 0x21 PUSH1 0x4 MSTORE PUSH1 0x24 PUSH1 0x0 REVERT JUMPDEST PUSH1 0x0 DUP3 DUP3 MSTORE PUSH1 0x20 DUP3 ADD SWAP1 POP SWAP3 SWAP2 POP POP JUMP JUMPDEST PUSH32 0x5573657220616C72656164792072656769737465726564000000000000000000 PUSH1 0x0 DUP3 ADD MSTORE POP JUMP JUMPDEST PUSH1 0x0 PUSH3 0x5C0 PUSH1 0x17 DUP4 PUSH3 0x577 JUMP JUMPDEST SWAP2 POP PUSH3 0x5CD DUP3 PUSH3 0x588 JUMP JUMPDEST PUSH1 0x20 DUP3 ADD SWAP1 POP SWAP2 SWAP1 POP JUMP JUMPDEST PUSH1 0x0 PUSH1 0x20 DUP3 ADD SWAP1 POP DUP2 DUP2 SUB PUSH1 0x0 DUP4 ADD MSTORE PUSH3 0x5F3 DUP2 PUSH3 0x5B1 JUMP JUMPDEST SWAP1 POP SWAP2 SWAP1 POP JUMP JUMPDEST PUSH1 0x0 DUP2 MLOAD SWAP1 POP SWAP2 SWAP1 POP JUMP JUMPDEST PUSH1 0x0 DUP2 SWAP1 POP SWAP3 SWAP2 POP POP JUMP JUMPDEST PUSH1 0x0 JUMPDEST DUP4 DUP2 LT ISZERO PUSH3 0x630 JUMPI DUP1 DUP3 ADD MLOAD DUP2 DUP5 ADD MSTORE PUSH1 0x20 DUP2 ADD SWAP1 POP PUSH3 0x613 JUMP JUMPDEST PUSH1 0x0 DUP5 DUP5 ADD MSTORE POP POP POP POP JUMP JUMPDEST PUSH1 0x0 PUSH3 0x649 DUP3 PUSH3 0x5FA JUMP JUMPDEST PUSH3 0x655 DUP2 DUP6 PUSH3 0x605 JUMP JUMPDEST SWAP4 POP PUSH3 0x667 DUP2 DUP6 PUSH1 0x20 DUP7 ADD PUSH3 0x610 JUMP JUMPDEST DUP1 DUP5 ADD SWAP2 POP POP SWAP3 SWAP2 POP POP JUMP JUMPDEST PUSH1 0x0 PUSH3 0x681 DUP3 DUP5 PUSH3 0x63C JUMP JUMPDEST SWAP2 POP DUP2 SWAP1 POP SWAP3 SWAP2 POP POP JUMP JUMPDEST PUSH32 0x557365726E616D6520616C72656164792074616B656E00000000000000000000 PUSH1 0x0 DUP3 ADD MSTORE POP JUMP JUMPDEST PUSH1 0x0 PUSH3 0x6C4 PUSH1 0x16 DUP4 PUSH3 0x577 JUMP JUMPDEST SWAP2 POP PUSH3 0x6D1 DUP3 PUSH3 0x68C JUMP JUMPDEST PUSH1 0x20 DUP3 ADD SWAP1 POP SWAP2 SWAP1 POP JUMP JUMPDEST PUSH1 0x0 PUSH1 0x20 DUP3 ADD SWAP1 POP DUP2 DUP2 SUB PUSH1 0x0 DUP4 ADD MSTORE PUSH3 0x6F7 DUP2 PUSH3 0x6B5 JUMP JUMPDEST SWAP1 POP SWAP2 SWAP1 POP JUMP JUMPDEST PUSH1 0x0 DUP2 SWAP1 POP SWAP2 SWAP1 POP JUMP JUMPDEST PUSH32 0x4E487B7100000000000000000000000000000000000000000000000000000000 PUSH1 0x0 MSTORE PUSH1 0x11 PUSH1 0x4 MSTORE PUSH1 0x24 PUSH1 0x0 REVERT JUMPDEST PUSH1 0x0 PUSH3 0x744 DUP3 PUSH3 0x6FE JUMP JUMPDEST SWAP2 POP PUSH3 0x751 DUP4 PUSH3 0x6FE JUMP JUMPDEST SWAP3 POP DUP3 DUP3 ADD SWAP1 POP DUP1 DUP3 GT ISZERO PUSH3 0x76C JUMPI PUSH3 0x76B PUSH3 0x708 JUMP JUMPDEST JUMPDEST SWAP3 SWAP2 POP POP JUMP JUMPDEST PUSH32 0x4E487B7100000000000000000000000000000000000000000000000000000000 PUSH1 0x0 MSTORE PUSH1 0x41 PUSH1 0x4 MSTORE PUSH1 0x24 PUSH1 0x0 REVERT JUMPDEST PUSH32 0x4E487B7100000000000000000000000000000000000000000000000000000000 PUSH1 0x0 MSTORE PUSH1 0x22 PUSH1 0x4 MSTORE PUSH1 0x24 PUSH1 0x0 REVERT JUMPDEST PUSH1 0x0 PUSH1 0x2 DUP3 DIV SWAP1 POP PUSH1 0x1 DUP3 AND DUP1 PUSH3 0x7E9 JUMPI PUSH1 0x7F DUP3 AND SWAP2 POP JUMPDEST PUSH1 0x20 DUP3 LT DUP2 SUB PUSH3 0x7FF JUMPI PUSH3 0x7FE PUSH3 0x7A1 JUMP JUMPDEST JUMPDEST POP SWAP2 SWAP1 POP JUMP JUMPDEST PUSH1 0x0 DUP2 SWAP1 POP DUP2 PUSH1 0x0 MSTORE PUSH1 0x20 PUSH1 0x0 KECCAK256 SWAP1 POP SWAP2 SWAP1 POP JUMP JUMPDEST PUSH1 0x0 PUSH1 0x20 PUSH1 0x1F DUP4 ADD DIV SWAP1 POP SWAP2 SWAP1 POP JUMP JUMPDEST PUSH1 0x0 DUP3 DUP3 SHL SWAP1 POP SWAP3 SWAP2 POP POP JUMP JUMPDEST PUSH1 0x0 PUSH1 0x8 DUP4 MUL PUSH3 0x869 PUSH32 0xFFFFFFFFFFFFFFFFFFFFFFFFFFFFFFFFFFFFFFFFFFFFFFFFFFFFFFFFFFFFFFFF DUP3 PUSH3 0x82A JUMP JUMPDEST PUSH3 0x875 DUP7 DUP4 PUSH3 0x82A JUMP JUMPDEST SWAP6 POP DUP1 NOT DUP5 AND SWAP4 POP DUP1 DUP7 AND DUP5 OR SWAP3 POP POP POP SWAP4 SWAP3 POP POP POP JUMP JUMPDEST PUSH1 0x0 DUP2 SWAP1 POP SWAP2 SWAP1 POP JUMP JUMPDEST PUSH1 0x0 PUSH3 0x8B8 PUSH3 0x8B2 PUSH3 0x8AC DUP5 PUSH3 0x6FE JUMP JUMPDEST PUSH3 0x88D JUMP JUMPDEST PUSH3 0x6FE JUMP JUMPDEST SWAP1 POP SWAP2 SWAP1 POP JUMP JUMPDEST PUSH1 0x0 DUP2 SWAP1 POP SWAP2 SWAP1 POP JUMP JUMPDEST PUSH3 0x8D4 DUP4 PUSH3 0x897 JUMP JUMPDEST PUSH3 0x8EC PUSH3 0x8E3 DUP3 PUSH3 0x8BF JUMP JUMPDEST DUP5 DUP5 SLOAD PUSH3 0x837 JUMP JUMPDEST DUP3 SSTORE POP POP POP POP JUMP JUMPDEST PUSH1 0x0 SWAP1 JUMP JUMPDEST PUSH3 0x903 PUSH3 0x8F4 JUMP JUMPDEST PUSH3 0x910 DUP2 DUP5 DUP5 PUSH3 0x8C9 JUMP JUMPDEST POP POP POP JUMP JUMPDEST JUMPDEST DUP2 DUP2 LT ISZERO PUSH3 0x938 JUMPI PUSH3 0x92C PUSH1 0x0 DUP3 PUSH3 0x8F9 JUMP JUMPDEST PUSH1 0x1 DUP2 ADD SWAP1 POP PUSH3 0x916 JUMP JUMPDEST POP POP JUMP JUMPDEST PUSH1 0x1F DUP3 GT ISZERO PUSH3 0x987 JUMPI PUSH3 0x951 DUP2 PUSH3 0x805 JUMP JUMPDEST PUSH3 0x95C DUP5 PUSH3 0x81A JUMP JUMPDEST DUP2 ADD PUSH1 0x20 DUP6 LT ISZERO PUSH3 0x96C JUMPI DUP2 SWAP1 POP JUMPDEST PUSH3 0x984 PUSH3 0x97B DUP6 PUSH3 0x81A JUMP JUMPDEST DUP4 ADD DUP3 PUSH3 0x915 JUMP JUMPDEST POP POP JUMPDEST POP POP POP JUMP JUMPDEST PUSH1 0x0 DUP3 DUP3 SHR SWAP1 POP SWAP3 SWAP2 POP POP JUMP JUMPDEST PUSH1 0x0 PUSH3 0x9AC PUSH1 0x0 NOT DUP5 PUSH1 0x8 MUL PUSH3 0x98C JUMP JUMPDEST NOT DUP1 DUP4 AND SWAP2 POP POP SWAP3 SWAP2 POP POP JUMP JUMPDEST PUSH1 0x0 PUSH3 0x9C7 DUP4 DUP4 PUSH3 0x999 JUMP JUMPDEST SWAP2 POP DUP3 PUSH1 0x2 MUL DUP3 OR SWAP1 POP SWAP3 SWAP2 POP POP JUMP JUMPDEST PUSH3 0x9E2 DUP3 PUSH3 0x5FA JUMP JUMPDEST PUSH8 0xFFFFFFFFFFFFFFFF DUP2 GT ISZERO PUSH3 0x9FE JUMPI PUSH3 0x9FD PUSH3 0x772 JUMP JUMPDEST JUMPDEST PUSH3 0xA0A DUP3 SLOAD PUSH3 0x7D0 JUMP JUMPDEST PUSH3 0xA17 DUP3 DUP3 DUP6 PUSH3 0x93C JUMP JUMPDEST PUSH1 0x0 PUSH1 0x20 SWAP1 POP PUSH1 0x1F DUP4 GT PUSH1 0x1 DUP2 EQ PUSH3 0xA4F JUMPI PUSH1 0x0 DUP5 ISZERO PUSH3 0xA3A JUMPI DUP3 DUP8 ADD MLOAD SWAP1 POP JUMPDEST PUSH3 0xA46 DUP6 DUP3 PUSH3 0x9B9 JUMP JUMPDEST DUP7 SSTORE POP PUSH3 0xAB6 JUMP JUMPDEST PUSH1 0x1F NOT DUP5 AND PUSH3 0xA5F DUP7 PUSH3 0x805 JUMP JUMPDEST PUSH1 0x0 JUMPDEST DUP3 DUP2 LT ISZERO PUSH3 0xA89 JUMPI DUP5 DUP10 ADD MLOAD DUP3 SSTORE PUSH1 0x1 DUP3 ADD SWAP2 POP PUSH1 0x20 DUP6 ADD SWAP5 POP PUSH1 0x20 DUP2 ADD SWAP1 POP PUSH3 0xA62 JUMP JUMPDEST DUP7 DUP4 LT ISZERO PUSH3 0xAA9 JUMPI DUP5 DUP10 ADD MLOAD PUSH3 0xAA5 PUSH1 0x1F DUP10 AND DUP3 PUSH3 0x999 JUMP JUMPDEST DUP4 SSTORE POP JUMPDEST PUSH1 0x1 PUSH1 0x2 DUP9 MUL ADD DUP9 SSTORE POP POP POP JUMPDEST POP POP POP POP POP POP JUMP JUMPDEST PUSH1 0x0 PUSH20 0xFFFFFFFFFFFFFFFFFFFFFFFFFFFFFFFFFFFFFFFF DUP3 AND SWAP1 POP SWAP2 SWAP1 POP JUMP JUMPDEST PUSH1 0x0 PUSH3 0xAEB DUP3 PUSH3 0xABE JUMP JUMPDEST SWAP1 POP SWAP2 SWAP1 POP JUMP JUMPDEST PUSH3 0xAFD DUP2 PUSH3 0xADE JUMP JUMPDEST DUP3 MSTORE POP POP JUMP JUMPDEST PUSH3 0xB0E DUP2 PUSH3 0x6FE JUMP JUMPDEST DUP3 MSTORE POP POP JUMP JUMPDEST PUSH1 0x0 PUSH1 0x40 DUP3 ADD SWAP1 POP PUSH3 0xB2B PUSH1 0x0 DUP4 ADD DUP6 PUSH3 0xAF2 JUMP JUMPDEST PUSH3 0xB3A PUSH1 0x20 DUP4 ADD DUP5 PUSH3 0xB03 JUMP JUMPDEST SWAP4 SWAP3 POP POP POP JUMP JUMPDEST PUSH2 0x4045 DUP1 PUSH3 0xB51 PUSH1 0x0 CODECOPY PUSH1 0x0 RETURN INVALID PUSH1 0x80 PUSH1 0x40 MSTORE CALLVALUE DUP1 ISZERO PUSH2 0x10 JUMPI PUSH1 0x0 DUP1 REVERT JUMPDEST POP PUSH1 0x4 CALLDATASIZE LT PUSH2 0x10B JUMPI PUSH1 0x0 CALLDATALOAD PUSH1 0xE0 SHR DUP1 PUSH4 0x725009D3 GT PUSH2 0xA2 JUMPI DUP1 PUSH4 0xB90C2073 GT PUSH2 0x71 JUMPI DUP1 PUSH4 0xB90C2073 EQ PUSH2 0x2D1 JUMPI DUP1 PUSH4 0xBEBCE300 EQ PUSH2 0x301 JUMPI DUP1 PUSH4 0xBFF1F9E1 EQ PUSH2 0x331 JUMPI DUP1 PUSH4 0xCC4EF2CC EQ PUSH2 0x34F JUMPI DUP1 PUSH4 0xF82217C1 EQ PUSH2 0x36D JUMPI PUSH2 0x10B JUMP JUMPDEST DUP1 PUSH4 0x725009D3 EQ PUSH2 0x249 JUMPI DUP1 PUSH4 0x875003AA EQ PUSH2 0x265 JUMPI DUP1 PUSH4 0x8DA5CB5B EQ PUSH2 0x295 JUMPI DUP1 PUSH4 0x8E53FB41 EQ PUSH2 0x2B3 JUMPI PUSH2 0x10B JUMP JUMPDEST DUP1 PUSH4 0x61936B81 GT PUSH2 0xDE JUMPI DUP1 PUSH4 0x61936B81 EQ PUSH2 0x194 JUMPI DUP1 PUSH4 0x64E95895 EQ PUSH2 0x1B2 JUMPI DUP1 PUSH4 0x6C43DBB4 EQ PUSH2 0x1E2 JUMPI DUP1 PUSH4 0x6F77926B EQ PUSH2 0x212 JUMPI PUSH2 0x10B JUMP JUMPDEST DUP1 PUSH4 0x2F4992EF EQ PUSH2 0x110 JUMPI DUP1 PUSH4 0x392338F5 EQ PUSH2 0x12C JUMPI DUP1 PUSH4 0x40A17985 EQ PUSH2 0x148 JUMPI DUP1 PUSH4 0x49E03502 EQ PUSH2 0x164 JUMPI JUMPDEST PUSH1 0x0 DUP1 REVERT JUMPDEST PUSH2 0x12A PUSH1 0x4 DUP1 CALLDATASIZE SUB DUP2 ADD SWAP1 PUSH2 0x125 SWAP2 SWAP1 PUSH2 0x2A10 JUMP JUMPDEST PUSH2 0x389 JUMP JUMPDEST STOP JUMPDEST PUSH2 0x146 PUSH1 0x4 DUP1 CALLDATASIZE SUB DUP2 ADD SWAP1 PUSH2 0x141 SWAP2 SWAP1 PUSH2 0x2B83 JUMP JUMPDEST PUSH2 0x5DD JUMP JUMPDEST STOP JUMPDEST PUSH2 0x162 PUSH1 0x4 DUP1 CALLDATASIZE SUB DUP2 ADD SWAP1 PUSH2 0x15D SWAP2 SWAP1 PUSH2 0x2BFB JUMP JUMPDEST PUSH2 0x908 JUMP JUMPDEST STOP JUMPDEST PUSH2 0x17E PUSH1 0x4 DUP1 CALLDATASIZE SUB DUP2 ADD SWAP1 PUSH2 0x179 SWAP2 SWAP1 PUSH2 0x2C57 JUMP JUMPDEST PUSH2 0xC6F JUMP JUMPDEST PUSH1 0x40 MLOAD PUSH2 0x18B SWAP2 SWAP1 PUSH2 0x2D55 JUMP JUMPDEST PUSH1 0x40 MLOAD DUP1 SWAP2 SUB SWAP1 RETURN JUMPDEST PUSH2 0x19C PUSH2 0xE3A JUMP JUMPDEST PUSH1 0x40 MLOAD PUSH2 0x1A9 SWAP2 SWAP1 PUSH2 0x2D86 JUMP JUMPDEST PUSH1 0x40 MLOAD DUP1 SWAP2 SUB SWAP1 RETURN JUMPDEST PUSH2 0x1CC PUSH1 0x4 DUP1 CALLDATASIZE SUB DUP2 ADD SWAP1 PUSH2 0x1C7 SWAP2 SWAP1 PUSH2 0x2A10 JUMP JUMPDEST PUSH2 0xE40 JUMP JUMPDEST PUSH1 0x40 MLOAD PUSH2 0x1D9 SWAP2 SWAP1 PUSH2 0x2F8F JUMP JUMPDEST PUSH1 0x40 MLOAD DUP1 SWAP2 SUB SWAP1 RETURN JUMPDEST PUSH2 0x1FC PUSH1 0x4 DUP1 CALLDATASIZE SUB DUP2 ADD SWAP1 PUSH2 0x1F7 SWAP2 SWAP1 PUSH2 0x2A10 JUMP JUMPDEST PUSH2 0x118F JUMP JUMPDEST PUSH1 0x40 MLOAD PUSH2 0x209 SWAP2 SWAP1 PUSH2 0x30A9 JUMP JUMPDEST PUSH1 0x40 MLOAD DUP1 SWAP2 SUB SWAP1 RETURN JUMPDEST PUSH2 0x22C PUSH1 0x4 DUP1 CALLDATASIZE SUB DUP2 ADD SWAP1 PUSH2 0x227 SWAP2 SWAP1 PUSH2 0x30F7 JUMP JUMPDEST PUSH2 0x1456 JUMP JUMPDEST PUSH1 0x40 MLOAD PUSH2 0x240 SWAP9 SWAP8 SWAP7 SWAP6 SWAP5 SWAP4 SWAP3 SWAP2 SWAP1 PUSH2 0x3189 JUMP JUMPDEST PUSH1 0x40 MLOAD DUP1 SWAP2 SUB SWAP1 RETURN JUMPDEST PUSH2 0x263 PUSH1 0x4 DUP1 CALLDATASIZE SUB DUP2 ADD SWAP1 PUSH2 0x25E SWAP2 SWAP1 PUSH2 0x2A10 JUMP JUMPDEST PUSH2 0x1891 JUMP JUMPDEST STOP JUMPDEST PUSH2 0x27F PUSH1 0x4 DUP1 CALLDATASIZE SUB DUP2 ADD SWAP1 PUSH2 0x27A SWAP2 SWAP1 PUSH2 0x322A JUMP JUMPDEST PUSH2 0x1AE6 JUMP JUMPDEST PUSH1 0x40 MLOAD PUSH2 0x28C SWAP2 SWAP1 PUSH2 0x326A JUMP JUMPDEST PUSH1 0x40 MLOAD DUP1 SWAP2 SUB SWAP1 RETURN JUMPDEST PUSH2 0x29D PUSH2 0x1C92 JUMP JUMPDEST PUSH1 0x40 MLOAD PUSH2 0x2AA SWAP2 SWAP1 PUSH2 0x32A6 JUMP JUMPDEST PUSH1 0x40 MLOAD DUP1 SWAP2 SUB SWAP1 RETURN JUMPDEST PUSH2 0x2BB PUSH2 0x1CB6 JUMP JUMPDEST PUSH1 0x40 MLOAD PUSH2 0x2C8 SWAP2 SWAP1 PUSH2 0x2D86 JUMP JUMPDEST PUSH1 0x40 MLOAD DUP1 SWAP2 SUB SWAP1 RETURN JUMPDEST PUSH2 0x2EB PUSH1 0x4 DUP1 CALLDATASIZE SUB DUP2 ADD SWAP1 PUSH2 0x2E6 SWAP2 SWAP1 PUSH2 0x32C1 JUMP JUMPDEST PUSH2 0x1CBC JUMP JUMPDEST PUSH1 0x40 MLOAD PUSH2 0x2F8 SWAP2 SWAP1 PUSH2 0x326A JUMP JUMPDEST PUSH1 0x40 MLOAD DUP1 SWAP2 SUB SWAP1 RETURN JUMPDEST PUSH2 0x31B PUSH1 0x4 DUP1 CALLDATASIZE SUB DUP2 ADD SWAP1 PUSH2 0x316 SWAP2 SWAP1 PUSH2 0x330A JUMP JUMPDEST PUSH2 0x1CF2 JUMP JUMPDEST PUSH1 0x40 MLOAD PUSH2 0x328 SWAP2 SWAP1 PUSH2 0x34CF JUMP JUMPDEST PUSH1 0x40 MLOAD DUP1 SWAP2 SUB SWAP1 RETURN JUMPDEST PUSH2 0x339 PUSH2 0x20FF JUMP JUMPDEST PUSH1 0x40 MLOAD PUSH2 0x346 SWAP2 SWAP1 PUSH2 0x2D86 JUMP JUMPDEST PUSH1 0x40 MLOAD DUP1 SWAP2 SUB SWAP1 RETURN JUMPDEST PUSH2 0x357 PUSH2 0x2105 JUMP JUMPDEST PUSH1 0x40 MLOAD PUSH2 0x364 SWAP2 SWAP1 PUSH2 0x366A JUMP JUMPDEST PUSH1 0x40 MLOAD DUP1 SWAP2 SUB SWAP1 RETURN JUMPDEST PUSH2 0x387 PUSH1 0x4 DUP1 CALLDATASIZE SUB DUP2 ADD SWAP1 PUSH2 0x382 SWAP2 SWAP1 PUSH2 0x36B8 JUMP JUMPDEST PUSH2 0x2506 JUMP JUMPDEST STOP JUMPDEST CALLER PUSH1 0x1 PUSH1 0x3 DUP2 GT ISZERO PUSH2 0x39E JUMPI PUSH2 0x39D PUSH2 0x2E61 JUMP JUMPDEST JUMPDEST PUSH1 0x5 PUSH1 0x0 DUP4 PUSH20 0xFFFFFFFFFFFFFFFFFFFFFFFFFFFFFFFFFFFFFFFF AND PUSH20 0xFFFFFFFFFFFFFFFFFFFFFFFFFFFFFFFFFFFFFFFF AND DUP2 MSTORE PUSH1 0x20 ADD SWAP1 DUP2 MSTORE PUSH1 0x20 ADD PUSH1 0x0 KECCAK256 PUSH1 0x9 ADD PUSH1 0x0 SWAP1 SLOAD SWAP1 PUSH2 0x100 EXP SWAP1 DIV PUSH1 0xFF AND PUSH1 0x3 DUP2 GT ISZERO PUSH2 0x400 JUMPI PUSH2 0x3FF PUSH2 0x2E61 JUMP JUMPDEST JUMPDEST EQ PUSH2 0x440 JUMPI PUSH1 0x40 MLOAD PUSH32 0x8C379A000000000000000000000000000000000000000000000000000000000 DUP2 MSTORE PUSH1 0x4 ADD PUSH2 0x437 SWAP1 PUSH2 0x3832 JUMP JUMPDEST PUSH1 0x40 MLOAD DUP1 SWAP2 SUB SWAP1 REVERT JUMPDEST DUP2 PUSH1 0x1 PUSH1 0x3 DUP2 GT ISZERO PUSH2 0x455 JUMPI PUSH2 0x454 PUSH2 0x2E61 JUMP JUMPDEST JUMPDEST PUSH1 0x8 PUSH1 0x0 DUP4 DUP2 MSTORE PUSH1 0x20 ADD SWAP1 DUP2 MSTORE PUSH1 0x20 ADD PUSH1 0x0 KECCAK256 PUSH1 0x7 ADD PUSH1 0x0 SWAP1 SLOAD SWAP1 PUSH2 0x100 EXP SWAP1 DIV PUSH1 0xFF AND PUSH1 0x3 DUP2 GT ISZERO PUSH2 0x48B JUMPI PUSH2 0x48A PUSH2 0x2E61 JUMP JUMPDEST JUMPDEST EQ PUSH2 0x4CB JUMPI PUSH1 0x40 MLOAD PUSH32 0x8C379A000000000000000000000000000000000000000000000000000000000 DUP2 MSTORE PUSH1 0x4 ADD PUSH2 0x4C2 SWAP1 PUSH2 0x389E JUMP JUMPDEST PUSH1 0x40 MLOAD DUP1 SWAP2 SUB SWAP1 REVERT JUMPDEST PUSH1 0xA PUSH1 0x0 DUP5 DUP2 MSTORE PUSH1 0x20 ADD SWAP1 DUP2 MSTORE PUSH1 0x20 ADD PUSH1 0x0 KECCAK256 PUSH1 0x0 CALLER PUSH20 0xFFFFFFFFFFFFFFFFFFFFFFFFFFFFFFFFFFFFFFFF AND PUSH20 0xFFFFFFFFFFFFFFFFFFFFFFFFFFFFFFFFFFFFFFFF AND DUP2 MSTORE PUSH1 0x20 ADD SWAP1 DUP2 MSTORE PUSH1 0x20 ADD PUSH1 0x0 KECCAK256 PUSH1 0x0 SWAP1 SLOAD SWAP1 PUSH2 0x100 EXP SWAP1 DIV PUSH1 0xFF AND PUSH2 0x532 JUMPI PUSH1 0x0 DUP1 REVERT JUMPDEST PUSH1 0x1 PUSH1 0x8 PUSH1 0x0 DUP6 DUP2 MSTORE PUSH1 0x20 ADD SWAP1 DUP2 MSTORE PUSH1 0x20 ADD PUSH1 0x0 KECCAK256 PUSH1 0x5 ADD SLOAD PUSH2 0x555 SWAP2 SWAP1 PUSH2 0x38ED JUMP JUMPDEST PUSH1 0x8 PUSH1 0x0 DUP6 DUP2 MSTORE PUSH1 0x20 ADD SWAP1 DUP2 MSTORE PUSH1 0x20 ADD PUSH1 0x0 KECCAK256 PUSH1 0x5 ADD DUP2 SWAP1 SSTORE POP PUSH1 0x0 PUSH1 0xA PUSH1 0x0 DUP6 DUP2 MSTORE PUSH1 0x20 ADD SWAP1 DUP2 MSTORE PUSH1 0x20 ADD PUSH1 0x0 KECCAK256 PUSH1 0x0 CALLER PUSH20 0xFFFFFFFFFFFFFFFFFFFFFFFFFFFFFFFFFFFFFFFF AND PUSH20 0xFFFFFFFFFFFFFFFFFFFFFFFFFFFFFFFFFFFFFFFF AND DUP2 MSTORE PUSH1 0x20 ADD SWAP1 DUP2 MSTORE PUSH1 0x20 ADD PUSH1 0x0 KECCAK256 PUSH1 0x0 PUSH2 0x100 EXP DUP2 SLOAD DUP2 PUSH1 0xFF MUL NOT AND SWAP1 DUP4 ISZERO ISZERO MUL OR SWAP1 SSTORE POP POP POP POP JUMP JUMPDEST CALLER PUSH1 0x1 PUSH1 0x3 DUP2 GT ISZERO PUSH2 0x5F2 JUMPI PUSH2 0x5F1 PUSH2 0x2E61 JUMP JUMPDEST JUMPDEST PUSH1 0x5 PUSH1 0x0 DUP4 PUSH20 0xFFFFFFFFFFFFFFFFFFFFFFFFFFFFFFFFFFFFFFFF AND PUSH20 0xFFFFFFFFFFFFFFFFFFFFFFFFFFFFFFFFFFFFFFFF AND DUP2 MSTORE PUSH1 0x20 ADD SWAP1 DUP2 MSTORE PUSH1 0x20 ADD PUSH1 0x0 KECCAK256 PUSH1 0x9 ADD PUSH1 0x0 SWAP1 SLOAD SWAP1 PUSH2 0x100 EXP SWAP1 DIV PUSH1 0xFF AND PUSH1 0x3 DUP2 GT ISZERO PUSH2 0x654 JUMPI PUSH2 0x653 PUSH2 0x2E61 JUMP JUMPDEST JUMPDEST EQ PUSH2 0x694 JUMPI PUSH1 0x40 MLOAD PUSH32 0x8C379A000000000000000000000000000000000000000000000000000000000 DUP2 MSTORE PUSH1 0x4 ADD PUSH2 0x68B SWAP1 PUSH2 0x3832 JUMP JUMPDEST PUSH1 0x40 MLOAD DUP1 SWAP2 SUB SWAP1 REVERT JUMPDEST PUSH1 0x1 PUSH1 0x2 SLOAD PUSH2 0x6A3 SWAP2 SWAP1 PUSH2 0x3921 JUMP JUMPDEST PUSH1 0x2 DUP2 SWAP1 SSTORE POP PUSH1 0x0 PUSH1 0x2 SLOAD SWAP1 POP PUSH1 0x40 MLOAD DUP1 PUSH2 0x100 ADD PUSH1 0x40 MSTORE DUP1 DUP3 DUP2 MSTORE PUSH1 0x20 ADD CALLER PUSH20 0xFFFFFFFFFFFFFFFFFFFFFFFFFFFFFFFFFFFFFFFF AND DUP2 MSTORE PUSH1 0x20 ADD DUP6 DUP2 MSTORE PUSH1 0x20 ADD DUP5 DUP2 MSTORE PUSH1 0x20 ADD TIMESTAMP DUP2 MSTORE PUSH1 0x20 ADD PUSH1 0x0 DUP2 MSTORE PUSH1 0x20 ADD PUSH1 0x0 DUP2 MSTORE PUSH1 0x20 ADD PUSH1 0x1 PUSH1 0x3 DUP2 GT ISZERO PUSH2 0x712 JUMPI PUSH2 0x711 PUSH2 0x2E61 JUMP JUMPDEST JUMPDEST DUP2 MSTORE POP PUSH1 0x8 PUSH1 0x0 DUP4 DUP2 MSTORE PUSH1 0x20 ADD SWAP1 DUP2 MSTORE PUSH1 0x20 ADD PUSH1 0x0 KECCAK256 PUSH1 0x0 DUP3 ADD MLOAD DUP2 PUSH1 0x0 ADD SSTORE PUSH1 0x20 DUP3 ADD MLOAD DUP2 PUSH1 0x1 ADD PUSH1 0x0 PUSH2 0x100 EXP DUP2 SLOAD DUP2 PUSH20 0xFFFFFFFFFFFFFFFFFFFFFFFFFFFFFFFFFFFFFFFF MUL NOT AND SWAP1 DUP4 PUSH20 0xFFFFFFFFFFFFFFFFFFFFFFFFFFFFFFFFFFFFFFFF AND MUL OR SWAP1 SSTORE POP PUSH1 0x40 DUP3 ADD MLOAD DUP2 PUSH1 0x2 ADD SWAP1 DUP2 PUSH2 0x78E SWAP2 SWAP1 PUSH2 0x3B61 JUMP JUMPDEST POP PUSH1 0x60 DUP3 ADD MLOAD DUP2 PUSH1 0x3 ADD SWAP1 DUP2 PUSH2 0x7A4 SWAP2 SWAP1 PUSH2 0x3B61 JUMP JUMPDEST POP PUSH1 0x80 DUP3 ADD MLOAD DUP2 PUSH1 0x4 ADD SSTORE PUSH1 0xA0 DUP3 ADD MLOAD DUP2 PUSH1 0x5 ADD SSTORE PUSH1 0xC0 DUP3 ADD MLOAD DUP2 PUSH1 0x6 ADD SSTORE PUSH1 0xE0 DUP3 ADD MLOAD DUP2 PUSH1 0x7 ADD PUSH1 0x0 PUSH2 0x100 EXP DUP2 SLOAD DUP2 PUSH1 0xFF MUL NOT AND SWAP1 DUP4 PUSH1 0x3 DUP2 GT ISZERO PUSH2 0x7EE JUMPI PUSH2 0x7ED PUSH2 0x2E61 JUMP JUMPDEST JUMPDEST MUL OR SWAP1 SSTORE POP SWAP1 POP POP PUSH1 0x9 PUSH1 0x0 CALLER PUSH20 0xFFFFFFFFFFFFFFFFFFFFFFFFFFFFFFFFFFFFFFFF AND PUSH20 0xFFFFFFFFFFFFFFFFFFFFFFFFFFFFFFFFFFFFFFFF AND DUP2 MSTORE PUSH1 0x20 ADD SWAP1 DUP2 MSTORE PUSH1 0x20 ADD PUSH1 0x0 KECCAK256 DUP2 SWAP1 DUP1 PUSH1 0x1 DUP2 SLOAD ADD DUP1 DUP3 SSTORE DUP1 SWAP2 POP POP PUSH1 0x1 SWAP1 SUB SWAP1 PUSH1 0x0 MSTORE PUSH1 0x20 PUSH1 0x0 KECCAK256 ADD PUSH1 0x0 SWAP1 SWAP2 SWAP1 SWAP2 SWAP1 SWAP2 POP SSTORE PUSH1 0x4 DUP2 SWAP1 DUP1 PUSH1 0x1 DUP2 SLOAD ADD DUP1 DUP3 SSTORE DUP1 SWAP2 POP POP PUSH1 0x1 SWAP1 SUB SWAP1 PUSH1 0x0 MSTORE PUSH1 0x20 PUSH1 0x0 KECCAK256 ADD PUSH1 0x0 SWAP1 SWAP2 SWAP1 SWAP2 SWAP1 SWAP2 POP SSTORE PUSH32 0xE78603DEA3231B9AC9A73B3663B6E28DE19F35247E2C32F0115EC263BDC7C49A CALLER PUSH1 0x5 PUSH1 0x0 CALLER PUSH20 0xFFFFFFFFFFFFFFFFFFFFFFFFFFFFFFFFFFFFFFFF AND PUSH20 0xFFFFFFFFFFFFFFFFFFFFFFFFFFFFFFFFFFFFFFFF AND DUP2 MSTORE PUSH1 0x20 ADD SWAP1 DUP2 MSTORE PUSH1 0x20 ADD PUSH1 0x0 KECCAK256 PUSH1 0x0 ADD SLOAD DUP4 PUSH1 0x40 MLOAD PUSH2 0x8FA SWAP4 SWAP3 SWAP2 SWAP1 PUSH2 0x3C42 JUMP JUMPDEST PUSH1 0x40 MLOAD DUP1 SWAP2 SUB SWAP1 LOG1 POP POP POP POP JUMP JUMPDEST CALLER PUSH1 0x1 PUSH1 0x3 DUP2 GT ISZERO PUSH2 0x91D JUMPI PUSH2 0x91C PUSH2 0x2E61 JUMP JUMPDEST JUMPDEST PUSH1 0x5 PUSH1 0x0 DUP4 PUSH20 0xFFFFFFFFFFFFFFFFFFFFFFFFFFFFFFFFFFFFFFFF AND PUSH20 0xFFFFFFFFFFFFFFFFFFFFFFFFFFFFFFFFFFFFFFFF AND DUP2 MSTORE PUSH1 0x20 ADD SWAP1 DUP2 MSTORE PUSH1 0x20 ADD PUSH1 0x0 KECCAK256 PUSH1 0x9 ADD PUSH1 0x0 SWAP1 SLOAD SWAP1 PUSH2 0x100 EXP SWAP1 DIV PUSH1 0xFF AND PUSH1 0x3 DUP2 GT ISZERO PUSH2 0x97F JUMPI PUSH2 0x97E PUSH2 0x2E61 JUMP JUMPDEST JUMPDEST EQ PUSH2 0x9BF JUMPI PUSH1 0x40 MLOAD PUSH32 0x8C379A000000000000000000000000000000000000000000000000000000000 DUP2 MSTORE PUSH1 0x4 ADD PUSH2 0x9B6 SWAP1 PUSH2 0x3832 JUMP JUMPDEST PUSH1 0x40 MLOAD DUP1 SWAP2 SUB SWAP1 REVERT JUMPDEST DUP3 PUSH1 0x1 PUSH1 0x3 DUP2 GT ISZERO PUSH2 0x9D4 JUMPI PUSH2 0x9D3 PUSH2 0x2E61 JUMP JUMPDEST JUMPDEST PUSH1 0x8 PUSH1 0x0 DUP4 DUP2 MSTORE PUSH1 0x20 ADD SWAP1 DUP2 MSTORE PUSH1 0x20 ADD PUSH1 0x0 KECCAK256 PUSH1 0x7 ADD PUSH1 0x0 SWAP1 SLOAD SWAP1 PUSH2 0x100 EXP SWAP1 DIV PUSH1 0xFF AND PUSH1 0x3 DUP2 GT ISZERO PUSH2 0xA0A JUMPI PUSH2 0xA09 PUSH2 0x2E61 JUMP JUMPDEST JUMPDEST EQ PUSH2 0xA4A JUMPI PUSH1 0x40 MLOAD PUSH32 0x8C379A000000000000000000000000000000000000000000000000000000000 DUP2 MSTORE PUSH1 0x4 ADD PUSH2 0xA41 SWAP1 PUSH2 0x389E JUMP JUMPDEST PUSH1 0x40 MLOAD DUP1 SWAP2 SUB SWAP1 REVERT JUMPDEST PUSH1 0x0 DUP4 SWAP1 POP PUSH1 0x0 DUP2 MLOAD SUB PUSH2 0xA93 JUMPI PUSH1 0x40 MLOAD PUSH32 0x8C379A000000000000000000000000000000000000000000000000000000000 DUP2 MSTORE PUSH1 0x4 ADD PUSH2 0xA8A SWAP1 PUSH2 0x3CC5 JUMP JUMPDEST PUSH1 0x40 MLOAD DUP1 SWAP2 SUB SWAP1 REVERT JUMPDEST PUSH1 0x1 PUSH1 0x3 SLOAD PUSH2 0xAA2 SWAP2 SWAP1 PUSH2 0x3921 JUMP JUMPDEST PUSH1 0x3 DUP2 SWAP1 SSTORE POP PUSH1 0x0 PUSH1 0x3 SLOAD SWAP1 POP PUSH1 0x40 MLOAD DUP1 PUSH2 0x100 ADD PUSH1 0x40 MSTORE DUP1 DUP3 DUP2 MSTORE PUSH1 0x20 ADD CALLER PUSH20 0xFFFFFFFFFFFFFFFFFFFFFFFFFFFFFFFFFFFFFFFF AND DUP2 MSTORE PUSH1 0x20 ADD DUP8 DUP2 MSTORE PUSH1 0x20 ADD DUP7 DUP2 MSTORE PUSH1 0x20 ADD PUSH1 0x0 DUP2 MSTORE PUSH1 0x20 ADD PUSH1 0x0 DUP2 MSTORE PUSH1 0x20 ADD TIMESTAMP DUP2 MSTORE PUSH1 0x20 ADD PUSH1 0x1 PUSH1 0x3 DUP2 GT ISZERO PUSH2 0xB11 JUMPI PUSH2 0xB10 PUSH2 0x2E61 JUMP JUMPDEST JUMPDEST DUP2 MSTORE POP PUSH1 0xB PUSH1 0x0 DUP4 DUP2 MSTORE PUSH1 0x20 ADD SWAP1 DUP2 MSTORE PUSH1 0x20 ADD PUSH1 0x0 KECCAK256 PUSH1 0x0 DUP3 ADD MLOAD DUP2 PUSH1 0x0 ADD SSTORE PUSH1 0x20 DUP3 ADD MLOAD DUP2 PUSH1 0x1 ADD PUSH1 0x0 PUSH2 0x100 EXP DUP2 SLOAD DUP2 PUSH20 0xFFFFFFFFFFFFFFFFFFFFFFFFFFFFFFFFFFFFFFFF MUL NOT AND SWAP1 DUP4 PUSH20 0xFFFFFFFFFFFFFFFFFFFFFFFFFFFFFFFFFFFFFFFF AND MUL OR SWAP1 SSTORE POP PUSH1 0x40 DUP3 ADD MLOAD DUP2 PUSH1 0x2 ADD SSTORE PUSH1 0x60 DUP3 ADD MLOAD DUP2 PUSH1 0x3 ADD SWAP1 DUP2 PUSH2 0xB97 SWAP2 SWAP1 PUSH2 0x3B61 JUMP JUMPDEST POP PUSH1 0x80 DUP3 ADD MLOAD DUP2 PUSH1 0x4 ADD SSTORE PUSH1 0xA0 DUP3 ADD MLOAD DUP2 PUSH1 0x5 ADD SSTORE PUSH1 0xC0 DUP3 ADD MLOAD DUP2 PUSH1 0x6 ADD SSTORE PUSH1 0xE0 DUP3 ADD MLOAD DUP2 PUSH1 0x7 ADD PUSH1 0x0 PUSH2 0x100 EXP DUP2 SLOAD DUP2 PUSH1 0xFF MUL NOT AND SWAP1 DUP4 PUSH1 0x3 DUP2 GT ISZERO PUSH2 0xBE1 JUMPI PUSH2 0xBE0 PUSH2 0x2E61 JUMP JUMPDEST JUMPDEST MUL OR SWAP1 SSTORE POP SWAP1 POP POP PUSH1 0xD PUSH1 0x0 DUP8 DUP2 MSTORE PUSH1 0x20 ADD SWAP1 DUP2 MSTORE PUSH1 0x20 ADD PUSH1 0x0 KECCAK256 DUP2 SWAP1 DUP1 PUSH1 0x1 DUP2 SLOAD ADD DUP1 DUP3 SSTORE DUP1 SWAP2 POP POP PUSH1 0x1 SWAP1 SUB SWAP1 PUSH1 0x0 MSTORE PUSH1 0x20 PUSH1 0x0 KECCAK256 ADD PUSH1 0x0 SWAP1 SWAP2 SWAP1 SWAP2 SWAP1 SWAP2 POP SSTORE PUSH32 0x50621CA627228F52152F460CE13ADF4D014AEB126E3FAA26D112C10B0BB43A13 CALLER DUP3 DUP9 PUSH1 0x0 DUP1 TIMESTAMP DUP12 PUSH1 0x40 MLOAD PUSH2 0xC5F SWAP8 SWAP7 SWAP6 SWAP5 SWAP4 SWAP3 SWAP2 SWAP1 PUSH2 0x3D20 JUMP JUMPDEST PUSH1 0x40 MLOAD DUP1 SWAP2 SUB SWAP1 LOG1 POP POP POP POP POP POP JUMP JUMPDEST PUSH1 0x60 CALLER PUSH1 0x1 PUSH1 0x3 DUP2 GT ISZERO PUSH2 0xC86 JUMPI PUSH2 0xC85 PUSH2 0x2E61 JUMP JUMPDEST JUMPDEST PUSH1 0x5 PUSH1 0x0 DUP4 PUSH20 0xFFFFFFFFFFFFFFFFFFFFFFFFFFFFFFFFFFFFFFFF AND PUSH20 0xFFFFFFFFFFFFFFFFFFFFFFFFFFFFFFFFFFFFFFFF AND DUP2 MSTORE PUSH1 0x20 ADD SWAP1 DUP2 MSTORE PUSH1 0x20 ADD PUSH1 0x0 KECCAK256 PUSH1 0x9 ADD PUSH1 0x0 SWAP1 SLOAD SWAP1 PUSH2 0x100 EXP SWAP1 DIV PUSH1 0xFF AND PUSH1 0x3 DUP2 GT ISZERO PUSH2 0xCE8 JUMPI PUSH2 0xCE7 PUSH2 0x2E61 JUMP JUMPDEST JUMPDEST EQ PUSH2 0xD28 JUMPI PUSH1 0x40 MLOAD PUSH32 0x8C379A000000000000000000000000000000000000000000000000000000000 DUP2 MSTORE PUSH1 0x4 ADD PUSH2 0xD1F SWAP1 PUSH2 0x3832 JUMP JUMPDEST PUSH1 0x40 MLOAD DUP1 SWAP2 SUB SWAP1 REVERT JUMPDEST PUSH1 0x0 DUP4 PUSH1 0x1 DUP7 PUSH2 0xD38 SWAP2 SWAP1 PUSH2 0x38ED JUMP JUMPDEST PUSH2 0xD42 SWAP2 SWAP1 PUSH2 0x3D96 JUMP JUMPDEST SWAP1 POP PUSH1 0x0 DUP5 DUP3 PUSH2 0xD52 SWAP2 SWAP1 PUSH2 0x3921 JUMP JUMPDEST SWAP1 POP PUSH1 0x4 DUP1 SLOAD SWAP1 POP DUP2 GT ISZERO PUSH2 0xD6A JUMPI PUSH1 0x4 DUP1 SLOAD SWAP1 POP SWAP1 POP JUMPDEST PUSH1 0x0 DUP3 DUP3 PUSH2 0xD78 SWAP2 SWAP1 PUSH2 0x38ED JUMP JUMPDEST PUSH8 0xFFFFFFFFFFFFFFFF DUP2 GT ISZERO PUSH2 0xD91 JUMPI PUSH2 0xD90 PUSH2 0x2A58 JUMP JUMPDEST JUMPDEST PUSH1 0x40 MLOAD SWAP1 DUP1 DUP3 MSTORE DUP1 PUSH1 0x20 MUL PUSH1 0x20 ADD DUP3 ADD PUSH1 0x40 MSTORE DUP1 ISZERO PUSH2 0xDBF JUMPI DUP2 PUSH1 0x20 ADD PUSH1 0x20 DUP3 MUL DUP1 CALLDATASIZE DUP4 CALLDATACOPY DUP1 DUP3 ADD SWAP2 POP POP SWAP1 POP JUMPDEST POP SWAP1 POP PUSH1 0x0 DUP4 SWAP1 POP JUMPDEST DUP3 DUP2 LT ISZERO PUSH2 0xE2C JUMPI PUSH1 0x4 DUP2 DUP2 SLOAD DUP2 LT PUSH2 0xDE4 JUMPI PUSH2 0xDE3 PUSH2 0x3DD8 JUMP JUMPDEST JUMPDEST SWAP1 PUSH1 0x0 MSTORE PUSH1 0x20 PUSH1 0x0 KECCAK256 ADD SLOAD DUP3 DUP6 DUP4 PUSH2 0xDFC SWAP2 SWAP1 PUSH2 0x38ED JUMP JUMPDEST DUP2 MLOAD DUP2 LT PUSH2 0xE0D JUMPI PUSH2 0xE0C PUSH2 0x3DD8 JUMP JUMPDEST JUMPDEST PUSH1 0x20 MUL PUSH1 0x20 ADD ADD DUP2 DUP2 MSTORE POP POP DUP1 DUP1 PUSH2 0xE24 SWAP1 PUSH2 0x3E07 JUMP JUMPDEST SWAP2 POP POP PUSH2 0xDC8 JUMP JUMPDEST POP DUP1 SWAP5 POP POP POP POP POP SWAP3 SWAP2 POP POP JUMP JUMPDEST PUSH1 0x3 SLOAD DUP2 JUMP JUMPDEST PUSH2 0xE48 PUSH2 0x28EC JUMP JUMPDEST CALLER PUSH1 0x1 PUSH1 0x3 DUP2 GT ISZERO PUSH2 0xE5D JUMPI PUSH2 0xE5C PUSH2 0x2E61 JUMP JUMPDEST JUMPDEST PUSH1 0x5 PUSH1 0x0 DUP4 PUSH20 0xFFFFFFFFFFFFFFFFFFFFFFFFFFFFFFFFFFFFFFFF AND PUSH20 0xFFFFFFFFFFFFFFFFFFFFFFFFFFFFFFFFFFFFFFFF AND DUP2 MSTORE PUSH1 0x20 ADD SWAP1 DUP2 MSTORE PUSH1 0x20 ADD PUSH1 0x0 KECCAK256 PUSH1 0x9 ADD PUSH1 0x0 SWAP1 SLOAD SWAP1 PUSH2 0x100 EXP SWAP1 DIV PUSH1 0xFF AND PUSH1 0x3 DUP2 GT ISZERO PUSH2 0xEBF JUMPI PUSH2 0xEBE PUSH2 0x2E61 JUMP JUMPDEST JUMPDEST EQ PUSH2 0xEFF JUMPI PUSH1 0x40 MLOAD PUSH32 0x8C379A000000000000000000000000000000000000000000000000000000000 DUP2 MSTORE PUSH1 0x4 ADD PUSH2 0xEF6 SWAP1 PUSH2 0x3832 JUMP JUMPDEST PUSH1 0x40 MLOAD DUP1 SWAP2 SUB SWAP1 REVERT JUMPDEST DUP3 PUSH1 0x1 PUSH1 0x3 DUP2 GT ISZERO PUSH2 0xF14 JUMPI PUSH2 0xF13 PUSH2 0x2E61 JUMP JUMPDEST JUMPDEST PUSH1 0x8 PUSH1 0x0 DUP4 DUP2 MSTORE PUSH1 0x20 ADD SWAP1 DUP2 MSTORE PUSH1 0x20 ADD PUSH1 0x0 KECCAK256 PUSH1 0x7 ADD PUSH1 0x0 SWAP1 SLOAD SWAP1 PUSH2 0x100 EXP SWAP1 DIV PUSH1 0xFF AND PUSH1 0x3 DUP2 GT ISZERO PUSH2 0xF4A JUMPI PUSH2 0xF49 PUSH2 0x2E61 JUMP JUMPDEST JUMPDEST EQ PUSH2 0xF8A JUMPI PUSH1 0x40 MLOAD PUSH32 0x8C379A000000000000000000000000000000000000000000000000000000000 DUP2 MSTORE PUSH1 0x4 ADD PUSH2 0xF81 SWAP1 PUSH2 0x389E JUMP JUMPDEST PUSH1 0x40 MLOAD DUP1 SWAP2 SUB SWAP1 REVERT JUMPDEST PUSH1 0x8 PUSH1 0x0 DUP6 DUP2 MSTORE PUSH1 0x20 ADD SWAP1 DUP2 MSTORE PUSH1 0x20 ADD PUSH1 0x0 KECCAK256 PUSH1 0x40 MLOAD DUP1 PUSH2 0x100 ADD PUSH1 0x40 MSTORE SWAP1 DUP2 PUSH1 0x0 DUP3 ADD SLOAD DUP2 MSTORE PUSH1 0x20 ADD PUSH1 0x1 DUP3 ADD PUSH1 0x0 SWAP1 SLOAD SWAP1 PUSH2 0x100 EXP SWAP1 DIV PUSH20 0xFFFFFFFFFFFFFFFFFFFFFFFFFFFFFFFFFFFFFFFF AND PUSH20 0xFFFFFFFFFFFFFFFFFFFFFFFFFFFFFFFFFFFFFFFF AND PUSH20 0xFFFFFFFFFFFFFFFFFFFFFFFFFFFFFFFFFFFFFFFF AND DUP2 MSTORE PUSH1 0x20 ADD PUSH1 0x2 DUP3 ADD DUP1 SLOAD PUSH2 0x1019 SWAP1 PUSH2 0x3984 JUMP JUMPDEST DUP1 PUSH1 0x1F ADD PUSH1 0x20 DUP1 SWAP2 DIV MUL PUSH1 0x20 ADD PUSH1 0x40 MLOAD SWAP1 DUP2 ADD PUSH1 0x40 MSTORE DUP1 SWAP3 SWAP2 SWAP1 DUP2 DUP2 MSTORE PUSH1 0x20 ADD DUP3 DUP1 SLOAD PUSH2 0x1045 SWAP1 PUSH2 0x3984 JUMP JUMPDEST DUP1 ISZERO PUSH2 0x1092 JUMPI DUP1 PUSH1 0x1F LT PUSH2 0x1067 JUMPI PUSH2 0x100 DUP1 DUP4 SLOAD DIV MUL DUP4 MSTORE SWAP2 PUSH1 0x20 ADD SWAP2 PUSH2 0x1092 JUMP JUMPDEST DUP3 ADD SWAP2 SWAP1 PUSH1 0x0 MSTORE PUSH1 0x20 PUSH1 0x0 KECCAK256 SWAP1 JUMPDEST DUP2 SLOAD DUP2 MSTORE SWAP1 PUSH1 0x1 ADD SWAP1 PUSH1 0x20 ADD DUP1 DUP4 GT PUSH2 0x1075 JUMPI DUP3 SWAP1 SUB PUSH1 0x1F AND DUP3 ADD SWAP2 JUMPDEST POP POP POP POP POP DUP2 MSTORE PUSH1 0x20 ADD PUSH1 0x3 DUP3 ADD DUP1 SLOAD PUSH2 0x10AB SWAP1 PUSH2 0x3984 JUMP JUMPDEST DUP1 PUSH1 0x1F ADD PUSH1 0x20 DUP1 SWAP2 DIV MUL PUSH1 0x20 ADD PUSH1 0x40 MLOAD SWAP1 DUP2 ADD PUSH1 0x40 MSTORE DUP1 SWAP3 SWAP2 SWAP1 DUP2 DUP2 MSTORE PUSH1 0x20 ADD DUP3 DUP1 SLOAD PUSH2 0x10D7 SWAP1 PUSH2 0x3984 JUMP JUMPDEST DUP1 ISZERO PUSH2 0x1124 JUMPI DUP1 PUSH1 0x1F LT PUSH2 0x10F9 JUMPI PUSH2 0x100 DUP1 DUP4 SLOAD DIV MUL DUP4 MSTORE SWAP2 PUSH1 0x20 ADD SWAP2 PUSH2 0x1124 JUMP JUMPDEST DUP3 ADD SWAP2 SWAP1 PUSH1 0x0 MSTORE PUSH1 0x20 PUSH1 0x0 KECCAK256 SWAP1 JUMPDEST DUP2 SLOAD DUP2 MSTORE SWAP1 PUSH1 0x1 ADD SWAP1 PUSH1 0x20 ADD DUP1 DUP4 GT PUSH2 0x1107 JUMPI DUP3 SWAP1 SUB PUSH1 0x1F AND DUP3 ADD SWAP2 JUMPDEST POP POP POP POP POP DUP2 MSTORE PUSH1 0x20 ADD PUSH1 0x4 DUP3 ADD SLOAD DUP2 MSTORE PUSH1 0x20 ADD PUSH1 0x5 DUP3 ADD SLOAD DUP2 MSTORE PUSH1 0x20 ADD PUSH1 0x6 DUP3 ADD SLOAD DUP2 MSTORE PUSH1 0x20 ADD PUSH1 0x7 DUP3 ADD PUSH1 0x0 SWAP1 SLOAD SWAP1 PUSH2 0x100 EXP SWAP1 DIV PUSH1 0xFF AND PUSH1 0x3 DUP2 GT ISZERO PUSH2 0x1170 JUMPI PUSH2 0x116F PUSH2 0x2E61 JUMP JUMPDEST JUMPDEST PUSH1 0x3 DUP2 GT ISZERO PUSH2 0x1182 JUMPI PUSH2 0x1181 PUSH2 0x2E61 JUMP JUMPDEST JUMPDEST DUP2 MSTORE POP POP SWAP3 POP POP POP SWAP2 SWAP1 POP JUMP JUMPDEST PUSH2 0x1197 PUSH2 0x2959 JUMP JUMPDEST CALLER PUSH1 0x1 PUSH1 0x3 DUP2 GT ISZERO PUSH2 0x11AC JUMPI PUSH2 0x11AB PUSH2 0x2E61 JUMP JUMPDEST JUMPDEST PUSH1 0x5 PUSH1 0x0 DUP4 PUSH20 0xFFFFFFFFFFFFFFFFFFFFFFFFFFFFFFFFFFFFFFFF AND PUSH20 0xFFFFFFFFFFFFFFFFFFFFFFFFFFFFFFFFFFFFFFFF AND DUP2 MSTORE PUSH1 0x20 ADD SWAP1 DUP2 MSTORE PUSH1 0x20 ADD PUSH1 0x0 KECCAK256 PUSH1 0x9 ADD PUSH1 0x0 SWAP1 SLOAD SWAP1 PUSH2 0x100 EXP SWAP1 DIV PUSH1 0xFF AND PUSH1 0x3 DUP2 GT ISZERO PUSH2 0x120E JUMPI PUSH2 0x120D PUSH2 0x2E61 JUMP JUMPDEST JUMPDEST EQ PUSH2 0x124E JUMPI PUSH1 0x40 MLOAD PUSH32 0x8C379A000000000000000000000000000000000000000000000000000000000 DUP2 MSTORE PUSH1 0x4 ADD PUSH2 0x1245 SWAP1 PUSH2 0x3832 JUMP JUMPDEST PUSH1 0x40 MLOAD DUP1 SWAP2 SUB SWAP1 REVERT JUMPDEST DUP3 PUSH1 0x1 PUSH1 0x3 DUP2 GT ISZERO PUSH2 0x1263 JUMPI PUSH2 0x1262 PUSH2 0x2E61 JUMP JUMPDEST JUMPDEST PUSH1 0xB PUSH1 0x0 DUP4 DUP2 MSTORE PUSH1 0x20 ADD SWAP1 DUP2 MSTORE PUSH1 0x20 ADD PUSH1 0x0 KECCAK256 PUSH1 0x7 ADD PUSH1 0x0 SWAP1 SLOAD SWAP1 PUSH2 0x100 EXP SWAP1 DIV PUSH1 0xFF AND PUSH1 0x3 DUP2 GT ISZERO PUSH2 0x1299 JUMPI PUSH2 0x1298 PUSH2 0x2E61 JUMP JUMPDEST JUMPDEST EQ PUSH2 0x12D9 JUMPI PUSH1 0x40 MLOAD PUSH32 0x8C379A000000000000000000000000000000000000000000000000000000000 DUP2 MSTORE PUSH1 0x4 ADD PUSH2 0x12D0 SWAP1 PUSH2 0x3E9B JUMP JUMPDEST PUSH1 0x40 MLOAD DUP1 SWAP2 SUB SWAP1 REVERT JUMPDEST PUSH1 0xB PUSH1 0x0 DUP6 DUP2 MSTORE PUSH1 0x20 ADD SWAP1 DUP2 MSTORE PUSH1 0x20 ADD PUSH1 0x0 KECCAK256 PUSH1 0x40 MLOAD DUP1 PUSH2 0x100 ADD PUSH1 0x40 MSTORE SWAP1 DUP2 PUSH1 0x0 DUP3 ADD SLOAD DUP2 MSTORE PUSH1 0x20 ADD PUSH1 0x1 DUP3 ADD PUSH1 0x0 SWAP1 SLOAD SWAP1 PUSH2 0x100 EXP SWAP1 DIV PUSH20 0xFFFFFFFFFFFFFFFFFFFFFFFFFFFFFFFFFFFFFFFF AND PUSH20 0xFFFFFFFFFFFFFFFFFFFFFFFFFFFFFFFFFFFFFFFF AND PUSH20 0xFFFFFFFFFFFFFFFFFFFFFFFFFFFFFFFFFFFFFFFF AND DUP2 MSTORE PUSH1 0x20 ADD PUSH1 0x2 DUP3 ADD SLOAD DUP2 MSTORE PUSH1 0x20 ADD PUSH1 0x3 DUP3 ADD DUP1 SLOAD PUSH2 0x1372 SWAP1 PUSH2 0x3984 JUMP JUMPDEST DUP1 PUSH1 0x1F ADD PUSH1 0x20 DUP1 SWAP2 DIV MUL PUSH1 0x20 ADD PUSH1 0x40 MLOAD SWAP1 DUP2 ADD PUSH1 0x40 MSTORE DUP1 SWAP3 SWAP2 SWAP1 DUP2 DUP2 MSTORE PUSH1 0x20 ADD DUP3 DUP1 SLOAD PUSH2 0x139E SWAP1 PUSH2 0x3984 JUMP JUMPDEST DUP1 ISZERO PUSH2 0x13EB JUMPI DUP1 PUSH1 0x1F LT PUSH2 0x13C0 JUMPI PUSH2 0x100 DUP1 DUP4 SLOAD DIV MUL DUP4 MSTORE SWAP2 PUSH1 0x20 ADD SWAP2 PUSH2 0x13EB JUMP JUMPDEST DUP3 ADD SWAP2 SWAP1 PUSH1 0x0 MSTORE PUSH1 0x20 PUSH1 0x0 KECCAK256 SWAP1 JUMPDEST DUP2 SLOAD DUP2 MSTORE SWAP1 PUSH1 0x1 ADD SWAP1 PUSH1 0x20 ADD DUP1 DUP4 GT PUSH2 0x13CE JUMPI DUP3 SWAP1 SUB PUSH1 0x1F AND DUP3 ADD SWAP2 JUMPDEST POP POP POP POP POP DUP2 MSTORE PUSH1 0x20 ADD PUSH1 0x4 DUP3 ADD SLOAD DUP2 MSTORE PUSH1 0x20 ADD PUSH1 0x5 DUP3 ADD SLOAD DUP2 MSTORE PUSH1 0x20 ADD PUSH1 0x6 DUP3 ADD SLOAD DUP2 MSTORE PUSH1 0x20 ADD PUSH1 0x7 DUP3 ADD PUSH1 0x0 SWAP1 SLOAD SWAP1 PUSH2 0x100 EXP SWAP1 DIV PUSH1 0xFF AND PUSH1 0x3 DUP2 GT ISZERO PUSH2 0x1437 JUMPI PUSH2 0x1436 PUSH2 0x2E61 JUMP JUMPDEST JUMPDEST PUSH1 0x3 DUP2 GT ISZERO PUSH2 0x1449 JUMPI PUSH2 0x1448 PUSH2 0x2E61 JUMP JUMPDEST JUMPDEST DUP2 MSTORE POP POP SWAP3 POP POP POP SWAP2 SWAP1 POP JUMP JUMPDEST PUSH1 0x0 PUSH1 0x60 DUP1 PUSH1 0x60 PUSH1 0x0 DUP1 PUSH1 0x60 DUP1 PUSH1 0x0 PUSH1 0x5 PUSH1 0x0 DUP12 PUSH20 0xFFFFFFFFFFFFFFFFFFFFFFFFFFFFFFFFFFFFFFFF AND PUSH20 0xFFFFFFFFFFFFFFFFFFFFFFFFFFFFFFFFFFFFFFFF AND DUP2 MSTORE PUSH1 0x20 ADD SWAP1 DUP2 MSTORE PUSH1 0x20 ADD PUSH1 0x0 KECCAK256 PUSH1 0x40 MLOAD DUP1 PUSH2 0x140 ADD PUSH1 0x40 MSTORE SWAP1 DUP2 PUSH1 0x0 DUP3 ADD SLOAD DUP2 MSTORE PUSH1 0x20 ADD PUSH1 0x1 DUP3 ADD PUSH1 0x0 SWAP1 SLOAD SWAP1 PUSH2 0x100 EXP SWAP1 DIV PUSH20 0xFFFFFFFFFFFFFFFFFFFFFFFFFFFFFFFFFFFFFFFF AND PUSH20 0xFFFFFFFFFFFFFFFFFFFFFFFFFFFFFFFFFFFFFFFF AND PUSH20 0xFFFFFFFFFFFFFFFFFFFFFFFFFFFFFFFFFFFFFFFF AND DUP2 MSTORE PUSH1 0x20 ADD PUSH1 0x2 DUP3 ADD DUP1 SLOAD PUSH2 0x1520 SWAP1 PUSH2 0x3984 JUMP JUMPDEST DUP1 PUSH1 0x1F ADD PUSH1 0x20 DUP1 SWAP2 DIV MUL PUSH1 0x20 ADD PUSH1 0x40 MLOAD SWAP1 DUP2 ADD PUSH1 0x40 MSTORE DUP1 SWAP3 SWAP2 SWAP1 DUP2 DUP2 MSTORE PUSH1 0x20 ADD DUP3 DUP1 SLOAD PUSH2 0x154C SWAP1 PUSH2 0x3984 JUMP JUMPDEST DUP1 ISZERO PUSH2 0x1599 JUMPI DUP1 PUSH1 0x1F LT PUSH2 0x156E JUMPI PUSH2 0x100 DUP1 DUP4 SLOAD DIV MUL DUP4 MSTORE SWAP2 PUSH1 0x20 ADD SWAP2 PUSH2 0x1599 JUMP JUMPDEST DUP3 ADD SWAP2 SWAP1 PUSH1 0x0 MSTORE PUSH1 0x20 PUSH1 0x0 KECCAK256 SWAP1 JUMPDEST DUP2 SLOAD DUP2 MSTORE SWAP1 PUSH1 0x1 ADD SWAP1 PUSH1 0x20 ADD DUP1 DUP4 GT PUSH2 0x157C JUMPI DUP3 SWAP1 SUB PUSH1 0x1F AND DUP3 ADD SWAP2 JUMPDEST POP POP POP POP POP DUP2 MSTORE PUSH1 0x20 ADD PUSH1 0x3 DUP3 ADD DUP1 SLOAD PUSH2 0x15B2 SWAP1 PUSH2 0x3984 JUMP JUMPDEST DUP1 PUSH1 0x1F ADD PUSH1 0x20 DUP1 SWAP2 DIV MUL PUSH1 0x20 ADD PUSH1 0x40 MLOAD SWAP1 DUP2 ADD PUSH1 0x40 MSTORE DUP1 SWAP3 SWAP2 SWAP1 DUP2 DUP2 MSTORE PUSH1 0x20 ADD DUP3 DUP1 SLOAD PUSH2 0x15DE SWAP1 PUSH2 0x3984 JUMP JUMPDEST DUP1 ISZERO PUSH2 0x162B JUMPI DUP1 PUSH1 0x1F LT PUSH2 0x1600 JUMPI PUSH2 0x100 DUP1 DUP4 SLOAD DIV MUL DUP4 MSTORE SWAP2 PUSH1 0x20 ADD SWAP2 PUSH2 0x162B JUMP JUMPDEST DUP3 ADD SWAP2 SWAP1 PUSH1 0x0 MSTORE PUSH1 0x20 PUSH1 0x0 KECCAK256 SWAP1 JUMPDEST DUP2 SLOAD DUP2 MSTORE SWAP1 PUSH1 0x1 ADD SWAP1 PUSH1 0x20 ADD DUP1 DUP4 GT PUSH2 0x160E JUMPI DUP3 SWAP1 SUB PUSH1 0x1F AND DUP3 ADD SWAP2 JUMPDEST POP POP POP POP POP DUP2 MSTORE PUSH1 0x20 ADD PUSH1 0x4 DUP3 ADD DUP1 SLOAD PUSH2 0x1644 SWAP1 PUSH2 0x3984 JUMP JUMPDEST DUP1 PUSH1 0x1F ADD PUSH1 0x20 DUP1 SWAP2 DIV MUL PUSH1 0x20 ADD PUSH1 0x40 MLOAD SWAP1 DUP2 ADD PUSH1 0x40 MSTORE DUP1 SWAP3 SWAP2 SWAP1 DUP2 DUP2 MSTORE PUSH1 0x20 ADD DUP3 DUP1 SLOAD PUSH2 0x1670 SWAP1 PUSH2 0x3984 JUMP JUMPDEST DUP1 ISZERO PUSH2 0x16BD JUMPI DUP1 PUSH1 0x1F LT PUSH2 0x1692 JUMPI PUSH2 0x100 DUP1 DUP4 SLOAD DIV MUL DUP4 MSTORE SWAP2 PUSH1 0x20 ADD SWAP2 PUSH2 0x16BD JUMP JUMPDEST DUP3 ADD SWAP2 SWAP1 PUSH1 0x0 MSTORE PUSH1 0x20 PUSH1 0x0 KECCAK256 SWAP1 JUMPDEST DUP2 SLOAD DUP2 MSTORE SWAP1 PUSH1 0x1 ADD SWAP1 PUSH1 0x20 ADD DUP1 DUP4 GT PUSH2 0x16A0 JUMPI DUP3 SWAP1 SUB PUSH1 0x1F AND DUP3 ADD SWAP2 JUMPDEST POP POP POP POP POP DUP2 MSTORE PUSH1 0x20 ADD PUSH1 0x5 DUP3 ADD SLOAD DUP2 MSTORE PUSH1 0x20 ADD PUSH1 0x6 DUP3 ADD PUSH1 0x0 SWAP1 SLOAD SWAP1 PUSH2 0x100 EXP SWAP1 DIV PUSH1 0xFF AND ISZERO ISZERO ISZERO ISZERO DUP2 MSTORE PUSH1 0x20 ADD PUSH1 0x7 DUP3 ADD DUP1 SLOAD PUSH2 0x16FB SWAP1 PUSH2 0x3984 JUMP JUMPDEST DUP1 PUSH1 0x1F ADD PUSH1 0x20 DUP1 SWAP2 DIV MUL PUSH1 0x20 ADD PUSH1 0x40 MLOAD SWAP1 DUP2 ADD PUSH1 0x40 MSTORE DUP1 SWAP3 SWAP2 SWAP1 DUP2 DUP2 MSTORE PUSH1 0x20 ADD DUP3 DUP1 SLOAD PUSH2 0x1727 SWAP1 PUSH2 0x3984 JUMP JUMPDEST DUP1 ISZERO PUSH2 0x1774 JUMPI DUP1 PUSH1 0x1F LT PUSH2 0x1749 JUMPI PUSH2 0x100 DUP1 DUP4 SLOAD DIV MUL DUP4 MSTORE SWAP2 PUSH1 0x20 ADD SWAP2 PUSH2 0x1774 JUMP JUMPDEST DUP3 ADD SWAP2 SWAP1 PUSH1 0x0 MSTORE PUSH1 0x20 PUSH1 0x0 KECCAK256 SWAP1 JUMPDEST DUP2 SLOAD DUP2 MSTORE SWAP1 PUSH1 0x1 ADD SWAP1 PUSH1 0x20 ADD DUP1 DUP4 GT PUSH2 0x1757 JUMPI DUP3 SWAP1 SUB PUSH1 0x1F AND DUP3 ADD SWAP2 JUMPDEST POP POP POP POP POP DUP2 MSTORE PUSH1 0x20 ADD PUSH1 0x8 DUP3 ADD DUP1 SLOAD PUSH2 0x178D SWAP1 PUSH2 0x3984 JUMP JUMPDEST DUP1 PUSH1 0x1F ADD PUSH1 0x20 DUP1 SWAP2 DIV MUL PUSH1 0x20 ADD PUSH1 0x40 MLOAD SWAP1 DUP2 ADD PUSH1 0x40 MSTORE DUP1 SWAP3 SWAP2 SWAP1 DUP2 DUP2 MSTORE PUSH1 0x20 ADD DUP3 DUP1 SLOAD PUSH2 0x17B9 SWAP1 PUSH2 0x3984 JUMP JUMPDEST DUP1 ISZERO PUSH2 0x1806 JUMPI DUP1 PUSH1 0x1F LT PUSH2 0x17DB JUMPI PUSH2 0x100 DUP1 DUP4 SLOAD DIV MUL DUP4 MSTORE SWAP2 PUSH1 0x20 ADD SWAP2 PUSH2 0x1806 JUMP JUMPDEST DUP3 ADD SWAP2 SWAP1 PUSH1 0x0 MSTORE PUSH1 0x20 PUSH1 0x0 KECCAK256 SWAP1 JUMPDEST DUP2 SLOAD DUP2 MSTORE SWAP1 PUSH1 0x1 ADD SWAP1 PUSH1 0x20 ADD DUP1 DUP4 GT PUSH2 0x17E9 JUMPI DUP3 SWAP1 SUB PUSH1 0x1F AND DUP3 ADD SWAP2 JUMPDEST POP POP POP POP POP DUP2 MSTORE PUSH1 0x20 ADD PUSH1 0x9 DUP3 ADD PUSH1 0x0 SWAP1 SLOAD SWAP1 PUSH2 0x100 EXP SWAP1 DIV PUSH1 0xFF AND PUSH1 0x3 DUP2 GT ISZERO PUSH2 0x1834 JUMPI PUSH2 0x1833 PUSH2 0x2E61 JUMP JUMPDEST JUMPDEST PUSH1 0x3 DUP2 GT ISZERO PUSH2 0x1846 JUMPI PUSH2 0x1845 PUSH2 0x2E61 JUMP JUMPDEST JUMPDEST DUP2 MSTORE POP POP SWAP1 POP DUP1 PUSH1 0x0 ADD MLOAD DUP2 PUSH1 0x40 ADD MLOAD DUP3 PUSH1 0x60 ADD MLOAD DUP4 PUSH1 0x80 ADD MLOAD DUP5 PUSH1 0xA0 ADD MLOAD DUP6 PUSH1 0xC0 ADD MLOAD DUP7 PUSH1 0xE0 ADD MLOAD DUP8 PUSH2 0x100 ADD MLOAD SWAP9 POP SWAP9 POP SWAP9 POP SWAP9 POP SWAP9 POP SWAP9 POP SWAP9 POP SWAP9 POP POP SWAP2 SWAP4 SWAP6 SWAP8 POP SWAP2 SWAP4 SWAP6 SWAP8 JUMP JUMPDEST CALLER PUSH1 0x1 PUSH1 0x3 DUP2 GT ISZERO PUSH2 0x18A6 JUMPI PUSH2 0x18A5 PUSH2 0x2E61 JUMP JUMPDEST JUMPDEST PUSH1 0x5 PUSH1 0x0 DUP4 PUSH20 0xFFFFFFFFFFFFFFFFFFFFFFFFFFFFFFFFFFFFFFFF AND PUSH20 0xFFFFFFFFFFFFFFFFFFFFFFFFFFFFFFFFFFFFFFFF AND DUP2 MSTORE PUSH1 0x20 ADD SWAP1 DUP2 MSTORE PUSH1 0x20 ADD PUSH1 0x0 KECCAK256 PUSH1 0x9 ADD PUSH1 0x0 SWAP1 SLOAD SWAP1 PUSH2 0x100 EXP SWAP1 DIV PUSH1 0xFF AND PUSH1 0x3 DUP2 GT ISZERO PUSH2 0x1908 JUMPI PUSH2 0x1907 PUSH2 0x2E61 JUMP JUMPDEST JUMPDEST EQ PUSH2 0x1948 JUMPI PUSH1 0x40 MLOAD PUSH32 0x8C379A000000000000000000000000000000000000000000000000000000000 DUP2 MSTORE PUSH1 0x4 ADD PUSH2 0x193F SWAP1 PUSH2 0x3832 JUMP JUMPDEST PUSH1 0x40 MLOAD DUP1 SWAP2 SUB SWAP1 REVERT JUMPDEST DUP2 PUSH1 0x1 PUSH1 0x3 DUP2 GT ISZERO PUSH2 0x195D JUMPI PUSH2 0x195C PUSH2 0x2E61 JUMP JUMPDEST JUMPDEST PUSH1 0x8 PUSH1 0x0 DUP4 DUP2 MSTORE PUSH1 0x20 ADD SWAP1 DUP2 MSTORE PUSH1 0x20 ADD PUSH1 0x0 KECCAK256 PUSH1 0x7 ADD PUSH1 0x0 SWAP1 SLOAD SWAP1 PUSH2 0x100 EXP SWAP1 DIV PUSH1 0xFF AND PUSH1 0x3 DUP2 GT ISZERO PUSH2 0x1993 JUMPI PUSH2 0x1992 PUSH2 0x2E61 JUMP JUMPDEST JUMPDEST EQ PUSH2 0x19D3 JUMPI PUSH1 0x40 MLOAD PUSH32 0x8C379A000000000000000000000000000000000000000000000000000000000 DUP2 MSTORE PUSH1 0x4 ADD PUSH2 0x19CA SWAP1 PUSH2 0x389E JUMP JUMPDEST PUSH1 0x40 MLOAD DUP1 SWAP2 SUB SWAP1 REVERT JUMPDEST PUSH1 0xA PUSH1 0x0 DUP5 DUP2 MSTORE PUSH1 0x20 ADD SWAP1 DUP2 MSTORE PUSH1 0x20 ADD PUSH1 0x0 KECCAK256 PUSH1 0x0 CALLER PUSH20 0xFFFFFFFFFFFFFFFFFFFFFFFFFFFFFFFFFFFFFFFF AND PUSH20 0xFFFFFFFFFFFFFFFFFFFFFFFFFFFFFFFFFFFFFFFF AND DUP2 MSTORE PUSH1 0x20 ADD SWAP1 DUP2 MSTORE PUSH1 0x20 ADD PUSH1 0x0 KECCAK256 PUSH1 0x0 SWAP1 SLOAD SWAP1 PUSH2 0x100 EXP SWAP1 DIV PUSH1 0xFF AND ISZERO PUSH2 0x1A3B JUMPI PUSH1 0x0 DUP1 REVERT JUMPDEST PUSH1 0x1 PUSH1 0x8 PUSH1 0x0 DUP6 DUP2 MSTORE PUSH1 0x20 ADD SWAP1 DUP2 MSTORE PUSH1 0x20 ADD PUSH1 0x0 KECCAK256 PUSH1 0x5 ADD SLOAD PUSH2 0x1A5E SWAP2 SWAP1 PUSH2 0x3921 JUMP JUMPDEST PUSH1 0x8 PUSH1 0x0 DUP6 DUP2 MSTORE PUSH1 0x20 ADD SWAP1 DUP2 MSTORE PUSH1 0x20 ADD PUSH1 0x0 KECCAK256 PUSH1 0x5 ADD DUP2 SWAP1 SSTORE POP PUSH1 0x1 PUSH1 0xA PUSH1 0x0 DUP6 DUP2 MSTORE PUSH1 0x20 ADD SWAP1 DUP2 MSTORE PUSH1 0x20 ADD PUSH1 0x0 KECCAK256 PUSH1 0x0 CALLER PUSH20 0xFFFFFFFFFFFFFFFFFFFFFFFFFFFFFFFFFFFFFFFF AND PUSH20 0xFFFFFFFFFFFFFFFFFFFFFFFFFFFFFFFFFFFFFFFF AND DUP2 MSTORE PUSH1 0x20 ADD SWAP1 DUP2 MSTORE PUSH1 0x20 ADD PUSH1 0x0 KECCAK256 PUSH1 0x0 PUSH2 0x100 EXP DUP2 SLOAD DUP2 PUSH1 0xFF MUL NOT AND SWAP1 DUP4 ISZERO ISZERO MUL OR SWAP1 SSTORE POP POP POP POP JUMP JUMPDEST PUSH1 0x0 DUP3 PUSH1 0x1 PUSH1 0x3 DUP2 GT ISZERO PUSH2 0x1AFD JUMPI PUSH2 0x1AFC PUSH2 0x2E61 JUMP JUMPDEST JUMPDEST PUSH1 0x8 PUSH1 0x0 DUP4 DUP2 MSTORE PUSH1 0x20 ADD SWAP1 DUP2 MSTORE PUSH1 0x20 ADD PUSH1 0x0 KECCAK256 PUSH1 0x7 ADD PUSH1 0x0 SWAP1 SLOAD SWAP1 PUSH2 0x100 EXP SWAP1 DIV PUSH1 0xFF AND PUSH1 0x3 DUP2 GT ISZERO PUSH2 0x1B33 JUMPI PUSH2 0x1B32 PUSH2 0x2E61 JUMP JUMPDEST JUMPDEST EQ PUSH2 0x1B73 JUMPI PUSH1 0x40 MLOAD PUSH32 0x8C379A000000000000000000000000000000000000000000000000000000000 DUP2 MSTORE PUSH1 0x4 ADD PUSH2 0x1B6A SWAP1 PUSH2 0x389E JUMP JUMPDEST PUSH1 0x40 MLOAD DUP1 SWAP2 SUB SWAP1 REVERT JUMPDEST DUP3 PUSH1 0x1 PUSH1 0x3 DUP2 GT ISZERO PUSH2 0x1B88 JUMPI PUSH2 0x1B87 PUSH2 0x2E61 JUMP JUMPDEST JUMPDEST PUSH1 0x5 PUSH1 0x0 DUP4 PUSH20 0xFFFFFFFFFFFFFFFFFFFFFFFFFFFFFFFFFFFFFFFF AND PUSH20 0xFFFFFFFFFFFFFFFFFFFFFFFFFFFFFFFFFFFFFFFF AND DUP2 MSTORE PUSH1 0x20 ADD SWAP1 DUP2 MSTORE PUSH1 0x20 ADD PUSH1 0x0 KECCAK256 PUSH1 0x9 ADD PUSH1 0x0 SWAP1 SLOAD SWAP1 PUSH2 0x100 EXP SWAP1 DIV PUSH1 0xFF AND PUSH1 0x3 DUP2 GT ISZERO PUSH2 0x1BEA JUMPI PUSH2 0x1BE9 PUSH2 0x2E61 JUMP JUMPDEST JUMPDEST EQ PUSH2 0x1C2A JUMPI PUSH1 0x40 MLOAD PUSH32 0x8C379A000000000000000000000000000000000000000000000000000000000 DUP2 MSTORE PUSH1 0x4 ADD PUSH2 0x1C21 SWAP1 PUSH2 0x3832 JUMP JUMPDEST PUSH1 0x40 MLOAD DUP1 SWAP2 SUB SWAP1 REVERT JUMPDEST PUSH1 0xA PUSH1 0x0 DUP7 DUP2 MSTORE PUSH1 0x20 ADD SWAP1 DUP2 MSTORE PUSH1 0x20 ADD PUSH1 0x0 KECCAK256 PUSH1 0x0 DUP6 PUSH20 0xFFFFFFFFFFFFFFFFFFFFFFFFFFFFFFFFFFFFFFFF AND PUSH20 0xFFFFFFFFFFFFFFFFFFFFFFFFFFFFFFFFFFFFFFFF AND DUP2 MSTORE PUSH1 0x20 ADD SWAP1 DUP2 MSTORE PUSH1 0x20 ADD PUSH1 0x0 KECCAK256 PUSH1 0x0 SWAP1 SLOAD SWAP1 PUSH2 0x100 EXP SWAP1 DIV PUSH1 0xFF AND SWAP3 POP POP POP SWAP3 SWAP2 POP POP JUMP JUMPDEST PUSH1 0x0 DUP1 SLOAD SWAP1 PUSH2 0x100 EXP SWAP1 DIV PUSH20 0xFFFFFFFFFFFFFFFFFFFFFFFFFFFFFFFFFFFFFFFF AND DUP2 JUMP JUMPDEST PUSH1 0x2 SLOAD DUP2 JUMP JUMPDEST PUSH1 0x0 PUSH1 0x7 DUP3 PUSH1 0x40 MLOAD PUSH2 0x1CCE SWAP2 SWAP1 PUSH2 0x3EF7 JUMP JUMPDEST SWAP1 DUP2 MSTORE PUSH1 0x20 ADD PUSH1 0x40 MLOAD DUP1 SWAP2 SUB SWAP1 KECCAK256 PUSH1 0x0 SWAP1 SLOAD SWAP1 PUSH2 0x100 EXP SWAP1 DIV PUSH1 0xFF AND ISZERO SWAP1 POP SWAP2 SWAP1 POP JUMP JUMPDEST PUSH1 0x60 CALLER PUSH1 0x1 PUSH1 0x3 DUP2 GT ISZERO PUSH2 0x1D09 JUMPI PUSH2 0x1D08 PUSH2 0x2E61 JUMP JUMPDEST JUMPDEST PUSH1 0x5 PUSH1 0x0 DUP4 PUSH20 0xFFFFFFFFFFFFFFFFFFFFFFFFFFFFFFFFFFFFFFFF AND PUSH20 0xFFFFFFFFFFFFFFFFFFFFFFFFFFFFFFFFFFFFFFFF AND DUP2 MSTORE PUSH1 0x20 ADD SWAP1 DUP2 MSTORE PUSH1 0x20 ADD PUSH1 0x0 KECCAK256 PUSH1 0x9 ADD PUSH1 0x0 SWAP1 SLOAD SWAP1 PUSH2 0x100 EXP SWAP1 DIV PUSH1 0xFF AND PUSH1 0x3 DUP2 GT ISZERO PUSH2 0x1D6B JUMPI PUSH2 0x1D6A PUSH2 0x2E61 JUMP JUMPDEST JUMPDEST EQ PUSH2 0x1DAB JUMPI PUSH1 0x40 MLOAD PUSH32 0x8C379A000000000000000000000000000000000000000000000000000000000 DUP2 MSTORE PUSH1 0x4 ADD PUSH2 0x1DA2 SWAP1 PUSH2 0x3832 JUMP JUMPDEST PUSH1 0x40 MLOAD DUP1 SWAP2 SUB SWAP1 REVERT JUMPDEST DUP3 PUSH1 0x1 PUSH1 0x3 DUP2 GT ISZERO PUSH2 0x1DC0 JUMPI PUSH2 0x1DBF PUSH2 0x2E61 JUMP JUMPDEST JUMPDEST PUSH1 0x8 PUSH1 0x0 DUP4 DUP2 MSTORE PUSH1 0x20 ADD SWAP1 DUP2 MSTORE PUSH1 0x20 ADD PUSH1 0x0 KECCAK256 PUSH1 0x7 ADD PUSH1 0x0 SWAP1 SLOAD SWAP1 PUSH2 0x100 EXP SWAP1 DIV PUSH1 0xFF AND PUSH1 0x3 DUP2 GT ISZERO PUSH2 0x1DF6 JUMPI PUSH2 0x1DF5 PUSH2 0x2E61 JUMP JUMPDEST JUMPDEST EQ PUSH2 0x1E36 JUMPI PUSH1 0x40 MLOAD PUSH32 0x8C379A000000000000000000000000000000000000000000000000000000000 DUP2 MSTORE PUSH1 0x4 ADD PUSH2 0x1E2D SWAP1 PUSH2 0x389E JUMP JUMPDEST PUSH1 0x40 MLOAD DUP1 SWAP2 SUB SWAP1 REVERT JUMPDEST PUSH1 0x0 DUP6 PUSH1 0x1 DUP9 PUSH2 0x1E46 SWAP2 SWAP1 PUSH2 0x38ED JUMP JUMPDEST PUSH2 0x1E50 SWAP2 SWAP1 PUSH2 0x3D96 JUMP JUMPDEST SWAP1 POP PUSH1 0x0 DUP7 DUP3 PUSH2 0x1E60 SWAP2 SWAP1 PUSH2 0x3921 JUMP JUMPDEST SWAP1 POP PUSH1 0xD PUSH1 0x0 DUP8 DUP2 MSTORE PUSH1 0x20 ADD SWAP1 DUP2 MSTORE PUSH1 0x20 ADD PUSH1 0x0 KECCAK256 DUP1 SLOAD SWAP1 POP DUP2 GT ISZERO PUSH2 0x1E9A JUMPI PUSH1 0xD PUSH1 0x0 DUP8 DUP2 MSTORE PUSH1 0x20 ADD SWAP1 DUP2 MSTORE PUSH1 0x20 ADD PUSH1 0x0 KECCAK256 DUP1 SLOAD SWAP1 POP SWAP1 POP JUMPDEST PUSH1 0x0 DUP3 DUP3 PUSH2 0x1EA8 SWAP2 SWAP1 PUSH2 0x38ED JUMP JUMPDEST PUSH8 0xFFFFFFFFFFFFFFFF DUP2 GT ISZERO PUSH2 0x1EC1 JUMPI PUSH2 0x1EC0 PUSH2 0x2A58 JUMP JUMPDEST JUMPDEST PUSH1 0x40 MLOAD SWAP1 DUP1 DUP3 MSTORE DUP1 PUSH1 0x20 MUL PUSH1 0x20 ADD DUP3 ADD PUSH1 0x40 MSTORE DUP1 ISZERO PUSH2 0x1EFA JUMPI DUP2 PUSH1 0x20 ADD JUMPDEST PUSH2 0x1EE7 PUSH2 0x2959 JUMP JUMPDEST DUP2 MSTORE PUSH1 0x20 ADD SWAP1 PUSH1 0x1 SWAP1 SUB SWAP1 DUP2 PUSH2 0x1EDF JUMPI SWAP1 POP JUMPDEST POP SWAP1 POP PUSH1 0x0 DUP1 DUP5 SWAP1 POP JUMPDEST DUP4 DUP2 LT ISZERO PUSH2 0x20EE JUMPI PUSH1 0xD PUSH1 0x0 DUP11 DUP2 MSTORE PUSH1 0x20 ADD SWAP1 DUP2 MSTORE PUSH1 0x20 ADD PUSH1 0x0 KECCAK256 DUP2 DUP2 SLOAD DUP2 LT PUSH2 0x1F31 JUMPI PUSH2 0x1F30 PUSH2 0x3DD8 JUMP JUMPDEST JUMPDEST SWAP1 PUSH1 0x0 MSTORE PUSH1 0x20 PUSH1 0x0 KECCAK256 ADD SLOAD SWAP2 POP PUSH1 0xB PUSH1 0x0 DUP4 DUP2 MSTORE PUSH1 0x20 ADD SWAP1 DUP2 MSTORE PUSH1 0x20 ADD PUSH1 0x0 KECCAK256 PUSH1 0x40 MLOAD DUP1 PUSH2 0x100 ADD PUSH1 0x40 MSTORE SWAP1 DUP2 PUSH1 0x0 DUP3 ADD SLOAD DUP2 MSTORE PUSH1 0x20 ADD PUSH1 0x1 DUP3 ADD PUSH1 0x0 SWAP1 SLOAD SWAP1 PUSH2 0x100 EXP SWAP1 DIV PUSH20 0xFFFFFFFFFFFFFFFFFFFFFFFFFFFFFFFFFFFFFFFF AND PUSH20 0xFFFFFFFFFFFFFFFFFFFFFFFFFFFFFFFFFFFFFFFF AND PUSH20 0xFFFFFFFFFFFFFFFFFFFFFFFFFFFFFFFFFFFFFFFF AND DUP2 MSTORE PUSH1 0x20 ADD PUSH1 0x2 DUP3 ADD SLOAD DUP2 MSTORE PUSH1 0x20 ADD PUSH1 0x3 DUP3 ADD DUP1 SLOAD PUSH2 0x1FD7 SWAP1 PUSH2 0x3984 JUMP JUMPDEST DUP1 PUSH1 0x1F ADD PUSH1 0x20 DUP1 SWAP2 DIV MUL PUSH1 0x20 ADD PUSH1 0x40 MLOAD SWAP1 DUP2 ADD PUSH1 0x40 MSTORE DUP1 SWAP3 SWAP2 SWAP1 DUP2 DUP2 MSTORE PUSH1 0x20 ADD DUP3 DUP1 SLOAD PUSH2 0x2003 SWAP1 PUSH2 0x3984 JUMP JUMPDEST DUP1 ISZERO PUSH2 0x2050 JUMPI DUP1 PUSH1 0x1F LT PUSH2 0x2025 JUMPI PUSH2 0x100 DUP1 DUP4 SLOAD DIV MUL DUP4 MSTORE SWAP2 PUSH1 0x20 ADD SWAP2 PUSH2 0x2050 JUMP JUMPDEST DUP3 ADD SWAP2 SWAP1 PUSH1 0x0 MSTORE PUSH1 0x20 PUSH1 0x0 KECCAK256 SWAP1 JUMPDEST DUP2 SLOAD DUP2 MSTORE SWAP1 PUSH1 0x1 ADD SWAP1 PUSH1 0x20 ADD DUP1 DUP4 GT PUSH2 0x2033 JUMPI DUP3 SWAP1 SUB PUSH1 0x1F AND DUP3 ADD SWAP2 JUMPDEST POP POP POP POP POP DUP2 MSTORE PUSH1 0x20 ADD PUSH1 0x4 DUP3 ADD SLOAD DUP2 MSTORE PUSH1 0x20 ADD PUSH1 0x5 DUP3 ADD SLOAD DUP2 MSTORE PUSH1 0x20 ADD PUSH1 0x6 DUP3 ADD SLOAD DUP2 MSTORE PUSH1 0x20 ADD PUSH1 0x7 DUP3 ADD PUSH1 0x0 SWAP1 SLOAD SWAP1 PUSH2 0x100 EXP SWAP1 DIV PUSH1 0xFF AND PUSH1 0x3 DUP2 GT ISZERO PUSH2 0x209C JUMPI PUSH2 0x209B PUSH2 0x2E61 JUMP JUMPDEST JUMPDEST PUSH1 0x3 DUP2 GT ISZERO PUSH2 0x20AE JUMPI PUSH2 0x20AD PUSH2 0x2E61 JUMP JUMPDEST JUMPDEST DUP2 MSTORE POP POP DUP4 DUP7 DUP4 PUSH2 0x20BF SWAP2 SWAP1 PUSH2 0x38ED JUMP JUMPDEST DUP2 MLOAD DUP2 LT PUSH2 0x20D0 JUMPI PUSH2 0x20CF PUSH2 0x3DD8 JUMP JUMPDEST JUMPDEST PUSH1 0x20 MUL PUSH1 0x20 ADD ADD DUP2 SWAP1 MSTORE POP DUP1 DUP1 PUSH2 0x20E6 SWAP1 PUSH2 0x3E07 JUMP JUMPDEST SWAP2 POP POP PUSH2 0x1F04 JUMP JUMPDEST POP DUP2 SWAP7 POP POP POP POP POP POP POP SWAP4 SWAP3 POP POP POP JUMP JUMPDEST PUSH1 0x1 SLOAD DUP2 JUMP JUMPDEST PUSH1 0x60 CALLER PUSH1 0x1 PUSH1 0x3 DUP2 GT ISZERO PUSH2 0x211C JUMPI PUSH2 0x211B PUSH2 0x2E61 JUMP JUMPDEST JUMPDEST PUSH1 0x5 PUSH1 0x0 DUP4 PUSH20 0xFFFFFFFFFFFFFFFFFFFFFFFFFFFFFFFFFFFFFFFF AND PUSH20 0xFFFFFFFFFFFFFFFFFFFFFFFFFFFFFFFFFFFFFFFF AND DUP2 MSTORE PUSH1 0x20 ADD SWAP1 DUP2 MSTORE PUSH1 0x20 ADD PUSH1 0x0 KECCAK256 PUSH1 0x9 ADD PUSH1 0x0 SWAP1 SLOAD SWAP1 PUSH2 0x100 EXP SWAP1 DIV PUSH1 0xFF AND PUSH1 0x3 DUP2 GT ISZERO PUSH2 0x217E JUMPI PUSH2 0x217D PUSH2 0x2E61 JUMP JUMPDEST JUMPDEST EQ PUSH2 0x21BE JUMPI PUSH1 0x40 MLOAD PUSH32 0x8C379A000000000000000000000000000000000000000000000000000000000 DUP2 MSTORE PUSH1 0x4 ADD PUSH2 0x21B5 SWAP1 PUSH2 0x3832 JUMP JUMPDEST PUSH1 0x40 MLOAD DUP1 SWAP2 SUB SWAP1 REVERT JUMPDEST PUSH1 0x0 PUSH1 0x9 PUSH1 0x0 CALLER PUSH20 0xFFFFFFFFFFFFFFFFFFFFFFFFFFFFFFFFFFFFFFFF AND PUSH20 0xFFFFFFFFFFFFFFFFFFFFFFFFFFFFFFFFFFFFFFFF AND DUP2 MSTORE PUSH1 0x20 ADD SWAP1 DUP2 MSTORE PUSH1 0x20 ADD PUSH1 0x0 KECCAK256 DUP1 SLOAD DUP1 PUSH1 0x20 MUL PUSH1 0x20 ADD PUSH1 0x40 MLOAD SWAP1 DUP2 ADD PUSH1 0x40 MSTORE DUP1 SWAP3 SWAP2 SWAP1 DUP2 DUP2 MSTORE PUSH1 0x20 ADD DUP3 DUP1 SLOAD DUP1 ISZERO PUSH2 0x2249 JUMPI PUSH1 0x20 MUL DUP3 ADD SWAP2 SWAP1 PUSH1 0x0 MSTORE PUSH1 0x20 PUSH1 0x0 KECCAK256 SWAP1 JUMPDEST DUP2 SLOAD DUP2 MSTORE PUSH1 0x20 ADD SWAP1 PUSH1 0x1 ADD SWAP1 DUP1 DUP4 GT PUSH2 0x2235 JUMPI JUMPDEST POP POP POP POP POP SWAP1 POP PUSH1 0x0 DUP2 MLOAD PUSH8 0xFFFFFFFFFFFFFFFF DUP2 GT ISZERO PUSH2 0x226D JUMPI PUSH2 0x226C PUSH2 0x2A58 JUMP JUMPDEST JUMPDEST PUSH1 0x40 MLOAD SWAP1 DUP1 DUP3 MSTORE DUP1 PUSH1 0x20 MUL PUSH1 0x20 ADD DUP3 ADD PUSH1 0x40 MSTORE DUP1 ISZERO PUSH2 0x22A6 JUMPI DUP2 PUSH1 0x20 ADD JUMPDEST PUSH2 0x2293 PUSH2 0x28EC JUMP JUMPDEST DUP2 MSTORE PUSH1 0x20 ADD SWAP1 PUSH1 0x1 SWAP1 SUB SWAP1 DUP2 PUSH2 0x228B JUMPI SWAP1 POP JUMPDEST POP SWAP1 POP PUSH1 0x0 JUMPDEST DUP3 MLOAD DUP2 LT ISZERO PUSH2 0x24FC JUMPI PUSH1 0x8 PUSH1 0x0 DUP5 DUP4 DUP2 MLOAD DUP2 LT PUSH2 0x22CC JUMPI PUSH2 0x22CB PUSH2 0x3DD8 JUMP JUMPDEST JUMPDEST PUSH1 0x20 MUL PUSH1 0x20 ADD ADD MLOAD DUP2 MSTORE PUSH1 0x20 ADD SWAP1 DUP2 MSTORE PUSH1 0x20 ADD PUSH1 0x0 KECCAK256 PUSH1 0x40 MLOAD DUP1 PUSH2 0x100 ADD PUSH1 0x40 MSTORE SWAP1 DUP2 PUSH1 0x0 DUP3 ADD SLOAD DUP2 MSTORE PUSH1 0x20 ADD PUSH1 0x1 DUP3 ADD PUSH1 0x0 SWAP1 SLOAD SWAP1 PUSH2 0x100 EXP SWAP1 DIV PUSH20 0xFFFFFFFFFFFFFFFFFFFFFFFFFFFFFFFFFFFFFFFF AND PUSH20 0xFFFFFFFFFFFFFFFFFFFFFFFFFFFFFFFFFFFFFFFF AND PUSH20 0xFFFFFFFFFFFFFFFFFFFFFFFFFFFFFFFFFFFFFFFF AND DUP2 MSTORE PUSH1 0x20 ADD PUSH1 0x2 DUP3 ADD DUP1 SLOAD PUSH2 0x235E SWAP1 PUSH2 0x3984 JUMP JUMPDEST DUP1 PUSH1 0x1F ADD PUSH1 0x20 DUP1 SWAP2 DIV MUL PUSH1 0x20 ADD PUSH1 0x40 MLOAD SWAP1 DUP2 ADD PUSH1 0x40 MSTORE DUP1 SWAP3 SWAP2 SWAP1 DUP2 DUP2 MSTORE PUSH1 0x20 ADD DUP3 DUP1 SLOAD PUSH2 0x238A SWAP1 PUSH2 0x3984 JUMP JUMPDEST DUP1 ISZERO PUSH2 0x23D7 JUMPI DUP1 PUSH1 0x1F LT PUSH2 0x23AC JUMPI PUSH2 0x100 DUP1 DUP4 SLOAD DIV MUL DUP4 MSTORE SWAP2 PUSH1 0x20 ADD SWAP2 PUSH2 0x23D7 JUMP JUMPDEST DUP3 ADD SWAP2 SWAP1 PUSH1 0x0 MSTORE PUSH1 0x20 PUSH1 0x0 KECCAK256 SWAP1 JUMPDEST DUP2 SLOAD DUP2 MSTORE SWAP1 PUSH1 0x1 ADD SWAP1 PUSH1 0x20 ADD DUP1 DUP4 GT PUSH2 0x23BA JUMPI DUP3 SWAP1 SUB PUSH1 0x1F AND DUP3 ADD SWAP2 JUMPDEST POP POP POP POP POP DUP2 MSTORE PUSH1 0x20 ADD PUSH1 0x3 DUP3 ADD DUP1 SLOAD PUSH2 0x23F0 SWAP1 PUSH2 0x3984 JUMP JUMPDEST DUP1 PUSH1 0x1F ADD PUSH1 0x20 DUP1 SWAP2 DIV MUL PUSH1 0x20 ADD PUSH1 0x40 MLOAD SWAP1 DUP2 ADD PUSH1 0x40 MSTORE DUP1 SWAP3 SWAP2 SWAP1 DUP2 DUP2 MSTORE PUSH1 0x20 ADD DUP3 DUP1 SLOAD PUSH2 0x241C SWAP1 PUSH2 0x3984 JUMP JUMPDEST DUP1 ISZERO PUSH2 0x2469 JUMPI DUP1 PUSH1 0x1F LT PUSH2 0x243E JUMPI PUSH2 0x100 DUP1 DUP4 SLOAD DIV MUL DUP4 MSTORE SWAP2 PUSH1 0x20 ADD SWAP2 PUSH2 0x2469 JUMP JUMPDEST DUP3 ADD SWAP2 SWAP1 PUSH1 0x0 MSTORE PUSH1 0x20 PUSH1 0x0 KECCAK256 SWAP1 JUMPDEST DUP2 SLOAD DUP2 MSTORE SWAP1 PUSH1 0x1 ADD SWAP1 PUSH1 0x20 ADD DUP1 DUP4 GT PUSH2 0x244C JUMPI DUP3 SWAP1 SUB PUSH1 0x1F AND DUP3 ADD SWAP2 JUMPDEST POP POP POP POP POP DUP2 MSTORE PUSH1 0x20 ADD PUSH1 0x4 DUP3 ADD SLOAD DUP2 MSTORE PUSH1 0x20 ADD PUSH1 0x5 DUP3 ADD SLOAD DUP2 MSTORE PUSH1 0x20 ADD PUSH1 0x6 DUP3 ADD SLOAD DUP2 MSTORE PUSH1 0x20 ADD PUSH1 0x7 DUP3 ADD PUSH1 0x0 SWAP1 SLOAD SWAP1 PUSH2 0x100 EXP SWAP1 DIV PUSH1 0xFF AND PUSH1 0x3 DUP2 GT ISZERO PUSH2 0x24B5 JUMPI PUSH2 0x24B4 PUSH2 0x2E61 JUMP JUMPDEST JUMPDEST PUSH1 0x3 DUP2 GT ISZERO PUSH2 0x24C7 JUMPI PUSH2 0x24C6 PUSH2 0x2E61 JUMP JUMPDEST JUMPDEST DUP2 MSTORE POP POP DUP3 DUP3 DUP2 MLOAD DUP2 LT PUSH2 0x24DE JUMPI PUSH2 0x24DD PUSH2 0x3DD8 JUMP JUMPDEST JUMPDEST PUSH1 0x20 MUL PUSH1 0x20 ADD ADD DUP2 SWAP1 MSTORE POP DUP1 DUP1 PUSH2 0x24F4 SWAP1 PUSH2 0x3E07 JUMP JUMPDEST SWAP2 POP POP PUSH2 0x22AC JUMP JUMPDEST POP DUP1 SWAP4 POP POP POP POP SWAP1 JUMP JUMPDEST CALLER PUSH1 0x0 PUSH1 0x3 DUP2 GT ISZERO PUSH2 0x251B JUMPI PUSH2 0x251A PUSH2 0x2E61 JUMP JUMPDEST JUMPDEST PUSH1 0x5 PUSH1 0x0 DUP4 PUSH20 0xFFFFFFFFFFFFFFFFFFFFFFFFFFFFFFFFFFFFFFFF AND PUSH20 0xFFFFFFFFFFFFFFFFFFFFFFFFFFFFFFFFFFFFFFFF AND DUP2 MSTORE PUSH1 0x20 ADD SWAP1 DUP2 MSTORE PUSH1 0x20 ADD PUSH1 0x0 KECCAK256 PUSH1 0x9 ADD PUSH1 0x0 SWAP1 SLOAD SWAP1 PUSH2 0x100 EXP SWAP1 DIV PUSH1 0xFF AND PUSH1 0x3 DUP2 GT ISZERO PUSH2 0x257D JUMPI PUSH2 0x257C PUSH2 0x2E61 JUMP JUMPDEST JUMPDEST EQ PUSH2 0x25BD JUMPI PUSH1 0x40 MLOAD PUSH32 0x8C379A000000000000000000000000000000000000000000000000000000000 DUP2 MSTORE PUSH1 0x4 ADD PUSH2 0x25B4 SWAP1 PUSH2 0x3F5A JUMP JUMPDEST PUSH1 0x40 MLOAD DUP1 SWAP2 SUB SWAP1 REVERT JUMPDEST DUP8 PUSH1 0x7 DUP2 PUSH1 0x40 MLOAD PUSH2 0x25CE SWAP2 SWAP1 PUSH2 0x3EF7 JUMP JUMPDEST SWAP1 DUP2 MSTORE PUSH1 0x20 ADD PUSH1 0x40 MLOAD DUP1 SWAP2 SUB SWAP1 KECCAK256 PUSH1 0x0 SWAP1 SLOAD SWAP1 PUSH2 0x100 EXP SWAP1 DIV PUSH1 0xFF AND ISZERO PUSH2 0x262A JUMPI PUSH1 0x40 MLOAD PUSH32 0x8C379A000000000000000000000000000000000000000000000000000000000 DUP2 MSTORE PUSH1 0x4 ADD PUSH2 0x2621 SWAP1 PUSH2 0x3FC6 JUMP JUMPDEST PUSH1 0x40 MLOAD DUP1 SWAP2 SUB SWAP1 REVERT JUMPDEST PUSH1 0x1 PUSH1 0x7 DUP11 PUSH1 0x40 MLOAD PUSH2 0x263C SWAP2 SWAP1 PUSH2 0x3EF7 JUMP JUMPDEST SWAP1 DUP2 MSTORE PUSH1 0x20 ADD PUSH1 0x40 MLOAD DUP1 SWAP2 SUB SWAP1 KECCAK256 PUSH1 0x0 PUSH2 0x100 EXP DUP2 SLOAD DUP2 PUSH1 0xFF MUL NOT AND SWAP1 DUP4 ISZERO ISZERO MUL OR SWAP1 SSTORE POP PUSH1 0x1 DUP1 SLOAD PUSH2 0x266F SWAP2 SWAP1 PUSH2 0x3921 JUMP JUMPDEST PUSH1 0x1 DUP2 SWAP1 SSTORE POP PUSH1 0x0 PUSH1 0x1 SLOAD SWAP1 POP PUSH1 0x40 MLOAD DUP1 PUSH2 0x140 ADD PUSH1 0x40 MSTORE DUP1 DUP3 DUP2 MSTORE PUSH1 0x20 ADD CALLER PUSH20 0xFFFFFFFFFFFFFFFFFFFFFFFFFFFFFFFFFFFFFFFF AND DUP2 MSTORE PUSH1 0x20 ADD DUP12 DUP2 MSTORE PUSH1 0x20 ADD DUP11 DUP2 MSTORE PUSH1 0x20 ADD DUP8 DUP2 MSTORE PUSH1 0x20 ADD DUP7 DUP2 MSTORE PUSH1 0x20 ADD DUP6 ISZERO ISZERO DUP2 MSTORE PUSH1 0x20 ADD DUP10 DUP2 MSTORE PUSH1 0x20 ADD DUP9 DUP2 MSTORE PUSH1 0x20 ADD PUSH1 0x1 PUSH1 0x3 DUP2 GT ISZERO PUSH2 0x26EA JUMPI PUSH2 0x26E9 PUSH2 0x2E61 JUMP JUMPDEST JUMPDEST DUP2 MSTORE POP PUSH1 0x5 PUSH1 0x0 CALLER PUSH20 0xFFFFFFFFFFFFFFFFFFFFFFFFFFFFFFFFFFFFFFFF AND PUSH20 0xFFFFFFFFFFFFFFFFFFFFFFFFFFFFFFFFFFFFFFFF AND DUP2 MSTORE PUSH1 0x20 ADD SWAP1 DUP2 MSTORE PUSH1 0x20 ADD PUSH1 0x0 KECCAK256 PUSH1 0x0 DUP3 ADD MLOAD DUP2 PUSH1 0x0 ADD SSTORE PUSH1 0x20 DUP3 ADD MLOAD DUP2 PUSH1 0x1 ADD PUSH1 0x0 PUSH2 0x100 EXP DUP2 SLOAD DUP2 PUSH20 0xFFFFFFFFFFFFFFFFFFFFFFFFFFFFFFFFFFFFFFFF MUL NOT AND SWAP1 DUP4 PUSH20 0xFFFFFFFFFFFFFFFFFFFFFFFFFFFFFFFFFFFFFFFF AND MUL OR SWAP1 SSTORE POP PUSH1 0x40 DUP3 ADD MLOAD DUP2 PUSH1 0x2 ADD SWAP1 DUP2 PUSH2 0x2792 SWAP2 SWAP1 PUSH2 0x3B61 JUMP JUMPDEST POP PUSH1 0x60 DUP3 ADD MLOAD DUP2 PUSH1 0x3 ADD SWAP1 DUP2 PUSH2 0x27A8 SWAP2 SWAP1 PUSH2 0x3B61 JUMP JUMPDEST POP PUSH1 0x80 DUP3 ADD MLOAD DUP2 PUSH1 0x4 ADD SWAP1 DUP2 PUSH2 0x27BE SWAP2 SWAP1 PUSH2 0x3B61 JUMP JUMPDEST POP PUSH1 0xA0 DUP3 ADD MLOAD DUP2 PUSH1 0x5 ADD SSTORE PUSH1 0xC0 DUP3 ADD MLOAD DUP2 PUSH1 0x6 ADD PUSH1 0x0 PUSH2 0x100 EXP DUP2 SLOAD DUP2 PUSH1 0xFF MUL NOT AND SWAP1 DUP4 ISZERO ISZERO MUL OR SWAP1 SSTORE POP PUSH1 0xE0 DUP3 ADD MLOAD DUP2 PUSH1 0x7 ADD SWAP1 DUP2 PUSH2 0x27FE SWAP2 SWAP1 PUSH2 0x3B61 JUMP JUMPDEST POP PUSH2 0x100 DUP3 ADD MLOAD DUP2 PUSH1 0x8 ADD SWAP1 DUP2 PUSH2 0x2815 SWAP2 SWAP1 PUSH2 0x3B61 JUMP JUMPDEST POP PUSH2 0x120 DUP3 ADD MLOAD DUP2 PUSH1 0x9 ADD PUSH1 0x0 PUSH2 0x100 EXP DUP2 SLOAD DUP2 PUSH1 0xFF MUL NOT AND SWAP1 DUP4 PUSH1 0x3 DUP2 GT ISZERO PUSH2 0x2842 JUMPI PUSH2 0x2841 PUSH2 0x2E61 JUMP JUMPDEST JUMPDEST MUL OR SWAP1 SSTORE POP SWAP1 POP POP CALLER PUSH1 0x6 DUP12 PUSH1 0x40 MLOAD PUSH2 0x285B SWAP2 SWAP1 PUSH2 0x3EF7 JUMP JUMPDEST SWAP1 DUP2 MSTORE PUSH1 0x20 ADD PUSH1 0x40 MLOAD DUP1 SWAP2 SUB SWAP1 KECCAK256 PUSH1 0x0 PUSH2 0x100 EXP DUP2 SLOAD DUP2 PUSH20 0xFFFFFFFFFFFFFFFFFFFFFFFFFFFFFFFFFFFFFFFF MUL NOT AND SWAP1 DUP4 PUSH20 0xFFFFFFFFFFFFFFFFFFFFFFFFFFFFFFFFFFFFFFFF AND MUL OR SWAP1 SSTORE POP PUSH32 0xABC58C36475157C4AC7669F9ADFBB6F254D3A3578FB89676F6866AC3B9950EED CALLER DUP3 PUSH1 0x40 MLOAD PUSH2 0x28D8 SWAP3 SWAP2 SWAP1 PUSH2 0x3FE6 JUMP JUMPDEST PUSH1 0x40 MLOAD DUP1 SWAP2 SUB SWAP1 LOG1 POP POP POP POP POP POP POP POP POP POP JUMP JUMPDEST PUSH1 0x40 MLOAD DUP1 PUSH2 0x100 ADD PUSH1 0x40 MSTORE DUP1 PUSH1 0x0 DUP2 MSTORE PUSH1 0x20 ADD PUSH1 0x0 PUSH20 0xFFFFFFFFFFFFFFFFFFFFFFFFFFFFFFFFFFFFFFFF AND DUP2 MSTORE PUSH1 0x20 ADD PUSH1 0x60 DUP2 MSTORE PUSH1 0x20 ADD PUSH1 0x60 DUP2 MSTORE PUSH1 0x20 ADD PUSH1 0x0 DUP2 MSTORE PUSH1 0x20 ADD PUSH1 0x0 DUP2 MSTORE PUSH1 0x20 ADD PUSH1 0x0 DUP2 MSTORE PUSH1 0x20 ADD PUSH1 0x0 PUSH1 0x3 DUP2 GT ISZERO PUSH2 0x2953 JUMPI PUSH2 0x2952 PUSH2 0x2E61 JUMP JUMPDEST JUMPDEST DUP2 MSTORE POP SWAP1 JUMP JUMPDEST PUSH1 0x40 MLOAD DUP1 PUSH2 0x100 ADD PUSH1 0x40 MSTORE DUP1 PUSH1 0x0 DUP2 MSTORE PUSH1 0x20 ADD PUSH1 0x0 PUSH20 0xFFFFFFFFFFFFFFFFFFFFFFFFFFFFFFFFFFFFFFFF AND DUP2 MSTORE PUSH1 0x20 ADD PUSH1 0x0 DUP2 MSTORE PUSH1 0x20 ADD PUSH1 0x60 DUP2 MSTORE PUSH1 0x20 ADD PUSH1 0x0 DUP2 MSTORE PUSH1 0x20 ADD PUSH1 0x0 DUP2 MSTORE PUSH1 0x20 ADD PUSH1 0x0 DUP2 MSTORE PUSH1 0x20 ADD PUSH1 0x0 PUSH1 0x3 DUP2 GT ISZERO PUSH2 0x29C0 JUMPI PUSH2 0x29BF PUSH2 0x2E61 JUMP JUMPDEST JUMPDEST DUP2 MSTORE POP SWAP1 JUMP JUMPDEST PUSH1 0x0 PUSH1 0x40 MLOAD SWAP1 POP SWAP1 JUMP JUMPDEST PUSH1 0x0 DUP1 REVERT JUMPDEST PUSH1 0x0 DUP1 REVERT JUMPDEST PUSH1 0x0 DUP2 SWAP1 POP SWAP2 SWAP1 POP JUMP JUMPDEST PUSH2 0x29ED DUP2 PUSH2 0x29DA JUMP JUMPDEST DUP2 EQ PUSH2 0x29F8 JUMPI PUSH1 0x0 DUP1 REVERT JUMPDEST POP JUMP JUMPDEST PUSH1 0x0 DUP2 CALLDATALOAD SWAP1 POP PUSH2 0x2A0A DUP2 PUSH2 0x29E4 JUMP JUMPDEST SWAP3 SWAP2 POP POP JUMP JUMPDEST PUSH1 0x0 PUSH1 0x20 DUP3 DUP5 SUB SLT ISZERO PUSH2 0x2A26 JUMPI PUSH2 0x2A25 PUSH2 0x29D0 JUMP JUMPDEST JUMPDEST PUSH1 0x0 PUSH2 0x2A34 DUP5 DUP3 DUP6 ADD PUSH2 0x29FB JUMP JUMPDEST SWAP2 POP POP SWAP3 SWAP2 POP POP JUMP JUMPDEST PUSH1 0x0 DUP1 REVERT JUMPDEST PUSH1 0x0 DUP1 REVERT JUMPDEST PUSH1 0x0 PUSH1 0x1F NOT PUSH1 0x1F DUP4 ADD AND SWAP1 POP SWAP2 SWAP1 POP JUMP JUMPDEST PUSH32 0x4E487B7100000000000000000000000000000000000000000000000000000000 PUSH1 0x0 MSTORE PUSH1 0x41 PUSH1 0x4 MSTORE PUSH1 0x24 PUSH1 0x0 REVERT JUMPDEST PUSH2 0x2A90 DUP3 PUSH2 0x2A47 JUMP JUMPDEST DUP2 ADD DUP2 DUP2 LT PUSH8 0xFFFFFFFFFFFFFFFF DUP3 GT OR ISZERO PUSH2 0x2AAF JUMPI PUSH2 0x2AAE PUSH2 0x2A58 JUMP JUMPDEST JUMPDEST DUP1 PUSH1 0x40 MSTORE POP POP POP JUMP JUMPDEST PUSH1 0x0 PUSH2 0x2AC2 PUSH2 0x29C6 JUMP JUMPDEST SWAP1 POP PUSH2 0x2ACE DUP3 DUP3 PUSH2 0x2A87 JUMP JUMPDEST SWAP2 SWAP1 POP JUMP JUMPDEST PUSH1 0x0 PUSH8 0xFFFFFFFFFFFFFFFF DUP3 GT ISZERO PUSH2 0x2AEE JUMPI PUSH2 0x2AED PUSH2 0x2A58 JUMP JUMPDEST JUMPDEST PUSH2 0x2AF7 DUP3 PUSH2 0x2A47 JUMP JUMPDEST SWAP1 POP PUSH1 0x20 DUP2 ADD SWAP1 POP SWAP2 SWAP1 POP JUMP JUMPDEST DUP3 DUP2 DUP4 CALLDATACOPY PUSH1 0x0 DUP4 DUP4 ADD MSTORE POP POP POP JUMP JUMPDEST PUSH1 0x0 PUSH2 0x2B26 PUSH2 0x2B21 DUP5 PUSH2 0x2AD3 JUMP JUMPDEST PUSH2 0x2AB8 JUMP JUMPDEST SWAP1 POP DUP3 DUP2 MSTORE PUSH1 0x20 DUP2 ADD DUP5 DUP5 DUP5 ADD GT ISZERO PUSH2 0x2B42 JUMPI PUSH2 0x2B41 PUSH2 0x2A42 JUMP JUMPDEST JUMPDEST PUSH2 0x2B4D DUP5 DUP3 DUP6 PUSH2 0x2B04 JUMP JUMPDEST POP SWAP4 SWAP3 POP POP POP JUMP JUMPDEST PUSH1 0x0 DUP3 PUSH1 0x1F DUP4 ADD SLT PUSH2 0x2B6A JUMPI PUSH2 0x2B69 PUSH2 0x2A3D JUMP JUMPDEST JUMPDEST DUP2 CALLDATALOAD PUSH2 0x2B7A DUP5 DUP3 PUSH1 0x20 DUP7 ADD PUSH2 0x2B13 JUMP JUMPDEST SWAP2 POP POP SWAP3 SWAP2 POP POP JUMP JUMPDEST PUSH1 0x0 DUP1 PUSH1 0x40 DUP4 DUP6 SUB SLT ISZERO PUSH2 0x2B9A JUMPI PUSH2 0x2B99 PUSH2 0x29D0 JUMP JUMPDEST JUMPDEST PUSH1 0x0 DUP4 ADD CALLDATALOAD PUSH8 0xFFFFFFFFFFFFFFFF DUP2 GT ISZERO PUSH2 0x2BB8 JUMPI PUSH2 0x2BB7 PUSH2 0x29D5 JUMP JUMPDEST JUMPDEST PUSH2 0x2BC4 DUP6 DUP3 DUP7 ADD PUSH2 0x2B55 JUMP JUMPDEST SWAP3 POP POP PUSH1 0x20 DUP4 ADD CALLDATALOAD PUSH8 0xFFFFFFFFFFFFFFFF DUP2 GT ISZERO PUSH2 0x2BE5 JUMPI PUSH2 0x2BE4 PUSH2 0x29D5 JUMP JUMPDEST JUMPDEST PUSH2 0x2BF1 DUP6 DUP3 DUP7 ADD PUSH2 0x2B55 JUMP JUMPDEST SWAP2 POP POP SWAP3 POP SWAP3 SWAP1 POP JUMP JUMPDEST PUSH1 0x0 DUP1 PUSH1 0x40 DUP4 DUP6 SUB SLT ISZERO PUSH2 0x2C12 JUMPI PUSH2 0x2C11 PUSH2 0x29D0 JUMP JUMPDEST JUMPDEST PUSH1 0x0 PUSH2 0x2C20 DUP6 DUP3 DUP7 ADD PUSH2 0x29FB JUMP JUMPDEST SWAP3 POP POP PUSH1 0x20 DUP4 ADD CALLDATALOAD PUSH8 0xFFFFFFFFFFFFFFFF DUP2 GT ISZERO PUSH2 0x2C41 JUMPI PUSH2 0x2C40 PUSH2 0x29D5 JUMP JUMPDEST JUMPDEST PUSH2 0x2C4D DUP6 DUP3 DUP7 ADD PUSH2 0x2B55 JUMP JUMPDEST SWAP2 POP POP SWAP3 POP SWAP3 SWAP1 POP JUMP JUMPDEST PUSH1 0x0 DUP1 PUSH1 0x40 DUP4 DUP6 SUB SLT ISZERO PUSH2 0x2C6E JUMPI PUSH2 0x2C6D PUSH2 0x29D0 JUMP JUMPDEST JUMPDEST PUSH1 0x0 PUSH2 0x2C7C DUP6 DUP3 DUP7 ADD PUSH2 0x29FB JUMP JUMPDEST SWAP3 POP POP PUSH1 0x20 PUSH2 0x2C8D DUP6 DUP3 DUP7 ADD PUSH2 0x29FB JUMP JUMPDEST SWAP2 POP POP SWAP3 POP SWAP3 SWAP1 POP JUMP JUMPDEST PUSH1 0x0 DUP2 MLOAD SWAP1 POP SWAP2 SWAP1 POP JUMP JUMPDEST PUSH1 0x0 DUP3 DUP3 MSTORE PUSH1 0x20 DUP3 ADD SWAP1 POP SWAP3 SWAP2 POP POP JUMP JUMPDEST PUSH1 0x0 DUP2 SWAP1 POP PUSH1 0x20 DUP3 ADD SWAP1 POP SWAP2 SWAP1 POP JUMP JUMPDEST PUSH2 0x2CCC DUP2 PUSH2 0x29DA JUMP JUMPDEST DUP3 MSTORE POP POP JUMP JUMPDEST PUSH1 0x0 PUSH2 0x2CDE DUP4 DUP4 PUSH2 0x2CC3 JUMP JUMPDEST PUSH1 0x20 DUP4 ADD SWAP1 POP SWAP3 SWAP2 POP POP JUMP JUMPDEST PUSH1 0x0 PUSH1 0x20 DUP3 ADD SWAP1 POP SWAP2 SWAP1 POP JUMP JUMPDEST PUSH1 0x0 PUSH2 0x2D02 DUP3 PUSH2 0x2C97 JUMP JUMPDEST PUSH2 0x2D0C DUP2 DUP6 PUSH2 0x2CA2 JUMP JUMPDEST SWAP4 POP PUSH2 0x2D17 DUP4 PUSH2 0x2CB3 JUMP JUMPDEST DUP1 PUSH1 0x0 JUMPDEST DUP4 DUP2 LT ISZERO PUSH2 0x2D48 JUMPI DUP2 MLOAD PUSH2 0x2D2F DUP9 DUP3 PUSH2 0x2CD2 JUMP JUMPDEST SWAP8 POP PUSH2 0x2D3A DUP4 PUSH2 0x2CEA JUMP JUMPDEST SWAP3 POP POP PUSH1 0x1 DUP2 ADD SWAP1 POP PUSH2 0x2D1B JUMP JUMPDEST POP DUP6 SWAP4 POP POP POP POP SWAP3 SWAP2 POP POP JUMP JUMPDEST PUSH1 0x0 PUSH1 0x20 DUP3 ADD SWAP1 POP DUP2 DUP2 SUB PUSH1 0x0 DUP4 ADD MSTORE PUSH2 0x2D6F DUP2 DUP5 PUSH2 0x2CF7 JUMP JUMPDEST SWAP1 POP SWAP3 SWAP2 POP POP JUMP JUMPDEST PUSH2 0x2D80 DUP2 PUSH2 0x29DA JUMP JUMPDEST DUP3 MSTORE POP POP JUMP JUMPDEST PUSH1 0x0 PUSH1 0x20 DUP3 ADD SWAP1 POP PUSH2 0x2D9B PUSH1 0x0 DUP4 ADD DUP5 PUSH2 0x2D77 JUMP JUMPDEST SWAP3 SWAP2 POP POP JUMP JUMPDEST PUSH1 0x0 PUSH20 0xFFFFFFFFFFFFFFFFFFFFFFFFFFFFFFFFFFFFFFFF DUP3 AND SWAP1 POP SWAP2 SWAP1 POP JUMP JUMPDEST PUSH1 0x0 PUSH2 0x2DCC DUP3 PUSH2 0x2DA1 JUMP JUMPDEST SWAP1 POP SWAP2 SWAP1 POP JUMP JUMPDEST PUSH2 0x2DDC DUP2 PUSH2 0x2DC1 JUMP JUMPDEST DUP3 MSTORE POP POP JUMP JUMPDEST PUSH1 0x0 DUP2 MLOAD SWAP1 POP SWAP2 SWAP1 POP JUMP JUMPDEST PUSH1 0x0 DUP3 DUP3 MSTORE PUSH1 0x20 DUP3 ADD SWAP1 POP SWAP3 SWAP2 POP POP JUMP JUMPDEST PUSH1 0x0 JUMPDEST DUP4 DUP2 LT ISZERO PUSH2 0x2E1C JUMPI DUP1 DUP3 ADD MLOAD DUP2 DUP5 ADD MSTORE PUSH1 0x20 DUP2 ADD SWAP1 POP PUSH2 0x2E01 JUMP JUMPDEST PUSH1 0x0 DUP5 DUP5 ADD MSTORE POP POP POP POP JUMP JUMPDEST PUSH1 0x0 PUSH2 0x2E33 DUP3 PUSH2 0x2DE2 JUMP JUMPDEST PUSH2 0x2E3D DUP2 DUP6 PUSH2 0x2DED JUMP JUMPDEST SWAP4 POP PUSH2 0x2E4D DUP2 DUP6 PUSH1 0x20 DUP7 ADD PUSH2 0x2DFE JUMP JUMPDEST PUSH2 0x2E56 DUP2 PUSH2 0x2A47 JUMP JUMPDEST DUP5 ADD SWAP2 POP POP SWAP3 SWAP2 POP POP JUMP JUMPDEST PUSH32 0x4E487B7100000000000000000000000000000000000000000000000000000000 PUSH1 0x0 MSTORE PUSH1 0x21 PUSH1 0x4 MSTORE PUSH1 0x24 PUSH1 0x0 REVERT JUMPDEST PUSH1 0x4 DUP2 LT PUSH2 0x2EA1 JUMPI PUSH2 0x2EA0 PUSH2 0x2E61 JUMP JUMPDEST JUMPDEST POP JUMP JUMPDEST PUSH1 0x0 DUP2 SWAP1 POP PUSH2 0x2EB2 DUP3 PUSH2 0x2E90 JUMP JUMPDEST SWAP2 SWAP1 POP JUMP JUMPDEST PUSH1 0x0 PUSH2 0x2EC2 DUP3 PUSH2 0x2EA4 JUMP JUMPDEST SWAP1 POP SWAP2 SWAP1 POP JUMP JUMPDEST PUSH2 0x2ED2 DUP2 PUSH2 0x2EB7 JUMP JUMPDEST DUP3 MSTORE POP POP JUMP JUMPDEST PUSH1 0x0 PUSH2 0x100 DUP4 ADD PUSH1 0x0 DUP4 ADD MLOAD PUSH2 0x2EF1 PUSH1 0x0 DUP7 ADD DUP3 PUSH2 0x2CC3 JUMP JUMPDEST POP PUSH1 0x20 DUP4 ADD MLOAD PUSH2 0x2F04 PUSH1 0x20 DUP7 ADD DUP3 PUSH2 0x2DD3 JUMP JUMPDEST POP PUSH1 0x40 DUP4 ADD MLOAD DUP5 DUP3 SUB PUSH1 0x40 DUP7 ADD MSTORE PUSH2 0x2F1C DUP3 DUP3 PUSH2 0x2E28 JUMP JUMPDEST SWAP2 POP POP PUSH1 0x60 DUP4 ADD MLOAD DUP5 DUP3 SUB PUSH1 0x60 DUP7 ADD MSTORE PUSH2 0x2F36 DUP3 DUP3 PUSH2 0x2E28 JUMP JUMPDEST SWAP2 POP POP PUSH1 0x80 DUP4 ADD MLOAD PUSH2 0x2F4B PUSH1 0x80 DUP7 ADD DUP3 PUSH2 0x2CC3 JUMP JUMPDEST POP PUSH1 0xA0 DUP4 ADD MLOAD PUSH2 0x2F5E PUSH1 0xA0 DUP7 ADD DUP3 PUSH2 0x2CC3 JUMP JUMPDEST POP PUSH1 0xC0 DUP4 ADD MLOAD PUSH2 0x2F71 PUSH1 0xC0 DUP7 ADD DUP3 PUSH2 0x2CC3 JUMP JUMPDEST POP PUSH1 0xE0 DUP4 ADD MLOAD PUSH2 0x2F84 PUSH1 0xE0 DUP7 ADD DUP3 PUSH2 0x2EC9 JUMP JUMPDEST POP DUP1 SWAP2 POP POP SWAP3 SWAP2 POP POP JUMP JUMPDEST PUSH1 0x0 PUSH1 0x20 DUP3 ADD SWAP1 POP DUP2 DUP2 SUB PUSH1 0x0 DUP4 ADD MSTORE PUSH2 0x2FA9 DUP2 DUP5 PUSH2 0x2ED8 JUMP JUMPDEST SWAP1 POP SWAP3 SWAP2 POP POP JUMP JUMPDEST PUSH1 0x4 DUP2 LT PUSH2 0x2FC2 JUMPI PUSH2 0x2FC1 PUSH2 0x2E61 JUMP JUMPDEST JUMPDEST POP JUMP JUMPDEST PUSH1 0x0 DUP2 SWAP1 POP PUSH2 0x2FD3 DUP3 PUSH2 0x2FB1 JUMP JUMPDEST SWAP2 SWAP1 POP JUMP JUMPDEST PUSH1 0x0 PUSH2 0x2FE3 DUP3 PUSH2 0x2FC5 JUMP JUMPDEST SWAP1 POP SWAP2 SWAP1 POP JUMP JUMPDEST PUSH2 0x2FF3 DUP2 PUSH2 0x2FD8 JUMP JUMPDEST DUP3 MSTORE POP POP JUMP JUMPDEST PUSH1 0x0 PUSH2 0x100 DUP4 ADD PUSH1 0x0 DUP4 ADD MLOAD PUSH2 0x3012 PUSH1 0x0 DUP7 ADD DUP3 PUSH2 0x2CC3 JUMP JUMPDEST POP PUSH1 0x20 DUP4 ADD MLOAD PUSH2 0x3025 PUSH1 0x20 DUP7 ADD DUP3 PUSH2 0x2DD3 JUMP JUMPDEST POP PUSH1 0x40 DUP4 ADD MLOAD PUSH2 0x3038 PUSH1 0x40 DUP7 ADD DUP3 PUSH2 0x2CC3 JUMP JUMPDEST POP PUSH1 0x60 DUP4 ADD MLOAD DUP5 DUP3 SUB PUSH1 0x60 DUP7 ADD MSTORE PUSH2 0x3050 DUP3 DUP3 PUSH2 0x2E28 JUMP JUMPDEST SWAP2 POP POP PUSH1 0x80 DUP4 ADD MLOAD PUSH2 0x3065 PUSH1 0x80 DUP7 ADD DUP3 PUSH2 0x2CC3 JUMP JUMPDEST POP PUSH1 0xA0 DUP4 ADD MLOAD PUSH2 0x3078 PUSH1 0xA0 DUP7 ADD DUP3 PUSH2 0x2CC3 JUMP JUMPDEST POP PUSH1 0xC0 DUP4 ADD MLOAD PUSH2 0x308B PUSH1 0xC0 DUP7 ADD DUP3 PUSH2 0x2CC3 JUMP JUMPDEST POP PUSH1 0xE0 DUP4 ADD MLOAD PUSH2 0x309E PUSH1 0xE0 DUP7 ADD DUP3 PUSH2 0x2FEA JUMP JUMPDEST POP DUP1 SWAP2 POP POP SWAP3 SWAP2 POP POP JUMP JUMPDEST PUSH1 0x0 PUSH1 0x20 DUP3 ADD SWAP1 POP DUP2 DUP2 SUB PUSH1 0x0 DUP4 ADD MSTORE PUSH2 0x30C3 DUP2 DUP5 PUSH2 0x2FF9 JUMP JUMPDEST SWAP1 POP SWAP3 SWAP2 POP POP JUMP JUMPDEST PUSH2 0x30D4 DUP2 PUSH2 0x2DC1 JUMP JUMPDEST DUP2 EQ PUSH2 0x30DF JUMPI PUSH1 0x0 DUP1 REVERT JUMPDEST POP JUMP JUMPDEST PUSH1 0x0 DUP2 CALLDATALOAD SWAP1 POP PUSH2 0x30F1 DUP2 PUSH2 0x30CB JUMP JUMPDEST SWAP3 SWAP2 POP POP JUMP JUMPDEST PUSH1 0x0 PUSH1 0x20 DUP3 DUP5 SUB SLT ISZERO PUSH2 0x310D JUMPI PUSH2 0x310C PUSH2 0x29D0 JUMP JUMPDEST JUMPDEST PUSH1 0x0 PUSH2 0x311B DUP5 DUP3 DUP6 ADD PUSH2 0x30E2 JUMP JUMPDEST SWAP2 POP POP SWAP3 SWAP2 POP POP JUMP JUMPDEST PUSH1 0x0 DUP3 DUP3 MSTORE PUSH1 0x20 DUP3 ADD SWAP1 POP SWAP3 SWAP2 POP POP JUMP JUMPDEST PUSH1 0x0 PUSH2 0x3140 DUP3 PUSH2 0x2DE2 JUMP JUMPDEST PUSH2 0x314A DUP2 DUP6 PUSH2 0x3124 JUMP JUMPDEST SWAP4 POP PUSH2 0x315A DUP2 DUP6 PUSH1 0x20 DUP7 ADD PUSH2 0x2DFE JUMP JUMPDEST PUSH2 0x3163 DUP2 PUSH2 0x2A47 JUMP JUMPDEST DUP5 ADD SWAP2 POP POP SWAP3 SWAP2 POP POP JUMP JUMPDEST PUSH1 0x0 DUP2 ISZERO ISZERO SWAP1 POP SWAP2 SWAP1 POP JUMP JUMPDEST PUSH2 0x3183 DUP2 PUSH2 0x316E JUMP JUMPDEST DUP3 MSTORE POP POP JUMP JUMPDEST PUSH1 0x0 PUSH2 0x100 DUP3 ADD SWAP1 POP PUSH2 0x319F PUSH1 0x0 DUP4 ADD DUP12 PUSH2 0x2D77 JUMP JUMPDEST DUP2 DUP2 SUB PUSH1 0x20 DUP4 ADD MSTORE PUSH2 0x31B1 DUP2 DUP11 PUSH2 0x3135 JUMP JUMPDEST SWAP1 POP DUP2 DUP2 SUB PUSH1 0x40 DUP4 ADD MSTORE PUSH2 0x31C5 DUP2 DUP10 PUSH2 0x3135 JUMP JUMPDEST SWAP1 POP DUP2 DUP2 SUB PUSH1 0x60 DUP4 ADD MSTORE PUSH2 0x31D9 DUP2 DUP9 PUSH2 0x3135 JUMP JUMPDEST SWAP1 POP PUSH2 0x31E8 PUSH1 0x80 DUP4 ADD DUP8 PUSH2 0x2D77 JUMP JUMPDEST PUSH2 0x31F5 PUSH1 0xA0 DUP4 ADD DUP7 PUSH2 0x317A JUMP JUMPDEST DUP2 DUP2 SUB PUSH1 0xC0 DUP4 ADD MSTORE PUSH2 0x3207 DUP2 DUP6 PUSH2 0x3135 JUMP JUMPDEST SWAP1 POP DUP2 DUP2 SUB PUSH1 0xE0 DUP4 ADD MSTORE PUSH2 0x321B DUP2 DUP5 PUSH2 0x3135 JUMP JUMPDEST SWAP1 POP SWAP10 SWAP9 POP POP POP POP POP POP POP POP POP JUMP JUMPDEST PUSH1 0x0 DUP1 PUSH1 0x40 DUP4 DUP6 SUB SLT ISZERO PUSH2 0x3241 JUMPI PUSH2 0x3240 PUSH2 0x29D0 JUMP JUMPDEST JUMPDEST PUSH1 0x0 PUSH2 0x324F DUP6 DUP3 DUP7 ADD PUSH2 0x29FB JUMP JUMPDEST SWAP3 POP POP PUSH1 0x20 PUSH2 0x3260 DUP6 DUP3 DUP7 ADD PUSH2 0x30E2 JUMP JUMPDEST SWAP2 POP POP SWAP3 POP SWAP3 SWAP1 POP JUMP JUMPDEST PUSH1 0x0 PUSH1 0x20 DUP3 ADD SWAP1 POP PUSH2 0x327F PUSH1 0x0 DUP4 ADD DUP5 PUSH2 0x317A JUMP JUMPDEST SWAP3 SWAP2 POP POP JUMP JUMPDEST PUSH1 0x0 PUSH2 0x3290 DUP3 PUSH2 0x2DA1 JUMP JUMPDEST SWAP1 POP SWAP2 SWAP1 POP JUMP JUMPDEST PUSH2 0x32A0 DUP2 PUSH2 0x3285 JUMP JUMPDEST DUP3 MSTORE POP POP JUMP JUMPDEST PUSH1 0x0 PUSH1 0x20 DUP3 ADD SWAP1 POP PUSH2 0x32BB PUSH1 0x0 DUP4 ADD DUP5 PUSH2 0x3297 JUMP JUMPDEST SWAP3 SWAP2 POP POP JUMP JUMPDEST PUSH1 0x0 PUSH1 0x20 DUP3 DUP5 SUB SLT ISZERO PUSH2 0x32D7 JUMPI PUSH2 0x32D6 PUSH2 0x29D0 JUMP JUMPDEST JUMPDEST PUSH1 0x0 DUP3 ADD CALLDATALOAD PUSH8 0xFFFFFFFFFFFFFFFF DUP2 GT ISZERO PUSH2 0x32F5 JUMPI PUSH2 0x32F4 PUSH2 0x29D5 JUMP JUMPDEST JUMPDEST PUSH2 0x3301 DUP5 DUP3 DUP6 ADD PUSH2 0x2B55 JUMP JUMPDEST SWAP2 POP POP SWAP3 SWAP2 POP POP JUMP JUMPDEST PUSH1 0x0 DUP1 PUSH1 0x0 PUSH1 0x60 DUP5 DUP7 SUB SLT ISZERO PUSH2 0x3323 JUMPI PUSH2 0x3322 PUSH2 0x29D0 JUMP JUMPDEST JUMPDEST PUSH1 0x0 PUSH2 0x3331 DUP7 DUP3 DUP8 ADD PUSH2 0x29FB JUMP JUMPDEST SWAP4 POP POP PUSH1 0x20 PUSH2 0x3342 DUP7 DUP3 DUP8 ADD PUSH2 0x29FB JUMP JUMPDEST SWAP3 POP POP PUSH1 0x40 PUSH2 0x3353 DUP7 DUP3 DUP8 ADD PUSH2 0x29FB JUMP JUMPDEST SWAP2 POP POP SWAP3 POP SWAP3 POP SWAP3 JUMP JUMPDEST PUSH1 0x0 DUP2 MLOAD SWAP1 POP SWAP2 SWAP1 POP JUMP JUMPDEST PUSH1 0x0 DUP3 DUP3 MSTORE PUSH1 0x20 DUP3 ADD SWAP1 POP SWAP3 SWAP2 POP POP JUMP JUMPDEST PUSH1 0x0 DUP2 SWAP1 POP PUSH1 0x20 DUP3 ADD SWAP1 POP SWAP2 SWAP1 POP JUMP JUMPDEST PUSH1 0x0 PUSH2 0x100 DUP4 ADD PUSH1 0x0 DUP4 ADD MLOAD PUSH2 0x33A2 PUSH1 0x0 DUP7 ADD DUP3 PUSH2 0x2CC3 JUMP JUMPDEST POP PUSH1 0x20 DUP4 ADD MLOAD PUSH2 0x33B5 PUSH1 0x20 DUP7 ADD DUP3 PUSH2 0x2DD3 JUMP JUMPDEST POP PUSH1 0x40 DUP4 ADD MLOAD PUSH2 0x33C8 PUSH1 0x40 DUP7 ADD DUP3 PUSH2 0x2CC3 JUMP JUMPDEST POP PUSH1 0x60 DUP4 ADD MLOAD DUP5 DUP3 SUB PUSH1 0x60 DUP7 ADD MSTORE PUSH2 0x33E0 DUP3 DUP3 PUSH2 0x2E28 JUMP JUMPDEST SWAP2 POP POP PUSH1 0x80 DUP4 ADD MLOAD PUSH2 0x33F5 PUSH1 0x80 DUP7 ADD DUP3 PUSH2 0x2CC3 JUMP JUMPDEST POP PUSH1 0xA0 DUP4 ADD MLOAD PUSH2 0x3408 PUSH1 0xA0 DUP7 ADD DUP3 PUSH2 0x2CC3 JUMP JUMPDEST POP PUSH1 0xC0 DUP4 ADD MLOAD PUSH2 0x341B PUSH1 0xC0 DUP7 ADD DUP3 PUSH2 0x2CC3 JUMP JUMPDEST POP PUSH1 0xE0 DUP4 ADD MLOAD PUSH2 0x342E PUSH1 0xE0 DUP7 ADD DUP3 PUSH2 0x2FEA JUMP JUMPDEST POP DUP1 SWAP2 POP POP SWAP3 SWAP2 POP POP JUMP JUMPDEST PUSH1 0x0 PUSH2 0x3445 DUP4 DUP4 PUSH2 0x3389 JUMP JUMPDEST SWAP1 POP SWAP3 SWAP2 POP POP JUMP JUMPDEST PUSH1 0x0 PUSH1 0x20 DUP3 ADD SWAP1 POP SWAP2 SWAP1 POP JUMP JUMPDEST PUSH1 0x0 PUSH2 0x3465 DUP3 PUSH2 0x335D JUMP JUMPDEST PUSH2 0x346F DUP2 DUP6 PUSH2 0x3368 JUMP JUMPDEST SWAP4 POP DUP4 PUSH1 0x20 DUP3 MUL DUP6 ADD PUSH2 0x3481 DUP6 PUSH2 0x3379 JUMP JUMPDEST DUP1 PUSH1 0x0 JUMPDEST DUP6 DUP2 LT ISZERO PUSH2 0x34BD JUMPI DUP5 DUP5 SUB DUP10 MSTORE DUP2 MLOAD PUSH2 0x349E DUP6 DUP3 PUSH2 0x3439 JUMP JUMPDEST SWAP5 POP PUSH2 0x34A9 DUP4 PUSH2 0x344D JUMP JUMPDEST SWAP3 POP PUSH1 0x20 DUP11 ADD SWAP10 POP POP PUSH1 0x1 DUP2 ADD SWAP1 POP PUSH2 0x3485 JUMP JUMPDEST POP DUP3 SWAP8 POP DUP8 SWAP6 POP POP POP POP POP POP SWAP3 SWAP2 POP POP JUMP JUMPDEST PUSH1 0x0 PUSH1 0x20 DUP3 ADD SWAP1 POP DUP2 DUP2 SUB PUSH1 0x0 DUP4 ADD MSTORE PUSH2 0x34E9 DUP2 DUP5 PUSH2 0x345A JUMP JUMPDEST SWAP1 POP SWAP3 SWAP2 POP POP JUMP JUMPDEST PUSH1 0x0 DUP2 MLOAD SWAP1 POP SWAP2 SWAP1 POP JUMP JUMPDEST PUSH1 0x0 DUP3 DUP3 MSTORE PUSH1 0x20 DUP3 ADD SWAP1 POP SWAP3 SWAP2 POP POP JUMP JUMPDEST PUSH1 0x0 DUP2 SWAP1 POP PUSH1 0x20 DUP3 ADD SWAP1 POP SWAP2 SWAP1 POP JUMP JUMPDEST PUSH1 0x0 PUSH2 0x100 DUP4 ADD PUSH1 0x0 DUP4 ADD MLOAD PUSH2 0x3536 PUSH1 0x0 DUP7 ADD DUP3 PUSH2 0x2CC3 JUMP JUMPDEST POP PUSH1 0x20 DUP4 ADD MLOAD PUSH2 0x3549 PUSH1 0x20 DUP7 ADD DUP3 PUSH2 0x2DD3 JUMP JUMPDEST POP PUSH1 0x40 DUP4 ADD MLOAD DUP5 DUP3 SUB PUSH1 0x40 DUP7 ADD MSTORE PUSH2 0x3561 DUP3 DUP3 PUSH2 0x2E28 JUMP JUMPDEST SWAP2 POP POP PUSH1 0x60 DUP4 ADD MLOAD DUP5 DUP3 SUB PUSH1 0x60 DUP7 ADD MSTORE PUSH2 0x357B DUP3 DUP3 PUSH2 0x2E28 JUMP JUMPDEST SWAP2 POP POP PUSH1 0x80 DUP4 ADD MLOAD PUSH2 0x3590 PUSH1 0x80 DUP7 ADD DUP3 PUSH2 0x2CC3 JUMP JUMPDEST POP PUSH1 0xA0 DUP4 ADD MLOAD PUSH2 0x35A3 PUSH1 0xA0 DUP7 ADD DUP3 PUSH2 0x2CC3 JUMP JUMPDEST POP PUSH1 0xC0 DUP4 ADD MLOAD PUSH2 0x35B6 PUSH1 0xC0 DUP7 ADD DUP3 PUSH2 0x2CC3 JUMP JUMPDEST POP PUSH1 0xE0 DUP4 ADD MLOAD PUSH2 0x35C9 PUSH1 0xE0 DUP7 ADD DUP3 PUSH2 0x2EC9 JUMP JUMPDEST POP DUP1 SWAP2 POP POP SWAP3 SWAP2 POP POP JUMP JUMPDEST PUSH1 0x0 PUSH2 0x35E0 DUP4 DUP4 PUSH2 0x351D JUMP JUMPDEST SWAP1 POP SWAP3 SWAP2 POP POP JUMP JUMPDEST PUSH1 0x0 PUSH1 0x20 DUP3 ADD SWAP1 POP SWAP2 SWAP1 POP JUMP JUMPDEST PUSH1 0x0 PUSH2 0x3600 DUP3 PUSH2 0x34F1 JUMP JUMPDEST PUSH2 0x360A DUP2 DUP6 PUSH2 0x34FC JUMP JUMPDEST SWAP4 POP DUP4 PUSH1 0x20 DUP3 MUL DUP6 ADD PUSH2 0x361C DUP6 PUSH2 0x350D JUMP JUMPDEST DUP1 PUSH1 0x0 JUMPDEST DUP6 DUP2 LT ISZERO PUSH2 0x3658 JUMPI DUP5 DUP5 SUB DUP10 MSTORE DUP2 MLOAD PUSH2 0x3639 DUP6 DUP3 PUSH2 0x35D4 JUMP JUMPDEST SWAP5 POP PUSH2 0x3644 DUP4 PUSH2 0x35E8 JUMP JUMPDEST SWAP3 POP PUSH1 0x20 DUP11 ADD SWAP10 POP POP PUSH1 0x1 DUP2 ADD SWAP1 POP PUSH2 0x3620 JUMP JUMPDEST POP DUP3 SWAP8 POP DUP8 SWAP6 POP POP POP POP POP POP SWAP3 SWAP2 POP POP JUMP JUMPDEST PUSH1 0x0 PUSH1 0x20 DUP3 ADD SWAP1 POP DUP2 DUP2 SUB PUSH1 0x0 DUP4 ADD MSTORE PUSH2 0x3684 DUP2 DUP5 PUSH2 0x35F5 JUMP JUMPDEST SWAP1 POP SWAP3 SWAP2 POP POP JUMP JUMPDEST PUSH2 0x3695 DUP2 PUSH2 0x316E JUMP JUMPDEST DUP2 EQ PUSH2 0x36A0 JUMPI PUSH1 0x0 DUP1 REVERT JUMPDEST POP JUMP JUMPDEST PUSH1 0x0 DUP2 CALLDATALOAD SWAP1 POP PUSH2 0x36B2 DUP2 PUSH2 0x368C JUMP JUMPDEST SWAP3 SWAP2 POP POP JUMP JUMPDEST PUSH1 0x0 DUP1 PUSH1 0x0 DUP1 PUSH1 0x0 DUP1 PUSH1 0x0 PUSH1 0xE0 DUP9 DUP11 SUB SLT ISZERO PUSH2 0x36D7 JUMPI PUSH2 0x36D6 PUSH2 0x29D0 JUMP JUMPDEST JUMPDEST PUSH1 0x0 DUP9 ADD CALLDATALOAD PUSH8 0xFFFFFFFFFFFFFFFF DUP2 GT ISZERO PUSH2 0x36F5 JUMPI PUSH2 0x36F4 PUSH2 0x29D5 JUMP JUMPDEST JUMPDEST PUSH2 0x3701 DUP11 DUP3 DUP12 ADD PUSH2 0x2B55 JUMP JUMPDEST SWAP8 POP POP PUSH1 0x20 DUP9 ADD CALLDATALOAD PUSH8 0xFFFFFFFFFFFFFFFF DUP2 GT ISZERO PUSH2 0x3722 JUMPI PUSH2 0x3721 PUSH2 0x29D5 JUMP JUMPDEST JUMPDEST PUSH2 0x372E DUP11 DUP3 DUP12 ADD PUSH2 0x2B55 JUMP JUMPDEST SWAP7 POP POP PUSH1 0x40 DUP9 ADD CALLDATALOAD PUSH8 0xFFFFFFFFFFFFFFFF DUP2 GT ISZERO PUSH2 0x374F JUMPI PUSH2 0x374E PUSH2 0x29D5 JUMP JUMPDEST JUMPDEST PUSH2 0x375B DUP11 DUP3 DUP12 ADD PUSH2 0x2B55 JUMP JUMPDEST SWAP6 POP POP PUSH1 0x60 DUP9 ADD CALLDATALOAD PUSH8 0xFFFFFFFFFFFFFFFF DUP2 GT ISZERO PUSH2 0x377C JUMPI PUSH2 0x377B PUSH2 0x29D5 JUMP JUMPDEST JUMPDEST PUSH2 0x3788 DUP11 DUP3 DUP12 ADD PUSH2 0x2B55 JUMP JUMPDEST SWAP5 POP POP PUSH1 0x80 DUP9 ADD CALLDATALOAD PUSH8 0xFFFFFFFFFFFFFFFF DUP2 GT ISZERO PUSH2 0x37A9 JUMPI PUSH2 0x37A8 PUSH2 0x29D5 JUMP JUMPDEST JUMPDEST PUSH2 0x37B5 DUP11 DUP3 DUP12 ADD PUSH2 0x2B55 JUMP JUMPDEST SWAP4 POP POP PUSH1 0xA0 PUSH2 0x37C6 DUP11 DUP3 DUP12 ADD PUSH2 0x29FB JUMP JUMPDEST SWAP3 POP POP PUSH1 0xC0 PUSH2 0x37D7 DUP11 DUP3 DUP12 ADD PUSH2 0x36A3 JUMP JUMPDEST SWAP2 POP POP SWAP3 SWAP6 SWAP9 SWAP2 SWAP5 SWAP8 POP SWAP3 SWAP6 POP JUMP JUMPDEST PUSH32 0x4E6F742061205265676973746572656420557365722100000000000000000000 PUSH1 0x0 DUP3 ADD MSTORE POP JUMP JUMPDEST PUSH1 0x0 PUSH2 0x381C PUSH1 0x16 DUP4 PUSH2 0x3124 JUMP JUMPDEST SWAP2 POP PUSH2 0x3827 DUP3 PUSH2 0x37E6 JUMP JUMPDEST PUSH1 0x20 DUP3 ADD SWAP1 POP SWAP2 SWAP1 POP JUMP JUMPDEST PUSH1 0x0 PUSH1 0x20 DUP3 ADD SWAP1 POP DUP2 DUP2 SUB PUSH1 0x0 DUP4 ADD MSTORE PUSH2 0x384B DUP2 PUSH2 0x380F JUMP JUMPDEST SWAP1 POP SWAP2 SWAP1 POP JUMP JUMPDEST PUSH32 0x4E6F7420616E2061637469766520706F73740000000000000000000000000000 PUSH1 0x0 DUP3 ADD MSTORE POP JUMP JUMPDEST PUSH1 0x0 PUSH2 0x3888 PUSH1 0x12 DUP4 PUSH2 0x3124 JUMP JUMPDEST SWAP2 POP PUSH2 0x3893 DUP3 PUSH2 0x3852 JUMP JUMPDEST PUSH1 0x20 DUP3 ADD SWAP1 POP SWAP2 SWAP1 POP JUMP JUMPDEST PUSH1 0x0 PUSH1 0x20 DUP3 ADD SWAP1 POP DUP2 DUP2 SUB PUSH1 0x0 DUP4 ADD MSTORE PUSH2 0x38B7 DUP2 PUSH2 0x387B JUMP JUMPDEST SWAP1 POP SWAP2 SWAP1 POP JUMP JUMPDEST PUSH32 0x4E487B7100000000000000000000000000000000000000000000000000000000 PUSH1 0x0 MSTORE PUSH1 0x11 PUSH1 0x4 MSTORE PUSH1 0x24 PUSH1 0x0 REVERT JUMPDEST PUSH1 0x0 PUSH2 0x38F8 DUP3 PUSH2 0x29DA JUMP JUMPDEST SWAP2 POP PUSH2 0x3903 DUP4 PUSH2 0x29DA JUMP JUMPDEST SWAP3 POP DUP3 DUP3 SUB SWAP1 POP DUP2 DUP2 GT ISZERO PUSH2 0x391B JUMPI PUSH2 0x391A PUSH2 0x38BE JUMP JUMPDEST JUMPDEST SWAP3 SWAP2 POP POP JUMP JUMPDEST PUSH1 0x0 PUSH2 0x392C DUP3 PUSH2 0x29DA JUMP JUMPDEST SWAP2 POP PUSH2 0x3937 DUP4 PUSH2 0x29DA JUMP JUMPDEST SWAP3 POP DUP3 DUP3 ADD SWAP1 POP DUP1 DUP3 GT ISZERO PUSH2 0x394F JUMPI PUSH2 0x394E PUSH2 0x38BE JUMP JUMPDEST JUMPDEST SWAP3 SWAP2 POP POP JUMP JUMPDEST PUSH32 0x4E487B7100000000000000000000000000000000000000000000000000000000 PUSH1 0x0 MSTORE PUSH1 0x22 PUSH1 0x4 MSTORE PUSH1 0x24 PUSH1 0x0 REVERT JUMPDEST PUSH1 0x0 PUSH1 0x2 DUP3 DIV SWAP1 POP PUSH1 0x1 DUP3 AND DUP1 PUSH2 0x399C JUMPI PUSH1 0x7F DUP3 AND SWAP2 POP JUMPDEST PUSH1 0x20 DUP3 LT DUP2 SUB PUSH2 0x39AF JUMPI PUSH2 0x39AE PUSH2 0x3955 JUMP JUMPDEST JUMPDEST POP SWAP2 SWAP1 POP JUMP JUMPDEST PUSH1 0x0 DUP2 SWAP1 POP DUP2 PUSH1 0x0 MSTORE PUSH1 0x20 PUSH1 0x0 KECCAK256 SWAP1 POP SWAP2 SWAP1 POP JUMP JUMPDEST PUSH1 0x0 PUSH1 0x20 PUSH1 0x1F DUP4 ADD DIV SWAP1 POP SWAP2 SWAP1 POP JUMP JUMPDEST PUSH1 0x0 DUP3 DUP3 SHL SWAP1 POP SWAP3 SWAP2 POP POP JUMP JUMPDEST PUSH1 0x0 PUSH1 0x8 DUP4 MUL PUSH2 0x3A17 PUSH32 0xFFFFFFFFFFFFFFFFFFFFFFFFFFFFFFFFFFFFFFFFFFFFFFFFFFFFFFFFFFFFFFFF DUP3 PUSH2 0x39DA JUMP JUMPDEST PUSH2 0x3A21 DUP7 DUP4 PUSH2 0x39DA JUMP JUMPDEST SWAP6 POP DUP1 NOT DUP5 AND SWAP4 POP DUP1 DUP7 AND DUP5 OR SWAP3 POP POP POP SWAP4 SWAP3 POP POP POP JUMP JUMPDEST PUSH1 0x0 DUP2 SWAP1 POP SWAP2 SWAP1 POP JUMP JUMPDEST PUSH1 0x0 PUSH2 0x3A5E PUSH2 0x3A59 PUSH2 0x3A54 DUP5 PUSH2 0x29DA JUMP JUMPDEST PUSH2 0x3A39 JUMP JUMPDEST PUSH2 0x29DA JUMP JUMPDEST SWAP1 POP SWAP2 SWAP1 POP JUMP JUMPDEST PUSH1 0x0 DUP2 SWAP1 POP SWAP2 SWAP1 POP JUMP JUMPDEST PUSH2 0x3A78 DUP4 PUSH2 0x3A43 JUMP JUMPDEST PUSH2 0x3A8C PUSH2 0x3A84 DUP3 PUSH2 0x3A65 JUMP JUMPDEST DUP5 DUP5 SLOAD PUSH2 0x39E7 JUMP JUMPDEST DUP3 SSTORE POP POP POP POP JUMP JUMPDEST PUSH1 0x0 SWAP1 JUMP JUMPDEST PUSH2 0x3AA1 PUSH2 0x3A94 JUMP JUMPDEST PUSH2 0x3AAC DUP2 DUP5 DUP5 PUSH2 0x3A6F JUMP JUMPDEST POP POP POP JUMP JUMPDEST JUMPDEST DUP2 DUP2 LT ISZERO PUSH2 0x3AD0 JUMPI PUSH2 0x3AC5 PUSH1 0x0 DUP3 PUSH2 0x3A99 JUMP JUMPDEST PUSH1 0x1 DUP2 ADD SWAP1 POP PUSH2 0x3AB2 JUMP JUMPDEST POP POP JUMP JUMPDEST PUSH1 0x1F DUP3 GT ISZERO PUSH2 0x3B15 JUMPI PUSH2 0x3AE6 DUP2 PUSH2 0x39B5 JUMP JUMPDEST PUSH2 0x3AEF DUP5 PUSH2 0x39CA JUMP JUMPDEST DUP2 ADD PUSH1 0x20 DUP6 LT ISZERO PUSH2 0x3AFE JUMPI DUP2 SWAP1 POP JUMPDEST PUSH2 0x3B12 PUSH2 0x3B0A DUP6 PUSH2 0x39CA JUMP JUMPDEST DUP4 ADD DUP3 PUSH2 0x3AB1 JUMP JUMPDEST POP POP JUMPDEST POP POP POP JUMP JUMPDEST PUSH1 0x0 DUP3 DUP3 SHR SWAP1 POP SWAP3 SWAP2 POP POP JUMP JUMPDEST PUSH1 0x0 PUSH2 0x3B38 PUSH1 0x0 NOT DUP5 PUSH1 0x8 MUL PUSH2 0x3B1A JUMP JUMPDEST NOT DUP1 DUP4 AND SWAP2 POP POP SWAP3 SWAP2 POP POP JUMP JUMPDEST PUSH1 0x0 PUSH2 0x3B51 DUP4 DUP4 PUSH2 0x3B27 JUMP JUMPDEST SWAP2 POP DUP3 PUSH1 0x2 MUL DUP3 OR SWAP1 POP SWAP3 SWAP2 POP POP JUMP JUMPDEST PUSH2 0x3B6A DUP3 PUSH2 0x2DE2 JUMP JUMPDEST PUSH8 0xFFFFFFFFFFFFFFFF DUP2 GT ISZERO PUSH2 0x3B83 JUMPI PUSH2 0x3B82 PUSH2 0x2A58 JUMP JUMPDEST JUMPDEST PUSH2 0x3B8D DUP3 SLOAD PUSH2 0x3984 JUMP JUMPDEST PUSH2 0x3B98 DUP3 DUP3 DUP6 PUSH2 0x3AD4 JUMP JUMPDEST PUSH1 0x0 PUSH1 0x20 SWAP1 POP PUSH1 0x1F DUP4 GT PUSH1 0x1 DUP2 EQ PUSH2 0x3BCB JUMPI PUSH1 0x0 DUP5 ISZERO PUSH2 0x3BB9 JUMPI DUP3 DUP8 ADD MLOAD SWAP1 POP JUMPDEST PUSH2 0x3BC3 DUP6 DUP3 PUSH2 0x3B45 JUMP JUMPDEST DUP7 SSTORE POP PUSH2 0x3C2B JUMP JUMPDEST PUSH1 0x1F NOT DUP5 AND PUSH2 0x3BD9 DUP7 PUSH2 0x39B5 JUMP JUMPDEST PUSH1 0x0 JUMPDEST DUP3 DUP2 LT ISZERO PUSH2 0x3C01 JUMPI DUP5 DUP10 ADD MLOAD DUP3 SSTORE PUSH1 0x1 DUP3 ADD SWAP2 POP PUSH1 0x20 DUP6 ADD SWAP5 POP PUSH1 0x20 DUP2 ADD SWAP1 POP PUSH2 0x3BDC JUMP JUMPDEST DUP7 DUP4 LT ISZERO PUSH2 0x3C1E JUMPI DUP5 DUP10 ADD MLOAD PUSH2 0x3C1A PUSH1 0x1F DUP10 AND DUP3 PUSH2 0x3B27 JUMP JUMPDEST DUP4 SSTORE POP JUMPDEST PUSH1 0x1 PUSH1 0x2 DUP9 MUL ADD DUP9 SSTORE POP POP POP JUMPDEST POP POP POP POP POP POP JUMP JUMPDEST PUSH2 0x3C3C DUP2 PUSH2 0x2DC1 JUMP JUMPDEST DUP3 MSTORE POP POP JUMP JUMPDEST PUSH1 0x0 PUSH1 0x60 DUP3 ADD SWAP1 POP PUSH2 0x3C57 PUSH1 0x0 DUP4 ADD DUP7 PUSH2 0x3C33 JUMP JUMPDEST PUSH2 0x3C64 PUSH1 0x20 DUP4 ADD DUP6 PUSH2 0x2D77 JUMP JUMPDEST PUSH2 0x3C71 PUSH1 0x40 DUP4 ADD DUP5 PUSH2 0x2D77 JUMP JUMPDEST SWAP5 SWAP4 POP POP POP POP JUMP JUMPDEST PUSH32 0x436F6D6D656E742063616E206E6F7420626520656D7074792021000000000000 PUSH1 0x0 DUP3 ADD MSTORE POP JUMP JUMPDEST PUSH1 0x0 PUSH2 0x3CAF PUSH1 0x1A DUP4 PUSH2 0x3124 JUMP JUMPDEST SWAP2 POP PUSH2 0x3CBA DUP3 PUSH2 0x3C79 JUMP JUMPDEST PUSH1 0x20 DUP3 ADD SWAP1 POP SWAP2 SWAP1 POP JUMP JUMPDEST PUSH1 0x0 PUSH1 0x20 DUP3 ADD SWAP1 POP DUP2 DUP2 SUB PUSH1 0x0 DUP4 ADD MSTORE PUSH2 0x3CDE DUP2 PUSH2 0x3CA2 JUMP JUMPDEST SWAP1 POP SWAP2 SWAP1 POP JUMP JUMPDEST PUSH1 0x0 DUP2 SWAP1 POP SWAP2 SWAP1 POP JUMP JUMPDEST PUSH1 0x0 PUSH2 0x3D0A PUSH2 0x3D05 PUSH2 0x3D00 DUP5 PUSH2 0x3CE5 JUMP JUMPDEST PUSH2 0x3A39 JUMP JUMPDEST PUSH2 0x29DA JUMP JUMPDEST SWAP1 POP SWAP2 SWAP1 POP JUMP JUMPDEST PUSH2 0x3D1A DUP2 PUSH2 0x3CEF JUMP JUMPDEST DUP3 MSTORE POP POP JUMP JUMPDEST PUSH1 0x0 PUSH1 0xE0 DUP3 ADD SWAP1 POP PUSH2 0x3D35 PUSH1 0x0 DUP4 ADD DUP11 PUSH2 0x3C33 JUMP JUMPDEST PUSH2 0x3D42 PUSH1 0x20 DUP4 ADD DUP10 PUSH2 0x2D77 JUMP JUMPDEST PUSH2 0x3D4F PUSH1 0x40 DUP4 ADD DUP9 PUSH2 0x2D77 JUMP JUMPDEST PUSH2 0x3D5C PUSH1 0x60 DUP4 ADD DUP8 PUSH2 0x3D11 JUMP JUMPDEST PUSH2 0x3D69 PUSH1 0x80 DUP4 ADD DUP7 PUSH2 0x3D11 JUMP JUMPDEST PUSH2 0x3D76 PUSH1 0xA0 DUP4 ADD DUP6 PUSH2 0x2D77 JUMP JUMPDEST DUP2 DUP2 SUB PUSH1 0xC0 DUP4 ADD MSTORE PUSH2 0x3D88 DUP2 DUP5 PUSH2 0x3135 JUMP JUMPDEST SWAP1 POP SWAP9 SWAP8 POP POP POP POP POP POP POP POP JUMP JUMPDEST PUSH1 0x0 PUSH2 0x3DA1 DUP3 PUSH2 0x29DA JUMP JUMPDEST SWAP2 POP PUSH2 0x3DAC DUP4 PUSH2 0x29DA JUMP JUMPDEST SWAP3 POP DUP3 DUP3 MUL PUSH2 0x3DBA DUP2 PUSH2 0x29DA JUMP JUMPDEST SWAP2 POP DUP3 DUP3 DIV DUP5 EQ DUP4 ISZERO OR PUSH2 0x3DD1 JUMPI PUSH2 0x3DD0 PUSH2 0x38BE JUMP JUMPDEST JUMPDEST POP SWAP3 SWAP2 POP POP JUMP JUMPDEST PUSH32 0x4E487B7100000000000000000000000000000000000000000000000000000000 PUSH1 0x0 MSTORE PUSH1 0x32 PUSH1 0x4 MSTORE PUSH1 0x24 PUSH1 0x0 REVERT JUMPDEST PUSH1 0x0 PUSH2 0x3E12 DUP3 PUSH2 0x29DA JUMP JUMPDEST SWAP2 POP PUSH32 0xFFFFFFFFFFFFFFFFFFFFFFFFFFFFFFFFFFFFFFFFFFFFFFFFFFFFFFFFFFFFFFFF DUP3 SUB PUSH2 0x3E44 JUMPI PUSH2 0x3E43 PUSH2 0x38BE JUMP JUMPDEST JUMPDEST PUSH1 0x1 DUP3 ADD SWAP1 POP SWAP2 SWAP1 POP JUMP JUMPDEST PUSH32 0x4E6F7420616E2061637469766520636F6D6D656E740000000000000000000000 PUSH1 0x0 DUP3 ADD MSTORE POP JUMP JUMPDEST PUSH1 0x0 PUSH2 0x3E85 PUSH1 0x15 DUP4 PUSH2 0x3124 JUMP JUMPDEST SWAP2 POP PUSH2 0x3E90 DUP3 PUSH2 0x3E4F JUMP JUMPDEST PUSH1 0x20 DUP3 ADD SWAP1 POP SWAP2 SWAP1 POP JUMP JUMPDEST PUSH1 0x0 PUSH1 0x20 DUP3 ADD SWAP1 POP DUP2 DUP2 SUB PUSH1 0x0 DUP4 ADD MSTORE PUSH2 0x3EB4 DUP2 PUSH2 0x3E78 JUMP JUMPDEST SWAP1 POP SWAP2 SWAP1 POP JUMP JUMPDEST PUSH1 0x0 DUP2 SWAP1 POP SWAP3 SWAP2 POP POP JUMP JUMPDEST PUSH1 0x0 PUSH2 0x3ED1 DUP3 PUSH2 0x2DE2 JUMP JUMPDEST PUSH2 0x3EDB DUP2 DUP6 PUSH2 0x3EBB JUMP JUMPDEST SWAP4 POP PUSH2 0x3EEB DUP2 DUP6 PUSH1 0x20 DUP7 ADD PUSH2 0x2DFE JUMP JUMPDEST DUP1 DUP5 ADD SWAP2 POP POP SWAP3 SWAP2 POP POP JUMP JUMPDEST PUSH1 0x0 PUSH2 0x3F03 DUP3 DUP5 PUSH2 0x3EC6 JUMP JUMPDEST SWAP2 POP DUP2 SWAP1 POP SWAP3 SWAP2 POP POP JUMP JUMPDEST PUSH32 0x5573657220616C72656164792072656769737465726564000000000000000000 PUSH1 0x0 DUP3 ADD MSTORE POP JUMP JUMPDEST PUSH1 0x0 PUSH2 0x3F44 PUSH1 0x17 DUP4 PUSH2 0x3124 JUMP JUMPDEST SWAP2 POP PUSH2 0x3F4F DUP3 PUSH2 0x3F0E JUMP JUMPDEST PUSH1 0x20 DUP3 ADD SWAP1 POP SWAP2 SWAP1 POP JUMP JUMPDEST PUSH1 0x0 PUSH1 0x20 DUP3 ADD SWAP1 POP DUP2 DUP2 SUB PUSH1 0x0 DUP4 ADD MSTORE PUSH2 0x3F73 DUP2 PUSH2 0x3F37 JUMP JUMPDEST SWAP1 POP SWAP2 SWAP1 POP JUMP JUMPDEST PUSH32 0x557365726E616D6520616C72656164792074616B656E00000000000000000000 PUSH1 0x0 DUP3 ADD MSTORE POP JUMP JUMPDEST PUSH1 0x0 PUSH2 0x3FB0 PUSH1 0x16 DUP4 PUSH2 0x3124 JUMP JUMPDEST SWAP2 POP PUSH2 0x3FBB DUP3 PUSH2 0x3F7A JUMP JUMPDEST PUSH1 0x20 DUP3 ADD SWAP1 POP SWAP2 SWAP1 POP JUMP JUMPDEST PUSH1 0x0 PUSH1 0x20 DUP3 ADD SWAP1 POP DUP2 DUP2 SUB PUSH1 0x0 DUP4 ADD MSTORE PUSH2 0x3FDF DUP2 PUSH2 0x3FA3 JUMP JUMPDEST SWAP1 POP SWAP2 SWAP1 POP JUMP JUMPDEST PUSH1 0x0 PUSH1 0x40 DUP3 ADD SWAP1 POP PUSH2 0x3FFB PUSH1 0x0 DUP4 ADD DUP6 PUSH2 0x3C33 JUMP JUMPDEST PUSH2 0x4008 PUSH1 0x20 DUP4 ADD DUP5 PUSH2 0x2D77 JUMP JUMPDEST SWAP4 SWAP3 POP POP POP JUMP INVALID LOG2 PUSH5 0x6970667358 0x22 SLT KECCAK256 0xB4 JUMPDEST STOP 0xDB PUSH10 0xBED24103BF61E074C2BF 0x2B MOD 0xA7 SWAP7 MULMOD 0xC2 0xE7 0xCC 0xFC PREVRANDAO CHAINID PUSH28 0x1066D5ED3564736F6C63430008120033000000000000000000000000 "},"methodIdentifiers":{"createComment(uint256,string)":"40a17985","createPost(string,string)":"392338f5","getCommentById(uint256)":"6c43dbb4","getPostById(uint256)":"64e95895","getPostComments(uint256,uint256,uint256)":"bebce300","getPostIds(uint256,uint256)":"49e03502","getUser(address)":"6f77926b","getUserPosts()":"cc4ef2cc","isLikedByAddress(uint256,address)":"875003aa","likePost(uint256)":"725009d3","owner()":"8da5cb5b","registerUser(string,string,string,string,string,uint256,bool)":"f82217c1","totalComments()":"61936b81","totalPosts()":"8e53fb41","totalUsers()":"bff1f9e1","unLikePost(uint256)":"2f4992ef","userNameAvailable(string)":"b90c2073"}}}}}