{"contracts/SocialChain.sol":{"SocialChain":{"abi":[{"inputs":[],"stateMutability":"nonpayable","type":"constructor"},{"anonymous":false,"inputs":[{"indexed":false,"internalType":"address","name":"_author","type":"address"},{"indexed":false,"internalType":"uint256","name":"_commentId","type":"uint256"},{"indexed":false,"internalType":"uint256","name":"_postId","type":"uint256"},{"indexed":false,"internalType":"uint256","name":"_likeCount","type":"uint256"},{"indexed":false,"internalType":"uint256","name":"_reportCount","type":"uint256"},{"indexed":false,"internalType":"uint256","name":"_timeStamp","type":"uint256"},{"indexed":false,"internalType":"string","name":"_content","type":"string"}],"name":"logCommentCreated","type":"event"},{"anonymous":false,"inputs":[{"indexed":false,"internalType":"address","name":"_author","type":"address"},{"indexed":false,"internalType":"uint256","name":"_userId","type":"uint256"},{"indexed":false,"internalType":"uint256","name":"_postId","type":"uint256"}],"name":"logPostCreated","type":"event"},{"anonymous":false,"inputs":[{"indexed":false,"internalType":"address","name":"userAddress","type":"address"},{"indexed":false,"internalType":"uint256","name":"userId","type":"uint256"}],"name":"logRegisterUser","type":"event"},{"inputs":[{"internalType":"uint256","name":"_postId","type":"uint256"},{"internalType":"string","name":"_comment","type":"string"}],"name":"createComment","outputs":[],"stateMutability":"nonpayable","type":"function"},{"inputs":[{"internalType":"string","name":"_postdescription","type":"string"},{"internalType":"string","name":"_imghash","type":"string"}],"name":"createPost","outputs":[],"stateMutability":"nonpayable","type":"function"},{"inputs":[{"internalType":"uint256","name":"_commentId","type":"uint256"}],"name":"getCommentById","outputs":[{"components":[{"internalType":"uint256","name":"commentId","type":"uint256"},{"internalType":"address","name":"author","type":"address"},{"internalType":"uint256","name":"postId","type":"uint256"},{"internalType":"string","name":"content","type":"string"},{"internalType":"uint256","name":"likeCount","type":"uint256"},{"internalType":"uint256","name":"reportCount","type":"uint256"},{"internalType":"uint256","name":"timeStamp","type":"uint256"},{"internalType":"enum SocialChain.commentStatus","name":"status","type":"uint8"}],"internalType":"struct SocialChain.Comment","name":"","type":"tuple"}],"stateMutability":"view","type":"function"},{"inputs":[{"internalType":"uint256","name":"_postId","type":"uint256"}],"name":"getPostById","outputs":[{"components":[{"internalType":"uint256","name":"postId","type":"uint256"},{"internalType":"address","name":"author","type":"address"},{"internalType":"string","name":"postDescription","type":"string"},{"internalType":"string","name":"imgHash","type":"string"},{"internalType":"uint256","name":"timeStamp","type":"uint256"},{"internalType":"uint256","name":"likeCount","type":"uint256"},{"internalType":"uint256","name":"reportCount","type":"uint256"},{"internalType":"enum SocialChain.postStatus","name":"status","type":"uint8"}],"internalType":"struct SocialChain.Post","name":"","type":"tuple"}],"stateMutability":"view","type":"function"},{"inputs":[{"internalType":"uint256","name":"_listNumber","type":"uint256"},{"internalType":"uint256","name":"_commentPerList","type":"uint256"},{"internalType":"uint256","name":"_postId","type":"uint256"}],"name":"getPostComments","outputs":[{"components":[{"internalType":"uint256","name":"commentId","type":"uint256"},{"internalType":"address","name":"author","type":"address"},{"internalType":"uint256","name":"postId","type":"uint256"},{"internalType":"string","name":"content","type":"string"},{"internalType":"uint256","name":"likeCount","type":"uint256"},{"internalType":"uint256","name":"reportCount","type":"uint256"},{"internalType":"uint256","name":"timeStamp","type":"uint256"},{"internalType":"enum SocialChain.commentStatus","name":"status","type":"uint8"}],"internalType":"struct SocialChain.Comment[]","name":"","type":"tuple[]"}],"stateMutability":"view","type":"function"},{"inputs":[{"internalType":"uint256","name":"_page","type":"uint256"},{"internalType":"uint256","name":"_perPage","type":"uint256"}],"name":"getPostIds","outputs":[{"internalType":"uint256[]","name":"","type":"uint256[]"}],"stateMutability":"view","type":"function"},{"inputs":[{"internalType":"address","name":"accountAddress","type":"address"}],"name":"getUser","outputs":[{"internalType":"uint256","name":"id","type":"uint256"},{"internalType":"string","name":"userName","type":"string"},{"internalType":"string","name":"name","type":"string"},{"internalType":"string","name":"bio","type":"string"},{"internalType":"uint256","name":"birthDate","type":"uint256"},{"internalType":"bool","name":"showUsername","type":"bool"},{"internalType":"string","name":"imageHash","type":"string"},{"internalType":"string","name":"coverHash","type":"string"}],"stateMutability":"view","type":"function"},{"inputs":[{"internalType":"address","name":"_userAddress","type":"address"}],"name":"getUserPosts","outputs":[{"components":[{"internalType":"uint256","name":"postId","type":"uint256"},{"internalType":"address","name":"author","type":"address"},{"internalType":"string","name":"postDescription","type":"string"},{"internalType":"string","name":"imgHash","type":"string"},{"internalType":"uint256","name":"timeStamp","type":"uint256"},{"internalType":"uint256","name":"likeCount","type":"uint256"},{"internalType":"uint256","name":"reportCount","type":"uint256"},{"internalType":"enum SocialChain.postStatus","name":"status","type":"uint8"}],"internalType":"struct SocialChain.Post[]","name":"","type":"tuple[]"}],"stateMutability":"view","type":"function"},{"inputs":[{"internalType":"uint256","name":"_postId","type":"uint256"},{"internalType":"address","name":"_userAddress","type":"address"}],"name":"isLikedByAddress","outputs":[{"internalType":"bool","name":"","type":"bool"}],"stateMutability":"view","type":"function"},{"inputs":[{"internalType":"uint256","name":"_postId","type":"uint256"}],"name":"likePost","outputs":[],"stateMutability":"nonpayable","type":"function"},{"inputs":[],"name":"owner","outputs":[{"internalType":"address payable","name":"","type":"address"}],"stateMutability":"view","type":"function"},{"inputs":[{"internalType":"string","name":"_username","type":"string"},{"internalType":"string","name":"_name","type":"string"},{"internalType":"string","name":"_imgHash","type":"string"},{"internalType":"string","name":"_coverHash","type":"string"},{"internalType":"string","name":"_bio","type":"string"},{"internalType":"uint256","name":"birthDate","type":"uint256"},{"internalType":"bool","name":"showUserName","type":"bool"}],"name":"registerUser","outputs":[],"stateMutability":"nonpayable","type":"function"},{"inputs":[],"name":"totalComments","outputs":[{"internalType":"uint256","name":"","type":"uint256"}],"stateMutability":"view","type":"function"},{"inputs":[],"name":"totalPosts","outputs":[{"internalType":"uint256","name":"","type":"uint256"}],"stateMutability":"view","type":"function"},{"inputs":[],"name":"totalUsers","outputs":[{"internalType":"uint256","name":"","type":"uint256"}],"stateMutability":"view","type":"function"},{"inputs":[{"internalType":"uint256","name":"_postId","type":"uint256"}],"name":"unLikePost","outputs":[],"stateMutability":"nonpayable","type":"function"},{"inputs":[{"internalType":"string","name":"_username","type":"string"}],"name":"userNameAvailable","outputs":[{"internalType":"bool","name":"status","type":"bool"}],"stateMutability":"view","type":"function"}],"evm":{"bytecode":{"linkReferences":{},"object":"60806040526000600155600060025560006003553480156200002057600080fd5b50336000806101000a81548173ffffffffffffffffffffffffffffffffffffffff021916908373ffffffffffffffffffffffffffffffffffffffff160217905550620001366040518060400160405280600581526020017f6f776e65720000000000000000000000000000000000000000000000000000008152506040518060400160405280600581526020017f6f776e657200000000000000000000000000000000000000000000000000000081525060405180602001604052806000815250604051806020016040528060008152506040518060400160405280600581526020017f6f776e65720000000000000000000000000000000000000000000000000000008152506001806200013c60201b60201c565b62000b41565b336000600381111562000154576200015362000548565b5b600560008373ffffffffffffffffffffffffffffffffffffffff1673ffffffffffffffffffffffffffffffffffffffff16815260200190815260200160002060090160009054906101000a900460ff166003811115620001b957620001b862000548565b5b14620001fc576040517f08c379a0000000000000000000000000000000000000000000000000000000008152600401620001f390620005d8565b60405180910390fd5b876007816040516200020f919062000673565b908152602001604051809103902060009054906101000a900460ff16156200026e576040517f08c379a00000000000000000000000000000000000000000000000000000000081526004016200026590620006dc565b60405180910390fd5b600160078a60405162000282919062000673565b908152602001604051809103902060006101000a81548160ff02191690831515021790555060018054620002b7919062000737565b600181905550600060015490506040518061014001604052808281526020013373ffffffffffffffffffffffffffffffffffffffff1681526020018b81526020018a815260200187815260200186815260200185151581526020018981526020018881526020016001600381111562000335576200033462000548565b5b815250600560003373ffffffffffffffffffffffffffffffffffffffff1673ffffffffffffffffffffffffffffffffffffffff1681526020019081526020016000206000820151816000015560208201518160010160006101000a81548173ffffffffffffffffffffffffffffffffffffffff021916908373ffffffffffffffffffffffffffffffffffffffff1602179055506040820151816002019081620003df9190620009d7565b506060820151816003019081620003f79190620009d7565b5060808201518160040190816200040f9190620009d7565b5060a0820151816005015560c08201518160060160006101000a81548160ff02191690831515021790555060e0820151816007019081620004519190620009d7565b506101008201518160080190816200046a9190620009d7565b506101208201518160090160006101000a81548160ff021916908360038111156200049a576200049962000548565b5b02179055509050503360068b604051620004b5919062000673565b908152602001604051809103902060006101000a81548173ffffffffffffffffffffffffffffffffffffffff021916908373ffffffffffffffffffffffffffffffffffffffff1602179055507fabc58c36475157c4ac7669f9adfbb6f254d3a3578fb89676f6866ac3b9950eed33826040516200053492919062000b14565b60405180910390a150505050505050505050565b7f4e487b7100000000000000000000000000000000000000000000000000000000600052602160045260246000fd5b600082825260208201905092915050565b7f5573657220616c72656164792072656769737465726564000000000000000000600082015250565b6000620005c060178362000577565b9150620005cd8262000588565b602082019050919050565b60006020820190508181036000830152620005f381620005b1565b9050919050565b600081519050919050565b600081905092915050565b60005b838110156200063057808201518184015260208101905062000613565b60008484015250505050565b60006200064982620005fa565b62000655818562000605565b93506200066781856020860162000610565b80840191505092915050565b60006200068182846200063c565b915081905092915050565b7f557365726e616d6520616c72656164792074616b656e00000000000000000000600082015250565b6000620006c460168362000577565b9150620006d1826200068c565b602082019050919050565b60006020820190508181036000830152620006f781620006b5565b9050919050565b6000819050919050565b7f4e487b7100000000000000000000000000000000000000000000000000000000600052601160045260246000fd5b60006200074482620006fe565b91506200075183620006fe565b92508282019050808211156200076c576200076b62000708565b5b92915050565b7f4e487b7100000000000000000000000000000000000000000000000000000000600052604160045260246000fd5b7f4e487b7100000000000000000000000000000000000000000000000000000000600052602260045260246000fd5b60006002820490506001821680620007e957607f821691505b602082108103620007ff57620007fe620007a1565b5b50919050565b60008190508160005260206000209050919050565b60006020601f8301049050919050565b600082821b905092915050565b600060088302620008697fffffffffffffffffffffffffffffffffffffffffffffffffffffffffffffffff826200082a565b6200087586836200082a565b95508019841693508086168417925050509392505050565b6000819050919050565b6000620008b8620008b2620008ac84620006fe565b6200088d565b620006fe565b9050919050565b6000819050919050565b620008d48362000897565b620008ec620008e382620008bf565b84845462000837565b825550505050565b600090565b62000903620008f4565b62000910818484620008c9565b505050565b5b8181101562000938576200092c600082620008f9565b60018101905062000916565b5050565b601f8211156200098757620009518162000805565b6200095c846200081a565b810160208510156200096c578190505b620009846200097b856200081a565b83018262000915565b50505b505050565b600082821c905092915050565b6000620009ac600019846008026200098c565b1980831691505092915050565b6000620009c7838362000999565b9150826002028217905092915050565b620009e282620005fa565b67ffffffffffffffff811115620009fe57620009fd62000772565b5b62000a0a8254620007d0565b62000a178282856200093c565b600060209050601f83116001811462000a4f576000841562000a3a578287015190505b62000a468582620009b9565b86555062000ab6565b601f19841662000a5f8662000805565b60005b8281101562000a895784890151825560018201915060208501945060208101905062000a62565b8683101562000aa9578489015162000aa5601f89168262000999565b8355505b6001600288020188555050505b505050505050565b600073ffffffffffffffffffffffffffffffffffffffff82169050919050565b600062000aeb8262000abe565b9050919050565b62000afd8162000ade565b82525050565b62000b0e81620006fe565b82525050565b600060408201905062000b2b600083018562000af2565b62000b3a602083018462000b03565b9392505050565b6140598062000b516000396000f3fe608060405234801561001057600080fd5b506004361061010b5760003560e01c8063725009d3116100a25780639a2194a9116100715780639a2194a9146102d1578063b90c207314610301578063bebce30014610331578063bff1f9e114610361578063f82217c11461037f5761010b565b8063725009d314610249578063875003aa146102655780638da5cb5b146102955780638e53fb41146102b35761010b565b806361936b81116100de57806361936b811461019457806364e95895146101b25780636c43dbb4146101e25780636f77926b146102125761010b565b80632f4992ef14610110578063392338f51461012c57806340a179851461014857806349e0350214610164575b600080fd5b61012a60048036038101906101259190612a24565b61039b565b005b61014660048036038101906101419190612b97565b6105ef565b005b610162600480360381019061015d9190612c0f565b61091a565b005b61017e60048036038101906101799190612c6b565b610c81565b60405161018b9190612d69565b60405180910390f35b61019c610e4c565b6040516101a99190612d9a565b60405180910390f35b6101cc60048036038101906101c79190612a24565b610e52565b6040516101d99190612fa3565b60405180910390f35b6101fc60048036038101906101f79190612a24565b6111a1565b60405161020991906130bd565b60405180910390f35b61022c6004803603810190610227919061310b565b611468565b60405161024098979695949392919061319d565b60405180910390f35b610263600480360381019061025e9190612a24565b6118a3565b005b61027f600480360381019061027a919061323e565b611af8565b60405161028c919061327e565b60405180910390f35b61029d611ca4565b6040516102aa91906132ba565b60405180910390f35b6102bb611cc8565b6040516102c89190612d9a565b60405180910390f35b6102eb60048036038101906102e6919061310b565b611cce565b6040516102f8919061344e565b60405180910390f35b61031b60048036038101906103169190613470565b6120d1565b604051610328919061327e565b60405180910390f35b61034b600480360381019061034691906134b9565b612107565b604051610358919061367e565b60405180910390f35b610369612514565b6040516103769190612d9a565b60405180910390f35b610399600480360381019061039491906136cc565b61251a565b005b33600160038111156103b0576103af612e75565b5b600560008373ffffffffffffffffffffffffffffffffffffffff1673ffffffffffffffffffffffffffffffffffffffff16815260200190815260200160002060090160009054906101000a900460ff16600381111561041257610411612e75565b5b14610452576040517f08c379a000000000000000000000000000000000000000000000000000000000815260040161044990613846565b60405180910390fd5b816001600381111561046757610466612e75565b5b6008600083815260200190815260200160002060070160009054906101000a900460ff16600381111561049d5761049c612e75565b5b146104dd576040517f08c379a00000000000000000000000000000000000000000000000000000000081526004016104d4906138b2565b60405180910390fd5b600a600084815260200190815260200160002060003373ffffffffffffffffffffffffffffffffffffffff1673ffffffffffffffffffffffffffffffffffffffff16815260200190815260200160002060009054906101000a900460ff1661054457600080fd5b600160086000858152602001908152602001600020600501546105679190613901565b60086000858152602001908152602001600020600501819055506000600a600085815260200190815260200160002060003373ffffffffffffffffffffffffffffffffffffffff1673ffffffffffffffffffffffffffffffffffffffff16815260200190815260200160002060006101000a81548160ff021916908315150217905550505050565b336001600381111561060457610603612e75565b5b600560008373ffffffffffffffffffffffffffffffffffffffff1673ffffffffffffffffffffffffffffffffffffffff16815260200190815260200160002060090160009054906101000a900460ff16600381111561066657610665612e75565b5b146106a6576040517f08c379a000000000000000000000000000000000000000000000000000000000815260040161069d90613846565b60405180910390fd5b60016002546106b59190613935565b600281905550600060025490506040518061010001604052808281526020013373ffffffffffffffffffffffffffffffffffffffff16815260200185815260200184815260200142815260200160008152602001600081526020016001600381111561072457610723612e75565b5b815250600860008381526020019081526020016000206000820151816000015560208201518160010160006101000a81548173ffffffffffffffffffffffffffffffffffffffff021916908373ffffffffffffffffffffffffffffffffffffffff16021790555060408201518160020190816107a09190613b75565b5060608201518160030190816107b69190613b75565b506080820151816004015560a0820151816005015560c0820151816006015560e08201518160070160006101000a81548160ff02191690836003811115610800576107ff612e75565b5b0217905550905050600960003373ffffffffffffffffffffffffffffffffffffffff1673ffffffffffffffffffffffffffffffffffffffff16815260200190815260200160002081908060018154018082558091505060019003906000526020600020016000909190919091505560048190806001815401808255809150506001900390600052602060002001600090919091909150557fe78603dea3231b9ac9a73b3663b6e28de19f35247e2c32f0115ec263bdc7c49a33600560003373ffffffffffffffffffffffffffffffffffffffff1673ffffffffffffffffffffffffffffffffffffffff168152602001908152602001600020600001548360405161090c93929190613c56565b60405180910390a150505050565b336001600381111561092f5761092e612e75565b5b600560008373ffffffffffffffffffffffffffffffffffffffff1673ffffffffffffffffffffffffffffffffffffffff16815260200190815260200160002060090160009054906101000a900460ff16600381111561099157610990612e75565b5b146109d1576040517f08c379a00000000000000000000000000000000000000000000000000000000081526004016109c890613846565b60405180910390fd5b82600160038111156109e6576109e5612e75565b5b6008600083815260200190815260200160002060070160009054906101000a900460ff166003811115610a1c57610a1b612e75565b5b14610a5c576040517f08c379a0000000000000000000000000000000000000000000000000000000008152600401610a53906138b2565b60405180910390fd5b60008390506000815103610aa5576040517f08c379a0000000000000000000000000000000000000000000000000000000008152600401610a9c90613cd9565b60405180910390fd5b6001600354610ab49190613935565b600381905550600060035490506040518061010001604052808281526020013373ffffffffffffffffffffffffffffffffffffffff168152602001878152602001868152602001600081526020016000815260200142815260200160016003811115610b2357610b22612e75565b5b815250600b60008381526020019081526020016000206000820151816000015560208201518160010160006101000a81548173ffffffffffffffffffffffffffffffffffffffff021916908373ffffffffffffffffffffffffffffffffffffffff160217905550604082015181600201556060820151816003019081610ba99190613b75565b506080820151816004015560a0820151816005015560c0820151816006015560e08201518160070160006101000a81548160ff02191690836003811115610bf357610bf2612e75565b5b0217905550905050600d60008781526020019081526020016000208190806001815401808255809150506001900390600052602060002001600090919091909150557f50621ca627228f52152f460ce13adf4d014aeb126e3faa26d112c10b0bb43a13338288600080428b604051610c719796959493929190613d34565b60405180910390a1505050505050565b60603360016003811115610c9857610c97612e75565b5b600560008373ffffffffffffffffffffffffffffffffffffffff1673ffffffffffffffffffffffffffffffffffffffff16815260200190815260200160002060090160009054906101000a900460ff166003811115610cfa57610cf9612e75565b5b14610d3a576040517f08c379a0000000000000000000000000000000000000000000000000000000008152600401610d3190613846565b60405180910390fd5b600083600186610d4a9190613901565b610d549190613daa565b905060008482610d649190613935565b9050600480549050811115610d7c5760048054905090505b60008282610d8a9190613901565b67ffffffffffffffff811115610da357610da2612a6c565b5b604051908082528060200260200182016040528015610dd15781602001602082028036833780820191505090505b50905060008390505b82811015610e3e5760048181548110610df657610df5613dec565b5b9060005260206000200154828583610e0e9190613901565b81518110610e1f57610e1e613dec565b5b6020026020010181815250508080610e3690613e1b565b915050610dda565b508094505050505092915050565b60035481565b610e5a612900565b3360016003811115610e6f57610e6e612e75565b5b600560008373ffffffffffffffffffffffffffffffffffffffff1673ffffffffffffffffffffffffffffffffffffffff16815260200190815260200160002060090160009054906101000a900460ff166003811115610ed157610ed0612e75565b5b14610f11576040517f08c379a0000000000000000000000000000000000000000000000000000000008152600401610f0890613846565b60405180910390fd5b8260016003811115610f2657610f25612e75565b5b6008600083815260200190815260200160002060070160009054906101000a900460ff166003811115610f5c57610f5b612e75565b5b14610f9c576040517f08c379a0000000000000000000000000000000000000000000000000000000008152600401610f93906138b2565b60405180910390fd5b6008600085815260200190815260200160002060405180610100016040529081600082015481526020016001820160009054906101000a900473ffffffffffffffffffffffffffffffffffffffff1673ffffffffffffffffffffffffffffffffffffffff1673ffffffffffffffffffffffffffffffffffffffff16815260200160028201805461102b90613998565b80601f016020809104026020016040519081016040528092919081815260200182805461105790613998565b80156110a45780601f10611079576101008083540402835291602001916110a4565b820191906000526020600020905b81548152906001019060200180831161108757829003601f168201915b505050505081526020016003820180546110bd90613998565b80601f01602080910402602001604051908101604052809291908181526020018280546110e990613998565b80156111365780601f1061110b57610100808354040283529160200191611136565b820191906000526020600020905b81548152906001019060200180831161111957829003601f168201915b505050505081526020016004820154815260200160058201548152602001600682015481526020016007820160009054906101000a900460ff16600381111561118257611181612e75565b5b600381111561119457611193612e75565b5b8152505092505050919050565b6111a961296d565b33600160038111156111be576111bd612e75565b5b600560008373ffffffffffffffffffffffffffffffffffffffff1673ffffffffffffffffffffffffffffffffffffffff16815260200190815260200160002060090160009054906101000a900460ff1660038111156112205761121f612e75565b5b14611260576040517f08c379a000000000000000000000000000000000000000000000000000000000815260040161125790613846565b60405180910390fd5b826001600381111561127557611274612e75565b5b600b600083815260200190815260200160002060070160009054906101000a900460ff1660038111156112ab576112aa612e75565b5b146112eb576040517f08c379a00000000000000000000000000000000000000000000000000000000081526004016112e290613eaf565b60405180910390fd5b600b600085815260200190815260200160002060405180610100016040529081600082015481526020016001820160009054906101000a900473ffffffffffffffffffffffffffffffffffffffff1673ffffffffffffffffffffffffffffffffffffffff1673ffffffffffffffffffffffffffffffffffffffff1681526020016002820154815260200160038201805461138490613998565b80601f01602080910402602001604051908101604052809291908181526020018280546113b090613998565b80156113fd5780601f106113d2576101008083540402835291602001916113fd565b820191906000526020600020905b8154815290600101906020018083116113e057829003601f168201915b505050505081526020016004820154815260200160058201548152602001600682015481526020016007820160009054906101000a900460ff16600381111561144957611448612e75565b5b600381111561145b5761145a612e75565b5b8152505092505050919050565b600060608060606000806060806000600560008b73ffffffffffffffffffffffffffffffffffffffff1673ffffffffffffffffffffffffffffffffffffffff16815260200190815260200160002060405180610140016040529081600082015481526020016001820160009054906101000a900473ffffffffffffffffffffffffffffffffffffffff1673ffffffffffffffffffffffffffffffffffffffff1673ffffffffffffffffffffffffffffffffffffffff16815260200160028201805461153290613998565b80601f016020809104026020016040519081016040528092919081815260200182805461155e90613998565b80156115ab5780601f10611580576101008083540402835291602001916115ab565b820191906000526020600020905b81548152906001019060200180831161158e57829003601f168201915b505050505081526020016003820180546115c490613998565b80601f01602080910402602001604051908101604052809291908181526020018280546115f090613998565b801561163d5780601f106116125761010080835404028352916020019161163d565b820191906000526020600020905b81548152906001019060200180831161162057829003601f168201915b5050505050815260200160048201805461165690613998565b80601f016020809104026020016040519081016040528092919081815260200182805461168290613998565b80156116cf5780601f106116a4576101008083540402835291602001916116cf565b820191906000526020600020905b8154815290600101906020018083116116b257829003601f168201915b50505050508152602001600582015481526020016006820160009054906101000a900460ff1615151515815260200160078201805461170d90613998565b80601f016020809104026020016040519081016040528092919081815260200182805461173990613998565b80156117865780601f1061175b57610100808354040283529160200191611786565b820191906000526020600020905b81548152906001019060200180831161176957829003601f168201915b5050505050815260200160088201805461179f90613998565b80601f01602080910402602001604051908101604052809291908181526020018280546117cb90613998565b80156118185780601f106117ed57610100808354040283529160200191611818565b820191906000526020600020905b8154815290600101906020018083116117fb57829003601f168201915b505050505081526020016009820160009054906101000a900460ff16600381111561184657611845612e75565b5b600381111561185857611857612e75565b5b81525050905080600001518160400151826060015183608001518460a001518560c001518660e001518761010001519850985098509850985098509850985050919395975091939597565b33600160038111156118b8576118b7612e75565b5b600560008373ffffffffffffffffffffffffffffffffffffffff1673ffffffffffffffffffffffffffffffffffffffff16815260200190815260200160002060090160009054906101000a900460ff16600381111561191a57611919612e75565b5b1461195a576040517f08c379a000000000000000000000000000000000000000000000000000000000815260040161195190613846565b60405180910390fd5b816001600381111561196f5761196e612e75565b5b6008600083815260200190815260200160002060070160009054906101000a900460ff1660038111156119a5576119a4612e75565b5b146119e5576040517f08c379a00000000000000000000000000000000000000000000000000000000081526004016119dc906138b2565b60405180910390fd5b600a600084815260200190815260200160002060003373ffffffffffffffffffffffffffffffffffffffff1673ffffffffffffffffffffffffffffffffffffffff16815260200190815260200160002060009054906101000a900460ff1615611a4d57600080fd5b60016008600085815260200190815260200160002060050154611a709190613935565b60086000858152602001908152602001600020600501819055506001600a600085815260200190815260200160002060003373ffffffffffffffffffffffffffffffffffffffff1673ffffffffffffffffffffffffffffffffffffffff16815260200190815260200160002060006101000a81548160ff021916908315150217905550505050565b60008260016003811115611b0f57611b0e612e75565b5b6008600083815260200190815260200160002060070160009054906101000a900460ff166003811115611b4557611b44612e75565b5b14611b85576040517f08c379a0000000000000000000000000000000000000000000000000000000008152600401611b7c906138b2565b60405180910390fd5b8260016003811115611b9a57611b99612e75565b5b600560008373ffffffffffffffffffffffffffffffffffffffff1673ffffffffffffffffffffffffffffffffffffffff16815260200190815260200160002060090160009054906101000a900460ff166003811115611bfc57611bfb612e75565b5b14611c3c576040517f08c379a0000000000000000000000000000000000000000000000000000000008152600401611c3390613846565b60405180910390fd5b600a600086815260200190815260200160002060008573ffffffffffffffffffffffffffffffffffffffff1673ffffffffffffffffffffffffffffffffffffffff16815260200190815260200160002060009054906101000a900460ff169250505092915050565b60008054906101000a900473ffffffffffffffffffffffffffffffffffffffff1681565b60025481565b60603360016003811115611ce557611ce4612e75565b5b600560008373ffffffffffffffffffffffffffffffffffffffff1673ffffffffffffffffffffffffffffffffffffffff16815260200190815260200160002060090160009054906101000a900460ff166003811115611d4757611d46612e75565b5b14611d87576040517f08c379a0000000000000000000000000000000000000000000000000000000008152600401611d7e90613846565b60405180910390fd5b6000600960008573ffffffffffffffffffffffffffffffffffffffff1673ffffffffffffffffffffffffffffffffffffffff168152602001908152602001600020805480602002602001604051908101604052809291908181526020018280548015611e1257602002820191906000526020600020905b815481526020019060010190808311611dfe575b505050505090506000815167ffffffffffffffff811115611e3657611e35612a6c565b5b604051908082528060200260200182016040528015611e6f57816020015b611e5c612900565b815260200190600190039081611e545790505b50905060005b82518110156120c55760086000848381518110611e9557611e94613dec565b5b6020026020010151815260200190815260200160002060405180610100016040529081600082015481526020016001820160009054906101000a900473ffffffffffffffffffffffffffffffffffffffff1673ffffffffffffffffffffffffffffffffffffffff1673ffffffffffffffffffffffffffffffffffffffff168152602001600282018054611f2790613998565b80601f0160208091040260200160405190810160405280929190818152602001828054611f5390613998565b8015611fa05780601f10611f7557610100808354040283529160200191611fa0565b820191906000526020600020905b815481529060010190602001808311611f8357829003601f168201915b50505050508152602001600382018054611fb990613998565b80601f0160208091040260200160405190810160405280929190818152602001828054611fe590613998565b80156120325780601f1061200757610100808354040283529160200191612032565b820191906000526020600020905b81548152906001019060200180831161201557829003601f168201915b505050505081526020016004820154815260200160058201548152602001600682015481526020016007820160009054906101000a900460ff16600381111561207e5761207d612e75565b5b60038111156120905761208f612e75565b5b815250508282815181106120a7576120a6613dec565b5b602002602001018190525080806120bd90613e1b565b915050611e75565b50809350505050919050565b60006007826040516120e39190613f0b565b908152602001604051809103902060009054906101000a900460ff16159050919050565b6060336001600381111561211e5761211d612e75565b5b600560008373ffffffffffffffffffffffffffffffffffffffff1673ffffffffffffffffffffffffffffffffffffffff16815260200190815260200160002060090160009054906101000a900460ff1660038111156121805761217f612e75565b5b146121c0576040517f08c379a00000000000000000000000000000000000000000000000000000000081526004016121b790613846565b60405180910390fd5b82600160038111156121d5576121d4612e75565b5b6008600083815260200190815260200160002060070160009054906101000a900460ff16600381111561220b5761220a612e75565b5b1461224b576040517f08c379a0000000000000000000000000000000000000000000000000000000008152600401612242906138b2565b60405180910390fd5b60008560018861225b9190613901565b6122659190613daa565b9050600086826122759190613935565b9050600d6000878152602001908152602001600020805490508111156122af57600d60008781526020019081526020016000208054905090505b600082826122bd9190613901565b67ffffffffffffffff8111156122d6576122d5612a6c565b5b60405190808252806020026020018201604052801561230f57816020015b6122fc61296d565b8152602001906001900390816122f45790505b5090506000808490505b8381101561250357600d60008a8152602001908152602001600020818154811061234657612345613dec565b5b90600052602060002001549150600b600083815260200190815260200160002060405180610100016040529081600082015481526020016001820160009054906101000a900473ffffffffffffffffffffffffffffffffffffffff1673ffffffffffffffffffffffffffffffffffffffff1673ffffffffffffffffffffffffffffffffffffffff168152602001600282015481526020016003820180546123ec90613998565b80601f016020809104026020016040519081016040528092919081815260200182805461241890613998565b80156124655780601f1061243a57610100808354040283529160200191612465565b820191906000526020600020905b81548152906001019060200180831161244857829003601f168201915b505050505081526020016004820154815260200160058201548152602001600682015481526020016007820160009054906101000a900460ff1660038111156124b1576124b0612e75565b5b60038111156124c3576124c2612e75565b5b815250508386836124d49190613901565b815181106124e5576124e4613dec565b5b602002602001018190525080806124fb90613e1b565b915050612319565b508196505050505050509392505050565b60015481565b336000600381111561252f5761252e612e75565b5b600560008373ffffffffffffffffffffffffffffffffffffffff1673ffffffffffffffffffffffffffffffffffffffff16815260200190815260200160002060090160009054906101000a900460ff16600381111561259157612590612e75565b5b146125d1576040517f08c379a00000000000000000000000000000000000000000000000000000000081526004016125c890613f6e565b60405180910390fd5b876007816040516125e29190613f0b565b908152602001604051809103902060009054906101000a900460ff161561263e576040517f08c379a000000000000000000000000000000000000000000000000000000000815260040161263590613fda565b60405180910390fd5b600160078a6040516126509190613f0b565b908152602001604051809103902060006101000a81548160ff021916908315150217905550600180546126839190613935565b600181905550600060015490506040518061014001604052808281526020013373ffffffffffffffffffffffffffffffffffffffff1681526020018b81526020018a81526020018781526020018681526020018515158152602001898152602001888152602001600160038111156126fe576126fd612e75565b5b815250600560003373ffffffffffffffffffffffffffffffffffffffff1673ffffffffffffffffffffffffffffffffffffffff1681526020019081526020016000206000820151816000015560208201518160010160006101000a81548173ffffffffffffffffffffffffffffffffffffffff021916908373ffffffffffffffffffffffffffffffffffffffff16021790555060408201518160020190816127a69190613b75565b5060608201518160030190816127bc9190613b75565b5060808201518160040190816127d29190613b75565b5060a0820151816005015560c08201518160060160006101000a81548160ff02191690831515021790555060e08201518160070190816128129190613b75565b506101008201518160080190816128299190613b75565b506101208201518160090160006101000a81548160ff0219169083600381111561285657612855612e75565b5b02179055509050503360068b60405161286f9190613f0b565b908152602001604051809103902060006101000a81548173ffffffffffffffffffffffffffffffffffffffff021916908373ffffffffffffffffffffffffffffffffffffffff1602179055507fabc58c36475157c4ac7669f9adfbb6f254d3a3578fb89676f6866ac3b9950eed33826040516128ec929190613ffa565b60405180910390a150505050505050505050565b60405180610100016040528060008152602001600073ffffffffffffffffffffffffffffffffffffffff16815260200160608152602001606081526020016000815260200160008152602001600081526020016000600381111561296757612966612e75565b5b81525090565b60405180610100016040528060008152602001600073ffffffffffffffffffffffffffffffffffffffff1681526020016000815260200160608152602001600081526020016000815260200160008152602001600060038111156129d4576129d3612e75565b5b81525090565b6000604051905090565b600080fd5b600080fd5b6000819050919050565b612a01816129ee565b8114612a0c57600080fd5b50565b600081359050612a1e816129f8565b92915050565b600060208284031215612a3a57612a396129e4565b5b6000612a4884828501612a0f565b91505092915050565b600080fd5b600080fd5b6000601f19601f8301169050919050565b7f4e487b7100000000000000000000000000000000000000000000000000000000600052604160045260246000fd5b612aa482612a5b565b810181811067ffffffffffffffff82111715612ac357612ac2612a6c565b5b80604052505050565b6000612ad66129da565b9050612ae28282612a9b565b919050565b600067ffffffffffffffff821115612b0257612b01612a6c565b5b612b0b82612a5b565b9050602081019050919050565b82818337600083830152505050565b6000612b3a612b3584612ae7565b612acc565b905082815260208101848484011115612b5657612b55612a56565b5b612b61848285612b18565b509392505050565b600082601f830112612b7e57612b7d612a51565b5b8135612b8e848260208601612b27565b91505092915050565b60008060408385031215612bae57612bad6129e4565b5b600083013567ffffffffffffffff811115612bcc57612bcb6129e9565b5b612bd885828601612b69565b925050602083013567ffffffffffffffff811115612bf957612bf86129e9565b5b612c0585828601612b69565b9150509250929050565b60008060408385031215612c2657612c256129e4565b5b6000612c3485828601612a0f565b925050602083013567ffffffffffffffff811115612c5557612c546129e9565b5b612c6185828601612b69565b9150509250929050565b60008060408385031215612c8257612c816129e4565b5b6000612c9085828601612a0f565b9250506020612ca185828601612a0f565b9150509250929050565b600081519050919050565b600082825260208201905092915050565b6000819050602082019050919050565b612ce0816129ee565b82525050565b6000612cf28383612cd7565b60208301905092915050565b6000602082019050919050565b6000612d1682612cab565b612d208185612cb6565b9350612d2b83612cc7565b8060005b83811015612d5c578151612d438882612ce6565b9750612d4e83612cfe565b925050600181019050612d2f565b5085935050505092915050565b60006020820190508181036000830152612d838184612d0b565b905092915050565b612d94816129ee565b82525050565b6000602082019050612daf6000830184612d8b565b92915050565b600073ffffffffffffffffffffffffffffffffffffffff82169050919050565b6000612de082612db5565b9050919050565b612df081612dd5565b82525050565b600081519050919050565b600082825260208201905092915050565b60005b83811015612e30578082015181840152602081019050612e15565b60008484015250505050565b6000612e4782612df6565b612e518185612e01565b9350612e61818560208601612e12565b612e6a81612a5b565b840191505092915050565b7f4e487b7100000000000000000000000000000000000000000000000000000000600052602160045260246000fd5b60048110612eb557612eb4612e75565b5b50565b6000819050612ec682612ea4565b919050565b6000612ed682612eb8565b9050919050565b612ee681612ecb565b82525050565b600061010083016000830151612f056000860182612cd7565b506020830151612f186020860182612de7565b5060408301518482036040860152612f308282612e3c565b91505060608301518482036060860152612f4a8282612e3c565b9150506080830151612f5f6080860182612cd7565b5060a0830151612f7260a0860182612cd7565b5060c0830151612f8560c0860182612cd7565b5060e0830151612f9860e0860182612edd565b508091505092915050565b60006020820190508181036000830152612fbd8184612eec565b905092915050565b60048110612fd657612fd5612e75565b5b50565b6000819050612fe782612fc5565b919050565b6000612ff782612fd9565b9050919050565b61300781612fec565b82525050565b6000610100830160008301516130266000860182612cd7565b5060208301516130396020860182612de7565b50604083015161304c6040860182612cd7565b50606083015184820360608601526130648282612e3c565b91505060808301516130796080860182612cd7565b5060a083015161308c60a0860182612cd7565b5060c083015161309f60c0860182612cd7565b5060e08301516130b260e0860182612ffe565b508091505092915050565b600060208201905081810360008301526130d7818461300d565b905092915050565b6130e881612dd5565b81146130f357600080fd5b50565b600081359050613105816130df565b92915050565b600060208284031215613121576131206129e4565b5b600061312f848285016130f6565b91505092915050565b600082825260208201905092915050565b600061315482612df6565b61315e8185613138565b935061316e818560208601612e12565b61317781612a5b565b840191505092915050565b60008115159050919050565b61319781613182565b82525050565b6000610100820190506131b3600083018b612d8b565b81810360208301526131c5818a613149565b905081810360408301526131d98189613149565b905081810360608301526131ed8188613149565b90506131fc6080830187612d8b565b61320960a083018661318e565b81810360c083015261321b8185613149565b905081810360e083015261322f8184613149565b90509998505050505050505050565b60008060408385031215613255576132546129e4565b5b600061326385828601612a0f565b9250506020613274858286016130f6565b9150509250929050565b6000602082019050613293600083018461318e565b92915050565b60006132a482612db5565b9050919050565b6132b481613299565b82525050565b60006020820190506132cf60008301846132ab565b92915050565b600081519050919050565b600082825260208201905092915050565b6000819050602082019050919050565b60006101008301600083015161331a6000860182612cd7565b50602083015161332d6020860182612de7565b50604083015184820360408601526133458282612e3c565b9150506060830151848203606086015261335f8282612e3c565b91505060808301516133746080860182612cd7565b5060a083015161338760a0860182612cd7565b5060c083015161339a60c0860182612cd7565b5060e08301516133ad60e0860182612edd565b508091505092915050565b60006133c48383613301565b905092915050565b6000602082019050919050565b60006133e4826132d5565b6133ee81856132e0565b935083602082028501613400856132f1565b8060005b8581101561343c578484038952815161341d85826133b8565b9450613428836133cc565b925060208a01995050600181019050613404565b50829750879550505050505092915050565b6000602082019050818103600083015261346881846133d9565b905092915050565b600060208284031215613486576134856129e4565b5b600082013567ffffffffffffffff8111156134a4576134a36129e9565b5b6134b084828501612b69565b91505092915050565b6000806000606084860312156134d2576134d16129e4565b5b60006134e086828701612a0f565b93505060206134f186828701612a0f565b925050604061350286828701612a0f565b9150509250925092565b600081519050919050565b600082825260208201905092915050565b6000819050602082019050919050565b6000610100830160008301516135516000860182612cd7565b5060208301516135646020860182612de7565b5060408301516135776040860182612cd7565b506060830151848203606086015261358f8282612e3c565b91505060808301516135a46080860182612cd7565b5060a08301516135b760a0860182612cd7565b5060c08301516135ca60c0860182612cd7565b5060e08301516135dd60e0860182612ffe565b508091505092915050565b60006135f48383613538565b905092915050565b6000602082019050919050565b60006136148261350c565b61361e8185613517565b93508360208202850161363085613528565b8060005b8581101561366c578484038952815161364d85826135e8565b9450613658836135fc565b925060208a01995050600181019050613634565b50829750879550505050505092915050565b600060208201905081810360008301526136988184613609565b905092915050565b6136a981613182565b81146136b457600080fd5b50565b6000813590506136c6816136a0565b92915050565b600080600080600080600060e0888a0312156136eb576136ea6129e4565b5b600088013567ffffffffffffffff811115613709576137086129e9565b5b6137158a828b01612b69565b975050602088013567ffffffffffffffff811115613736576137356129e9565b5b6137428a828b01612b69565b965050604088013567ffffffffffffffff811115613763576137626129e9565b5b61376f8a828b01612b69565b955050606088013567ffffffffffffffff8111156137905761378f6129e9565b5b61379c8a828b01612b69565b945050608088013567ffffffffffffffff8111156137bd576137bc6129e9565b5b6137c98a828b01612b69565b93505060a06137da8a828b01612a0f565b92505060c06137eb8a828b016136b7565b91505092959891949750929550565b7f4e6f742061205265676973746572656420557365722100000000000000000000600082015250565b6000613830601683613138565b915061383b826137fa565b602082019050919050565b6000602082019050818103600083015261385f81613823565b9050919050565b7f4e6f7420616e2061637469766520706f73740000000000000000000000000000600082015250565b600061389c601283613138565b91506138a782613866565b602082019050919050565b600060208201905081810360008301526138cb8161388f565b9050919050565b7f4e487b7100000000000000000000000000000000000000000000000000000000600052601160045260246000fd5b600061390c826129ee565b9150613917836129ee565b925082820390508181111561392f5761392e6138d2565b5b92915050565b6000613940826129ee565b915061394b836129ee565b9250828201905080821115613963576139626138d2565b5b92915050565b7f4e487b7100000000000000000000000000000000000000000000000000000000600052602260045260246000fd5b600060028204905060018216806139b057607f821691505b6020821081036139c3576139c2613969565b5b50919050565b60008190508160005260206000209050919050565b60006020601f8301049050919050565b600082821b905092915050565b600060088302613a2b7fffffffffffffffffffffffffffffffffffffffffffffffffffffffffffffffff826139ee565b613a3586836139ee565b95508019841693508086168417925050509392505050565b6000819050919050565b6000613a72613a6d613a68846129ee565b613a4d565b6129ee565b9050919050565b6000819050919050565b613a8c83613a57565b613aa0613a9882613a79565b8484546139fb565b825550505050565b600090565b613ab5613aa8565b613ac0818484613a83565b505050565b5b81811015613ae457613ad9600082613aad565b600181019050613ac6565b5050565b601f821115613b2957613afa816139c9565b613b03846139de565b81016020851015613b12578190505b613b26613b1e856139de565b830182613ac5565b50505b505050565b600082821c905092915050565b6000613b4c60001984600802613b2e565b1980831691505092915050565b6000613b658383613b3b565b9150826002028217905092915050565b613b7e82612df6565b67ffffffffffffffff811115613b9757613b96612a6c565b5b613ba18254613998565b613bac828285613ae8565b600060209050601f831160018114613bdf5760008415613bcd578287015190505b613bd78582613b59565b865550613c3f565b601f198416613bed866139c9565b60005b82811015613c1557848901518255600182019150602085019450602081019050613bf0565b86831015613c325784890151613c2e601f891682613b3b565b8355505b6001600288020188555050505b505050505050565b613c5081612dd5565b82525050565b6000606082019050613c6b6000830186613c47565b613c786020830185612d8b565b613c856040830184612d8b565b949350505050565b7f436f6d6d656e742063616e206e6f7420626520656d7074792021000000000000600082015250565b6000613cc3601a83613138565b9150613cce82613c8d565b602082019050919050565b60006020820190508181036000830152613cf281613cb6565b9050919050565b6000819050919050565b6000613d1e613d19613d1484613cf9565b613a4d565b6129ee565b9050919050565b613d2e81613d03565b82525050565b600060e082019050613d49600083018a613c47565b613d566020830189612d8b565b613d636040830188612d8b565b613d706060830187613d25565b613d7d6080830186613d25565b613d8a60a0830185612d8b565b81810360c0830152613d9c8184613149565b905098975050505050505050565b6000613db5826129ee565b9150613dc0836129ee565b9250828202613dce816129ee565b91508282048414831517613de557613de46138d2565b5b5092915050565b7f4e487b7100000000000000000000000000000000000000000000000000000000600052603260045260246000fd5b6000613e26826129ee565b91507fffffffffffffffffffffffffffffffffffffffffffffffffffffffffffffffff8203613e5857613e576138d2565b5b600182019050919050565b7f4e6f7420616e2061637469766520636f6d6d656e740000000000000000000000600082015250565b6000613e99601583613138565b9150613ea482613e63565b602082019050919050565b60006020820190508181036000830152613ec881613e8c565b9050919050565b600081905092915050565b6000613ee582612df6565b613eef8185613ecf565b9350613eff818560208601612e12565b80840191505092915050565b6000613f178284613eda565b915081905092915050565b7f5573657220616c72656164792072656769737465726564000000000000000000600082015250565b6000613f58601783613138565b9150613f6382613f22565b602082019050919050565b60006020820190508181036000830152613f8781613f4b565b9050919050565b7f557365726e616d6520616c72656164792074616b656e00000000000000000000600082015250565b6000613fc4601683613138565b9150613fcf82613f8e565b602082019050919050565b60006020820190508181036000830152613ff381613fb7565b9050919050565b600060408201905061400f6000830185613c47565b61401c6020830184612d8b565b939250505056fea264697066735822122067d9099dac696750963c3418a1066db336d7381ba1ceef67ff3b427425f2081864736f6c63430008120033","opcodes":"PUSH1 0x80 PUSH1 0x40 MSTORE PUSH1 0x0 PUSH1 0x1 SSTORE PUSH1 0x0 PUSH1 0x2 SSTORE PUSH1 0x0 PUSH1 0x3 SSTORE CALLVALUE DUP1 ISZERO PUSH3 0x20 JUMPI PUSH1 0x0 DUP1 REVERT JUMPDEST POP CALLER PUSH1 0x0 DUP1 PUSH2 0x100 EXP DUP2 SLOAD DUP2 PUSH20 0xFFFFFFFFFFFFFFFFFFFFFFFFFFFFFFFFFFFFFFFF MUL NOT AND SWAP1 DUP4 PUSH20 0xFFFFFFFFFFFFFFFFFFFFFFFFFFFFFFFFFFFFFFFF AND MUL OR SWAP1 SSTORE POP PUSH3 0x136 PUSH1 0x40 MLOAD DUP1 PUSH1 0x40 ADD PUSH1 0x40 MSTORE DUP1 PUSH1 0x5 DUP2 MSTORE PUSH1 0x20 ADD PUSH32 0x6F776E6572000000000000000000000000000000000000000000000000000000 DUP2 MSTORE POP PUSH1 0x40 MLOAD DUP1 PUSH1 0x40 ADD PUSH1 0x40 MSTORE DUP1 PUSH1 0x5 DUP2 MSTORE PUSH1 0x20 ADD PUSH32 0x6F776E6572000000000000000000000000000000000000000000000000000000 DUP2 MSTORE POP PUSH1 0x40 MLOAD DUP1 PUSH1 0x20 ADD PUSH1 0x40 MSTORE DUP1 PUSH1 0x0 DUP2 MSTORE POP PUSH1 0x40 MLOAD DUP1 PUSH1 0x20 ADD PUSH1 0x40 MSTORE DUP1 PUSH1 0x0 DUP2 MSTORE POP PUSH1 0x40 MLOAD DUP1 PUSH1 0x40 ADD PUSH1 0x40 MSTORE DUP1 PUSH1 0x5 DUP2 MSTORE PUSH1 0x20 ADD PUSH32 0x6F776E6572000000000000000000000000000000000000000000000000000000 DUP2 MSTORE POP PUSH1 0x1 DUP1 PUSH3 0x13C PUSH1 0x20 SHL PUSH1 0x20 SHR JUMP JUMPDEST PUSH3 0xB41 JUMP JUMPDEST CALLER PUSH1 0x0 PUSH1 0x3 DUP2 GT ISZERO PUSH3 0x154 JUMPI PUSH3 0x153 PUSH3 0x548 JUMP JUMPDEST JUMPDEST PUSH1 0x5 PUSH1 0x0 DUP4 PUSH20 0xFFFFFFFFFFFFFFFFFFFFFFFFFFFFFFFFFFFFFFFF AND PUSH20 0xFFFFFFFFFFFFFFFFFFFFFFFFFFFFFFFFFFFFFFFF AND DUP2 MSTORE PUSH1 0x20 ADD SWAP1 DUP2 MSTORE PUSH1 0x20 ADD PUSH1 0x0 KECCAK256 PUSH1 0x9 ADD PUSH1 0x0 SWAP1 SLOAD SWAP1 PUSH2 0x100 EXP SWAP1 DIV PUSH1 0xFF AND PUSH1 0x3 DUP2 GT ISZERO PUSH3 0x1B9 JUMPI PUSH3 0x1B8 PUSH3 0x548 JUMP JUMPDEST JUMPDEST EQ PUSH3 0x1FC JUMPI PUSH1 0x40 MLOAD PUSH32 0x8C379A000000000000000000000000000000000000000000000000000000000 DUP2 MSTORE PUSH1 0x4 ADD PUSH3 0x1F3 SWAP1 PUSH3 0x5D8 JUMP JUMPDEST PUSH1 0x40 MLOAD DUP1 SWAP2 SUB SWAP1 REVERT JUMPDEST DUP8 PUSH1 0x7 DUP2 PUSH1 0x40 MLOAD PUSH3 0x20F SWAP2 SWAP1 PUSH3 0x673 JUMP JUMPDEST SWAP1 DUP2 MSTORE PUSH1 0x20 ADD PUSH1 0x40 MLOAD DUP1 SWAP2 SUB SWAP1 KECCAK256 PUSH1 0x0 SWAP1 SLOAD SWAP1 PUSH2 0x100 EXP SWAP1 DIV PUSH1 0xFF AND ISZERO PUSH3 0x26E JUMPI PUSH1 0x40 MLOAD PUSH32 0x8C379A000000000000000000000000000000000000000000000000000000000 DUP2 MSTORE PUSH1 0x4 ADD PUSH3 0x265 SWAP1 PUSH3 0x6DC JUMP JUMPDEST PUSH1 0x40 MLOAD DUP1 SWAP2 SUB SWAP1 REVERT JUMPDEST PUSH1 0x1 PUSH1 0x7 DUP11 PUSH1 0x40 MLOAD PUSH3 0x282 SWAP2 SWAP1 PUSH3 0x673 JUMP JUMPDEST SWAP1 DUP2 MSTORE PUSH1 0x20 ADD PUSH1 0x40 MLOAD DUP1 SWAP2 SUB SWAP1 KECCAK256 PUSH1 0x0 PUSH2 0x100 EXP DUP2 SLOAD DUP2 PUSH1 0xFF MUL NOT AND SWAP1 DUP4 ISZERO ISZERO MUL OR SWAP1 SSTORE POP PUSH1 0x1 DUP1 SLOAD PUSH3 0x2B7 SWAP2 SWAP1 PUSH3 0x737 JUMP JUMPDEST PUSH1 0x1 DUP2 SWAP1 SSTORE POP PUSH1 0x0 PUSH1 0x1 SLOAD SWAP1 POP PUSH1 0x40 MLOAD DUP1 PUSH2 0x140 ADD PUSH1 0x40 MSTORE DUP1 DUP3 DUP2 MSTORE PUSH1 0x20 ADD CALLER PUSH20 0xFFFFFFFFFFFFFFFFFFFFFFFFFFFFFFFFFFFFFFFF AND DUP2 MSTORE PUSH1 0x20 ADD DUP12 DUP2 MSTORE PUSH1 0x20 ADD DUP11 DUP2 MSTORE PUSH1 0x20 ADD DUP8 DUP2 MSTORE PUSH1 0x20 ADD DUP7 DUP2 MSTORE PUSH1 0x20 ADD DUP6 ISZERO ISZERO DUP2 MSTORE PUSH1 0x20 ADD DUP10 DUP2 MSTORE PUSH1 0x20 ADD DUP9 DUP2 MSTORE PUSH1 0x20 ADD PUSH1 0x1 PUSH1 0x3 DUP2 GT ISZERO PUSH3 0x335 JUMPI PUSH3 0x334 PUSH3 0x548 JUMP JUMPDEST JUMPDEST DUP2 MSTORE POP PUSH1 0x5 PUSH1 0x0 CALLER PUSH20 0xFFFFFFFFFFFFFFFFFFFFFFFFFFFFFFFFFFFFFFFF AND PUSH20 0xFFFFFFFFFFFFFFFFFFFFFFFFFFFFFFFFFFFFFFFF AND DUP2 MSTORE PUSH1 0x20 ADD SWAP1 DUP2 MSTORE PUSH1 0x20 ADD PUSH1 0x0 KECCAK256 PUSH1 0x0 DUP3 ADD MLOAD DUP2 PUSH1 0x0 ADD SSTORE PUSH1 0x20 DUP3 ADD MLOAD DUP2 PUSH1 0x1 ADD PUSH1 0x0 PUSH2 0x100 EXP DUP2 SLOAD DUP2 PUSH20 0xFFFFFFFFFFFFFFFFFFFFFFFFFFFFFFFFFFFFFFFF MUL NOT AND SWAP1 DUP4 PUSH20 0xFFFFFFFFFFFFFFFFFFFFFFFFFFFFFFFFFFFFFFFF AND MUL OR SWAP1 SSTORE POP PUSH1 0x40 DUP3 ADD MLOAD DUP2 PUSH1 0x2 ADD SWAP1 DUP2 PUSH3 0x3DF SWAP2 SWAP1 PUSH3 0x9D7 JUMP JUMPDEST POP PUSH1 0x60 DUP3 ADD MLOAD DUP2 PUSH1 0x3 ADD SWAP1 DUP2 PUSH3 0x3F7 SWAP2 SWAP1 PUSH3 0x9D7 JUMP JUMPDEST POP PUSH1 0x80 DUP3 ADD MLOAD DUP2 PUSH1 0x4 ADD SWAP1 DUP2 PUSH3 0x40F SWAP2 SWAP1 PUSH3 0x9D7 JUMP JUMPDEST POP PUSH1 0xA0 DUP3 ADD MLOAD DUP2 PUSH1 0x5 ADD SSTORE PUSH1 0xC0 DUP3 ADD MLOAD DUP2 PUSH1 0x6 ADD PUSH1 0x0 PUSH2 0x100 EXP DUP2 SLOAD DUP2 PUSH1 0xFF MUL NOT AND SWAP1 DUP4 ISZERO ISZERO MUL OR SWAP1 SSTORE POP PUSH1 0xE0 DUP3 ADD MLOAD DUP2 PUSH1 0x7 ADD SWAP1 DUP2 PUSH3 0x451 SWAP2 SWAP1 PUSH3 0x9D7 JUMP JUMPDEST POP PUSH2 0x100 DUP3 ADD MLOAD DUP2 PUSH1 0x8 ADD SWAP1 DUP2 PUSH3 0x46A SWAP2 SWAP1 PUSH3 0x9D7 JUMP JUMPDEST POP PUSH2 0x120 DUP3 ADD MLOAD DUP2 PUSH1 0x9 ADD PUSH1 0x0 PUSH2 0x100 EXP DUP2 SLOAD DUP2 PUSH1 0xFF MUL NOT AND SWAP1 DUP4 PUSH1 0x3 DUP2 GT ISZERO PUSH3 0x49A JUMPI PUSH3 0x499 PUSH3 0x548 JUMP JUMPDEST JUMPDEST MUL OR SWAP1 SSTORE POP SWAP1 POP POP CALLER PUSH1 0x6 DUP12 PUSH1 0x40 MLOAD PUSH3 0x4B5 SWAP2 SWAP1 PUSH3 0x673 JUMP JUMPDEST SWAP1 DUP2 MSTORE PUSH1 0x20 ADD PUSH1 0x40 MLOAD DUP1 SWAP2 SUB SWAP1 KECCAK256 PUSH1 0x0 PUSH2 0x100 EXP DUP2 SLOAD DUP2 PUSH20 0xFFFFFFFFFFFFFFFFFFFFFFFFFFFFFFFFFFFFFFFF MUL NOT AND SWAP1 DUP4 PUSH20 0xFFFFFFFFFFFFFFFFFFFFFFFFFFFFFFFFFFFFFFFF AND MUL OR SWAP1 SSTORE POP PUSH32 0xABC58C36475157C4AC7669F9ADFBB6F254D3A3578FB89676F6866AC3B9950EED CALLER DUP3 PUSH1 0x40 MLOAD PUSH3 0x534 SWAP3 SWAP2 SWAP1 PUSH3 0xB14 JUMP JUMPDEST PUSH1 0x40 MLOAD DUP1 SWAP2 SUB SWAP1 LOG1 POP POP POP POP POP POP POP POP POP POP JUMP JUMPDEST PUSH32 0x4E487B7100000000000000000000000000000000000000000000000000000000 PUSH1 0x0 MSTORE PUSH1 0x21 PUSH1 0x4 MSTORE PUSH1 0x24 PUSH1 0x0 REVERT JUMPDEST PUSH1 0x0 DUP3 DUP3 MSTORE PUSH1 0x20 DUP3 ADD SWAP1 POP SWAP3 SWAP2 POP POP JUMP JUMPDEST PUSH32 0x5573657220616C72656164792072656769737465726564000000000000000000 PUSH1 0x0 DUP3 ADD MSTORE POP JUMP JUMPDEST PUSH1 0x0 PUSH3 0x5C0 PUSH1 0x17 DUP4 PUSH3 0x577 JUMP JUMPDEST SWAP2 POP PUSH3 0x5CD DUP3 PUSH3 0x588 JUMP JUMPDEST PUSH1 0x20 DUP3 ADD SWAP1 POP SWAP2 SWAP1 POP JUMP JUMPDEST PUSH1 0x0 PUSH1 0x20 DUP3 ADD SWAP1 POP DUP2 DUP2 SUB PUSH1 0x0 DUP4 ADD MSTORE PUSH3 0x5F3 DUP2 PUSH3 0x5B1 JUMP JUMPDEST SWAP1 POP SWAP2 SWAP1 POP JUMP JUMPDEST PUSH1 0x0 DUP2 MLOAD SWAP1 POP SWAP2 SWAP1 POP JUMP JUMPDEST PUSH1 0x0 DUP2 SWAP1 POP SWAP3 SWAP2 POP POP JUMP JUMPDEST PUSH1 0x0 JUMPDEST DUP4 DUP2 LT ISZERO PUSH3 0x630 JUMPI DUP1 DUP3 ADD MLOAD DUP2 DUP5 ADD MSTORE PUSH1 0x20 DUP2 ADD SWAP1 POP PUSH3 0x613 JUMP JUMPDEST PUSH1 0x0 DUP5 DUP5 ADD MSTORE POP POP POP POP JUMP JUMPDEST PUSH1 0x0 PUSH3 0x649 DUP3 PUSH3 0x5FA JUMP JUMPDEST PUSH3 0x655 DUP2 DUP6 PUSH3 0x605 JUMP JUMPDEST SWAP4 POP PUSH3 0x667 DUP2 DUP6 PUSH1 0x20 DUP7 ADD PUSH3 0x610 JUMP JUMPDEST DUP1 DUP5 ADD SWAP2 POP POP SWAP3 SWAP2 POP POP JUMP JUMPDEST PUSH1 0x0 PUSH3 0x681 DUP3 DUP5 PUSH3 0x63C JUMP JUMPDEST SWAP2 POP DUP2 SWAP1 POP SWAP3 SWAP2 POP POP JUMP JUMPDEST PUSH32 0x557365726E616D6520616C72656164792074616B656E00000000000000000000 PUSH1 0x0 DUP3 ADD MSTORE POP JUMP JUMPDEST PUSH1 0x0 PUSH3 0x6C4 PUSH1 0x16 DUP4 PUSH3 0x577 JUMP JUMPDEST SWAP2 POP PUSH3 0x6D1 DUP3 PUSH3 0x68C JUMP JUMPDEST PUSH1 0x20 DUP3 ADD SWAP1 POP SWAP2 SWAP1 POP JUMP JUMPDEST PUSH1 0x0 PUSH1 0x20 DUP3 ADD SWAP1 POP DUP2 DUP2 SUB PUSH1 0x0 DUP4 ADD MSTORE PUSH3 0x6F7 DUP2 PUSH3 0x6B5 JUMP JUMPDEST SWAP1 POP SWAP2 SWAP1 POP JUMP JUMPDEST PUSH1 0x0 DUP2 SWAP1 POP SWAP2 SWAP1 POP JUMP JUMPDEST PUSH32 0x4E487B7100000000000000000000000000000000000000000000000000000000 PUSH1 0x0 MSTORE PUSH1 0x11 PUSH1 0x4 MSTORE PUSH1 0x24 PUSH1 0x0 REVERT JUMPDEST PUSH1 0x0 PUSH3 0x744 DUP3 PUSH3 0x6FE JUMP JUMPDEST SWAP2 POP PUSH3 0x751 DUP4 PUSH3 0x6FE JUMP JUMPDEST SWAP3 POP DUP3 DUP3 ADD SWAP1 POP DUP1 DUP3 GT ISZERO PUSH3 0x76C JUMPI PUSH3 0x76B PUSH3 0x708 JUMP JUMPDEST JUMPDEST SWAP3 SWAP2 POP POP JUMP JUMPDEST PUSH32 0x4E487B7100000000000000000000000000000000000000000000000000000000 PUSH1 0x0 MSTORE PUSH1 0x41 PUSH1 0x4 MSTORE PUSH1 0x24 PUSH1 0x0 REVERT JUMPDEST PUSH32 0x4E487B7100000000000000000000000000000000000000000000000000000000 PUSH1 0x0 MSTORE PUSH1 0x22 PUSH1 0x4 MSTORE PUSH1 0x24 PUSH1 0x0 REVERT JUMPDEST PUSH1 0x0 PUSH1 0x2 DUP3 DIV SWAP1 POP PUSH1 0x1 DUP3 AND DUP1 PUSH3 0x7E9 JUMPI PUSH1 0x7F DUP3 AND SWAP2 POP JUMPDEST PUSH1 0x20 DUP3 LT DUP2 SUB PUSH3 0x7FF JUMPI PUSH3 0x7FE PUSH3 0x7A1 JUMP JUMPDEST JUMPDEST POP SWAP2 SWAP1 POP JUMP JUMPDEST PUSH1 0x0 DUP2 SWAP1 POP DUP2 PUSH1 0x0 MSTORE PUSH1 0x20 PUSH1 0x0 KECCAK256 SWAP1 POP SWAP2 SWAP1 POP JUMP JUMPDEST PUSH1 0x0 PUSH1 0x20 PUSH1 0x1F DUP4 ADD DIV SWAP1 POP SWAP2 SWAP1 POP JUMP JUMPDEST PUSH1 0x0 DUP3 DUP3 SHL SWAP1 POP SWAP3 SWAP2 POP POP JUMP JUMPDEST PUSH1 0x0 PUSH1 0x8 DUP4 MUL PUSH3 0x869 PUSH32 0xFFFFFFFFFFFFFFFFFFFFFFFFFFFFFFFFFFFFFFFFFFFFFFFFFFFFFFFFFFFFFFFF DUP3 PUSH3 0x82A JUMP JUMPDEST PUSH3 0x875 DUP7 DUP4 PUSH3 0x82A JUMP JUMPDEST SWAP6 POP DUP1 NOT DUP5 AND SWAP4 POP DUP1 DUP7 AND DUP5 OR SWAP3 POP POP POP SWAP4 SWAP3 POP POP POP JUMP JUMPDEST PUSH1 0x0 DUP2 SWAP1 POP SWAP2 SWAP1 POP JUMP JUMPDEST PUSH1 0x0 PUSH3 0x8B8 PUSH3 0x8B2 PUSH3 0x8AC DUP5 PUSH3 0x6FE JUMP JUMPDEST PUSH3 0x88D JUMP JUMPDEST PUSH3 0x6FE JUMP JUMPDEST SWAP1 POP SWAP2 SWAP1 POP JUMP JUMPDEST PUSH1 0x0 DUP2 SWAP1 POP SWAP2 SWAP1 POP JUMP JUMPDEST PUSH3 0x8D4 DUP4 PUSH3 0x897 JUMP JUMPDEST PUSH3 0x8EC PUSH3 0x8E3 DUP3 PUSH3 0x8BF JUMP JUMPDEST DUP5 DUP5 SLOAD PUSH3 0x837 JUMP JUMPDEST DUP3 SSTORE POP POP POP POP JUMP JUMPDEST PUSH1 0x0 SWAP1 JUMP JUMPDEST PUSH3 0x903 PUSH3 0x8F4 JUMP JUMPDEST PUSH3 0x910 DUP2 DUP5 DUP5 PUSH3 0x8C9 JUMP JUMPDEST POP POP POP JUMP JUMPDEST JUMPDEST DUP2 DUP2 LT ISZERO PUSH3 0x938 JUMPI PUSH3 0x92C PUSH1 0x0 DUP3 PUSH3 0x8F9 JUMP JUMPDEST PUSH1 0x1 DUP2 ADD SWAP1 POP PUSH3 0x916 JUMP JUMPDEST POP POP JUMP JUMPDEST PUSH1 0x1F DUP3 GT ISZERO PUSH3 0x987 JUMPI PUSH3 0x951 DUP2 PUSH3 0x805 JUMP JUMPDEST PUSH3 0x95C DUP5 PUSH3 0x81A JUMP JUMPDEST DUP2 ADD PUSH1 0x20 DUP6 LT ISZERO PUSH3 0x96C JUMPI DUP2 SWAP1 POP JUMPDEST PUSH3 0x984 PUSH3 0x97B DUP6 PUSH3 0x81A JUMP JUMPDEST DUP4 ADD DUP3 PUSH3 0x915 JUMP JUMPDEST POP POP JUMPDEST POP POP POP JUMP JUMPDEST PUSH1 0x0 DUP3 DUP3 SHR SWAP1 POP SWAP3 SWAP2 POP POP JUMP JUMPDEST PUSH1 0x0 PUSH3 0x9AC PUSH1 0x0 NOT DUP5 PUSH1 0x8 MUL PUSH3 0x98C JUMP JUMPDEST NOT DUP1 DUP4 AND SWAP2 POP POP SWAP3 SWAP2 POP POP JUMP JUMPDEST PUSH1 0x0 PUSH3 0x9C7 DUP4 DUP4 PUSH3 0x999 JUMP JUMPDEST SWAP2 POP DUP3 PUSH1 0x2 MUL DUP3 OR SWAP1 POP SWAP3 SWAP2 POP POP JUMP JUMPDEST PUSH3 0x9E2 DUP3 PUSH3 0x5FA JUMP JUMPDEST PUSH8 0xFFFFFFFFFFFFFFFF DUP2 GT ISZERO PUSH3 0x9FE JUMPI PUSH3 0x9FD PUSH3 0x772 JUMP JUMPDEST JUMPDEST PUSH3 0xA0A DUP3 SLOAD PUSH3 0x7D0 JUMP JUMPDEST PUSH3 0xA17 DUP3 DUP3 DUP6 PUSH3 0x93C JUMP JUMPDEST PUSH1 0x0 PUSH1 0x20 SWAP1 POP PUSH1 0x1F DUP4 GT PUSH1 0x1 DUP2 EQ PUSH3 0xA4F JUMPI PUSH1 0x0 DUP5 ISZERO PUSH3 0xA3A JUMPI DUP3 DUP8 ADD MLOAD SWAP1 POP JUMPDEST PUSH3 0xA46 DUP6 DUP3 PUSH3 0x9B9 JUMP JUMPDEST DUP7 SSTORE POP PUSH3 0xAB6 JUMP JUMPDEST PUSH1 0x1F NOT DUP5 AND PUSH3 0xA5F DUP7 PUSH3 0x805 JUMP JUMPDEST PUSH1 0x0 JUMPDEST DUP3 DUP2 LT ISZERO PUSH3 0xA89 JUMPI DUP5 DUP10 ADD MLOAD DUP3 SSTORE PUSH1 0x1 DUP3 ADD SWAP2 POP PUSH1 0x20 DUP6 ADD SWAP5 POP PUSH1 0x20 DUP2 ADD SWAP1 POP PUSH3 0xA62 JUMP JUMPDEST DUP7 DUP4 LT ISZERO PUSH3 0xAA9 JUMPI DUP5 DUP10 ADD MLOAD PUSH3 0xAA5 PUSH1 0x1F DUP10 AND DUP3 PUSH3 0x999 JUMP JUMPDEST DUP4 SSTORE POP JUMPDEST PUSH1 0x1 PUSH1 0x2 DUP9 MUL ADD DUP9 SSTORE POP POP POP JUMPDEST POP POP POP POP POP POP JUMP JUMPDEST PUSH1 0x0 PUSH20 0xFFFFFFFFFFFFFFFFFFFFFFFFFFFFFFFFFFFFFFFF DUP3 AND SWAP1 POP SWAP2 SWAP1 POP JUMP JUMPDEST PUSH1 0x0 PUSH3 0xAEB DUP3 PUSH3 0xABE JUMP JUMPDEST SWAP1 POP SWAP2 SWAP1 POP JUMP JUMPDEST PUSH3 0xAFD DUP2 PUSH3 0xADE JUMP JUMPDEST DUP3 MSTORE POP POP JUMP JUMPDEST PUSH3 0xB0E DUP2 PUSH3 0x6FE JUMP JUMPDEST DUP3 MSTORE POP POP JUMP JUMPDEST PUSH1 0x0 PUSH1 0x40 DUP3 ADD SWAP1 POP PUSH3 0xB2B PUSH1 0x0 DUP4 ADD DUP6 PUSH3 0xAF2 JUMP JUMPDEST PUSH3 0xB3A PUSH1 0x20 DUP4 ADD DUP5 PUSH3 0xB03 JUMP JUMPDEST SWAP4 SWAP3 POP POP POP JUMP JUMPDEST PUSH2 0x4059 DUP1 PUSH3 0xB51 PUSH1 0x0 CODECOPY PUSH1 0x0 RETURN INVALID PUSH1 0x80 PUSH1 0x40 MSTORE CALLVALUE DUP1 ISZERO PUSH2 0x10 JUMPI PUSH1 0x0 DUP1 REVERT JUMPDEST POP PUSH1 0x4 CALLDATASIZE LT PUSH2 0x10B JUMPI PUSH1 0x0 CALLDATALOAD PUSH1 0xE0 SHR DUP1 PUSH4 0x725009D3 GT PUSH2 0xA2 JUMPI DUP1 PUSH4 0x9A2194A9 GT PUSH2 0x71 JUMPI DUP1 PUSH4 0x9A2194A9 EQ PUSH2 0x2D1 JUMPI DUP1 PUSH4 0xB90C2073 EQ PUSH2 0x301 JUMPI DUP1 PUSH4 0xBEBCE300 EQ PUSH2 0x331 JUMPI DUP1 PUSH4 0xBFF1F9E1 EQ PUSH2 0x361 JUMPI DUP1 PUSH4 0xF82217C1 EQ PUSH2 0x37F JUMPI PUSH2 0x10B JUMP JUMPDEST DUP1 PUSH4 0x725009D3 EQ PUSH2 0x249 JUMPI DUP1 PUSH4 0x875003AA EQ PUSH2 0x265 JUMPI DUP1 PUSH4 0x8DA5CB5B EQ PUSH2 0x295 JUMPI DUP1 PUSH4 0x8E53FB41 EQ PUSH2 0x2B3 JUMPI PUSH2 0x10B JUMP JUMPDEST DUP1 PUSH4 0x61936B81 GT PUSH2 0xDE JUMPI DUP1 PUSH4 0x61936B81 EQ PUSH2 0x194 JUMPI DUP1 PUSH4 0x64E95895 EQ PUSH2 0x1B2 JUMPI DUP1 PUSH4 0x6C43DBB4 EQ PUSH2 0x1E2 JUMPI DUP1 PUSH4 0x6F77926B EQ PUSH2 0x212 JUMPI PUSH2 0x10B JUMP JUMPDEST DUP1 PUSH4 0x2F4992EF EQ PUSH2 0x110 JUMPI DUP1 PUSH4 0x392338F5 EQ PUSH2 0x12C JUMPI DUP1 PUSH4 0x40A17985 EQ PUSH2 0x148 JUMPI DUP1 PUSH4 0x49E03502 EQ PUSH2 0x164 JUMPI JUMPDEST PUSH1 0x0 DUP1 REVERT JUMPDEST PUSH2 0x12A PUSH1 0x4 DUP1 CALLDATASIZE SUB DUP2 ADD SWAP1 PUSH2 0x125 SWAP2 SWAP1 PUSH2 0x2A24 JUMP JUMPDEST PUSH2 0x39B JUMP JUMPDEST STOP JUMPDEST PUSH2 0x146 PUSH1 0x4 DUP1 CALLDATASIZE SUB DUP2 ADD SWAP1 PUSH2 0x141 SWAP2 SWAP1 PUSH2 0x2B97 JUMP JUMPDEST PUSH2 0x5EF JUMP JUMPDEST STOP JUMPDEST PUSH2 0x162 PUSH1 0x4 DUP1 CALLDATASIZE SUB DUP2 ADD SWAP1 PUSH2 0x15D SWAP2 SWAP1 PUSH2 0x2C0F JUMP JUMPDEST PUSH2 0x91A JUMP JUMPDEST STOP JUMPDEST PUSH2 0x17E PUSH1 0x4 DUP1 CALLDATASIZE SUB DUP2 ADD SWAP1 PUSH2 0x179 SWAP2 SWAP1 PUSH2 0x2C6B JUMP JUMPDEST PUSH2 0xC81 JUMP JUMPDEST PUSH1 0x40 MLOAD PUSH2 0x18B SWAP2 SWAP1 PUSH2 0x2D69 JUMP JUMPDEST PUSH1 0x40 MLOAD DUP1 SWAP2 SUB SWAP1 RETURN JUMPDEST PUSH2 0x19C PUSH2 0xE4C JUMP JUMPDEST PUSH1 0x40 MLOAD PUSH2 0x1A9 SWAP2 SWAP1 PUSH2 0x2D9A JUMP JUMPDEST PUSH1 0x40 MLOAD DUP1 SWAP2 SUB SWAP1 RETURN JUMPDEST PUSH2 0x1CC PUSH1 0x4 DUP1 CALLDATASIZE SUB DUP2 ADD SWAP1 PUSH2 0x1C7 SWAP2 SWAP1 PUSH2 0x2A24 JUMP JUMPDEST PUSH2 0xE52 JUMP JUMPDEST PUSH1 0x40 MLOAD PUSH2 0x1D9 SWAP2 SWAP1 PUSH2 0x2FA3 JUMP JUMPDEST PUSH1 0x40 MLOAD DUP1 SWAP2 SUB SWAP1 RETURN JUMPDEST PUSH2 0x1FC PUSH1 0x4 DUP1 CALLDATASIZE SUB DUP2 ADD SWAP1 PUSH2 0x1F7 SWAP2 SWAP1 PUSH2 0x2A24 JUMP JUMPDEST PUSH2 0x11A1 JUMP JUMPDEST PUSH1 0x40 MLOAD PUSH2 0x209 SWAP2 SWAP1 PUSH2 0x30BD JUMP JUMPDEST PUSH1 0x40 MLOAD DUP1 SWAP2 SUB SWAP1 RETURN JUMPDEST PUSH2 0x22C PUSH1 0x4 DUP1 CALLDATASIZE SUB DUP2 ADD SWAP1 PUSH2 0x227 SWAP2 SWAP1 PUSH2 0x310B JUMP JUMPDEST PUSH2 0x1468 JUMP JUMPDEST PUSH1 0x40 MLOAD PUSH2 0x240 SWAP9 SWAP8 SWAP7 SWAP6 SWAP5 SWAP4 SWAP3 SWAP2 SWAP1 PUSH2 0x319D JUMP JUMPDEST PUSH1 0x40 MLOAD DUP1 SWAP2 SUB SWAP1 RETURN JUMPDEST PUSH2 0x263 PUSH1 0x4 DUP1 CALLDATASIZE SUB DUP2 ADD SWAP1 PUSH2 0x25E SWAP2 SWAP1 PUSH2 0x2A24 JUMP JUMPDEST PUSH2 0x18A3 JUMP JUMPDEST STOP JUMPDEST PUSH2 0x27F PUSH1 0x4 DUP1 CALLDATASIZE SUB DUP2 ADD SWAP1 PUSH2 0x27A SWAP2 SWAP1 PUSH2 0x323E JUMP JUMPDEST PUSH2 0x1AF8 JUMP JUMPDEST PUSH1 0x40 MLOAD PUSH2 0x28C SWAP2 SWAP1 PUSH2 0x327E JUMP JUMPDEST PUSH1 0x40 MLOAD DUP1 SWAP2 SUB SWAP1 RETURN JUMPDEST PUSH2 0x29D PUSH2 0x1CA4 JUMP JUMPDEST PUSH1 0x40 MLOAD PUSH2 0x2AA SWAP2 SWAP1 PUSH2 0x32BA JUMP JUMPDEST PUSH1 0x40 MLOAD DUP1 SWAP2 SUB SWAP1 RETURN JUMPDEST PUSH2 0x2BB PUSH2 0x1CC8 JUMP JUMPDEST PUSH1 0x40 MLOAD PUSH2 0x2C8 SWAP2 SWAP1 PUSH2 0x2D9A JUMP JUMPDEST PUSH1 0x40 MLOAD DUP1 SWAP2 SUB SWAP1 RETURN JUMPDEST PUSH2 0x2EB PUSH1 0x4 DUP1 CALLDATASIZE SUB DUP2 ADD SWAP1 PUSH2 0x2E6 SWAP2 SWAP1 PUSH2 0x310B JUMP JUMPDEST PUSH2 0x1CCE JUMP JUMPDEST PUSH1 0x40 MLOAD PUSH2 0x2F8 SWAP2 SWAP1 PUSH2 0x344E JUMP JUMPDEST PUSH1 0x40 MLOAD DUP1 SWAP2 SUB SWAP1 RETURN JUMPDEST PUSH2 0x31B PUSH1 0x4 DUP1 CALLDATASIZE SUB DUP2 ADD SWAP1 PUSH2 0x316 SWAP2 SWAP1 PUSH2 0x3470 JUMP JUMPDEST PUSH2 0x20D1 JUMP JUMPDEST PUSH1 0x40 MLOAD PUSH2 0x328 SWAP2 SWAP1 PUSH2 0x327E JUMP JUMPDEST PUSH1 0x40 MLOAD DUP1 SWAP2 SUB SWAP1 RETURN JUMPDEST PUSH2 0x34B PUSH1 0x4 DUP1 CALLDATASIZE SUB DUP2 ADD SWAP1 PUSH2 0x346 SWAP2 SWAP1 PUSH2 0x34B9 JUMP JUMPDEST PUSH2 0x2107 JUMP JUMPDEST PUSH1 0x40 MLOAD PUSH2 0x358 SWAP2 SWAP1 PUSH2 0x367E JUMP JUMPDEST PUSH1 0x40 MLOAD DUP1 SWAP2 SUB SWAP1 RETURN JUMPDEST PUSH2 0x369 PUSH2 0x2514 JUMP JUMPDEST PUSH1 0x40 MLOAD PUSH2 0x376 SWAP2 SWAP1 PUSH2 0x2D9A JUMP JUMPDEST PUSH1 0x40 MLOAD DUP1 SWAP2 SUB SWAP1 RETURN JUMPDEST PUSH2 0x399 PUSH1 0x4 DUP1 CALLDATASIZE SUB DUP2 ADD SWAP1 PUSH2 0x394 SWAP2 SWAP1 PUSH2 0x36CC JUMP JUMPDEST PUSH2 0x251A JUMP JUMPDEST STOP JUMPDEST CALLER PUSH1 0x1 PUSH1 0x3 DUP2 GT ISZERO PUSH2 0x3B0 JUMPI PUSH2 0x3AF PUSH2 0x2E75 JUMP JUMPDEST JUMPDEST PUSH1 0x5 PUSH1 0x0 DUP4 PUSH20 0xFFFFFFFFFFFFFFFFFFFFFFFFFFFFFFFFFFFFFFFF AND PUSH20 0xFFFFFFFFFFFFFFFFFFFFFFFFFFFFFFFFFFFFFFFF AND DUP2 MSTORE PUSH1 0x20 ADD SWAP1 DUP2 MSTORE PUSH1 0x20 ADD PUSH1 0x0 KECCAK256 PUSH1 0x9 ADD PUSH1 0x0 SWAP1 SLOAD SWAP1 PUSH2 0x100 EXP SWAP1 DIV PUSH1 0xFF AND PUSH1 0x3 DUP2 GT ISZERO PUSH2 0x412 JUMPI PUSH2 0x411 PUSH2 0x2E75 JUMP JUMPDEST JUMPDEST EQ PUSH2 0x452 JUMPI PUSH1 0x40 MLOAD PUSH32 0x8C379A000000000000000000000000000000000000000000000000000000000 DUP2 MSTORE PUSH1 0x4 ADD PUSH2 0x449 SWAP1 PUSH2 0x3846 JUMP JUMPDEST PUSH1 0x40 MLOAD DUP1 SWAP2 SUB SWAP1 REVERT JUMPDEST DUP2 PUSH1 0x1 PUSH1 0x3 DUP2 GT ISZERO PUSH2 0x467 JUMPI PUSH2 0x466 PUSH2 0x2E75 JUMP JUMPDEST JUMPDEST PUSH1 0x8 PUSH1 0x0 DUP4 DUP2 MSTORE PUSH1 0x20 ADD SWAP1 DUP2 MSTORE PUSH1 0x20 ADD PUSH1 0x0 KECCAK256 PUSH1 0x7 ADD PUSH1 0x0 SWAP1 SLOAD SWAP1 PUSH2 0x100 EXP SWAP1 DIV PUSH1 0xFF AND PUSH1 0x3 DUP2 GT ISZERO PUSH2 0x49D JUMPI PUSH2 0x49C PUSH2 0x2E75 JUMP JUMPDEST JUMPDEST EQ PUSH2 0x4DD JUMPI PUSH1 0x40 MLOAD PUSH32 0x8C379A000000000000000000000000000000000000000000000000000000000 DUP2 MSTORE PUSH1 0x4 ADD PUSH2 0x4D4 SWAP1 PUSH2 0x38B2 JUMP JUMPDEST PUSH1 0x40 MLOAD DUP1 SWAP2 SUB SWAP1 REVERT JUMPDEST PUSH1 0xA PUSH1 0x0 DUP5 DUP2 MSTORE PUSH1 0x20 ADD SWAP1 DUP2 MSTORE PUSH1 0x20 ADD PUSH1 0x0 KECCAK256 PUSH1 0x0 CALLER PUSH20 0xFFFFFFFFFFFFFFFFFFFFFFFFFFFFFFFFFFFFFFFF AND PUSH20 0xFFFFFFFFFFFFFFFFFFFFFFFFFFFFFFFFFFFFFFFF AND DUP2 MSTORE PUSH1 0x20 ADD SWAP1 DUP2 MSTORE PUSH1 0x20 ADD PUSH1 0x0 KECCAK256 PUSH1 0x0 SWAP1 SLOAD SWAP1 PUSH2 0x100 EXP SWAP1 DIV PUSH1 0xFF AND PUSH2 0x544 JUMPI PUSH1 0x0 DUP1 REVERT JUMPDEST PUSH1 0x1 PUSH1 0x8 PUSH1 0x0 DUP6 DUP2 MSTORE PUSH1 0x20 ADD SWAP1 DUP2 MSTORE PUSH1 0x20 ADD PUSH1 0x0 KECCAK256 PUSH1 0x5 ADD SLOAD PUSH2 0x567 SWAP2 SWAP1 PUSH2 0x3901 JUMP JUMPDEST PUSH1 0x8 PUSH1 0x0 DUP6 DUP2 MSTORE PUSH1 0x20 ADD SWAP1 DUP2 MSTORE PUSH1 0x20 ADD PUSH1 0x0 KECCAK256 PUSH1 0x5 ADD DUP2 SWAP1 SSTORE POP PUSH1 0x0 PUSH1 0xA PUSH1 0x0 DUP6 DUP2 MSTORE PUSH1 0x20 ADD SWAP1 DUP2 MSTORE PUSH1 0x20 ADD PUSH1 0x0 KECCAK256 PUSH1 0x0 CALLER PUSH20 0xFFFFFFFFFFFFFFFFFFFFFFFFFFFFFFFFFFFFFFFF AND PUSH20 0xFFFFFFFFFFFFFFFFFFFFFFFFFFFFFFFFFFFFFFFF AND DUP2 MSTORE PUSH1 0x20 ADD SWAP1 DUP2 MSTORE PUSH1 0x20 ADD PUSH1 0x0 KECCAK256 PUSH1 0x0 PUSH2 0x100 EXP DUP2 SLOAD DUP2 PUSH1 0xFF MUL NOT AND SWAP1 DUP4 ISZERO ISZERO MUL OR SWAP1 SSTORE POP POP POP POP JUMP JUMPDEST CALLER PUSH1 0x1 PUSH1 0x3 DUP2 GT ISZERO PUSH2 0x604 JUMPI PUSH2 0x603 PUSH2 0x2E75 JUMP JUMPDEST JUMPDEST PUSH1 0x5 PUSH1 0x0 DUP4 PUSH20 0xFFFFFFFFFFFFFFFFFFFFFFFFFFFFFFFFFFFFFFFF AND PUSH20 0xFFFFFFFFFFFFFFFFFFFFFFFFFFFFFFFFFFFFFFFF AND DUP2 MSTORE PUSH1 0x20 ADD SWAP1 DUP2 MSTORE PUSH1 0x20 ADD PUSH1 0x0 KECCAK256 PUSH1 0x9 ADD PUSH1 0x0 SWAP1 SLOAD SWAP1 PUSH2 0x100 EXP SWAP1 DIV PUSH1 0xFF AND PUSH1 0x3 DUP2 GT ISZERO PUSH2 0x666 JUMPI PUSH2 0x665 PUSH2 0x2E75 JUMP JUMPDEST JUMPDEST EQ PUSH2 0x6A6 JUMPI PUSH1 0x40 MLOAD PUSH32 0x8C379A000000000000000000000000000000000000000000000000000000000 DUP2 MSTORE PUSH1 0x4 ADD PUSH2 0x69D SWAP1 PUSH2 0x3846 JUMP JUMPDEST PUSH1 0x40 MLOAD DUP1 SWAP2 SUB SWAP1 REVERT JUMPDEST PUSH1 0x1 PUSH1 0x2 SLOAD PUSH2 0x6B5 SWAP2 SWAP1 PUSH2 0x3935 JUMP JUMPDEST PUSH1 0x2 DUP2 SWAP1 SSTORE POP PUSH1 0x0 PUSH1 0x2 SLOAD SWAP1 POP PUSH1 0x40 MLOAD DUP1 PUSH2 0x100 ADD PUSH1 0x40 MSTORE DUP1 DUP3 DUP2 MSTORE PUSH1 0x20 ADD CALLER PUSH20 0xFFFFFFFFFFFFFFFFFFFFFFFFFFFFFFFFFFFFFFFF AND DUP2 MSTORE PUSH1 0x20 ADD DUP6 DUP2 MSTORE PUSH1 0x20 ADD DUP5 DUP2 MSTORE PUSH1 0x20 ADD TIMESTAMP DUP2 MSTORE PUSH1 0x20 ADD PUSH1 0x0 DUP2 MSTORE PUSH1 0x20 ADD PUSH1 0x0 DUP2 MSTORE PUSH1 0x20 ADD PUSH1 0x1 PUSH1 0x3 DUP2 GT ISZERO PUSH2 0x724 JUMPI PUSH2 0x723 PUSH2 0x2E75 JUMP JUMPDEST JUMPDEST DUP2 MSTORE POP PUSH1 0x8 PUSH1 0x0 DUP4 DUP2 MSTORE PUSH1 0x20 ADD SWAP1 DUP2 MSTORE PUSH1 0x20 ADD PUSH1 0x0 KECCAK256 PUSH1 0x0 DUP3 ADD MLOAD DUP2 PUSH1 0x0 ADD SSTORE PUSH1 0x20 DUP3 ADD MLOAD DUP2 PUSH1 0x1 ADD PUSH1 0x0 PUSH2 0x100 EXP DUP2 SLOAD DUP2 PUSH20 0xFFFFFFFFFFFFFFFFFFFFFFFFFFFFFFFFFFFFFFFF MUL NOT AND SWAP1 DUP4 PUSH20 0xFFFFFFFFFFFFFFFFFFFFFFFFFFFFFFFFFFFFFFFF AND MUL OR SWAP1 SSTORE POP PUSH1 0x40 DUP3 ADD MLOAD DUP2 PUSH1 0x2 ADD SWAP1 DUP2 PUSH2 0x7A0 SWAP2 SWAP1 PUSH2 0x3B75 JUMP JUMPDEST POP PUSH1 0x60 DUP3 ADD MLOAD DUP2 PUSH1 0x3 ADD SWAP1 DUP2 PUSH2 0x7B6 SWAP2 SWAP1 PUSH2 0x3B75 JUMP JUMPDEST POP PUSH1 0x80 DUP3 ADD MLOAD DUP2 PUSH1 0x4 ADD SSTORE PUSH1 0xA0 DUP3 ADD MLOAD DUP2 PUSH1 0x5 ADD SSTORE PUSH1 0xC0 DUP3 ADD MLOAD DUP2 PUSH1 0x6 ADD SSTORE PUSH1 0xE0 DUP3 ADD MLOAD DUP2 PUSH1 0x7 ADD PUSH1 0x0 PUSH2 0x100 EXP DUP2 SLOAD DUP2 PUSH1 0xFF MUL NOT AND SWAP1 DUP4 PUSH1 0x3 DUP2 GT ISZERO PUSH2 0x800 JUMPI PUSH2 0x7FF PUSH2 0x2E75 JUMP JUMPDEST JUMPDEST MUL OR SWAP1 SSTORE POP SWAP1 POP POP PUSH1 0x9 PUSH1 0x0 CALLER PUSH20 0xFFFFFFFFFFFFFFFFFFFFFFFFFFFFFFFFFFFFFFFF AND PUSH20 0xFFFFFFFFFFFFFFFFFFFFFFFFFFFFFFFFFFFFFFFF AND DUP2 MSTORE PUSH1 0x20 ADD SWAP1 DUP2 MSTORE PUSH1 0x20 ADD PUSH1 0x0 KECCAK256 DUP2 SWAP1 DUP1 PUSH1 0x1 DUP2 SLOAD ADD DUP1 DUP3 SSTORE DUP1 SWAP2 POP POP PUSH1 0x1 SWAP1 SUB SWAP1 PUSH1 0x0 MSTORE PUSH1 0x20 PUSH1 0x0 KECCAK256 ADD PUSH1 0x0 SWAP1 SWAP2 SWAP1 SWAP2 SWAP1 SWAP2 POP SSTORE PUSH1 0x4 DUP2 SWAP1 DUP1 PUSH1 0x1 DUP2 SLOAD ADD DUP1 DUP3 SSTORE DUP1 SWAP2 POP POP PUSH1 0x1 SWAP1 SUB SWAP1 PUSH1 0x0 MSTORE PUSH1 0x20 PUSH1 0x0 KECCAK256 ADD PUSH1 0x0 SWAP1 SWAP2 SWAP1 SWAP2 SWAP1 SWAP2 POP SSTORE PUSH32 0xE78603DEA3231B9AC9A73B3663B6E28DE19F35247E2C32F0115EC263BDC7C49A CALLER PUSH1 0x5 PUSH1 0x0 CALLER PUSH20 0xFFFFFFFFFFFFFFFFFFFFFFFFFFFFFFFFFFFFFFFF AND PUSH20 0xFFFFFFFFFFFFFFFFFFFFFFFFFFFFFFFFFFFFFFFF AND DUP2 MSTORE PUSH1 0x20 ADD SWAP1 DUP2 MSTORE PUSH1 0x20 ADD PUSH1 0x0 KECCAK256 PUSH1 0x0 ADD SLOAD DUP4 PUSH1 0x40 MLOAD PUSH2 0x90C SWAP4 SWAP3 SWAP2 SWAP1 PUSH2 0x3C56 JUMP JUMPDEST PUSH1 0x40 MLOAD DUP1 SWAP2 SUB SWAP1 LOG1 POP POP POP POP JUMP JUMPDEST CALLER PUSH1 0x1 PUSH1 0x3 DUP2 GT ISZERO PUSH2 0x92F JUMPI PUSH2 0x92E PUSH2 0x2E75 JUMP JUMPDEST JUMPDEST PUSH1 0x5 PUSH1 0x0 DUP4 PUSH20 0xFFFFFFFFFFFFFFFFFFFFFFFFFFFFFFFFFFFFFFFF AND PUSH20 0xFFFFFFFFFFFFFFFFFFFFFFFFFFFFFFFFFFFFFFFF AND DUP2 MSTORE PUSH1 0x20 ADD SWAP1 DUP2 MSTORE PUSH1 0x20 ADD PUSH1 0x0 KECCAK256 PUSH1 0x9 ADD PUSH1 0x0 SWAP1 SLOAD SWAP1 PUSH2 0x100 EXP SWAP1 DIV PUSH1 0xFF AND PUSH1 0x3 DUP2 GT ISZERO PUSH2 0x991 JUMPI PUSH2 0x990 PUSH2 0x2E75 JUMP JUMPDEST JUMPDEST EQ PUSH2 0x9D1 JUMPI PUSH1 0x40 MLOAD PUSH32 0x8C379A000000000000000000000000000000000000000000000000000000000 DUP2 MSTORE PUSH1 0x4 ADD PUSH2 0x9C8 SWAP1 PUSH2 0x3846 JUMP JUMPDEST PUSH1 0x40 MLOAD DUP1 SWAP2 SUB SWAP1 REVERT JUMPDEST DUP3 PUSH1 0x1 PUSH1 0x3 DUP2 GT ISZERO PUSH2 0x9E6 JUMPI PUSH2 0x9E5 PUSH2 0x2E75 JUMP JUMPDEST JUMPDEST PUSH1 0x8 PUSH1 0x0 DUP4 DUP2 MSTORE PUSH1 0x20 ADD SWAP1 DUP2 MSTORE PUSH1 0x20 ADD PUSH1 0x0 KECCAK256 PUSH1 0x7 ADD PUSH1 0x0 SWAP1 SLOAD SWAP1 PUSH2 0x100 EXP SWAP1 DIV PUSH1 0xFF AND PUSH1 0x3 DUP2 GT ISZERO PUSH2 0xA1C JUMPI PUSH2 0xA1B PUSH2 0x2E75 JUMP JUMPDEST JUMPDEST EQ PUSH2 0xA5C JUMPI PUSH1 0x40 MLOAD PUSH32 0x8C379A000000000000000000000000000000000000000000000000000000000 DUP2 MSTORE PUSH1 0x4 ADD PUSH2 0xA53 SWAP1 PUSH2 0x38B2 JUMP JUMPDEST PUSH1 0x40 MLOAD DUP1 SWAP2 SUB SWAP1 REVERT JUMPDEST PUSH1 0x0 DUP4 SWAP1 POP PUSH1 0x0 DUP2 MLOAD SUB PUSH2 0xAA5 JUMPI PUSH1 0x40 MLOAD PUSH32 0x8C379A000000000000000000000000000000000000000000000000000000000 DUP2 MSTORE PUSH1 0x4 ADD PUSH2 0xA9C SWAP1 PUSH2 0x3CD9 JUMP JUMPDEST PUSH1 0x40 MLOAD DUP1 SWAP2 SUB SWAP1 REVERT JUMPDEST PUSH1 0x1 PUSH1 0x3 SLOAD PUSH2 0xAB4 SWAP2 SWAP1 PUSH2 0x3935 JUMP JUMPDEST PUSH1 0x3 DUP2 SWAP1 SSTORE POP PUSH1 0x0 PUSH1 0x3 SLOAD SWAP1 POP PUSH1 0x40 MLOAD DUP1 PUSH2 0x100 ADD PUSH1 0x40 MSTORE DUP1 DUP3 DUP2 MSTORE PUSH1 0x20 ADD CALLER PUSH20 0xFFFFFFFFFFFFFFFFFFFFFFFFFFFFFFFFFFFFFFFF AND DUP2 MSTORE PUSH1 0x20 ADD DUP8 DUP2 MSTORE PUSH1 0x20 ADD DUP7 DUP2 MSTORE PUSH1 0x20 ADD PUSH1 0x0 DUP2 MSTORE PUSH1 0x20 ADD PUSH1 0x0 DUP2 MSTORE PUSH1 0x20 ADD TIMESTAMP DUP2 MSTORE PUSH1 0x20 ADD PUSH1 0x1 PUSH1 0x3 DUP2 GT ISZERO PUSH2 0xB23 JUMPI PUSH2 0xB22 PUSH2 0x2E75 JUMP JUMPDEST JUMPDEST DUP2 MSTORE POP PUSH1 0xB PUSH1 0x0 DUP4 DUP2 MSTORE PUSH1 0x20 ADD SWAP1 DUP2 MSTORE PUSH1 0x20 ADD PUSH1 0x0 KECCAK256 PUSH1 0x0 DUP3 ADD MLOAD DUP2 PUSH1 0x0 ADD SSTORE PUSH1 0x20 DUP3 ADD MLOAD DUP2 PUSH1 0x1 ADD PUSH1 0x0 PUSH2 0x100 EXP DUP2 SLOAD DUP2 PUSH20 0xFFFFFFFFFFFFFFFFFFFFFFFFFFFFFFFFFFFFFFFF MUL NOT AND SWAP1 DUP4 PUSH20 0xFFFFFFFFFFFFFFFFFFFFFFFFFFFFFFFFFFFFFFFF AND MUL OR SWAP1 SSTORE POP PUSH1 0x40 DUP3 ADD MLOAD DUP2 PUSH1 0x2 ADD SSTORE PUSH1 0x60 DUP3 ADD MLOAD DUP2 PUSH1 0x3 ADD SWAP1 DUP2 PUSH2 0xBA9 SWAP2 SWAP1 PUSH2 0x3B75 JUMP JUMPDEST POP PUSH1 0x80 DUP3 ADD MLOAD DUP2 PUSH1 0x4 ADD SSTORE PUSH1 0xA0 DUP3 ADD MLOAD DUP2 PUSH1 0x5 ADD SSTORE PUSH1 0xC0 DUP3 ADD MLOAD DUP2 PUSH1 0x6 ADD SSTORE PUSH1 0xE0 DUP3 ADD MLOAD DUP2 PUSH1 0x7 ADD PUSH1 0x0 PUSH2 0x100 EXP DUP2 SLOAD DUP2 PUSH1 0xFF MUL NOT AND SWAP1 DUP4 PUSH1 0x3 DUP2 GT ISZERO PUSH2 0xBF3 JUMPI PUSH2 0xBF2 PUSH2 0x2E75 JUMP JUMPDEST JUMPDEST MUL OR SWAP1 SSTORE POP SWAP1 POP POP PUSH1 0xD PUSH1 0x0 DUP8 DUP2 MSTORE PUSH1 0x20 ADD SWAP1 DUP2 MSTORE PUSH1 0x20 ADD PUSH1 0x0 KECCAK256 DUP2 SWAP1 DUP1 PUSH1 0x1 DUP2 SLOAD ADD DUP1 DUP3 SSTORE DUP1 SWAP2 POP POP PUSH1 0x1 SWAP1 SUB SWAP1 PUSH1 0x0 MSTORE PUSH1 0x20 PUSH1 0x0 KECCAK256 ADD PUSH1 0x0 SWAP1 SWAP2 SWAP1 SWAP2 SWAP1 SWAP2 POP SSTORE PUSH32 0x50621CA627228F52152F460CE13ADF4D014AEB126E3FAA26D112C10B0BB43A13 CALLER DUP3 DUP9 PUSH1 0x0 DUP1 TIMESTAMP DUP12 PUSH1 0x40 MLOAD PUSH2 0xC71 SWAP8 SWAP7 SWAP6 SWAP5 SWAP4 SWAP3 SWAP2 SWAP1 PUSH2 0x3D34 JUMP JUMPDEST PUSH1 0x40 MLOAD DUP1 SWAP2 SUB SWAP1 LOG1 POP POP POP POP POP POP JUMP JUMPDEST PUSH1 0x60 CALLER PUSH1 0x1 PUSH1 0x3 DUP2 GT ISZERO PUSH2 0xC98 JUMPI PUSH2 0xC97 PUSH2 0x2E75 JUMP JUMPDEST JUMPDEST PUSH1 0x5 PUSH1 0x0 DUP4 PUSH20 0xFFFFFFFFFFFFFFFFFFFFFFFFFFFFFFFFFFFFFFFF AND PUSH20 0xFFFFFFFFFFFFFFFFFFFFFFFFFFFFFFFFFFFFFFFF AND DUP2 MSTORE PUSH1 0x20 ADD SWAP1 DUP2 MSTORE PUSH1 0x20 ADD PUSH1 0x0 KECCAK256 PUSH1 0x9 ADD PUSH1 0x0 SWAP1 SLOAD SWAP1 PUSH2 0x100 EXP SWAP1 DIV PUSH1 0xFF AND PUSH1 0x3 DUP2 GT ISZERO PUSH2 0xCFA JUMPI PUSH2 0xCF9 PUSH2 0x2E75 JUMP JUMPDEST JUMPDEST EQ PUSH2 0xD3A JUMPI PUSH1 0x40 MLOAD PUSH32 0x8C379A000000000000000000000000000000000000000000000000000000000 DUP2 MSTORE PUSH1 0x4 ADD PUSH2 0xD31 SWAP1 PUSH2 0x3846 JUMP JUMPDEST PUSH1 0x40 MLOAD DUP1 SWAP2 SUB SWAP1 REVERT JUMPDEST PUSH1 0x0 DUP4 PUSH1 0x1 DUP7 PUSH2 0xD4A SWAP2 SWAP1 PUSH2 0x3901 JUMP JUMPDEST PUSH2 0xD54 SWAP2 SWAP1 PUSH2 0x3DAA JUMP JUMPDEST SWAP1 POP PUSH1 0x0 DUP5 DUP3 PUSH2 0xD64 SWAP2 SWAP1 PUSH2 0x3935 JUMP JUMPDEST SWAP1 POP PUSH1 0x4 DUP1 SLOAD SWAP1 POP DUP2 GT ISZERO PUSH2 0xD7C JUMPI PUSH1 0x4 DUP1 SLOAD SWAP1 POP SWAP1 POP JUMPDEST PUSH1 0x0 DUP3 DUP3 PUSH2 0xD8A SWAP2 SWAP1 PUSH2 0x3901 JUMP JUMPDEST PUSH8 0xFFFFFFFFFFFFFFFF DUP2 GT ISZERO PUSH2 0xDA3 JUMPI PUSH2 0xDA2 PUSH2 0x2A6C JUMP JUMPDEST JUMPDEST PUSH1 0x40 MLOAD SWAP1 DUP1 DUP3 MSTORE DUP1 PUSH1 0x20 MUL PUSH1 0x20 ADD DUP3 ADD PUSH1 0x40 MSTORE DUP1 ISZERO PUSH2 0xDD1 JUMPI DUP2 PUSH1 0x20 ADD PUSH1 0x20 DUP3 MUL DUP1 CALLDATASIZE DUP4 CALLDATACOPY DUP1 DUP3 ADD SWAP2 POP POP SWAP1 POP JUMPDEST POP SWAP1 POP PUSH1 0x0 DUP4 SWAP1 POP JUMPDEST DUP3 DUP2 LT ISZERO PUSH2 0xE3E JUMPI PUSH1 0x4 DUP2 DUP2 SLOAD DUP2 LT PUSH2 0xDF6 JUMPI PUSH2 0xDF5 PUSH2 0x3DEC JUMP JUMPDEST JUMPDEST SWAP1 PUSH1 0x0 MSTORE PUSH1 0x20 PUSH1 0x0 KECCAK256 ADD SLOAD DUP3 DUP6 DUP4 PUSH2 0xE0E SWAP2 SWAP1 PUSH2 0x3901 JUMP JUMPDEST DUP2 MLOAD DUP2 LT PUSH2 0xE1F JUMPI PUSH2 0xE1E PUSH2 0x3DEC JUMP JUMPDEST JUMPDEST PUSH1 0x20 MUL PUSH1 0x20 ADD ADD DUP2 DUP2 MSTORE POP POP DUP1 DUP1 PUSH2 0xE36 SWAP1 PUSH2 0x3E1B JUMP JUMPDEST SWAP2 POP POP PUSH2 0xDDA JUMP JUMPDEST POP DUP1 SWAP5 POP POP POP POP POP SWAP3 SWAP2 POP POP JUMP JUMPDEST PUSH1 0x3 SLOAD DUP2 JUMP JUMPDEST PUSH2 0xE5A PUSH2 0x2900 JUMP JUMPDEST CALLER PUSH1 0x1 PUSH1 0x3 DUP2 GT ISZERO PUSH2 0xE6F JUMPI PUSH2 0xE6E PUSH2 0x2E75 JUMP JUMPDEST JUMPDEST PUSH1 0x5 PUSH1 0x0 DUP4 PUSH20 0xFFFFFFFFFFFFFFFFFFFFFFFFFFFFFFFFFFFFFFFF AND PUSH20 0xFFFFFFFFFFFFFFFFFFFFFFFFFFFFFFFFFFFFFFFF AND DUP2 MSTORE PUSH1 0x20 ADD SWAP1 DUP2 MSTORE PUSH1 0x20 ADD PUSH1 0x0 KECCAK256 PUSH1 0x9 ADD PUSH1 0x0 SWAP1 SLOAD SWAP1 PUSH2 0x100 EXP SWAP1 DIV PUSH1 0xFF AND PUSH1 0x3 DUP2 GT ISZERO PUSH2 0xED1 JUMPI PUSH2 0xED0 PUSH2 0x2E75 JUMP JUMPDEST JUMPDEST EQ PUSH2 0xF11 JUMPI PUSH1 0x40 MLOAD PUSH32 0x8C379A000000000000000000000000000000000000000000000000000000000 DUP2 MSTORE PUSH1 0x4 ADD PUSH2 0xF08 SWAP1 PUSH2 0x3846 JUMP JUMPDEST PUSH1 0x40 MLOAD DUP1 SWAP2 SUB SWAP1 REVERT JUMPDEST DUP3 PUSH1 0x1 PUSH1 0x3 DUP2 GT ISZERO PUSH2 0xF26 JUMPI PUSH2 0xF25 PUSH2 0x2E75 JUMP JUMPDEST JUMPDEST PUSH1 0x8 PUSH1 0x0 DUP4 DUP2 MSTORE PUSH1 0x20 ADD SWAP1 DUP2 MSTORE PUSH1 0x20 ADD PUSH1 0x0 KECCAK256 PUSH1 0x7 ADD PUSH1 0x0 SWAP1 SLOAD SWAP1 PUSH2 0x100 EXP SWAP1 DIV PUSH1 0xFF AND PUSH1 0x3 DUP2 GT ISZERO PUSH2 0xF5C JUMPI PUSH2 0xF5B PUSH2 0x2E75 JUMP JUMPDEST JUMPDEST EQ PUSH2 0xF9C JUMPI PUSH1 0x40 MLOAD PUSH32 0x8C379A000000000000000000000000000000000000000000000000000000000 DUP2 MSTORE PUSH1 0x4 ADD PUSH2 0xF93 SWAP1 PUSH2 0x38B2 JUMP JUMPDEST PUSH1 0x40 MLOAD DUP1 SWAP2 SUB SWAP1 REVERT JUMPDEST PUSH1 0x8 PUSH1 0x0 DUP6 DUP2 MSTORE PUSH1 0x20 ADD SWAP1 DUP2 MSTORE PUSH1 0x20 ADD PUSH1 0x0 KECCAK256 PUSH1 0x40 MLOAD DUP1 PUSH2 0x100 ADD PUSH1 0x40 MSTORE SWAP1 DUP2 PUSH1 0x0 DUP3 ADD SLOAD DUP2 MSTORE PUSH1 0x20 ADD PUSH1 0x1 DUP3 ADD PUSH1 0x0 SWAP1 SLOAD SWAP1 PUSH2 0x100 EXP SWAP1 DIV PUSH20 0xFFFFFFFFFFFFFFFFFFFFFFFFFFFFFFFFFFFFFFFF AND PUSH20 0xFFFFFFFFFFFFFFFFFFFFFFFFFFFFFFFFFFFFFFFF AND PUSH20 0xFFFFFFFFFFFFFFFFFFFFFFFFFFFFFFFFFFFFFFFF AND DUP2 MSTORE PUSH1 0x20 ADD PUSH1 0x2 DUP3 ADD DUP1 SLOAD PUSH2 0x102B SWAP1 PUSH2 0x3998 JUMP JUMPDEST DUP1 PUSH1 0x1F ADD PUSH1 0x20 DUP1 SWAP2 DIV MUL PUSH1 0x20 ADD PUSH1 0x40 MLOAD SWAP1 DUP2 ADD PUSH1 0x40 MSTORE DUP1 SWAP3 SWAP2 SWAP1 DUP2 DUP2 MSTORE PUSH1 0x20 ADD DUP3 DUP1 SLOAD PUSH2 0x1057 SWAP1 PUSH2 0x3998 JUMP JUMPDEST DUP1 ISZERO PUSH2 0x10A4 JUMPI DUP1 PUSH1 0x1F LT PUSH2 0x1079 JUMPI PUSH2 0x100 DUP1 DUP4 SLOAD DIV MUL DUP4 MSTORE SWAP2 PUSH1 0x20 ADD SWAP2 PUSH2 0x10A4 JUMP JUMPDEST DUP3 ADD SWAP2 SWAP1 PUSH1 0x0 MSTORE PUSH1 0x20 PUSH1 0x0 KECCAK256 SWAP1 JUMPDEST DUP2 SLOAD DUP2 MSTORE SWAP1 PUSH1 0x1 ADD SWAP1 PUSH1 0x20 ADD DUP1 DUP4 GT PUSH2 0x1087 JUMPI DUP3 SWAP1 SUB PUSH1 0x1F AND DUP3 ADD SWAP2 JUMPDEST POP POP POP POP POP DUP2 MSTORE PUSH1 0x20 ADD PUSH1 0x3 DUP3 ADD DUP1 SLOAD PUSH2 0x10BD SWAP1 PUSH2 0x3998 JUMP JUMPDEST DUP1 PUSH1 0x1F ADD PUSH1 0x20 DUP1 SWAP2 DIV MUL PUSH1 0x20 ADD PUSH1 0x40 MLOAD SWAP1 DUP2 ADD PUSH1 0x40 MSTORE DUP1 SWAP3 SWAP2 SWAP1 DUP2 DUP2 MSTORE PUSH1 0x20 ADD DUP3 DUP1 SLOAD PUSH2 0x10E9 SWAP1 PUSH2 0x3998 JUMP JUMPDEST DUP1 ISZERO PUSH2 0x1136 JUMPI DUP1 PUSH1 0x1F LT PUSH2 0x110B JUMPI PUSH2 0x100 DUP1 DUP4 SLOAD DIV MUL DUP4 MSTORE SWAP2 PUSH1 0x20 ADD SWAP2 PUSH2 0x1136 JUMP JUMPDEST DUP3 ADD SWAP2 SWAP1 PUSH1 0x0 MSTORE PUSH1 0x20 PUSH1 0x0 KECCAK256 SWAP1 JUMPDEST DUP2 SLOAD DUP2 MSTORE SWAP1 PUSH1 0x1 ADD SWAP1 PUSH1 0x20 ADD DUP1 DUP4 GT PUSH2 0x1119 JUMPI DUP3 SWAP1 SUB PUSH1 0x1F AND DUP3 ADD SWAP2 JUMPDEST POP POP POP POP POP DUP2 MSTORE PUSH1 0x20 ADD PUSH1 0x4 DUP3 ADD SLOAD DUP2 MSTORE PUSH1 0x20 ADD PUSH1 0x5 DUP3 ADD SLOAD DUP2 MSTORE PUSH1 0x20 ADD PUSH1 0x6 DUP3 ADD SLOAD DUP2 MSTORE PUSH1 0x20 ADD PUSH1 0x7 DUP3 ADD PUSH1 0x0 SWAP1 SLOAD SWAP1 PUSH2 0x100 EXP SWAP1 DIV PUSH1 0xFF AND PUSH1 0x3 DUP2 GT ISZERO PUSH2 0x1182 JUMPI PUSH2 0x1181 PUSH2 0x2E75 JUMP JUMPDEST JUMPDEST PUSH1 0x3 DUP2 GT ISZERO PUSH2 0x1194 JUMPI PUSH2 0x1193 PUSH2 0x2E75 JUMP JUMPDEST JUMPDEST DUP2 MSTORE POP POP SWAP3 POP POP POP SWAP2 SWAP1 POP JUMP JUMPDEST PUSH2 0x11A9 PUSH2 0x296D JUMP JUMPDEST CALLER PUSH1 0x1 PUSH1 0x3 DUP2 GT ISZERO PUSH2 0x11BE JUMPI PUSH2 0x11BD PUSH2 0x2E75 JUMP JUMPDEST JUMPDEST PUSH1 0x5 PUSH1 0x0 DUP4 PUSH20 0xFFFFFFFFFFFFFFFFFFFFFFFFFFFFFFFFFFFFFFFF AND PUSH20 0xFFFFFFFFFFFFFFFFFFFFFFFFFFFFFFFFFFFFFFFF AND DUP2 MSTORE PUSH1 0x20 ADD SWAP1 DUP2 MSTORE PUSH1 0x20 ADD PUSH1 0x0 KECCAK256 PUSH1 0x9 ADD PUSH1 0x0 SWAP1 SLOAD SWAP1 PUSH2 0x100 EXP SWAP1 DIV PUSH1 0xFF AND PUSH1 0x3 DUP2 GT ISZERO PUSH2 0x1220 JUMPI PUSH2 0x121F PUSH2 0x2E75 JUMP JUMPDEST JUMPDEST EQ PUSH2 0x1260 JUMPI PUSH1 0x40 MLOAD PUSH32 0x8C379A000000000000000000000000000000000000000000000000000000000 DUP2 MSTORE PUSH1 0x4 ADD PUSH2 0x1257 SWAP1 PUSH2 0x3846 JUMP JUMPDEST PUSH1 0x40 MLOAD DUP1 SWAP2 SUB SWAP1 REVERT JUMPDEST DUP3 PUSH1 0x1 PUSH1 0x3 DUP2 GT ISZERO PUSH2 0x1275 JUMPI PUSH2 0x1274 PUSH2 0x2E75 JUMP JUMPDEST JUMPDEST PUSH1 0xB PUSH1 0x0 DUP4 DUP2 MSTORE PUSH1 0x20 ADD SWAP1 DUP2 MSTORE PUSH1 0x20 ADD PUSH1 0x0 KECCAK256 PUSH1 0x7 ADD PUSH1 0x0 SWAP1 SLOAD SWAP1 PUSH2 0x100 EXP SWAP1 DIV PUSH1 0xFF AND PUSH1 0x3 DUP2 GT ISZERO PUSH2 0x12AB JUMPI PUSH2 0x12AA PUSH2 0x2E75 JUMP JUMPDEST JUMPDEST EQ PUSH2 0x12EB JUMPI PUSH1 0x40 MLOAD PUSH32 0x8C379A000000000000000000000000000000000000000000000000000000000 DUP2 MSTORE PUSH1 0x4 ADD PUSH2 0x12E2 SWAP1 PUSH2 0x3EAF JUMP JUMPDEST PUSH1 0x40 MLOAD DUP1 SWAP2 SUB SWAP1 REVERT JUMPDEST PUSH1 0xB PUSH1 0x0 DUP6 DUP2 MSTORE PUSH1 0x20 ADD SWAP1 DUP2 MSTORE PUSH1 0x20 ADD PUSH1 0x0 KECCAK256 PUSH1 0x40 MLOAD DUP1 PUSH2 0x100 ADD PUSH1 0x40 MSTORE SWAP1 DUP2 PUSH1 0x0 DUP3 ADD SLOAD DUP2 MSTORE PUSH1 0x20 ADD PUSH1 0x1 DUP3 ADD PUSH1 0x0 SWAP1 SLOAD SWAP1 PUSH2 0x100 EXP SWAP1 DIV PUSH20 0xFFFFFFFFFFFFFFFFFFFFFFFFFFFFFFFFFFFFFFFF AND PUSH20 0xFFFFFFFFFFFFFFFFFFFFFFFFFFFFFFFFFFFFFFFF AND PUSH20 0xFFFFFFFFFFFFFFFFFFFFFFFFFFFFFFFFFFFFFFFF AND DUP2 MSTORE PUSH1 0x20 ADD PUSH1 0x2 DUP3 ADD SLOAD DUP2 MSTORE PUSH1 0x20 ADD PUSH1 0x3 DUP3 ADD DUP1 SLOAD PUSH2 0x1384 SWAP1 PUSH2 0x3998 JUMP JUMPDEST DUP1 PUSH1 0x1F ADD PUSH1 0x20 DUP1 SWAP2 DIV MUL PUSH1 0x20 ADD PUSH1 0x40 MLOAD SWAP1 DUP2 ADD PUSH1 0x40 MSTORE DUP1 SWAP3 SWAP2 SWAP1 DUP2 DUP2 MSTORE PUSH1 0x20 ADD DUP3 DUP1 SLOAD PUSH2 0x13B0 SWAP1 PUSH2 0x3998 JUMP JUMPDEST DUP1 ISZERO PUSH2 0x13FD JUMPI DUP1 PUSH1 0x1F LT PUSH2 0x13D2 JUMPI PUSH2 0x100 DUP1 DUP4 SLOAD DIV MUL DUP4 MSTORE SWAP2 PUSH1 0x20 ADD SWAP2 PUSH2 0x13FD JUMP JUMPDEST DUP3 ADD SWAP2 SWAP1 PUSH1 0x0 MSTORE PUSH1 0x20 PUSH1 0x0 KECCAK256 SWAP1 JUMPDEST DUP2 SLOAD DUP2 MSTORE SWAP1 PUSH1 0x1 ADD SWAP1 PUSH1 0x20 ADD DUP1 DUP4 GT PUSH2 0x13E0 JUMPI DUP3 SWAP1 SUB PUSH1 0x1F AND DUP3 ADD SWAP2 JUMPDEST POP POP POP POP POP DUP2 MSTORE PUSH1 0x20 ADD PUSH1 0x4 DUP3 ADD SLOAD DUP2 MSTORE PUSH1 0x20 ADD PUSH1 0x5 DUP3 ADD SLOAD DUP2 MSTORE PUSH1 0x20 ADD PUSH1 0x6 DUP3 ADD SLOAD DUP2 MSTORE PUSH1 0x20 ADD PUSH1 0x7 DUP3 ADD PUSH1 0x0 SWAP1 SLOAD SWAP1 PUSH2 0x100 EXP SWAP1 DIV PUSH1 0xFF AND PUSH1 0x3 DUP2 GT ISZERO PUSH2 0x1449 JUMPI PUSH2 0x1448 PUSH2 0x2E75 JUMP JUMPDEST JUMPDEST PUSH1 0x3 DUP2 GT ISZERO PUSH2 0x145B JUMPI PUSH2 0x145A PUSH2 0x2E75 JUMP JUMPDEST JUMPDEST DUP2 MSTORE POP POP SWAP3 POP POP POP SWAP2 SWAP1 POP JUMP JUMPDEST PUSH1 0x0 PUSH1 0x60 DUP1 PUSH1 0x60 PUSH1 0x0 DUP1 PUSH1 0x60 DUP1 PUSH1 0x0 PUSH1 0x5 PUSH1 0x0 DUP12 PUSH20 0xFFFFFFFFFFFFFFFFFFFFFFFFFFFFFFFFFFFFFFFF AND PUSH20 0xFFFFFFFFFFFFFFFFFFFFFFFFFFFFFFFFFFFFFFFF AND DUP2 MSTORE PUSH1 0x20 ADD SWAP1 DUP2 MSTORE PUSH1 0x20 ADD PUSH1 0x0 KECCAK256 PUSH1 0x40 MLOAD DUP1 PUSH2 0x140 ADD PUSH1 0x40 MSTORE SWAP1 DUP2 PUSH1 0x0 DUP3 ADD SLOAD DUP2 MSTORE PUSH1 0x20 ADD PUSH1 0x1 DUP3 ADD PUSH1 0x0 SWAP1 SLOAD SWAP1 PUSH2 0x100 EXP SWAP1 DIV PUSH20 0xFFFFFFFFFFFFFFFFFFFFFFFFFFFFFFFFFFFFFFFF AND PUSH20 0xFFFFFFFFFFFFFFFFFFFFFFFFFFFFFFFFFFFFFFFF AND PUSH20 0xFFFFFFFFFFFFFFFFFFFFFFFFFFFFFFFFFFFFFFFF AND DUP2 MSTORE PUSH1 0x20 ADD PUSH1 0x2 DUP3 ADD DUP1 SLOAD PUSH2 0x1532 SWAP1 PUSH2 0x3998 JUMP JUMPDEST DUP1 PUSH1 0x1F ADD PUSH1 0x20 DUP1 SWAP2 DIV MUL PUSH1 0x20 ADD PUSH1 0x40 MLOAD SWAP1 DUP2 ADD PUSH1 0x40 MSTORE DUP1 SWAP3 SWAP2 SWAP1 DUP2 DUP2 MSTORE PUSH1 0x20 ADD DUP3 DUP1 SLOAD PUSH2 0x155E SWAP1 PUSH2 0x3998 JUMP JUMPDEST DUP1 ISZERO PUSH2 0x15AB JUMPI DUP1 PUSH1 0x1F LT PUSH2 0x1580 JUMPI PUSH2 0x100 DUP1 DUP4 SLOAD DIV MUL DUP4 MSTORE SWAP2 PUSH1 0x20 ADD SWAP2 PUSH2 0x15AB JUMP JUMPDEST DUP3 ADD SWAP2 SWAP1 PUSH1 0x0 MSTORE PUSH1 0x20 PUSH1 0x0 KECCAK256 SWAP1 JUMPDEST DUP2 SLOAD DUP2 MSTORE SWAP1 PUSH1 0x1 ADD SWAP1 PUSH1 0x20 ADD DUP1 DUP4 GT PUSH2 0x158E JUMPI DUP3 SWAP1 SUB PUSH1 0x1F AND DUP3 ADD SWAP2 JUMPDEST POP POP POP POP POP DUP2 MSTORE PUSH1 0x20 ADD PUSH1 0x3 DUP3 ADD DUP1 SLOAD PUSH2 0x15C4 SWAP1 PUSH2 0x3998 JUMP JUMPDEST DUP1 PUSH1 0x1F ADD PUSH1 0x20 DUP1 SWAP2 DIV MUL PUSH1 0x20 ADD PUSH1 0x40 MLOAD SWAP1 DUP2 ADD PUSH1 0x40 MSTORE DUP1 SWAP3 SWAP2 SWAP1 DUP2 DUP2 MSTORE PUSH1 0x20 ADD DUP3 DUP1 SLOAD PUSH2 0x15F0 SWAP1 PUSH2 0x3998 JUMP JUMPDEST DUP1 ISZERO PUSH2 0x163D JUMPI DUP1 PUSH1 0x1F LT PUSH2 0x1612 JUMPI PUSH2 0x100 DUP1 DUP4 SLOAD DIV MUL DUP4 MSTORE SWAP2 PUSH1 0x20 ADD SWAP2 PUSH2 0x163D JUMP JUMPDEST DUP3 ADD SWAP2 SWAP1 PUSH1 0x0 MSTORE PUSH1 0x20 PUSH1 0x0 KECCAK256 SWAP1 JUMPDEST DUP2 SLOAD DUP2 MSTORE SWAP1 PUSH1 0x1 ADD SWAP1 PUSH1 0x20 ADD DUP1 DUP4 GT PUSH2 0x1620 JUMPI DUP3 SWAP1 SUB PUSH1 0x1F AND DUP3 ADD SWAP2 JUMPDEST POP POP POP POP POP DUP2 MSTORE PUSH1 0x20 ADD PUSH1 0x4 DUP3 ADD DUP1 SLOAD PUSH2 0x1656 SWAP1 PUSH2 0x3998 JUMP JUMPDEST DUP1 PUSH1 0x1F ADD PUSH1 0x20 DUP1 SWAP2 DIV MUL PUSH1 0x20 ADD PUSH1 0x40 MLOAD SWAP1 DUP2 ADD PUSH1 0x40 MSTORE DUP1 SWAP3 SWAP2 SWAP1 DUP2 DUP2 MSTORE PUSH1 0x20 ADD DUP3 DUP1 SLOAD PUSH2 0x1682 SWAP1 PUSH2 0x3998 JUMP JUMPDEST DUP1 ISZERO PUSH2 0x16CF JUMPI DUP1 PUSH1 0x1F LT PUSH2 0x16A4 JUMPI PUSH2 0x100 DUP1 DUP4 SLOAD DIV MUL DUP4 MSTORE SWAP2 PUSH1 0x20 ADD SWAP2 PUSH2 0x16CF JUMP JUMPDEST DUP3 ADD SWAP2 SWAP1 PUSH1 0x0 MSTORE PUSH1 0x20 PUSH1 0x0 KECCAK256 SWAP1 JUMPDEST DUP2 SLOAD DUP2 MSTORE SWAP1 PUSH1 0x1 ADD SWAP1 PUSH1 0x20 ADD DUP1 DUP4 GT PUSH2 0x16B2 JUMPI DUP3 SWAP1 SUB PUSH1 0x1F AND DUP3 ADD SWAP2 JUMPDEST POP POP POP POP POP DUP2 MSTORE PUSH1 0x20 ADD PUSH1 0x5 DUP3 ADD SLOAD DUP2 MSTORE PUSH1 0x20 ADD PUSH1 0x6 DUP3 ADD PUSH1 0x0 SWAP1 SLOAD SWAP1 PUSH2 0x100 EXP SWAP1 DIV PUSH1 0xFF AND ISZERO ISZERO ISZERO ISZERO DUP2 MSTORE PUSH1 0x20 ADD PUSH1 0x7 DUP3 ADD DUP1 SLOAD PUSH2 0x170D SWAP1 PUSH2 0x3998 JUMP JUMPDEST DUP1 PUSH1 0x1F ADD PUSH1 0x20 DUP1 SWAP2 DIV MUL PUSH1 0x20 ADD PUSH1 0x40 MLOAD SWAP1 DUP2 ADD PUSH1 0x40 MSTORE DUP1 SWAP3 SWAP2 SWAP1 DUP2 DUP2 MSTORE PUSH1 0x20 ADD DUP3 DUP1 SLOAD PUSH2 0x1739 SWAP1 PUSH2 0x3998 JUMP JUMPDEST DUP1 ISZERO PUSH2 0x1786 JUMPI DUP1 PUSH1 0x1F LT PUSH2 0x175B JUMPI PUSH2 0x100 DUP1 DUP4 SLOAD DIV MUL DUP4 MSTORE SWAP2 PUSH1 0x20 ADD SWAP2 PUSH2 0x1786 JUMP JUMPDEST DUP3 ADD SWAP2 SWAP1 PUSH1 0x0 MSTORE PUSH1 0x20 PUSH1 0x0 KECCAK256 SWAP1 JUMPDEST DUP2 SLOAD DUP2 MSTORE SWAP1 PUSH1 0x1 ADD SWAP1 PUSH1 0x20 ADD DUP1 DUP4 GT PUSH2 0x1769 JUMPI DUP3 SWAP1 SUB PUSH1 0x1F AND DUP3 ADD SWAP2 JUMPDEST POP POP POP POP POP DUP2 MSTORE PUSH1 0x20 ADD PUSH1 0x8 DUP3 ADD DUP1 SLOAD PUSH2 0x179F SWAP1 PUSH2 0x3998 JUMP JUMPDEST DUP1 PUSH1 0x1F ADD PUSH1 0x20 DUP1 SWAP2 DIV MUL PUSH1 0x20 ADD PUSH1 0x40 MLOAD SWAP1 DUP2 ADD PUSH1 0x40 MSTORE DUP1 SWAP3 SWAP2 SWAP1 DUP2 DUP2 MSTORE PUSH1 0x20 ADD DUP3 DUP1 SLOAD PUSH2 0x17CB SWAP1 PUSH2 0x3998 JUMP JUMPDEST DUP1 ISZERO PUSH2 0x1818 JUMPI DUP1 PUSH1 0x1F LT PUSH2 0x17ED JUMPI PUSH2 0x100 DUP1 DUP4 SLOAD DIV MUL DUP4 MSTORE SWAP2 PUSH1 0x20 ADD SWAP2 PUSH2 0x1818 JUMP JUMPDEST DUP3 ADD SWAP2 SWAP1 PUSH1 0x0 MSTORE PUSH1 0x20 PUSH1 0x0 KECCAK256 SWAP1 JUMPDEST DUP2 SLOAD DUP2 MSTORE SWAP1 PUSH1 0x1 ADD SWAP1 PUSH1 0x20 ADD DUP1 DUP4 GT PUSH2 0x17FB JUMPI DUP3 SWAP1 SUB PUSH1 0x1F AND DUP3 ADD SWAP2 JUMPDEST POP POP POP POP POP DUP2 MSTORE PUSH1 0x20 ADD PUSH1 0x9 DUP3 ADD PUSH1 0x0 SWAP1 SLOAD SWAP1 PUSH2 0x100 EXP SWAP1 DIV PUSH1 0xFF AND PUSH1 0x3 DUP2 GT ISZERO PUSH2 0x1846 JUMPI PUSH2 0x1845 PUSH2 0x2E75 JUMP JUMPDEST JUMPDEST PUSH1 0x3 DUP2 GT ISZERO PUSH2 0x1858 JUMPI PUSH2 0x1857 PUSH2 0x2E75 JUMP JUMPDEST JUMPDEST DUP2 MSTORE POP POP SWAP1 POP DUP1 PUSH1 0x0 ADD MLOAD DUP2 PUSH1 0x40 ADD MLOAD DUP3 PUSH1 0x60 ADD MLOAD DUP4 PUSH1 0x80 ADD MLOAD DUP5 PUSH1 0xA0 ADD MLOAD DUP6 PUSH1 0xC0 ADD MLOAD DUP7 PUSH1 0xE0 ADD MLOAD DUP8 PUSH2 0x100 ADD MLOAD SWAP9 POP SWAP9 POP SWAP9 POP SWAP9 POP SWAP9 POP SWAP9 POP SWAP9 POP SWAP9 POP POP SWAP2 SWAP4 SWAP6 SWAP8 POP SWAP2 SWAP4 SWAP6 SWAP8 JUMP JUMPDEST CALLER PUSH1 0x1 PUSH1 0x3 DUP2 GT ISZERO PUSH2 0x18B8 JUMPI PUSH2 0x18B7 PUSH2 0x2E75 JUMP JUMPDEST JUMPDEST PUSH1 0x5 PUSH1 0x0 DUP4 PUSH20 0xFFFFFFFFFFFFFFFFFFFFFFFFFFFFFFFFFFFFFFFF AND PUSH20 0xFFFFFFFFFFFFFFFFFFFFFFFFFFFFFFFFFFFFFFFF AND DUP2 MSTORE PUSH1 0x20 ADD SWAP1 DUP2 MSTORE PUSH1 0x20 ADD PUSH1 0x0 KECCAK256 PUSH1 0x9 ADD PUSH1 0x0 SWAP1 SLOAD SWAP1 PUSH2 0x100 EXP SWAP1 DIV PUSH1 0xFF AND PUSH1 0x3 DUP2 GT ISZERO PUSH2 0x191A JUMPI PUSH2 0x1919 PUSH2 0x2E75 JUMP JUMPDEST JUMPDEST EQ PUSH2 0x195A JUMPI PUSH1 0x40 MLOAD PUSH32 0x8C379A000000000000000000000000000000000000000000000000000000000 DUP2 MSTORE PUSH1 0x4 ADD PUSH2 0x1951 SWAP1 PUSH2 0x3846 JUMP JUMPDEST PUSH1 0x40 MLOAD DUP1 SWAP2 SUB SWAP1 REVERT JUMPDEST DUP2 PUSH1 0x1 PUSH1 0x3 DUP2 GT ISZERO PUSH2 0x196F JUMPI PUSH2 0x196E PUSH2 0x2E75 JUMP JUMPDEST JUMPDEST PUSH1 0x8 PUSH1 0x0 DUP4 DUP2 MSTORE PUSH1 0x20 ADD SWAP1 DUP2 MSTORE PUSH1 0x20 ADD PUSH1 0x0 KECCAK256 PUSH1 0x7 ADD PUSH1 0x0 SWAP1 SLOAD SWAP1 PUSH2 0x100 EXP SWAP1 DIV PUSH1 0xFF AND PUSH1 0x3 DUP2 GT ISZERO PUSH2 0x19A5 JUMPI PUSH2 0x19A4 PUSH2 0x2E75 JUMP JUMPDEST JUMPDEST EQ PUSH2 0x19E5 JUMPI PUSH1 0x40 MLOAD PUSH32 0x8C379A000000000000000000000000000000000000000000000000000000000 DUP2 MSTORE PUSH1 0x4 ADD PUSH2 0x19DC SWAP1 PUSH2 0x38B2 JUMP JUMPDEST PUSH1 0x40 MLOAD DUP1 SWAP2 SUB SWAP1 REVERT JUMPDEST PUSH1 0xA PUSH1 0x0 DUP5 DUP2 MSTORE PUSH1 0x20 ADD SWAP1 DUP2 MSTORE PUSH1 0x20 ADD PUSH1 0x0 KECCAK256 PUSH1 0x0 CALLER PUSH20 0xFFFFFFFFFFFFFFFFFFFFFFFFFFFFFFFFFFFFFFFF AND PUSH20 0xFFFFFFFFFFFFFFFFFFFFFFFFFFFFFFFFFFFFFFFF AND DUP2 MSTORE PUSH1 0x20 ADD SWAP1 DUP2 MSTORE PUSH1 0x20 ADD PUSH1 0x0 KECCAK256 PUSH1 0x0 SWAP1 SLOAD SWAP1 PUSH2 0x100 EXP SWAP1 DIV PUSH1 0xFF AND ISZERO PUSH2 0x1A4D JUMPI PUSH1 0x0 DUP1 REVERT JUMPDEST PUSH1 0x1 PUSH1 0x8 PUSH1 0x0 DUP6 DUP2 MSTORE PUSH1 0x20 ADD SWAP1 DUP2 MSTORE PUSH1 0x20 ADD PUSH1 0x0 KECCAK256 PUSH1 0x5 ADD SLOAD PUSH2 0x1A70 SWAP2 SWAP1 PUSH2 0x3935 JUMP JUMPDEST PUSH1 0x8 PUSH1 0x0 DUP6 DUP2 MSTORE PUSH1 0x20 ADD SWAP1 DUP2 MSTORE PUSH1 0x20 ADD PUSH1 0x0 KECCAK256 PUSH1 0x5 ADD DUP2 SWAP1 SSTORE POP PUSH1 0x1 PUSH1 0xA PUSH1 0x0 DUP6 DUP2 MSTORE PUSH1 0x20 ADD SWAP1 DUP2 MSTORE PUSH1 0x20 ADD PUSH1 0x0 KECCAK256 PUSH1 0x0 CALLER PUSH20 0xFFFFFFFFFFFFFFFFFFFFFFFFFFFFFFFFFFFFFFFF AND PUSH20 0xFFFFFFFFFFFFFFFFFFFFFFFFFFFFFFFFFFFFFFFF AND DUP2 MSTORE PUSH1 0x20 ADD SWAP1 DUP2 MSTORE PUSH1 0x20 ADD PUSH1 0x0 KECCAK256 PUSH1 0x0 PUSH2 0x100 EXP DUP2 SLOAD DUP2 PUSH1 0xFF MUL NOT AND SWAP1 DUP4 ISZERO ISZERO MUL OR SWAP1 SSTORE POP POP POP POP JUMP JUMPDEST PUSH1 0x0 DUP3 PUSH1 0x1 PUSH1 0x3 DUP2 GT ISZERO PUSH2 0x1B0F JUMPI PUSH2 0x1B0E PUSH2 0x2E75 JUMP JUMPDEST JUMPDEST PUSH1 0x8 PUSH1 0x0 DUP4 DUP2 MSTORE PUSH1 0x20 ADD SWAP1 DUP2 MSTORE PUSH1 0x20 ADD PUSH1 0x0 KECCAK256 PUSH1 0x7 ADD PUSH1 0x0 SWAP1 SLOAD SWAP1 PUSH2 0x100 EXP SWAP1 DIV PUSH1 0xFF AND PUSH1 0x3 DUP2 GT ISZERO PUSH2 0x1B45 JUMPI PUSH2 0x1B44 PUSH2 0x2E75 JUMP JUMPDEST JUMPDEST EQ PUSH2 0x1B85 JUMPI PUSH1 0x40 MLOAD PUSH32 0x8C379A000000000000000000000000000000000000000000000000000000000 DUP2 MSTORE PUSH1 0x4 ADD PUSH2 0x1B7C SWAP1 PUSH2 0x38B2 JUMP JUMPDEST PUSH1 0x40 MLOAD DUP1 SWAP2 SUB SWAP1 REVERT JUMPDEST DUP3 PUSH1 0x1 PUSH1 0x3 DUP2 GT ISZERO PUSH2 0x1B9A JUMPI PUSH2 0x1B99 PUSH2 0x2E75 JUMP JUMPDEST JUMPDEST PUSH1 0x5 PUSH1 0x0 DUP4 PUSH20 0xFFFFFFFFFFFFFFFFFFFFFFFFFFFFFFFFFFFFFFFF AND PUSH20 0xFFFFFFFFFFFFFFFFFFFFFFFFFFFFFFFFFFFFFFFF AND DUP2 MSTORE PUSH1 0x20 ADD SWAP1 DUP2 MSTORE PUSH1 0x20 ADD PUSH1 0x0 KECCAK256 PUSH1 0x9 ADD PUSH1 0x0 SWAP1 SLOAD SWAP1 PUSH2 0x100 EXP SWAP1 DIV PUSH1 0xFF AND PUSH1 0x3 DUP2 GT ISZERO PUSH2 0x1BFC JUMPI PUSH2 0x1BFB PUSH2 0x2E75 JUMP JUMPDEST JUMPDEST EQ PUSH2 0x1C3C JUMPI PUSH1 0x40 MLOAD PUSH32 0x8C379A000000000000000000000000000000000000000000000000000000000 DUP2 MSTORE PUSH1 0x4 ADD PUSH2 0x1C33 SWAP1 PUSH2 0x3846 JUMP JUMPDEST PUSH1 0x40 MLOAD DUP1 SWAP2 SUB SWAP1 REVERT JUMPDEST PUSH1 0xA PUSH1 0x0 DUP7 DUP2 MSTORE PUSH1 0x20 ADD SWAP1 DUP2 MSTORE PUSH1 0x20 ADD PUSH1 0x0 KECCAK256 PUSH1 0x0 DUP6 PUSH20 0xFFFFFFFFFFFFFFFFFFFFFFFFFFFFFFFFFFFFFFFF AND PUSH20 0xFFFFFFFFFFFFFFFFFFFFFFFFFFFFFFFFFFFFFFFF AND DUP2 MSTORE PUSH1 0x20 ADD SWAP1 DUP2 MSTORE PUSH1 0x20 ADD PUSH1 0x0 KECCAK256 PUSH1 0x0 SWAP1 SLOAD SWAP1 PUSH2 0x100 EXP SWAP1 DIV PUSH1 0xFF AND SWAP3 POP POP POP SWAP3 SWAP2 POP POP JUMP JUMPDEST PUSH1 0x0 DUP1 SLOAD SWAP1 PUSH2 0x100 EXP SWAP1 DIV PUSH20 0xFFFFFFFFFFFFFFFFFFFFFFFFFFFFFFFFFFFFFFFF AND DUP2 JUMP JUMPDEST PUSH1 0x2 SLOAD DUP2 JUMP JUMPDEST PUSH1 0x60 CALLER PUSH1 0x1 PUSH1 0x3 DUP2 GT ISZERO PUSH2 0x1CE5 JUMPI PUSH2 0x1CE4 PUSH2 0x2E75 JUMP JUMPDEST JUMPDEST PUSH1 0x5 PUSH1 0x0 DUP4 PUSH20 0xFFFFFFFFFFFFFFFFFFFFFFFFFFFFFFFFFFFFFFFF AND PUSH20 0xFFFFFFFFFFFFFFFFFFFFFFFFFFFFFFFFFFFFFFFF AND DUP2 MSTORE PUSH1 0x20 ADD SWAP1 DUP2 MSTORE PUSH1 0x20 ADD PUSH1 0x0 KECCAK256 PUSH1 0x9 ADD PUSH1 0x0 SWAP1 SLOAD SWAP1 PUSH2 0x100 EXP SWAP1 DIV PUSH1 0xFF AND PUSH1 0x3 DUP2 GT ISZERO PUSH2 0x1D47 JUMPI PUSH2 0x1D46 PUSH2 0x2E75 JUMP JUMPDEST JUMPDEST EQ PUSH2 0x1D87 JUMPI PUSH1 0x40 MLOAD PUSH32 0x8C379A000000000000000000000000000000000000000000000000000000000 DUP2 MSTORE PUSH1 0x4 ADD PUSH2 0x1D7E SWAP1 PUSH2 0x3846 JUMP JUMPDEST PUSH1 0x40 MLOAD DUP1 SWAP2 SUB SWAP1 REVERT JUMPDEST PUSH1 0x0 PUSH1 0x9 PUSH1 0x0 DUP6 PUSH20 0xFFFFFFFFFFFFFFFFFFFFFFFFFFFFFFFFFFFFFFFF AND PUSH20 0xFFFFFFFFFFFFFFFFFFFFFFFFFFFFFFFFFFFFFFFF AND DUP2 MSTORE PUSH1 0x20 ADD SWAP1 DUP2 MSTORE PUSH1 0x20 ADD PUSH1 0x0 KECCAK256 DUP1 SLOAD DUP1 PUSH1 0x20 MUL PUSH1 0x20 ADD PUSH1 0x40 MLOAD SWAP1 DUP2 ADD PUSH1 0x40 MSTORE DUP1 SWAP3 SWAP2 SWAP1 DUP2 DUP2 MSTORE PUSH1 0x20 ADD DUP3 DUP1 SLOAD DUP1 ISZERO PUSH2 0x1E12 JUMPI PUSH1 0x20 MUL DUP3 ADD SWAP2 SWAP1 PUSH1 0x0 MSTORE PUSH1 0x20 PUSH1 0x0 KECCAK256 SWAP1 JUMPDEST DUP2 SLOAD DUP2 MSTORE PUSH1 0x20 ADD SWAP1 PUSH1 0x1 ADD SWAP1 DUP1 DUP4 GT PUSH2 0x1DFE JUMPI JUMPDEST POP POP POP POP POP SWAP1 POP PUSH1 0x0 DUP2 MLOAD PUSH8 0xFFFFFFFFFFFFFFFF DUP2 GT ISZERO PUSH2 0x1E36 JUMPI PUSH2 0x1E35 PUSH2 0x2A6C JUMP JUMPDEST JUMPDEST PUSH1 0x40 MLOAD SWAP1 DUP1 DUP3 MSTORE DUP1 PUSH1 0x20 MUL PUSH1 0x20 ADD DUP3 ADD PUSH1 0x40 MSTORE DUP1 ISZERO PUSH2 0x1E6F JUMPI DUP2 PUSH1 0x20 ADD JUMPDEST PUSH2 0x1E5C PUSH2 0x2900 JUMP JUMPDEST DUP2 MSTORE PUSH1 0x20 ADD SWAP1 PUSH1 0x1 SWAP1 SUB SWAP1 DUP2 PUSH2 0x1E54 JUMPI SWAP1 POP JUMPDEST POP SWAP1 POP PUSH1 0x0 JUMPDEST DUP3 MLOAD DUP2 LT ISZERO PUSH2 0x20C5 JUMPI PUSH1 0x8 PUSH1 0x0 DUP5 DUP4 DUP2 MLOAD DUP2 LT PUSH2 0x1E95 JUMPI PUSH2 0x1E94 PUSH2 0x3DEC JUMP JUMPDEST JUMPDEST PUSH1 0x20 MUL PUSH1 0x20 ADD ADD MLOAD DUP2 MSTORE PUSH1 0x20 ADD SWAP1 DUP2 MSTORE PUSH1 0x20 ADD PUSH1 0x0 KECCAK256 PUSH1 0x40 MLOAD DUP1 PUSH2 0x100 ADD PUSH1 0x40 MSTORE SWAP1 DUP2 PUSH1 0x0 DUP3 ADD SLOAD DUP2 MSTORE PUSH1 0x20 ADD PUSH1 0x1 DUP3 ADD PUSH1 0x0 SWAP1 SLOAD SWAP1 PUSH2 0x100 EXP SWAP1 DIV PUSH20 0xFFFFFFFFFFFFFFFFFFFFFFFFFFFFFFFFFFFFFFFF AND PUSH20 0xFFFFFFFFFFFFFFFFFFFFFFFFFFFFFFFFFFFFFFFF AND PUSH20 0xFFFFFFFFFFFFFFFFFFFFFFFFFFFFFFFFFFFFFFFF AND DUP2 MSTORE PUSH1 0x20 ADD PUSH1 0x2 DUP3 ADD DUP1 SLOAD PUSH2 0x1F27 SWAP1 PUSH2 0x3998 JUMP JUMPDEST DUP1 PUSH1 0x1F ADD PUSH1 0x20 DUP1 SWAP2 DIV MUL PUSH1 0x20 ADD PUSH1 0x40 MLOAD SWAP1 DUP2 ADD PUSH1 0x40 MSTORE DUP1 SWAP3 SWAP2 SWAP1 DUP2 DUP2 MSTORE PUSH1 0x20 ADD DUP3 DUP1 SLOAD PUSH2 0x1F53 SWAP1 PUSH2 0x3998 JUMP JUMPDEST DUP1 ISZERO PUSH2 0x1FA0 JUMPI DUP1 PUSH1 0x1F LT PUSH2 0x1F75 JUMPI PUSH2 0x100 DUP1 DUP4 SLOAD DIV MUL DUP4 MSTORE SWAP2 PUSH1 0x20 ADD SWAP2 PUSH2 0x1FA0 JUMP JUMPDEST DUP3 ADD SWAP2 SWAP1 PUSH1 0x0 MSTORE PUSH1 0x20 PUSH1 0x0 KECCAK256 SWAP1 JUMPDEST DUP2 SLOAD DUP2 MSTORE SWAP1 PUSH1 0x1 ADD SWAP1 PUSH1 0x20 ADD DUP1 DUP4 GT PUSH2 0x1F83 JUMPI DUP3 SWAP1 SUB PUSH1 0x1F AND DUP3 ADD SWAP2 JUMPDEST POP POP POP POP POP DUP2 MSTORE PUSH1 0x20 ADD PUSH1 0x3 DUP3 ADD DUP1 SLOAD PUSH2 0x1FB9 SWAP1 PUSH2 0x3998 JUMP JUMPDEST DUP1 PUSH1 0x1F ADD PUSH1 0x20 DUP1 SWAP2 DIV MUL PUSH1 0x20 ADD PUSH1 0x40 MLOAD SWAP1 DUP2 ADD PUSH1 0x40 MSTORE DUP1 SWAP3 SWAP2 SWAP1 DUP2 DUP2 MSTORE PUSH1 0x20 ADD DUP3 DUP1 SLOAD PUSH2 0x1FE5 SWAP1 PUSH2 0x3998 JUMP JUMPDEST DUP1 ISZERO PUSH2 0x2032 JUMPI DUP1 PUSH1 0x1F LT PUSH2 0x2007 JUMPI PUSH2 0x100 DUP1 DUP4 SLOAD DIV MUL DUP4 MSTORE SWAP2 PUSH1 0x20 ADD SWAP2 PUSH2 0x2032 JUMP JUMPDEST DUP3 ADD SWAP2 SWAP1 PUSH1 0x0 MSTORE PUSH1 0x20 PUSH1 0x0 KECCAK256 SWAP1 JUMPDEST DUP2 SLOAD DUP2 MSTORE SWAP1 PUSH1 0x1 ADD SWAP1 PUSH1 0x20 ADD DUP1 DUP4 GT PUSH2 0x2015 JUMPI DUP3 SWAP1 SUB PUSH1 0x1F AND DUP3 ADD SWAP2 JUMPDEST POP POP POP POP POP DUP2 MSTORE PUSH1 0x20 ADD PUSH1 0x4 DUP3 ADD SLOAD DUP2 MSTORE PUSH1 0x20 ADD PUSH1 0x5 DUP3 ADD SLOAD DUP2 MSTORE PUSH1 0x20 ADD PUSH1 0x6 DUP3 ADD SLOAD DUP2 MSTORE PUSH1 0x20 ADD PUSH1 0x7 DUP3 ADD PUSH1 0x0 SWAP1 SLOAD SWAP1 PUSH2 0x100 EXP SWAP1 DIV PUSH1 0xFF AND PUSH1 0x3 DUP2 GT ISZERO PUSH2 0x207E JUMPI PUSH2 0x207D PUSH2 0x2E75 JUMP JUMPDEST JUMPDEST PUSH1 0x3 DUP2 GT ISZERO PUSH2 0x2090 JUMPI PUSH2 0x208F PUSH2 0x2E75 JUMP JUMPDEST JUMPDEST DUP2 MSTORE POP POP DUP3 DUP3 DUP2 MLOAD DUP2 LT PUSH2 0x20A7 JUMPI PUSH2 0x20A6 PUSH2 0x3DEC JUMP JUMPDEST JUMPDEST PUSH1 0x20 MUL PUSH1 0x20 ADD ADD DUP2 SWAP1 MSTORE POP DUP1 DUP1 PUSH2 0x20BD SWAP1 PUSH2 0x3E1B JUMP JUMPDEST SWAP2 POP POP PUSH2 0x1E75 JUMP JUMPDEST POP DUP1 SWAP4 POP POP POP POP SWAP2 SWAP1 POP JUMP JUMPDEST PUSH1 0x0 PUSH1 0x7 DUP3 PUSH1 0x40 MLOAD PUSH2 0x20E3 SWAP2 SWAP1 PUSH2 0x3F0B JUMP JUMPDEST SWAP1 DUP2 MSTORE PUSH1 0x20 ADD PUSH1 0x40 MLOAD DUP1 SWAP2 SUB SWAP1 KECCAK256 PUSH1 0x0 SWAP1 SLOAD SWAP1 PUSH2 0x100 EXP SWAP1 DIV PUSH1 0xFF AND ISZERO SWAP1 POP SWAP2 SWAP1 POP JUMP JUMPDEST PUSH1 0x60 CALLER PUSH1 0x1 PUSH1 0x3 DUP2 GT ISZERO PUSH2 0x211E JUMPI PUSH2 0x211D PUSH2 0x2E75 JUMP JUMPDEST JUMPDEST PUSH1 0x5 PUSH1 0x0 DUP4 PUSH20 0xFFFFFFFFFFFFFFFFFFFFFFFFFFFFFFFFFFFFFFFF AND PUSH20 0xFFFFFFFFFFFFFFFFFFFFFFFFFFFFFFFFFFFFFFFF AND DUP2 MSTORE PUSH1 0x20 ADD SWAP1 DUP2 MSTORE PUSH1 0x20 ADD PUSH1 0x0 KECCAK256 PUSH1 0x9 ADD PUSH1 0x0 SWAP1 SLOAD SWAP1 PUSH2 0x100 EXP SWAP1 DIV PUSH1 0xFF AND PUSH1 0x3 DUP2 GT ISZERO PUSH2 0x2180 JUMPI PUSH2 0x217F PUSH2 0x2E75 JUMP JUMPDEST JUMPDEST EQ PUSH2 0x21C0 JUMPI PUSH1 0x40 MLOAD PUSH32 0x8C379A000000000000000000000000000000000000000000000000000000000 DUP2 MSTORE PUSH1 0x4 ADD PUSH2 0x21B7 SWAP1 PUSH2 0x3846 JUMP JUMPDEST PUSH1 0x40 MLOAD DUP1 SWAP2 SUB SWAP1 REVERT JUMPDEST DUP3 PUSH1 0x1 PUSH1 0x3 DUP2 GT ISZERO PUSH2 0x21D5 JUMPI PUSH2 0x21D4 PUSH2 0x2E75 JUMP JUMPDEST JUMPDEST PUSH1 0x8 PUSH1 0x0 DUP4 DUP2 MSTORE PUSH1 0x20 ADD SWAP1 DUP2 MSTORE PUSH1 0x20 ADD PUSH1 0x0 KECCAK256 PUSH1 0x7 ADD PUSH1 0x0 SWAP1 SLOAD SWAP1 PUSH2 0x100 EXP SWAP1 DIV PUSH1 0xFF AND PUSH1 0x3 DUP2 GT ISZERO PUSH2 0x220B JUMPI PUSH2 0x220A PUSH2 0x2E75 JUMP JUMPDEST JUMPDEST EQ PUSH2 0x224B JUMPI PUSH1 0x40 MLOAD PUSH32 0x8C379A000000000000000000000000000000000000000000000000000000000 DUP2 MSTORE PUSH1 0x4 ADD PUSH2 0x2242 SWAP1 PUSH2 0x38B2 JUMP JUMPDEST PUSH1 0x40 MLOAD DUP1 SWAP2 SUB SWAP1 REVERT JUMPDEST PUSH1 0x0 DUP6 PUSH1 0x1 DUP9 PUSH2 0x225B SWAP2 SWAP1 PUSH2 0x3901 JUMP JUMPDEST PUSH2 0x2265 SWAP2 SWAP1 PUSH2 0x3DAA JUMP JUMPDEST SWAP1 POP PUSH1 0x0 DUP7 DUP3 PUSH2 0x2275 SWAP2 SWAP1 PUSH2 0x3935 JUMP JUMPDEST SWAP1 POP PUSH1 0xD PUSH1 0x0 DUP8 DUP2 MSTORE PUSH1 0x20 ADD SWAP1 DUP2 MSTORE PUSH1 0x20 ADD PUSH1 0x0 KECCAK256 DUP1 SLOAD SWAP1 POP DUP2 GT ISZERO PUSH2 0x22AF JUMPI PUSH1 0xD PUSH1 0x0 DUP8 DUP2 MSTORE PUSH1 0x20 ADD SWAP1 DUP2 MSTORE PUSH1 0x20 ADD PUSH1 0x0 KECCAK256 DUP1 SLOAD SWAP1 POP SWAP1 POP JUMPDEST PUSH1 0x0 DUP3 DUP3 PUSH2 0x22BD SWAP2 SWAP1 PUSH2 0x3901 JUMP JUMPDEST PUSH8 0xFFFFFFFFFFFFFFFF DUP2 GT ISZERO PUSH2 0x22D6 JUMPI PUSH2 0x22D5 PUSH2 0x2A6C JUMP JUMPDEST JUMPDEST PUSH1 0x40 MLOAD SWAP1 DUP1 DUP3 MSTORE DUP1 PUSH1 0x20 MUL PUSH1 0x20 ADD DUP3 ADD PUSH1 0x40 MSTORE DUP1 ISZERO PUSH2 0x230F JUMPI DUP2 PUSH1 0x20 ADD JUMPDEST PUSH2 0x22FC PUSH2 0x296D JUMP JUMPDEST DUP2 MSTORE PUSH1 0x20 ADD SWAP1 PUSH1 0x1 SWAP1 SUB SWAP1 DUP2 PUSH2 0x22F4 JUMPI SWAP1 POP JUMPDEST POP SWAP1 POP PUSH1 0x0 DUP1 DUP5 SWAP1 POP JUMPDEST DUP4 DUP2 LT ISZERO PUSH2 0x2503 JUMPI PUSH1 0xD PUSH1 0x0 DUP11 DUP2 MSTORE PUSH1 0x20 ADD SWAP1 DUP2 MSTORE PUSH1 0x20 ADD PUSH1 0x0 KECCAK256 DUP2 DUP2 SLOAD DUP2 LT PUSH2 0x2346 JUMPI PUSH2 0x2345 PUSH2 0x3DEC JUMP JUMPDEST JUMPDEST SWAP1 PUSH1 0x0 MSTORE PUSH1 0x20 PUSH1 0x0 KECCAK256 ADD SLOAD SWAP2 POP PUSH1 0xB PUSH1 0x0 DUP4 DUP2 MSTORE PUSH1 0x20 ADD SWAP1 DUP2 MSTORE PUSH1 0x20 ADD PUSH1 0x0 KECCAK256 PUSH1 0x40 MLOAD DUP1 PUSH2 0x100 ADD PUSH1 0x40 MSTORE SWAP1 DUP2 PUSH1 0x0 DUP3 ADD SLOAD DUP2 MSTORE PUSH1 0x20 ADD PUSH1 0x1 DUP3 ADD PUSH1 0x0 SWAP1 SLOAD SWAP1 PUSH2 0x100 EXP SWAP1 DIV PUSH20 0xFFFFFFFFFFFFFFFFFFFFFFFFFFFFFFFFFFFFFFFF AND PUSH20 0xFFFFFFFFFFFFFFFFFFFFFFFFFFFFFFFFFFFFFFFF AND PUSH20 0xFFFFFFFFFFFFFFFFFFFFFFFFFFFFFFFFFFFFFFFF AND DUP2 MSTORE PUSH1 0x20 ADD PUSH1 0x2 DUP3 ADD SLOAD DUP2 MSTORE PUSH1 0x20 ADD PUSH1 0x3 DUP3 ADD DUP1 SLOAD PUSH2 0x23EC SWAP1 PUSH2 0x3998 JUMP JUMPDEST DUP1 PUSH1 0x1F ADD PUSH1 0x20 DUP1 SWAP2 DIV MUL PUSH1 0x20 ADD PUSH1 0x40 MLOAD SWAP1 DUP2 ADD PUSH1 0x40 MSTORE DUP1 SWAP3 SWAP2 SWAP1 DUP2 DUP2 MSTORE PUSH1 0x20 ADD DUP3 DUP1 SLOAD PUSH2 0x2418 SWAP1 PUSH2 0x3998 JUMP JUMPDEST DUP1 ISZERO PUSH2 0x2465 JUMPI DUP1 PUSH1 0x1F LT PUSH2 0x243A JUMPI PUSH2 0x100 DUP1 DUP4 SLOAD DIV MUL DUP4 MSTORE SWAP2 PUSH1 0x20 ADD SWAP2 PUSH2 0x2465 JUMP JUMPDEST DUP3 ADD SWAP2 SWAP1 PUSH1 0x0 MSTORE PUSH1 0x20 PUSH1 0x0 KECCAK256 SWAP1 JUMPDEST DUP2 SLOAD DUP2 MSTORE SWAP1 PUSH1 0x1 ADD SWAP1 PUSH1 0x20 ADD DUP1 DUP4 GT PUSH2 0x2448 JUMPI DUP3 SWAP1 SUB PUSH1 0x1F AND DUP3 ADD SWAP2 JUMPDEST POP POP POP POP POP DUP2 MSTORE PUSH1 0x20 ADD PUSH1 0x4 DUP3 ADD SLOAD DUP2 MSTORE PUSH1 0x20 ADD PUSH1 0x5 DUP3 ADD SLOAD DUP2 MSTORE PUSH1 0x20 ADD PUSH1 0x6 DUP3 ADD SLOAD DUP2 MSTORE PUSH1 0x20 ADD PUSH1 0x7 DUP3 ADD PUSH1 0x0 SWAP1 SLOAD SWAP1 PUSH2 0x100 EXP SWAP1 DIV PUSH1 0xFF AND PUSH1 0x3 DUP2 GT ISZERO PUSH2 0x24B1 JUMPI PUSH2 0x24B0 PUSH2 0x2E75 JUMP JUMPDEST JUMPDEST PUSH1 0x3 DUP2 GT ISZERO PUSH2 0x24C3 JUMPI PUSH2 0x24C2 PUSH2 0x2E75 JUMP JUMPDEST JUMPDEST DUP2 MSTORE POP POP DUP4 DUP7 DUP4 PUSH2 0x24D4 SWAP2 SWAP1 PUSH2 0x3901 JUMP JUMPDEST DUP2 MLOAD DUP2 LT PUSH2 0x24E5 JUMPI PUSH2 0x24E4 PUSH2 0x3DEC JUMP JUMPDEST JUMPDEST PUSH1 0x20 MUL PUSH1 0x20 ADD ADD DUP2 SWAP1 MSTORE POP DUP1 DUP1 PUSH2 0x24FB SWAP1 PUSH2 0x3E1B JUMP JUMPDEST SWAP2 POP POP PUSH2 0x2319 JUMP JUMPDEST POP DUP2 SWAP7 POP POP POP POP POP POP POP SWAP4 SWAP3 POP POP POP JUMP JUMPDEST PUSH1 0x1 SLOAD DUP2 JUMP JUMPDEST CALLER PUSH1 0x0 PUSH1 0x3 DUP2 GT ISZERO PUSH2 0x252F JUMPI PUSH2 0x252E PUSH2 0x2E75 JUMP JUMPDEST JUMPDEST PUSH1 0x5 PUSH1 0x0 DUP4 PUSH20 0xFFFFFFFFFFFFFFFFFFFFFFFFFFFFFFFFFFFFFFFF AND PUSH20 0xFFFFFFFFFFFFFFFFFFFFFFFFFFFFFFFFFFFFFFFF AND DUP2 MSTORE PUSH1 0x20 ADD SWAP1 DUP2 MSTORE PUSH1 0x20 ADD PUSH1 0x0 KECCAK256 PUSH1 0x9 ADD PUSH1 0x0 SWAP1 SLOAD SWAP1 PUSH2 0x100 EXP SWAP1 DIV PUSH1 0xFF AND PUSH1 0x3 DUP2 GT ISZERO PUSH2 0x2591 JUMPI PUSH2 0x2590 PUSH2 0x2E75 JUMP JUMPDEST JUMPDEST EQ PUSH2 0x25D1 JUMPI PUSH1 0x40 MLOAD PUSH32 0x8C379A000000000000000000000000000000000000000000000000000000000 DUP2 MSTORE PUSH1 0x4 ADD PUSH2 0x25C8 SWAP1 PUSH2 0x3F6E JUMP JUMPDEST PUSH1 0x40 MLOAD DUP1 SWAP2 SUB SWAP1 REVERT JUMPDEST DUP8 PUSH1 0x7 DUP2 PUSH1 0x40 MLOAD PUSH2 0x25E2 SWAP2 SWAP1 PUSH2 0x3F0B JUMP JUMPDEST SWAP1 DUP2 MSTORE PUSH1 0x20 ADD PUSH1 0x40 MLOAD DUP1 SWAP2 SUB SWAP1 KECCAK256 PUSH1 0x0 SWAP1 SLOAD SWAP1 PUSH2 0x100 EXP SWAP1 DIV PUSH1 0xFF AND ISZERO PUSH2 0x263E JUMPI PUSH1 0x40 MLOAD PUSH32 0x8C379A000000000000000000000000000000000000000000000000000000000 DUP2 MSTORE PUSH1 0x4 ADD PUSH2 0x2635 SWAP1 PUSH2 0x3FDA JUMP JUMPDEST PUSH1 0x40 MLOAD DUP1 SWAP2 SUB SWAP1 REVERT JUMPDEST PUSH1 0x1 PUSH1 0x7 DUP11 PUSH1 0x40 MLOAD PUSH2 0x2650 SWAP2 SWAP1 PUSH2 0x3F0B JUMP JUMPDEST SWAP1 DUP2 MSTORE PUSH1 0x20 ADD PUSH1 0x40 MLOAD DUP1 SWAP2 SUB SWAP1 KECCAK256 PUSH1 0x0 PUSH2 0x100 EXP DUP2 SLOAD DUP2 PUSH1 0xFF MUL NOT AND SWAP1 DUP4 ISZERO ISZERO MUL OR SWAP1 SSTORE POP PUSH1 0x1 DUP1 SLOAD PUSH2 0x2683 SWAP2 SWAP1 PUSH2 0x3935 JUMP JUMPDEST PUSH1 0x1 DUP2 SWAP1 SSTORE POP PUSH1 0x0 PUSH1 0x1 SLOAD SWAP1 POP PUSH1 0x40 MLOAD DUP1 PUSH2 0x140 ADD PUSH1 0x40 MSTORE DUP1 DUP3 DUP2 MSTORE PUSH1 0x20 ADD CALLER PUSH20 0xFFFFFFFFFFFFFFFFFFFFFFFFFFFFFFFFFFFFFFFF AND DUP2 MSTORE PUSH1 0x20 ADD DUP12 DUP2 MSTORE PUSH1 0x20 ADD DUP11 DUP2 MSTORE PUSH1 0x20 ADD DUP8 DUP2 MSTORE PUSH1 0x20 ADD DUP7 DUP2 MSTORE PUSH1 0x20 ADD DUP6 ISZERO ISZERO DUP2 MSTORE PUSH1 0x20 ADD DUP10 DUP2 MSTORE PUSH1 0x20 ADD DUP9 DUP2 MSTORE PUSH1 0x20 ADD PUSH1 0x1 PUSH1 0x3 DUP2 GT ISZERO PUSH2 0x26FE JUMPI PUSH2 0x26FD PUSH2 0x2E75 JUMP JUMPDEST JUMPDEST DUP2 MSTORE POP PUSH1 0x5 PUSH1 0x0 CALLER PUSH20 0xFFFFFFFFFFFFFFFFFFFFFFFFFFFFFFFFFFFFFFFF AND PUSH20 0xFFFFFFFFFFFFFFFFFFFFFFFFFFFFFFFFFFFFFFFF AND DUP2 MSTORE PUSH1 0x20 ADD SWAP1 DUP2 MSTORE PUSH1 0x20 ADD PUSH1 0x0 KECCAK256 PUSH1 0x0 DUP3 ADD MLOAD DUP2 PUSH1 0x0 ADD SSTORE PUSH1 0x20 DUP3 ADD MLOAD DUP2 PUSH1 0x1 ADD PUSH1 0x0 PUSH2 0x100 EXP DUP2 SLOAD DUP2 PUSH20 0xFFFFFFFFFFFFFFFFFFFFFFFFFFFFFFFFFFFFFFFF MUL NOT AND SWAP1 DUP4 PUSH20 0xFFFFFFFFFFFFFFFFFFFFFFFFFFFFFFFFFFFFFFFF AND MUL OR SWAP1 SSTORE POP PUSH1 0x40 DUP3 ADD MLOAD DUP2 PUSH1 0x2 ADD SWAP1 DUP2 PUSH2 0x27A6 SWAP2 SWAP1 PUSH2 0x3B75 JUMP JUMPDEST POP PUSH1 0x60 DUP3 ADD MLOAD DUP2 PUSH1 0x3 ADD SWAP1 DUP2 PUSH2 0x27BC SWAP2 SWAP1 PUSH2 0x3B75 JUMP JUMPDEST POP PUSH1 0x80 DUP3 ADD MLOAD DUP2 PUSH1 0x4 ADD SWAP1 DUP2 PUSH2 0x27D2 SWAP2 SWAP1 PUSH2 0x3B75 JUMP JUMPDEST POP PUSH1 0xA0 DUP3 ADD MLOAD DUP2 PUSH1 0x5 ADD SSTORE PUSH1 0xC0 DUP3 ADD MLOAD DUP2 PUSH1 0x6 ADD PUSH1 0x0 PUSH2 0x100 EXP DUP2 SLOAD DUP2 PUSH1 0xFF MUL NOT AND SWAP1 DUP4 ISZERO ISZERO MUL OR SWAP1 SSTORE POP PUSH1 0xE0 DUP3 ADD MLOAD DUP2 PUSH1 0x7 ADD SWAP1 DUP2 PUSH2 0x2812 SWAP2 SWAP1 PUSH2 0x3B75 JUMP JUMPDEST POP PUSH2 0x100 DUP3 ADD MLOAD DUP2 PUSH1 0x8 ADD SWAP1 DUP2 PUSH2 0x2829 SWAP2 SWAP1 PUSH2 0x3B75 JUMP JUMPDEST POP PUSH2 0x120 DUP3 ADD MLOAD DUP2 PUSH1 0x9 ADD PUSH1 0x0 PUSH2 0x100 EXP DUP2 SLOAD DUP2 PUSH1 0xFF MUL NOT AND SWAP1 DUP4 PUSH1 0x3 DUP2 GT ISZERO PUSH2 0x2856 JUMPI PUSH2 0x2855 PUSH2 0x2E75 JUMP JUMPDEST JUMPDEST MUL OR SWAP1 SSTORE POP SWAP1 POP POP CALLER PUSH1 0x6 DUP12 PUSH1 0x40 MLOAD PUSH2 0x286F SWAP2 SWAP1 PUSH2 0x3F0B JUMP JUMPDEST SWAP1 DUP2 MSTORE PUSH1 0x20 ADD PUSH1 0x40 MLOAD DUP1 SWAP2 SUB SWAP1 KECCAK256 PUSH1 0x0 PUSH2 0x100 EXP DUP2 SLOAD DUP2 PUSH20 0xFFFFFFFFFFFFFFFFFFFFFFFFFFFFFFFFFFFFFFFF MUL NOT AND SWAP1 DUP4 PUSH20 0xFFFFFFFFFFFFFFFFFFFFFFFFFFFFFFFFFFFFFFFF AND MUL OR SWAP1 SSTORE POP PUSH32 0xABC58C36475157C4AC7669F9ADFBB6F254D3A3578FB89676F6866AC3B9950EED CALLER DUP3 PUSH1 0x40 MLOAD PUSH2 0x28EC SWAP3 SWAP2 SWAP1 PUSH2 0x3FFA JUMP JUMPDEST PUSH1 0x40 MLOAD DUP1 SWAP2 SUB SWAP1 LOG1 POP POP POP POP POP POP POP POP POP POP JUMP JUMPDEST PUSH1 0x40 MLOAD DUP1 PUSH2 0x100 ADD PUSH1 0x40 MSTORE DUP1 PUSH1 0x0 DUP2 MSTORE PUSH1 0x20 ADD PUSH1 0x0 PUSH20 0xFFFFFFFFFFFFFFFFFFFFFFFFFFFFFFFFFFFFFFFF AND DUP2 MSTORE PUSH1 0x20 ADD PUSH1 0x60 DUP2 MSTORE PUSH1 0x20 ADD PUSH1 0x60 DUP2 MSTORE PUSH1 0x20 ADD PUSH1 0x0 DUP2 MSTORE PUSH1 0x20 ADD PUSH1 0x0 DUP2 MSTORE PUSH1 0x20 ADD PUSH1 0x0 DUP2 MSTORE PUSH1 0x20 ADD PUSH1 0x0 PUSH1 0x3 DUP2 GT ISZERO PUSH2 0x2967 JUMPI PUSH2 0x2966 PUSH2 0x2E75 JUMP JUMPDEST JUMPDEST DUP2 MSTORE POP SWAP1 JUMP JUMPDEST PUSH1 0x40 MLOAD DUP1 PUSH2 0x100 ADD PUSH1 0x40 MSTORE DUP1 PUSH1 0x0 DUP2 MSTORE PUSH1 0x20 ADD PUSH1 0x0 PUSH20 0xFFFFFFFFFFFFFFFFFFFFFFFFFFFFFFFFFFFFFFFF AND DUP2 MSTORE PUSH1 0x20 ADD PUSH1 0x0 DUP2 MSTORE PUSH1 0x20 ADD PUSH1 0x60 DUP2 MSTORE PUSH1 0x20 ADD PUSH1 0x0 DUP2 MSTORE PUSH1 0x20 ADD PUSH1 0x0 DUP2 MSTORE PUSH1 0x20 ADD PUSH1 0x0 DUP2 MSTORE PUSH1 0x20 ADD PUSH1 0x0 PUSH1 0x3 DUP2 GT ISZERO PUSH2 0x29D4 JUMPI PUSH2 0x29D3 PUSH2 0x2E75 JUMP JUMPDEST JUMPDEST DUP2 MSTORE POP SWAP1 JUMP JUMPDEST PUSH1 0x0 PUSH1 0x40 MLOAD SWAP1 POP SWAP1 JUMP JUMPDEST PUSH1 0x0 DUP1 REVERT JUMPDEST PUSH1 0x0 DUP1 REVERT JUMPDEST PUSH1 0x0 DUP2 SWAP1 POP SWAP2 SWAP1 POP JUMP JUMPDEST PUSH2 0x2A01 DUP2 PUSH2 0x29EE JUMP JUMPDEST DUP2 EQ PUSH2 0x2A0C JUMPI PUSH1 0x0 DUP1 REVERT JUMPDEST POP JUMP JUMPDEST PUSH1 0x0 DUP2 CALLDATALOAD SWAP1 POP PUSH2 0x2A1E DUP2 PUSH2 0x29F8 JUMP JUMPDEST SWAP3 SWAP2 POP POP JUMP JUMPDEST PUSH1 0x0 PUSH1 0x20 DUP3 DUP5 SUB SLT ISZERO PUSH2 0x2A3A JUMPI PUSH2 0x2A39 PUSH2 0x29E4 JUMP JUMPDEST JUMPDEST PUSH1 0x0 PUSH2 0x2A48 DUP5 DUP3 DUP6 ADD PUSH2 0x2A0F JUMP JUMPDEST SWAP2 POP POP SWAP3 SWAP2 POP POP JUMP JUMPDEST PUSH1 0x0 DUP1 REVERT JUMPDEST PUSH1 0x0 DUP1 REVERT JUMPDEST PUSH1 0x0 PUSH1 0x1F NOT PUSH1 0x1F DUP4 ADD AND SWAP1 POP SWAP2 SWAP1 POP JUMP JUMPDEST PUSH32 0x4E487B7100000000000000000000000000000000000000000000000000000000 PUSH1 0x0 MSTORE PUSH1 0x41 PUSH1 0x4 MSTORE PUSH1 0x24 PUSH1 0x0 REVERT JUMPDEST PUSH2 0x2AA4 DUP3 PUSH2 0x2A5B JUMP JUMPDEST DUP2 ADD DUP2 DUP2 LT PUSH8 0xFFFFFFFFFFFFFFFF DUP3 GT OR ISZERO PUSH2 0x2AC3 JUMPI PUSH2 0x2AC2 PUSH2 0x2A6C JUMP JUMPDEST JUMPDEST DUP1 PUSH1 0x40 MSTORE POP POP POP JUMP JUMPDEST PUSH1 0x0 PUSH2 0x2AD6 PUSH2 0x29DA JUMP JUMPDEST SWAP1 POP PUSH2 0x2AE2 DUP3 DUP3 PUSH2 0x2A9B JUMP JUMPDEST SWAP2 SWAP1 POP JUMP JUMPDEST PUSH1 0x0 PUSH8 0xFFFFFFFFFFFFFFFF DUP3 GT ISZERO PUSH2 0x2B02 JUMPI PUSH2 0x2B01 PUSH2 0x2A6C JUMP JUMPDEST JUMPDEST PUSH2 0x2B0B DUP3 PUSH2 0x2A5B JUMP JUMPDEST SWAP1 POP PUSH1 0x20 DUP2 ADD SWAP1 POP SWAP2 SWAP1 POP JUMP JUMPDEST DUP3 DUP2 DUP4 CALLDATACOPY PUSH1 0x0 DUP4 DUP4 ADD MSTORE POP POP POP JUMP JUMPDEST PUSH1 0x0 PUSH2 0x2B3A PUSH2 0x2B35 DUP5 PUSH2 0x2AE7 JUMP JUMPDEST PUSH2 0x2ACC JUMP JUMPDEST SWAP1 POP DUP3 DUP2 MSTORE PUSH1 0x20 DUP2 ADD DUP5 DUP5 DUP5 ADD GT ISZERO PUSH2 0x2B56 JUMPI PUSH2 0x2B55 PUSH2 0x2A56 JUMP JUMPDEST JUMPDEST PUSH2 0x2B61 DUP5 DUP3 DUP6 PUSH2 0x2B18 JUMP JUMPDEST POP SWAP4 SWAP3 POP POP POP JUMP JUMPDEST PUSH1 0x0 DUP3 PUSH1 0x1F DUP4 ADD SLT PUSH2 0x2B7E JUMPI PUSH2 0x2B7D PUSH2 0x2A51 JUMP JUMPDEST JUMPDEST DUP2 CALLDATALOAD PUSH2 0x2B8E DUP5 DUP3 PUSH1 0x20 DUP7 ADD PUSH2 0x2B27 JUMP JUMPDEST SWAP2 POP POP SWAP3 SWAP2 POP POP JUMP JUMPDEST PUSH1 0x0 DUP1 PUSH1 0x40 DUP4 DUP6 SUB SLT ISZERO PUSH2 0x2BAE JUMPI PUSH2 0x2BAD PUSH2 0x29E4 JUMP JUMPDEST JUMPDEST PUSH1 0x0 DUP4 ADD CALLDATALOAD PUSH8 0xFFFFFFFFFFFFFFFF DUP2 GT ISZERO PUSH2 0x2BCC JUMPI PUSH2 0x2BCB PUSH2 0x29E9 JUMP JUMPDEST JUMPDEST PUSH2 0x2BD8 DUP6 DUP3 DUP7 ADD PUSH2 0x2B69 JUMP JUMPDEST SWAP3 POP POP PUSH1 0x20 DUP4 ADD CALLDATALOAD PUSH8 0xFFFFFFFFFFFFFFFF DUP2 GT ISZERO PUSH2 0x2BF9 JUMPI PUSH2 0x2BF8 PUSH2 0x29E9 JUMP JUMPDEST JUMPDEST PUSH2 0x2C05 DUP6 DUP3 DUP7 ADD PUSH2 0x2B69 JUMP JUMPDEST SWAP2 POP POP SWAP3 POP SWAP3 SWAP1 POP JUMP JUMPDEST PUSH1 0x0 DUP1 PUSH1 0x40 DUP4 DUP6 SUB SLT ISZERO PUSH2 0x2C26 JUMPI PUSH2 0x2C25 PUSH2 0x29E4 JUMP JUMPDEST JUMPDEST PUSH1 0x0 PUSH2 0x2C34 DUP6 DUP3 DUP7 ADD PUSH2 0x2A0F JUMP JUMPDEST SWAP3 POP POP PUSH1 0x20 DUP4 ADD CALLDATALOAD PUSH8 0xFFFFFFFFFFFFFFFF DUP2 GT ISZERO PUSH2 0x2C55 JUMPI PUSH2 0x2C54 PUSH2 0x29E9 JUMP JUMPDEST JUMPDEST PUSH2 0x2C61 DUP6 DUP3 DUP7 ADD PUSH2 0x2B69 JUMP JUMPDEST SWAP2 POP POP SWAP3 POP SWAP3 SWAP1 POP JUMP JUMPDEST PUSH1 0x0 DUP1 PUSH1 0x40 DUP4 DUP6 SUB SLT ISZERO PUSH2 0x2C82 JUMPI PUSH2 0x2C81 PUSH2 0x29E4 JUMP JUMPDEST JUMPDEST PUSH1 0x0 PUSH2 0x2C90 DUP6 DUP3 DUP7 ADD PUSH2 0x2A0F JUMP JUMPDEST SWAP3 POP POP PUSH1 0x20 PUSH2 0x2CA1 DUP6 DUP3 DUP7 ADD PUSH2 0x2A0F JUMP JUMPDEST SWAP2 POP POP SWAP3 POP SWAP3 SWAP1 POP JUMP JUMPDEST PUSH1 0x0 DUP2 MLOAD SWAP1 POP SWAP2 SWAP1 POP JUMP JUMPDEST PUSH1 0x0 DUP3 DUP3 MSTORE PUSH1 0x20 DUP3 ADD SWAP1 POP SWAP3 SWAP2 POP POP JUMP JUMPDEST PUSH1 0x0 DUP2 SWAP1 POP PUSH1 0x20 DUP3 ADD SWAP1 POP SWAP2 SWAP1 POP JUMP JUMPDEST PUSH2 0x2CE0 DUP2 PUSH2 0x29EE JUMP JUMPDEST DUP3 MSTORE POP POP JUMP JUMPDEST PUSH1 0x0 PUSH2 0x2CF2 DUP4 DUP4 PUSH2 0x2CD7 JUMP JUMPDEST PUSH1 0x20 DUP4 ADD SWAP1 POP SWAP3 SWAP2 POP POP JUMP JUMPDEST PUSH1 0x0 PUSH1 0x20 DUP3 ADD SWAP1 POP SWAP2 SWAP1 POP JUMP JUMPDEST PUSH1 0x0 PUSH2 0x2D16 DUP3 PUSH2 0x2CAB JUMP JUMPDEST PUSH2 0x2D20 DUP2 DUP6 PUSH2 0x2CB6 JUMP JUMPDEST SWAP4 POP PUSH2 0x2D2B DUP4 PUSH2 0x2CC7 JUMP JUMPDEST DUP1 PUSH1 0x0 JUMPDEST DUP4 DUP2 LT ISZERO PUSH2 0x2D5C JUMPI DUP2 MLOAD PUSH2 0x2D43 DUP9 DUP3 PUSH2 0x2CE6 JUMP JUMPDEST SWAP8 POP PUSH2 0x2D4E DUP4 PUSH2 0x2CFE JUMP JUMPDEST SWAP3 POP POP PUSH1 0x1 DUP2 ADD SWAP1 POP PUSH2 0x2D2F JUMP JUMPDEST POP DUP6 SWAP4 POP POP POP POP SWAP3 SWAP2 POP POP JUMP JUMPDEST PUSH1 0x0 PUSH1 0x20 DUP3 ADD SWAP1 POP DUP2 DUP2 SUB PUSH1 0x0 DUP4 ADD MSTORE PUSH2 0x2D83 DUP2 DUP5 PUSH2 0x2D0B JUMP JUMPDEST SWAP1 POP SWAP3 SWAP2 POP POP JUMP JUMPDEST PUSH2 0x2D94 DUP2 PUSH2 0x29EE JUMP JUMPDEST DUP3 MSTORE POP POP JUMP JUMPDEST PUSH1 0x0 PUSH1 0x20 DUP3 ADD SWAP1 POP PUSH2 0x2DAF PUSH1 0x0 DUP4 ADD DUP5 PUSH2 0x2D8B JUMP JUMPDEST SWAP3 SWAP2 POP POP JUMP JUMPDEST PUSH1 0x0 PUSH20 0xFFFFFFFFFFFFFFFFFFFFFFFFFFFFFFFFFFFFFFFF DUP3 AND SWAP1 POP SWAP2 SWAP1 POP JUMP JUMPDEST PUSH1 0x0 PUSH2 0x2DE0 DUP3 PUSH2 0x2DB5 JUMP JUMPDEST SWAP1 POP SWAP2 SWAP1 POP JUMP JUMPDEST PUSH2 0x2DF0 DUP2 PUSH2 0x2DD5 JUMP JUMPDEST DUP3 MSTORE POP POP JUMP JUMPDEST PUSH1 0x0 DUP2 MLOAD SWAP1 POP SWAP2 SWAP1 POP JUMP JUMPDEST PUSH1 0x0 DUP3 DUP3 MSTORE PUSH1 0x20 DUP3 ADD SWAP1 POP SWAP3 SWAP2 POP POP JUMP JUMPDEST PUSH1 0x0 JUMPDEST DUP4 DUP2 LT ISZERO PUSH2 0x2E30 JUMPI DUP1 DUP3 ADD MLOAD DUP2 DUP5 ADD MSTORE PUSH1 0x20 DUP2 ADD SWAP1 POP PUSH2 0x2E15 JUMP JUMPDEST PUSH1 0x0 DUP5 DUP5 ADD MSTORE POP POP POP POP JUMP JUMPDEST PUSH1 0x0 PUSH2 0x2E47 DUP3 PUSH2 0x2DF6 JUMP JUMPDEST PUSH2 0x2E51 DUP2 DUP6 PUSH2 0x2E01 JUMP JUMPDEST SWAP4 POP PUSH2 0x2E61 DUP2 DUP6 PUSH1 0x20 DUP7 ADD PUSH2 0x2E12 JUMP JUMPDEST PUSH2 0x2E6A DUP2 PUSH2 0x2A5B JUMP JUMPDEST DUP5 ADD SWAP2 POP POP SWAP3 SWAP2 POP POP JUMP JUMPDEST PUSH32 0x4E487B7100000000000000000000000000000000000000000000000000000000 PUSH1 0x0 MSTORE PUSH1 0x21 PUSH1 0x4 MSTORE PUSH1 0x24 PUSH1 0x0 REVERT JUMPDEST PUSH1 0x4 DUP2 LT PUSH2 0x2EB5 JUMPI PUSH2 0x2EB4 PUSH2 0x2E75 JUMP JUMPDEST JUMPDEST POP JUMP JUMPDEST PUSH1 0x0 DUP2 SWAP1 POP PUSH2 0x2EC6 DUP3 PUSH2 0x2EA4 JUMP JUMPDEST SWAP2 SWAP1 POP JUMP JUMPDEST PUSH1 0x0 PUSH2 0x2ED6 DUP3 PUSH2 0x2EB8 JUMP JUMPDEST SWAP1 POP SWAP2 SWAP1 POP JUMP JUMPDEST PUSH2 0x2EE6 DUP2 PUSH2 0x2ECB JUMP JUMPDEST DUP3 MSTORE POP POP JUMP JUMPDEST PUSH1 0x0 PUSH2 0x100 DUP4 ADD PUSH1 0x0 DUP4 ADD MLOAD PUSH2 0x2F05 PUSH1 0x0 DUP7 ADD DUP3 PUSH2 0x2CD7 JUMP JUMPDEST POP PUSH1 0x20 DUP4 ADD MLOAD PUSH2 0x2F18 PUSH1 0x20 DUP7 ADD DUP3 PUSH2 0x2DE7 JUMP JUMPDEST POP PUSH1 0x40 DUP4 ADD MLOAD DUP5 DUP3 SUB PUSH1 0x40 DUP7 ADD MSTORE PUSH2 0x2F30 DUP3 DUP3 PUSH2 0x2E3C JUMP JUMPDEST SWAP2 POP POP PUSH1 0x60 DUP4 ADD MLOAD DUP5 DUP3 SUB PUSH1 0x60 DUP7 ADD MSTORE PUSH2 0x2F4A DUP3 DUP3 PUSH2 0x2E3C JUMP JUMPDEST SWAP2 POP POP PUSH1 0x80 DUP4 ADD MLOAD PUSH2 0x2F5F PUSH1 0x80 DUP7 ADD DUP3 PUSH2 0x2CD7 JUMP JUMPDEST POP PUSH1 0xA0 DUP4 ADD MLOAD PUSH2 0x2F72 PUSH1 0xA0 DUP7 ADD DUP3 PUSH2 0x2CD7 JUMP JUMPDEST POP PUSH1 0xC0 DUP4 ADD MLOAD PUSH2 0x2F85 PUSH1 0xC0 DUP7 ADD DUP3 PUSH2 0x2CD7 JUMP JUMPDEST POP PUSH1 0xE0 DUP4 ADD MLOAD PUSH2 0x2F98 PUSH1 0xE0 DUP7 ADD DUP3 PUSH2 0x2EDD JUMP JUMPDEST POP DUP1 SWAP2 POP POP SWAP3 SWAP2 POP POP JUMP JUMPDEST PUSH1 0x0 PUSH1 0x20 DUP3 ADD SWAP1 POP DUP2 DUP2 SUB PUSH1 0x0 DUP4 ADD MSTORE PUSH2 0x2FBD DUP2 DUP5 PUSH2 0x2EEC JUMP JUMPDEST SWAP1 POP SWAP3 SWAP2 POP POP JUMP JUMPDEST PUSH1 0x4 DUP2 LT PUSH2 0x2FD6 JUMPI PUSH2 0x2FD5 PUSH2 0x2E75 JUMP JUMPDEST JUMPDEST POP JUMP JUMPDEST PUSH1 0x0 DUP2 SWAP1 POP PUSH2 0x2FE7 DUP3 PUSH2 0x2FC5 JUMP JUMPDEST SWAP2 SWAP1 POP JUMP JUMPDEST PUSH1 0x0 PUSH2 0x2FF7 DUP3 PUSH2 0x2FD9 JUMP JUMPDEST SWAP1 POP SWAP2 SWAP1 POP JUMP JUMPDEST PUSH2 0x3007 DUP2 PUSH2 0x2FEC JUMP JUMPDEST DUP3 MSTORE POP POP JUMP JUMPDEST PUSH1 0x0 PUSH2 0x100 DUP4 ADD PUSH1 0x0 DUP4 ADD MLOAD PUSH2 0x3026 PUSH1 0x0 DUP7 ADD DUP3 PUSH2 0x2CD7 JUMP JUMPDEST POP PUSH1 0x20 DUP4 ADD MLOAD PUSH2 0x3039 PUSH1 0x20 DUP7 ADD DUP3 PUSH2 0x2DE7 JUMP JUMPDEST POP PUSH1 0x40 DUP4 ADD MLOAD PUSH2 0x304C PUSH1 0x40 DUP7 ADD DUP3 PUSH2 0x2CD7 JUMP JUMPDEST POP PUSH1 0x60 DUP4 ADD MLOAD DUP5 DUP3 SUB PUSH1 0x60 DUP7 ADD MSTORE PUSH2 0x3064 DUP3 DUP3 PUSH2 0x2E3C JUMP JUMPDEST SWAP2 POP POP PUSH1 0x80 DUP4 ADD MLOAD PUSH2 0x3079 PUSH1 0x80 DUP7 ADD DUP3 PUSH2 0x2CD7 JUMP JUMPDEST POP PUSH1 0xA0 DUP4 ADD MLOAD PUSH2 0x308C PUSH1 0xA0 DUP7 ADD DUP3 PUSH2 0x2CD7 JUMP JUMPDEST POP PUSH1 0xC0 DUP4 ADD MLOAD PUSH2 0x309F PUSH1 0xC0 DUP7 ADD DUP3 PUSH2 0x2CD7 JUMP JUMPDEST POP PUSH1 0xE0 DUP4 ADD MLOAD PUSH2 0x30B2 PUSH1 0xE0 DUP7 ADD DUP3 PUSH2 0x2FFE JUMP JUMPDEST POP DUP1 SWAP2 POP POP SWAP3 SWAP2 POP POP JUMP JUMPDEST PUSH1 0x0 PUSH1 0x20 DUP3 ADD SWAP1 POP DUP2 DUP2 SUB PUSH1 0x0 DUP4 ADD MSTORE PUSH2 0x30D7 DUP2 DUP5 PUSH2 0x300D JUMP JUMPDEST SWAP1 POP SWAP3 SWAP2 POP POP JUMP JUMPDEST PUSH2 0x30E8 DUP2 PUSH2 0x2DD5 JUMP JUMPDEST DUP2 EQ PUSH2 0x30F3 JUMPI PUSH1 0x0 DUP1 REVERT JUMPDEST POP JUMP JUMPDEST PUSH1 0x0 DUP2 CALLDATALOAD SWAP1 POP PUSH2 0x3105 DUP2 PUSH2 0x30DF JUMP JUMPDEST SWAP3 SWAP2 POP POP JUMP JUMPDEST PUSH1 0x0 PUSH1 0x20 DUP3 DUP5 SUB SLT ISZERO PUSH2 0x3121 JUMPI PUSH2 0x3120 PUSH2 0x29E4 JUMP JUMPDEST JUMPDEST PUSH1 0x0 PUSH2 0x312F DUP5 DUP3 DUP6 ADD PUSH2 0x30F6 JUMP JUMPDEST SWAP2 POP POP SWAP3 SWAP2 POP POP JUMP JUMPDEST PUSH1 0x0 DUP3 DUP3 MSTORE PUSH1 0x20 DUP3 ADD SWAP1 POP SWAP3 SWAP2 POP POP JUMP JUMPDEST PUSH1 0x0 PUSH2 0x3154 DUP3 PUSH2 0x2DF6 JUMP JUMPDEST PUSH2 0x315E DUP2 DUP6 PUSH2 0x3138 JUMP JUMPDEST SWAP4 POP PUSH2 0x316E DUP2 DUP6 PUSH1 0x20 DUP7 ADD PUSH2 0x2E12 JUMP JUMPDEST PUSH2 0x3177 DUP2 PUSH2 0x2A5B JUMP JUMPDEST DUP5 ADD SWAP2 POP POP SWAP3 SWAP2 POP POP JUMP JUMPDEST PUSH1 0x0 DUP2 ISZERO ISZERO SWAP1 POP SWAP2 SWAP1 POP JUMP JUMPDEST PUSH2 0x3197 DUP2 PUSH2 0x3182 JUMP JUMPDEST DUP3 MSTORE POP POP JUMP JUMPDEST PUSH1 0x0 PUSH2 0x100 DUP3 ADD SWAP1 POP PUSH2 0x31B3 PUSH1 0x0 DUP4 ADD DUP12 PUSH2 0x2D8B JUMP JUMPDEST DUP2 DUP2 SUB PUSH1 0x20 DUP4 ADD MSTORE PUSH2 0x31C5 DUP2 DUP11 PUSH2 0x3149 JUMP JUMPDEST SWAP1 POP DUP2 DUP2 SUB PUSH1 0x40 DUP4 ADD MSTORE PUSH2 0x31D9 DUP2 DUP10 PUSH2 0x3149 JUMP JUMPDEST SWAP1 POP DUP2 DUP2 SUB PUSH1 0x60 DUP4 ADD MSTORE PUSH2 0x31ED DUP2 DUP9 PUSH2 0x3149 JUMP JUMPDEST SWAP1 POP PUSH2 0x31FC PUSH1 0x80 DUP4 ADD DUP8 PUSH2 0x2D8B JUMP JUMPDEST PUSH2 0x3209 PUSH1 0xA0 DUP4 ADD DUP7 PUSH2 0x318E JUMP JUMPDEST DUP2 DUP2 SUB PUSH1 0xC0 DUP4 ADD MSTORE PUSH2 0x321B DUP2 DUP6 PUSH2 0x3149 JUMP JUMPDEST SWAP1 POP DUP2 DUP2 SUB PUSH1 0xE0 DUP4 ADD MSTORE PUSH2 0x322F DUP2 DUP5 PUSH2 0x3149 JUMP JUMPDEST SWAP1 POP SWAP10 SWAP9 POP POP POP POP POP POP POP POP POP JUMP JUMPDEST PUSH1 0x0 DUP1 PUSH1 0x40 DUP4 DUP6 SUB SLT ISZERO PUSH2 0x3255 JUMPI PUSH2 0x3254 PUSH2 0x29E4 JUMP JUMPDEST JUMPDEST PUSH1 0x0 PUSH2 0x3263 DUP6 DUP3 DUP7 ADD PUSH2 0x2A0F JUMP JUMPDEST SWAP3 POP POP PUSH1 0x20 PUSH2 0x3274 DUP6 DUP3 DUP7 ADD PUSH2 0x30F6 JUMP JUMPDEST SWAP2 POP POP SWAP3 POP SWAP3 SWAP1 POP JUMP JUMPDEST PUSH1 0x0 PUSH1 0x20 DUP3 ADD SWAP1 POP PUSH2 0x3293 PUSH1 0x0 DUP4 ADD DUP5 PUSH2 0x318E JUMP JUMPDEST SWAP3 SWAP2 POP POP JUMP JUMPDEST PUSH1 0x0 PUSH2 0x32A4 DUP3 PUSH2 0x2DB5 JUMP JUMPDEST SWAP1 POP SWAP2 SWAP1 POP JUMP JUMPDEST PUSH2 0x32B4 DUP2 PUSH2 0x3299 JUMP JUMPDEST DUP3 MSTORE POP POP JUMP JUMPDEST PUSH1 0x0 PUSH1 0x20 DUP3 ADD SWAP1 POP PUSH2 0x32CF PUSH1 0x0 DUP4 ADD DUP5 PUSH2 0x32AB JUMP JUMPDEST SWAP3 SWAP2 POP POP JUMP JUMPDEST PUSH1 0x0 DUP2 MLOAD SWAP1 POP SWAP2 SWAP1 POP JUMP JUMPDEST PUSH1 0x0 DUP3 DUP3 MSTORE PUSH1 0x20 DUP3 ADD SWAP1 POP SWAP3 SWAP2 POP POP JUMP JUMPDEST PUSH1 0x0 DUP2 SWAP1 POP PUSH1 0x20 DUP3 ADD SWAP1 POP SWAP2 SWAP1 POP JUMP JUMPDEST PUSH1 0x0 PUSH2 0x100 DUP4 ADD PUSH1 0x0 DUP4 ADD MLOAD PUSH2 0x331A PUSH1 0x0 DUP7 ADD DUP3 PUSH2 0x2CD7 JUMP JUMPDEST POP PUSH1 0x20 DUP4 ADD MLOAD PUSH2 0x332D PUSH1 0x20 DUP7 ADD DUP3 PUSH2 0x2DE7 JUMP JUMPDEST POP PUSH1 0x40 DUP4 ADD MLOAD DUP5 DUP3 SUB PUSH1 0x40 DUP7 ADD MSTORE PUSH2 0x3345 DUP3 DUP3 PUSH2 0x2E3C JUMP JUMPDEST SWAP2 POP POP PUSH1 0x60 DUP4 ADD MLOAD DUP5 DUP3 SUB PUSH1 0x60 DUP7 ADD MSTORE PUSH2 0x335F DUP3 DUP3 PUSH2 0x2E3C JUMP JUMPDEST SWAP2 POP POP PUSH1 0x80 DUP4 ADD MLOAD PUSH2 0x3374 PUSH1 0x80 DUP7 ADD DUP3 PUSH2 0x2CD7 JUMP JUMPDEST POP PUSH1 0xA0 DUP4 ADD MLOAD PUSH2 0x3387 PUSH1 0xA0 DUP7 ADD DUP3 PUSH2 0x2CD7 JUMP JUMPDEST POP PUSH1 0xC0 DUP4 ADD MLOAD PUSH2 0x339A PUSH1 0xC0 DUP7 ADD DUP3 PUSH2 0x2CD7 JUMP JUMPDEST POP PUSH1 0xE0 DUP4 ADD MLOAD PUSH2 0x33AD PUSH1 0xE0 DUP7 ADD DUP3 PUSH2 0x2EDD JUMP JUMPDEST POP DUP1 SWAP2 POP POP SWAP3 SWAP2 POP POP JUMP JUMPDEST PUSH1 0x0 PUSH2 0x33C4 DUP4 DUP4 PUSH2 0x3301 JUMP JUMPDEST SWAP1 POP SWAP3 SWAP2 POP POP JUMP JUMPDEST PUSH1 0x0 PUSH1 0x20 DUP3 ADD SWAP1 POP SWAP2 SWAP1 POP JUMP JUMPDEST PUSH1 0x0 PUSH2 0x33E4 DUP3 PUSH2 0x32D5 JUMP JUMPDEST PUSH2 0x33EE DUP2 DUP6 PUSH2 0x32E0 JUMP JUMPDEST SWAP4 POP DUP4 PUSH1 0x20 DUP3 MUL DUP6 ADD PUSH2 0x3400 DUP6 PUSH2 0x32F1 JUMP JUMPDEST DUP1 PUSH1 0x0 JUMPDEST DUP6 DUP2 LT ISZERO PUSH2 0x343C JUMPI DUP5 DUP5 SUB DUP10 MSTORE DUP2 MLOAD PUSH2 0x341D DUP6 DUP3 PUSH2 0x33B8 JUMP JUMPDEST SWAP5 POP PUSH2 0x3428 DUP4 PUSH2 0x33CC JUMP JUMPDEST SWAP3 POP PUSH1 0x20 DUP11 ADD SWAP10 POP POP PUSH1 0x1 DUP2 ADD SWAP1 POP PUSH2 0x3404 JUMP JUMPDEST POP DUP3 SWAP8 POP DUP8 SWAP6 POP POP POP POP POP POP SWAP3 SWAP2 POP POP JUMP JUMPDEST PUSH1 0x0 PUSH1 0x20 DUP3 ADD SWAP1 POP DUP2 DUP2 SUB PUSH1 0x0 DUP4 ADD MSTORE PUSH2 0x3468 DUP2 DUP5 PUSH2 0x33D9 JUMP JUMPDEST SWAP1 POP SWAP3 SWAP2 POP POP JUMP JUMPDEST PUSH1 0x0 PUSH1 0x20 DUP3 DUP5 SUB SLT ISZERO PUSH2 0x3486 JUMPI PUSH2 0x3485 PUSH2 0x29E4 JUMP JUMPDEST JUMPDEST PUSH1 0x0 DUP3 ADD CALLDATALOAD PUSH8 0xFFFFFFFFFFFFFFFF DUP2 GT ISZERO PUSH2 0x34A4 JUMPI PUSH2 0x34A3 PUSH2 0x29E9 JUMP JUMPDEST JUMPDEST PUSH2 0x34B0 DUP5 DUP3 DUP6 ADD PUSH2 0x2B69 JUMP JUMPDEST SWAP2 POP POP SWAP3 SWAP2 POP POP JUMP JUMPDEST PUSH1 0x0 DUP1 PUSH1 0x0 PUSH1 0x60 DUP5 DUP7 SUB SLT ISZERO PUSH2 0x34D2 JUMPI PUSH2 0x34D1 PUSH2 0x29E4 JUMP JUMPDEST JUMPDEST PUSH1 0x0 PUSH2 0x34E0 DUP7 DUP3 DUP8 ADD PUSH2 0x2A0F JUMP JUMPDEST SWAP4 POP POP PUSH1 0x20 PUSH2 0x34F1 DUP7 DUP3 DUP8 ADD PUSH2 0x2A0F JUMP JUMPDEST SWAP3 POP POP PUSH1 0x40 PUSH2 0x3502 DUP7 DUP3 DUP8 ADD PUSH2 0x2A0F JUMP JUMPDEST SWAP2 POP POP SWAP3 POP SWAP3 POP SWAP3 JUMP JUMPDEST PUSH1 0x0 DUP2 MLOAD SWAP1 POP SWAP2 SWAP1 POP JUMP JUMPDEST PUSH1 0x0 DUP3 DUP3 MSTORE PUSH1 0x20 DUP3 ADD SWAP1 POP SWAP3 SWAP2 POP POP JUMP JUMPDEST PUSH1 0x0 DUP2 SWAP1 POP PUSH1 0x20 DUP3 ADD SWAP1 POP SWAP2 SWAP1 POP JUMP JUMPDEST PUSH1 0x0 PUSH2 0x100 DUP4 ADD PUSH1 0x0 DUP4 ADD MLOAD PUSH2 0x3551 PUSH1 0x0 DUP7 ADD DUP3 PUSH2 0x2CD7 JUMP JUMPDEST POP PUSH1 0x20 DUP4 ADD MLOAD PUSH2 0x3564 PUSH1 0x20 DUP7 ADD DUP3 PUSH2 0x2DE7 JUMP JUMPDEST POP PUSH1 0x40 DUP4 ADD MLOAD PUSH2 0x3577 PUSH1 0x40 DUP7 ADD DUP3 PUSH2 0x2CD7 JUMP JUMPDEST POP PUSH1 0x60 DUP4 ADD MLOAD DUP5 DUP3 SUB PUSH1 0x60 DUP7 ADD MSTORE PUSH2 0x358F DUP3 DUP3 PUSH2 0x2E3C JUMP JUMPDEST SWAP2 POP POP PUSH1 0x80 DUP4 ADD MLOAD PUSH2 0x35A4 PUSH1 0x80 DUP7 ADD DUP3 PUSH2 0x2CD7 JUMP JUMPDEST POP PUSH1 0xA0 DUP4 ADD MLOAD PUSH2 0x35B7 PUSH1 0xA0 DUP7 ADD DUP3 PUSH2 0x2CD7 JUMP JUMPDEST POP PUSH1 0xC0 DUP4 ADD MLOAD PUSH2 0x35CA PUSH1 0xC0 DUP7 ADD DUP3 PUSH2 0x2CD7 JUMP JUMPDEST POP PUSH1 0xE0 DUP4 ADD MLOAD PUSH2 0x35DD PUSH1 0xE0 DUP7 ADD DUP3 PUSH2 0x2FFE JUMP JUMPDEST POP DUP1 SWAP2 POP POP SWAP3 SWAP2 POP POP JUMP JUMPDEST PUSH1 0x0 PUSH2 0x35F4 DUP4 DUP4 PUSH2 0x3538 JUMP JUMPDEST SWAP1 POP SWAP3 SWAP2 POP POP JUMP JUMPDEST PUSH1 0x0 PUSH1 0x20 DUP3 ADD SWAP1 POP SWAP2 SWAP1 POP JUMP JUMPDEST PUSH1 0x0 PUSH2 0x3614 DUP3 PUSH2 0x350C JUMP JUMPDEST PUSH2 0x361E DUP2 DUP6 PUSH2 0x3517 JUMP JUMPDEST SWAP4 POP DUP4 PUSH1 0x20 DUP3 MUL DUP6 ADD PUSH2 0x3630 DUP6 PUSH2 0x3528 JUMP JUMPDEST DUP1 PUSH1 0x0 JUMPDEST DUP6 DUP2 LT ISZERO PUSH2 0x366C JUMPI DUP5 DUP5 SUB DUP10 MSTORE DUP2 MLOAD PUSH2 0x364D DUP6 DUP3 PUSH2 0x35E8 JUMP JUMPDEST SWAP5 POP PUSH2 0x3658 DUP4 PUSH2 0x35FC JUMP JUMPDEST SWAP3 POP PUSH1 0x20 DUP11 ADD SWAP10 POP POP PUSH1 0x1 DUP2 ADD SWAP1 POP PUSH2 0x3634 JUMP JUMPDEST POP DUP3 SWAP8 POP DUP8 SWAP6 POP POP POP POP POP POP SWAP3 SWAP2 POP POP JUMP JUMPDEST PUSH1 0x0 PUSH1 0x20 DUP3 ADD SWAP1 POP DUP2 DUP2 SUB PUSH1 0x0 DUP4 ADD MSTORE PUSH2 0x3698 DUP2 DUP5 PUSH2 0x3609 JUMP JUMPDEST SWAP1 POP SWAP3 SWAP2 POP POP JUMP JUMPDEST PUSH2 0x36A9 DUP2 PUSH2 0x3182 JUMP JUMPDEST DUP2 EQ PUSH2 0x36B4 JUMPI PUSH1 0x0 DUP1 REVERT JUMPDEST POP JUMP JUMPDEST PUSH1 0x0 DUP2 CALLDATALOAD SWAP1 POP PUSH2 0x36C6 DUP2 PUSH2 0x36A0 JUMP JUMPDEST SWAP3 SWAP2 POP POP JUMP JUMPDEST PUSH1 0x0 DUP1 PUSH1 0x0 DUP1 PUSH1 0x0 DUP1 PUSH1 0x0 PUSH1 0xE0 DUP9 DUP11 SUB SLT ISZERO PUSH2 0x36EB JUMPI PUSH2 0x36EA PUSH2 0x29E4 JUMP JUMPDEST JUMPDEST PUSH1 0x0 DUP9 ADD CALLDATALOAD PUSH8 0xFFFFFFFFFFFFFFFF DUP2 GT ISZERO PUSH2 0x3709 JUMPI PUSH2 0x3708 PUSH2 0x29E9 JUMP JUMPDEST JUMPDEST PUSH2 0x3715 DUP11 DUP3 DUP12 ADD PUSH2 0x2B69 JUMP JUMPDEST SWAP8 POP POP PUSH1 0x20 DUP9 ADD CALLDATALOAD PUSH8 0xFFFFFFFFFFFFFFFF DUP2 GT ISZERO PUSH2 0x3736 JUMPI PUSH2 0x3735 PUSH2 0x29E9 JUMP JUMPDEST JUMPDEST PUSH2 0x3742 DUP11 DUP3 DUP12 ADD PUSH2 0x2B69 JUMP JUMPDEST SWAP7 POP POP PUSH1 0x40 DUP9 ADD CALLDATALOAD PUSH8 0xFFFFFFFFFFFFFFFF DUP2 GT ISZERO PUSH2 0x3763 JUMPI PUSH2 0x3762 PUSH2 0x29E9 JUMP JUMPDEST JUMPDEST PUSH2 0x376F DUP11 DUP3 DUP12 ADD PUSH2 0x2B69 JUMP JUMPDEST SWAP6 POP POP PUSH1 0x60 DUP9 ADD CALLDATALOAD PUSH8 0xFFFFFFFFFFFFFFFF DUP2 GT ISZERO PUSH2 0x3790 JUMPI PUSH2 0x378F PUSH2 0x29E9 JUMP JUMPDEST JUMPDEST PUSH2 0x379C DUP11 DUP3 DUP12 ADD PUSH2 0x2B69 JUMP JUMPDEST SWAP5 POP POP PUSH1 0x80 DUP9 ADD CALLDATALOAD PUSH8 0xFFFFFFFFFFFFFFFF DUP2 GT ISZERO PUSH2 0x37BD JUMPI PUSH2 0x37BC PUSH2 0x29E9 JUMP JUMPDEST JUMPDEST PUSH2 0x37C9 DUP11 DUP3 DUP12 ADD PUSH2 0x2B69 JUMP JUMPDEST SWAP4 POP POP PUSH1 0xA0 PUSH2 0x37DA DUP11 DUP3 DUP12 ADD PUSH2 0x2A0F JUMP JUMPDEST SWAP3 POP POP PUSH1 0xC0 PUSH2 0x37EB DUP11 DUP3 DUP12 ADD PUSH2 0x36B7 JUMP JUMPDEST SWAP2 POP POP SWAP3 SWAP6 SWAP9 SWAP2 SWAP5 SWAP8 POP SWAP3 SWAP6 POP JUMP JUMPDEST PUSH32 0x4E6F742061205265676973746572656420557365722100000000000000000000 PUSH1 0x0 DUP3 ADD MSTORE POP JUMP JUMPDEST PUSH1 0x0 PUSH2 0x3830 PUSH1 0x16 DUP4 PUSH2 0x3138 JUMP JUMPDEST SWAP2 POP PUSH2 0x383B DUP3 PUSH2 0x37FA JUMP JUMPDEST PUSH1 0x20 DUP3 ADD SWAP1 POP SWAP2 SWAP1 POP JUMP JUMPDEST PUSH1 0x0 PUSH1 0x20 DUP3 ADD SWAP1 POP DUP2 DUP2 SUB PUSH1 0x0 DUP4 ADD MSTORE PUSH2 0x385F DUP2 PUSH2 0x3823 JUMP JUMPDEST SWAP1 POP SWAP2 SWAP1 POP JUMP JUMPDEST PUSH32 0x4E6F7420616E2061637469766520706F73740000000000000000000000000000 PUSH1 0x0 DUP3 ADD MSTORE POP JUMP JUMPDEST PUSH1 0x0 PUSH2 0x389C PUSH1 0x12 DUP4 PUSH2 0x3138 JUMP JUMPDEST SWAP2 POP PUSH2 0x38A7 DUP3 PUSH2 0x3866 JUMP JUMPDEST PUSH1 0x20 DUP3 ADD SWAP1 POP SWAP2 SWAP1 POP JUMP JUMPDEST PUSH1 0x0 PUSH1 0x20 DUP3 ADD SWAP1 POP DUP2 DUP2 SUB PUSH1 0x0 DUP4 ADD MSTORE PUSH2 0x38CB DUP2 PUSH2 0x388F JUMP JUMPDEST SWAP1 POP SWAP2 SWAP1 POP JUMP JUMPDEST PUSH32 0x4E487B7100000000000000000000000000000000000000000000000000000000 PUSH1 0x0 MSTORE PUSH1 0x11 PUSH1 0x4 MSTORE PUSH1 0x24 PUSH1 0x0 REVERT JUMPDEST PUSH1 0x0 PUSH2 0x390C DUP3 PUSH2 0x29EE JUMP JUMPDEST SWAP2 POP PUSH2 0x3917 DUP4 PUSH2 0x29EE JUMP JUMPDEST SWAP3 POP DUP3 DUP3 SUB SWAP1 POP DUP2 DUP2 GT ISZERO PUSH2 0x392F JUMPI PUSH2 0x392E PUSH2 0x38D2 JUMP JUMPDEST JUMPDEST SWAP3 SWAP2 POP POP JUMP JUMPDEST PUSH1 0x0 PUSH2 0x3940 DUP3 PUSH2 0x29EE JUMP JUMPDEST SWAP2 POP PUSH2 0x394B DUP4 PUSH2 0x29EE JUMP JUMPDEST SWAP3 POP DUP3 DUP3 ADD SWAP1 POP DUP1 DUP3 GT ISZERO PUSH2 0x3963 JUMPI PUSH2 0x3962 PUSH2 0x38D2 JUMP JUMPDEST JUMPDEST SWAP3 SWAP2 POP POP JUMP JUMPDEST PUSH32 0x4E487B7100000000000000000000000000000000000000000000000000000000 PUSH1 0x0 MSTORE PUSH1 0x22 PUSH1 0x4 MSTORE PUSH1 0x24 PUSH1 0x0 REVERT JUMPDEST PUSH1 0x0 PUSH1 0x2 DUP3 DIV SWAP1 POP PUSH1 0x1 DUP3 AND DUP1 PUSH2 0x39B0 JUMPI PUSH1 0x7F DUP3 AND SWAP2 POP JUMPDEST PUSH1 0x20 DUP3 LT DUP2 SUB PUSH2 0x39C3 JUMPI PUSH2 0x39C2 PUSH2 0x3969 JUMP JUMPDEST JUMPDEST POP SWAP2 SWAP1 POP JUMP JUMPDEST PUSH1 0x0 DUP2 SWAP1 POP DUP2 PUSH1 0x0 MSTORE PUSH1 0x20 PUSH1 0x0 KECCAK256 SWAP1 POP SWAP2 SWAP1 POP JUMP JUMPDEST PUSH1 0x0 PUSH1 0x20 PUSH1 0x1F DUP4 ADD DIV SWAP1 POP SWAP2 SWAP1 POP JUMP JUMPDEST PUSH1 0x0 DUP3 DUP3 SHL SWAP1 POP SWAP3 SWAP2 POP POP JUMP JUMPDEST PUSH1 0x0 PUSH1 0x8 DUP4 MUL PUSH2 0x3A2B PUSH32 0xFFFFFFFFFFFFFFFFFFFFFFFFFFFFFFFFFFFFFFFFFFFFFFFFFFFFFFFFFFFFFFFF DUP3 PUSH2 0x39EE JUMP JUMPDEST PUSH2 0x3A35 DUP7 DUP4 PUSH2 0x39EE JUMP JUMPDEST SWAP6 POP DUP1 NOT DUP5 AND SWAP4 POP DUP1 DUP7 AND DUP5 OR SWAP3 POP POP POP SWAP4 SWAP3 POP POP POP JUMP JUMPDEST PUSH1 0x0 DUP2 SWAP1 POP SWAP2 SWAP1 POP JUMP JUMPDEST PUSH1 0x0 PUSH2 0x3A72 PUSH2 0x3A6D PUSH2 0x3A68 DUP5 PUSH2 0x29EE JUMP JUMPDEST PUSH2 0x3A4D JUMP JUMPDEST PUSH2 0x29EE JUMP JUMPDEST SWAP1 POP SWAP2 SWAP1 POP JUMP JUMPDEST PUSH1 0x0 DUP2 SWAP1 POP SWAP2 SWAP1 POP JUMP JUMPDEST PUSH2 0x3A8C DUP4 PUSH2 0x3A57 JUMP JUMPDEST PUSH2 0x3AA0 PUSH2 0x3A98 DUP3 PUSH2 0x3A79 JUMP JUMPDEST DUP5 DUP5 SLOAD PUSH2 0x39FB JUMP JUMPDEST DUP3 SSTORE POP POP POP POP JUMP JUMPDEST PUSH1 0x0 SWAP1 JUMP JUMPDEST PUSH2 0x3AB5 PUSH2 0x3AA8 JUMP JUMPDEST PUSH2 0x3AC0 DUP2 DUP5 DUP5 PUSH2 0x3A83 JUMP JUMPDEST POP POP POP JUMP JUMPDEST JUMPDEST DUP2 DUP2 LT ISZERO PUSH2 0x3AE4 JUMPI PUSH2 0x3AD9 PUSH1 0x0 DUP3 PUSH2 0x3AAD JUMP JUMPDEST PUSH1 0x1 DUP2 ADD SWAP1 POP PUSH2 0x3AC6 JUMP JUMPDEST POP POP JUMP JUMPDEST PUSH1 0x1F DUP3 GT ISZERO PUSH2 0x3B29 JUMPI PUSH2 0x3AFA DUP2 PUSH2 0x39C9 JUMP JUMPDEST PUSH2 0x3B03 DUP5 PUSH2 0x39DE JUMP JUMPDEST DUP2 ADD PUSH1 0x20 DUP6 LT ISZERO PUSH2 0x3B12 JUMPI DUP2 SWAP1 POP JUMPDEST PUSH2 0x3B26 PUSH2 0x3B1E DUP6 PUSH2 0x39DE JUMP JUMPDEST DUP4 ADD DUP3 PUSH2 0x3AC5 JUMP JUMPDEST POP POP JUMPDEST POP POP POP JUMP JUMPDEST PUSH1 0x0 DUP3 DUP3 SHR SWAP1 POP SWAP3 SWAP2 POP POP JUMP JUMPDEST PUSH1 0x0 PUSH2 0x3B4C PUSH1 0x0 NOT DUP5 PUSH1 0x8 MUL PUSH2 0x3B2E JUMP JUMPDEST NOT DUP1 DUP4 AND SWAP2 POP POP SWAP3 SWAP2 POP POP JUMP JUMPDEST PUSH1 0x0 PUSH2 0x3B65 DUP4 DUP4 PUSH2 0x3B3B JUMP JUMPDEST SWAP2 POP DUP3 PUSH1 0x2 MUL DUP3 OR SWAP1 POP SWAP3 SWAP2 POP POP JUMP JUMPDEST PUSH2 0x3B7E DUP3 PUSH2 0x2DF6 JUMP JUMPDEST PUSH8 0xFFFFFFFFFFFFFFFF DUP2 GT ISZERO PUSH2 0x3B97 JUMPI PUSH2 0x3B96 PUSH2 0x2A6C JUMP JUMPDEST JUMPDEST PUSH2 0x3BA1 DUP3 SLOAD PUSH2 0x3998 JUMP JUMPDEST PUSH2 0x3BAC DUP3 DUP3 DUP6 PUSH2 0x3AE8 JUMP JUMPDEST PUSH1 0x0 PUSH1 0x20 SWAP1 POP PUSH1 0x1F DUP4 GT PUSH1 0x1 DUP2 EQ PUSH2 0x3BDF JUMPI PUSH1 0x0 DUP5 ISZERO PUSH2 0x3BCD JUMPI DUP3 DUP8 ADD MLOAD SWAP1 POP JUMPDEST PUSH2 0x3BD7 DUP6 DUP3 PUSH2 0x3B59 JUMP JUMPDEST DUP7 SSTORE POP PUSH2 0x3C3F JUMP JUMPDEST PUSH1 0x1F NOT DUP5 AND PUSH2 0x3BED DUP7 PUSH2 0x39C9 JUMP JUMPDEST PUSH1 0x0 JUMPDEST DUP3 DUP2 LT ISZERO PUSH2 0x3C15 JUMPI DUP5 DUP10 ADD MLOAD DUP3 SSTORE PUSH1 0x1 DUP3 ADD SWAP2 POP PUSH1 0x20 DUP6 ADD SWAP5 POP PUSH1 0x20 DUP2 ADD SWAP1 POP PUSH2 0x3BF0 JUMP JUMPDEST DUP7 DUP4 LT ISZERO PUSH2 0x3C32 JUMPI DUP5 DUP10 ADD MLOAD PUSH2 0x3C2E PUSH1 0x1F DUP10 AND DUP3 PUSH2 0x3B3B JUMP JUMPDEST DUP4 SSTORE POP JUMPDEST PUSH1 0x1 PUSH1 0x2 DUP9 MUL ADD DUP9 SSTORE POP POP POP JUMPDEST POP POP POP POP POP POP JUMP JUMPDEST PUSH2 0x3C50 DUP2 PUSH2 0x2DD5 JUMP JUMPDEST DUP3 MSTORE POP POP JUMP JUMPDEST PUSH1 0x0 PUSH1 0x60 DUP3 ADD SWAP1 POP PUSH2 0x3C6B PUSH1 0x0 DUP4 ADD DUP7 PUSH2 0x3C47 JUMP JUMPDEST PUSH2 0x3C78 PUSH1 0x20 DUP4 ADD DUP6 PUSH2 0x2D8B JUMP JUMPDEST PUSH2 0x3C85 PUSH1 0x40 DUP4 ADD DUP5 PUSH2 0x2D8B JUMP JUMPDEST SWAP5 SWAP4 POP POP POP POP JUMP JUMPDEST PUSH32 0x436F6D6D656E742063616E206E6F7420626520656D7074792021000000000000 PUSH1 0x0 DUP3 ADD MSTORE POP JUMP JUMPDEST PUSH1 0x0 PUSH2 0x3CC3 PUSH1 0x1A DUP4 PUSH2 0x3138 JUMP JUMPDEST SWAP2 POP PUSH2 0x3CCE DUP3 PUSH2 0x3C8D JUMP JUMPDEST PUSH1 0x20 DUP3 ADD SWAP1 POP SWAP2 SWAP1 POP JUMP JUMPDEST PUSH1 0x0 PUSH1 0x20 DUP3 ADD SWAP1 POP DUP2 DUP2 SUB PUSH1 0x0 DUP4 ADD MSTORE PUSH2 0x3CF2 DUP2 PUSH2 0x3CB6 JUMP JUMPDEST SWAP1 POP SWAP2 SWAP1 POP JUMP JUMPDEST PUSH1 0x0 DUP2 SWAP1 POP SWAP2 SWAP1 POP JUMP JUMPDEST PUSH1 0x0 PUSH2 0x3D1E PUSH2 0x3D19 PUSH2 0x3D14 DUP5 PUSH2 0x3CF9 JUMP JUMPDEST PUSH2 0x3A4D JUMP JUMPDEST PUSH2 0x29EE JUMP JUMPDEST SWAP1 POP SWAP2 SWAP1 POP JUMP JUMPDEST PUSH2 0x3D2E DUP2 PUSH2 0x3D03 JUMP JUMPDEST DUP3 MSTORE POP POP JUMP JUMPDEST PUSH1 0x0 PUSH1 0xE0 DUP3 ADD SWAP1 POP PUSH2 0x3D49 PUSH1 0x0 DUP4 ADD DUP11 PUSH2 0x3C47 JUMP JUMPDEST PUSH2 0x3D56 PUSH1 0x20 DUP4 ADD DUP10 PUSH2 0x2D8B JUMP JUMPDEST PUSH2 0x3D63 PUSH1 0x40 DUP4 ADD DUP9 PUSH2 0x2D8B JUMP JUMPDEST PUSH2 0x3D70 PUSH1 0x60 DUP4 ADD DUP8 PUSH2 0x3D25 JUMP JUMPDEST PUSH2 0x3D7D PUSH1 0x80 DUP4 ADD DUP7 PUSH2 0x3D25 JUMP JUMPDEST PUSH2 0x3D8A PUSH1 0xA0 DUP4 ADD DUP6 PUSH2 0x2D8B JUMP JUMPDEST DUP2 DUP2 SUB PUSH1 0xC0 DUP4 ADD MSTORE PUSH2 0x3D9C DUP2 DUP5 PUSH2 0x3149 JUMP JUMPDEST SWAP1 POP SWAP9 SWAP8 POP POP POP POP POP POP POP POP JUMP JUMPDEST PUSH1 0x0 PUSH2 0x3DB5 DUP3 PUSH2 0x29EE JUMP JUMPDEST SWAP2 POP PUSH2 0x3DC0 DUP4 PUSH2 0x29EE JUMP JUMPDEST SWAP3 POP DUP3 DUP3 MUL PUSH2 0x3DCE DUP2 PUSH2 0x29EE JUMP JUMPDEST SWAP2 POP DUP3 DUP3 DIV DUP5 EQ DUP4 ISZERO OR PUSH2 0x3DE5 JUMPI PUSH2 0x3DE4 PUSH2 0x38D2 JUMP JUMPDEST JUMPDEST POP SWAP3 SWAP2 POP POP JUMP JUMPDEST PUSH32 0x4E487B7100000000000000000000000000000000000000000000000000000000 PUSH1 0x0 MSTORE PUSH1 0x32 PUSH1 0x4 MSTORE PUSH1 0x24 PUSH1 0x0 REVERT JUMPDEST PUSH1 0x0 PUSH2 0x3E26 DUP3 PUSH2 0x29EE JUMP JUMPDEST SWAP2 POP PUSH32 0xFFFFFFFFFFFFFFFFFFFFFFFFFFFFFFFFFFFFFFFFFFFFFFFFFFFFFFFFFFFFFFFF DUP3 SUB PUSH2 0x3E58 JUMPI PUSH2 0x3E57 PUSH2 0x38D2 JUMP JUMPDEST JUMPDEST PUSH1 0x1 DUP3 ADD SWAP1 POP SWAP2 SWAP1 POP JUMP JUMPDEST PUSH32 0x4E6F7420616E2061637469766520636F6D6D656E740000000000000000000000 PUSH1 0x0 DUP3 ADD MSTORE POP JUMP JUMPDEST PUSH1 0x0 PUSH2 0x3E99 PUSH1 0x15 DUP4 PUSH2 0x3138 JUMP JUMPDEST SWAP2 POP PUSH2 0x3EA4 DUP3 PUSH2 0x3E63 JUMP JUMPDEST PUSH1 0x20 DUP3 ADD SWAP1 POP SWAP2 SWAP1 POP JUMP JUMPDEST PUSH1 0x0 PUSH1 0x20 DUP3 ADD SWAP1 POP DUP2 DUP2 SUB PUSH1 0x0 DUP4 ADD MSTORE PUSH2 0x3EC8 DUP2 PUSH2 0x3E8C JUMP JUMPDEST SWAP1 POP SWAP2 SWAP1 POP JUMP JUMPDEST PUSH1 0x0 DUP2 SWAP1 POP SWAP3 SWAP2 POP POP JUMP JUMPDEST PUSH1 0x0 PUSH2 0x3EE5 DUP3 PUSH2 0x2DF6 JUMP JUMPDEST PUSH2 0x3EEF DUP2 DUP6 PUSH2 0x3ECF JUMP JUMPDEST SWAP4 POP PUSH2 0x3EFF DUP2 DUP6 PUSH1 0x20 DUP7 ADD PUSH2 0x2E12 JUMP JUMPDEST DUP1 DUP5 ADD SWAP2 POP POP SWAP3 SWAP2 POP POP JUMP JUMPDEST PUSH1 0x0 PUSH2 0x3F17 DUP3 DUP5 PUSH2 0x3EDA JUMP JUMPDEST SWAP2 POP DUP2 SWAP1 POP SWAP3 SWAP2 POP POP JUMP JUMPDEST PUSH32 0x5573657220616C72656164792072656769737465726564000000000000000000 PUSH1 0x0 DUP3 ADD MSTORE POP JUMP JUMPDEST PUSH1 0x0 PUSH2 0x3F58 PUSH1 0x17 DUP4 PUSH2 0x3138 JUMP JUMPDEST SWAP2 POP PUSH2 0x3F63 DUP3 PUSH2 0x3F22 JUMP JUMPDEST PUSH1 0x20 DUP3 ADD SWAP1 POP SWAP2 SWAP1 POP JUMP JUMPDEST PUSH1 0x0 PUSH1 0x20 DUP3 ADD SWAP1 POP DUP2 DUP2 SUB PUSH1 0x0 DUP4 ADD MSTORE PUSH2 0x3F87 DUP2 PUSH2 0x3F4B JUMP JUMPDEST SWAP1 POP SWAP2 SWAP1 POP JUMP JUMPDEST PUSH32 0x557365726E616D6520616C72656164792074616B656E00000000000000000000 PUSH1 0x0 DUP3 ADD MSTORE POP JUMP JUMPDEST PUSH1 0x0 PUSH2 0x3FC4 PUSH1 0x16 DUP4 PUSH2 0x3138 JUMP JUMPDEST SWAP2 POP PUSH2 0x3FCF DUP3 PUSH2 0x3F8E JUMP JUMPDEST PUSH1 0x20 DUP3 ADD SWAP1 POP SWAP2 SWAP1 POP JUMP JUMPDEST PUSH1 0x0 PUSH1 0x20 DUP3 ADD SWAP1 POP DUP2 DUP2 SUB PUSH1 0x0 DUP4 ADD MSTORE PUSH2 0x3FF3 DUP2 PUSH2 0x3FB7 JUMP JUMPDEST SWAP1 POP SWAP2 SWAP1 POP JUMP JUMPDEST PUSH1 0x0 PUSH1 0x40 DUP3 ADD SWAP1 POP PUSH2 0x400F PUSH1 0x0 DUP4 ADD DUP6 PUSH2 0x3C47 JUMP JUMPDEST PUSH2 0x401C PUSH1 0x20 DUP4 ADD DUP5 PUSH2 0x2D8B JUMP JUMPDEST SWAP4 SWAP3 POP POP POP JUMP INVALID LOG2 PUSH5 0x6970667358 0x22 SLT KECCAK256 PUSH8 0xD9099DAC69675096 EXTCODECOPY CALLVALUE XOR LOG1 MOD PUSH14 0xB336D7381BA1CEEF67FF3B427425 CALLCODE ADDMOD XOR PUSH5 0x736F6C6343 STOP ADDMOD SLT STOP CALLER "},"methodIdentifiers":{"createComment(uint256,string)":"40a17985","createPost(string,string)":"392338f5","getCommentById(uint256)":"6c43dbb4","getPostById(uint256)":"64e95895","getPostComments(uint256,uint256,uint256)":"bebce300","getPostIds(uint256,uint256)":"49e03502","getUser(address)":"6f77926b","getUserPosts(address)":"9a2194a9","isLikedByAddress(uint256,address)":"875003aa","likePost(uint256)":"725009d3","owner()":"8da5cb5b","registerUser(string,string,string,string,string,uint256,bool)":"f82217c1","totalComments()":"61936b81","totalPosts()":"8e53fb41","totalUsers()":"bff1f9e1","unLikePost(uint256)":"2f4992ef","userNameAvailable(string)":"b90c2073"}}}}}